{
  "contractName": "CentralizedArbitrator",
  "abi": [
    {
      "inputs": [
        {
          "internalType": "uint256",
          "name": "_arbitrationPrice",
          "type": "uint256"
        }
      ],
      "stateMutability": "nonpayable",
      "type": "constructor"
    },
    {
      "anonymous": false,
      "inputs": [
        {
          "indexed": true,
          "internalType": "uint256",
          "name": "_disputeID",
          "type": "uint256"
        },
        {
          "indexed": true,
          "internalType": "contract Arbitrable",
          "name": "_arbitrable",
          "type": "address"
        }
      ],
      "name": "AppealDecision",
      "type": "event"
    },
    {
      "anonymous": false,
      "inputs": [
        {
          "indexed": true,
          "internalType": "uint256",
          "name": "_disputeID",
          "type": "uint256"
        },
        {
          "indexed": true,
          "internalType": "contract Arbitrable",
          "name": "_arbitrable",
          "type": "address"
        }
      ],
      "name": "AppealPossible",
      "type": "event"
    },
    {
      "anonymous": false,
      "inputs": [
        {
          "indexed": true,
          "internalType": "uint256",
          "name": "_disputeID",
          "type": "uint256"
        },
        {
          "indexed": true,
          "internalType": "contract Arbitrable",
          "name": "_arbitrable",
          "type": "address"
        }
      ],
      "name": "DisputeCreation",
      "type": "event"
    },
    {
      "inputs": [
        {
          "internalType": "uint256",
          "name": "_disputeID",
          "type": "uint256"
        },
        {
          "internalType": "bytes",
          "name": "_extraData",
          "type": "bytes"
        }
      ],
      "name": "appeal",
      "outputs": [],
      "stateMutability": "payable",
      "type": "function",
      "payable": true
    },
    {
      "inputs": [
        {
          "internalType": "uint256",
          "name": "_disputeID",
          "type": "uint256"
        }
      ],
      "name": "appealPeriod",
      "outputs": [
        {
          "internalType": "uint256",
          "name": "start",
          "type": "uint256"
        },
        {
          "internalType": "uint256",
          "name": "end",
          "type": "uint256"
        }
      ],
      "stateMutability": "view",
      "type": "function",
      "constant": true
    },
    {
      "inputs": [
        {
          "internalType": "uint256",
          "name": "",
          "type": "uint256"
        }
      ],
      "name": "disputes",
      "outputs": [
        {
          "internalType": "contract Arbitrable",
          "name": "arbitrated",
          "type": "address"
        },
        {
          "internalType": "uint256",
          "name": "choices",
          "type": "uint256"
        },
        {
          "internalType": "uint256",
          "name": "fee",
          "type": "uint256"
        },
        {
          "internalType": "uint256",
          "name": "ruling",
          "type": "uint256"
        },
        {
          "internalType": "enum Arbitrator.DisputeStatus",
          "name": "status",
          "type": "uint8"
        }
      ],
      "stateMutability": "view",
      "type": "function",
      "constant": true
    },
    {
      "inputs": [],
      "name": "owner",
      "outputs": [
        {
          "internalType": "address",
          "name": "",
          "type": "address"
        }
      ],
      "stateMutability": "view",
      "type": "function",
      "constant": true
    },
    {
      "inputs": [
        {
          "internalType": "uint256",
          "name": "_arbitrationPrice",
          "type": "uint256"
        }
      ],
      "name": "setArbitrationPrice",
      "outputs": [],
      "stateMutability": "nonpayable",
      "type": "function"
    },
    {
      "inputs": [
        {
          "internalType": "bytes",
          "name": "_extraData",
          "type": "bytes"
        }
      ],
      "name": "arbitrationCost",
      "outputs": [
        {
          "internalType": "uint256",
          "name": "fee",
          "type": "uint256"
        }
      ],
      "stateMutability": "view",
      "type": "function",
      "constant": true
    },
    {
      "inputs": [
        {
          "internalType": "uint256",
          "name": "_disputeID",
          "type": "uint256"
        },
        {
          "internalType": "bytes",
          "name": "_extraData",
          "type": "bytes"
        }
      ],
      "name": "appealCost",
      "outputs": [
        {
          "internalType": "uint256",
          "name": "fee",
          "type": "uint256"
        }
      ],
      "stateMutability": "view",
      "type": "function",
      "constant": true
    },
    {
      "inputs": [
        {
          "internalType": "uint256",
          "name": "_choices",
          "type": "uint256"
        },
        {
          "internalType": "bytes",
          "name": "_extraData",
          "type": "bytes"
        }
      ],
      "name": "createDispute",
      "outputs": [
        {
          "internalType": "uint256",
          "name": "disputeID",
          "type": "uint256"
        }
      ],
      "stateMutability": "payable",
      "type": "function",
      "payable": true
    },
    {
      "inputs": [
        {
          "internalType": "uint256",
          "name": "_disputeID",
          "type": "uint256"
        },
        {
          "internalType": "uint256",
          "name": "_ruling",
          "type": "uint256"
        }
      ],
      "name": "giveRuling",
      "outputs": [],
      "stateMutability": "nonpayable",
      "type": "function"
    },
    {
      "inputs": [
        {
          "internalType": "uint256",
          "name": "_disputeID",
          "type": "uint256"
        }
      ],
      "name": "disputeStatus",
      "outputs": [
        {
          "internalType": "enum Arbitrator.DisputeStatus",
          "name": "status",
          "type": "uint8"
        }
      ],
      "stateMutability": "view",
      "type": "function",
      "constant": true
    },
    {
      "inputs": [
        {
          "internalType": "uint256",
          "name": "_disputeID",
          "type": "uint256"
        }
      ],
      "name": "currentRuling",
      "outputs": [
        {
          "internalType": "uint256",
          "name": "ruling",
          "type": "uint256"
        }
      ],
      "stateMutability": "view",
      "type": "function",
      "constant": true
    }
  ],
  "bytecode": "0x6080604052600080546001600160a01b0319163317905534801561002257600080fd5b50604051610b04380380610b048339818101604052602081101561004557600080fd5b5051600155610aab806100596000396000f3fe60806040526004361061009c5760003560e01c8063afe15cfb11610064578063afe15cfb14610276578063c13517e1146102b9578063c97c4d5c14610364578063f23f16e614610394578063f7434ea91461044c578063ffb43c48146104fd5761009c565b806310f169e8146100a15780631c3db16d146100ec57806349912f8814610128578063564a565d146101d55780638da5cb5b14610245575b600080fd5b3480156100ad57600080fd5b506100cb600480360360208110156100c457600080fd5b5035610527565b604051808260028111156100db57fe5b815260200191505060405180910390f35b3480156100f857600080fd5b506101166004803603602081101561010f57600080fd5b5035610553565b60408051918252519081900360200190f35b6101d36004803603604081101561013e57600080fd5b81359190810190604081016020820135600160201b81111561015f57600080fd5b82018360208201111561017157600080fd5b803590602001918460018302840111600160201b8311171561019257600080fd5b91908080601f01602080910402602001604051908101604052809392919081815260200183838082843760009201919091525092955061057b945050505050565b005b3480156101e157600080fd5b506101ff600480360360208110156101f857600080fd5b50356105f8565b60405180866001600160a01b0316815260200185815260200184815260200183815260200182600281111561023057fe5b81526020019550505050505060405180910390f35b34801561025157600080fd5b5061025a610643565b604080516001600160a01b039092168252519081900360200190f35b34801561028257600080fd5b506102a06004803603602081101561029957600080fd5b5035610652565b6040805192835260208301919091528051918290030190f35b610116600480360360408110156102cf57600080fd5b81359190810190604081016020820135600160201b8111156102f057600080fd5b82018360208201111561030257600080fd5b803590602001918460018302840111600160201b8311171561032357600080fd5b91908080601f01602080910402602001604051908101604052809392919081815260200183838082843760009201919091525092955061065a945050505050565b34801561037057600080fd5b506101d36004803603604081101561038757600080fd5b5080359060200135610768565b3480156103a057600080fd5b50610116600480360360408110156103b757600080fd5b81359190810190604081016020820135600160201b8111156103d857600080fd5b8201836020820111156103ea57600080fd5b803590602001918460018302840111600160201b8311171561040b57600080fd5b91908080601f0160208091040260200160405190810160405280939291908181526020018383808284376000920191909152509295506107d5945050505050565b34801561045857600080fd5b506101166004803603602081101561046f57600080fd5b810190602081018135600160201b81111561048957600080fd5b82018360208201111561049b57600080fd5b803590602001918460018302840111600160201b831117156104bc57600080fd5b91908080601f0160208091040260200160405190810160405280939291908181526020018383808284376000920191909152509295506107e3945050505050565b34801561050957600080fd5b506101d36004803603602081101561052057600080fd5b50356107ea565b60006002828154811061053657fe5b600091825260209091206005909102016004015460ff1692915050565b60006002828154811061056257fe5b9060005260206000209060050201600301549050919050565b818161058782826107d5565b3410156105c55760405162461bcd60e51b8152600401808060200182810382526025815260200180610a276025913960400191505060405180910390fd5b604051339085907f9c9b64db9e130f48381bf697abf638e73117dbfbfd7a4484f2da3ba188f4187d90600090a350505050565b6002818154811061060557fe5b6000918252602090912060059091020180546001820154600283015460038401546004909401546001600160a01b0390931694509092909160ff1685565b6000546001600160a01b031681565b600080915091565b6000610666838361084e565b5060026040518060a00160405280336001600160a01b0316815260200185815260200134815260200160008152602001600060028111156106a357fe5b90528154600180820184556000938452602093849020835160059093020180546001600160a01b0319166001600160a01b0390931692909217825592820151818401556040820151600280830191909155606083015160038301556080830151600483018054949593949193909260ff1990921691849081111561072357fe5b021790555050600254604051600019909101925033915082907f141dfc18aa6a56fc816f44f0e9e2f1ebc92b15ab167770e17db5b084c10ed99590600090a392915050565b6000546001600160a01b031633146107c7576040805162461bcd60e51b815260206004820181905260248201527f43616e206f6e6c792062652063616c6c656420627920746865206f776e65722e604482015290519081900360640190fd5b6107d1828261089f565b5050565b6001600160ff1b0392915050565b5060015490565b6000546001600160a01b03163314610849576040805162461bcd60e51b815260206004820181905260248201527f43616e206f6e6c792062652063616c6c656420627920746865206f776e65722e604482015290519081900360640190fd5b600155565b60008161085a816107e3565b3410156108985760405162461bcd60e51b815260040180806020018281038252602a815260200180610a4c602a913960400191505060405180910390fd5b5092915050565b6000600283815481106108ae57fe5b906000526020600020906005020190508060010154821115610909576040805162461bcd60e51b815260206004820152600f60248201526e24b73b30b634b210393ab634b7339760891b604482015290519081900360640190fd5b6002600482015460ff16600281111561091e57fe5b141561095b5760405162461bcd60e51b8152600401808060200182810382526027815260200180610a006027913960400191505060405180910390fd5b6003810182905560048101805460ff1916600290811790915581015460405133916108fc811502916000818181858888f1505083546040805163188d362b60e11b8152600481018990526024810188905290516001600160a01b03909216945063311a6c569350604480820193506000929182900301818387803b1580156109e257600080fd5b505af11580156109f6573d6000803e3d6000fd5b5050505050505056fe5468652064697370757465206d757374206e6f7420626520736f6c76656420616c72656164792e4e6f7420656e6f7567682045544820746f20636f7665722061707065616c20636f7374732e4e6f7420656e6f7567682045544820746f20636f766572206172626974726174696f6e20636f7374732ea264697066735822122005c35dfa6ddfba4a82b80ccce377ef505fe44435c73961210db9746fb3c9ba8a64736f6c634300060c0033",
  "immutableReferences": {},
  "source": "/**\n *  @authors: [@clesaege, @n1c01a5, @epiqueras, @ferittuncer]\n *  @reviewers: [@clesaege*, @unknownunknown1*]\n *  @auditors: []\n *  @bounties: []\n *  @deployments: []\n *  @tools: [MythX]\n */\n\npragma solidity >=0.4.15;\n\nimport \"../arbitration/Arbitrator.sol\";\n\n/** @title Centralized Arbitrator\n *  @dev This is a centralized arbitrator deciding alone on the result of disputes. No appeals are possible.\n */\ncontract CentralizedArbitrator is Arbitrator {\n    address public owner = msg.sender;\n    uint256 arbitrationPrice; // Not public because arbitrationCost already acts as an accessor.\n    uint256 constant NOT_PAYABLE_VALUE = (2**256 - 2) / 2; // High value to be sure that the appeal is too expensive.\n\n    struct DisputeStruct {\n        Arbitrable arbitrated;\n        uint256 choices;\n        uint256 fee;\n        uint256 ruling;\n        DisputeStatus status;\n    }\n\n    modifier onlyOwner {\n        require(msg.sender == owner, \"Can only be called by the owner.\");\n        _;\n    }\n\n    DisputeStruct[] public disputes;\n\n    /** @dev Constructor. Set the initial arbitration price.\n     *  @param _arbitrationPrice Amount to be paid for arbitration.\n     */\n    constructor(uint256 _arbitrationPrice) public {\n        arbitrationPrice = _arbitrationPrice;\n    }\n\n    /** @dev Set the arbitration price. Only callable by the owner.\n     *  @param _arbitrationPrice Amount to be paid for arbitration.\n     */\n    function setArbitrationPrice(uint256 _arbitrationPrice) public onlyOwner {\n        arbitrationPrice = _arbitrationPrice;\n    }\n\n    /** @dev Cost of arbitration. Accessor to arbitrationPrice.\n     *  @param _extraData Not used by this contract.\n     *  @return fee Amount to be paid.\n     */\n    function arbitrationCost(bytes memory _extraData)\n        public\n        override\n        view\n        returns (uint256 fee)\n    {\n        return arbitrationPrice;\n    }\n\n    /** @dev Cost of appeal. Since it is not possible, it's a high value which can never be paid.\n     *  @param _disputeID ID of the dispute to be appealed. Not used by this contract.\n     *  @param _extraData Not used by this contract.\n     *  @return fee Amount to be paid.\n     */\n    function appealCost(uint256 _disputeID, bytes memory _extraData)\n        public\n        override\n        view\n        returns (uint256 fee)\n    {\n        return NOT_PAYABLE_VALUE;\n    }\n\n    /** @dev Create a dispute. Must be called by the arbitrable contract.\n     *  Must be paid at least arbitrationCost().\n     *  @param _choices Amount of choices the arbitrator can make in this dispute. When ruling ruling<=choices.\n     *  @param _extraData Can be used to give additional info on the dispute to be created.\n     *  @return disputeID ID of the dispute created.\n     */\n    function createDispute(uint256 _choices, bytes memory _extraData)\n        public\n        override\n        payable\n        returns (uint256 disputeID)\n    {\n        super.createDispute(_choices, _extraData);\n        disputes.push(\n            DisputeStruct({\n                arbitrated: Arbitrable(msg.sender),\n                choices: _choices,\n                fee: msg.value,\n                ruling: 0,\n                status: DisputeStatus.Waiting\n            })\n        );\n        disputeID = disputes.length - 1; // Create the dispute and return its number.\n        emit DisputeCreation(disputeID, Arbitrable(msg.sender));\n    }\n\n    /** @dev Give a ruling. UNTRUSTED.\n     *  @param _disputeID ID of the dispute to rule.\n     *  @param _ruling Ruling given by the arbitrator. Note that 0 means \"Not able/wanting to make a decision\".\n     */\n    function _giveRuling(uint256 _disputeID, uint256 _ruling) internal {\n        DisputeStruct storage dispute = disputes[_disputeID];\n        require(_ruling <= dispute.choices, \"Invalid ruling.\");\n        require(\n            dispute.status != DisputeStatus.Solved,\n            \"The dispute must not be solved already.\"\n        );\n\n        dispute.ruling = _ruling;\n        dispute.status = DisputeStatus.Solved;\n        /* solium-disable-next-line */\n        msg.sender.send(dispute.fee); // Avoid blocking.\n        dispute.arbitrated.rule(_disputeID, _ruling);\n    }\n\n    /** @dev Give a ruling. UNTRUSTED.\n     *  @param _disputeID ID of the dispute to rule.\n     *  @param _ruling Ruling given by the arbitrator. Note that 0 means \"Not able/wanting to make a decision\".\n     */\n    function giveRuling(uint256 _disputeID, uint256 _ruling) public onlyOwner {\n        return _giveRuling(_disputeID, _ruling);\n    }\n\n    /** @dev Return the status of a dispute.\n     *  @param _disputeID ID of the dispute to rule.\n     *  @return status The status of the dispute.\n     */\n    function disputeStatus(uint256 _disputeID)\n        public\n        override\n        view\n        returns (DisputeStatus status)\n    {\n        return disputes[_disputeID].status;\n    }\n\n    /** @dev Return the ruling of a dispute.\n     *  @param _disputeID ID of the dispute to rule.\n     *  @return ruling The ruling which would or has been given.\n     */\n    function currentRuling(uint256 _disputeID)\n        public\n        override\n        view\n        returns (uint256 ruling)\n    {\n        return disputes[_disputeID].ruling;\n    }\n}\n",
  "sourcePath": "/home/gustavo/projects/dagora/contracts/testing/CentralizedArbitrator.sol",
  "compiler": {
    "name": "solc",
    "version": "0.6.12+commit.27d51765.Emscripten.clang"
  },
  "schemaVersion": "3.2.3",
  "updatedAt": "2020-08-03T14:25:41.236Z",
  "networkType": "ethereum",
  "devdoc": {
    "details": "This is a centralized arbitrator deciding alone on the result of disputes. No appeals are possible.",
    "kind": "dev",
    "methods": {
      "appeal(uint256,bytes)": {
        "details": "Appeal a ruling. Note that it has to be called before the arbitrator contract calls rule.",
        "params": {
          "_disputeID": "ID of the dispute to be appealed.",
          "_extraData": "Can be used to give extra info on the appeal."
        }
      },
      "appealCost(uint256,bytes)": {
        "details": "Cost of appeal. Since it is not possible, it's a high value which can never be paid.",
        "params": {
          "_disputeID": "ID of the dispute to be appealed. Not used by this contract.",
          "_extraData": "Not used by this contract."
        },
        "returns": {
          "fee": "Amount to be paid."
        }
      },
      "appealPeriod(uint256)": {
        "details": "Compute the start and end of the dispute's current or next appeal period, if possible.",
        "params": {
          "_disputeID": "ID of the dispute."
        },
        "returns": {
          "start": "end The start and end of the period."
        }
      },
      "arbitrationCost(bytes)": {
        "details": "Cost of arbitration. Accessor to arbitrationPrice.",
        "params": {
          "_extraData": "Not used by this contract."
        },
        "returns": {
          "fee": "Amount to be paid."
        }
      },
      "constructor": {
        "details": "Constructor. Set the initial arbitration price.",
        "params": {
          "_arbitrationPrice": "Amount to be paid for arbitration."
        }
      },
      "createDispute(uint256,bytes)": {
        "details": "Create a dispute. Must be called by the arbitrable contract.  Must be paid at least arbitrationCost().",
        "params": {
          "_choices": "Amount of choices the arbitrator can make in this dispute. When ruling ruling<=choices.",
          "_extraData": "Can be used to give additional info on the dispute to be created."
        },
        "returns": {
          "disputeID": "ID of the dispute created."
        }
      },
      "currentRuling(uint256)": {
        "details": "Return the ruling of a dispute.",
        "params": {
          "_disputeID": "ID of the dispute to rule."
        },
        "returns": {
          "ruling": "The ruling which would or has been given."
        }
      },
      "disputeStatus(uint256)": {
        "details": "Return the status of a dispute.",
        "params": {
          "_disputeID": "ID of the dispute to rule."
        },
        "returns": {
          "status": "The status of the dispute."
        }
      },
      "giveRuling(uint256,uint256)": {
        "details": "Give a ruling. UNTRUSTED.",
        "params": {
          "_disputeID": "ID of the dispute to rule.",
          "_ruling": "Ruling given by the arbitrator. Note that 0 means \"Not able/wanting to make a decision\"."
        }
      },
      "setArbitrationPrice(uint256)": {
        "details": "Set the arbitration price. Only callable by the owner.",
        "params": {
          "_arbitrationPrice": "Amount to be paid for arbitration."
        }
      }
    },
    "title": "Centralized Arbitrator",
    "version": 1
  },
  "userdoc": {
    "kind": "user",
    "methods": {},
    "version": 1
  }
}