{
  "contractName": "CentralizedArbitrator",
  "abi": [
    {
      "inputs": [
        {
          "internalType": "uint256",
          "name": "_arbitrationPrice",
          "type": "uint256"
        }
      ],
      "stateMutability": "nonpayable",
      "type": "constructor"
    },
    {
      "anonymous": false,
      "inputs": [
        {
          "indexed": true,
          "internalType": "uint256",
          "name": "_disputeID",
          "type": "uint256"
        },
        {
          "indexed": true,
          "internalType": "contract Arbitrable",
          "name": "_arbitrable",
          "type": "address"
        }
      ],
      "name": "AppealDecision",
      "type": "event"
    },
    {
      "anonymous": false,
      "inputs": [
        {
          "indexed": true,
          "internalType": "uint256",
          "name": "_disputeID",
          "type": "uint256"
        },
        {
          "indexed": true,
          "internalType": "contract Arbitrable",
          "name": "_arbitrable",
          "type": "address"
        }
      ],
      "name": "AppealPossible",
      "type": "event"
    },
    {
      "anonymous": false,
      "inputs": [
        {
          "indexed": true,
          "internalType": "uint256",
          "name": "_disputeID",
          "type": "uint256"
        },
        {
          "indexed": true,
          "internalType": "contract Arbitrable",
          "name": "_arbitrable",
          "type": "address"
        }
      ],
      "name": "DisputeCreation",
      "type": "event"
    },
    {
      "inputs": [
        {
          "internalType": "uint256",
          "name": "_disputeID",
          "type": "uint256"
        },
        {
          "internalType": "bytes",
          "name": "_extraData",
          "type": "bytes"
        }
      ],
      "name": "appeal",
      "outputs": [],
      "stateMutability": "payable",
      "type": "function",
      "payable": true
    },
    {
      "inputs": [
        {
          "internalType": "uint256",
          "name": "_disputeID",
          "type": "uint256"
        }
      ],
      "name": "appealPeriod",
      "outputs": [
        {
          "internalType": "uint256",
          "name": "start",
          "type": "uint256"
        },
        {
          "internalType": "uint256",
          "name": "end",
          "type": "uint256"
        }
      ],
      "stateMutability": "view",
      "type": "function",
      "constant": true
    },
    {
      "inputs": [
        {
          "internalType": "uint256",
          "name": "",
          "type": "uint256"
        }
      ],
      "name": "disputes",
      "outputs": [
        {
          "internalType": "contract Arbitrable",
          "name": "arbitrated",
          "type": "address"
        },
        {
          "internalType": "uint256",
          "name": "choices",
          "type": "uint256"
        },
        {
          "internalType": "uint256",
          "name": "fee",
          "type": "uint256"
        },
        {
          "internalType": "uint256",
          "name": "ruling",
          "type": "uint256"
        },
        {
          "internalType": "enum Arbitrator.DisputeStatus",
          "name": "status",
          "type": "uint8"
        }
      ],
      "stateMutability": "view",
      "type": "function",
      "constant": true
    },
    {
      "inputs": [],
      "name": "owner",
      "outputs": [
        {
          "internalType": "address",
          "name": "",
          "type": "address"
        }
      ],
      "stateMutability": "view",
      "type": "function",
      "constant": true
    },
    {
      "inputs": [
        {
          "internalType": "uint256",
          "name": "_arbitrationPrice",
          "type": "uint256"
        }
      ],
      "name": "setArbitrationPrice",
      "outputs": [],
      "stateMutability": "nonpayable",
      "type": "function"
    },
    {
      "inputs": [
        {
          "internalType": "bytes",
          "name": "_extraData",
          "type": "bytes"
        }
      ],
      "name": "arbitrationCost",
      "outputs": [
        {
          "internalType": "uint256",
          "name": "fee",
          "type": "uint256"
        }
      ],
      "stateMutability": "view",
      "type": "function",
      "constant": true
    },
    {
      "inputs": [
        {
          "internalType": "uint256",
          "name": "_disputeID",
          "type": "uint256"
        },
        {
          "internalType": "bytes",
          "name": "_extraData",
          "type": "bytes"
        }
      ],
      "name": "appealCost",
      "outputs": [
        {
          "internalType": "uint256",
          "name": "fee",
          "type": "uint256"
        }
      ],
      "stateMutability": "view",
      "type": "function",
      "constant": true
    },
    {
      "inputs": [
        {
          "internalType": "uint256",
          "name": "_choices",
          "type": "uint256"
        },
        {
          "internalType": "bytes",
          "name": "_extraData",
          "type": "bytes"
        }
      ],
      "name": "createDispute",
      "outputs": [
        {
          "internalType": "uint256",
          "name": "disputeID",
          "type": "uint256"
        }
      ],
      "stateMutability": "payable",
      "type": "function",
      "payable": true
    },
    {
      "inputs": [
        {
          "internalType": "uint256",
          "name": "_disputeID",
          "type": "uint256"
        },
        {
          "internalType": "uint256",
          "name": "_ruling",
          "type": "uint256"
        }
      ],
      "name": "giveRuling",
      "outputs": [],
      "stateMutability": "nonpayable",
      "type": "function"
    },
    {
      "inputs": [
        {
          "internalType": "uint256",
          "name": "_disputeID",
          "type": "uint256"
        }
      ],
      "name": "disputeStatus",
      "outputs": [
        {
          "internalType": "enum Arbitrator.DisputeStatus",
          "name": "status",
          "type": "uint8"
        }
      ],
      "stateMutability": "view",
      "type": "function",
      "constant": true
    },
    {
      "inputs": [
        {
          "internalType": "uint256",
          "name": "_disputeID",
          "type": "uint256"
        }
      ],
      "name": "currentRuling",
      "outputs": [
        {
          "internalType": "uint256",
          "name": "ruling",
          "type": "uint256"
        }
      ],
      "stateMutability": "view",
      "type": "function",
      "constant": true
    }
  ],
  "bytecode": "0x6080604052600080546001600160a01b0319163317905534801561002257600080fd5b50604051610b13380380610b138339818101604052602081101561004557600080fd5b5051600155610aba806100596000396000f3fe60806040526004361061009c5760003560e01c8063afe15cfb11610064578063afe15cfb14610285578063c13517e1146102c8578063c97c4d5c14610373578063f23f16e6146103a3578063f7434ea91461045b578063ffb43c481461050c5761009c565b806310f169e8146100a15780631c3db16d146100ef57806349912f881461012b578063564a565d146101d85780638da5cb5b14610254575b600080fd5b3480156100ad57600080fd5b506100cb600480360360208110156100c457600080fd5b5035610536565b604051808260028111156100db57fe5b60ff16815260200191505060405180910390f35b3480156100fb57600080fd5b506101196004803603602081101561011257600080fd5b5035610562565b60408051918252519081900360200190f35b6101d66004803603604081101561014157600080fd5b81359190810190604081016020820135600160201b81111561016257600080fd5b82018360208201111561017457600080fd5b803590602001918460018302840111600160201b8311171561019557600080fd5b91908080601f01602080910402602001604051908101604052809392919081815260200183838082843760009201919091525092955061058a945050505050565b005b3480156101e457600080fd5b50610202600480360360208110156101fb57600080fd5b5035610607565b60405180866001600160a01b03166001600160a01b0316815260200185815260200184815260200183815260200182600281111561023c57fe5b60ff1681526020019550505050505060405180910390f35b34801561026057600080fd5b50610269610652565b604080516001600160a01b039092168252519081900360200190f35b34801561029157600080fd5b506102af600480360360208110156102a857600080fd5b5035610661565b6040805192835260208301919091528051918290030190f35b610119600480360360408110156102de57600080fd5b81359190810190604081016020820135600160201b8111156102ff57600080fd5b82018360208201111561031157600080fd5b803590602001918460018302840111600160201b8311171561033257600080fd5b91908080601f016020809104026020016040519081016040528093929190818152602001838380828437600092019190915250929550610669945050505050565b34801561037f57600080fd5b506101d66004803603604081101561039657600080fd5b5080359060200135610777565b3480156103af57600080fd5b50610119600480360360408110156103c657600080fd5b81359190810190604081016020820135600160201b8111156103e757600080fd5b8201836020820111156103f957600080fd5b803590602001918460018302840111600160201b8311171561041a57600080fd5b91908080601f0160208091040260200160405190810160405280939291908181526020018383808284376000920191909152509295506107e4945050505050565b34801561046757600080fd5b506101196004803603602081101561047e57600080fd5b810190602081018135600160201b81111561049857600080fd5b8201836020820111156104aa57600080fd5b803590602001918460018302840111600160201b831117156104cb57600080fd5b91908080601f0160208091040260200160405190810160405280939291908181526020018383808284376000920191909152509295506107f2945050505050565b34801561051857600080fd5b506101d66004803603602081101561052f57600080fd5b50356107f9565b60006002828154811061054557fe5b600091825260209091206005909102016004015460ff1692915050565b60006002828154811061057157fe5b9060005260206000209060050201600301549050919050565b818161059682826107e4565b3410156105d45760405162461bcd60e51b8152600401808060200182810382526025815260200180610a366025913960400191505060405180910390fd5b604051339085907f9c9b64db9e130f48381bf697abf638e73117dbfbfd7a4484f2da3ba188f4187d90600090a350505050565b6002818154811061061457fe5b6000918252602090912060059091020180546001820154600283015460038401546004909401546001600160a01b0390931694509092909160ff1685565b6000546001600160a01b031681565b600080915091565b6000610675838361085d565b5060026040518060a00160405280336001600160a01b0316815260200185815260200134815260200160008152602001600060028111156106b257fe5b90528154600180820184556000938452602093849020835160059093020180546001600160a01b0319166001600160a01b0390931692909217825592820151818401556040820151600280830191909155606083015160038301556080830151600483018054949593949193909260ff1990921691849081111561073257fe5b021790555050600254604051600019909101925033915082907f141dfc18aa6a56fc816f44f0e9e2f1ebc92b15ab167770e17db5b084c10ed99590600090a392915050565b6000546001600160a01b031633146107d6576040805162461bcd60e51b815260206004820181905260248201527f43616e206f6e6c792062652063616c6c656420627920746865206f776e65722e604482015290519081900360640190fd5b6107e082826108ae565b5050565b6001600160ff1b0392915050565b5060015490565b6000546001600160a01b03163314610858576040805162461bcd60e51b815260206004820181905260248201527f43616e206f6e6c792062652063616c6c656420627920746865206f776e65722e604482015290519081900360640190fd5b600155565b600081610869816107f2565b3410156108a75760405162461bcd60e51b815260040180806020018281038252602a815260200180610a5b602a913960400191505060405180910390fd5b5092915050565b6000600283815481106108bd57fe5b906000526020600020906005020190508060010154821115610918576040805162461bcd60e51b815260206004820152600f60248201526e24b73b30b634b210393ab634b7339760891b604482015290519081900360640190fd5b6002600482015460ff16600281111561092d57fe5b141561096a5760405162461bcd60e51b8152600401808060200182810382526027815260200180610a0f6027913960400191505060405180910390fd5b6003810182905560048101805460ff1916600290811790915581015460405133916108fc811502916000818181858888f1505083546040805163188d362b60e11b8152600481018990526024810188905290516001600160a01b03909216945063311a6c569350604480820193506000929182900301818387803b1580156109f157600080fd5b505af1158015610a05573d6000803e3d6000fd5b5050505050505056fe5468652064697370757465206d757374206e6f7420626520736f6c76656420616c72656164792e4e6f7420656e6f7567682045544820746f20636f7665722061707065616c20636f7374732e4e6f7420656e6f7567682045544820746f20636f766572206172626974726174696f6e20636f7374732ea2646970667358221220c454f90d90272f1cc565c5be29db7c0334627d01cc3658c4ecd345e874c5af7e64736f6c63430006080033",
  "immutableReferences": {},
  "source": "/**\n *  @authors: [@clesaege, @n1c01a5, @epiqueras, @ferittuncer]\n *  @reviewers: [@clesaege*, @unknownunknown1*]\n *  @auditors: []\n *  @bounties: []\n *  @deployments: []\n *  @tools: [MythX]\n */\n\npragma solidity >=0.4.15;\n\nimport \"../arbitration/Arbitrator.sol\";\n\n/** @title Centralized Arbitrator\n *  @dev This is a centralized arbitrator deciding alone on the result of disputes. No appeals are possible.\n */\ncontract CentralizedArbitrator is Arbitrator {\n\n    address public owner = msg.sender;\n    uint arbitrationPrice; // Not public because arbitrationCost already acts as an accessor.\n    uint constant NOT_PAYABLE_VALUE = (2**256-2)/2; // High value to be sure that the appeal is too expensive.\n\n    struct DisputeStruct {\n        Arbitrable arbitrated;\n        uint choices;\n        uint fee;\n        uint ruling;\n        DisputeStatus status;\n    }\n\n    modifier onlyOwner {require(msg.sender==owner, \"Can only be called by the owner.\"); _;}\n\n    DisputeStruct[] public disputes;\n\n    /** @dev Constructor. Set the initial arbitration price.\n     *  @param _arbitrationPrice Amount to be paid for arbitration.\n     */\n    constructor(uint _arbitrationPrice) public {\n        arbitrationPrice = _arbitrationPrice;\n    }\n\n    /** @dev Set the arbitration price. Only callable by the owner.\n     *  @param _arbitrationPrice Amount to be paid for arbitration.\n     */\n    function setArbitrationPrice(uint _arbitrationPrice) public onlyOwner {\n        arbitrationPrice = _arbitrationPrice;\n    }\n\n    /** @dev Cost of arbitration. Accessor to arbitrationPrice.\n     *  @param _extraData Not used by this contract.\n     *  @return fee Amount to be paid.\n     */\n    function arbitrationCost(bytes memory _extraData) public override view returns(uint fee) {\n        return arbitrationPrice;\n    }\n\n    /** @dev Cost of appeal. Since it is not possible, it's a high value which can never be paid.\n     *  @param _disputeID ID of the dispute to be appealed. Not used by this contract.\n     *  @param _extraData Not used by this contract.\n     *  @return fee Amount to be paid.\n     */\n    function appealCost(uint _disputeID, bytes memory _extraData) public override view returns(uint fee) {\n        return NOT_PAYABLE_VALUE;\n    }\n\n    /** @dev Create a dispute. Must be called by the arbitrable contract.\n     *  Must be paid at least arbitrationCost().\n     *  @param _choices Amount of choices the arbitrator can make in this dispute. When ruling ruling<=choices.\n     *  @param _extraData Can be used to give additional info on the dispute to be created.\n     *  @return disputeID ID of the dispute created.\n     */\n    function createDispute(uint _choices, bytes memory _extraData) public override payable returns(uint disputeID)  {\n        super.createDispute(_choices, _extraData);\n        disputes.push(DisputeStruct({\n            arbitrated: Arbitrable(msg.sender),\n            choices: _choices,\n            fee: msg.value,\n            ruling: 0,\n            status: DisputeStatus.Waiting\n            }));\n        disputeID = disputes.length - 1; // Create the dispute and return its number.\n        emit DisputeCreation(disputeID, Arbitrable(msg.sender));\n    }\n\n    /** @dev Give a ruling. UNTRUSTED.\n     *  @param _disputeID ID of the dispute to rule.\n     *  @param _ruling Ruling given by the arbitrator. Note that 0 means \"Not able/wanting to make a decision\".\n     */\n    function _giveRuling(uint _disputeID, uint _ruling) internal {\n        DisputeStruct storage dispute = disputes[_disputeID];\n        require(_ruling <= dispute.choices, \"Invalid ruling.\");\n        require(dispute.status != DisputeStatus.Solved, \"The dispute must not be solved already.\");\n\n        dispute.ruling = _ruling;\n        dispute.status = DisputeStatus.Solved;\n        /* solium-disable-next-line */\n        msg.sender.send(dispute.fee); // Avoid blocking.\n        dispute.arbitrated.rule(_disputeID,_ruling);\n    }\n\n    /** @dev Give a ruling. UNTRUSTED.\n     *  @param _disputeID ID of the dispute to rule.\n     *  @param _ruling Ruling given by the arbitrator. Note that 0 means \"Not able/wanting to make a decision\".\n     */\n    function giveRuling(uint _disputeID, uint _ruling) public onlyOwner {\n        return _giveRuling(_disputeID, _ruling);\n    }\n\n    /** @dev Return the status of a dispute.\n     *  @param _disputeID ID of the dispute to rule.\n     *  @return status The status of the dispute.\n     */\n    function disputeStatus(uint _disputeID) public override view returns(DisputeStatus status) {\n        return disputes[_disputeID].status;\n    }\n\n    /** @dev Return the ruling of a dispute.\n     *  @param _disputeID ID of the dispute to rule.\n     *  @return ruling The ruling which would or has been given.\n     */\n    function currentRuling(uint _disputeID) public override view returns(uint ruling) {\n        return disputes[_disputeID].ruling;\n    }\n}",
  "sourcePath": "/home/gustavo/dagora/contracts/testing/CentralizedArbitrator.sol",
  "compiler": {
    "name": "solc",
    "version": "0.6.8+commit.0bbfe453.Emscripten.clang"
  },
  "schemaVersion": "3.2.0",
  "updatedAt": "2020-05-28T19:04:29.192Z",
  "networkType": "ethereum",
  "devdoc": {
    "details": "This is a centralized arbitrator deciding alone on the result of disputes. No appeals are possible.",
    "methods": {
      "appeal(uint256,bytes)": {
        "details": "Appeal a ruling. Note that it has to be called before the arbitrator contract calls rule.",
        "params": {
          "_disputeID": "ID of the dispute to be appealed.",
          "_extraData": "Can be used to give extra info on the appeal."
        }
      },
      "appealCost(uint256,bytes)": {
        "details": "Cost of appeal. Since it is not possible, it's a high value which can never be paid.",
        "params": {
          "_disputeID": "ID of the dispute to be appealed. Not used by this contract.",
          "_extraData": "Not used by this contract."
        },
        "returns": {
          "fee": "Amount to be paid."
        }
      },
      "appealPeriod(uint256)": {
        "details": "Compute the start and end of the dispute's current or next appeal period, if possible.",
        "params": {
          "_disputeID": "ID of the dispute."
        },
        "returns": {
          "start": "end The start and end of the period."
        }
      },
      "arbitrationCost(bytes)": {
        "details": "Cost of arbitration. Accessor to arbitrationPrice.",
        "params": {
          "_extraData": "Not used by this contract."
        },
        "returns": {
          "fee": "Amount to be paid."
        }
      },
      "constructor": {
        "details": "Constructor. Set the initial arbitration price.",
        "params": {
          "_arbitrationPrice": "Amount to be paid for arbitration."
        }
      },
      "createDispute(uint256,bytes)": {
        "details": "Create a dispute. Must be called by the arbitrable contract. Must be paid at least arbitrationCost().",
        "params": {
          "_choices": "Amount of choices the arbitrator can make in this dispute. When ruling ruling<=choices.",
          "_extraData": "Can be used to give additional info on the dispute to be created."
        },
        "returns": {
          "disputeID": "ID of the dispute created."
        }
      },
      "currentRuling(uint256)": {
        "details": "Return the ruling of a dispute.",
        "params": {
          "_disputeID": "ID of the dispute to rule."
        },
        "returns": {
          "ruling": "The ruling which would or has been given."
        }
      },
      "disputeStatus(uint256)": {
        "details": "Return the status of a dispute.",
        "params": {
          "_disputeID": "ID of the dispute to rule."
        },
        "returns": {
          "status": "The status of the dispute."
        }
      },
      "giveRuling(uint256,uint256)": {
        "details": "Give a ruling. UNTRUSTED.",
        "params": {
          "_disputeID": "ID of the dispute to rule.",
          "_ruling": "Ruling given by the arbitrator. Note that 0 means \"Not able/wanting to make a decision\"."
        }
      },
      "setArbitrationPrice(uint256)": {
        "details": "Set the arbitration price. Only callable by the owner.",
        "params": {
          "_arbitrationPrice": "Amount to be paid for arbitration."
        }
      }
    },
    "title": "Centralized Arbitrator"
  },
  "userdoc": {
    "methods": {}
  }
}