{
  "contractName": "Dagora",
  "abi": [
    {
      "inputs": [
        {
          "internalType": "address",
          "name": "_arbitrator",
          "type": "address"
        },
        {
          "internalType": "address",
          "name": "_token",
          "type": "address"
        },
        {
          "internalType": "address",
          "name": "_protocolFeeRecipient",
          "type": "address"
        },
        {
          "internalType": "uint256",
          "name": "_feeTimeoutDays",
          "type": "uint256"
        },
        {
          "internalType": "uint256",
          "name": "_blacklistTimeoutDays",
          "type": "uint256"
        },
        {
          "internalType": "uint256",
          "name": "_protocolFeePercentage",
          "type": "uint256"
        },
        {
          "internalType": "uint256",
          "name": "_tokenOwnerFeePercentage",
          "type": "uint256"
        },
        {
          "internalType": "bytes",
          "name": "_reportExtraData",
          "type": "bytes"
        },
        {
          "internalType": "bytes",
          "name": "_orderExtraData",
          "type": "bytes"
        },
        {
          "internalType": "string",
          "name": "_ipfsDomain",
          "type": "string"
        }
      ],
      "stateMutability": "nonpayable",
      "type": "constructor"
    },
    {
      "anonymous": false,
      "inputs": [
        {
          "indexed": true,
          "internalType": "contract Arbitrator",
          "name": "_arbitrator",
          "type": "address"
        },
        {
          "indexed": true,
          "internalType": "uint256",
          "name": "_disputeID",
          "type": "uint256"
        },
        {
          "indexed": false,
          "internalType": "uint256",
          "name": "_metaEvidenceID",
          "type": "uint256"
        },
        {
          "indexed": false,
          "internalType": "uint256",
          "name": "_evidenceGroupID",
          "type": "uint256"
        }
      ],
      "name": "Dispute",
      "type": "event"
    },
    {
      "anonymous": false,
      "inputs": [
        {
          "indexed": true,
          "internalType": "contract Arbitrator",
          "name": "_arbitrator",
          "type": "address"
        },
        {
          "indexed": true,
          "internalType": "uint256",
          "name": "_evidenceGroupID",
          "type": "uint256"
        },
        {
          "indexed": true,
          "internalType": "address",
          "name": "_party",
          "type": "address"
        },
        {
          "indexed": false,
          "internalType": "string",
          "name": "_evidence",
          "type": "string"
        }
      ],
      "name": "Evidence",
      "type": "event"
    },
    {
      "anonymous": false,
      "inputs": [
        {
          "indexed": true,
          "internalType": "bytes32",
          "name": "_hash",
          "type": "bytes32"
        },
        {
          "indexed": false,
          "internalType": "enum Dagora.Party",
          "name": "_party",
          "type": "uint8"
        }
      ],
      "name": "HasToPayFee",
      "type": "event"
    },
    {
      "anonymous": false,
      "inputs": [
        {
          "indexed": true,
          "internalType": "bytes32",
          "name": "hash",
          "type": "bytes32"
        }
      ],
      "name": "ListingApproved",
      "type": "event"
    },
    {
      "anonymous": false,
      "inputs": [
        {
          "indexed": true,
          "internalType": "bytes32",
          "name": "hash",
          "type": "bytes32"
        }
      ],
      "name": "ListingCancelled",
      "type": "event"
    },
    {
      "anonymous": false,
      "inputs": [
        {
          "indexed": true,
          "internalType": "uint256",
          "name": "_metaEvidenceID",
          "type": "uint256"
        },
        {
          "indexed": false,
          "internalType": "string",
          "name": "_evidence",
          "type": "string"
        }
      ],
      "name": "MetaEvidence",
      "type": "event"
    },
    {
      "anonymous": false,
      "inputs": [
        {
          "indexed": true,
          "internalType": "bytes32",
          "name": "hash",
          "type": "bytes32"
        }
      ],
      "name": "OrderApproved",
      "type": "event"
    },
    {
      "anonymous": false,
      "inputs": [
        {
          "indexed": true,
          "internalType": "bytes32",
          "name": "hash",
          "type": "bytes32"
        }
      ],
      "name": "OrderCancelled",
      "type": "event"
    },
    {
      "anonymous": false,
      "inputs": [
        {
          "indexed": true,
          "internalType": "address",
          "name": "previousOwner",
          "type": "address"
        },
        {
          "indexed": true,
          "internalType": "address",
          "name": "newOwner",
          "type": "address"
        }
      ],
      "name": "OwnershipTransferred",
      "type": "event"
    },
    {
      "anonymous": false,
      "inputs": [
        {
          "indexed": true,
          "internalType": "contract Arbitrator",
          "name": "_arbitrator",
          "type": "address"
        },
        {
          "indexed": true,
          "internalType": "uint256",
          "name": "_disputeID",
          "type": "uint256"
        },
        {
          "indexed": false,
          "internalType": "uint256",
          "name": "_ruling",
          "type": "uint256"
        }
      ],
      "name": "Ruling",
      "type": "event"
    },
    {
      "anonymous": false,
      "inputs": [
        {
          "indexed": true,
          "internalType": "address",
          "name": "sender",
          "type": "address"
        },
        {
          "indexed": false,
          "internalType": "uint256",
          "name": "value",
          "type": "uint256"
        }
      ],
      "name": "TokenDeposited",
      "type": "event"
    },
    {
      "anonymous": false,
      "inputs": [
        {
          "indexed": true,
          "internalType": "address",
          "name": "addr",
          "type": "address"
        }
      ],
      "name": "TokenGranted",
      "type": "event"
    },
    {
      "anonymous": false,
      "inputs": [
        {
          "indexed": true,
          "internalType": "address",
          "name": "addr",
          "type": "address"
        }
      ],
      "name": "TokenRevoked",
      "type": "event"
    },
    {
      "anonymous": false,
      "inputs": [
        {
          "indexed": true,
          "internalType": "address",
          "name": "sender",
          "type": "address"
        },
        {
          "indexed": false,
          "internalType": "uint256",
          "name": "value",
          "type": "uint256"
        }
      ],
      "name": "TokenWithdrawed",
      "type": "event"
    },
    {
      "anonymous": false,
      "inputs": [
        {
          "indexed": true,
          "internalType": "bytes32",
          "name": "hash",
          "type": "bytes32"
        },
        {
          "indexed": true,
          "internalType": "address",
          "name": "buyer",
          "type": "address"
        },
        {
          "indexed": true,
          "internalType": "address",
          "name": "seller",
          "type": "address"
        },
        {
          "indexed": false,
          "internalType": "address",
          "name": "stakeOwner",
          "type": "address"
        },
        {
          "indexed": false,
          "internalType": "address",
          "name": "commissioner",
          "type": "address"
        },
        {
          "indexed": false,
          "internalType": "contract ERC20",
          "name": "token",
          "type": "address"
        },
        {
          "indexed": false,
          "internalType": "uint256",
          "name": "total",
          "type": "uint256"
        },
        {
          "indexed": false,
          "internalType": "uint256",
          "name": "commissionPercentage",
          "type": "uint256"
        },
        {
          "indexed": false,
          "internalType": "uint256",
          "name": "cashbackPercentage",
          "type": "uint256"
        },
        {
          "indexed": false,
          "internalType": "uint256",
          "name": "confirmationTimeout",
          "type": "uint256"
        }
      ],
      "name": "TransactionCreated",
      "type": "event"
    },
    {
      "anonymous": false,
      "inputs": [
        {
          "indexed": true,
          "internalType": "bytes32",
          "name": "hash",
          "type": "bytes32"
        }
      ],
      "name": "TransactionFinalized",
      "type": "event"
    },
    {
      "anonymous": false,
      "inputs": [
        {
          "indexed": true,
          "internalType": "bytes32",
          "name": "hash",
          "type": "bytes32"
        },
        {
          "indexed": false,
          "internalType": "uint256",
          "name": "value",
          "type": "uint256"
        }
      ],
      "name": "TransactionRefunded",
      "type": "event"
    },
    {
      "anonymous": false,
      "inputs": [
        {
          "indexed": true,
          "internalType": "bytes32",
          "name": "hash",
          "type": "bytes32"
        }
      ],
      "name": "WarrantyClaimed",
      "type": "event"
    },
    {
      "inputs": [],
      "name": "INVERSE_BASIS_POINT",
      "outputs": [
        {
          "internalType": "uint256",
          "name": "",
          "type": "uint256"
        }
      ],
      "stateMutability": "view",
      "type": "function"
    },
    {
      "inputs": [
        {
          "internalType": "bytes32",
          "name": "",
          "type": "bytes32"
        }
      ],
      "name": "approvedHashes",
      "outputs": [
        {
          "internalType": "bool",
          "name": "",
          "type": "bool"
        }
      ],
      "stateMutability": "view",
      "type": "function"
    },
    {
      "inputs": [],
      "name": "arbitrator",
      "outputs": [
        {
          "internalType": "contract Arbitrator",
          "name": "",
          "type": "address"
        }
      ],
      "stateMutability": "view",
      "type": "function"
    },
    {
      "inputs": [],
      "name": "blackListTimeout",
      "outputs": [
        {
          "internalType": "uint256",
          "name": "",
          "type": "uint256"
        }
      ],
      "stateMutability": "view",
      "type": "function"
    },
    {
      "inputs": [
        {
          "internalType": "bytes32",
          "name": "",
          "type": "bytes32"
        }
      ],
      "name": "cancelledOrFinalized",
      "outputs": [
        {
          "internalType": "bool",
          "name": "",
          "type": "bool"
        }
      ],
      "stateMutability": "view",
      "type": "function"
    },
    {
      "inputs": [
        {
          "internalType": "address",
          "name": "",
          "type": "address"
        }
      ],
      "name": "contracts",
      "outputs": [
        {
          "internalType": "bool",
          "name": "",
          "type": "bool"
        }
      ],
      "stateMutability": "view",
      "type": "function"
    },
    {
      "inputs": [
        {
          "internalType": "uint256",
          "name": "",
          "type": "uint256"
        }
      ],
      "name": "disputeIDtoHash",
      "outputs": [
        {
          "internalType": "bytes32",
          "name": "",
          "type": "bytes32"
        }
      ],
      "stateMutability": "view",
      "type": "function"
    },
    {
      "inputs": [
        {
          "internalType": "bytes32",
          "name": "",
          "type": "bytes32"
        }
      ],
      "name": "disputes",
      "outputs": [
        {
          "internalType": "address payable",
          "name": "prosecution",
          "type": "address"
        },
        {
          "internalType": "address payable",
          "name": "defendant",
          "type": "address"
        },
        {
          "internalType": "uint256",
          "name": "amount",
          "type": "uint256"
        },
        {
          "internalType": "contract ERC20",
          "name": "token",
          "type": "address"
        },
        {
          "internalType": "uint256",
          "name": "prosecutionFee",
          "type": "uint256"
        },
        {
          "internalType": "uint256",
          "name": "defendantFee",
          "type": "uint256"
        },
        {
          "internalType": "enum Dagora.DisputeType",
          "name": "disputeType",
          "type": "uint8"
        },
        {
          "internalType": "uint256",
          "name": "lastInteraction",
          "type": "uint256"
        },
        {
          "internalType": "uint256",
          "name": "metaEvidenceId",
          "type": "uint256"
        },
        {
          "internalType": "uint256",
          "name": "disputeId",
          "type": "uint256"
        },
        {
          "internalType": "enum Dagora.DisputeStatus",
          "name": "status",
          "type": "uint8"
        }
      ],
      "stateMutability": "view",
      "type": "function"
    },
    {
      "inputs": [],
      "name": "feeTimeout",
      "outputs": [
        {
          "internalType": "uint256",
          "name": "",
          "type": "uint256"
        }
      ],
      "stateMutability": "view",
      "type": "function"
    },
    {
      "inputs": [],
      "name": "ipfsDomain",
      "outputs": [
        {
          "internalType": "string",
          "name": "",
          "type": "string"
        }
      ],
      "stateMutability": "view",
      "type": "function"
    },
    {
      "inputs": [],
      "name": "marketToken",
      "outputs": [
        {
          "internalType": "contract ERC20Burnable",
          "name": "",
          "type": "address"
        }
      ],
      "stateMutability": "view",
      "type": "function"
    },
    {
      "inputs": [],
      "name": "metaEvidenceCount",
      "outputs": [
        {
          "internalType": "uint256",
          "name": "",
          "type": "uint256"
        }
      ],
      "stateMutability": "view",
      "type": "function"
    },
    {
      "inputs": [],
      "name": "orderExtraData",
      "outputs": [
        {
          "internalType": "bytes",
          "name": "",
          "type": "bytes"
        }
      ],
      "stateMutability": "view",
      "type": "function"
    },
    {
      "inputs": [],
      "name": "owner",
      "outputs": [
        {
          "internalType": "address",
          "name": "",
          "type": "address"
        }
      ],
      "stateMutability": "view",
      "type": "function"
    },
    {
      "inputs": [],
      "name": "protocolFeePercentage",
      "outputs": [
        {
          "internalType": "uint256",
          "name": "",
          "type": "uint256"
        }
      ],
      "stateMutability": "view",
      "type": "function"
    },
    {
      "inputs": [],
      "name": "protocolFeeRecipient",
      "outputs": [
        {
          "internalType": "address",
          "name": "",
          "type": "address"
        }
      ],
      "stateMutability": "view",
      "type": "function"
    },
    {
      "inputs": [],
      "name": "renounceOwnership",
      "outputs": [],
      "stateMutability": "nonpayable",
      "type": "function"
    },
    {
      "inputs": [],
      "name": "reportExtraData",
      "outputs": [
        {
          "internalType": "bytes",
          "name": "",
          "type": "bytes"
        }
      ],
      "stateMutability": "view",
      "type": "function"
    },
    {
      "inputs": [
        {
          "internalType": "address",
          "name": "",
          "type": "address"
        }
      ],
      "name": "sellers",
      "outputs": [
        {
          "internalType": "uint256",
          "name": "balance",
          "type": "uint256"
        },
        {
          "internalType": "uint256",
          "name": "lockedTokens",
          "type": "uint256"
        },
        {
          "internalType": "uint256",
          "name": "blackListExpire",
          "type": "uint256"
        }
      ],
      "stateMutability": "view",
      "type": "function"
    },
    {
      "inputs": [],
      "name": "tokenOwnerFeePercentage",
      "outputs": [
        {
          "internalType": "uint256",
          "name": "",
          "type": "uint256"
        }
      ],
      "stateMutability": "view",
      "type": "function"
    },
    {
      "inputs": [
        {
          "internalType": "bytes32",
          "name": "",
          "type": "bytes32"
        }
      ],
      "name": "transactions",
      "outputs": [
        {
          "internalType": "uint256",
          "name": "lastStatusUpdate",
          "type": "uint256"
        },
        {
          "internalType": "uint256",
          "name": "refund",
          "type": "uint256"
        },
        {
          "internalType": "enum Dagora.Status",
          "name": "status",
          "type": "uint8"
        }
      ],
      "stateMutability": "view",
      "type": "function"
    },
    {
      "inputs": [
        {
          "internalType": "address",
          "name": "newOwner",
          "type": "address"
        }
      ],
      "name": "transferOwnership",
      "outputs": [],
      "stateMutability": "nonpayable",
      "type": "function"
    },
    {
      "inputs": [
        {
          "internalType": "address",
          "name": "addr",
          "type": "address"
        }
      ],
      "name": "grantAuthentication",
      "outputs": [],
      "stateMutability": "nonpayable",
      "type": "function"
    },
    {
      "inputs": [
        {
          "internalType": "address",
          "name": "addr",
          "type": "address"
        }
      ],
      "name": "revokeAuthentication",
      "outputs": [],
      "stateMutability": "nonpayable",
      "type": "function"
    },
    {
      "inputs": [
        {
          "internalType": "uint256",
          "name": "value",
          "type": "uint256"
        }
      ],
      "name": "depositTokens",
      "outputs": [],
      "stateMutability": "nonpayable",
      "type": "function"
    },
    {
      "inputs": [
        {
          "internalType": "uint256",
          "name": "value",
          "type": "uint256"
        }
      ],
      "name": "withdrawTokens",
      "outputs": [],
      "stateMutability": "nonpayable",
      "type": "function"
    },
    {
      "inputs": [
        {
          "components": [
            {
              "internalType": "bytes32",
              "name": "ipfsHash",
              "type": "bytes32"
            },
            {
              "internalType": "address payable",
              "name": "seller",
              "type": "address"
            },
            {
              "internalType": "address payable",
              "name": "stakeOwner",
              "type": "address"
            },
            {
              "internalType": "uint256",
              "name": "stakedAmount",
              "type": "uint256"
            },
            {
              "internalType": "uint256",
              "name": "commissionPercentage",
              "type": "uint256"
            },
            {
              "internalType": "uint256",
              "name": "warranty",
              "type": "uint256"
            },
            {
              "internalType": "uint256",
              "name": "cashbackPercentage",
              "type": "uint256"
            },
            {
              "internalType": "uint256",
              "name": "expiration",
              "type": "uint256"
            }
          ],
          "internalType": "struct Dagora.Listing",
          "name": "_listing",
          "type": "tuple"
        }
      ],
      "name": "approveListing",
      "outputs": [
        {
          "internalType": "bool",
          "name": "",
          "type": "bool"
        }
      ],
      "stateMutability": "nonpayable",
      "type": "function"
    },
    {
      "inputs": [
        {
          "components": [
            {
              "components": [
                {
                  "internalType": "bytes32",
                  "name": "ipfsHash",
                  "type": "bytes32"
                },
                {
                  "internalType": "address payable",
                  "name": "seller",
                  "type": "address"
                },
                {
                  "internalType": "address payable",
                  "name": "stakeOwner",
                  "type": "address"
                },
                {
                  "internalType": "uint256",
                  "name": "stakedAmount",
                  "type": "uint256"
                },
                {
                  "internalType": "uint256",
                  "name": "commissionPercentage",
                  "type": "uint256"
                },
                {
                  "internalType": "uint256",
                  "name": "warranty",
                  "type": "uint256"
                },
                {
                  "internalType": "uint256",
                  "name": "cashbackPercentage",
                  "type": "uint256"
                },
                {
                  "internalType": "uint256",
                  "name": "expiration",
                  "type": "uint256"
                }
              ],
              "internalType": "struct Dagora.Listing",
              "name": "listing",
              "type": "tuple"
            },
            {
              "internalType": "address payable",
              "name": "fundsHolder",
              "type": "address"
            },
            {
              "internalType": "address payable",
              "name": "buyer",
              "type": "address"
            },
            {
              "internalType": "address payable",
              "name": "commissioner",
              "type": "address"
            },
            {
              "internalType": "contract ERC20",
              "name": "token",
              "type": "address"
            },
            {
              "internalType": "uint256",
              "name": "total",
              "type": "uint256"
            },
            {
              "internalType": "uint256",
              "name": "cashback",
              "type": "uint256"
            },
            {
              "internalType": "uint256",
              "name": "commission",
              "type": "uint256"
            },
            {
              "internalType": "uint256",
              "name": "protocolFee",
              "type": "uint256"
            },
            {
              "internalType": "uint256",
              "name": "stakeHolderFee",
              "type": "uint256"
            },
            {
              "internalType": "uint256",
              "name": "expiration",
              "type": "uint256"
            },
            {
              "internalType": "uint256",
              "name": "confirmationTimeout",
              "type": "uint256"
            },
            {
              "internalType": "uint256",
              "name": "timestamp",
              "type": "uint256"
            }
          ],
          "internalType": "struct Dagora.Order",
          "name": "order",
          "type": "tuple"
        }
      ],
      "name": "approveOrder",
      "outputs": [
        {
          "internalType": "bool",
          "name": "",
          "type": "bool"
        }
      ],
      "stateMutability": "nonpayable",
      "type": "function"
    },
    {
      "inputs": [
        {
          "components": [
            {
              "components": [
                {
                  "internalType": "bytes32",
                  "name": "ipfsHash",
                  "type": "bytes32"
                },
                {
                  "internalType": "address payable",
                  "name": "seller",
                  "type": "address"
                },
                {
                  "internalType": "address payable",
                  "name": "stakeOwner",
                  "type": "address"
                },
                {
                  "internalType": "uint256",
                  "name": "stakedAmount",
                  "type": "uint256"
                },
                {
                  "internalType": "uint256",
                  "name": "commissionPercentage",
                  "type": "uint256"
                },
                {
                  "internalType": "uint256",
                  "name": "warranty",
                  "type": "uint256"
                },
                {
                  "internalType": "uint256",
                  "name": "cashbackPercentage",
                  "type": "uint256"
                },
                {
                  "internalType": "uint256",
                  "name": "expiration",
                  "type": "uint256"
                }
              ],
              "internalType": "struct Dagora.Listing",
              "name": "listing",
              "type": "tuple"
            },
            {
              "internalType": "address payable",
              "name": "fundsHolder",
              "type": "address"
            },
            {
              "internalType": "address payable",
              "name": "buyer",
              "type": "address"
            },
            {
              "internalType": "address payable",
              "name": "commissioner",
              "type": "address"
            },
            {
              "internalType": "contract ERC20",
              "name": "token",
              "type": "address"
            },
            {
              "internalType": "uint256",
              "name": "total",
              "type": "uint256"
            },
            {
              "internalType": "uint256",
              "name": "cashback",
              "type": "uint256"
            },
            {
              "internalType": "uint256",
              "name": "commission",
              "type": "uint256"
            },
            {
              "internalType": "uint256",
              "name": "protocolFee",
              "type": "uint256"
            },
            {
              "internalType": "uint256",
              "name": "stakeHolderFee",
              "type": "uint256"
            },
            {
              "internalType": "uint256",
              "name": "expiration",
              "type": "uint256"
            },
            {
              "internalType": "uint256",
              "name": "confirmationTimeout",
              "type": "uint256"
            },
            {
              "internalType": "uint256",
              "name": "timestamp",
              "type": "uint256"
            }
          ],
          "internalType": "struct Dagora.Order",
          "name": "_order",
          "type": "tuple"
        },
        {
          "components": [
            {
              "internalType": "uint8",
              "name": "v",
              "type": "uint8"
            },
            {
              "internalType": "bytes32",
              "name": "r",
              "type": "bytes32"
            },
            {
              "internalType": "bytes32",
              "name": "s",
              "type": "bytes32"
            }
          ],
          "internalType": "struct Dagora.Sig",
          "name": "orderSig",
          "type": "tuple"
        },
        {
          "components": [
            {
              "internalType": "uint8",
              "name": "v",
              "type": "uint8"
            },
            {
              "internalType": "bytes32",
              "name": "r",
              "type": "bytes32"
            },
            {
              "internalType": "bytes32",
              "name": "s",
              "type": "bytes32"
            }
          ],
          "internalType": "struct Dagora.Sig",
          "name": "listingSig",
          "type": "tuple"
        }
      ],
      "name": "createTransaction",
      "outputs": [
        {
          "internalType": "bytes32",
          "name": "hash",
          "type": "bytes32"
        }
      ],
      "stateMutability": "nonpayable",
      "type": "function"
    },
    {
      "inputs": [
        {
          "components": [
            {
              "components": [
                {
                  "internalType": "bytes32",
                  "name": "ipfsHash",
                  "type": "bytes32"
                },
                {
                  "internalType": "address payable",
                  "name": "seller",
                  "type": "address"
                },
                {
                  "internalType": "address payable",
                  "name": "stakeOwner",
                  "type": "address"
                },
                {
                  "internalType": "uint256",
                  "name": "stakedAmount",
                  "type": "uint256"
                },
                {
                  "internalType": "uint256",
                  "name": "commissionPercentage",
                  "type": "uint256"
                },
                {
                  "internalType": "uint256",
                  "name": "warranty",
                  "type": "uint256"
                },
                {
                  "internalType": "uint256",
                  "name": "cashbackPercentage",
                  "type": "uint256"
                },
                {
                  "internalType": "uint256",
                  "name": "expiration",
                  "type": "uint256"
                }
              ],
              "internalType": "struct Dagora.Listing",
              "name": "listing",
              "type": "tuple"
            },
            {
              "internalType": "address payable",
              "name": "fundsHolder",
              "type": "address"
            },
            {
              "internalType": "address payable",
              "name": "buyer",
              "type": "address"
            },
            {
              "internalType": "address payable",
              "name": "commissioner",
              "type": "address"
            },
            {
              "internalType": "contract ERC20",
              "name": "token",
              "type": "address"
            },
            {
              "internalType": "uint256",
              "name": "total",
              "type": "uint256"
            },
            {
              "internalType": "uint256",
              "name": "cashback",
              "type": "uint256"
            },
            {
              "internalType": "uint256",
              "name": "commission",
              "type": "uint256"
            },
            {
              "internalType": "uint256",
              "name": "protocolFee",
              "type": "uint256"
            },
            {
              "internalType": "uint256",
              "name": "stakeHolderFee",
              "type": "uint256"
            },
            {
              "internalType": "uint256",
              "name": "expiration",
              "type": "uint256"
            },
            {
              "internalType": "uint256",
              "name": "confirmationTimeout",
              "type": "uint256"
            },
            {
              "internalType": "uint256",
              "name": "timestamp",
              "type": "uint256"
            }
          ],
          "internalType": "struct Dagora.Order[]",
          "name": "orders",
          "type": "tuple[]"
        },
        {
          "components": [
            {
              "internalType": "uint8",
              "name": "v",
              "type": "uint8"
            },
            {
              "internalType": "bytes32",
              "name": "r",
              "type": "bytes32"
            },
            {
              "internalType": "bytes32",
              "name": "s",
              "type": "bytes32"
            }
          ],
          "internalType": "struct Dagora.Sig[]",
          "name": "orderSignatures",
          "type": "tuple[]"
        },
        {
          "components": [
            {
              "internalType": "uint8",
              "name": "v",
              "type": "uint8"
            },
            {
              "internalType": "bytes32",
              "name": "r",
              "type": "bytes32"
            },
            {
              "internalType": "bytes32",
              "name": "s",
              "type": "bytes32"
            }
          ],
          "internalType": "struct Dagora.Sig[]",
          "name": "listingSignatures",
          "type": "tuple[]"
        }
      ],
      "name": "batchCreateTransaction",
      "outputs": [
        {
          "internalType": "bytes32[]",
          "name": "hashes",
          "type": "bytes32[]"
        }
      ],
      "stateMutability": "nonpayable",
      "type": "function"
    },
    {
      "inputs": [
        {
          "components": [
            {
              "components": [
                {
                  "internalType": "bytes32",
                  "name": "ipfsHash",
                  "type": "bytes32"
                },
                {
                  "internalType": "address payable",
                  "name": "seller",
                  "type": "address"
                },
                {
                  "internalType": "address payable",
                  "name": "stakeOwner",
                  "type": "address"
                },
                {
                  "internalType": "uint256",
                  "name": "stakedAmount",
                  "type": "uint256"
                },
                {
                  "internalType": "uint256",
                  "name": "commissionPercentage",
                  "type": "uint256"
                },
                {
                  "internalType": "uint256",
                  "name": "warranty",
                  "type": "uint256"
                },
                {
                  "internalType": "uint256",
                  "name": "cashbackPercentage",
                  "type": "uint256"
                },
                {
                  "internalType": "uint256",
                  "name": "expiration",
                  "type": "uint256"
                }
              ],
              "internalType": "struct Dagora.Listing",
              "name": "listing",
              "type": "tuple"
            },
            {
              "internalType": "address payable",
              "name": "fundsHolder",
              "type": "address"
            },
            {
              "internalType": "address payable",
              "name": "buyer",
              "type": "address"
            },
            {
              "internalType": "address payable",
              "name": "commissioner",
              "type": "address"
            },
            {
              "internalType": "contract ERC20",
              "name": "token",
              "type": "address"
            },
            {
              "internalType": "uint256",
              "name": "total",
              "type": "uint256"
            },
            {
              "internalType": "uint256",
              "name": "cashback",
              "type": "uint256"
            },
            {
              "internalType": "uint256",
              "name": "commission",
              "type": "uint256"
            },
            {
              "internalType": "uint256",
              "name": "protocolFee",
              "type": "uint256"
            },
            {
              "internalType": "uint256",
              "name": "stakeHolderFee",
              "type": "uint256"
            },
            {
              "internalType": "uint256",
              "name": "expiration",
              "type": "uint256"
            },
            {
              "internalType": "uint256",
              "name": "confirmationTimeout",
              "type": "uint256"
            },
            {
              "internalType": "uint256",
              "name": "timestamp",
              "type": "uint256"
            }
          ],
          "internalType": "struct Dagora.Order",
          "name": "_order",
          "type": "tuple"
        }
      ],
      "name": "confirmReceipt",
      "outputs": [],
      "stateMutability": "nonpayable",
      "type": "function"
    },
    {
      "inputs": [
        {
          "components": [
            {
              "components": [
                {
                  "internalType": "bytes32",
                  "name": "ipfsHash",
                  "type": "bytes32"
                },
                {
                  "internalType": "address payable",
                  "name": "seller",
                  "type": "address"
                },
                {
                  "internalType": "address payable",
                  "name": "stakeOwner",
                  "type": "address"
                },
                {
                  "internalType": "uint256",
                  "name": "stakedAmount",
                  "type": "uint256"
                },
                {
                  "internalType": "uint256",
                  "name": "commissionPercentage",
                  "type": "uint256"
                },
                {
                  "internalType": "uint256",
                  "name": "warranty",
                  "type": "uint256"
                },
                {
                  "internalType": "uint256",
                  "name": "cashbackPercentage",
                  "type": "uint256"
                },
                {
                  "internalType": "uint256",
                  "name": "expiration",
                  "type": "uint256"
                }
              ],
              "internalType": "struct Dagora.Listing",
              "name": "listing",
              "type": "tuple"
            },
            {
              "internalType": "address payable",
              "name": "fundsHolder",
              "type": "address"
            },
            {
              "internalType": "address payable",
              "name": "buyer",
              "type": "address"
            },
            {
              "internalType": "address payable",
              "name": "commissioner",
              "type": "address"
            },
            {
              "internalType": "contract ERC20",
              "name": "token",
              "type": "address"
            },
            {
              "internalType": "uint256",
              "name": "total",
              "type": "uint256"
            },
            {
              "internalType": "uint256",
              "name": "cashback",
              "type": "uint256"
            },
            {
              "internalType": "uint256",
              "name": "commission",
              "type": "uint256"
            },
            {
              "internalType": "uint256",
              "name": "protocolFee",
              "type": "uint256"
            },
            {
              "internalType": "uint256",
              "name": "stakeHolderFee",
              "type": "uint256"
            },
            {
              "internalType": "uint256",
              "name": "expiration",
              "type": "uint256"
            },
            {
              "internalType": "uint256",
              "name": "confirmationTimeout",
              "type": "uint256"
            },
            {
              "internalType": "uint256",
              "name": "timestamp",
              "type": "uint256"
            }
          ],
          "internalType": "struct Dagora.Order",
          "name": "_order",
          "type": "tuple"
        }
      ],
      "name": "executeTransaction",
      "outputs": [],
      "stateMutability": "nonpayable",
      "type": "function"
    },
    {
      "inputs": [
        {
          "components": [
            {
              "components": [
                {
                  "internalType": "bytes32",
                  "name": "ipfsHash",
                  "type": "bytes32"
                },
                {
                  "internalType": "address payable",
                  "name": "seller",
                  "type": "address"
                },
                {
                  "internalType": "address payable",
                  "name": "stakeOwner",
                  "type": "address"
                },
                {
                  "internalType": "uint256",
                  "name": "stakedAmount",
                  "type": "uint256"
                },
                {
                  "internalType": "uint256",
                  "name": "commissionPercentage",
                  "type": "uint256"
                },
                {
                  "internalType": "uint256",
                  "name": "warranty",
                  "type": "uint256"
                },
                {
                  "internalType": "uint256",
                  "name": "cashbackPercentage",
                  "type": "uint256"
                },
                {
                  "internalType": "uint256",
                  "name": "expiration",
                  "type": "uint256"
                }
              ],
              "internalType": "struct Dagora.Listing",
              "name": "listing",
              "type": "tuple"
            },
            {
              "internalType": "address payable",
              "name": "fundsHolder",
              "type": "address"
            },
            {
              "internalType": "address payable",
              "name": "buyer",
              "type": "address"
            },
            {
              "internalType": "address payable",
              "name": "commissioner",
              "type": "address"
            },
            {
              "internalType": "contract ERC20",
              "name": "token",
              "type": "address"
            },
            {
              "internalType": "uint256",
              "name": "total",
              "type": "uint256"
            },
            {
              "internalType": "uint256",
              "name": "cashback",
              "type": "uint256"
            },
            {
              "internalType": "uint256",
              "name": "commission",
              "type": "uint256"
            },
            {
              "internalType": "uint256",
              "name": "protocolFee",
              "type": "uint256"
            },
            {
              "internalType": "uint256",
              "name": "stakeHolderFee",
              "type": "uint256"
            },
            {
              "internalType": "uint256",
              "name": "expiration",
              "type": "uint256"
            },
            {
              "internalType": "uint256",
              "name": "confirmationTimeout",
              "type": "uint256"
            },
            {
              "internalType": "uint256",
              "name": "timestamp",
              "type": "uint256"
            }
          ],
          "internalType": "struct Dagora.Order[]",
          "name": "orders",
          "type": "tuple[]"
        }
      ],
      "name": "batchExecuteTransaction",
      "outputs": [],
      "stateMutability": "nonpayable",
      "type": "function"
    },
    {
      "inputs": [
        {
          "components": [
            {
              "components": [
                {
                  "internalType": "bytes32",
                  "name": "ipfsHash",
                  "type": "bytes32"
                },
                {
                  "internalType": "address payable",
                  "name": "seller",
                  "type": "address"
                },
                {
                  "internalType": "address payable",
                  "name": "stakeOwner",
                  "type": "address"
                },
                {
                  "internalType": "uint256",
                  "name": "stakedAmount",
                  "type": "uint256"
                },
                {
                  "internalType": "uint256",
                  "name": "commissionPercentage",
                  "type": "uint256"
                },
                {
                  "internalType": "uint256",
                  "name": "warranty",
                  "type": "uint256"
                },
                {
                  "internalType": "uint256",
                  "name": "cashbackPercentage",
                  "type": "uint256"
                },
                {
                  "internalType": "uint256",
                  "name": "expiration",
                  "type": "uint256"
                }
              ],
              "internalType": "struct Dagora.Listing",
              "name": "listing",
              "type": "tuple"
            },
            {
              "internalType": "address payable",
              "name": "fundsHolder",
              "type": "address"
            },
            {
              "internalType": "address payable",
              "name": "buyer",
              "type": "address"
            },
            {
              "internalType": "address payable",
              "name": "commissioner",
              "type": "address"
            },
            {
              "internalType": "contract ERC20",
              "name": "token",
              "type": "address"
            },
            {
              "internalType": "uint256",
              "name": "total",
              "type": "uint256"
            },
            {
              "internalType": "uint256",
              "name": "cashback",
              "type": "uint256"
            },
            {
              "internalType": "uint256",
              "name": "commission",
              "type": "uint256"
            },
            {
              "internalType": "uint256",
              "name": "protocolFee",
              "type": "uint256"
            },
            {
              "internalType": "uint256",
              "name": "stakeHolderFee",
              "type": "uint256"
            },
            {
              "internalType": "uint256",
              "name": "expiration",
              "type": "uint256"
            },
            {
              "internalType": "uint256",
              "name": "confirmationTimeout",
              "type": "uint256"
            },
            {
              "internalType": "uint256",
              "name": "timestamp",
              "type": "uint256"
            }
          ],
          "internalType": "struct Dagora.Order",
          "name": "_order",
          "type": "tuple"
        }
      ],
      "name": "claimWarranty",
      "outputs": [],
      "stateMutability": "nonpayable",
      "type": "function"
    },
    {
      "inputs": [
        {
          "components": [
            {
              "components": [
                {
                  "internalType": "bytes32",
                  "name": "ipfsHash",
                  "type": "bytes32"
                },
                {
                  "internalType": "address payable",
                  "name": "seller",
                  "type": "address"
                },
                {
                  "internalType": "address payable",
                  "name": "stakeOwner",
                  "type": "address"
                },
                {
                  "internalType": "uint256",
                  "name": "stakedAmount",
                  "type": "uint256"
                },
                {
                  "internalType": "uint256",
                  "name": "commissionPercentage",
                  "type": "uint256"
                },
                {
                  "internalType": "uint256",
                  "name": "warranty",
                  "type": "uint256"
                },
                {
                  "internalType": "uint256",
                  "name": "cashbackPercentage",
                  "type": "uint256"
                },
                {
                  "internalType": "uint256",
                  "name": "expiration",
                  "type": "uint256"
                }
              ],
              "internalType": "struct Dagora.Listing",
              "name": "listing",
              "type": "tuple"
            },
            {
              "internalType": "address payable",
              "name": "fundsHolder",
              "type": "address"
            },
            {
              "internalType": "address payable",
              "name": "buyer",
              "type": "address"
            },
            {
              "internalType": "address payable",
              "name": "commissioner",
              "type": "address"
            },
            {
              "internalType": "contract ERC20",
              "name": "token",
              "type": "address"
            },
            {
              "internalType": "uint256",
              "name": "total",
              "type": "uint256"
            },
            {
              "internalType": "uint256",
              "name": "cashback",
              "type": "uint256"
            },
            {
              "internalType": "uint256",
              "name": "commission",
              "type": "uint256"
            },
            {
              "internalType": "uint256",
              "name": "protocolFee",
              "type": "uint256"
            },
            {
              "internalType": "uint256",
              "name": "stakeHolderFee",
              "type": "uint256"
            },
            {
              "internalType": "uint256",
              "name": "expiration",
              "type": "uint256"
            },
            {
              "internalType": "uint256",
              "name": "confirmationTimeout",
              "type": "uint256"
            },
            {
              "internalType": "uint256",
              "name": "timestamp",
              "type": "uint256"
            }
          ],
          "internalType": "struct Dagora.Order",
          "name": "_order",
          "type": "tuple"
        }
      ],
      "name": "disputeTransaction",
      "outputs": [
        {
          "internalType": "bytes32",
          "name": "hash",
          "type": "bytes32"
        }
      ],
      "stateMutability": "payable",
      "type": "function"
    },
    {
      "inputs": [
        {
          "components": [
            {
              "components": [
                {
                  "internalType": "bytes32",
                  "name": "ipfsHash",
                  "type": "bytes32"
                },
                {
                  "internalType": "address payable",
                  "name": "seller",
                  "type": "address"
                },
                {
                  "internalType": "address payable",
                  "name": "stakeOwner",
                  "type": "address"
                },
                {
                  "internalType": "uint256",
                  "name": "stakedAmount",
                  "type": "uint256"
                },
                {
                  "internalType": "uint256",
                  "name": "commissionPercentage",
                  "type": "uint256"
                },
                {
                  "internalType": "uint256",
                  "name": "warranty",
                  "type": "uint256"
                },
                {
                  "internalType": "uint256",
                  "name": "cashbackPercentage",
                  "type": "uint256"
                },
                {
                  "internalType": "uint256",
                  "name": "expiration",
                  "type": "uint256"
                }
              ],
              "internalType": "struct Dagora.Listing",
              "name": "listing",
              "type": "tuple"
            },
            {
              "internalType": "address payable",
              "name": "fundsHolder",
              "type": "address"
            },
            {
              "internalType": "address payable",
              "name": "buyer",
              "type": "address"
            },
            {
              "internalType": "address payable",
              "name": "commissioner",
              "type": "address"
            },
            {
              "internalType": "contract ERC20",
              "name": "token",
              "type": "address"
            },
            {
              "internalType": "uint256",
              "name": "total",
              "type": "uint256"
            },
            {
              "internalType": "uint256",
              "name": "cashback",
              "type": "uint256"
            },
            {
              "internalType": "uint256",
              "name": "commission",
              "type": "uint256"
            },
            {
              "internalType": "uint256",
              "name": "protocolFee",
              "type": "uint256"
            },
            {
              "internalType": "uint256",
              "name": "stakeHolderFee",
              "type": "uint256"
            },
            {
              "internalType": "uint256",
              "name": "expiration",
              "type": "uint256"
            },
            {
              "internalType": "uint256",
              "name": "confirmationTimeout",
              "type": "uint256"
            },
            {
              "internalType": "uint256",
              "name": "timestamp",
              "type": "uint256"
            }
          ],
          "internalType": "struct Dagora.Order",
          "name": "_order",
          "type": "tuple"
        },
        {
          "internalType": "uint256",
          "name": "refund",
          "type": "uint256"
        }
      ],
      "name": "updateRefund",
      "outputs": [],
      "stateMutability": "nonpayable",
      "type": "function"
    },
    {
      "inputs": [
        {
          "components": [
            {
              "internalType": "bytes32",
              "name": "ipfsHash",
              "type": "bytes32"
            },
            {
              "internalType": "address payable",
              "name": "seller",
              "type": "address"
            },
            {
              "internalType": "address payable",
              "name": "stakeOwner",
              "type": "address"
            },
            {
              "internalType": "uint256",
              "name": "stakedAmount",
              "type": "uint256"
            },
            {
              "internalType": "uint256",
              "name": "commissionPercentage",
              "type": "uint256"
            },
            {
              "internalType": "uint256",
              "name": "warranty",
              "type": "uint256"
            },
            {
              "internalType": "uint256",
              "name": "cashbackPercentage",
              "type": "uint256"
            },
            {
              "internalType": "uint256",
              "name": "expiration",
              "type": "uint256"
            }
          ],
          "internalType": "struct Dagora.Listing",
          "name": "_listing",
          "type": "tuple"
        },
        {
          "components": [
            {
              "internalType": "uint8",
              "name": "v",
              "type": "uint8"
            },
            {
              "internalType": "bytes32",
              "name": "r",
              "type": "bytes32"
            },
            {
              "internalType": "bytes32",
              "name": "s",
              "type": "bytes32"
            }
          ],
          "internalType": "struct Dagora.Sig",
          "name": "sig",
          "type": "tuple"
        }
      ],
      "name": "report",
      "outputs": [
        {
          "internalType": "bytes32",
          "name": "hash",
          "type": "bytes32"
        }
      ],
      "stateMutability": "payable",
      "type": "function"
    },
    {
      "inputs": [
        {
          "internalType": "bytes32",
          "name": "hash",
          "type": "bytes32"
        }
      ],
      "name": "disputeTimeout",
      "outputs": [],
      "stateMutability": "nonpayable",
      "type": "function"
    },
    {
      "inputs": [
        {
          "internalType": "bytes32",
          "name": "hash",
          "type": "bytes32"
        }
      ],
      "name": "payArbitrationFee",
      "outputs": [],
      "stateMutability": "payable",
      "type": "function"
    },
    {
      "inputs": [
        {
          "internalType": "bytes32",
          "name": "_hash",
          "type": "bytes32"
        },
        {
          "internalType": "string",
          "name": "_evidence",
          "type": "string"
        }
      ],
      "name": "submitEvidence",
      "outputs": [],
      "stateMutability": "nonpayable",
      "type": "function"
    },
    {
      "inputs": [
        {
          "internalType": "bytes32",
          "name": "_hash",
          "type": "bytes32"
        }
      ],
      "name": "appeal",
      "outputs": [],
      "stateMutability": "payable",
      "type": "function"
    },
    {
      "inputs": [
        {
          "internalType": "uint256",
          "name": "_disputeID",
          "type": "uint256"
        },
        {
          "internalType": "uint256",
          "name": "_ruling",
          "type": "uint256"
        }
      ],
      "name": "rule",
      "outputs": [],
      "stateMutability": "nonpayable",
      "type": "function"
    }
  ],
  "bytecode": "0x60806040523480156200001157600080fd5b5060405162004ead38038062004ead8339810160408190526200003491620002a7565b6000620000496001600160e01b036200013b16565b600080546001600160a01b0319166001600160a01b0383169081178255604051929350917f8be0079c531659141344cd1fd0a4f28419497f9722a3daafe3b4186f6b6457e0908290a350600780546001600160a01b03808d166001600160a01b031992831617909255600d80548c841690831617905560128054928b169290911691909117905562015180808802600b558602600a55601085905560118490558251620000fe90600890602086019062000140565b5081516200011490600990602085019062000140565b5080516200012a90600f90602084019062000140565b505050505050505050505062000397565b335b90565b828054600181600116156101000203166002900490600052602060002090601f016020900481019282601f106200018357805160ff1916838001178555620001b3565b82800160010185558215620001b3579182015b82811115620001b357825182559160200191906001019062000196565b50620001c1929150620001c5565b5090565b6200013d91905b80821115620001c15760008155600101620001cc565b80516001600160a01b0381168114620001fa57600080fd5b92915050565b600082601f83011262000211578081fd5b81516001600160401b038082111562000228578283fd5b6040516020601f8401601f19168201810183811183821017156200024a578586fd5b806040525081945083825286818588010111156200026757600080fd5b600092505b838310156200028b57858301810151828401820152918201916200026c565b838311156200029d5760008185840101525b5050505092915050565b6000806000806000806000806000806101408b8d031215620002c7578586fd5b620002d38c8c620001e2565b9950620002e48c60208d01620001e2565b9850620002f58c60408d01620001e2565b975060608b0151965060808b0151955060a08b0151945060c08b0151935060e08b015160018060401b03808211156200032c578485fd5b6200033a8e838f0162000200565b94506101008d015191508082111562000351578384fd5b6200035f8e838f0162000200565b93506101208d015191508082111562000376578283fd5b50620003858d828e0162000200565b9150509295989b9194979a5092959850565b614b0680620003a76000396000f3fe6080604052600436106102515760003560e01c80638076f00511610139578063b329036b116100b6578063d1fcfdb81161007a578063d1fcfdb8146106a1578063dd49756e146106c1578063ece1de44146106e1578063ee7269d7146106f4578063f2fde38b14610709578063f48a0b311461072957610251565b8063b329036b1461062f578063b639866714610644578063ba4bc76314610659578063be6a18ef14610679578063cae6047f1461068c57610251565b80638e50e509116100fd5780638e50e509146105ae57806396e71250146105c3578063a0c59ef3146105e3578063a2031de4146105f8578063ad48d6111461061a57610251565b80638076f0051461052657806382ad5f751461054657806382e1e9721461055957806387bd84cc146105795780638da5cb5b1461059957610251565b80635d2569ad116101d25780636b83a061116101965780636b83a0611461046d5780636cc6cde11461048d5780636d47ab72146104a2578063715018a6146104d157806372fc4213146104e657806378e740ff1461050657610251565b80635d2569ad146103a2578063640b5aac146103cf578063642f2eaf146103ef57806364df049e1461041e57806369dc9ff31461044057610251565b806339d2a6941161021957806339d2a694146103255780634140a5eb1461033857806353376d1f1461034d578063546f995c1461036d5780635af798071461038d57610251565b806311be19971461025657806320a1e5b5146102965780632c3d01b8146102c3578063311a6c56146102e5578063315a095d14610305575b600080fd5b34801561026257600080fd5b50610276610271366004613aea565b610749565b60405161028d9b9a99989796959493929190613f67565b60405180910390f35b3480156102a257600080fd5b506102b66102b1366004613c05565b6107b6565b60405161028d919061406e565b3480156102cf57600080fd5b506102e36102de366004613be9565b61095c565b005b3480156102f157600080fd5b506102e3610300366004613c91565b610a9b565b34801561031157600080fd5b506102e3610320366004613aea565b610bab565b6102b6610333366004613be9565b610cc4565b34801561034457600080fd5b506102b6610f46565b34801561035957600080fd5b506102e36103683660046139ef565b610f4c565b34801561037957600080fd5b506102e3610388366004613a0b565b610fca565b34801561039957600080fd5b506102b6610ffe565b3480156103ae57600080fd5b506103c26103bd366004613a46565b611004565b60405161028d919061401f565b3480156103db57600080fd5b506102e36103ea366004613c4d565b6110dd565b3480156103fb57600080fd5b5061040f61040a366004613aea565b61120d565b60405161028d93929190614a0d565b34801561042a57600080fd5b50610433611231565b60405161028d9190613f12565b34801561044c57600080fd5b5061046061045b3660046139ef565b611240565b60405161028d9190614063565b34801561047957600080fd5b50610460610488366004613b97565b611255565b34801561049957600080fd5b50610433611345565b3480156104ae57600080fd5b506104c26104bd3660046139ef565b611354565b60405161028d93929190614a33565b3480156104dd57600080fd5b506102e3611374565b3480156104f257600080fd5b506102e3610501366004613aea565b6113f3565b34801561051257600080fd5b50610460610521366004613be9565b6115b0565b34801561053257600080fd5b50610460610541366004613aea565b61166d565b6102b6610554366004613bb3565b611682565b34801561056557600080fd5b506102e3610574366004613be9565b61196b565b34801561058557600080fd5b50610460610594366004613aea565b611a4b565b3480156105a557600080fd5b50610433611a60565b3480156105ba57600080fd5b506102b6611a6f565b3480156105cf57600080fd5b506102e36105de366004613be9565b611a75565b3480156105ef57600080fd5b506102b6611b72565b34801561060457600080fd5b5061060d611b78565b60405161028d9190614095565b34801561062657600080fd5b50610433611c06565b34801561063b57600080fd5b506102b6611c15565b34801561065057600080fd5b5061060d611c1b565b34801561066557600080fd5b506102b6610674366004613aea565b611c76565b6102e3610687366004613aea565b611c88565b34801561069857600080fd5b506102b6611ee9565b3480156106ad57600080fd5b506102e36106bc3660046139ef565b611eef565b3480156106cd57600080fd5b506102e36106dc366004613aea565b611f96565b6102e36106ef366004613aea565b612075565b34801561070057600080fd5b5061060d612124565b34801561071557600080fd5b506102e36107243660046139ef565b61217f565b34801561073557600080fd5b506102e3610744366004613b02565b612235565b600560208190526000918252604090912080546001820154600283015460038401546004850154958501546006860154600787015460088801546009890154600a909901546001600160a01b039889169a9789169996989095169695939460ff938416949293919291168b565b60006107c3848484612339565b6000818152600460205260408120919250600282015460ff1660058111156107e757fe5b1461080d5760405162461bcd60e51b81526004016108049061482c565b60405180910390fd5b84608001516001600160a01b03166323b872dd8660200151308860a001516040518463ffffffff1660e01b815260040161084993929190613fe2565b602060405180830381600087803b15801561086357600080fd5b505af1158015610877573d6000803e3d6000fd5b505050506040513d601f19601f8201168201806040525081019061089b9190613aca565b6108b75760405162461bcd60e51b8152600401610804906148a3565b4281556002810180546001919060ff1916828002179055508460000151602001516001600160a01b031685604001516001600160a01b0316837fe419a7cfec7b19a58f8ef66dbf85dd08b396bafa0e2f94b3181fd3d047cb748188600001516040015189606001518a608001518b60a001518c60e001518d60c001518e610160015160405161094c9796959493929190613f26565b60405180910390a4509392505050565b6000610967826123a8565b60008181526004602052604090209091506001600282015460ff16600581111561098d57fe5b14806109aa575060028082015460ff1660058111156109a857fe5b145b806109c757506003600282015460ff1660058111156109c557fe5b145b6109e35760405162461bcd60e51b8152600401610804906142e4565b60006001600283015460ff1660058111156109fa57fe5b1480610a1857506003600283015460ff166005811115610a1657fe5b145b15610a55578361016001516201518002826000015401421015610a4d5760405162461bcd60e51b81526004016108049061424f565b506000610a8c565b835160a0015182546201518090910201421015610a845760405162461bcd60e51b81526004016108049061424f565b50825160c001515b610a95846123c1565b50505050565b60008281526006602090815260408083205480845260059092529091206007546001600160a01b03163314610ae25760405162461bcd60e51b815260040161080490614861565b6003600a82015460ff166004811115610af757fe5b14610b145760405162461bcd60e51b815260040161080490614147565b83336001600160a01b03167f394027a5fa6e098a1191094d1719d6929b9abc535fcc0c8f448d6a4e7562227685604051610b4e919061406e565b60405180910390a36001600682015460ff166002811115610b6b57fe5b1415610b8057610b7b8184612787565b610a95565b610b8a8184612ae5565b506000908152600460205260409020600201805460ff191660051790555050565b33600090815260016020819052604090912090810154815403821115610be35760405162461bcd60e51b8152600401610804906140cf565b600d546040516323b872dd60e01b81526001600160a01b03909116906323b872dd90610c1790339030908790600401613fe2565b602060405180830381600087803b158015610c3157600080fd5b505af1158015610c45573d6000803e3d6000fd5b505050506040513d601f19601f82011682018060405250810190610c699190613aca565b610c7257600080fd5b336000818152600160205260409081902080548590039055517f05e8d4927d2e9cff8a7d6f1c0c3b0fdd4d7299da00fe4911745bda49a5834e6790610cb890859061406e565b60405180910390a25050565b6000610ccf826123a8565b60008181526004602052604090209091506001600282015460ff166005811115610cf557fe5b1480610d1357506003600282015460ff166005811115610d1157fe5b145b610d2f5760405162461bcd60e51b8152600401610804906142e4565b8261016001516201518002816000015401421115610d5f5760405162461bcd60e51b8152600401610804906145a7565b60075460405163f7434ea960e01b81526000916001600160a01b03169063f7434ea990610d91906008906004016140a8565b60206040518083038186803b158015610da957600080fd5b505afa158015610dbd573d6000803e3d6000fd5b505050506040513d601f19601f82011682018060405250810190610de19190613c79565b905080341015610e035760405162461bcd60e51b8152600401610804906146f4565b6000806001600285015460ff166005811115610e1b57fe5b1415610e685785604001516001600160a01b0316336001600160a01b031614610e565760405162461bcd60e51b815260040161080490614455565b50506040840151845160200151610ea3565b8551602001516001600160a01b03163314610e955760405162461bcd60e51b81526004016108049061448c565b505060408401518451602001515b6002848101805460ff1916600417905542855560a08701516080880151600092610ed69289928792879291903490612f22565b905080600801547f61606860eb6c87306811e2695215385101daab53bd6ab4e9f9049aead9363c7d600f896000015160000151604051602001610f1a929190613e69565b60408051601f1981840301815290829052610f3491614095565b60405180910390a25050505050919050565b60115481565b610f54613031565b6000546001600160a01b03908116911614610f815760405162461bcd60e51b815260040161080490614504565b6001600160a01b0381166000818152600c6020526040808220805460ff19169055517f45f62f30e7b8439e0da7d8e560fe39d01238091ce9e789e3d12b514edf98acea9190a250565b60005b8151811015610ffa57610ff2828281518110610fe557fe5b602002602001015161095c565b600101610fcd565b5050565b600e5481565b606082518451148015611018575081518351145b61102157600080fd5b835167ffffffffffffffff8111801561103957600080fd5b50604051908082528060200260200182016040528015611063578160200160208202803683370190505b50905060005b84518110156110d5576110b685828151811061108157fe5b602002602001015185838151811061109557fe5b60200260200101518584815181106110a957fe5b60200260200101516107b6565b8282815181106110c257fe5b6020908102919091010152600101611069565b509392505050565b8151602001516001600160a01b0316331461110a5760405162461bcd60e51b81526004016108049061435c565b6000611115836123a8565b60008181526004602052604090209091506001600282015460ff16600581111561113b57fe5b146111585760405162461bcd60e51b8152600401610804906142e4565b83610160015162015180028160000154014211156111885760405162461bcd60e51b8152600401610804906145a7565b8360a001518460e001518561012001518661010001518760c00151010101840111156111c65760405162461bcd60e51b815260040161080490614613565b828160010181905550817fe18fe462037a62d3500e07f2b32d9e16a69cee44850c9b7dcef7d856087e4aff846040516111ff919061406e565b60405180910390a250505050565b60046020526000908152604090208054600182015460029092015490919060ff1683565b6012546001600160a01b031681565b600c6020526000908152604090205460ff1681565b600081604001516001600160a01b0316336001600160a01b03161461128c5760405162461bcd60e51b8152600401610804906145dc565b60608201513360009081526001602052604090205410156112bf5760405162461bcd60e51b815260040161080490614393565b60006112ca83613035565b60008181526003602052604090205490915060ff16156112fc5760405162461bcd60e51b81526004016108049061418d565b600081815260036020526040808220805460ff191660011790555182917f4e58c75167b3bff3ab3949a55f72203f341f94cca1c2c0c84370731b2b4c201791a250600192915050565b6007546001600160a01b031681565b600160208190526000918252604090912080549181015460029091015483565b61137c613031565b6000546001600160a01b039081169116146113a95760405162461bcd60e51b815260040161080490614504565b600080546040516001600160a01b03909116907f8be0079c531659141344cd1fd0a4f28419497f9722a3daafe3b4186f6b6457e0908390a3600080546001600160a01b0319169055565b6000818152600560205260409020600a81015460ff16600481111561141457fe5b600010801561143557506003600a82015460ff16600481111561143357fe5b105b6114515760405162461bcd60e51b8152600401610804906143ca565b600b548160070154420310156114795760405162461bcd60e51b81526004016108049061424f565b600081600401546000146114f757600482018054600090915582546040516001600160a01b039091169082906114ae90613f0f565b60006040518083038185875af1925050503d80600081146114eb576040519150601f19603f3d011682016040523d82523d6000602084013e6114f0565b606091505b5090925050505b60058201541561157457600582018054600090915560018301546040516001600160a01b0390911690829061152b90613f0f565b60006040518083038185875af1925050503d8060008114611568576040519150601f19603f3d011682016040523d82523d6000602084013e61156d565b606091505b5090925050505b6002600a83015460ff16600481111561158957fe5b14156115a05761159b8260015b612787565b6115ab565b6115ab826002611596565b505050565b600081602001516001600160a01b0316336001600160a01b0316146115e75760405162461bcd60e51b815260040161080490614539565b60006115f2836123a8565b60008181526003602052604090205490915060ff16156116245760405162461bcd60e51b81526004016108049061418d565b600081815260036020526040808220805460ff191660011790555182917f0bed755d9d22259660bf623a395b620bbff2af67319e990b538dc8603bdc3e5f91a250600192915050565b60026020526000908152604090205460ff1681565b600061168e8383613043565b9050600080828152600560205260409020600a015460ff1660048111156116b157fe5b146116ce5760405162461bcd60e51b8152600401610804906144c3565b82604001516001600160a01b0316336001600160a01b031614156117045760405162461bcd60e51b815260040161080490614998565b60075460405163f7434ea960e01b81526000916001600160a01b03169063f7434ea990611736906008906004016140a8565b60206040518083038186803b15801561174e57600080fd5b505afa158015611762573d6000803e3d6000fd5b505050506040513d601f19601f820116820180604052508101906117869190613c79565b9050803410156117a85760405162461bcd60e51b8152600401610804906146f4565b336000908152600160205260409020600281015442116117da5760405162461bcd60e51b8152600401610804906146ad565b600181015481546060870151919003908110156118aa57600d5460608701516040516323b872dd60e01b81526001600160a01b03909216916323b872dd9161182d91339130919087900390600401613fe2565b602060405180830381600087803b15801561184757600080fd5b505af115801561185b573d6000803e3d6000fd5b505050506040513d601f19601f8201168201806040525081019061187f9190613aca565b61189b5760405162461bcd60e51b8152600401610804906148e4565b60608601518254908290030182555b604080870180516001600160a01b0390811660009081526001602081905293812060608b01518786018054820190558186018054820190559351600d54919592946118fe948b943394909116903490612f22565b905080600801547f61606860eb6c87306811e2695215385101daab53bd6ab4e9f9049aead9363c7d600f8a6000015160405160200161193e929190613e69565b60408051601f198184030181529082905261195891614095565b60405180910390a2505050505092915050565b6000611976826123a8565b60008181526004602052604090209091506001600282015460ff16600581111561199c57fe5b1480156119be575082604001516001600160a01b0316336001600160a01b0316145b806119f357506003600282015460ff1660058111156119d957fe5b1480156119f357508251602001516001600160a01b031633145b611a0f5760405162461bcd60e51b81526004016108049061473e565b6001810154158015611a255750825160a0015115155b15611a42576002818101805460ff191690911790554281556115ab565b6115ab836123c1565b60036020526000908152604090205460ff1681565b6000546001600160a01b031690565b60105481565b6000611a80826123a8565b600081815260046020526040902090915060028082015460ff166005811115611aa557fe5b14611ac25760405162461bcd60e51b8152600401610804906142e4565b82604001516001600160a01b0316336001600160a01b031614611af75760405162461bcd60e51b815260040161080490614801565b825160a0015181546201518090910201421115611b265760405162461bcd60e51b8152600401610804906142ad565b60028101805460ff1916600317905560a0830151600182015542815560405182907f99e77d4092287badf5165a76eb7add37ec282650747091906c6a02e0cd4f5b3d90600090a2505050565b600a5481565b600f805460408051602060026001851615610100026000190190941693909304601f81018490048402820184019092528181529291830182828015611bfe5780601f10611bd357610100808354040283529160200191611bfe565b820191906000526020600020905b815481529060010190602001808311611be157829003601f168201915b505050505081565b600d546001600160a01b031681565b600b5481565b6009805460408051602060026001851615610100026000190190941693909304601f81018490048402820184019092528181529291830182828015611bfe5780601f10611bd357610100808354040283529160200191611bfe565b60066020526000908152604090205481565b600081815260056020526040808220600754915163f7434ea960e01b81529092916001600160a01b03169063f7434ea990611cc8906008906004016140a8565b60206040518083038186803b158015611ce057600080fd5b505afa158015611cf4573d6000803e3d6000fd5b505050506040513d601f19601f82011682018060405250810190611d189190613c79565b600a83015490915060ff166004811115611d2e57fe5b6000108015611d4f57506003600a83015460ff166004811115611d4d57fe5b105b611d6b5760405162461bcd60e51b815260040161080490614106565b81546001600160a01b0316331480611d8f575060018201546001600160a01b031633145b611dab5760405162461bcd60e51b815260040161080490614570565b81546001600160a01b0316331415611e5357600482018054340190819055811115611de85760405162461bcd60e51b81526004016108049061430b565b4260078301556005820154811115611e4957600a8201805460ff1916600217905560405183907ff972c77402d0ee7d94e4b2ea7cee21a3d392136bf7c9b72d2dc85e2a4d24a9cf90611e3c906001906140bb565b60405180910390a261159b565b61159b8382613077565b600582018054340190819055811115611e7e5760405162461bcd60e51b81526004016108049061430b565b4260078301556004820154811115611edf57600a8201805460ff1916600117905560405183907ff972c77402d0ee7d94e4b2ea7cee21a3d392136bf7c9b72d2dc85e2a4d24a9cf90611ed2906000906140bb565b60405180910390a26115ab565b6115ab8382613077565b61271081565b611ef7613031565b6000546001600160a01b03908116911614611f245760405162461bcd60e51b815260040161080490614504565b6001600160a01b0381166000908152600c602052604090205460ff1615611f4a57600080fd5b6001600160a01b0381166000818152600c6020526040808220805460ff19166001179055517f52133ca86a0b20d025852c627bd9d5c8e6037a237d7ef7d22f399ae642e6b9b49190a250565b600d546040516323b872dd60e01b81526001600160a01b03909116906323b872dd90611fca90339030908690600401613fe2565b602060405180830381600087803b158015611fe457600080fd5b505af1158015611ff8573d6000803e3d6000fd5b505050506040513d601f19601f8201168201806040525081019061201c9190613aca565b61202557600080fd5b3360008181526001602052604090819020805484019055517fbc7c8a4d8049a3f99a02f2a20640c206a2e4d3f2fa54fd20da9f01fda3620cda9061206a90849061406e565b60405180910390a250565b60008181526005602052604090206002600682015460ff16600281111561209857fe5b146120b55760405162461bcd60e51b8152600401610804906147b4565b60075460098083015460405163093225f160e31b81526001600160a01b03909316926349912f889234926120ee929091906004016149e6565b6000604051808303818588803b15801561210757600080fd5b505af115801561211b573d6000803e3d6000fd5b50505050505050565b6008805460408051602060026001851615610100026000190190941693909304601f81018490048402820184019092528181529291830182828015611bfe5780601f10611bd357610100808354040283529160200191611bfe565b612187613031565b6000546001600160a01b039081169116146121b45760405162461bcd60e51b815260040161080490614504565b6001600160a01b0381166121da5760405162461bcd60e51b815260040161080490614209565b600080546040516001600160a01b03808516939216917f8be0079c531659141344cd1fd0a4f28419497f9722a3daafe3b4186f6b6457e091a3600080546001600160a01b0319166001600160a01b0392909216919091179055565b600082815260056020526040902080546001600160a01b0316331480612267575060018101546001600160a01b031633145b6122835760405162461bcd60e51b815260040161080490614944565b6002600682015460ff16600281111561229857fe5b146122b55760405162461bcd60e51b81526004016108049061465e565b6004600a82015460ff1660048111156122ca57fe5b106122e75760405162461bcd60e51b8152600401610804906141b7565b60088101546007546040513392916001600160a01b0316907fdccf2f8b2cc26eafcd61905cba744cff4b81d14740725f6376390dc6298a6a3c9061232c908790614095565b60405180910390a4505050565b600061235361234b8560000151613035565b8551846132b4565b61236f5760405162461bcd60e51b81526004016108049061491b565b61238561237b856123a8565b91508185856133e7565b6123a15760405162461bcd60e51b81526004016108049061478d565b9392505050565b60006123bb6123b6836135ee565b613678565b92915050565b60006123cc826123a8565b6000818152600460205260408120600181015460a086015193945090929091906123f690836136a8565b60028401805460ff1916600517905560008085556001850155610100860151909150156124b857610100850151608086015160125460405163a9059cbb60e01b815293839003936001600160a01b039283169363a9059cbb9361245d931691600401614006565b602060405180830381600087803b15801561247757600080fd5b505af115801561248b573d6000803e3d6000fd5b505050506040513d601f19601f820116820180604052508101906124af9190613aca565b6124b857600080fd5b6101208501511561256e576124d2818661012001516136a8565b905084608001516001600160a01b031663a9059cbb8660000151604001518761012001516040518363ffffffff1660e01b8152600401612513929190614006565b602060405180830381600087803b15801561252d57600080fd5b505af1158015612541573d6000803e3d6000fd5b505050506040513d601f19601f820116820180604052508101906125659190613aca565b61256e57600080fd5b60e0850151156126145760e08501516080860151606087015160405163a9059cbb60e01b815293839003936001600160a01b039092169263a9059cbb926125b9929190600401614006565b602060405180830381600087803b1580156125d357600080fd5b505af11580156125e7573d6000803e3d6000fd5b505050506040513d601f19601f8201168201806040525081019061260b9190613aca565b61261457600080fd5b60c0850151156126bc5760c08501516080860151604080880151905163a9059cbb60e01b815293839003936001600160a01b039092169263a9059cbb926126619291870190600401614006565b602060405180830381600087803b15801561267b57600080fd5b505af115801561268f573d6000803e3d6000fd5b505050506040513d601f19601f820116820180604052508101906126b39190613aca565b6126bc57600080fd5b801561275557608085015185516020015160405163a9059cbb60e01b81526001600160a01b039092169163a9059cbb916126fa918590600401614006565b602060405180830381600087803b15801561271457600080fd5b505af1158015612728573d6000803e3d6000fd5b505050506040513d601f19601f8201168201806040525081019061274c9190613aca565b61275557600080fd5b60405184907f24196ec40f90671b7144e716978686b4f3c7d6b00b23da3971ef2b52af27d87f90600090a25050505050565b60028111156127a85760405162461bcd60e51b815260040161080490614284565b6002820180546004808501805460058701805460009687905592869055859055600a8701805460ff191690931790925560016020819052808701546001600160a01b03168552929391929091908514156129015785546040516001600160a01b0390911690849061281890613f0f565b60006040518083038185875af1925050503d8060008114612855576040519150601f19603f3d011682016040523d82523d6000602084013e61285a565b606091505b50506001878101546001600160a01b03908116600090815260209290925260408083208054899003905589548216835290912080546002808904909101909155600d549293509116906342966c6890865b0486036040518263ffffffff1660e01b81526004016128ca919061406e565b600060405180830381600087803b1580156128e457600080fd5b505af11580156128f8573d6000803e3d6000fd5b50505050612add565b60028514156129d15760018601546040516001600160a01b0390911690839061292990613f0f565b60006040518083038185875af1925050503d8060008114612966576040519150601f19603f3d011682016040523d82523d6000602084013e61296b565b606091505b5050600a5487546001600160a01b039081166000908152600160208190526040808320429095016002958601558b548416835280832080548b90039055908b01548316825290208054838904019055600d5492935091909116906342966c6890866128ab565b600186015460405160028504916001600160a01b031690828503906129f590613f0f565b60006040518083038185875af1925050503d8060008114612a32576040519150601f19603f3d011682016040523d82523d6000602084013e612a37565b606091505b505087546040519193506001600160a01b0316908290612a5690613f0f565b60006040518083038185875af1925050503d8060008114612a93576040519150601f19603f3d011682016040523d82523d6000602084013e612a98565b606091505b505087546001600160a01b039081166000908152600160208190526040808320805460028c0490819003909155918c0154909316825291902080549190910390559150505b505050505050565b6002811115612b065760405162461bcd60e51b815260040161080490614284565b6002820180546004808501805460058701805460009687905592869055859055600a8701805460ff191690931790925591929091906001851415612c505785546040516001600160a01b03909116908490612b6090613f0f565b60006040518083038185875af1925050503d8060008114612b9d576040519150601f19603f3d011682016040523d82523d6000602084013e612ba2565b606091505b50506003870154875460405163a9059cbb60e01b81529293506001600160a01b039182169263a9059cbb92612bdd9216908890600401614006565b602060405180830381600087803b158015612bf757600080fd5b505af1158015612c0b573d6000803e3d6000fd5b505050506040513d601f19601f82011682018060405250810190612c2f9190613aca565b612c4b5760405162461bcd60e51b81526004016108049061440f565b612add565b6002851415612cf85760018601546040516001600160a01b03909116908390612c7890613f0f565b60006040518083038185875af1925050503d8060008114612cb5576040519150601f19603f3d011682016040523d82523d6000602084013e612cba565b606091505b50506003870154600188015460405163a9059cbb60e01b81529293506001600160a01b039182169263a9059cbb92612bdd9216908890600401614006565b600186015460405160028504916001600160a01b03169082850390612d1c90613f0f565b60006040518083038185875af1925050503d8060008114612d59576040519150601f19603f3d011682016040523d82523d6000602084013e612d5e565b606091505b505087546040519193506001600160a01b0316908290612d7d90613f0f565b60006040518083038185875af1925050503d8060008114612dba576040519150601f19603f3d011682016040523d82523d6000602084013e612dbf565b606091505b50506003880154600189015460405163a9059cbb60e01b815292945060028804926001600160a01b039283169263a9059cbb92612e0592911690858b0390600401614006565b602060405180830381600087803b158015612e1f57600080fd5b505af1158015612e33573d6000803e3d6000fd5b505050506040513d601f19601f82011682018060405250810190612e579190613aca565b612e735760405162461bcd60e51b81526004016108049061440f565b6003880154885460405163a9059cbb60e01b81526001600160a01b039283169263a9059cbb92612eaa929116908590600401614006565b602060405180830381600087803b158015612ec457600080fd5b505af1158015612ed8573d6000803e3d6000fd5b505050506040513d601f19601f82011682018060405250810190612efc9190613aca565b612f185760405162461bcd60e51b81526004016108049061440f565b5050505050505050565b600087815260056020526040902080546001600160a01b038089166001600160a01b031992831617835560018084018054928a1692909316919091179091556002808301879055600483018054860190556006830180548593919260ff1990911691908490811115612f9057fe5b02179055506001826002811115612fa357fe5b1415612fc7576003810180546001600160a01b0319166001600160a01b0386161790555b600a8101805460ff19166002179055426007820155600e80546001818101909255600883015560405189917ff972c77402d0ee7d94e4b2ea7cee21a3d392136bf7c9b72d2dc85e2a4d24a9cf9161301e91906140bb565b60405180910390a2979650505050505050565b3390565b60006123bb6123b6836136ea565b600061305b61305184613035565b91508184846132b4565b6123bb5760405162461bcd60e51b81526004016108049061491b565b6000828152600560205260409020600a810180546003919060ff191660018302179055506007546000906001600160a01b031663c13517e184600280600687015460ff1660028111156130c657fe5b146130d25760086130d5565b60095b6040518463ffffffff1660e01b81526004016130f2929190614a49565b6020604051808303818588803b15801561310b57600080fd5b505af115801561311f573d6000803e3d6000fd5b50505050506040513d601f19601f820116820180604052508101906131449190613c79565b600081815260066020526040908190208690556007546008850154915192935083926001600160a01b03909116917f74baab670a4015ab2f1b467c5252a96141a2573f2908e58a92081e80d3cfde3d916131a0919081906149ff565b60405180910390a36000838360040154111561322a5760048301805490859055835460405191869003916001600160a01b039091169082906131e190613f0f565b60006040518083038185875af1925050503d806000811461321e576040519150601f19603f3d011682016040523d82523d6000602084013e613223565b606091505b5090925050505b83836005015411156132ad5760058301805490859055600184015460405191869003916001600160a01b0390911690829061326490613f0f565b60006040518083038185875af1925050503d80600081146132a1576040519150601f19603f3d011682016040523d82523d6000602084013e6132a6565b606091505b5090925050505b5050505050565b60008260e001516000141580156132ce57508260e0015142115b156132db575060006123a1565b6040808401516001600160a01b031660009081526001602081905291902060608501519181015481549192910310156133185760009150506123a1565b60008581526002602052604090205460ff16156133395760009150506123a1565b60008581526003602052604090205460ff161561335a5760019150506123a1565b83604001516001600160a01b0316600186856000015186602001518760400151604051600081526020016040526040516133979493929190614077565b6020604051602081039080840390855afa1580156133b9573d6000803e3d6000fd5b505050602060405103516001600160a01b031614156133dc5760019150506123a1565b506000949350505050565b6000826101400151600014158015613403575082610140015142115b15613410575060006123a1565b60808301516001600160a01b03166000908152600c602052604090205460ff1661343c575060006123a1565b60008481526002602052604090205460ff161561345b575060006123a1565b6134718360a00151846000015160800151613724565b8360e001511015613484575060006123a1565b61349a8360a00151846000015160c00151613724565b8360c0015110156134ad575060006123a1565b6134bd8360a00151601054613724565b83610100015110156134d1575060006123a1565b825160208101516040909101516001600160a01b0390811691161480159061350c57506135048360a00151601154613724565b836101200151105b15613519575060006123a1565b8260e001518361012001518461010001518560c001510101018360a001511015613545575060006123a1565b60008481526003602052604090205460ff1615613564575060016123a1565b82604001516001600160a01b0316600185846000015185602001518660400151604051600081526020016040526040516135a19493929190614077565b6020604051602081039080840390855afa1580156135c3573d6000803e3d6000fd5b505050602060405103516001600160a01b031614156135e4575060016123a1565b5060009392505050565b60006135fd8260000151613035565b82604001518360200151846060015185608001518660a001518760c001518860e001518961010001518a61012001518b61014001518c61016001518d610180015160405160200161365a9d9c9b9a99989796959493929190613d96565b60408051808303601f19018152919052805160209091012092915050565b60008160405160200161368b9190613ede565b604051602081830303815290604052805190602001209050919050565b60006123a183836040518060400160405280601e81526020017f536166654d6174683a207375627472616374696f6e206f766572666c6f77000081525061372d565b80516020808301516040808501516060860151608087015160a088015160c089015160e08a0151955160009961365a999098979101613e1e565b61271091020490565b600081848411156137515760405162461bcd60e51b81526004016108049190614095565b505050900390565b80356123bb81614ab8565b600082601f830112613774578081fd5b813561378761378282614a8c565b614a65565b8181529150602080830190848101610280808502870183018810156137ab57600080fd5b60005b858110156137d2576137c089846138c9565b855293830193918101916001016137ae565b50505050505092915050565b600082601f8301126137ee578081fd5b81356137fc61378282614a8c565b818152915060208083019084810160608085028701830188101561381f57600080fd5b60005b858110156137d25761383489846139a3565b85529383019391810191600101613822565b6000610100808385031215613859578182fd5b61386281614a65565b91505081358152602082013561387781614ab8565b6020820152604082013561388a81614ab8565b80604083015250606082013560608201526080820135608082015260a082013560a082015260c082013560c082015260e082013560e082015292915050565b600061028082840312156138db578081fd5b6101a06138e781614a65565b91506138f38484613846565b825261010061390485828601613759565b602084015261012061391886828701613759565b604085015261014061392c87828801613759565b606086015261016061394088828901613759565b60808701526101808088013560a08801528588013560c08801526101c088013560e08801526101e0880135858801526102008801358488015261022088013583880152610240880135828801526102608801358188015250505050505092915050565b6000606082840312156139b4578081fd5b6139be6060614a65565b9050813560ff811681146139d157600080fd5b80825250602082013560208201526040820135604082015292915050565b600060208284031215613a00578081fd5b81356123a181614ab8565b600060208284031215613a1c578081fd5b813567ffffffffffffffff811115613a32578182fd5b613a3e84828501613764565b949350505050565b600080600060608486031215613a5a578182fd5b833567ffffffffffffffff80821115613a71578384fd5b613a7d87838801613764565b94506020860135915080821115613a92578384fd5b613a9e878388016137de565b93506040860135915080821115613ab3578283fd5b50613ac0868287016137de565b9150509250925092565b600060208284031215613adb578081fd5b815180151581146123a1578182fd5b600060208284031215613afb578081fd5b5035919050565b60008060408385031215613b14578182fd5b8235915060208084013567ffffffffffffffff80821115613b33578384fd5b81860187601f820112613b44578485fd5b8035925081831115613b54578485fd5b613b66601f8401601f19168501614a65565b91508282528784848301011115613b7b578485fd5b8284820185840137509081019091019190915290939092509050565b60006101008284031215613ba9578081fd5b6123a18383613846565b6000806101608385031215613bc6578182fd5b613bd08484613846565b9150613be08461010085016139a3565b90509250929050565b60006102808284031215613bfb578081fd5b6123a183836138c9565b60008060006103408486031215613c1a578081fd5b613c2485856138c9565b9250613c348561028086016139a3565b9150613c44856102e086016139a3565b90509250925092565b6000806102a08385031215613c60578182fd5b613c6a84846138c9565b94610280939093013593505050565b600060208284031215613c8a578081fd5b5051919050565b60008060408385031215613ca3578182fd5b50508035926020909101359150565b60601b6bffffffffffffffffffffffff19169052565b60008151808452815b81811015613ced57602081850181015186830182015201613cd1565b81811115613cfe5782602083870101525b50601f01601f19169290920160200192915050565b60008154600180821660008114613d315760018114613d4f57613d8d565b60028304607f16865260ff1983166020870152604086019350613d8d565b60028304808752613d5f86614aac565b60005b82811015613d835781546020828b0101528482019150602081019050613d62565b8801602001955050505b50505092915050565b60008e82526bffffffffffffffffffffffff19808f60601b166020840152808e60601b166034840152613dcc604884018e613cb2565b60609b909b1b909a16605c8201526070810198909852609088019690965260b087019490945260d086019290925260f08501526101108401526101308301526101508201526101700195945050505050565b9788526bffffffffffffffffffffffff19606097881b811660208a01529590961b909416603487015260488601929092526068850152608884015260a883015260c882015260e80190565b6000808454600180821660008114613e885760018114613e9f57613ece565b60ff198316865260028304607f1686019350613ece565b600283048886526020808720875b83811015613ec65781548a820152908501908201613ead565b505050860193505b5050509283525050602001919050565b7f19457468657265756d205369676e6564204d6573736167653a0a3332000000008152601c810191909152603c0190565b90565b6001600160a01b0391909116815260200190565b6001600160a01b03978816815295871660208701529390951660408501526060840191909152608083015260a082019290925260c081019190915260e00190565b6001600160a01b038c811682528b81166020830152604082018b9052891660608201526080810188905260a08101879052610160810160038710613fa757fe5b8660c08301528560e0830152846101008301528361012083015260058310613fcb57fe5b826101408301529c9b505050505050505050505050565b6001600160a01b039384168152919092166020820152604081019190915260600190565b6001600160a01b03929092168252602082015260400190565b6020808252825182820181905260009190848201906040850190845b818110156140575783518352928401929184019160010161403b565b50909695505050505050565b901515815260200190565b90815260200190565b93845260ff9290921660208401526040830152606082015260800190565b6000602082526123a16020830184613cc8565b6000602082526123a16020830184613d13565b60208101600283106140c957fe5b91905290565b6020808252601c908201527f596f7520646f6e2774206861766520656e6f67687420746f6b656e7300000000604082015260600190565b60208082526021908201527f446973707574652068617320616c7265616479206265656e20637265617465646040820152601760f91b606082015260800190565b60208082526026908201527f54686520646973707574652068617320616c7265616479206265656e2072657360408201526537b63b32b21760d11b606082015260800190565b60208082526010908201526f105b1c9958591e48185c1c1c9bdd995960821b604082015260600190565b60208082526032908201527f4d757374206e6f742073656e642065766964656e63652069662074686520646960408201527139b83aba329034b9903932b9b7b63b32b21760711b606082015260800190565b60208082526026908201527f4f776e61626c653a206e6577206f776e657220697320746865207a65726f206160408201526564647265737360d01b606082015260800190565b6020808252818101527f54696d656f75742074696d6520686173206e6f7420706173736564207965742e604082015260600190565b6020808252600f908201526e24b73b30b634b210393ab634b7339760891b604082015260600190565b6020808252601c908201527f57617272616e74792074696d65206861732074696d6564206f75742e00000000604082015260600190565b6020808252600d908201526c496e76616c696420706861736560981b604082015260600190565b60208082526031908201527f5468652070726f7365637574696f6e20666565206d75737420636f7665722061604082015270393134ba3930ba34b7b71031b7b9ba399760791b606082015260800190565b6020808252601e908201527f596f75206d75737420626520746865206c697374696e672073656c6c65720000604082015260600190565b6020808252601b908201527f596f7520646f6e2774206861766520656e6f6768742066756e64730000000000604082015260600190565b60208082526025908201527f44697370757465206973206e6f742077616974696e6720666f7220616e79207060408201526430b93a3c9760d91b606082015260800190565b60208082526026908201527f54686520607472616e73666572602066756e6374696f6e206d757374206e6f74604082015265103330b4b61760d11b606082015260800190565b60208082526017908201527f4f6e6c792062757965722063616e20646973707574652e000000000000000000604082015260600190565b60208082526018908201527f4f6e6c792073656c6c65722063616e20646973707574652e0000000000000000604082015260600190565b60208082526021908201527f4c697374696e672068617320616c7265616479206265656e207265706f7274656040820152601960fa1b606082015260800190565b6020808252818101527f4f776e61626c653a2063616c6c6572206973206e6f7420746865206f776e6572604082015260600190565b6020808252601a908201527f53656e646572206973206e6f74206f72646572207369676e6572000000000000604082015260600190565b6020808252601e908201527f5468652063616c6c6572206d757374206265207468652073656e6465722e0000604082015260600190565b6020808252818101527f436f6e6669726d6174696f6e2074696d65206861732074696d6564206f75742e604082015260600190565b6020808252601c908201527f53656e646572206973206e6f74206c697374696e67207369676e657200000000604082015260600190565b6020808252602b908201527f526566756e642063616e27742062652067726561746572207468616e20746f7460408201526a30b61030b63637bbb2b21760a91b606082015260800190565b6020808252602f908201527f45766964656e63657320617265206f6e6c7920616c6c6f77656420666f72206f60408201526e393232b939903234b9b83aba32b99760891b606082015260800190565b60208082526027908201527f596f7520617265206e6f7420616c6c6f77656420746f207265706f7274206c6960408201526639ba34b733b99760c91b606082015260800190565b6020808252602a908201527f56616c7565206d7573742062652067726561746572207468616e2061726269746040820152691c985d1a5bdb90dbdcdd60b21b606082015260800190565b6020808252602f908201527f596f75206d7573742062652073656c6c6572206f7220627579657220696e207460408201526e3432903934b3b43a10383430b9b29760891b606082015260800190565b6020808252600d908201526c24b73b30b634b21037b93232b960991b604082015260600190565b6020808252602d908201527f41707065616c7320617265206f6e6c7920616c6c6f77656420666f72206f726460408201526c32b939903234b9b83aba32b99760991b606082015260800190565b6020808252601190820152702cb7ba9036bab9ba10313290313abcb2b960791b604082015260600190565b6020808252818101527f4f7264657220616c726561647920686173206265656e2070726f636573736564604082015260600190565b60208082526022908201527f5468652063616c6c6572206d757374206265207468652061726269747261746f604082015261391760f11b606082015260800190565b60208082526021908201527f4661696c656420746f207472616e7366657220627579657227732066756e64736040820152601760f91b606082015260800190565b60208082526019908201527f556e61626c6520746f207472616e7366657220746f6b656e7300000000000000604082015260600190565b6020808252600f908201526e496e76616c6964206c697374696e6760881b604082015260600190565b60208082526034908201527f5468652063616c6c6572206d757374206265207468652070726f73656375746960408201527337b71037b9103a3432903232b332b73230b73a1760611b606082015260800190565b6020808252602e908201527f596f752063616e2774207265706f727420796f757273656c662e20557365206360408201526d616e63656c4c697374696e67282960901b606082015260800190565b600083825260406020830152613a3e6040830184613d13565b918252602082015260400190565b838152602081018390526060810160068310614a2557fe5b826040830152949350505050565b9283526020830191909152604082015260600190565b600060ff8416825260406020830152613a3e6040830184613d13565b60405181810167ffffffffffffffff81118282101715614a8457600080fd5b604052919050565b600067ffffffffffffffff821115614aa2578081fd5b5060209081020190565b60009081526020902090565b6001600160a01b0381168114614acd57600080fd5b5056fea264697066735822122086523ccf285bb4481310edb3a391037e0fdf0da3a61466fac0712ff9ac36cfad64736f6c63430006080033",
  "immutableReferences": {},
  "source": "// SPDX-License-Identifier: MIT\npragma solidity ^0.6.0;\npragma experimental ABIEncoderV2;\n\nimport \"../arbitration/Arbitrator.sol\";\nimport \"../arbitration/IArbitrable.sol\";\n\nimport \"@openzeppelin/contracts/token/ERC20/ERC20Burnable.sol\";\n\nimport \"@openzeppelin/contracts/access/Ownable.sol\";\n\n\ncontract Dagora is IArbitrable, Ownable {\n    /* 2 decimal plates for percentage */\n    uint256 public constant INVERSE_BASIS_POINT = 10000;\n\n    uint8 constant AMOUNT_OF_CHOICES = 2;\n\n    enum Party {Prosecution, Defendant}\n    enum DisputeType {None, Report, Order}\n    enum RulingOptions {NoRuling, ProsecutionWins, DefendantWins}\n    enum DisputeStatus {\n        NoDispute,\n        WaitingProsecution,\n        WaitingDefendant,\n        DisputeCreated,\n        Resolved\n    }\n    enum Status {\n        NoTransaction,\n        WaitingConfirmation,\n        Warranty,\n        WarrantyConfirmation,\n        InDispute,\n        Finalized\n    }\n\n    struct Listing {\n        bytes32 ipfsHash;\n        address payable seller;\n        address payable stakeOwner;\n        uint256 stakedAmount;\n        uint256 commissionPercentage; /* two decimal places */\n        uint256 warranty; /* In days */\n        uint256 cashbackPercentage; /* two decimal places */\n        uint256 expiration;\n    }\n\n    struct Order {\n        Listing listing;\n        address payable fundsHolder;\n        address payable buyer;\n        address payable commissioner;\n        ERC20 token;\n        uint256 total;\n        uint256 cashback;\n        uint256 commission;\n        uint256 protocolFee;\n        uint256 stakeHolderFee;\n        uint256 expiration;\n        uint256 confirmationTimeout; /* In days */\n        uint256 timestamp; /* A buyer may want to buy the same product twice */\n    }\n\n    struct Transaction {\n        /* Keep track of status update */\n        uint256 lastStatusUpdate;\n        /* Refund the seller can give */\n        uint256 refund;\n        /* Current status */\n        Status status;\n    }\n\n    struct Seller {\n        // The amount of tokens the contract holds for this seller.\n        uint256 balance;\n        /* Total number of tokens the seller can loose in disputes they are.\n         * Those tokens are locked. Note that we can have lockedTokens > balance but it should\n         * be statistically unlikely and does not pose issues.*/\n        uint256 lockedTokens;\n        uint256 blackListExpire;\n    }\n\n    /* An ECDSA signature. */\n    struct Sig {\n        /* v parameter */\n        uint8 v;\n        /* r parameter */\n        bytes32 r;\n        /* s parameter */\n        bytes32 s;\n    }\n\n    struct RunningDispute {\n        address payable prosecution;\n        address payable defendant;\n        uint256 amount;\n        ERC20 token;\n        uint256 prosecutionFee;\n        uint256 defendantFee;\n        DisputeType disputeType;\n        uint256 lastInteraction;\n        uint256 metaEvidenceId;\n        uint256 disputeId;\n        DisputeStatus status;\n    }\n\n    event TokenGranted(address indexed addr);\n    event TokenRevoked(address indexed addr);\n\n    event TokenDeposited(address indexed sender, uint256 value);\n    event TokenWithdrawed(address indexed sender, uint256 value);\n\n    event ListingApproved(bytes32 indexed hash);\n    event ListingCancelled(bytes32 indexed hash);\n\n    event OrderApproved(bytes32 indexed hash);\n    event OrderCancelled(bytes32 indexed hash);\n\n    event TransactionCreated(\n        bytes32 indexed hash,\n        address indexed buyer,\n        address indexed seller,\n        address stakeOwner,\n        address commissioner,\n        ERC20 token,\n        uint256 total,\n        uint256 commissionPercentage,\n        uint256 cashbackPercentage,\n        uint256 confirmationTimeout\n    );\n\n    event TransactionRefunded(bytes32 indexed hash, uint256 value);\n    event TransactionFinalized(bytes32 indexed hash);\n\n    event WarrantyClaimed(bytes32 indexed hash);\n\n    event HasToPayFee(bytes32 indexed _hash, Party _party);\n\n    mapping(address => Seller) public sellers;\n    /* Cancelled / finalized listings and orders, by hash. */\n    mapping(bytes32 => bool) public cancelledOrFinalized;\n    /* Orders and listings verified by on-chain approval (alternative to ECDSA\n     * signatures so that smart contracts can place orders and listings\n     * directly). */\n    mapping(bytes32 => bool) public approvedHashes;\n\n    mapping(bytes32 => Transaction) public transactions; // Listing Hash to Dispute\n\n    mapping(bytes32 => RunningDispute) public disputes; // Listing Hash to Dispute\n    mapping(uint256 => bytes32) public disputeIDtoHash;\n\n    Arbitrator public arbitrator; // Address of the arbitrator contract.\n    bytes public reportExtraData; // Extra data to set up the arbitration.\n    bytes public orderExtraData; // Extra data to set up the arbitration.\n    uint256 public blackListTimeout;\n    uint256 public feeTimeout;\n    /* Time in seconds a party can take to pay arbitration\n     * fees before being considered unresponding and lose the dispute.*/\n\n    mapping(address => bool) public contracts;\n\n    // mapping(address => mapping(address => uint)) public balances;\n\n    ERC20Burnable public marketToken;\n    uint256 public metaEvidenceCount;\n    string public ipfsDomain;\n\n    uint256 public protocolFeePercentage;\n    uint256 public tokenOwnerFeePercentage;\n    address public protocolFeeRecipient;\n\n    constructor(\n        address _arbitrator,\n        address _token,\n        address _protocolFeeRecipient,\n        uint256 _feeTimeoutDays,\n        uint256 _blacklistTimeoutDays,\n        uint256 _protocolFeePercentage,\n        uint256 _tokenOwnerFeePercentage,\n        bytes memory _reportExtraData,\n        bytes memory _orderExtraData,\n        string memory _ipfsDomain\n    ) public Ownable() {\n        arbitrator = Arbitrator(_arbitrator);\n        marketToken = ERC20Burnable(_token);\n        protocolFeeRecipient = _protocolFeeRecipient;\n        feeTimeout = _feeTimeoutDays * (1 days);\n        blackListTimeout = _blacklistTimeoutDays * (1 days);\n        protocolFeePercentage = _protocolFeePercentage;\n        tokenOwnerFeePercentage = _tokenOwnerFeePercentage;\n        reportExtraData = _reportExtraData;\n        orderExtraData = _orderExtraData;\n        ipfsDomain = _ipfsDomain;\n    }\n\n    function grantAuthentication(address addr) public onlyOwner {\n        require(!contracts[addr]);\n        contracts[addr] = true;\n        emit TokenGranted(addr);\n    }\n\n    function revokeAuthentication(address addr) public onlyOwner {\n        contracts[addr] = false;\n        emit TokenRevoked(addr);\n    }\n\n    function depositTokens(uint256 value) public {\n        require(marketToken.transferFrom(msg.sender, address(this), value));\n        sellers[msg.sender].balance += value;\n        emit TokenDeposited(msg.sender, value);\n    }\n\n    function withdrawTokens(uint256 value) public {\n        Seller storage seller = sellers[msg.sender];\n        require(\n            seller.balance - seller.lockedTokens >= value,\n            \"You don't have enoght tokens\"\n        );\n        require(marketToken.transferFrom(msg.sender, address(this), value));\n        sellers[msg.sender].balance -= value;\n        emit TokenWithdrawed(msg.sender, value);\n    }\n\n    function approveListing(Listing memory _listing) public returns (bool) {\n        /* CHECKS */\n        /* Assert sender is authorized to approve listing. */\n        require(\n            msg.sender == _listing.stakeOwner,\n            \"Sender is not listing signer\"\n        );\n        require(\n            sellers[msg.sender].balance >= _listing.stakedAmount,\n            \"You don't have enoght funds\"\n        );\n        /* Calculate listing hash. */\n        bytes32 hash = hashListingToSign(_listing);\n        /* Assert listing has not already been approved. */\n        require(!approvedHashes[hash], \"Already approved\");\n        /* EFFECTS */\n        /* Mark listing as approved. */\n        approvedHashes[hash] = true;\n        emit ListingApproved(hash);\n        return true;\n    }\n\n    function cancelListing(Listing memory _listing, Sig memory sig) internal {\n        /* CHECKS */\n        /* Calculate listing hash. */\n        bytes32 hash = requireValidListing(_listing, sig);\n\n        /* Assert sender is authorized to cancel listing. */\n        require(\n            msg.sender == _listing.stakeOwner || msg.sender == _listing.seller\n        );\n\n        /* EFFECTS */\n\n        /* Mark listing as cancelled, preventing it from being matched. */\n        cancelledOrFinalized[hash] = true;\n\n        /* Log cancel event. */\n        emit ListingCancelled(hash);\n    }\n\n    function approveOrder(Order memory order) public returns (bool) {\n        /* CHECKS */\n        /* Assert sender is authorized to approve listing. */\n        require(msg.sender == order.fundsHolder, \"Sender is not order signer\");\n        /* Calculate listing hash. */\n        bytes32 hash = hashOrderToSign(order);\n        /* Assert listing has not already been approved. */\n        require(!approvedHashes[hash], \"Already approved\");\n        /* EFFECTS */\n        /* Mark order as approved. */\n        approvedHashes[hash] = true;\n\n        emit OrderApproved(hash);\n        return true;\n    }\n\n    function cancelOrder(Order memory order, Sig memory orderSig, Sig memory listingSig) internal {\n        /* CHECKS */\n\n        /* Calculate listing hash. */\n        bytes32 hash = requireValidOrder(order, orderSig, listingSig);\n\n        /* Assert sender is authorized to cancel listing. */\n        require(msg.sender == order.buyer);\n\n        /* EFFECTS */\n\n        /* Mark listing as cancelled, preventing it from being matched. */\n        cancelledOrFinalized[hash] = true;\n\n        /* Log cancel event. */\n        emit OrderCancelled(hash);\n    }\n\n    function createTransaction(\n        Order memory _order,\n        Sig memory orderSig,\n        Sig memory listingSig\n    ) public returns (bytes32 hash) {\n        hash = requireValidOrder(_order, orderSig, listingSig);\n        Transaction storage transaction = transactions[hash];\n        require(\n            transaction.status == Status.NoTransaction,\n            \"Order already has been processed\"\n        );\n        require(\n            _order.token.transferFrom(_order.fundsHolder, address(this), _order.total),\n            \"Failed to transfer buyer's funds.\"\n        );\n        transaction.lastStatusUpdate = now;\n        transaction.status = Status.WaitingConfirmation;\n        emit TransactionCreated(\n            hash,\n            _order.buyer,\n            _order.listing.seller,\n            _order.listing.stakeOwner,\n            _order.commissioner,\n            _order.token,\n            _order.total,\n            _order.commission,\n            _order.cashback,\n            _order.confirmationTimeout\n        );\n    }\n\n    function batchCreateTransaction(Order[] memory orders, Sig[] memory orderSignatures, Sig[] memory listingSignatures) public returns (bytes32[] memory hashes) {\n        require(orders.length == orderSignatures.length && orderSignatures.length == listingSignatures.length);\n        hashes = new bytes32[](orders.length);\n        for (uint256 i = 0; i < orders.length; i++) {\n            hashes[i] = createTransaction(orders[i], orderSignatures[i], listingSignatures[i]);\n        }\n    }\n\n    function confirmReceipt(Order memory _order)\n        public\n    {\n        bytes32 hash = hashOrderToSign(_order);\n        Transaction storage transaction = transactions[hash];\n        require(\n            (transaction.status == Status.WaitingConfirmation &&\n                msg.sender == _order.buyer) ||\n                (transaction.status == Status.WarrantyConfirmation &&\n                    msg.sender == _order.listing.seller),\n            \"You must be seller or buyer in the right phase.\"\n        );\n        if (transaction.refund == 0 && _order.listing.warranty > 0) {\n            transaction.status = Status.Warranty;\n            transaction.lastStatusUpdate = now;\n        } else {\n            finalizeTransaction(_order);\n        }\n    }\n\n    function executeTransaction(Order memory _order)\n        public\n    {\n        bytes32 hash = hashOrderToSign(_order);\n        Transaction storage transaction = transactions[hash];\n        require(\n            transaction.status == Status.WaitingConfirmation ||\n                transaction.status == Status.Warranty ||\n                transaction.status == Status.WarrantyConfirmation,\n            \"Invalid phase\"\n        );\n        uint256 cashbackPercentage;\n        if (\n            transaction.status == Status.WaitingConfirmation ||\n            transaction.status == Status.WarrantyConfirmation\n        ) {\n            require(\n                now >= transaction.lastStatusUpdate +\n                    (_order.confirmationTimeout * (1 days)),\n                \"Timeout time has not passed yet.\"\n            );\n            cashbackPercentage = 0;\n        } else {\n            require(\n                now >= transaction.lastStatusUpdate + (_order.listing.warranty * (1 days))\n                    ,\n                \"Timeout time has not passed yet.\"\n            );\n            cashbackPercentage = _order.listing.cashbackPercentage;\n        }\n        finalizeTransaction(_order);\n    }\n\n    function batchExecuteTransaction(Order[] memory orders) public {\n        for (uint256 i = 0; i < orders.length; i++) {\n            executeTransaction(orders[i]);\n        }\n    }\n\n    function finalizeTransaction(\n        Order memory order\n    ) internal {\n        bytes32 hash = hashOrderToSign(order);\n        Transaction storage transaction = transactions[hash];\n        uint256 refund = transaction.refund;\n        uint256 price = SafeMath.sub(order.total, refund);\n\n        transaction.status = Status.Finalized;\n        delete transaction.lastStatusUpdate;\n        delete transaction.refund;\n        \n\n        if (order.protocolFee > 0) {\n            price -= order.protocolFee;\n            require(order.token.transfer(protocolFeeRecipient, order.protocolFee));\n        }\n\n        if (order.stakeHolderFee > 0) {\n            price = SafeMath.sub(price, order.stakeHolderFee);\n            require(order.token.transfer(order.listing.stakeOwner, order.stakeHolderFee));\n        }\n\n        if (order.commission > 0) {\n            price -= order.commission;\n            require(order.token.transfer(order.commissioner, order.commission));\n        }\n\n        if (order.cashback > 0) {\n            price -= order.cashback;\n            require(order.token.transfer(order.buyer, (order.cashback + refund)));\n        }\n\n        if (price > 0){\n            require(order.token.transfer(order.listing.seller, price));\n        }\n        emit TransactionFinalized(hash);\n    }\n\n    function claimWarranty(Order memory _order)\n        public\n    {\n        bytes32 hash = hashOrderToSign(_order);\n        Transaction storage transaction = transactions[hash];\n        require(transaction.status == Status.Warranty, \"Invalid phase\");\n        require(msg.sender == _order.buyer, \"You must be buyer\");\n        require(\n            now <=\n                transaction.lastStatusUpdate + (_order.listing.warranty * (1 days)),\n            \"Warranty time has timed out.\"\n        );\n\n        transaction.status = Status.WarrantyConfirmation;\n        transaction.refund = _order.total;\n        transaction.lastStatusUpdate = now;\n        emit WarrantyClaimed(hash);\n    }\n\n    function disputeTransaction(Order memory _order)\n        public\n        payable\n        returns (bytes32 hash)\n    {\n        hash = hashOrderToSign(_order);\n        Transaction storage transaction = transactions[hash];\n        require(\n            transaction.status == Status.WaitingConfirmation ||\n                transaction.status == Status.WarrantyConfirmation,\n            \"Invalid phase\"\n        );\n        require(\n            now <=\n                transaction.lastStatusUpdate +\n                    (_order.confirmationTimeout * (1 days)),\n            \"Confirmation time has timed out.\"\n        );\n        uint256 arbitrationCost = arbitrator.arbitrationCost(reportExtraData);\n        require(\n            msg.value >= arbitrationCost,\n            \"Value must be greater than arbitrationCost\"\n        );\n        address payable prosecution;\n        address payable defendant;\n        if (transaction.status == Status.WaitingConfirmation) {\n            require(msg.sender == _order.buyer, \"Only buyer can dispute.\");\n            prosecution = _order.buyer;\n            defendant = _order.listing.seller;\n        } else {\n            require(msg.sender == _order.listing.seller, \"Only seller can dispute.\");\n            prosecution = _order.buyer;\n            defendant = _order.listing.seller;\n        }\n        transaction.status = Status.InDispute;\n        transaction.lastStatusUpdate = now;\n        RunningDispute storage dispute = _createDispute(\n            hash,\n            prosecution,\n            defendant,\n            _order.total,\n            _order.token,\n            msg.value,\n            DisputeType.Order\n        );\n        emit MetaEvidence(\n            dispute.metaEvidenceId,\n            string(abi.encodePacked(ipfsDomain, _order.listing.ipfsHash))\n        );\n    }\n\n    function updateRefund(\n        Order memory _order,\n        uint256 refund\n    ) public {\n        require(\n            msg.sender == _order.listing.seller,\n            \"You must be the listing seller\"\n        );\n        bytes32 hash = hashOrderToSign(_order);\n        Transaction storage transaction = transactions[hash];\n        require(\n            transaction.status == Status.WaitingConfirmation,\n            \"Invalid phase\"\n        );\n        require(\n            now <=\n                transaction.lastStatusUpdate +\n                    (_order.confirmationTimeout * (1 days)),\n            \"Confirmation time has timed out.\"\n        );\n        require(refund + (_order.cashback + _order.protocolFee + _order.stakeHolderFee + _order.commission) <= _order.total, \"Refund can't be greater than total allowed.\");\n        transaction.refund = refund;\n        emit TransactionRefunded(hash, refund);\n    }\n\n    function report(Listing memory _listing, Sig memory sig)\n        public\n        payable\n        returns (bytes32 hash)\n    {\n        /* CHECKS */\n        hash = requireValidListing(_listing, sig);\n        require(\n            disputes[hash].status == DisputeStatus.NoDispute,\n            \"Listing has already been reported\"\n        );\n        require(\n            msg.sender != _listing.stakeOwner,\n            \"You can't report yourself. Use cancelListing()\"\n        );\n        uint256 arbitrationCost = arbitrator.arbitrationCost(reportExtraData);\n        require(\n            msg.value >= arbitrationCost,\n            \"Value must be greater than arbitrationCost\"\n        );\n        Seller storage prosecution = sellers[msg.sender];\n        require(\n            now > prosecution.blackListExpire,\n            \"You are not allowed to report listings.\"\n        );\n        uint256 availableBalance = prosecution.balance -\n            prosecution.lockedTokens;\n        if (availableBalance < _listing.stakedAmount) {\n            require(\n                marketToken.transferFrom(\n                    msg.sender,\n                    address(this),\n                    _listing.stakedAmount - availableBalance\n                ),\n                \"Unable to transfer tokens\"\n            );\n            prosecution.balance += _listing.stakedAmount - availableBalance;\n        }\n        /* EFFECTS */\n\n        Seller storage defendant = sellers[_listing.stakeOwner];\n        prosecution.lockedTokens += _listing.stakedAmount;\n        defendant.lockedTokens += _listing.stakedAmount;\n        RunningDispute storage dispute = _createDispute(\n            hash,\n            msg.sender,\n            _listing.stakeOwner,\n            _listing.stakedAmount,\n            marketToken,\n            msg.value,\n            DisputeType.Report\n        );\n        emit MetaEvidence(\n            dispute.metaEvidenceId,\n            string(abi.encodePacked(ipfsDomain, _listing.ipfsHash))\n        );\n    }\n\n    function _createDispute(\n        bytes32 hash,\n        address payable prosecution,\n        address payable defendant,\n        uint256 amount,\n        ERC20 token,\n        uint256 prosecutionFee,\n        DisputeType disputeType\n    ) internal returns (RunningDispute storage dispute) {\n        dispute = disputes[hash];\n        dispute.prosecution = prosecution;\n        dispute.defendant = defendant;\n        dispute.amount = amount;\n        dispute.prosecutionFee += prosecutionFee;\n        dispute.disputeType = disputeType;\n        /* We know the token is market token, save gas*/\n        if (disputeType == DisputeType.Report) dispute.token = token;\n        dispute.status = DisputeStatus.WaitingDefendant;\n        dispute.lastInteraction = now;\n        dispute.metaEvidenceId = metaEvidenceCount++;\n        emit HasToPayFee(hash, Party.Defendant);\n    }\n\n    function disputeTimeout(bytes32 hash) public {\n        RunningDispute storage dispute = disputes[hash];\n        require(\n            DisputeStatus.NoDispute < dispute.status &&\n                dispute.status < DisputeStatus.DisputeCreated,\n            \"Dispute is not waiting for any party.\"\n        );\n        require(\n            now - dispute.lastInteraction >= feeTimeout,\n            \"Timeout time has not passed yet.\"\n        );\n        bool success;\n        if (dispute.prosecutionFee != 0) {\n            uint256 prosecutionFee = dispute.prosecutionFee;\n            dispute.prosecutionFee = 0;\n            (success, ) = dispute.prosecution.call{value: prosecutionFee}(\"\");\n        }\n        if (dispute.defendantFee != 0) {\n            uint256 defendantFee = dispute.defendantFee;\n            dispute.defendantFee = 0;\n            (success, ) = dispute.defendant.call{value: defendantFee}(\"\");\n        }\n        if (dispute.status == DisputeStatus.WaitingDefendant) {\n            executeReportRuling(\n                dispute,\n                uint256(RulingOptions.ProsecutionWins)\n            );\n        } else {\n            executeReportRuling(dispute, uint256(RulingOptions.DefendantWins));\n        }\n    }\n\n    function payArbitrationFee(bytes32 hash) public payable {\n        RunningDispute storage dispute = disputes[hash];\n        uint256 arbitrationCost = arbitrator.arbitrationCost(reportExtraData);\n        require(\n            DisputeStatus.NoDispute < dispute.status &&\n                dispute.status < DisputeStatus.DisputeCreated,\n            \"Dispute has already been created.\"\n        );\n        require(\n            msg.sender == dispute.prosecution ||\n                msg.sender == dispute.defendant,\n            \"The caller must be the sender.\"\n        );\n\n        if (msg.sender == dispute.prosecution) {\n            dispute.prosecutionFee += msg.value;\n            require(\n                dispute.prosecutionFee >= arbitrationCost,\n                \"The prosecution fee must cover arbitration costs.\"\n            );\n            dispute.lastInteraction = now;\n            if (dispute.defendantFee < arbitrationCost) {\n                dispute.status = DisputeStatus.WaitingDefendant;\n                emit HasToPayFee(hash, Party.Defendant);\n            } else {\n                // The receiver has also paid the fee. We create the dispute.\n                raiseDispute(hash, arbitrationCost);\n            }\n        } else {\n            dispute.defendantFee += msg.value;\n            require(\n                dispute.defendantFee >= arbitrationCost,\n                \"The prosecution fee must cover arbitration costs.\"\n            );\n            dispute.lastInteraction = now;\n            if (dispute.prosecutionFee < arbitrationCost) {\n                dispute.status = DisputeStatus.WaitingProsecution;\n                emit HasToPayFee(hash, Party.Prosecution);\n            } else {\n                // The receiver has also paid the fee. We create the dispute.\n                raiseDispute(hash, arbitrationCost);\n            }\n        }\n    }\n\n    function raiseDispute(bytes32 hash, uint256 _arbitrationCost) internal {\n        RunningDispute storage dispute = disputes[hash];\n        dispute.status = DisputeStatus.DisputeCreated;\n        uint256 disputeId = arbitrator.createDispute{value: _arbitrationCost}(\n            AMOUNT_OF_CHOICES,\n            dispute.disputeType == DisputeType.Order\n                ? orderExtraData\n                : reportExtraData\n        );\n        disputeIDtoHash[disputeId] = hash;\n        emit Dispute(\n            arbitrator,\n            disputeId,\n            dispute.metaEvidenceId,\n            dispute.metaEvidenceId\n        );\n        // Refund sender if it overpaid.\n        bool success;\n        if (dispute.prosecutionFee > _arbitrationCost) {\n            uint256 extraFeeProsecution = dispute.prosecutionFee -\n                _arbitrationCost;\n            dispute.prosecutionFee = _arbitrationCost;\n            (success, ) = dispute.prosecution.call{value: extraFeeProsecution}(\n                \"\"\n            );\n        }\n\n        // Refund receiver if it overpaid.\n        if (dispute.defendantFee > _arbitrationCost) {\n            uint256 extraFeeDefendant = dispute.defendantFee - _arbitrationCost;\n            dispute.defendantFee = _arbitrationCost;\n            (success, ) = dispute.defendant.call{value: extraFeeDefendant}(\"\");\n        }\n    }\n\n    /** @dev Submit a reference to evidence. EVENT.\n     *  @param _hash The hash of the order.\n     *  @param _evidence A link to an evidence using its URI.\n     */\n    function submitEvidence(bytes32 _hash, string memory _evidence) public {\n        RunningDispute storage dispute = disputes[_hash];\n        require(\n            msg.sender == dispute.prosecution ||\n                msg.sender == dispute.defendant,\n            \"The caller must be the prosecution or the defendant.\"\n        );\n        require(\n            dispute.disputeType == DisputeType.Order,\n            \"Evidences are only allowed for orders disputes.\"\n        );\n        require(\n            dispute.status < DisputeStatus.Resolved,\n            \"Must not send evidence if the dispute is resolved.\"\n        );\n\n        emit Evidence(\n            arbitrator,\n            dispute.metaEvidenceId,\n            msg.sender,\n            _evidence\n        );\n    }\n\n    /** @dev Appeal an appealable ruling. UNTRUSTED.\n     *  Transfer the funds to the arbitrator.\n     *  Note that no checks are required as the checks are done by the arbitrator.\n     *  @param _hash The hash of the order.\n     */\n    function appeal(bytes32 _hash) public payable {\n        RunningDispute storage dispute = disputes[_hash];\n        require(\n            dispute.disputeType == DisputeType.Order,\n            \"Appeals are only allowed for orders disputes.\"\n        );\n\n        arbitrator.appeal{value: msg.value}(dispute.disputeId, orderExtraData);\n    }\n\n    function rule(uint256 _disputeID, uint256 _ruling) public override {\n        bytes32 hash = disputeIDtoHash[_disputeID];\n        RunningDispute storage dispute = disputes[hash];\n        require(\n            msg.sender == address(arbitrator),\n            \"The caller must be the arbitrator.\"\n        );\n        require(\n            dispute.status == DisputeStatus.DisputeCreated,\n            \"The dispute has already been resolved.\"\n        );\n        emit Ruling(Arbitrator(msg.sender), _disputeID, _ruling);\n        if (dispute.disputeType == DisputeType.Report) {\n            executeReportRuling(dispute, _ruling);\n        } else {\n            _executeOrderRuling(dispute, _ruling);\n            transactions[hash].status = Status.Finalized;\n        }\n    }\n\n    function _executeOrderRuling(\n        RunningDispute storage dispute,\n        uint256 _ruling\n    ) internal {\n        require(_ruling <= AMOUNT_OF_CHOICES, \"Invalid ruling.\");\n\n        uint256 amount = dispute.amount;\n        uint256 prosecutionFee = dispute.prosecutionFee;\n        uint256 defendantFee = dispute.defendantFee;\n\n        dispute.amount = 0;\n        dispute.prosecutionFee = 0;\n        dispute.defendantFee = 0;\n        dispute.status = DisputeStatus.Resolved;\n        // Give the arbitration fee back.\n        // Note that we use `send` to prevent a party from blocking the execution.\n        bool success = false;\n        if (_ruling == uint256(RulingOptions.ProsecutionWins)) {\n            (success, ) = dispute.prosecution.call{value: prosecutionFee}(\"\");\n            require(\n                dispute.token.transfer(dispute.prosecution, amount),\n                \"The `transfer` function must not fail.\"\n            );\n        } else if (_ruling == uint256(RulingOptions.DefendantWins)) {\n            (success, ) = dispute.defendant.call{value: defendantFee}(\"\");\n            require(\n                dispute.token.transfer(dispute.defendant, amount),\n                \"The `transfer` function must not fail.\"\n            );\n        } else {\n            // `senderFee` and `receiverFee` are equal to the arbitration cost.\n            uint256 splitArbitrationFee = prosecutionFee / 2;\n            /* Give 1 wei more to defendant in case of even number */\n            (success, ) = dispute.defendant.call{\n                value: defendantFee - splitArbitrationFee\n            }(\"\");\n            (success, ) = dispute.prosecution.call{value: splitArbitrationFee}(\n                \"\"\n            );\n            uint256 half = amount / 2;\n            require(\n                dispute.token.transfer(dispute.defendant, amount - half),\n                \"The `transfer` function must not fail.\"\n            );\n            require(\n                dispute.token.transfer(dispute.prosecution, half),\n                \"The `transfer` function must not fail.\"\n            );\n        }\n    }\n\n    function executeReportRuling(\n        RunningDispute storage dispute,\n        uint256 _ruling\n    ) internal {\n        require(_ruling <= AMOUNT_OF_CHOICES, \"Invalid ruling.\");\n\n        uint256 amount = dispute.amount;\n        uint256 prosecutionFee = dispute.prosecutionFee;\n        uint256 defendantFee = dispute.defendantFee;\n\n        dispute.amount = 0;\n        dispute.prosecutionFee = 0;\n        dispute.defendantFee = 0;\n        dispute.status = DisputeStatus.Resolved;\n        sellers[dispute.prosecution].lockedTokens -= dispute.amount;\n        sellers[dispute.defendant].lockedTokens -= dispute.amount;\n        // Give the arbitration fee back.\n        // Note that we use `send` to prevent a party from blocking the execution.\n        bool success = false;\n        if (_ruling == uint256(RulingOptions.ProsecutionWins)) {\n            (success, ) = dispute.prosecution.call{value: prosecutionFee}(\"\");\n            sellers[dispute.defendant].balance -= amount;\n            sellers[dispute.prosecution].balance += amount / 2;\n            marketToken.burn(amount - (amount / 2));\n        } else if (_ruling == uint256(RulingOptions.DefendantWins)) {\n            (success, ) = dispute.defendant.call{value: defendantFee}(\"\");\n            sellers[dispute.prosecution].blackListExpire =\n                now +\n                blackListTimeout;\n            sellers[dispute.prosecution].balance -= amount;\n            sellers[dispute.defendant].balance += amount / 2;\n            marketToken.burn(amount - (amount / 2));\n        } else {\n            // `senderFee` and `receiverFee` are equal to the arbitration cost.\n            uint256 splitArbitrationFee = prosecutionFee / 2;\n            (success, ) = dispute.defendant.call{\n                value: defendantFee - splitArbitrationFee\n            }(\"\");\n            (success, ) = dispute.prosecution.call{value: splitArbitrationFee}(\n                \"\"\n            );\n            // In the case of an uneven token amount, one basic token unit can be burnt.\n            sellers[dispute.prosecution].balance -= amount / 2;\n            sellers[dispute.defendant].balance -= amount / 2;\n        }\n    }\n\n    function validateListing(\n        bytes32 hash,\n        Listing memory _listing,\n        Sig memory sig\n    ) internal view returns (bool) {\n        /* Listing has expired */\n        if (_listing.expiration != 0 && now > _listing.expiration) {\n            return false;\n        }\n\n        /* Stake owner must have enough tokens */\n        Seller storage stakeOwner = sellers[_listing.stakeOwner];\n        if (\n            stakeOwner.balance - stakeOwner.lockedTokens < _listing.stakedAmount\n        ) {\n            return false;\n        }\n\n        /* Listing must have not been canceled or already filled. */\n        if (cancelledOrFinalized[hash]) {\n            return false;\n        }\n\n        /* Listing authentication. Listing must be either:\n        /* (a) previously approved */\n        if (approvedHashes[hash]) {\n            return true;\n        }\n\n        /* or (b) ECDSA-signed by stakeOwner. */\n        if (ecrecover(hash, sig.v, sig.r, sig.s) == _listing.stakeOwner) {\n            return true;\n        }\n\n        return false;\n    }\n\n    function validateOrder(\n        bytes32 hash,\n        Order memory order,\n        Sig memory sig\n    ) internal view returns (bool) {\n        /* Order has expired */\n        if (order.expiration != 0 && now > order.expiration) {\n            return false;\n        }\n\n        /* Token contract must be allowed */\n        if (!contracts[address(order.token)]) {\n            return false;\n        }\n\n        /* Listing must have not been canceled or already filled. */\n        if (cancelledOrFinalized[hash]) {\n            return false;\n        }\n\n        /* Commission not enough */\n        if (order.commission < calculateTotalFromPercentage(order.total, order.listing.commissionPercentage)) {\n            return false;\n        }\n\n        /* Cashback not enough */\n        if (order.cashback < calculateTotalFromPercentage(order.total, order.listing.cashbackPercentage)) {\n            return false;\n        }\n\n        /* Cashback not enough */\n        if (order.protocolFee < calculateTotalFromPercentage(order.total, protocolFeePercentage)) {\n            return false;\n        }\n\n        /* Stake holder fee not enough */\n        if (order.listing.stakeOwner != order.listing.seller && order.stakeHolderFee < calculateTotalFromPercentage(order.total, tokenOwnerFeePercentage)) {\n            return false;\n        }\n\n        /* Now enough money for paying taxes */\n        if (order.total < (order.cashback + order.protocolFee + order.stakeHolderFee + order.commission)) {\n            return false;\n        }\n\n        /* Order authentication. Order must be either:\n        /* (a) previously approved */\n        if (approvedHashes[hash]) {\n            return true;\n        }\n\n        /* or (b) ECDSA-signed by buyer. */\n        if (ecrecover(hash, sig.v, sig.r, sig.s) == order.buyer) {\n            return true;\n        }\n\n        return false;\n    }\n\n    function hashListing(Listing memory listing)\n        internal\n        pure\n        returns (bytes32 hash)\n    {\n        hash = keccak256(\n            abi.encodePacked(\n                listing.ipfsHash,\n                listing.seller,\n                listing.stakeOwner,\n                listing.stakedAmount,\n                listing.commissionPercentage,\n                listing.warranty,\n                listing.cashbackPercentage,\n                listing.expiration\n            )\n        );\n        return hash;\n    }\n\n    function hashOrder(Order memory order)\n        internal\n        pure\n        returns (bytes32 hash)\n    {\n        hash = keccak256(\n            abi.encodePacked(\n                hashListingToSign(order.listing),\n                order.buyer,\n                order.fundsHolder,\n                order.commissioner,\n                order.token,\n                order.total,\n                order.cashback,\n                order.commission,\n                order.protocolFee,\n                order.stakeHolderFee,\n                order.expiration,\n                order.confirmationTimeout,\n                order.timestamp\n            )\n        );\n        return hash;\n    }\n\n    function hashToSign(bytes32 hash) internal pure returns (bytes32) {\n        return\n            keccak256(\n                abi.encodePacked(\"\\x19Ethereum Signed Message:\\n32\", hash)\n            );\n    }\n\n    function hashListingToSign(Listing memory listing)\n        internal\n        pure\n        returns (bytes32)\n    {\n        return hashToSign(hashListing(listing));\n    }\n\n    function hashOrderToSign(Order memory order)\n        internal\n        pure\n        returns (bytes32)\n    {\n        return hashToSign(hashOrder(order));\n    }\n\n    function requireValidListing(Listing memory listing, Sig memory sig)\n        internal\n        view\n        returns (bytes32 hash)\n    {\n        require(validateListing(hash = hashListingToSign(listing), listing, sig), \"Invalid listing\");\n    }\n\n    function requireValidOrder(Order memory order, Sig memory orderSig, Sig memory listingSig)\n        internal\n        view\n        returns (bytes32 hash)\n    {\n        require(validateListing(hashListingToSign(order.listing), order.listing, listingSig), \"Invalid listing\");\n        require(validateOrder(hash = hashOrderToSign(order), order, orderSig), \"Invalid order\");\n    }\n\n    function calculateTotalFromPercentage(uint256 total, uint256 percentage) pure internal returns(uint256) {\n        return (total * percentage) / INVERSE_BASIS_POINT;\n    }\n}\n",
  "sourcePath": "/home/gustavo/dagora/contracts/marketplace/Dagora.sol",
  "compiler": {
    "name": "solc",
    "version": "0.6.8+commit.0bbfe453.Emscripten.clang"
  },
  "schemaVersion": "3.2.0",
  "updatedAt": "2020-06-04T04:37:56.705Z",
  "devdoc": {
    "methods": {
      "appeal(bytes32)": {
        "details": "Appeal an appealable ruling. UNTRUSTED. Transfer the funds to the arbitrator. Note that no checks are required as the checks are done by the arbitrator.",
        "params": {
          "_hash": "The hash of the order."
        }
      },
      "owner()": {
        "details": "Returns the address of the current owner."
      },
      "renounceOwnership()": {
        "details": "Leaves the contract without owner. It will not be possible to call `onlyOwner` functions anymore. Can only be called by the current owner.     * NOTE: Renouncing ownership will leave the contract without an owner, thereby removing any functionality that is only available to the owner."
      },
      "submitEvidence(bytes32,string)": {
        "details": "Submit a reference to evidence. EVENT.",
        "params": {
          "_evidence": "A link to an evidence using its URI.",
          "_hash": "The hash of the order."
        }
      },
      "transferOwnership(address)": {
        "details": "Transfers ownership of the contract to a new account (`newOwner`). Can only be called by the current owner."
      }
    }
  },
  "userdoc": {
    "methods": {}
  }
}