{
  "contractName": "Dagora",
  "abi": [
    {
      "inputs": [
        {
          "internalType": "address",
          "name": "_arbitrator",
          "type": "address"
        },
        {
          "internalType": "address",
          "name": "_token",
          "type": "address"
        },
        {
          "internalType": "address",
          "name": "_protocolFeeRecipient",
          "type": "address"
        },
        {
          "internalType": "uint256",
          "name": "_feeTimeout",
          "type": "uint256"
        },
        {
          "internalType": "uint256",
          "name": "_protocolFeePercentage",
          "type": "uint256"
        },
        {
          "internalType": "uint256",
          "name": "_tokenOwnerFeePercentage",
          "type": "uint256"
        },
        {
          "internalType": "bytes",
          "name": "_reportExtraData",
          "type": "bytes"
        },
        {
          "internalType": "bytes",
          "name": "_orderExtraData",
          "type": "bytes"
        },
        {
          "internalType": "string",
          "name": "_ipfsDomain",
          "type": "string"
        }
      ],
      "stateMutability": "nonpayable",
      "type": "constructor"
    },
    {
      "anonymous": false,
      "inputs": [
        {
          "indexed": true,
          "internalType": "contract Arbitrator",
          "name": "_arbitrator",
          "type": "address"
        },
        {
          "indexed": true,
          "internalType": "uint256",
          "name": "_disputeID",
          "type": "uint256"
        },
        {
          "indexed": false,
          "internalType": "uint256",
          "name": "_metaEvidenceID",
          "type": "uint256"
        },
        {
          "indexed": false,
          "internalType": "uint256",
          "name": "_evidenceGroupID",
          "type": "uint256"
        }
      ],
      "name": "Dispute",
      "type": "event"
    },
    {
      "anonymous": false,
      "inputs": [
        {
          "indexed": true,
          "internalType": "contract Arbitrator",
          "name": "_arbitrator",
          "type": "address"
        },
        {
          "indexed": true,
          "internalType": "uint256",
          "name": "_evidenceGroupID",
          "type": "uint256"
        },
        {
          "indexed": true,
          "internalType": "address",
          "name": "_party",
          "type": "address"
        },
        {
          "indexed": false,
          "internalType": "string",
          "name": "_evidence",
          "type": "string"
        }
      ],
      "name": "Evidence",
      "type": "event"
    },
    {
      "anonymous": false,
      "inputs": [
        {
          "indexed": true,
          "internalType": "bytes32",
          "name": "_hash",
          "type": "bytes32"
        },
        {
          "indexed": false,
          "internalType": "enum Dagora.Party",
          "name": "_party",
          "type": "uint8"
        }
      ],
      "name": "HasToPayFee",
      "type": "event"
    },
    {
      "anonymous": false,
      "inputs": [
        {
          "indexed": true,
          "internalType": "bytes32",
          "name": "hash",
          "type": "bytes32"
        }
      ],
      "name": "ListingApproved",
      "type": "event"
    },
    {
      "anonymous": false,
      "inputs": [
        {
          "indexed": true,
          "internalType": "bytes32",
          "name": "hash",
          "type": "bytes32"
        }
      ],
      "name": "ListingCancelled",
      "type": "event"
    },
    {
      "anonymous": false,
      "inputs": [
        {
          "indexed": true,
          "internalType": "uint256",
          "name": "_metaEvidenceID",
          "type": "uint256"
        },
        {
          "indexed": false,
          "internalType": "string",
          "name": "_evidence",
          "type": "string"
        }
      ],
      "name": "MetaEvidence",
      "type": "event"
    },
    {
      "anonymous": false,
      "inputs": [
        {
          "indexed": true,
          "internalType": "bytes32",
          "name": "hash",
          "type": "bytes32"
        }
      ],
      "name": "OrderApproved",
      "type": "event"
    },
    {
      "anonymous": false,
      "inputs": [
        {
          "indexed": true,
          "internalType": "bytes32",
          "name": "hash",
          "type": "bytes32"
        }
      ],
      "name": "OrderCancelled",
      "type": "event"
    },
    {
      "anonymous": false,
      "inputs": [
        {
          "indexed": true,
          "internalType": "address",
          "name": "previousOwner",
          "type": "address"
        },
        {
          "indexed": true,
          "internalType": "address",
          "name": "newOwner",
          "type": "address"
        }
      ],
      "name": "OwnershipTransferred",
      "type": "event"
    },
    {
      "anonymous": false,
      "inputs": [
        {
          "indexed": true,
          "internalType": "contract Arbitrator",
          "name": "_arbitrator",
          "type": "address"
        },
        {
          "indexed": true,
          "internalType": "uint256",
          "name": "_disputeID",
          "type": "uint256"
        },
        {
          "indexed": false,
          "internalType": "uint256",
          "name": "_ruling",
          "type": "uint256"
        }
      ],
      "name": "Ruling",
      "type": "event"
    },
    {
      "anonymous": false,
      "inputs": [
        {
          "indexed": true,
          "internalType": "address",
          "name": "sender",
          "type": "address"
        },
        {
          "indexed": false,
          "internalType": "uint256",
          "name": "value",
          "type": "uint256"
        }
      ],
      "name": "TokenDeposited",
      "type": "event"
    },
    {
      "anonymous": false,
      "inputs": [
        {
          "indexed": true,
          "internalType": "address",
          "name": "addr",
          "type": "address"
        }
      ],
      "name": "TokenGranted",
      "type": "event"
    },
    {
      "anonymous": false,
      "inputs": [
        {
          "indexed": true,
          "internalType": "address",
          "name": "addr",
          "type": "address"
        }
      ],
      "name": "TokenRevoked",
      "type": "event"
    },
    {
      "anonymous": false,
      "inputs": [
        {
          "indexed": true,
          "internalType": "address",
          "name": "sender",
          "type": "address"
        },
        {
          "indexed": false,
          "internalType": "uint256",
          "name": "value",
          "type": "uint256"
        }
      ],
      "name": "TokenWithdrawed",
      "type": "event"
    },
    {
      "anonymous": false,
      "inputs": [
        {
          "indexed": true,
          "internalType": "bytes32",
          "name": "hash",
          "type": "bytes32"
        },
        {
          "indexed": true,
          "internalType": "address",
          "name": "buyer",
          "type": "address"
        },
        {
          "indexed": true,
          "internalType": "address",
          "name": "seller",
          "type": "address"
        },
        {
          "indexed": false,
          "internalType": "address",
          "name": "stakeOwner",
          "type": "address"
        },
        {
          "indexed": false,
          "internalType": "address",
          "name": "commissioner",
          "type": "address"
        },
        {
          "indexed": false,
          "internalType": "contract ERC20",
          "name": "token",
          "type": "address"
        },
        {
          "indexed": false,
          "internalType": "uint256",
          "name": "total",
          "type": "uint256"
        },
        {
          "indexed": false,
          "internalType": "uint256",
          "name": "commissionPercentage",
          "type": "uint256"
        },
        {
          "indexed": false,
          "internalType": "uint256",
          "name": "cashbackPercentage",
          "type": "uint256"
        },
        {
          "indexed": false,
          "internalType": "uint256",
          "name": "confirmationTimeout",
          "type": "uint256"
        }
      ],
      "name": "TransactionCreated",
      "type": "event"
    },
    {
      "anonymous": false,
      "inputs": [
        {
          "indexed": true,
          "internalType": "bytes32",
          "name": "hash",
          "type": "bytes32"
        }
      ],
      "name": "TransactionFinalized",
      "type": "event"
    },
    {
      "anonymous": false,
      "inputs": [
        {
          "indexed": true,
          "internalType": "bytes32",
          "name": "hash",
          "type": "bytes32"
        },
        {
          "indexed": false,
          "internalType": "uint256",
          "name": "value",
          "type": "uint256"
        }
      ],
      "name": "TransactionRefunded",
      "type": "event"
    },
    {
      "anonymous": false,
      "inputs": [
        {
          "indexed": true,
          "internalType": "bytes32",
          "name": "hash",
          "type": "bytes32"
        }
      ],
      "name": "WarrantyClaimed",
      "type": "event"
    },
    {
      "inputs": [],
      "name": "INVERSE_BASIS_POINT",
      "outputs": [
        {
          "internalType": "uint256",
          "name": "",
          "type": "uint256"
        }
      ],
      "stateMutability": "view",
      "type": "function"
    },
    {
      "inputs": [
        {
          "internalType": "bytes32",
          "name": "",
          "type": "bytes32"
        }
      ],
      "name": "approvedHashes",
      "outputs": [
        {
          "internalType": "bool",
          "name": "",
          "type": "bool"
        }
      ],
      "stateMutability": "view",
      "type": "function"
    },
    {
      "inputs": [],
      "name": "arbitrator",
      "outputs": [
        {
          "internalType": "contract Arbitrator",
          "name": "",
          "type": "address"
        }
      ],
      "stateMutability": "view",
      "type": "function"
    },
    {
      "inputs": [
        {
          "internalType": "bytes32",
          "name": "",
          "type": "bytes32"
        }
      ],
      "name": "cancelledOrFinalized",
      "outputs": [
        {
          "internalType": "bool",
          "name": "",
          "type": "bool"
        }
      ],
      "stateMutability": "view",
      "type": "function"
    },
    {
      "inputs": [
        {
          "internalType": "address",
          "name": "",
          "type": "address"
        }
      ],
      "name": "contracts",
      "outputs": [
        {
          "internalType": "bool",
          "name": "",
          "type": "bool"
        }
      ],
      "stateMutability": "view",
      "type": "function"
    },
    {
      "inputs": [
        {
          "internalType": "uint256",
          "name": "",
          "type": "uint256"
        }
      ],
      "name": "disputeIDtoHash",
      "outputs": [
        {
          "internalType": "bytes32",
          "name": "",
          "type": "bytes32"
        }
      ],
      "stateMutability": "view",
      "type": "function"
    },
    {
      "inputs": [
        {
          "internalType": "bytes32",
          "name": "",
          "type": "bytes32"
        }
      ],
      "name": "disputes",
      "outputs": [
        {
          "internalType": "address payable",
          "name": "prosecution",
          "type": "address"
        },
        {
          "internalType": "address payable",
          "name": "defendant",
          "type": "address"
        },
        {
          "internalType": "uint256",
          "name": "amount",
          "type": "uint256"
        },
        {
          "internalType": "contract ERC20",
          "name": "token",
          "type": "address"
        },
        {
          "internalType": "uint256",
          "name": "prosecutionFee",
          "type": "uint256"
        },
        {
          "internalType": "uint256",
          "name": "defendantFee",
          "type": "uint256"
        },
        {
          "internalType": "enum Dagora.DisputeType",
          "name": "disputeType",
          "type": "uint8"
        },
        {
          "internalType": "uint256",
          "name": "lastInteraction",
          "type": "uint256"
        },
        {
          "internalType": "uint256",
          "name": "metaEvidenceId",
          "type": "uint256"
        },
        {
          "internalType": "uint256",
          "name": "disputeId",
          "type": "uint256"
        },
        {
          "internalType": "enum Dagora.DisputeStatus",
          "name": "status",
          "type": "uint8"
        }
      ],
      "stateMutability": "view",
      "type": "function"
    },
    {
      "inputs": [],
      "name": "feeTimeout",
      "outputs": [
        {
          "internalType": "uint256",
          "name": "",
          "type": "uint256"
        }
      ],
      "stateMutability": "view",
      "type": "function"
    },
    {
      "inputs": [],
      "name": "ipfsDomain",
      "outputs": [
        {
          "internalType": "string",
          "name": "",
          "type": "string"
        }
      ],
      "stateMutability": "view",
      "type": "function"
    },
    {
      "inputs": [],
      "name": "marketToken",
      "outputs": [
        {
          "internalType": "contract ERC20Burnable",
          "name": "",
          "type": "address"
        }
      ],
      "stateMutability": "view",
      "type": "function"
    },
    {
      "inputs": [],
      "name": "metaEvidenceCount",
      "outputs": [
        {
          "internalType": "uint256",
          "name": "",
          "type": "uint256"
        }
      ],
      "stateMutability": "view",
      "type": "function"
    },
    {
      "inputs": [],
      "name": "orderExtraData",
      "outputs": [
        {
          "internalType": "bytes",
          "name": "",
          "type": "bytes"
        }
      ],
      "stateMutability": "view",
      "type": "function"
    },
    {
      "inputs": [],
      "name": "owner",
      "outputs": [
        {
          "internalType": "address",
          "name": "",
          "type": "address"
        }
      ],
      "stateMutability": "view",
      "type": "function"
    },
    {
      "inputs": [],
      "name": "renounceOwnership",
      "outputs": [],
      "stateMutability": "nonpayable",
      "type": "function"
    },
    {
      "inputs": [],
      "name": "reportExtraData",
      "outputs": [
        {
          "internalType": "bytes",
          "name": "",
          "type": "bytes"
        }
      ],
      "stateMutability": "view",
      "type": "function"
    },
    {
      "inputs": [
        {
          "internalType": "address",
          "name": "",
          "type": "address"
        }
      ],
      "name": "sellers",
      "outputs": [
        {
          "internalType": "uint256",
          "name": "balance",
          "type": "uint256"
        },
        {
          "internalType": "uint256",
          "name": "lockedTokens",
          "type": "uint256"
        }
      ],
      "stateMutability": "view",
      "type": "function"
    },
    {
      "inputs": [
        {
          "internalType": "bytes32",
          "name": "",
          "type": "bytes32"
        }
      ],
      "name": "transactions",
      "outputs": [
        {
          "internalType": "uint256",
          "name": "lastStatusUpdate",
          "type": "uint256"
        },
        {
          "internalType": "uint256",
          "name": "refund",
          "type": "uint256"
        },
        {
          "internalType": "enum Dagora.Status",
          "name": "status",
          "type": "uint8"
        }
      ],
      "stateMutability": "view",
      "type": "function"
    },
    {
      "inputs": [
        {
          "internalType": "address",
          "name": "newOwner",
          "type": "address"
        }
      ],
      "name": "transferOwnership",
      "outputs": [],
      "stateMutability": "nonpayable",
      "type": "function"
    },
    {
      "inputs": [
        {
          "internalType": "address",
          "name": "addr",
          "type": "address"
        }
      ],
      "name": "grantAuthentication",
      "outputs": [],
      "stateMutability": "nonpayable",
      "type": "function"
    },
    {
      "inputs": [
        {
          "internalType": "address",
          "name": "addr",
          "type": "address"
        }
      ],
      "name": "revokeAuthentication",
      "outputs": [],
      "stateMutability": "nonpayable",
      "type": "function"
    },
    {
      "inputs": [
        {
          "internalType": "uint256",
          "name": "value",
          "type": "uint256"
        }
      ],
      "name": "depositTokens",
      "outputs": [],
      "stateMutability": "nonpayable",
      "type": "function"
    },
    {
      "inputs": [
        {
          "internalType": "uint256",
          "name": "value",
          "type": "uint256"
        }
      ],
      "name": "withdrawTokens",
      "outputs": [],
      "stateMutability": "nonpayable",
      "type": "function"
    },
    {
      "inputs": [
        {
          "components": [
            {
              "internalType": "bytes32",
              "name": "ipfsHash",
              "type": "bytes32"
            },
            {
              "internalType": "address payable",
              "name": "seller",
              "type": "address"
            },
            {
              "internalType": "address payable",
              "name": "stakeOwner",
              "type": "address"
            },
            {
              "internalType": "uint256",
              "name": "stakedAmount",
              "type": "uint256"
            },
            {
              "internalType": "uint256",
              "name": "commissionPercentage",
              "type": "uint256"
            },
            {
              "internalType": "uint256",
              "name": "warranty",
              "type": "uint256"
            },
            {
              "internalType": "uint256",
              "name": "cashbackPercentage",
              "type": "uint256"
            },
            {
              "internalType": "uint256",
              "name": "expiration",
              "type": "uint256"
            }
          ],
          "internalType": "struct Dagora.Listing",
          "name": "_listing",
          "type": "tuple"
        }
      ],
      "name": "approveListing",
      "outputs": [
        {
          "internalType": "bool",
          "name": "",
          "type": "bool"
        }
      ],
      "stateMutability": "nonpayable",
      "type": "function"
    },
    {
      "inputs": [
        {
          "components": [
            {
              "internalType": "bytes32",
              "name": "listingHash",
              "type": "bytes32"
            },
            {
              "internalType": "address payable",
              "name": "buyer",
              "type": "address"
            },
            {
              "internalType": "address payable",
              "name": "commissioner",
              "type": "address"
            },
            {
              "internalType": "contract ERC20",
              "name": "token",
              "type": "address"
            },
            {
              "internalType": "uint256",
              "name": "total",
              "type": "uint256"
            },
            {
              "internalType": "uint256",
              "name": "shippingCost",
              "type": "uint256"
            },
            {
              "internalType": "uint256",
              "name": "expiration",
              "type": "uint256"
            },
            {
              "internalType": "uint256",
              "name": "confirmationTimeout",
              "type": "uint256"
            }
          ],
          "internalType": "struct Dagora.Order",
          "name": "order",
          "type": "tuple"
        }
      ],
      "name": "approveOrder",
      "outputs": [
        {
          "internalType": "bool",
          "name": "",
          "type": "bool"
        }
      ],
      "stateMutability": "nonpayable",
      "type": "function"
    },
    {
      "inputs": [
        {
          "components": [
            {
              "internalType": "bytes32",
              "name": "listingHash",
              "type": "bytes32"
            },
            {
              "internalType": "address payable",
              "name": "buyer",
              "type": "address"
            },
            {
              "internalType": "address payable",
              "name": "commissioner",
              "type": "address"
            },
            {
              "internalType": "contract ERC20",
              "name": "token",
              "type": "address"
            },
            {
              "internalType": "uint256",
              "name": "total",
              "type": "uint256"
            },
            {
              "internalType": "uint256",
              "name": "shippingCost",
              "type": "uint256"
            },
            {
              "internalType": "uint256",
              "name": "expiration",
              "type": "uint256"
            },
            {
              "internalType": "uint256",
              "name": "confirmationTimeout",
              "type": "uint256"
            }
          ],
          "internalType": "struct Dagora.Order",
          "name": "_order",
          "type": "tuple"
        },
        {
          "components": [
            {
              "internalType": "uint8",
              "name": "v",
              "type": "uint8"
            },
            {
              "internalType": "bytes32",
              "name": "r",
              "type": "bytes32"
            },
            {
              "internalType": "bytes32",
              "name": "s",
              "type": "bytes32"
            }
          ],
          "internalType": "struct Dagora.Sig",
          "name": "orderSig",
          "type": "tuple"
        },
        {
          "components": [
            {
              "internalType": "bytes32",
              "name": "ipfsHash",
              "type": "bytes32"
            },
            {
              "internalType": "address payable",
              "name": "seller",
              "type": "address"
            },
            {
              "internalType": "address payable",
              "name": "stakeOwner",
              "type": "address"
            },
            {
              "internalType": "uint256",
              "name": "stakedAmount",
              "type": "uint256"
            },
            {
              "internalType": "uint256",
              "name": "commissionPercentage",
              "type": "uint256"
            },
            {
              "internalType": "uint256",
              "name": "warranty",
              "type": "uint256"
            },
            {
              "internalType": "uint256",
              "name": "cashbackPercentage",
              "type": "uint256"
            },
            {
              "internalType": "uint256",
              "name": "expiration",
              "type": "uint256"
            }
          ],
          "internalType": "struct Dagora.Listing",
          "name": "_listing",
          "type": "tuple"
        },
        {
          "components": [
            {
              "internalType": "uint8",
              "name": "v",
              "type": "uint8"
            },
            {
              "internalType": "bytes32",
              "name": "r",
              "type": "bytes32"
            },
            {
              "internalType": "bytes32",
              "name": "s",
              "type": "bytes32"
            }
          ],
          "internalType": "struct Dagora.Sig",
          "name": "listingSig",
          "type": "tuple"
        }
      ],
      "name": "createTransaction",
      "outputs": [
        {
          "internalType": "bytes32",
          "name": "hash",
          "type": "bytes32"
        }
      ],
      "stateMutability": "nonpayable",
      "type": "function"
    },
    {
      "inputs": [
        {
          "components": [
            {
              "internalType": "bytes32",
              "name": "listingHash",
              "type": "bytes32"
            },
            {
              "internalType": "address payable",
              "name": "buyer",
              "type": "address"
            },
            {
              "internalType": "address payable",
              "name": "commissioner",
              "type": "address"
            },
            {
              "internalType": "contract ERC20",
              "name": "token",
              "type": "address"
            },
            {
              "internalType": "uint256",
              "name": "total",
              "type": "uint256"
            },
            {
              "internalType": "uint256",
              "name": "shippingCost",
              "type": "uint256"
            },
            {
              "internalType": "uint256",
              "name": "expiration",
              "type": "uint256"
            },
            {
              "internalType": "uint256",
              "name": "confirmationTimeout",
              "type": "uint256"
            }
          ],
          "internalType": "struct Dagora.Order",
          "name": "_order",
          "type": "tuple"
        },
        {
          "components": [
            {
              "internalType": "bytes32",
              "name": "ipfsHash",
              "type": "bytes32"
            },
            {
              "internalType": "address payable",
              "name": "seller",
              "type": "address"
            },
            {
              "internalType": "address payable",
              "name": "stakeOwner",
              "type": "address"
            },
            {
              "internalType": "uint256",
              "name": "stakedAmount",
              "type": "uint256"
            },
            {
              "internalType": "uint256",
              "name": "commissionPercentage",
              "type": "uint256"
            },
            {
              "internalType": "uint256",
              "name": "warranty",
              "type": "uint256"
            },
            {
              "internalType": "uint256",
              "name": "cashbackPercentage",
              "type": "uint256"
            },
            {
              "internalType": "uint256",
              "name": "expiration",
              "type": "uint256"
            }
          ],
          "internalType": "struct Dagora.Listing",
          "name": "_listing",
          "type": "tuple"
        }
      ],
      "name": "conrfirmReceipt",
      "outputs": [],
      "stateMutability": "nonpayable",
      "type": "function"
    },
    {
      "inputs": [
        {
          "components": [
            {
              "internalType": "bytes32",
              "name": "listingHash",
              "type": "bytes32"
            },
            {
              "internalType": "address payable",
              "name": "buyer",
              "type": "address"
            },
            {
              "internalType": "address payable",
              "name": "commissioner",
              "type": "address"
            },
            {
              "internalType": "contract ERC20",
              "name": "token",
              "type": "address"
            },
            {
              "internalType": "uint256",
              "name": "total",
              "type": "uint256"
            },
            {
              "internalType": "uint256",
              "name": "shippingCost",
              "type": "uint256"
            },
            {
              "internalType": "uint256",
              "name": "expiration",
              "type": "uint256"
            },
            {
              "internalType": "uint256",
              "name": "confirmationTimeout",
              "type": "uint256"
            }
          ],
          "internalType": "struct Dagora.Order",
          "name": "_order",
          "type": "tuple"
        },
        {
          "components": [
            {
              "internalType": "bytes32",
              "name": "ipfsHash",
              "type": "bytes32"
            },
            {
              "internalType": "address payable",
              "name": "seller",
              "type": "address"
            },
            {
              "internalType": "address payable",
              "name": "stakeOwner",
              "type": "address"
            },
            {
              "internalType": "uint256",
              "name": "stakedAmount",
              "type": "uint256"
            },
            {
              "internalType": "uint256",
              "name": "commissionPercentage",
              "type": "uint256"
            },
            {
              "internalType": "uint256",
              "name": "warranty",
              "type": "uint256"
            },
            {
              "internalType": "uint256",
              "name": "cashbackPercentage",
              "type": "uint256"
            },
            {
              "internalType": "uint256",
              "name": "expiration",
              "type": "uint256"
            }
          ],
          "internalType": "struct Dagora.Listing",
          "name": "_listing",
          "type": "tuple"
        }
      ],
      "name": "executeTransaction",
      "outputs": [],
      "stateMutability": "nonpayable",
      "type": "function"
    },
    {
      "inputs": [
        {
          "components": [
            {
              "internalType": "bytes32",
              "name": "listingHash",
              "type": "bytes32"
            },
            {
              "internalType": "address payable",
              "name": "buyer",
              "type": "address"
            },
            {
              "internalType": "address payable",
              "name": "commissioner",
              "type": "address"
            },
            {
              "internalType": "contract ERC20",
              "name": "token",
              "type": "address"
            },
            {
              "internalType": "uint256",
              "name": "total",
              "type": "uint256"
            },
            {
              "internalType": "uint256",
              "name": "shippingCost",
              "type": "uint256"
            },
            {
              "internalType": "uint256",
              "name": "expiration",
              "type": "uint256"
            },
            {
              "internalType": "uint256",
              "name": "confirmationTimeout",
              "type": "uint256"
            }
          ],
          "internalType": "struct Dagora.Order",
          "name": "_order",
          "type": "tuple"
        },
        {
          "components": [
            {
              "internalType": "bytes32",
              "name": "ipfsHash",
              "type": "bytes32"
            },
            {
              "internalType": "address payable",
              "name": "seller",
              "type": "address"
            },
            {
              "internalType": "address payable",
              "name": "stakeOwner",
              "type": "address"
            },
            {
              "internalType": "uint256",
              "name": "stakedAmount",
              "type": "uint256"
            },
            {
              "internalType": "uint256",
              "name": "commissionPercentage",
              "type": "uint256"
            },
            {
              "internalType": "uint256",
              "name": "warranty",
              "type": "uint256"
            },
            {
              "internalType": "uint256",
              "name": "cashbackPercentage",
              "type": "uint256"
            },
            {
              "internalType": "uint256",
              "name": "expiration",
              "type": "uint256"
            }
          ],
          "internalType": "struct Dagora.Listing",
          "name": "_listing",
          "type": "tuple"
        }
      ],
      "name": "claimWarranty",
      "outputs": [],
      "stateMutability": "nonpayable",
      "type": "function"
    },
    {
      "inputs": [
        {
          "components": [
            {
              "internalType": "bytes32",
              "name": "listingHash",
              "type": "bytes32"
            },
            {
              "internalType": "address payable",
              "name": "buyer",
              "type": "address"
            },
            {
              "internalType": "address payable",
              "name": "commissioner",
              "type": "address"
            },
            {
              "internalType": "contract ERC20",
              "name": "token",
              "type": "address"
            },
            {
              "internalType": "uint256",
              "name": "total",
              "type": "uint256"
            },
            {
              "internalType": "uint256",
              "name": "shippingCost",
              "type": "uint256"
            },
            {
              "internalType": "uint256",
              "name": "expiration",
              "type": "uint256"
            },
            {
              "internalType": "uint256",
              "name": "confirmationTimeout",
              "type": "uint256"
            }
          ],
          "internalType": "struct Dagora.Order",
          "name": "_order",
          "type": "tuple"
        },
        {
          "components": [
            {
              "internalType": "bytes32",
              "name": "ipfsHash",
              "type": "bytes32"
            },
            {
              "internalType": "address payable",
              "name": "seller",
              "type": "address"
            },
            {
              "internalType": "address payable",
              "name": "stakeOwner",
              "type": "address"
            },
            {
              "internalType": "uint256",
              "name": "stakedAmount",
              "type": "uint256"
            },
            {
              "internalType": "uint256",
              "name": "commissionPercentage",
              "type": "uint256"
            },
            {
              "internalType": "uint256",
              "name": "warranty",
              "type": "uint256"
            },
            {
              "internalType": "uint256",
              "name": "cashbackPercentage",
              "type": "uint256"
            },
            {
              "internalType": "uint256",
              "name": "expiration",
              "type": "uint256"
            }
          ],
          "internalType": "struct Dagora.Listing",
          "name": "_listing",
          "type": "tuple"
        }
      ],
      "name": "disputeTransaction",
      "outputs": [
        {
          "internalType": "bytes32",
          "name": "hash",
          "type": "bytes32"
        }
      ],
      "stateMutability": "payable",
      "type": "function"
    },
    {
      "inputs": [
        {
          "components": [
            {
              "internalType": "bytes32",
              "name": "listingHash",
              "type": "bytes32"
            },
            {
              "internalType": "address payable",
              "name": "buyer",
              "type": "address"
            },
            {
              "internalType": "address payable",
              "name": "commissioner",
              "type": "address"
            },
            {
              "internalType": "contract ERC20",
              "name": "token",
              "type": "address"
            },
            {
              "internalType": "uint256",
              "name": "total",
              "type": "uint256"
            },
            {
              "internalType": "uint256",
              "name": "shippingCost",
              "type": "uint256"
            },
            {
              "internalType": "uint256",
              "name": "expiration",
              "type": "uint256"
            },
            {
              "internalType": "uint256",
              "name": "confirmationTimeout",
              "type": "uint256"
            }
          ],
          "internalType": "struct Dagora.Order",
          "name": "_order",
          "type": "tuple"
        },
        {
          "components": [
            {
              "internalType": "bytes32",
              "name": "ipfsHash",
              "type": "bytes32"
            },
            {
              "internalType": "address payable",
              "name": "seller",
              "type": "address"
            },
            {
              "internalType": "address payable",
              "name": "stakeOwner",
              "type": "address"
            },
            {
              "internalType": "uint256",
              "name": "stakedAmount",
              "type": "uint256"
            },
            {
              "internalType": "uint256",
              "name": "commissionPercentage",
              "type": "uint256"
            },
            {
              "internalType": "uint256",
              "name": "warranty",
              "type": "uint256"
            },
            {
              "internalType": "uint256",
              "name": "cashbackPercentage",
              "type": "uint256"
            },
            {
              "internalType": "uint256",
              "name": "expiration",
              "type": "uint256"
            }
          ],
          "internalType": "struct Dagora.Listing",
          "name": "_listing",
          "type": "tuple"
        },
        {
          "internalType": "uint256",
          "name": "refund",
          "type": "uint256"
        }
      ],
      "name": "updateRefund",
      "outputs": [],
      "stateMutability": "nonpayable",
      "type": "function"
    },
    {
      "inputs": [
        {
          "components": [
            {
              "internalType": "bytes32",
              "name": "ipfsHash",
              "type": "bytes32"
            },
            {
              "internalType": "address payable",
              "name": "seller",
              "type": "address"
            },
            {
              "internalType": "address payable",
              "name": "stakeOwner",
              "type": "address"
            },
            {
              "internalType": "uint256",
              "name": "stakedAmount",
              "type": "uint256"
            },
            {
              "internalType": "uint256",
              "name": "commissionPercentage",
              "type": "uint256"
            },
            {
              "internalType": "uint256",
              "name": "warranty",
              "type": "uint256"
            },
            {
              "internalType": "uint256",
              "name": "cashbackPercentage",
              "type": "uint256"
            },
            {
              "internalType": "uint256",
              "name": "expiration",
              "type": "uint256"
            }
          ],
          "internalType": "struct Dagora.Listing",
          "name": "_listing",
          "type": "tuple"
        },
        {
          "components": [
            {
              "internalType": "uint8",
              "name": "v",
              "type": "uint8"
            },
            {
              "internalType": "bytes32",
              "name": "r",
              "type": "bytes32"
            },
            {
              "internalType": "bytes32",
              "name": "s",
              "type": "bytes32"
            }
          ],
          "internalType": "struct Dagora.Sig",
          "name": "sig",
          "type": "tuple"
        }
      ],
      "name": "report",
      "outputs": [
        {
          "internalType": "bytes32",
          "name": "hash",
          "type": "bytes32"
        }
      ],
      "stateMutability": "payable",
      "type": "function"
    },
    {
      "inputs": [
        {
          "internalType": "bytes32",
          "name": "hash",
          "type": "bytes32"
        }
      ],
      "name": "disputeTimeout",
      "outputs": [],
      "stateMutability": "nonpayable",
      "type": "function"
    },
    {
      "inputs": [
        {
          "internalType": "bytes32",
          "name": "hash",
          "type": "bytes32"
        }
      ],
      "name": "payArbitrationFee",
      "outputs": [],
      "stateMutability": "payable",
      "type": "function"
    },
    {
      "inputs": [
        {
          "internalType": "bytes32",
          "name": "_hash",
          "type": "bytes32"
        },
        {
          "internalType": "string",
          "name": "_evidence",
          "type": "string"
        }
      ],
      "name": "submitEvidence",
      "outputs": [],
      "stateMutability": "nonpayable",
      "type": "function"
    },
    {
      "inputs": [
        {
          "internalType": "bytes32",
          "name": "_hash",
          "type": "bytes32"
        }
      ],
      "name": "appeal",
      "outputs": [],
      "stateMutability": "payable",
      "type": "function"
    },
    {
      "inputs": [
        {
          "internalType": "uint256",
          "name": "_disputeID",
          "type": "uint256"
        },
        {
          "internalType": "uint256",
          "name": "_ruling",
          "type": "uint256"
        }
      ],
      "name": "rule",
      "outputs": [],
      "stateMutability": "nonpayable",
      "type": "function"
    }
  ],
  "bytecode": "0x60806040523480156200001157600080fd5b5060405162004bd438038062004bd483398101604081905262000034916200029c565b6000620000496001600160e01b036200013016565b600080546001600160a01b0319166001600160a01b0383169081178255604051929350917f8be0079c531659141344cd1fd0a4f28419497f9722a3daafe3b4186f6b6457e0908290a350600780546001600160a01b03808c166001600160a01b031992831617909255600c80548b841690831617905560118054928a1692909116919091179055600a869055600f85905560108490558251620000f490600890602086019062000135565b5081516200010a90600990602085019062000135565b5080516200012090600e90602084019062000135565b5050505050505050505062000384565b335b90565b828054600181600116156101000203166002900490600052602060002090601f016020900481019282601f106200017857805160ff1916838001178555620001a8565b82800160010185558215620001a8579182015b82811115620001a85782518255916020019190600101906200018b565b50620001b6929150620001ba565b5090565b6200013291905b80821115620001b65760008155600101620001c1565b80516001600160a01b0381168114620001ef57600080fd5b92915050565b600082601f83011262000206578081fd5b81516001600160401b03808211156200021d578283fd5b6040516020601f8401601f19168201810183811183821017156200023f578586fd5b806040525081945083825286818588010111156200025c57600080fd5b600092505b8383101562000280578583018101518284018201529182019162000261565b83831115620002925760008185840101525b5050505092915050565b60008060008060008060008060006101208a8c031215620002bb578485fd5b620002c78b8b620001d7565b9850620002d88b60208c01620001d7565b9750620002e98b60408c01620001d7565b60608b015160808c015160a08d015160c08e0151939a50919850965094506001600160401b03808211156200031c578485fd5b6200032a8d838e01620001f5565b945060e08c015191508082111562000340578384fd5b6200034e8d838e01620001f5565b93506101008c015191508082111562000365578283fd5b50620003748c828d01620001f5565b9150509295985092959850929598565b61484080620003946000396000f3fe60806040526004361061020f5760003560e01c806387bd84cc11610118578063d1e07197116100a0578063ece1de441161006f578063ece1de44146105dd578063ee7269d7146105f0578063f2fde38b14610605578063f48a0b3114610625578063fbe4eb64146106455761020f565b8063d1e071971461055d578063d1fcfdb81461057d578063d88f10b01461059d578063dd49756e146105bd5761020f565b8063b329036b116100e7578063b329036b146104eb578063b639866714610500578063ba4bc76314610515578063be6a18ef14610535578063cae6047f146105485761020f565b806387bd84cc1461047f5780638da5cb5b1461049f578063a2031de4146104b4578063ad48d611146104d65761020f565b8063642f2eaf1161019b5780636d47ab721161016a5780636d47ab72146103e9578063715018a61461041757806372fc42131461042c5780638076f0051461044c57806382ad5f751461046c5761020f565b8063642f2eaf1461035857806369dc9ff3146103875780636b83a061146103a75780636cc6cde1146103c75761020f565b8063315a095d116101e2578063315a095d146102b657806347081b71146102d657806353376d1f146102f657806353a1173b146103165780635af79807146103435761020f565b806311be19971461021457806314a92c8d146102545780631b9eadb414610281578063311a6c5614610294575b600080fd5b34801561022057600080fd5b5061023461022f3660046137bc565b610665565b60405161024b9b9a99989796959493929190613c42565b60405180910390f35b34801561026057600080fd5b5061027461026f366004613944565b6106d2565b60405161024b9190613d05565b61027461028f3660046138d7565b6108ab565b3480156102a057600080fd5b506102b46102af3660046139b7565b610b57565b005b3480156102c257600080fd5b506102b46102d13660046137bc565b610c69565b3480156102e257600080fd5b506102b46102f13660046138d7565b610d82565b34801561030257600080fd5b506102b4610311366004613780565b610ea8565b34801561032257600080fd5b506103366103313660046138bb565b610f26565b60405161024b9190613cfa565b34801561034f57600080fd5b50610274610fe3565b34801561036457600080fd5b506103786103733660046137bc565b610fe9565b60405161024b93929190614704565b34801561039357600080fd5b506103366103a2366004613780565b61100d565b3480156103b357600080fd5b506103366103c2366004613869565b611022565b3480156103d357600080fd5b506103dc611112565b60405161024b9190613bed565b3480156103f557600080fd5b50610409610404366004613780565b611121565b60405161024b9291906146f6565b34801561042357600080fd5b506102b461113a565b34801561043857600080fd5b506102b46104473660046137bc565b6111b9565b34801561045857600080fd5b506103366104673660046137bc565b611376565b61027461047a366004613885565b61138b565b34801561048b57600080fd5b5061033661049a3660046137bc565b611626565b3480156104ab57600080fd5b506103dc61163b565b3480156104c057600080fd5b506104c961164a565b60405161024b9190613d2c565b3480156104e257600080fd5b506103dc6116d8565b3480156104f757600080fd5b506102746116e7565b34801561050c57600080fd5b506104c96116ed565b34801561052157600080fd5b506102746105303660046137bc565b611748565b6102b46105433660046137bc565b61175a565b34801561055457600080fd5b506102746119bb565b34801561056957600080fd5b506102b4610578366004613904565b6119c1565b34801561058957600080fd5b506102b4610598366004613780565b611b07565b3480156105a957600080fd5b506102b46105b83660046138d7565b611bae565b3480156105c957600080fd5b506102b46105d83660046137bc565b611d35565b6102b46105eb3660046137bc565b611e14565b3480156105fc57600080fd5b506104c9611ec3565b34801561061157600080fd5b506102b4610620366004613780565b611f1e565b34801561063157600080fd5b506102b46106403660046137d4565b611fd4565b34801561065157600080fd5b506102b46106603660046138d7565b6120d8565b600560208190526000918252604090912080546001820154600283015460038401546004850154958501546006860154600787015460088801546009890154600a909901546001600160a01b039889169a9789169996989095169695939460ff938416949293919291168b565b60006106de8383612275565b8551146107065760405162461bcd60e51b81526004016106fd90613ea0565b60405180910390fd5b61071085856122b3565b90506000808281526004602052604090206002015460ff16600581111561073357fe5b146107505760405162461bcd60e51b81526004016106fd9061451b565b60008560a00151866080015101905085606001516001600160a01b03166323b872dd876020015130846040518463ffffffff1660e01b815260040161079793929190613cbd565b602060405180830381600087803b1580156107b157600080fd5b505af11580156107c5573d6000803e3d6000fd5b505050506040513d601f19601f820116820180604052508101906107e9919061379c565b6108055760405162461bcd60e51b81526004016106fd90614592565b600082815260046020526040902042815560020180546001919060ff19168280021790555083602001516001600160a01b031686602001516001600160a01b0316837fe419a7cfec7b19a58f8ef66dbf85dd08b396bafa0e2f94b3181fd3d047cb748187604001518a604001518b60600151878b608001518c60c001518f60e0015160405161089a9796959493929190613c01565b60405180910390a450949350505050565b60006108b6826122e8565b8351146108d55760405162461bcd60e51b81526004016106fd90613ea0565b6108de836122fb565b60008181526004602052604090209091506001600282015460ff16600581111561090457fe5b148061092257506003600282015460ff16600581111561092057fe5b145b61093e5760405162461bcd60e51b81526004016106fd90613fe1565b8360e00151620151800281600001540142111561096d5760405162461bcd60e51b81526004016106fd90614328565b60075460405163f7434ea960e01b81526000916001600160a01b03169063f7434ea99061099f90600890600401613d3f565b60206040518083038186803b1580156109b757600080fd5b505afa1580156109cb573d6000803e3d6000fd5b505050506040513d601f19601f820116820180604052508101906109ef919061399f565b905080341015610a115760405162461bcd60e51b81526004016106fd906143e3565b6000806001600285015460ff166005811115610a2957fe5b1415610a755786602001516001600160a01b0316336001600160a01b031614610a645760405162461bcd60e51b81526004016106fd90614152565b505060208086015190850151610ab7565b85602001516001600160a01b0316336001600160a01b031614610aaa5760405162461bcd60e51b81526004016106fd90614189565b5050602080860151908501515b6002848101805460ff1916600417905542855560808801516060890151600092610aea9289928792879291903490612309565b905080600801547f61606860eb6c87306811e2695215385101daab53bd6ab4e9f9049aead9363c7d600e8960000151604051602001610b2a929190613b44565b60408051601f1981840301815290829052610b4491613d2c565b60405180910390a2505050505092915050565b60008281526006602090815260408083205480845260059092529091206007546001600160a01b03163314610b9e5760405162461bcd60e51b81526004016106fd90614550565b6003600a82015460ff166004811115610bb357fe5b14610bd05760405162461bcd60e51b81526004016106fd90613dde565b83336001600160a01b03167f394027a5fa6e098a1191094d1719d6929b9abc535fcc0c8f448d6a4e7562227685604051610c0a9190613d05565b60405180910390a36001600682015460ff166002811115610c2757fe5b1415610c3c57610c378184612418565b610c63565b610c468184612760565b6000828152600460205260409020600201805460ff191660051790555b50505050565b33600090815260016020819052604090912090810154815403821115610ca15760405162461bcd60e51b81526004016106fd90613d66565b600c546040516323b872dd60e01b81526001600160a01b03909116906323b872dd90610cd590339030908790600401613cbd565b602060405180830381600087803b158015610cef57600080fd5b505af1158015610d03573d6000803e3d6000fd5b505050506040513d601f19601f82011682018060405250810190610d27919061379c565b610d3057600080fd5b336000818152600160205260409081902080548590039055517f05e8d4927d2e9cff8a7d6f1c0c3b0fdd4d7299da00fe4911745bda49a5834e6790610d76908590613d05565b60405180910390a25050565b610d8b816122e8565b825114610daa5760405162461bcd60e51b81526004016106fd90613ea0565b6000610db5836122fb565b600081815260046020526040902090915060028082015460ff166005811115610dda57fe5b14610df75760405162461bcd60e51b81526004016106fd90613fe1565b83602001516001600160a01b0316336001600160a01b031614610e2c5760405162461bcd60e51b81526004016106fd906144f0565b8260a001516201518002816000015401421115610e5b5760405162461bcd60e51b81526004016106fd90613faa565b60028101805460ff191660031790556080840151600182015542815560405182907f99e77d4092287badf5165a76eb7add37ec282650747091906c6a02e0cd4f5b3d90600090a250505050565b610eb0612b9d565b6000546001600160a01b03908116911614610edd5760405162461bcd60e51b81526004016106fd90614242565b6001600160a01b0381166000818152600b6020526040808220805460ff19169055517f45f62f30e7b8439e0da7d8e560fe39d01238091ce9e789e3d12b514edf98acea9190a250565b600081602001516001600160a01b0316336001600160a01b031614610f5d5760405162461bcd60e51b81526004016106fd90614277565b6000610f68836122fb565b60008181526003602052604090205490915060ff1615610f9a5760405162461bcd60e51b81526004016106fd90613e24565b600081815260036020526040808220805460ff191660011790555182917f0bed755d9d22259660bf623a395b620bbff2af67319e990b538dc8603bdc3e5f91a250600192915050565b600d5481565b60046020526000908152604090208054600182015460029092015490919060ff1683565b600b6020526000908152604090205460ff1681565b600081604001516001600160a01b0316336001600160a01b0316146110595760405162461bcd60e51b81526004016106fd9061435d565b606082015133600090815260016020526040902054101561108c5760405162461bcd60e51b81526004016106fd90614090565b6000611097836122e8565b60008181526003602052604090205490915060ff16156110c95760405162461bcd60e51b81526004016106fd90613e24565b600081815260036020526040808220805460ff191660011790555182917f4e58c75167b3bff3ab3949a55f72203f341f94cca1c2c0c84370731b2b4c201791a250600192915050565b6007546001600160a01b031681565b6001602081905260009182526040909120805491015482565b611142612b9d565b6000546001600160a01b0390811691161461116f5760405162461bcd60e51b81526004016106fd90614242565b600080546040516001600160a01b03909116907f8be0079c531659141344cd1fd0a4f28419497f9722a3daafe3b4186f6b6457e0908390a3600080546001600160a01b0319169055565b6000818152600560205260409020600a81015460ff1660048111156111da57fe5b60001080156111fb57506003600a82015460ff1660048111156111f957fe5b105b6112175760405162461bcd60e51b81526004016106fd906140c7565b600a5481600701544203101561123f5760405162461bcd60e51b81526004016106fd90613f15565b600081600401546000146112bd57600482018054600090915582546040516001600160a01b0390911690829061127490613bea565b60006040518083038185875af1925050503d80600081146112b1576040519150601f19603f3d011682016040523d82523d6000602084013e6112b6565b606091505b5090925050505b60058201541561133a57600582018054600090915560018301546040516001600160a01b039091169082906112f190613bea565b60006040518083038185875af1925050503d806000811461132e576040519150601f19603f3d011682016040523d82523d6000602084013e611333565b606091505b5090925050505b6002600a83015460ff16600481111561134f57fe5b1415611366576113618260015b612418565b611371565b61137182600261135c565b505050565b60026020526000908152604090205460ff1681565b60006113978383612275565b9050600080828152600560205260409020600a015460ff1660048111156113ba57fe5b146113d75760405162461bcd60e51b81526004016106fd90614201565b82604001516001600160a01b0316336001600160a01b0316141561140d5760405162461bcd60e51b81526004016106fd90614687565b60075460405163f7434ea960e01b81526000916001600160a01b03169063f7434ea99061143f90600890600401613d3f565b60206040518083038186803b15801561145757600080fd5b505afa15801561146b573d6000803e3d6000fd5b505050506040513d601f19601f8201168201806040525081019061148f919061399f565b9050803410156114b15760405162461bcd60e51b81526004016106fd906143e3565b33600090815260016020819052604090912090810154815460608701519190039081101561159257600c5460608701516040516323b872dd60e01b81526001600160a01b03909216916323b872dd9161151591339130919087900390600401613cbd565b602060405180830381600087803b15801561152f57600080fd5b505af1158015611543573d6000803e3d6000fd5b505050506040513d601f19601f82011682018060405250810190611567919061379c565b6115835760405162461bcd60e51b81526004016106fd906145d3565b60608601518254908290030182555b604080870180516001600160a01b0390811660009081526001602081905293812060608b01518786018054820190558186018054820190559351600c54919592946115e6948b943394909116903490612309565b905080600801547f61606860eb6c87306811e2695215385101daab53bd6ab4e9f9049aead9363c7d600e8a60000151604051602001610b2a929190613b44565b60036020526000908152604090205460ff1681565b6000546001600160a01b031690565b600e805460408051602060026001851615610100026000190190941693909304601f810184900484028201840190925281815292918301828280156116d05780601f106116a5576101008083540402835291602001916116d0565b820191906000526020600020905b8154815290600101906020018083116116b357829003601f168201915b505050505081565b600c546001600160a01b031681565b600a5481565b6009805460408051602060026001851615610100026000190190941693909304601f810184900484028201840190925281815292918301828280156116d05780601f106116a5576101008083540402835291602001916116d0565b60066020526000908152604090205481565b600081815260056020526040808220600754915163f7434ea960e01b81529092916001600160a01b03169063f7434ea99061179a90600890600401613d3f565b60206040518083038186803b1580156117b257600080fd5b505afa1580156117c6573d6000803e3d6000fd5b505050506040513d601f19601f820116820180604052508101906117ea919061399f565b600a83015490915060ff16600481111561180057fe5b600010801561182157506003600a83015460ff16600481111561181f57fe5b105b61183d5760405162461bcd60e51b81526004016106fd90613d9d565b81546001600160a01b0316331480611861575060018201546001600160a01b031633145b61187d5760405162461bcd60e51b81526004016106fd906142ae565b81546001600160a01b0316331415611925576004820180543401908190558111156118ba5760405162461bcd60e51b81526004016106fd90614008565b426007830155600582015481111561191b57600a8201805460ff1916600217905560405183907ff972c77402d0ee7d94e4b2ea7cee21a3d392136bf7c9b72d2dc85e2a4d24a9cf9061190e90600190613d52565b60405180910390a2611361565b6113618382612ba1565b6005820180543401908190558111156119505760405162461bcd60e51b81526004016106fd90614008565b42600783015560048201548111156119b157600a8201805460ff1916600117905560405183907ff972c77402d0ee7d94e4b2ea7cee21a3d392136bf7c9b72d2dc85e2a4d24a9cf906119a490600090613d52565b60405180910390a2611371565b6113718382612ba1565b61271081565b6119ca826122e8565b8351146119e95760405162461bcd60e51b81526004016106fd90613ea0565b81602001516001600160a01b0316336001600160a01b031614611a1e5760405162461bcd60e51b81526004016106fd90614059565b6000611a29846122fb565b60008181526004602052604090209091506001600282015460ff166005811115611a4f57fe5b14611a6c5760405162461bcd60e51b81526004016106fd90613fe1565b8460e001516201518002816000015401421115611a9b5760405162461bcd60e51b81526004016106fd90614328565b8460800151831115611abf5760405162461bcd60e51b81526004016106fd906142e5565b828160010181905550817fe18fe462037a62d3500e07f2b32d9e16a69cee44850c9b7dcef7d856087e4aff84604051611af89190613d05565b60405180910390a25050505050565b611b0f612b9d565b6000546001600160a01b03908116911614611b3c5760405162461bcd60e51b81526004016106fd90614242565b6001600160a01b0381166000908152600b602052604090205460ff1615611b6257600080fd5b6001600160a01b0381166000818152600b6020526040808220805460ff19166001179055517f52133ca86a0b20d025852c627bd9d5c8e6037a237d7ef7d22f399ae642e6b9b49190a250565b611bb7816122e8565b825114611bd65760405162461bcd60e51b81526004016106fd90613ea0565b6000611be1836122fb565b9050600160008281526004602052604090206002015460ff166005811115611c0557fe5b148015611c27575082602001516001600160a01b0316336001600160a01b0316145b80611c715750600360008281526004602052604090206002015460ff166005811115611c4f57fe5b148015611c71575081602001516001600160a01b0316336001600160a01b0316145b611c8d5760405162461bcd60e51b81526004016106fd9061442d565b600081815260046020526040902060010154158015611cb0575060008260a00151115b15611cdb5760008181526004602052604090206002808201805460ff19169091179055429055611371565b6000611cef84608001518560a00151612dde565b9050610c63828560200151856020015187604001518760400151896060015187600460008b8152602001908152602001600020600101548b608001518c60c00151612e03565b600c546040516323b872dd60e01b81526001600160a01b03909116906323b872dd90611d6990339030908690600401613cbd565b602060405180830381600087803b158015611d8357600080fd5b505af1158015611d97573d6000803e3d6000fd5b505050506040513d601f19601f82011682018060405250810190611dbb919061379c565b611dc457600080fd5b3360008181526001602052604090819020805484019055517fbc7c8a4d8049a3f99a02f2a20640c206a2e4d3f2fa54fd20da9f01fda3620cda90611e09908490613d05565b60405180910390a250565b60008181526005602052604090206002600682015460ff166002811115611e3757fe5b14611e545760405162461bcd60e51b81526004016106fd906144a3565b60075460098083015460405163093225f160e31b81526001600160a01b03909316926349912f88923492611e8d929091906004016146d5565b6000604051808303818588803b158015611ea657600080fd5b505af1158015611eba573d6000803e3d6000fd5b50505050505050565b6008805460408051602060026001851615610100026000190190941693909304601f810184900484028201840190925281815292918301828280156116d05780601f106116a5576101008083540402835291602001916116d0565b611f26612b9d565b6000546001600160a01b03908116911614611f535760405162461bcd60e51b81526004016106fd90614242565b6001600160a01b038116611f795760405162461bcd60e51b81526004016106fd90613ecf565b600080546040516001600160a01b03808516939216917f8be0079c531659141344cd1fd0a4f28419497f9722a3daafe3b4186f6b6457e091a3600080546001600160a01b0319166001600160a01b0392909216919091179055565b600082815260056020526040902080546001600160a01b0316331480612006575060018101546001600160a01b031633145b6120225760405162461bcd60e51b81526004016106fd90614633565b6002600682015460ff16600281111561203757fe5b146120545760405162461bcd60e51b81526004016106fd90614394565b6004600a82015460ff16600481111561206957fe5b106120865760405162461bcd60e51b81526004016106fd90613e4e565b60088101546007546040513392916001600160a01b0316907fdccf2f8b2cc26eafcd61905cba744cff4b81d14740725f6376390dc6298a6a3c906120cb908790613d2c565b60405180910390a4505050565b6120e1816122e8565b8251146121005760405162461bcd60e51b81526004016106fd90613ea0565b600061210b836122fb565b60008181526004602052604090209091506001600282015460ff16600581111561213157fe5b148061214e575060028082015460ff16600581111561214c57fe5b145b8061216b57506003600282015460ff16600581111561216957fe5b145b6121875760405162461bcd60e51b81526004016106fd90613fe1565b60006001600283015460ff16600581111561219e57fe5b14806121bc57506003600283015460ff1660058111156121ba57fe5b145b156121f457428560e001516201518002836000015401116121ef5760405162461bcd60e51b81526004016106fd90613f15565b612229565b428460a001516201518002836000015401116122225760405162461bcd60e51b81526004016106fd90613f15565b5060c08301515b600061223d86608001518760a00151612dde565b905061226d8487602001518760200151896040015189604001518b60600151878a600101548d608001518b612e03565b505050505050565b600080612281846122e8565b905061228e818585613239565b6122aa5760405162461bcd60e51b81526004016106fd9061460a565b90505b92915050565b6000806122bf846122fb565b90506122cc81858561336c565b6122aa5760405162461bcd60e51b81526004016106fd9061447c565b60006122ad6122f68361343a565b613492565b60006122ad6122f6836134c2565b600087815260056020526040902080546001600160a01b038089166001600160a01b031992831617835560018084018054928a1692909316919091179091556002808301879055600483018054860190556006830180548593919260ff199091169190849081111561237757fe5b0217905550600182600281111561238a57fe5b14156123ae576003810180546001600160a01b0319166001600160a01b0386161790555b600a8101805460ff19166002179055426007820155600d80546001818101909255600883015560405189917ff972c77402d0ee7d94e4b2ea7cee21a3d392136bf7c9b72d2dc85e2a4d24a9cf916124059190613d52565b60405180910390a2979650505050505050565b60028111156124395760405162461bcd60e51b81526004016106fd90613f4a565b6002820180546004808501805460058701805460009687905592869055859055600a8701805460ff191690931790925560016020819052808701546001600160a01b03168552929391929091908514156125925785546040516001600160a01b039091169084906124a990613bea565b60006040518083038185875af1925050503d80600081146124e6576040519150601f19603f3d011682016040523d82523d6000602084013e6124eb565b606091505b50506001878101546001600160a01b03908116600090815260209290925260408083208054899003905589548216835290912080546002808904909101909155600c549293509116906342966c6890865b0486036040518263ffffffff1660e01b815260040161255b9190613d05565b600060405180830381600087803b15801561257557600080fd5b505af1158015612589573d6000803e3d6000fd5b5050505061226d565b600285141561264f5760018601546040516001600160a01b039091169083906125ba90613bea565b60006040518083038185875af1925050503d80600081146125f7576040519150601f19603f3d011682016040523d82523d6000602084013e6125fc565b606091505b505086546001600160a01b03908116600090815260016020819052604080832080548a90039055908a015483168252902080546002808904909101909155600c549293509116906342966c68908661253c565b600186015460405160028504916001600160a01b0316908285039061267390613bea565b60006040518083038185875af1925050503d80600081146126b0576040519150601f19603f3d011682016040523d82523d6000602084013e6126b5565b606091505b505087546040519193506001600160a01b03169082906126d490613bea565b60006040518083038185875af1925050503d8060008114612711576040519150601f19603f3d011682016040523d82523d6000602084013e612716565b606091505b505087546001600160a01b03908116600090815260016020819052604080832080546002909b049a8b900390559a0154909116815297909720805495909503909455505050505050565b60028111156127815760405162461bcd60e51b81526004016106fd90613f4a565b6002820180546004808501805460058701805460009687905592869055859055600a8701805460ff1916909317909255919290919060018514156128cb5785546040516001600160a01b039091169084906127db90613bea565b60006040518083038185875af1925050503d8060008114612818576040519150601f19603f3d011682016040523d82523d6000602084013e61281d565b606091505b50506003870154875460405163a9059cbb60e01b81529293506001600160a01b039182169263a9059cbb926128589216908890600401613ce1565b602060405180830381600087803b15801561287257600080fd5b505af1158015612886573d6000803e3d6000fd5b505050506040513d601f19601f820116820180604052508101906128aa919061379c565b6128c65760405162461bcd60e51b81526004016106fd9061410c565b61226d565b60028514156129735760018601546040516001600160a01b039091169083906128f390613bea565b60006040518083038185875af1925050503d8060008114612930576040519150601f19603f3d011682016040523d82523d6000602084013e612935565b606091505b50506003870154600188015460405163a9059cbb60e01b81529293506001600160a01b039182169263a9059cbb926128589216908890600401613ce1565b600186015460405160028504916001600160a01b0316908285039061299790613bea565b60006040518083038185875af1925050503d80600081146129d4576040519150601f19603f3d011682016040523d82523d6000602084013e6129d9565b606091505b505087546040519193506001600160a01b03169082906129f890613bea565b60006040518083038185875af1925050503d8060008114612a35576040519150601f19603f3d011682016040523d82523d6000602084013e612a3a565b606091505b50506003880154600189015460405163a9059cbb60e01b815292945060028804926001600160a01b039283169263a9059cbb92612a8092911690858b0390600401613ce1565b602060405180830381600087803b158015612a9a57600080fd5b505af1158015612aae573d6000803e3d6000fd5b505050506040513d601f19601f82011682018060405250810190612ad2919061379c565b612aee5760405162461bcd60e51b81526004016106fd9061410c565b6003880154885460405163a9059cbb60e01b81526001600160a01b039283169263a9059cbb92612b25929116908590600401613ce1565b602060405180830381600087803b158015612b3f57600080fd5b505af1158015612b53573d6000803e3d6000fd5b505050506040513d601f19601f82011682018060405250810190612b77919061379c565b612b935760405162461bcd60e51b81526004016106fd9061410c565b5050505050505050565b3390565b6000828152600560205260409020600a810180546003919060ff191660018302179055506007546000906001600160a01b031663c13517e184600280600687015460ff166002811115612bf057fe5b14612bfc576008612bff565b60095b6040518463ffffffff1660e01b8152600401612c1c92919061472a565b6020604051808303818588803b158015612c3557600080fd5b505af1158015612c49573d6000803e3d6000fd5b50505050506040513d601f19601f82011682018060405250810190612c6e919061399f565b600081815260066020526040908190208690556007546008850154915192935083926001600160a01b03909116917f74baab670a4015ab2f1b467c5252a96141a2573f2908e58a92081e80d3cfde3d91612cca919081906146f6565b60405180910390a360008383600401541115612d545760048301805490859055835460405191869003916001600160a01b03909116908290612d0b90613bea565b60006040518083038185875af1925050503d8060008114612d48576040519150601f19603f3d011682016040523d82523d6000602084013e612d4d565b606091505b5090925050505b8383600501541115612dd75760058301805490859055600184015460405191869003916001600160a01b03909116908290612d8e90613bea565b60006040518083038185875af1925050503d8060008114612dcb576040519150601f19603f3d011682016040523d82523d6000602084013e612dd0565b606091505b5090925050505b5050505050565b6000828201838110156122aa5760405162461bcd60e51b81526004016106fd90613f73565b6001600160a01b038516612e1657600080fd5b6001600160a01b0385166000908152600b602052604090205460ff16612e3b57600080fd5b60008a815260046020526040812060028101805460ff19166005179055429055612e6585856134fc565b600f5490915015612f27576000612e89612e81600f548461353e565b612710613578565b9050612e9582826134fc565b60115460405163a9059cbb60e01b81529193506001600160a01b03808a169263a9059cbb92612eca9216908590600401613ce1565b602060405180830381600087803b158015612ee457600080fd5b505af1158015612ef8573d6000803e3d6000fd5b505050506040513d601f19601f82011682018060405250810190612f1c919061379c565b612f2557600080fd5b505b6000601054118015612f4b5750866001600160a01b0316896001600160a01b031614155b15612ffb576000612f61612e816010548461353e565b9050612f6d82826134fc565b60405163a9059cbb60e01b81529092506001600160a01b0388169063a9059cbb90612f9e908b908590600401613ce1565b602060405180830381600087803b158015612fb857600080fd5b505af1158015612fcc573d6000803e3d6000fd5b505050506040513d601f19601f82011682018060405250810190612ff0919061379c565b612ff957600080fd5b505b60008311801561301357506001600160a01b03881615155b156130c1576000613027612e81858461353e565b905061303382826134fc565b60405163a9059cbb60e01b81529092506001600160a01b0388169063a9059cbb90613064908c908590600401613ce1565b602060405180830381600087803b15801561307e57600080fd5b505af1158015613092573d6000803e3d6000fd5b505050506040513d601f19601f820116820180604052508101906130b6919061379c565b6130bf57600080fd5b505b81156131725760006130d6612e81848461353e565b90506130e282826134fc565b60405163a9059cbb60e01b81529092506001600160a01b0388169063a9059cbb90613115908e90858a0190600401613ce1565b602060405180830381600087803b15801561312f57600080fd5b505af1158015613143573d6000803e3d6000fd5b505050506040513d601f19601f82011682018060405250810190613167919061379c565b61317057600080fd5b505b80156132015760405163a9059cbb60e01b81526001600160a01b0387169063a9059cbb906131a6908c908590600401613ce1565b602060405180830381600087803b1580156131c057600080fd5b505af11580156131d4573d6000803e3d6000fd5b505050506040513d601f19601f820116820180604052508101906131f8919061379c565b61320157600080fd5b6040518b907f24196ec40f90671b7144e716978686b4f3c7d6b00b23da3971ef2b52af27d87f90600090a25050505050505050505050565b60008260e0015160001415801561325357508260e0015142115b1561326057506000613365565b6060830151604080850180516001600160a01b0390811660009081526001602081905284822001549251909116815291909120540310156132a357506000613365565b60008481526002602052604090205460ff16156132c257506000613365565b60008481526003602052604090205460ff16156132e157506001613365565b82604001516001600160a01b03166001858460000151856020015186604001516040516000815260200160405260405161331e9493929190613d0e565b6020604051602081039080840390855afa158015613340573d6000803e3d6000fd5b505050602060405103516001600160a01b0316141561336157506001613365565b5060005b9392505050565b60008260c0015160001415801561338657508260c0015142115b1561339357506000613365565b60608301516001600160a01b03166000908152600b602052604090205460ff166133bf57506000613365565b60008481526002602052604090205460ff16156133de57506000613365565b60008481526003602052604090205460ff16156133fd57506001613365565b82602001516001600160a01b03166001858460000151856020015186604001516040516000815260200160405260405161331e9493929190613d0e565b80516020808301516040808501516060860151608087015160a088015160c089015160e08a01519551600099613474999098979101613af9565b60408051808303601f19018152919052805160209091012092915050565b6000816040516020016134a59190613bb9565b604051602081830303815290604052805190602001209050919050565b80516020808301516040808501516060860151608087015160a088015160c089015160e08a01519551600099613474999098979101613aa6565b60006122aa83836040518060400160405280601e81526020017f536166654d6174683a207375627472616374696f6e206f766572666c6f7700008152506135ba565b60008261354d575060006122ad565b8282028284828161355a57fe5b04146122aa5760405162461bcd60e51b81526004016106fd906141c0565b60006122aa83836040518060400160405280601a81526020017f536166654d6174683a206469766973696f6e206279207a65726f0000000000008152506135e6565b600081848411156135de5760405162461bcd60e51b81526004016106fd9190613d2c565b505050900390565b600081836136075760405162461bcd60e51b81526004016106fd9190613d2c565b50600083858161361357fe5b0495945050505050565b80356122ad816147f2565b600061010080838503121561363b578182fd5b613644816147bf565b915050813581526020820135613659816147f2565b6020820152604082013561366c816147f2565b80604083015250606082013560608201526080820135608082015260a082013560a082015260c082013560c082015260e082013560e082015292915050565b60006101008083850312156136be578182fd5b6136c7816147bf565b9150508135815260208201356136dc816147f2565b602082015260408201356136ef816147f2565b6040820152613701836060840161361d565b60608201526080820135608082015260a082013560a082015260c082013560c082015260e082013560e082015292915050565b600060608284031215613745578081fd5b61374f60606147bf565b9050813560ff8116811461376257600080fd5b80825250602082013560208201526040820135604082015292915050565b600060208284031215613791578081fd5b81356122aa816147f2565b6000602082840312156137ad578081fd5b815180151581146122aa578182fd5b6000602082840312156137cd578081fd5b5035919050565b600080604083850312156137e6578081fd5b8235915060208084013567ffffffffffffffff80821115613805578384fd5b81860187601f820112613816578485fd5b8035925081831115613826578485fd5b613838601f8401601f191685016147bf565b9150828252878484830101111561384d578485fd5b8284820185840137509081019091019190915290939092509050565b6000610100828403121561387b578081fd5b6122aa8383613628565b6000806101608385031215613898578182fd5b6138a28484613628565b91506138b2846101008501613734565b90509250929050565b600061010082840312156138cd578081fd5b6122aa83836136ab565b60008061020083850312156138ea578182fd5b6138f484846136ab565b91506138b2846101008501613628565b60008060006102208486031215613919578081fd5b61392385856136ab565b9250613933856101008601613628565b915061020084013590509250925092565b6000806000806102c0858703121561395a578081fd5b61396486866136ab565b9350613974866101008701613734565b9250613984866101608701613628565b9150613994866102608701613734565b905092959194509250565b6000602082840312156139b0578081fd5b5051919050565b600080604083850312156139c9578182fd5b50508035926020909101359150565b60008151808452815b818110156139fd576020818501810151868301820152016139e1565b81811115613a0e5782602083870101525b50601f01601f19169290920160200192915050565b60008154600180821660008114613a415760018114613a5f57613a9d565b60028304607f16865260ff1983166020870152604086019350613a9d565b60028304808752613a6f866147e6565b60005b82811015613a935781546020828b0101528482019150602081019050613a72565b8801602001955050505b50505092915050565b9788526bffffffffffffffffffffffff19606097881b811660208a015295871b861660348901529390951b9093166048860152605c850152607c840191909152609c83019190915260bc82015260dc0190565b9788526bffffffffffffffffffffffff19606097881b811660208a01529590961b909416603487015260488601929092526068850152608884015260a883015260c882015260e80190565b6000808454600180821660008114613b635760018114613b7a57613ba9565b60ff198316865260028304607f1686019350613ba9565b600283048886526020808720875b83811015613ba15781548a820152908501908201613b88565b505050860193505b5050509283525050602001919050565b7f19457468657265756d205369676e6564204d6573736167653a0a3332000000008152601c810191909152603c0190565b90565b6001600160a01b0391909116815260200190565b6001600160a01b03978816815295871660208701529390951660408501526060840191909152608083015260a082019290925260c081019190915260e00190565b6001600160a01b038c811682528b81166020830152604082018b9052891660608201526080810188905260a08101879052610160810160038710613c8257fe5b8660c08301528560e0830152846101008301528361012083015260058310613ca657fe5b826101408301529c9b505050505050505050505050565b6001600160a01b039384168152919092166020820152604081019190915260600190565b6001600160a01b03929092168252602082015260400190565b901515815260200190565b90815260200190565b93845260ff9290921660208401526040830152606082015260800190565b6000602082526122aa60208301846139d8565b6000602082526122aa6020830184613a23565b6020810160028310613d6057fe5b91905290565b6020808252601c908201527f596f7520646f6e2774206861766520656e6f67687420746f6b656e7300000000604082015260600190565b60208082526021908201527f446973707574652068617320616c7265616479206265656e20637265617465646040820152601760f91b606082015260800190565b60208082526026908201527f54686520646973707574652068617320616c7265616479206265656e2072657360408201526537b63b32b21760d11b606082015260800190565b60208082526010908201526f105b1c9958591e48185c1c1c9bdd995960821b604082015260600190565b60208082526032908201527f4d757374206e6f742073656e642065766964656e63652069662074686520646960408201527139b83aba329034b9903932b9b7b63b32b21760711b606082015260800190565b602080825260159082015274131a5cdd1a5b99c81a5cdb89dd0818dbdc9c9958dd605a1b604082015260600190565b60208082526026908201527f4f776e61626c653a206e6577206f776e657220697320746865207a65726f206160408201526564647265737360d01b606082015260800190565b6020808252818101527f54696d656f75742074696d6520686173206e6f7420706173736564207965742e604082015260600190565b6020808252600f908201526e24b73b30b634b210393ab634b7339760891b604082015260600190565b6020808252601b908201527f536166654d6174683a206164646974696f6e206f766572666c6f770000000000604082015260600190565b6020808252601c908201527f57617272616e74792074696d65206861732074696d6564206f75742e00000000604082015260600190565b6020808252600d908201526c496e76616c696420706861736560981b604082015260600190565b60208082526031908201527f5468652070726f7365637574696f6e20666565206d75737420636f7665722061604082015270393134ba3930ba34b7b71031b7b9ba399760791b606082015260800190565b6020808252601e908201527f596f75206d75737420626520746865206c697374696e672073656c6c65720000604082015260600190565b6020808252601b908201527f596f7520646f6e2774206861766520656e6f6768742066756e64730000000000604082015260600190565b60208082526025908201527f44697370757465206973206e6f742077616974696e6720666f7220616e79207060408201526430b93a3c9760d91b606082015260800190565b60208082526026908201527f54686520607472616e73666572602066756e6374696f6e206d757374206e6f74604082015265103330b4b61760d11b606082015260800190565b60208082526017908201527f4f6e6c792062757965722063616e20646973707574652e000000000000000000604082015260600190565b60208082526018908201527f4f6e6c792073656c6c65722063616e20646973707574652e0000000000000000604082015260600190565b60208082526021908201527f536166654d6174683a206d756c7469706c69636174696f6e206f766572666c6f6040820152607760f81b606082015260800190565b60208082526021908201527f4c697374696e672068617320616c7265616479206265656e207265706f7274656040820152601960fa1b606082015260800190565b6020808252818101527f4f776e61626c653a2063616c6c6572206973206e6f7420746865206f776e6572604082015260600190565b6020808252601a908201527f53656e646572206973206e6f74206f72646572207369676e6572000000000000604082015260600190565b6020808252601e908201527f5468652063616c6c6572206d757374206265207468652073656e6465722e0000604082015260600190565b60208082526023908201527f526566756e642063616e27742062652067726561746572207468616e20746f7460408201526230b61760e91b606082015260800190565b6020808252818101527f436f6e6669726d6174696f6e2074696d65206861732074696d6564206f75742e604082015260600190565b6020808252601c908201527f53656e646572206973206e6f74206c697374696e67207369676e657200000000604082015260600190565b6020808252602f908201527f45766964656e63657320617265206f6e6c7920616c6c6f77656420666f72206f60408201526e393232b939903234b9b83aba32b99760891b606082015260800190565b6020808252602a908201527f56616c7565206d7573742062652067726561746572207468616e2061726269746040820152691c985d1a5bdb90dbdcdd60b21b606082015260800190565b6020808252602f908201527f596f75206d7573742062652073656c6c6572206f7220627579657220696e207460408201526e3432903934b3b43a10383430b9b29760891b606082015260800190565b6020808252600d908201526c24b73b30b634b21037b93232b960991b604082015260600190565b6020808252602d908201527f41707065616c7320617265206f6e6c7920616c6c6f77656420666f72206f726460408201526c32b939903234b9b83aba32b99760991b606082015260800190565b6020808252601190820152702cb7ba9036bab9ba10313290313abcb2b960791b604082015260600190565b6020808252818101527f4f7264657220616c726561647920686173206265656e2070726f636573736564604082015260600190565b60208082526022908201527f5468652063616c6c6572206d757374206265207468652061726269747261746f604082015261391760f11b606082015260800190565b60208082526021908201527f4661696c656420746f207472616e7366657220627579657227732066756e64736040820152601760f91b606082015260800190565b60208082526019908201527f556e61626c6520746f207472616e7366657220746f6b656e7300000000000000604082015260600190565b6020808252600f908201526e496e76616c6964206c697374696e6760881b604082015260600190565b60208082526034908201527f5468652063616c6c6572206d757374206265207468652070726f73656375746960408201527337b71037b9103a3432903232b332b73230b73a1760611b606082015260800190565b6020808252602e908201527f596f752063616e2774207265706f727420796f757273656c662e20557365206360408201526d616e63656c4c697374696e67282960901b606082015260800190565b6000838252604060208301526146ee6040830184613a23565b949350505050565b918252602082015260400190565b83815260208101839052606081016006831061471c57fe5b826040830152949350505050565b60006040820160ff85168352602060408185015282855460018082166000811461475b5760018114614779576147b1565b60028304607f16865260ff19831660608901526080880193506147b1565b600283048087526147898a6147e6565b885b828110156147a75781548b82016060015290840190870161478b565b8a01606001955050505b509198975050505050505050565b60405181810167ffffffffffffffff811182821017156147de57600080fd5b604052919050565b60009081526020902090565b6001600160a01b038116811461480757600080fd5b5056fea2646970667358221220ae6ab191df40ac96f51ef578e4cc72cc0252f2b3e7d42ec6ef1bdbc3f3c9e91e64736f6c63430006080033",
  "immutableReferences": {},
  "source": "// SPDX-License-Identifier: MIT\npragma solidity ^0.6.0;\npragma experimental ABIEncoderV2;\n\nimport \"../arbitration/Arbitrator.sol\";\nimport \"../arbitration/IArbitrable.sol\";\n\nimport \"../token/ERC20Burnable.sol\";\n\nimport \"../utils/Ownable.sol\";\n\ncontract Dagora is IArbitrable, Ownable {\n\n    /* 2 decimal plates for percentage */\n    uint public constant INVERSE_BASIS_POINT = 10000;\n\n    uint8 constant AMOUNT_OF_CHOICES = 2;\n\n    enum Party {Prosecution, Defendant}\n    enum DisputeType { None, Report, Order}\n    enum RulingOptions {NoRuling, ProsecutionWins, DefendantWins}\n    enum DisputeStatus {NoDispute, WaitingProsecution, WaitingDefendant, DisputeCreated, Resolved}\n    enum Status {NoTransaction, WaitingConfirmation, Warranty, WarrantyConfirmation, InDispute, Finalized}\n\n    struct Listing {\n        bytes32 ipfsHash;\n        address payable seller;\n        address payable stakeOwner;\n        uint stakedAmount;\n        uint commissionPercentage; /* two decimal places */\n        uint warranty; /* In days */\n        uint cashbackPercentage; /* two decimal places */\n        uint expiration;\n    }\n\n    struct Order {\n        bytes32 listingHash;\n        address payable buyer;\n        address payable commissioner;\n        ERC20 token;\n        uint total;\n        uint shippingCost;\n        uint expiration;\n        uint confirmationTimeout; /* In days */\n    }\n\n    struct Transaction {\n        /* Keep track of status update */\n        uint lastStatusUpdate;\n        /* Refund the seller can give */\n        uint refund;\n        /* Current status */\n        Status status;\n    }\n\n    struct Seller {\n        // The amount of tokens the contract holds for this seller.\n        uint balance;\n        /* Total number of tokens the seller can loose in disputes they are. \n         * Those tokens are locked. Note that we can have lockedTokens > balance but it should\n         * be statistically unlikely and does not pose issues.*/\n        uint lockedTokens;\n    }\n\n    /* An ECDSA signature. */\n    struct Sig {\n        /* v parameter */\n        uint8 v;\n        /* r parameter */\n        bytes32 r;\n        /* s parameter */\n        bytes32 s;\n    }\n\n    struct RunningDispute {\n        address payable prosecution;\n        address payable defendant;\n        uint amount;\n        ERC20 token;\n        uint prosecutionFee;\n        uint defendantFee;\n        DisputeType disputeType;\n        uint lastInteraction;\n        uint metaEvidenceId;\n        uint disputeId;\n        DisputeStatus status;\n    }\n\n    event TokenGranted (address indexed addr);\n    event TokenRevoked (address indexed addr);\n\n    event TokenDeposited (address indexed sender, uint value);\n    event TokenWithdrawed (address indexed sender, uint value);\n\n    event ListingApproved (bytes32 indexed hash);\n    event ListingCancelled (bytes32 indexed hash);\n\n    event OrderApproved (bytes32 indexed hash);\n    event OrderCancelled (bytes32 indexed hash);\n    \n\n    event TransactionCreated(bytes32 indexed hash,\n                            address indexed buyer,\n                            address indexed seller,\n                            address stakeOwner,\n                            address commissioner,\n                            ERC20 token,\n                            uint total,\n                            uint commissionPercentage,\n                            uint cashbackPercentage,\n                            uint confirmationTimeout);\n    event TransactionRefunded(bytes32 indexed hash, uint value);\n    event TransactionFinalized(bytes32 indexed hash);\n\n    event WarrantyClaimed(bytes32 indexed hash);\n\n    event HasToPayFee (bytes32 indexed _hash, Party _party);\n\n    mapping (address => Seller) public sellers;\n    /* Cancelled / finalized listings and orders, by hash. */\n    mapping(bytes32 => bool) public cancelledOrFinalized;\n    /* Orders and listings verified by on-chain approval (alternative to ECDSA signatures so that smart contracts can place orders and listings directly). */\n    mapping(bytes32 => bool) public approvedHashes;\n\n    mapping (bytes32 => Transaction) public transactions; // Listing Hash to Dispute\n\n    mapping (bytes32 => RunningDispute) public disputes; // Listing Hash to Dispute\n    mapping (uint => bytes32) public disputeIDtoHash;\n\n    Arbitrator public arbitrator; // Address of the arbitrator contract.\n    bytes public reportExtraData; // Extra data to set up the arbitration.\n    bytes public orderExtraData; // Extra data to set up the arbitration.\n    uint public feeTimeout; /* Time in seconds a party can take to pay arbitration\n                             * fees before being considered unresponding and lose the dispute.*/\n\n    mapping(address => bool) public contracts;\n\n    ERC20Burnable public marketToken;\n    uint public metaEvidenceCount;\n    string public ipfsDomain;\n\n    uint protocolFeePercentage;\n    uint tokenOwnerFeePercentage;\n    address protocolFeeRecipient;\n\n    constructor(address _arbitrator,\n                address _token,\n                address _protocolFeeRecipient,\n                uint _feeTimeout,\n                uint _protocolFeePercentage,\n                uint _tokenOwnerFeePercentage,\n                bytes memory _reportExtraData,\n                bytes memory _orderExtraData,\n                string memory _ipfsDomain)\n        Ownable()\n        public\n    {\n        arbitrator = Arbitrator(_arbitrator);\n        marketToken = ERC20Burnable(_token);\n        protocolFeeRecipient = _protocolFeeRecipient;\n        feeTimeout = _feeTimeout;\n        protocolFeePercentage = _protocolFeePercentage;\n        tokenOwnerFeePercentage = _tokenOwnerFeePercentage;\n        reportExtraData = _reportExtraData;\n        orderExtraData = _orderExtraData;\n        ipfsDomain = _ipfsDomain;\n    }\n\n    function grantAuthentication (address addr)\n        public\n        onlyOwner\n    {\n        require(!contracts[addr]);\n        contracts[addr] = true;\n        emit TokenGranted(addr);\n    }\n\n    function revokeAuthentication (address addr)\n        public\n        onlyOwner\n    {\n        contracts[addr] = false;\n        emit TokenRevoked(addr);\n    }\n\n    function depositTokens(uint value)\n        public\n    {\n        require(marketToken.transferFrom(msg.sender, address(this), value));\n        sellers[msg.sender].balance += value;\n        emit TokenDeposited(msg.sender, value);\n    }\n\n    function withdrawTokens(uint value)\n        public\n    {\n        Seller storage seller = sellers[msg.sender];\n        require(seller.balance - seller.lockedTokens >= value, \"You don't have enoght tokens\");\n        require(marketToken.transferFrom(msg.sender, address(this), value));\n        sellers[msg.sender].balance -= value;\n        emit TokenWithdrawed(msg.sender, value);\n    }\n\n    function approveListing(Listing memory _listing)\n        public returns (bool)\n    {\n        /* CHECKS */\n        /* Assert sender is authorized to approve listing. */\n        require(msg.sender == _listing.stakeOwner, \"Sender is not listing signer\");\n        require(sellers[msg.sender].balance >= _listing.stakedAmount, \"You don't have enoght funds\");\n        /* Calculate listing hash. */\n        bytes32 hash = hashListingToSign(_listing);\n        /* Assert listing has not already been approved. */\n        require(!approvedHashes[hash], \"Already approved\");\n        /* EFFECTS */\n        /* Mark listing as approved. */\n        approvedHashes[hash] = true;\n        emit ListingApproved(hash);\n        return true;\n    }\n\n    function cancelListing(Listing memory _listing, Sig memory sig)\n        internal\n    {\n        /* CHECKS */\n\n        /* Calculate listing hash. */\n        bytes32 hash = requireValidListing(_listing, sig);\n\n        /* Assert sender is authorized to cancel listing. */\n        require(msg.sender == _listing.stakeOwner || msg.sender == _listing.seller);\n  \n        /* EFFECTS */\n      \n        /* Mark listing as cancelled, preventing it from being matched. */\n        cancelledOrFinalized[hash] = true;\n\n        /* Log cancel event. */\n        emit ListingCancelled(hash);\n    }\n\n    function approveOrder(Order memory order)\n        public returns (bool)\n    {\n        /* CHECKS */\n        /* Assert sender is authorized to approve listing. */\n        require(msg.sender == order.buyer, \"Sender is not order signer\");\n        /* Calculate listing hash. */\n        bytes32 hash = hashOrderToSign(order);\n        /* Assert listing has not already been approved. */\n        require(!approvedHashes[hash], \"Already approved\");\n        /* EFFECTS */\n        /* Mark order as approved. */\n        approvedHashes[hash] = true;\n\n        emit OrderApproved(hash);\n        return true;\n    }\n\n    function cancelOrder(Order memory order, Sig memory sig)\n        internal\n    {\n        /* CHECKS */\n\n        /* Calculate listing hash. */\n        bytes32 hash = requireValidOrder(order, sig);\n\n        /* Assert sender is authorized to cancel listing. */\n        require(msg.sender == order.buyer);\n  \n        /* EFFECTS */\n      \n        /* Mark listing as cancelled, preventing it from being matched. */\n        cancelledOrFinalized[hash] = true;\n\n        /* Log cancel event. */\n        emit OrderCancelled(hash);\n    }\n\n    function createTransaction(Order memory _order,\n                                Sig memory orderSig,\n                                Listing memory _listing,\n                                Sig memory listingSig)\n        public\n        returns (bytes32 hash)\n    {\n        require (_order.listingHash == requireValidListing(_listing, listingSig), \"Listing isn't correct\");\n        hash = requireValidOrder(_order, orderSig);\n        require (transactions[hash].status == Status.NoTransaction, \"Order already has been processed\");\n        uint amount = _order.total + _order.shippingCost;\n        require (_order.token.transferFrom(_order.buyer, address(this), amount), \"Failed to transfer buyer's funds.\");\n        transactions[hash].lastStatusUpdate = now;\n        transactions[hash].status = Status.WaitingConfirmation;\n        {\n            emit TransactionCreated(hash,\n                                    _order.buyer,\n                                    _listing.seller,\n                                    _listing.stakeOwner,\n                                    _order.commissioner,\n                                    _order.token,\n                                    amount,\n                                    _listing.commissionPercentage,\n                                    _listing.cashbackPercentage,\n                                    _order.confirmationTimeout);\n        }\n    }\n\n    function conrfirmReceipt(Order memory _order, Listing memory _listing)\n        public\n    {\n        require(_order.listingHash == hashListingToSign(_listing), \"Listing isn't correct\");\n        bytes32 hash = hashOrderToSign(_order);\n        require(\n            (transactions[hash].status == Status.WaitingConfirmation && msg.sender == _order.buyer) ||\n            (transactions[hash].status == Status.WarrantyConfirmation && msg.sender == _listing.seller), \n                \"You must be seller or buyer in the right phase.\");\n        if (transactions[hash].refund == 0 && _listing.warranty > 0) {\n            transactions[hash].status = Status.Warranty;\n            transactions[hash].lastStatusUpdate = now;\n        } else {\n            uint total = SafeMath.add(_order.total, _order.shippingCost);\n            finalizeTransaction(hash,\n                                    _order.buyer, \n                                    _listing.seller,\n                                    _order.commissioner,\n                                    _listing.stakeOwner,\n                                    _order.token,\n                                    total,\n                                    transactions[hash].refund,\n                                    _listing.commissionPercentage,\n                                    _listing.cashbackPercentage);\n        }\n    }\n\n    function executeTransaction(Order memory _order, Listing memory _listing) public {\n        require(_order.listingHash == hashListingToSign(_listing), \"Listing isn't correct\");\n        bytes32 hash = hashOrderToSign(_order);\n        Transaction storage transaction = transactions[hash];\n        require(    transaction.status == Status.WaitingConfirmation || \n                    transaction.status == Status.Warranty || \n                    transaction.status == Status.WarrantyConfirmation,\n                    \"Invalid phase\");\n        uint cashbackPercentage = 0;\n        if(transaction.status == Status.WaitingConfirmation || transaction.status == Status.WarrantyConfirmation) {\n            require(transaction.lastStatusUpdate + (_order.confirmationTimeout * (1 days)) > now, \"Timeout time has not passed yet.\");\n        } else {\n            require(transaction.lastStatusUpdate + (_listing.warranty * (1 days)) > now, \"Timeout time has not passed yet.\");\n            cashbackPercentage = _listing.cashbackPercentage;\n        }\n        uint total = SafeMath.add(_order.total, _order.shippingCost);\n        finalizeTransaction(hash,\n                                _order.buyer, \n                                _listing.seller,\n                                _order.commissioner,\n                                _listing.stakeOwner,\n                                _order.token,\n                                total,\n                                transaction.refund,\n                                _listing.commissionPercentage,\n                                cashbackPercentage);\n    }\n\n    function finalizeTransaction(bytes32 hash,\n                                    address buyer,\n                                    address seller,\n                                    address commissioner,\n                                    address stakeHolder,\n                                    ERC20 token,\n                                    uint total,\n                                    uint refund,\n                                    uint commissionPercentage,\n                                    uint cashbackPercentage)\n        internal\n    {\n        require(address(token) != address(0));\n        require(contracts[address(token)]);\n\n        \n        transactions[hash].status = Status.Finalized;\n        transactions[hash].lastStatusUpdate = now;\n\n        uint price = SafeMath.sub(total, refund);\n\n        if (protocolFeePercentage > 0) {\n            uint protocolFee = SafeMath.div(SafeMath.mul(protocolFeePercentage, price), INVERSE_BASIS_POINT);\n            price = SafeMath.sub(price, protocolFee);\n            require(token.transfer(protocolFeeRecipient, protocolFee));\n        }\n\n        if (tokenOwnerFeePercentage > 0 && seller != stakeHolder){\n            uint stakeOwnerFee = SafeMath.div(SafeMath.mul(tokenOwnerFeePercentage, price), INVERSE_BASIS_POINT);\n            price = SafeMath.sub(price, stakeOwnerFee);\n            require(token.transfer(stakeHolder, stakeOwnerFee));\n        }\n\n        if (commissionPercentage > 0 && commissioner != address(0x0)){\n            uint commissionFee = SafeMath.div(SafeMath.mul(commissionPercentage, price), INVERSE_BASIS_POINT);\n            price = SafeMath.sub(price, commissionFee);\n            require(token.transfer(commissioner, commissionFee));\n        }\n\n        if(cashbackPercentage > 0) {\n            uint cashback = SafeMath.div(SafeMath.mul(cashbackPercentage, price), INVERSE_BASIS_POINT);\n            price = SafeMath.sub(price, cashback);\n            require(token.transfer(buyer, cashback + refund));\n        }\n\n        if(price > 0)\n            require(token.transfer(seller, price));\n        emit TransactionFinalized(hash);\n    }\n\n    function claimWarranty(Order memory _order, Listing memory _listing)\n        public\n    {\n        require(_order.listingHash == hashListingToSign(_listing), \"Listing isn't correct\");\n        bytes32 hash = hashOrderToSign(_order);\n        Transaction storage transaction = transactions[hash];\n        require(transaction.status == Status.Warranty, \"Invalid phase\");\n        require(msg.sender == _order.buyer, \"You must be buyer\");\n        require(now <= transaction.lastStatusUpdate + (_listing.warranty * (1 days)), \"Warranty time has timed out.\");\n\n        transaction.status = Status.WarrantyConfirmation;\n        transaction.refund = _order.total;\n        transaction.lastStatusUpdate = now;\n        emit WarrantyClaimed(hash);\n    }\n\n    function disputeTransaction(Order memory _order, Listing memory _listing)\n        public\n        payable\n        returns (bytes32 hash)\n    {\n        require(_order.listingHash == hashListingToSign(_listing), \"Listing isn't correct\");\n        hash = hashOrderToSign(_order);\n        Transaction storage transaction = transactions[hash];\n        require(transaction.status == Status.WaitingConfirmation || transaction.status == Status.WarrantyConfirmation, \"Invalid phase\");\n        require(now <= transaction.lastStatusUpdate + (_order.confirmationTimeout * (1 days)), \"Confirmation time has timed out.\");\n        uint arbitrationCost = arbitrator.arbitrationCost(reportExtraData);\n        require(msg.value >= arbitrationCost, \"Value must be greater than arbitrationCost\");\n        address payable prosecution;\n        address payable defendant;\n        if (transaction.status == Status.WaitingConfirmation) {\n            require(msg.sender == _order.buyer, \"Only buyer can dispute.\");\n            prosecution = _order.buyer;\n            defendant = _listing.seller;\n        } else {\n            require(msg.sender == _listing.seller, \"Only seller can dispute.\");\n            prosecution = _order.buyer;\n            defendant = _listing.seller;\n        }\n        transaction.status = Status.InDispute;\n        transaction.lastStatusUpdate = now;\n        RunningDispute storage dispute = _createDispute(hash,\n                                                        prosecution,\n                                                        defendant,\n                                                        _order.total,\n                                                        _order.token,\n                                                        msg.value,\n                                                        DisputeType.Order);\n        emit MetaEvidence(dispute.metaEvidenceId, string(abi.encodePacked(ipfsDomain, _listing.ipfsHash)));\n    }\n\n    function updateRefund(Order memory _order, Listing memory _listing, uint refund)\n        public\n    {\n        require(_order.listingHash == hashListingToSign(_listing), \"Listing isn't correct\");\n        require(msg.sender == _listing.seller, \"You must be the listing seller\");\n        bytes32 hash = hashOrderToSign(_order);\n        Transaction storage transaction = transactions[hash];\n        require(transaction.status == Status.WaitingConfirmation, \"Invalid phase\");\n        require(now <= transaction.lastStatusUpdate + (_order.confirmationTimeout * (1 days)), \"Confirmation time has timed out.\");\n        require(refund <= _order.total, \"Refund can't be greater than total.\");\n        transaction.refund = refund;\n        emit TransactionRefunded(hash, refund);\n    }\n\n    function report(Listing memory _listing, Sig memory sig)\n        public\n        payable\n        returns (bytes32 hash)\n    {\n        /* CHECKS */\n        hash = requireValidListing(_listing, sig);\n        require(disputes[hash].status == DisputeStatus.NoDispute, \"Listing has already been reported\");\n        require(msg.sender != _listing.stakeOwner, \"You can't report yourself. Use cancelListing()\");\n        uint arbitrationCost = arbitrator.arbitrationCost(reportExtraData);\n        require(msg.value >= arbitrationCost, \"Value must be greater than arbitrationCost\");\n        Seller storage prosecution = sellers[msg.sender];\n        uint availableBalance = prosecution.balance - prosecution.lockedTokens;\n        if(availableBalance < _listing.stakedAmount) {\n            require(marketToken.transferFrom(msg.sender, address(this), _listing.stakedAmount - availableBalance), \"Unable to transfer tokens\");\n            prosecution.balance += _listing.stakedAmount - availableBalance;\n        }\n        /* EFFECTS */\n        \n        Seller storage defendant = sellers[_listing.stakeOwner];\n        prosecution.lockedTokens += _listing.stakedAmount;\n        defendant.lockedTokens += _listing.stakedAmount;\n        RunningDispute storage dispute = _createDispute(hash,\n                                                        msg.sender,\n                                                        _listing.stakeOwner,\n                                                        _listing.stakedAmount,\n                                                        marketToken,\n                                                        msg.value,\n                                                        DisputeType.Report);\n        emit MetaEvidence(dispute.metaEvidenceId, string(abi.encodePacked(ipfsDomain, _listing.ipfsHash)));\n    }\n\n    function _createDispute(bytes32 hash,\n                            address payable prosecution,\n                            address payable defendant,\n                            uint amount, ERC20 token,\n                            uint prosecutionFee,\n                            DisputeType disputeType)\n        internal\n        returns(RunningDispute storage dispute)\n    {\n        dispute = disputes[hash];\n        dispute.prosecution = prosecution;\n        dispute.defendant = defendant;\n        dispute.amount = amount;\n        dispute.prosecutionFee += prosecutionFee;\n        dispute.disputeType = disputeType;\n        /* We know the token is market token, save gas*/\n        if (disputeType == DisputeType.Report)\n            dispute.token = token;\n        dispute.status = DisputeStatus.WaitingDefendant;\n        dispute.lastInteraction = now;\n        dispute.metaEvidenceId = metaEvidenceCount++;\n        emit HasToPayFee(hash, Party.Defendant);\n    }\n\n    function disputeTimeout(bytes32 hash)\n        public\n    {\n        RunningDispute storage dispute = disputes[hash];\n        require(DisputeStatus.NoDispute < dispute.status && dispute.status < DisputeStatus.DisputeCreated, \"Dispute is not waiting for any party.\");\n        require(now - dispute.lastInteraction >= feeTimeout, \"Timeout time has not passed yet.\");\n        bool success;\n        if (dispute.prosecutionFee != 0) {\n            uint prosecutionFee = dispute.prosecutionFee;\n            dispute.prosecutionFee = 0;\n            (success, ) = dispute.prosecution.call{value: prosecutionFee}(\"\");\n        }\n        if (dispute.defendantFee != 0) {\n            uint defendantFee = dispute.defendantFee;\n            dispute.defendantFee = 0;\n            (success, ) = dispute.defendant.call{value: defendantFee}(\"\");\n        }\n        if(dispute.status == DisputeStatus.WaitingDefendant) {\n            executeReportRuling(dispute, uint(RulingOptions.ProsecutionWins));\n        } else {\n            executeReportRuling(dispute, uint(RulingOptions.DefendantWins));\n        }\n    }\n\n    function payArbitrationFee(bytes32 hash)\n        public\n        payable\n    {\n        RunningDispute storage dispute = disputes[hash];\n        uint arbitrationCost = arbitrator.arbitrationCost(reportExtraData);\n        require(DisputeStatus.NoDispute < dispute.status && dispute.status < DisputeStatus.DisputeCreated, \"Dispute has already been created.\");\n        require(msg.sender == dispute.prosecution || msg.sender == dispute.defendant, \"The caller must be the sender.\");\n\n        if (msg.sender == dispute.prosecution) {\n            dispute.prosecutionFee += msg.value;\n            require(dispute.prosecutionFee >= arbitrationCost, \"The prosecution fee must cover arbitration costs.\");\n            dispute.lastInteraction = now;\n            if (dispute.defendantFee < arbitrationCost) {\n                dispute.status = DisputeStatus.WaitingDefendant;\n                emit HasToPayFee(hash, Party.Defendant);\n            } else { // The receiver has also paid the fee. We create the dispute.\n                raiseDispute(hash, arbitrationCost);\n            }\n        } else {\n            dispute.defendantFee += msg.value;\n            require(dispute.defendantFee >= arbitrationCost, \"The prosecution fee must cover arbitration costs.\");\n            dispute.lastInteraction = now;\n            if (dispute.prosecutionFee < arbitrationCost) {\n                dispute.status = DisputeStatus.WaitingProsecution;\n                emit HasToPayFee(hash, Party.Prosecution);\n            } else { // The receiver has also paid the fee. We create the dispute.\n                raiseDispute(hash, arbitrationCost);\n            }\n        }\n    }\n\n    function raiseDispute(bytes32 hash, uint _arbitrationCost) \n        internal\n    {\n        RunningDispute storage dispute = disputes[hash];\n        dispute.status = DisputeStatus.DisputeCreated;\n        uint disputeId = arbitrator.createDispute{value: _arbitrationCost}(AMOUNT_OF_CHOICES, dispute.disputeType == DisputeType.Order ? orderExtraData : reportExtraData);\n        disputeIDtoHash[disputeId] = hash;\n        emit Dispute(arbitrator, disputeId, dispute.metaEvidenceId, dispute.metaEvidenceId);\n        // Refund sender if it overpaid.\n        bool success;\n        if (dispute.prosecutionFee > _arbitrationCost) {\n            uint extraFeeProsecution = dispute.prosecutionFee - _arbitrationCost;\n            dispute.prosecutionFee = _arbitrationCost;\n            (success, ) = dispute.prosecution.call{value: extraFeeProsecution}(\"\");\n        }\n\n        // Refund receiver if it overpaid.\n        if (dispute.defendantFee > _arbitrationCost) {\n            uint extraFeeDefendant = dispute.defendantFee - _arbitrationCost;\n            dispute.defendantFee = _arbitrationCost;\n            (success, ) = dispute.defendant.call{value: extraFeeDefendant}(\"\");\n        }\n    }\n\n    /** @dev Submit a reference to evidence. EVENT.\n     *  @param _hash The hash of the order.\n     *  @param _evidence A link to an evidence using its URI.\n     */\n    function submitEvidence(bytes32 _hash, string memory _evidence) public {\n        RunningDispute storage dispute = disputes[_hash];\n        require(\n            msg.sender == dispute.prosecution || msg.sender == dispute.defendant,\n            \"The caller must be the prosecution or the defendant.\"\n        );\n        require(dispute.disputeType == DisputeType.Order, \"Evidences are only allowed for orders disputes.\");\n        require(\n            dispute.status < DisputeStatus.Resolved,\n            \"Must not send evidence if the dispute is resolved.\"\n        );\n\n        emit Evidence(arbitrator, dispute.metaEvidenceId, msg.sender, _evidence);\n    }\n\n    /** @dev Appeal an appealable ruling. UNTRUSTED.\n     *  Transfer the funds to the arbitrator.\n     *  Note that no checks are required as the checks are done by the arbitrator.\n     *  @param _hash The hash of the order.\n     */\n    function appeal(bytes32 _hash) public payable {\n        RunningDispute storage dispute = disputes[_hash];\n        require(dispute.disputeType == DisputeType.Order, \"Appeals are only allowed for orders disputes.\");\n\n        arbitrator.appeal{ value: msg.value }(dispute.disputeId, orderExtraData);\n    }\n\n    function rule(uint _disputeID, uint _ruling)\n        public\n        override\n    {\n        bytes32 hash = disputeIDtoHash[_disputeID];\n        RunningDispute storage dispute = disputes[hash];\n        require(msg.sender == address(arbitrator), \"The caller must be the arbitrator.\");\n        require(dispute.status == DisputeStatus.DisputeCreated, \"The dispute has already been resolved.\");\n        emit Ruling(Arbitrator(msg.sender), _disputeID, _ruling);\n        if (dispute.disputeType == DisputeType.Report) {\n            executeReportRuling(dispute, _ruling);\n        } else {\n            executeOrderRuling(dispute, _ruling);\n            transactions[hash].status = Status.Finalized;\n        }\n    }\n\n    function executeOrderRuling(RunningDispute storage dispute, uint _ruling) \n        internal\n    {\n        require(_ruling <= AMOUNT_OF_CHOICES, \"Invalid ruling.\");\n\n        uint amount = dispute.amount;\n        uint prosecutionFee = dispute.prosecutionFee;\n        uint defendantFee = dispute.defendantFee;\n\n        dispute.amount = 0;\n        dispute.prosecutionFee = 0;\n        dispute.defendantFee = 0;\n        dispute.status = DisputeStatus.Resolved;\n        // Give the arbitration fee back.\n        // Note that we use `send` to prevent a party from blocking the execution.\n        bool success = false;\n        if (_ruling == uint(RulingOptions.ProsecutionWins)) {\n            (success, ) = dispute.prosecution.call{value: prosecutionFee}(\"\");\n            require(dispute.token.transfer(dispute.prosecution, amount), \"The `transfer` function must not fail.\");\n        } else if (_ruling == uint(RulingOptions.DefendantWins)) {\n            (success, ) = dispute.defendant.call{value: defendantFee}(\"\");\n            require(dispute.token.transfer(dispute.defendant, amount), \"The `transfer` function must not fail.\");\n        } else {\n            // `senderFee` and `receiverFee` are equal to the arbitration cost.\n            uint splitArbitrationFee = prosecutionFee / 2;\n            /* Give 1 wei more to defendant in case of even number */\n            (success, ) = dispute.defendant.call{value: defendantFee - splitArbitrationFee}(\"\");\n            (success, ) = dispute.prosecution.call{value: splitArbitrationFee}(\"\");\n            uint half = amount / 2;\n            require(dispute.token.transfer(dispute.defendant, amount - half), \"The `transfer` function must not fail.\");\n            require(dispute.token.transfer(dispute.prosecution, half), \"The `transfer` function must not fail.\");\n        }\n    }\n\n    function executeReportRuling(RunningDispute storage dispute, uint _ruling) \n        internal\n    {\n        require(_ruling <= AMOUNT_OF_CHOICES, \"Invalid ruling.\");\n\n        uint amount = dispute.amount;\n        uint prosecutionFee = dispute.prosecutionFee;\n        uint defendantFee = dispute.defendantFee;\n\n        dispute.amount = 0;\n        dispute.prosecutionFee = 0;\n        dispute.defendantFee = 0;\n        dispute.status = DisputeStatus.Resolved;\n        sellers[dispute.prosecution].lockedTokens -= dispute.amount;\n        sellers[dispute.defendant].lockedTokens -= dispute.amount;\n        // Give the arbitration fee back.\n        // Note that we use `send` to prevent a party from blocking the execution.\n        bool success = false;\n        if (_ruling == uint(RulingOptions.ProsecutionWins)) {\n            (success, ) = dispute.prosecution.call{value: prosecutionFee}(\"\");\n            sellers[dispute.defendant].balance -= amount;\n            sellers[dispute.prosecution].balance += amount / 2;\n            marketToken.burn(amount - (amount / 2));\n        } else if (_ruling == uint(RulingOptions.DefendantWins)) {\n            (success, ) = dispute.defendant.call{value: defendantFee}(\"\");\n            sellers[dispute.prosecution].balance -= amount;\n            sellers[dispute.defendant].balance += amount / 2;\n            marketToken.burn(amount - (amount / 2));\n        } else {\n            // `senderFee` and `receiverFee` are equal to the arbitration cost.\n            uint splitArbitrationFee = prosecutionFee / 2;\n            (success, ) = dispute.defendant.call{value: defendantFee - splitArbitrationFee}(\"\");\n            (success, ) = dispute.prosecution.call{value: splitArbitrationFee}(\"\");\n            // In the case of an uneven token amount, one basic token unit can be burnt.\n            sellers[dispute.prosecution].balance -= amount / 2;\n            sellers[dispute.defendant].balance -= amount / 2;\n            \n        }\n    }\n\n    function validateListing(bytes32 hash, Listing memory _listing, Sig memory sig)\n        internal\n        view\n        returns (bool)\n    {\n        /* Listing has expired */\n        if (_listing.expiration != 0 && now > _listing.expiration) {\n            return false;\n        }\n\n        /* Stake owner must have enough tokens */\n        if (sellers[_listing.stakeOwner].balance - sellers[_listing.stakeOwner].lockedTokens < _listing.stakedAmount) {\n            return false;\n        }\n        \n        /* Listing must have not been canceled or already filled. */\n        if (cancelledOrFinalized[hash]) {\n            return false;\n        }\n\n        /* Listing authentication. Listing must be either:\n        /* (a) previously approved */\n        if (approvedHashes[hash]) {\n            return true;\n        }\n\n        /* or (b) ECDSA-signed by stakeOwner. */\n        if (ecrecover(hash, sig.v, sig.r, sig.s) == _listing.stakeOwner) {\n            return true;\n        }\n\n        return false;\n    }\n\n    function validateOrder(bytes32 hash, Order memory order, Sig memory sig)\n        internal\n        view\n        returns (bool)\n    {\n        /* Order has expired */\n        if (order.expiration != 0 && now > order.expiration) {\n            return false;\n        }\n\n        /* Token contract must be allowed */\n        if (!contracts[address(order.token)]) {\n            return false;\n        }\n        \n        /* Listing must have not been canceled or already filled. */\n        if (cancelledOrFinalized[hash]) {\n            return false;\n        }\n\n        /* Order authentication. Order must be either:\n        /* (a) previously approved */\n        if (approvedHashes[hash]) {\n            return true;\n        }\n\n        /* or (b) ECDSA-signed by buyer. */\n        if (ecrecover(hash, sig.v, sig.r, sig.s) == order.buyer) {\n            return true;\n        }\n\n        return false;\n    }\n\n    function hashListing(Listing memory listing)\n        internal\n        pure\n        returns (bytes32 hash)\n    {\n        hash = keccak256(abi.encodePacked(listing.ipfsHash,\n                                            listing.seller,\n                                            listing.stakeOwner,\n                                            listing.stakedAmount,\n                                            listing.commissionPercentage,\n                                            listing.warranty,\n                                            listing.cashbackPercentage,\n                                            listing.expiration));\n        return hash;\n    }\n\n    function hashOrder(Order memory order)\n        internal\n        pure\n        returns (bytes32 hash)\n    {\n        hash = keccak256(abi.encodePacked(order.listingHash,\n                                            order.buyer,\n                                            order.commissioner,\n                                            order.token,\n                                            order.total,\n                                            order.shippingCost,\n                                            order.expiration,\n                                            order.confirmationTimeout));\n        return hash;\n    }\n\n    function hashToSign(bytes32 hash)\n        internal\n        pure\n        returns (bytes32)\n    {\n        return keccak256(abi.encodePacked(\"\\x19Ethereum Signed Message:\\n32\", hash));\n    }\n\n    function hashListingToSign(Listing memory listing)\n        internal\n        pure\n        returns (bytes32)\n    {\n        return hashToSign(hashListing(listing));\n    }\n\n    function hashOrderToSign(Order memory order)\n        internal\n        pure\n        returns (bytes32)\n    {\n        return hashToSign(hashOrder(order));\n    }\n\n    function requireValidListing(Listing memory listing, Sig memory sig)\n        internal\n        view\n        returns (bytes32)\n    {\n        bytes32 hash = hashListingToSign(listing);\n        require(validateListing(hash, listing, sig), \"Invalid listing\");\n        return hash;\n    }\n\n    function requireValidOrder(Order memory order, Sig memory sig)\n        internal\n        view\n        returns (bytes32)\n    {\n        bytes32 hash = hashOrderToSign(order);\n        require(validateOrder(hash, order, sig), \"Invalid order\");\n        return hash;\n    }\n}",
  "sourcePath": "/home/gustavo/dagora/contracts/marketplace/Dagora.sol",
  "compiler": {
    "name": "solc",
    "version": "0.6.8+commit.0bbfe453.Emscripten.clang"
  },
  "schemaVersion": "3.2.0",
  "updatedAt": "2020-05-28T01:04:43.707Z",
  "devdoc": {
    "methods": {
      "appeal(bytes32)": {
        "details": "Appeal an appealable ruling. UNTRUSTED. Transfer the funds to the arbitrator. Note that no checks are required as the checks are done by the arbitrator.",
        "params": {
          "_hash": "The hash of the order."
        }
      },
      "owner()": {
        "details": "Returns the address of the current owner."
      },
      "renounceOwnership()": {
        "details": "Leaves the contract without owner. It will not be possible to call `onlyOwner` functions anymore. Can only be called by the current owner.     * NOTE: Renouncing ownership will leave the contract without an owner, thereby removing any functionality that is only available to the owner."
      },
      "submitEvidence(bytes32,string)": {
        "details": "Submit a reference to evidence. EVENT.",
        "params": {
          "_evidence": "A link to an evidence using its URI.",
          "_hash": "The hash of the order."
        }
      },
      "transferOwnership(address)": {
        "details": "Transfers ownership of the contract to a new account (`newOwner`). Can only be called by the current owner."
      }
    }
  },
  "userdoc": {
    "methods": {}
  }
}