{
  "contractName": "DagoraPaymaster",
  "abi": [
    {
      "anonymous": false,
      "inputs": [
        {
          "indexed": true,
          "internalType": "address",
          "name": "previousOwner",
          "type": "address"
        },
        {
          "indexed": true,
          "internalType": "address",
          "name": "newOwner",
          "type": "address"
        }
      ],
      "name": "OwnershipTransferred",
      "type": "event"
    },
    {
      "inputs": [],
      "name": "dagora",
      "outputs": [
        {
          "internalType": "contract Dagora",
          "name": "",
          "type": "address"
        }
      ],
      "stateMutability": "view",
      "type": "function"
    },
    {
      "inputs": [],
      "name": "getGasLimits",
      "outputs": [
        {
          "components": [
            {
              "internalType": "uint256",
              "name": "acceptRelayedCallGasLimit",
              "type": "uint256"
            },
            {
              "internalType": "uint256",
              "name": "preRelayedCallGasLimit",
              "type": "uint256"
            },
            {
              "internalType": "uint256",
              "name": "postRelayedCallGasLimit",
              "type": "uint256"
            }
          ],
          "internalType": "struct GSNTypes.GasLimits",
          "name": "limits",
          "type": "tuple"
        }
      ],
      "stateMutability": "view",
      "type": "function"
    },
    {
      "inputs": [],
      "name": "getHubAddr",
      "outputs": [
        {
          "internalType": "address",
          "name": "",
          "type": "address"
        }
      ],
      "stateMutability": "view",
      "type": "function"
    },
    {
      "inputs": [],
      "name": "getRelayHubDeposit",
      "outputs": [
        {
          "internalType": "uint256",
          "name": "",
          "type": "uint256"
        }
      ],
      "stateMutability": "view",
      "type": "function"
    },
    {
      "inputs": [],
      "name": "owner",
      "outputs": [
        {
          "internalType": "address",
          "name": "",
          "type": "address"
        }
      ],
      "stateMutability": "view",
      "type": "function"
    },
    {
      "inputs": [],
      "name": "renounceOwnership",
      "outputs": [],
      "stateMutability": "nonpayable",
      "type": "function"
    },
    {
      "inputs": [
        {
          "internalType": "contract IRelayHub",
          "name": "hub",
          "type": "address"
        }
      ],
      "name": "setRelayHub",
      "outputs": [],
      "stateMutability": "nonpayable",
      "type": "function"
    },
    {
      "inputs": [
        {
          "internalType": "address",
          "name": "newOwner",
          "type": "address"
        }
      ],
      "name": "transferOwnership",
      "outputs": [],
      "stateMutability": "nonpayable",
      "type": "function"
    },
    {
      "inputs": [],
      "name": "uniswap",
      "outputs": [
        {
          "internalType": "contract IUniswap",
          "name": "",
          "type": "address"
        }
      ],
      "stateMutability": "view",
      "type": "function"
    },
    {
      "inputs": [
        {
          "internalType": "uint256",
          "name": "amount",
          "type": "uint256"
        },
        {
          "internalType": "address payable",
          "name": "target",
          "type": "address"
        }
      ],
      "name": "withdrawRelayHubDepositTo",
      "outputs": [],
      "stateMutability": "nonpayable",
      "type": "function"
    },
    {
      "stateMutability": "payable",
      "type": "receive"
    },
    {
      "inputs": [
        {
          "internalType": "address",
          "name": "_uniswap",
          "type": "address"
        }
      ],
      "name": "setUniswap",
      "outputs": [],
      "stateMutability": "nonpayable",
      "type": "function"
    },
    {
      "inputs": [
        {
          "internalType": "address",
          "name": "_dagora",
          "type": "address"
        }
      ],
      "name": "setDagora",
      "outputs": [],
      "stateMutability": "nonpayable",
      "type": "function"
    },
    {
      "inputs": [
        {
          "components": [
            {
              "internalType": "address",
              "name": "target",
              "type": "address"
            },
            {
              "internalType": "bytes",
              "name": "encodedFunction",
              "type": "bytes"
            },
            {
              "components": [
                {
                  "internalType": "uint256",
                  "name": "gasLimit",
                  "type": "uint256"
                },
                {
                  "internalType": "uint256",
                  "name": "gasPrice",
                  "type": "uint256"
                },
                {
                  "internalType": "uint256",
                  "name": "pctRelayFee",
                  "type": "uint256"
                },
                {
                  "internalType": "uint256",
                  "name": "baseRelayFee",
                  "type": "uint256"
                }
              ],
              "internalType": "struct GSNTypes.GasData",
              "name": "gasData",
              "type": "tuple"
            },
            {
              "components": [
                {
                  "internalType": "address",
                  "name": "senderAddress",
                  "type": "address"
                },
                {
                  "internalType": "uint256",
                  "name": "senderNonce",
                  "type": "uint256"
                },
                {
                  "internalType": "address",
                  "name": "relayWorker",
                  "type": "address"
                },
                {
                  "internalType": "address",
                  "name": "paymaster",
                  "type": "address"
                },
                {
                  "internalType": "address",
                  "name": "forwarder",
                  "type": "address"
                }
              ],
              "internalType": "struct GSNTypes.RelayData",
              "name": "relayData",
              "type": "tuple"
            }
          ],
          "internalType": "struct GSNTypes.RelayRequest",
          "name": "relayRequest",
          "type": "tuple"
        },
        {
          "internalType": "bytes",
          "name": "signature",
          "type": "bytes"
        },
        {
          "internalType": "bytes",
          "name": "approvalData",
          "type": "bytes"
        },
        {
          "internalType": "uint256",
          "name": "maxPossibleGas",
          "type": "uint256"
        }
      ],
      "name": "acceptRelayedCall",
      "outputs": [
        {
          "internalType": "bytes",
          "name": "",
          "type": "bytes"
        }
      ],
      "stateMutability": "view",
      "type": "function"
    },
    {
      "inputs": [
        {
          "internalType": "bytes",
          "name": "context",
          "type": "bytes"
        }
      ],
      "name": "preRelayedCall",
      "outputs": [
        {
          "internalType": "bytes32",
          "name": "",
          "type": "bytes32"
        }
      ],
      "stateMutability": "nonpayable",
      "type": "function"
    },
    {
      "inputs": [
        {
          "internalType": "bytes",
          "name": "context",
          "type": "bytes"
        },
        {
          "internalType": "bool",
          "name": "success",
          "type": "bool"
        },
        {
          "internalType": "bytes32",
          "name": "preRetVal",
          "type": "bytes32"
        },
        {
          "internalType": "uint256",
          "name": "gasUseWithoutPost",
          "type": "uint256"
        },
        {
          "components": [
            {
              "internalType": "uint256",
              "name": "gasLimit",
              "type": "uint256"
            },
            {
              "internalType": "uint256",
              "name": "gasPrice",
              "type": "uint256"
            },
            {
              "internalType": "uint256",
              "name": "pctRelayFee",
              "type": "uint256"
            },
            {
              "internalType": "uint256",
              "name": "baseRelayFee",
              "type": "uint256"
            }
          ],
          "internalType": "struct GSNTypes.GasData",
          "name": "gasData",
          "type": "tuple"
        }
      ],
      "name": "postRelayedCall",
      "outputs": [],
      "stateMutability": "nonpayable",
      "type": "function"
    },
    {
      "inputs": [],
      "name": "versionPaymaster",
      "outputs": [
        {
          "internalType": "string",
          "name": "",
          "type": "string"
        }
      ],
      "stateMutability": "view",
      "type": "function"
    }
  ],
  "bytecode": "0x608060405234801561001057600080fd5b50600061001b61006a565b600080546001600160a01b0319166001600160a01b0383169081178255604051929350917f8be0079c531659141344cd1fd0a4f28419497f9722a3daafe3b4186f6b6457e0908290a35061006e565b3390565b6113768061007d6000396000f3fe6080604052600436106100f75760003560e01c806374e861d61161008a5780638efecdda116100595780638efecdda1461030a578063921276ea1461032a578063f2fde38b1461033f578063fbfbd0f21461035f57610193565b806374e861d6146102a05780637bb05264146102b557806380274db7146102d55780638da5cb5b146102f557610193565b8063457a72b2116100c6578063457a72b21461022757806350c74d3a1461023c5780635ea54eee14610269578063715018a61461028b57610193565b80632681f7e4146101985780632afe31c1146101c35780632d14c4b7146101e55780633c19aceb1461020757610193565b36610193576001546001600160a01b031661012d5760405162461bcd60e51b81526004016101249061110d565b60405180910390fd5b60015460405163aa67c91960e01b81526001600160a01b039091169063aa67c91990349061015f90309060040161105b565b6000604051808303818588803b15801561017857600080fd5b505af115801561018c573d6000803e3d6000fd5b5050505050005b600080fd5b3480156101a457600080fd5b506101ad61037f565b6040516101ba919061105b565b60405180910390f35b3480156101cf57600080fd5b506101d861038e565b6040516101ba9190611089565b3480156101f157600080fd5b50610205610200366004610f24565b610414565b005b34801561021357600080fd5b50610205610222366004610c50565b6104af565b34801561023357600080fd5b506101ad6104d1565b34801561024857600080fd5b5061025c610257366004610e6b565b6104e0565b6040516101ba9190611092565b34801561027557600080fd5b5061027e61074f565b6040516101ba91906111cd565b34801561029757600080fd5b5061020561077f565b3480156102ac57600080fd5b506101ad6107fe565b3480156102c157600080fd5b506102056102d0366004610c50565b61080d565b3480156102e157600080fd5b506101d86102f0366004610da5565b610864565b34801561030157600080fd5b506101ad61086c565b34801561031657600080fd5b50610205610325366004610c50565b61087b565b34801561033657600080fd5b5061025c61089d565b34801561034b57600080fd5b5061020561035a366004610c50565b6108ba565b34801561036b57600080fd5b5061020561037a366004610de5565b6104a7565b6003546001600160a01b031681565b6001546040516370a0823160e01b81526000916001600160a01b0316906370a08231906103bf90309060040161105b565b60206040518083038186803b1580156103d757600080fd5b505afa1580156103eb573d6000803e3d6000fd5b505050506040513d601f19601f8201168201806040525081019061040f9190610f0c565b905090565b61041c610970565b6000546001600160a01b039081169116146104495760405162461bcd60e51b815260040161012490611198565b600154604051627b8a6760e11b81526001600160a01b039091169062f714ce9061047990859085906004016112a5565b600060405180830381600087803b15801561049357600080fd5b505af11580156104a7573d6000803e3d6000fd5b505050505050565b600280546001600160a01b0319166001600160a01b0392909216919091179055565b6002546001600160a01b031681565b606060006104f661016089016101408a01610c50565b6040516379763bed60e11b81529091506001600160a01b0382169063f2ec77da90610529908b908b908b906004016111ee565b60006040518083038186803b15801561054157600080fd5b505afa158015610555573d6000803e3d6000fd5b5050505060006105a889806020019061056e91906112bc565b8080601f01602080910402602001604051908101604052809392919081815260200183838082843760009201919091525061097492505050565b90506001600160e01b031981166320a1e5b560e01b1415610193576105cb610a22565b6105d860208b018b6112bc565b8101906105e59190610c73565b5050608081015160408083015190516370a0823160e01b81529294506001600160a01b0390911692506370a0823191610621919060040161105b565b60206040518083038186803b15801561063957600080fd5b505afa15801561064d573d6000803e3d6000fd5b505050506040513d601f19601f820116820180604052508101906106719190610f0c565b8160a00151106106935760405162461bcd60e51b815260040161012490611144565b60808101516040808301516002549151636eb1769f60e11b81526001600160a01b039384169363dd62ed3e936106cf939291169060040161106f565b60206040518083038186803b1580156106e757600080fd5b505afa1580156106fb573d6000803e3d6000fd5b505050506040513d601f19601f8201168201806040525081019061071f9190610f0c565b8160a0015111156107425760405162461bcd60e51b81526004016101249061116d565b5050509695505050505050565b610757610ab4565b604051806060016040528061c3508152602001620186a081526020016201adb0815250905090565b610787610970565b6000546001600160a01b039081169116146107b45760405162461bcd60e51b815260040161012490611198565b600080546040516001600160a01b03909116907f8be0079c531659141344cd1fd0a4f28419497f9722a3daafe3b4186f6b6457e0908390a3600080546001600160a01b0319169055565b6001546001600160a01b031690565b610815610970565b6000546001600160a01b039081169116146108425760405162461bcd60e51b815260040161012490611198565b600180546001600160a01b0319166001600160a01b0392909216919091179055565b600092915050565b6000546001600160a01b031690565b600380546001600160a01b0319166001600160a01b0392909216919091179055565b6040805180820190915260038152620312e360ec1b602082015290565b6108c2610970565b6000546001600160a01b039081169116146108ef5760405162461bcd60e51b815260040161012490611198565b6001600160a01b0381166109155760405162461bcd60e51b8152600401610124906110c7565b600080546040516001600160a01b03808516939216917f8be0079c531659141344cd1fd0a4f28419497f9722a3daafe3b4186f6b6457e091a3600080546001600160a01b0319166001600160a01b0392909216919091179055565b3390565b6000610981826000610987565b92915050565b600081600401835110156109ad576109ad6109a860038551856004016109c0565b610a1a565b5001602001516001600160e01b03191690565b6060632800659560e01b8484846040516024016109df939291906110a5565b60408051601f198184030181529190526020810180516001600160e01b03166001600160e01b03199093169290921790915290509392505050565b805160208201fd5b604051806101a00160405280610a36610ad5565b815260200160006001600160a01b0316815260200160006001600160a01b0316815260200160006001600160a01b0316815260200160006001600160a01b0316815260200160008152602001600081526020016000815260200160008152602001600081526020016000815260200160008152602001600081525090565b60405180606001604052806000815260200160008152602001600081525090565b6040518061010001604052806000801916815260200160006001600160a01b0316815260200160006001600160a01b0316815260200160008152602001600081526020016000815260200160008152602001600081525090565b803561098181611328565b60008083601f840112610b4b578182fd5b50813567ffffffffffffffff811115610b62578182fd5b602083019150836020828501011115610b7a57600080fd5b9250929050565b6000610100808385031215610b94578182fd5b610b9d81611301565b915050813581526020820135610bb281611328565b60208201526040820135610bc581611328565b80604083015250606082013560608201526080820135608082015260a082013560a082015260c082013560c082015260e082013560e082015292915050565b600060608284031215610c15578081fd5b610c1f6060611301565b9050813560ff81168114610c3257600080fd5b80825250602082013560208201526040820135604082015292915050565b600060208284031215610c61578081fd5b8135610c6c81611328565b9392505050565b600080600080848603610360811215610c8a578384fd5b85356001600160e01b031981168114610ca1578485fd5b9450610280601f198201811315610cb6578485fd5b6101a09150610cc482611301565b610cd18960208a01610b81565b8152610120610ce28a828b01610b2f565b6020830152610140610cf68b828c01610b2f565b6040840152610160610d0a8c828d01610b2f565b6060850152610180610d1e8d828e01610b2f565b6080860152958b013560a08501526101c08b013560c08501526101e08b013560e08501526102008b01356101008501526102208b0135928401929092526102408a0135908301526102608901359082015290870135918101919091529250610d8a866102a08701610c04565b9150610d9a866103008701610c04565b905092959194509250565b60008060208385031215610db7578182fd5b823567ffffffffffffffff811115610dcd578283fd5b610dd985828601610b3a565b90969095509350505050565b600080600080600080868803610100811215610dff578283fd5b873567ffffffffffffffff811115610e15578384fd5b610e218a828b01610b3a565b90985096505060208801358015158114610e39578384fd5b945060408801359350606088013592506080607f1982011215610e5a578182fd5b506080870190509295509295509295565b60008060008060008060808789031215610e83578384fd5b863567ffffffffffffffff80821115610e9a578586fd5b90880190610160828b031215610eae578586fd5b90965060208801359080821115610ec3578586fd5b610ecf8a838b01610b3a565b90975095506040890135915080821115610ee7578384fd5b50610ef489828a01610b3a565b979a9699509497949695606090950135949350505050565b600060208284031215610f1d578081fd5b5051919050565b60008060408385031215610f36578182fd5b823591506020830135610f4881611328565b809150509250929050565b60008284528282602086013780602084860101526020601f19601f85011685010190509392505050565b60008151808452815b81811015610fa257602081850181015186830182015201610f86565b81811115610fb35782602083870101525b50601f01601f19169290920160200192915050565b803582526020810135602083015260408101356040830152606081013560608301525050565b8035610ff981611328565b6001600160a01b0390811683526020828101359084015260408201359061101f82611328565b908116604084015260608201359061103682611328565b908116606084015260808201359061104d82611328565b808216608085015250505050565b6001600160a01b0391909116815260200190565b6001600160a01b0392831681529116602082015260400190565b90815260200190565b600060208252610c6c6020830184610f7d565b60608101600885106110b357fe5b938152602081019290925260409091015290565b60208082526026908201527f4f776e61626c653a206e6577206f776e657220697320746865207a65726f206160408201526564647265737360d01b606082015260800190565b60208082526019908201527f72656c6179206875622061646472657373206e6f742073657400000000000000604082015260600190565b6020808252600f908201526e62616c616e636520746f6f206c6f7760881b604082015260600190565b602080825260119082015270616c6c6f77616e636520746f6f206c6f7760781b604082015260600190565b6020808252818101527f4f776e61626c653a2063616c6c6572206973206e6f7420746865206f776e6572604082015260600190565b81518152602080830151908201526040918201519181019190915260600190565b60006040825284356111ff81611328565b6001600160a01b03166040830152602085013536869003601e19018112611224578182fd5b8501803567ffffffffffffffff81111561123c578283fd5b80360387131561124a578283fd5b61016060608501526112646101a085018260208501610f53565b9150506112776080840160408801610fc8565b611288610100840160c08801610fee565b828103602084015261129b818587610f53565b9695505050505050565b9182526001600160a01b0316602082015260400190565b6000808335601e198436030181126112d2578283fd5b83018035915067ffffffffffffffff8211156112ec578283fd5b602001915036819003821315610b7a57600080fd5b60405181810167ffffffffffffffff8111828210171561132057600080fd5b604052919050565b6001600160a01b038116811461133d57600080fd5b5056fea2646970667358221220940d588dc25c98b1d6be962c354d9715b347f4ac43e6d8cc43d7354aacdb04fd64736f6c634300060c0033",
  "immutableReferences": {},
  "source": "// SPDX-License-Identifier: MIT\npragma solidity ^0.6.2;\npragma experimental ABIEncoderV2;\n\nimport \"@opengsn/gsn/contracts/BasePaymaster.sol\";\nimport \"@opengsn/gsn/contracts/utils/GsnUtils.sol\";\nimport \"@opengsn/gsn/contracts/paymaster/IUniswap.sol\";\nimport \"@opengsn/gsn/contracts/interfaces/ITrustedForwarder.sol\";\nimport \"../marketplace/Dagora.sol\";\n\ncontract DagoraPaymaster is BasePaymaster {\n    Dagora public dagora;\n    IUniswap public uniswap;\n\n    function setUniswap(address _uniswap) external {\n        uniswap = IUniswap(_uniswap);\n    }\n\n    function setDagora(address _dagora) external {\n        dagora = Dagora(_dagora);\n    }\n\n    function acceptRelayedCall(\n        GSNTypes.RelayRequest calldata relayRequest,\n        bytes calldata signature,\n        bytes calldata approvalData,\n        uint256 maxPossibleGas\n    ) external override view returns (bytes memory) {\n        (approvalData);\n        ITrustedForwarder forwarder = ITrustedForwarder(\n            relayRequest.relayData.forwarder\n        );\n        forwarder.verify(relayRequest, signature);\n        bytes4 func = GsnUtils.getMethodSig(relayRequest.encodedFunction);\n        if (func == Dagora.createTransaction.selector) {\n            Dagora.Order memory order;\n            (, order, , ) = abi.decode(\n                relayRequest.encodedFunction, // TODO remove first 4 bytes\n                (bytes4, Dagora.Order, Dagora.Sig, Dagora.Sig)\n            );\n            // uint256 ethMaxCharge = relayHub.calculateCharge(\n            //     maxPossibleGas,\n            //     relayRequest.gasData\n            // );\n            // uint256 tokenPreCharge = uniswap.getTokenToEthOutputPrice(\n            //     ethMaxCharge\n            // );\n            // require(\n            //     dagora.availableToken(order) > tokenPreCharge,\n            //     \"Order must be more expensive to include the gas fee\"\n            // );\n            require(\n                order.total < order.token.balanceOf(order.buyer),\n                \"balance too low\"\n            );\n            require(\n                order.total <=\n                    order.token.allowance(order.buyer, address(dagora)),\n                \"allowance too low\"\n            );\n            // return abi.encode(tokenPreCharge);\n        } else {\n            revert();\n        }\n    }\n\n    function preRelayedCall(bytes calldata context)\n        external\n        override\n        returns (bytes32)\n    {}\n\n    function postRelayedCall(\n        bytes calldata context,\n        bool success,\n        bytes32 preRetVal,\n        uint256 gasUseWithoutPost,\n        GSNTypes.GasData calldata gasData\n    ) external override {}\n\n    function versionPaymaster() external override view returns (string memory) {\n        return \"1.0\";\n    }\n}\n",
  "sourcePath": "/home/gustavo/projects/dagora/contracts/gsn/DagoraPaymaster.sol",
  "compiler": {
    "name": "solc",
    "version": "0.6.12+commit.27d51765.Emscripten.clang"
  },
  "schemaVersion": "3.2.3",
  "updatedAt": "2020-08-10T02:43:00.582Z",
  "devdoc": {
    "kind": "dev",
    "methods": {
      "acceptRelayedCall((address,bytes,(uint256,uint256,uint256,uint256),(address,uint256,address,address,address)),bytes,bytes,uint256)": {
        "params": {
          "approvalData": "- extra dapp-specific data (e.g. signature from trusted party)",
          "maxPossibleGas": "- based on values returned from {@link getGasLimits},         the RelayHub will calculate the maximum possible amount of gas the user may be charged for.         In order to convert this value to wei, the Paymaster has to call \"relayHub.calculateCharge()\"",
          "relayRequest": "- the full relay request structure",
          "signature": "- user's EIP712-compatible signature of the {@link relayRequest}"
        },
        "returns": {
          "_0": "a context to be passed to preRelayedCall and postRelayedCall."
        }
      },
      "owner()": {
        "details": "Returns the address of the current owner."
      },
      "postRelayedCall(bytes,bool,bytes32,uint256,(uint256,uint256,uint256,uint256))": {
        "params": {
          "gasUseWithoutPost": "- the actual amount of gas used by the entire transaction. Does not included any estimate of how much gas PostRelayCall itself will consume. NOTE: The gas overhead estimation is included in this number.",
          "preRetVal": "- preRelayedCall() return value passed back to the recipient Revert in this functions causes a revert of the client's relayed call but not in the entire transaction (that is, the relay will still get compensated)",
          "success": "- true if the relayed call succeeded, false if it reverted"
        }
      },
      "renounceOwnership()": {
        "details": "Leaves the contract without owner. It will not be possible to call `onlyOwner` functions anymore. Can only be called by the current owner. NOTE: Renouncing ownership will leave the contract without an owner, thereby removing any functionality that is only available to the owner."
      },
      "transferOwnership(address)": {
        "details": "Transfers ownership of the contract to a new account (`newOwner`). Can only be called by the current owner."
      }
    },
    "version": 1
  },
  "userdoc": {
    "kind": "user",
    "methods": {
      "acceptRelayedCall((address,bytes,(uint256,uint256,uint256,uint256),(address,uint256,address,address,address)),bytes,bytes,uint256)": {
        "notice": "Called by Relay (and RelayHub), to validate if this recipient accepts this call. revert to signal the paymaster will NOT pay for this call. Note: Accepting this call means paying for the tx whether the relayed call reverted or not."
      },
      "getGasLimits()": {
        "notice": "The RelayHub will call accept-, pre-, and post-, RelayCall methods with these values for their gas limits."
      },
      "getHubAddr()": {
        "notice": "return the relayHub of this contract."
      },
      "getRelayHubDeposit()": {
        "notice": "check current deposit on relay hub."
      },
      "postRelayedCall(bytes,bool,bytes32,uint256,(uint256,uint256,uint256,uint256))": {
        "notice": "This method is called after the actual relayed function call. It may be used to record the transaction (e.g. charge the caller by some contract logic) for this call. the method is given all parameters of acceptRelayedCall, and also the success/failure status and actual used gas. NOTICE: if this method modifies the contract's state, it must be protected with access control i.e. require msg.sender == getHubAddr()"
      },
      "preRelayedCall(bytes)": {
        "notice": "this method is called before the actual relayed function call. It may be used to charge the caller before (in conjunction with refunding him later in postRelayedCall for example). the method is given all parameters of acceptRelayedCall and actual used gas. NOTICE: if this method modifies the contract's state, it must be protected with access control i.e. require msg.sender == getHubAddr() Revert in this functions causes a revert of the client's relayed call but not in the entire transaction (that is, the relay will still get compensated)"
      },
      "withdrawRelayHubDepositTo(uint256,address)": {
        "notice": "withdraw deposit from relayHub"
      }
    },
    "version": 1
  }
}