{
  "contractName": "Dagora",
  "abi": [
    {
      "inputs": [
        {
          "internalType": "address",
          "name": "_arbitrator",
          "type": "address"
        },
        {
          "internalType": "address",
          "name": "_token",
          "type": "address"
        },
        {
          "internalType": "address",
          "name": "_protocolFeeRecipient",
          "type": "address"
        },
        {
          "internalType": "uint256",
          "name": "_feeTimeoutDays",
          "type": "uint256"
        },
        {
          "internalType": "uint256",
          "name": "_blacklistTimeoutDays",
          "type": "uint256"
        },
        {
          "internalType": "uint256",
          "name": "_protocolFeePercentage",
          "type": "uint256"
        },
        {
          "internalType": "uint256",
          "name": "_tokenOwnerFeePercentage",
          "type": "uint256"
        },
        {
          "internalType": "bytes",
          "name": "_reportExtraData",
          "type": "bytes"
        },
        {
          "internalType": "bytes",
          "name": "_orderExtraData",
          "type": "bytes"
        },
        {
          "internalType": "string",
          "name": "_ipfsDomain",
          "type": "string"
        }
      ],
      "stateMutability": "nonpayable",
      "type": "constructor"
    },
    {
      "anonymous": false,
      "inputs": [
        {
          "indexed": true,
          "internalType": "contract Arbitrator",
          "name": "_arbitrator",
          "type": "address"
        },
        {
          "indexed": true,
          "internalType": "uint256",
          "name": "_disputeID",
          "type": "uint256"
        },
        {
          "indexed": false,
          "internalType": "uint256",
          "name": "_metaEvidenceID",
          "type": "uint256"
        },
        {
          "indexed": false,
          "internalType": "uint256",
          "name": "_evidenceGroupID",
          "type": "uint256"
        }
      ],
      "name": "Dispute",
      "type": "event"
    },
    {
      "anonymous": false,
      "inputs": [
        {
          "indexed": true,
          "internalType": "contract Arbitrator",
          "name": "_arbitrator",
          "type": "address"
        },
        {
          "indexed": true,
          "internalType": "uint256",
          "name": "_evidenceGroupID",
          "type": "uint256"
        },
        {
          "indexed": true,
          "internalType": "address",
          "name": "_party",
          "type": "address"
        },
        {
          "indexed": false,
          "internalType": "string",
          "name": "_evidence",
          "type": "string"
        }
      ],
      "name": "Evidence",
      "type": "event"
    },
    {
      "anonymous": false,
      "inputs": [
        {
          "indexed": true,
          "internalType": "bytes32",
          "name": "_hash",
          "type": "bytes32"
        },
        {
          "indexed": false,
          "internalType": "enum Dagora.Party",
          "name": "_party",
          "type": "uint8"
        }
      ],
      "name": "HasToPayFee",
      "type": "event"
    },
    {
      "anonymous": false,
      "inputs": [
        {
          "indexed": true,
          "internalType": "bytes32",
          "name": "hash",
          "type": "bytes32"
        }
      ],
      "name": "ListingApproved",
      "type": "event"
    },
    {
      "anonymous": false,
      "inputs": [
        {
          "indexed": true,
          "internalType": "bytes32",
          "name": "hash",
          "type": "bytes32"
        }
      ],
      "name": "ListingCancelled",
      "type": "event"
    },
    {
      "anonymous": false,
      "inputs": [
        {
          "indexed": true,
          "internalType": "uint256",
          "name": "_metaEvidenceID",
          "type": "uint256"
        },
        {
          "indexed": false,
          "internalType": "string",
          "name": "_evidence",
          "type": "string"
        }
      ],
      "name": "MetaEvidence",
      "type": "event"
    },
    {
      "anonymous": false,
      "inputs": [
        {
          "indexed": true,
          "internalType": "bytes32",
          "name": "hash",
          "type": "bytes32"
        }
      ],
      "name": "OrderApproved",
      "type": "event"
    },
    {
      "anonymous": false,
      "inputs": [
        {
          "indexed": true,
          "internalType": "bytes32",
          "name": "hash",
          "type": "bytes32"
        }
      ],
      "name": "OrderCancelled",
      "type": "event"
    },
    {
      "anonymous": false,
      "inputs": [
        {
          "indexed": true,
          "internalType": "address",
          "name": "previousOwner",
          "type": "address"
        },
        {
          "indexed": true,
          "internalType": "address",
          "name": "newOwner",
          "type": "address"
        }
      ],
      "name": "OwnershipTransferred",
      "type": "event"
    },
    {
      "anonymous": false,
      "inputs": [
        {
          "indexed": true,
          "internalType": "contract Arbitrator",
          "name": "_arbitrator",
          "type": "address"
        },
        {
          "indexed": true,
          "internalType": "uint256",
          "name": "_disputeID",
          "type": "uint256"
        },
        {
          "indexed": false,
          "internalType": "uint256",
          "name": "_ruling",
          "type": "uint256"
        }
      ],
      "name": "Ruling",
      "type": "event"
    },
    {
      "anonymous": false,
      "inputs": [
        {
          "indexed": true,
          "internalType": "address",
          "name": "sender",
          "type": "address"
        },
        {
          "indexed": false,
          "internalType": "uint256",
          "name": "value",
          "type": "uint256"
        }
      ],
      "name": "TokenDeposited",
      "type": "event"
    },
    {
      "anonymous": false,
      "inputs": [
        {
          "indexed": true,
          "internalType": "address",
          "name": "addr",
          "type": "address"
        }
      ],
      "name": "TokenGranted",
      "type": "event"
    },
    {
      "anonymous": false,
      "inputs": [
        {
          "indexed": true,
          "internalType": "address",
          "name": "addr",
          "type": "address"
        }
      ],
      "name": "TokenRevoked",
      "type": "event"
    },
    {
      "anonymous": false,
      "inputs": [
        {
          "indexed": true,
          "internalType": "address",
          "name": "sender",
          "type": "address"
        },
        {
          "indexed": false,
          "internalType": "uint256",
          "name": "value",
          "type": "uint256"
        }
      ],
      "name": "TokenWithdrawed",
      "type": "event"
    },
    {
      "anonymous": false,
      "inputs": [
        {
          "indexed": true,
          "internalType": "bytes32",
          "name": "hash",
          "type": "bytes32"
        },
        {
          "indexed": true,
          "internalType": "address",
          "name": "buyer",
          "type": "address"
        },
        {
          "indexed": true,
          "internalType": "address",
          "name": "seller",
          "type": "address"
        },
        {
          "indexed": false,
          "internalType": "address",
          "name": "stakeOwner",
          "type": "address"
        },
        {
          "indexed": false,
          "internalType": "address",
          "name": "commissioner",
          "type": "address"
        },
        {
          "indexed": false,
          "internalType": "contract ERC20",
          "name": "token",
          "type": "address"
        },
        {
          "indexed": false,
          "internalType": "uint256",
          "name": "total",
          "type": "uint256"
        },
        {
          "indexed": false,
          "internalType": "uint256",
          "name": "commissionPercentage",
          "type": "uint256"
        },
        {
          "indexed": false,
          "internalType": "uint256",
          "name": "cashbackPercentage",
          "type": "uint256"
        },
        {
          "indexed": false,
          "internalType": "uint256",
          "name": "confirmationTimeout",
          "type": "uint256"
        }
      ],
      "name": "TransactionCreated",
      "type": "event"
    },
    {
      "anonymous": false,
      "inputs": [
        {
          "indexed": true,
          "internalType": "bytes32",
          "name": "hash",
          "type": "bytes32"
        }
      ],
      "name": "TransactionFinalized",
      "type": "event"
    },
    {
      "anonymous": false,
      "inputs": [
        {
          "indexed": true,
          "internalType": "bytes32",
          "name": "hash",
          "type": "bytes32"
        },
        {
          "indexed": false,
          "internalType": "uint256",
          "name": "value",
          "type": "uint256"
        }
      ],
      "name": "TransactionRefunded",
      "type": "event"
    },
    {
      "anonymous": false,
      "inputs": [
        {
          "indexed": true,
          "internalType": "bytes32",
          "name": "hash",
          "type": "bytes32"
        }
      ],
      "name": "WarrantyClaimed",
      "type": "event"
    },
    {
      "inputs": [],
      "name": "INVERSE_BASIS_POINT",
      "outputs": [
        {
          "internalType": "uint256",
          "name": "",
          "type": "uint256"
        }
      ],
      "stateMutability": "view",
      "type": "function"
    },
    {
      "inputs": [
        {
          "internalType": "bytes32",
          "name": "",
          "type": "bytes32"
        }
      ],
      "name": "approvedHashes",
      "outputs": [
        {
          "internalType": "bool",
          "name": "",
          "type": "bool"
        }
      ],
      "stateMutability": "view",
      "type": "function"
    },
    {
      "inputs": [],
      "name": "arbitrator",
      "outputs": [
        {
          "internalType": "contract Arbitrator",
          "name": "",
          "type": "address"
        }
      ],
      "stateMutability": "view",
      "type": "function"
    },
    {
      "inputs": [
        {
          "internalType": "address",
          "name": "",
          "type": "address"
        },
        {
          "internalType": "address",
          "name": "",
          "type": "address"
        }
      ],
      "name": "balances",
      "outputs": [
        {
          "internalType": "uint256",
          "name": "",
          "type": "uint256"
        }
      ],
      "stateMutability": "view",
      "type": "function"
    },
    {
      "inputs": [],
      "name": "blackListTimeout",
      "outputs": [
        {
          "internalType": "uint256",
          "name": "",
          "type": "uint256"
        }
      ],
      "stateMutability": "view",
      "type": "function"
    },
    {
      "inputs": [
        {
          "internalType": "bytes32",
          "name": "",
          "type": "bytes32"
        }
      ],
      "name": "cancelledOrFinalized",
      "outputs": [
        {
          "internalType": "bool",
          "name": "",
          "type": "bool"
        }
      ],
      "stateMutability": "view",
      "type": "function"
    },
    {
      "inputs": [
        {
          "internalType": "address",
          "name": "",
          "type": "address"
        }
      ],
      "name": "contracts",
      "outputs": [
        {
          "internalType": "bool",
          "name": "",
          "type": "bool"
        }
      ],
      "stateMutability": "view",
      "type": "function"
    },
    {
      "inputs": [
        {
          "internalType": "uint256",
          "name": "",
          "type": "uint256"
        }
      ],
      "name": "disputeIDtoHash",
      "outputs": [
        {
          "internalType": "bytes32",
          "name": "",
          "type": "bytes32"
        }
      ],
      "stateMutability": "view",
      "type": "function"
    },
    {
      "inputs": [
        {
          "internalType": "bytes32",
          "name": "",
          "type": "bytes32"
        }
      ],
      "name": "disputes",
      "outputs": [
        {
          "internalType": "address payable",
          "name": "prosecution",
          "type": "address"
        },
        {
          "internalType": "address payable",
          "name": "defendant",
          "type": "address"
        },
        {
          "internalType": "uint256",
          "name": "amount",
          "type": "uint256"
        },
        {
          "internalType": "contract ERC20",
          "name": "token",
          "type": "address"
        },
        {
          "internalType": "uint256",
          "name": "prosecutionFee",
          "type": "uint256"
        },
        {
          "internalType": "uint256",
          "name": "defendantFee",
          "type": "uint256"
        },
        {
          "internalType": "enum Dagora.DisputeType",
          "name": "disputeType",
          "type": "uint8"
        },
        {
          "internalType": "uint256",
          "name": "lastInteraction",
          "type": "uint256"
        },
        {
          "internalType": "uint256",
          "name": "metaEvidenceId",
          "type": "uint256"
        },
        {
          "internalType": "uint256",
          "name": "disputeId",
          "type": "uint256"
        },
        {
          "internalType": "enum Dagora.DisputeStatus",
          "name": "status",
          "type": "uint8"
        }
      ],
      "stateMutability": "view",
      "type": "function"
    },
    {
      "inputs": [],
      "name": "feeTimeout",
      "outputs": [
        {
          "internalType": "uint256",
          "name": "",
          "type": "uint256"
        }
      ],
      "stateMutability": "view",
      "type": "function"
    },
    {
      "inputs": [],
      "name": "ipfsDomain",
      "outputs": [
        {
          "internalType": "string",
          "name": "",
          "type": "string"
        }
      ],
      "stateMutability": "view",
      "type": "function"
    },
    {
      "inputs": [],
      "name": "marketToken",
      "outputs": [
        {
          "internalType": "contract ERC20Burnable",
          "name": "",
          "type": "address"
        }
      ],
      "stateMutability": "view",
      "type": "function"
    },
    {
      "inputs": [],
      "name": "metaEvidenceCount",
      "outputs": [
        {
          "internalType": "uint256",
          "name": "",
          "type": "uint256"
        }
      ],
      "stateMutability": "view",
      "type": "function"
    },
    {
      "inputs": [],
      "name": "orderExtraData",
      "outputs": [
        {
          "internalType": "bytes",
          "name": "",
          "type": "bytes"
        }
      ],
      "stateMutability": "view",
      "type": "function"
    },
    {
      "inputs": [],
      "name": "owner",
      "outputs": [
        {
          "internalType": "address",
          "name": "",
          "type": "address"
        }
      ],
      "stateMutability": "view",
      "type": "function"
    },
    {
      "inputs": [],
      "name": "protocolFeePercentage",
      "outputs": [
        {
          "internalType": "uint256",
          "name": "",
          "type": "uint256"
        }
      ],
      "stateMutability": "view",
      "type": "function"
    },
    {
      "inputs": [],
      "name": "protocolFeeRecipient",
      "outputs": [
        {
          "internalType": "address",
          "name": "",
          "type": "address"
        }
      ],
      "stateMutability": "view",
      "type": "function"
    },
    {
      "inputs": [],
      "name": "renounceOwnership",
      "outputs": [],
      "stateMutability": "nonpayable",
      "type": "function"
    },
    {
      "inputs": [],
      "name": "reportExtraData",
      "outputs": [
        {
          "internalType": "bytes",
          "name": "",
          "type": "bytes"
        }
      ],
      "stateMutability": "view",
      "type": "function"
    },
    {
      "inputs": [
        {
          "internalType": "address",
          "name": "",
          "type": "address"
        }
      ],
      "name": "sellers",
      "outputs": [
        {
          "internalType": "uint256",
          "name": "balance",
          "type": "uint256"
        },
        {
          "internalType": "uint256",
          "name": "lockedTokens",
          "type": "uint256"
        },
        {
          "internalType": "uint256",
          "name": "blackListExpire",
          "type": "uint256"
        }
      ],
      "stateMutability": "view",
      "type": "function"
    },
    {
      "inputs": [],
      "name": "tokenOwnerFeePercentage",
      "outputs": [
        {
          "internalType": "uint256",
          "name": "",
          "type": "uint256"
        }
      ],
      "stateMutability": "view",
      "type": "function"
    },
    {
      "inputs": [
        {
          "internalType": "bytes32",
          "name": "",
          "type": "bytes32"
        }
      ],
      "name": "transactions",
      "outputs": [
        {
          "internalType": "uint256",
          "name": "lastStatusUpdate",
          "type": "uint256"
        },
        {
          "internalType": "uint256",
          "name": "refund",
          "type": "uint256"
        },
        {
          "internalType": "enum Dagora.Status",
          "name": "status",
          "type": "uint8"
        }
      ],
      "stateMutability": "view",
      "type": "function"
    },
    {
      "inputs": [
        {
          "internalType": "address",
          "name": "newOwner",
          "type": "address"
        }
      ],
      "name": "transferOwnership",
      "outputs": [],
      "stateMutability": "nonpayable",
      "type": "function"
    },
    {
      "inputs": [
        {
          "internalType": "address",
          "name": "addr",
          "type": "address"
        }
      ],
      "name": "grantAuthentication",
      "outputs": [],
      "stateMutability": "nonpayable",
      "type": "function"
    },
    {
      "inputs": [
        {
          "internalType": "address",
          "name": "addr",
          "type": "address"
        }
      ],
      "name": "revokeAuthentication",
      "outputs": [],
      "stateMutability": "nonpayable",
      "type": "function"
    },
    {
      "inputs": [
        {
          "internalType": "uint256",
          "name": "value",
          "type": "uint256"
        }
      ],
      "name": "depositTokens",
      "outputs": [],
      "stateMutability": "nonpayable",
      "type": "function"
    },
    {
      "inputs": [
        {
          "internalType": "uint256",
          "name": "value",
          "type": "uint256"
        }
      ],
      "name": "withdrawTokens",
      "outputs": [],
      "stateMutability": "nonpayable",
      "type": "function"
    },
    {
      "inputs": [
        {
          "components": [
            {
              "internalType": "bytes32",
              "name": "ipfsHash",
              "type": "bytes32"
            },
            {
              "internalType": "address payable",
              "name": "seller",
              "type": "address"
            },
            {
              "internalType": "address payable",
              "name": "stakeOwner",
              "type": "address"
            },
            {
              "internalType": "uint256",
              "name": "stakedAmount",
              "type": "uint256"
            },
            {
              "internalType": "uint256",
              "name": "commissionPercentage",
              "type": "uint256"
            },
            {
              "internalType": "uint256",
              "name": "warranty",
              "type": "uint256"
            },
            {
              "internalType": "uint256",
              "name": "cashbackPercentage",
              "type": "uint256"
            },
            {
              "internalType": "uint256",
              "name": "expiration",
              "type": "uint256"
            }
          ],
          "internalType": "struct Dagora.Listing",
          "name": "_listing",
          "type": "tuple"
        }
      ],
      "name": "approveListing",
      "outputs": [
        {
          "internalType": "bool",
          "name": "",
          "type": "bool"
        }
      ],
      "stateMutability": "nonpayable",
      "type": "function"
    },
    {
      "inputs": [
        {
          "components": [
            {
              "components": [
                {
                  "internalType": "bytes32",
                  "name": "ipfsHash",
                  "type": "bytes32"
                },
                {
                  "internalType": "address payable",
                  "name": "seller",
                  "type": "address"
                },
                {
                  "internalType": "address payable",
                  "name": "stakeOwner",
                  "type": "address"
                },
                {
                  "internalType": "uint256",
                  "name": "stakedAmount",
                  "type": "uint256"
                },
                {
                  "internalType": "uint256",
                  "name": "commissionPercentage",
                  "type": "uint256"
                },
                {
                  "internalType": "uint256",
                  "name": "warranty",
                  "type": "uint256"
                },
                {
                  "internalType": "uint256",
                  "name": "cashbackPercentage",
                  "type": "uint256"
                },
                {
                  "internalType": "uint256",
                  "name": "expiration",
                  "type": "uint256"
                }
              ],
              "internalType": "struct Dagora.Listing",
              "name": "listing",
              "type": "tuple"
            },
            {
              "internalType": "address payable",
              "name": "buyer",
              "type": "address"
            },
            {
              "internalType": "address payable",
              "name": "commissioner",
              "type": "address"
            },
            {
              "internalType": "contract ERC20",
              "name": "token",
              "type": "address"
            },
            {
              "internalType": "uint256",
              "name": "total",
              "type": "uint256"
            },
            {
              "internalType": "uint256",
              "name": "shippingCost",
              "type": "uint256"
            },
            {
              "internalType": "uint256",
              "name": "expiration",
              "type": "uint256"
            },
            {
              "internalType": "uint256",
              "name": "confirmationTimeout",
              "type": "uint256"
            }
          ],
          "internalType": "struct Dagora.Order",
          "name": "order",
          "type": "tuple"
        }
      ],
      "name": "approveOrder",
      "outputs": [
        {
          "internalType": "bool",
          "name": "",
          "type": "bool"
        }
      ],
      "stateMutability": "nonpayable",
      "type": "function"
    },
    {
      "inputs": [
        {
          "components": [
            {
              "components": [
                {
                  "internalType": "bytes32",
                  "name": "ipfsHash",
                  "type": "bytes32"
                },
                {
                  "internalType": "address payable",
                  "name": "seller",
                  "type": "address"
                },
                {
                  "internalType": "address payable",
                  "name": "stakeOwner",
                  "type": "address"
                },
                {
                  "internalType": "uint256",
                  "name": "stakedAmount",
                  "type": "uint256"
                },
                {
                  "internalType": "uint256",
                  "name": "commissionPercentage",
                  "type": "uint256"
                },
                {
                  "internalType": "uint256",
                  "name": "warranty",
                  "type": "uint256"
                },
                {
                  "internalType": "uint256",
                  "name": "cashbackPercentage",
                  "type": "uint256"
                },
                {
                  "internalType": "uint256",
                  "name": "expiration",
                  "type": "uint256"
                }
              ],
              "internalType": "struct Dagora.Listing",
              "name": "listing",
              "type": "tuple"
            },
            {
              "internalType": "address payable",
              "name": "buyer",
              "type": "address"
            },
            {
              "internalType": "address payable",
              "name": "commissioner",
              "type": "address"
            },
            {
              "internalType": "contract ERC20",
              "name": "token",
              "type": "address"
            },
            {
              "internalType": "uint256",
              "name": "total",
              "type": "uint256"
            },
            {
              "internalType": "uint256",
              "name": "shippingCost",
              "type": "uint256"
            },
            {
              "internalType": "uint256",
              "name": "expiration",
              "type": "uint256"
            },
            {
              "internalType": "uint256",
              "name": "confirmationTimeout",
              "type": "uint256"
            }
          ],
          "internalType": "struct Dagora.Order",
          "name": "_order",
          "type": "tuple"
        },
        {
          "components": [
            {
              "internalType": "uint8",
              "name": "v",
              "type": "uint8"
            },
            {
              "internalType": "bytes32",
              "name": "r",
              "type": "bytes32"
            },
            {
              "internalType": "bytes32",
              "name": "s",
              "type": "bytes32"
            }
          ],
          "internalType": "struct Dagora.Sig",
          "name": "orderSig",
          "type": "tuple"
        },
        {
          "components": [
            {
              "internalType": "uint8",
              "name": "v",
              "type": "uint8"
            },
            {
              "internalType": "bytes32",
              "name": "r",
              "type": "bytes32"
            },
            {
              "internalType": "bytes32",
              "name": "s",
              "type": "bytes32"
            }
          ],
          "internalType": "struct Dagora.Sig",
          "name": "listingSig",
          "type": "tuple"
        }
      ],
      "name": "createTransaction",
      "outputs": [
        {
          "internalType": "bytes32",
          "name": "hash",
          "type": "bytes32"
        }
      ],
      "stateMutability": "nonpayable",
      "type": "function"
    },
    {
      "inputs": [
        {
          "components": [
            {
              "components": [
                {
                  "internalType": "bytes32",
                  "name": "ipfsHash",
                  "type": "bytes32"
                },
                {
                  "internalType": "address payable",
                  "name": "seller",
                  "type": "address"
                },
                {
                  "internalType": "address payable",
                  "name": "stakeOwner",
                  "type": "address"
                },
                {
                  "internalType": "uint256",
                  "name": "stakedAmount",
                  "type": "uint256"
                },
                {
                  "internalType": "uint256",
                  "name": "commissionPercentage",
                  "type": "uint256"
                },
                {
                  "internalType": "uint256",
                  "name": "warranty",
                  "type": "uint256"
                },
                {
                  "internalType": "uint256",
                  "name": "cashbackPercentage",
                  "type": "uint256"
                },
                {
                  "internalType": "uint256",
                  "name": "expiration",
                  "type": "uint256"
                }
              ],
              "internalType": "struct Dagora.Listing",
              "name": "listing",
              "type": "tuple"
            },
            {
              "internalType": "address payable",
              "name": "buyer",
              "type": "address"
            },
            {
              "internalType": "address payable",
              "name": "commissioner",
              "type": "address"
            },
            {
              "internalType": "contract ERC20",
              "name": "token",
              "type": "address"
            },
            {
              "internalType": "uint256",
              "name": "total",
              "type": "uint256"
            },
            {
              "internalType": "uint256",
              "name": "shippingCost",
              "type": "uint256"
            },
            {
              "internalType": "uint256",
              "name": "expiration",
              "type": "uint256"
            },
            {
              "internalType": "uint256",
              "name": "confirmationTimeout",
              "type": "uint256"
            }
          ],
          "internalType": "struct Dagora.Order",
          "name": "_order",
          "type": "tuple"
        }
      ],
      "name": "confirmReceipt",
      "outputs": [],
      "stateMutability": "nonpayable",
      "type": "function"
    },
    {
      "inputs": [
        {
          "components": [
            {
              "components": [
                {
                  "internalType": "bytes32",
                  "name": "ipfsHash",
                  "type": "bytes32"
                },
                {
                  "internalType": "address payable",
                  "name": "seller",
                  "type": "address"
                },
                {
                  "internalType": "address payable",
                  "name": "stakeOwner",
                  "type": "address"
                },
                {
                  "internalType": "uint256",
                  "name": "stakedAmount",
                  "type": "uint256"
                },
                {
                  "internalType": "uint256",
                  "name": "commissionPercentage",
                  "type": "uint256"
                },
                {
                  "internalType": "uint256",
                  "name": "warranty",
                  "type": "uint256"
                },
                {
                  "internalType": "uint256",
                  "name": "cashbackPercentage",
                  "type": "uint256"
                },
                {
                  "internalType": "uint256",
                  "name": "expiration",
                  "type": "uint256"
                }
              ],
              "internalType": "struct Dagora.Listing",
              "name": "listing",
              "type": "tuple"
            },
            {
              "internalType": "address payable",
              "name": "buyer",
              "type": "address"
            },
            {
              "internalType": "address payable",
              "name": "commissioner",
              "type": "address"
            },
            {
              "internalType": "contract ERC20",
              "name": "token",
              "type": "address"
            },
            {
              "internalType": "uint256",
              "name": "total",
              "type": "uint256"
            },
            {
              "internalType": "uint256",
              "name": "shippingCost",
              "type": "uint256"
            },
            {
              "internalType": "uint256",
              "name": "expiration",
              "type": "uint256"
            },
            {
              "internalType": "uint256",
              "name": "confirmationTimeout",
              "type": "uint256"
            }
          ],
          "internalType": "struct Dagora.Order",
          "name": "_order",
          "type": "tuple"
        }
      ],
      "name": "executeTransaction",
      "outputs": [],
      "stateMutability": "nonpayable",
      "type": "function"
    },
    {
      "inputs": [
        {
          "components": [
            {
              "components": [
                {
                  "internalType": "bytes32",
                  "name": "ipfsHash",
                  "type": "bytes32"
                },
                {
                  "internalType": "address payable",
                  "name": "seller",
                  "type": "address"
                },
                {
                  "internalType": "address payable",
                  "name": "stakeOwner",
                  "type": "address"
                },
                {
                  "internalType": "uint256",
                  "name": "stakedAmount",
                  "type": "uint256"
                },
                {
                  "internalType": "uint256",
                  "name": "commissionPercentage",
                  "type": "uint256"
                },
                {
                  "internalType": "uint256",
                  "name": "warranty",
                  "type": "uint256"
                },
                {
                  "internalType": "uint256",
                  "name": "cashbackPercentage",
                  "type": "uint256"
                },
                {
                  "internalType": "uint256",
                  "name": "expiration",
                  "type": "uint256"
                }
              ],
              "internalType": "struct Dagora.Listing",
              "name": "listing",
              "type": "tuple"
            },
            {
              "internalType": "address payable",
              "name": "buyer",
              "type": "address"
            },
            {
              "internalType": "address payable",
              "name": "commissioner",
              "type": "address"
            },
            {
              "internalType": "contract ERC20",
              "name": "token",
              "type": "address"
            },
            {
              "internalType": "uint256",
              "name": "total",
              "type": "uint256"
            },
            {
              "internalType": "uint256",
              "name": "shippingCost",
              "type": "uint256"
            },
            {
              "internalType": "uint256",
              "name": "expiration",
              "type": "uint256"
            },
            {
              "internalType": "uint256",
              "name": "confirmationTimeout",
              "type": "uint256"
            }
          ],
          "internalType": "struct Dagora.Order",
          "name": "_order",
          "type": "tuple"
        }
      ],
      "name": "claimWarranty",
      "outputs": [],
      "stateMutability": "nonpayable",
      "type": "function"
    },
    {
      "inputs": [
        {
          "components": [
            {
              "components": [
                {
                  "internalType": "bytes32",
                  "name": "ipfsHash",
                  "type": "bytes32"
                },
                {
                  "internalType": "address payable",
                  "name": "seller",
                  "type": "address"
                },
                {
                  "internalType": "address payable",
                  "name": "stakeOwner",
                  "type": "address"
                },
                {
                  "internalType": "uint256",
                  "name": "stakedAmount",
                  "type": "uint256"
                },
                {
                  "internalType": "uint256",
                  "name": "commissionPercentage",
                  "type": "uint256"
                },
                {
                  "internalType": "uint256",
                  "name": "warranty",
                  "type": "uint256"
                },
                {
                  "internalType": "uint256",
                  "name": "cashbackPercentage",
                  "type": "uint256"
                },
                {
                  "internalType": "uint256",
                  "name": "expiration",
                  "type": "uint256"
                }
              ],
              "internalType": "struct Dagora.Listing",
              "name": "listing",
              "type": "tuple"
            },
            {
              "internalType": "address payable",
              "name": "buyer",
              "type": "address"
            },
            {
              "internalType": "address payable",
              "name": "commissioner",
              "type": "address"
            },
            {
              "internalType": "contract ERC20",
              "name": "token",
              "type": "address"
            },
            {
              "internalType": "uint256",
              "name": "total",
              "type": "uint256"
            },
            {
              "internalType": "uint256",
              "name": "shippingCost",
              "type": "uint256"
            },
            {
              "internalType": "uint256",
              "name": "expiration",
              "type": "uint256"
            },
            {
              "internalType": "uint256",
              "name": "confirmationTimeout",
              "type": "uint256"
            }
          ],
          "internalType": "struct Dagora.Order",
          "name": "_order",
          "type": "tuple"
        }
      ],
      "name": "disputeTransaction",
      "outputs": [
        {
          "internalType": "bytes32",
          "name": "hash",
          "type": "bytes32"
        }
      ],
      "stateMutability": "payable",
      "type": "function"
    },
    {
      "inputs": [
        {
          "components": [
            {
              "components": [
                {
                  "internalType": "bytes32",
                  "name": "ipfsHash",
                  "type": "bytes32"
                },
                {
                  "internalType": "address payable",
                  "name": "seller",
                  "type": "address"
                },
                {
                  "internalType": "address payable",
                  "name": "stakeOwner",
                  "type": "address"
                },
                {
                  "internalType": "uint256",
                  "name": "stakedAmount",
                  "type": "uint256"
                },
                {
                  "internalType": "uint256",
                  "name": "commissionPercentage",
                  "type": "uint256"
                },
                {
                  "internalType": "uint256",
                  "name": "warranty",
                  "type": "uint256"
                },
                {
                  "internalType": "uint256",
                  "name": "cashbackPercentage",
                  "type": "uint256"
                },
                {
                  "internalType": "uint256",
                  "name": "expiration",
                  "type": "uint256"
                }
              ],
              "internalType": "struct Dagora.Listing",
              "name": "listing",
              "type": "tuple"
            },
            {
              "internalType": "address payable",
              "name": "buyer",
              "type": "address"
            },
            {
              "internalType": "address payable",
              "name": "commissioner",
              "type": "address"
            },
            {
              "internalType": "contract ERC20",
              "name": "token",
              "type": "address"
            },
            {
              "internalType": "uint256",
              "name": "total",
              "type": "uint256"
            },
            {
              "internalType": "uint256",
              "name": "shippingCost",
              "type": "uint256"
            },
            {
              "internalType": "uint256",
              "name": "expiration",
              "type": "uint256"
            },
            {
              "internalType": "uint256",
              "name": "confirmationTimeout",
              "type": "uint256"
            }
          ],
          "internalType": "struct Dagora.Order",
          "name": "_order",
          "type": "tuple"
        },
        {
          "internalType": "uint256",
          "name": "refund",
          "type": "uint256"
        }
      ],
      "name": "updateRefund",
      "outputs": [],
      "stateMutability": "nonpayable",
      "type": "function"
    },
    {
      "inputs": [
        {
          "components": [
            {
              "internalType": "bytes32",
              "name": "ipfsHash",
              "type": "bytes32"
            },
            {
              "internalType": "address payable",
              "name": "seller",
              "type": "address"
            },
            {
              "internalType": "address payable",
              "name": "stakeOwner",
              "type": "address"
            },
            {
              "internalType": "uint256",
              "name": "stakedAmount",
              "type": "uint256"
            },
            {
              "internalType": "uint256",
              "name": "commissionPercentage",
              "type": "uint256"
            },
            {
              "internalType": "uint256",
              "name": "warranty",
              "type": "uint256"
            },
            {
              "internalType": "uint256",
              "name": "cashbackPercentage",
              "type": "uint256"
            },
            {
              "internalType": "uint256",
              "name": "expiration",
              "type": "uint256"
            }
          ],
          "internalType": "struct Dagora.Listing",
          "name": "_listing",
          "type": "tuple"
        },
        {
          "components": [
            {
              "internalType": "uint8",
              "name": "v",
              "type": "uint8"
            },
            {
              "internalType": "bytes32",
              "name": "r",
              "type": "bytes32"
            },
            {
              "internalType": "bytes32",
              "name": "s",
              "type": "bytes32"
            }
          ],
          "internalType": "struct Dagora.Sig",
          "name": "sig",
          "type": "tuple"
        }
      ],
      "name": "report",
      "outputs": [
        {
          "internalType": "bytes32",
          "name": "hash",
          "type": "bytes32"
        }
      ],
      "stateMutability": "payable",
      "type": "function"
    },
    {
      "inputs": [
        {
          "internalType": "bytes32",
          "name": "hash",
          "type": "bytes32"
        }
      ],
      "name": "disputeTimeout",
      "outputs": [],
      "stateMutability": "nonpayable",
      "type": "function"
    },
    {
      "inputs": [
        {
          "internalType": "bytes32",
          "name": "hash",
          "type": "bytes32"
        }
      ],
      "name": "payArbitrationFee",
      "outputs": [],
      "stateMutability": "payable",
      "type": "function"
    },
    {
      "inputs": [
        {
          "internalType": "bytes32",
          "name": "_hash",
          "type": "bytes32"
        },
        {
          "internalType": "string",
          "name": "_evidence",
          "type": "string"
        }
      ],
      "name": "submitEvidence",
      "outputs": [],
      "stateMutability": "nonpayable",
      "type": "function"
    },
    {
      "inputs": [
        {
          "internalType": "bytes32",
          "name": "_hash",
          "type": "bytes32"
        }
      ],
      "name": "appeal",
      "outputs": [],
      "stateMutability": "payable",
      "type": "function"
    },
    {
      "inputs": [
        {
          "internalType": "uint256",
          "name": "_disputeID",
          "type": "uint256"
        },
        {
          "internalType": "uint256",
          "name": "_ruling",
          "type": "uint256"
        }
      ],
      "name": "rule",
      "outputs": [],
      "stateMutability": "nonpayable",
      "type": "function"
    }
  ],
  "bytecode": "0x60806040523480156200001157600080fd5b5060405162004cbb38038062004cbb8339810160408190526200003491620002a7565b6000620000496001600160e01b036200013b16565b600080546001600160a01b0319166001600160a01b0383169081178255604051929350917f8be0079c531659141344cd1fd0a4f28419497f9722a3daafe3b4186f6b6457e0908290a350600780546001600160a01b03808d166001600160a01b031992831617909255600e80548c841690831617905560138054928b169290911691909117905562015180808802600b558602600a55601185905560128490558251620000fe90600890602086019062000140565b5081516200011490600990602085019062000140565b5080516200012a90601090602084019062000140565b505050505050505050505062000397565b335b90565b828054600181600116156101000203166002900490600052602060002090601f016020900481019282601f106200018357805160ff1916838001178555620001b3565b82800160010185558215620001b3579182015b82811115620001b357825182559160200191906001019062000196565b50620001c1929150620001c5565b5090565b6200013d91905b80821115620001c15760008155600101620001cc565b80516001600160a01b0381168114620001fa57600080fd5b92915050565b600082601f83011262000211578081fd5b81516001600160401b038082111562000228578283fd5b6040516020601f8401601f19168201810183811183821017156200024a578586fd5b806040525081945083825286818588010111156200026757600080fd5b600092505b838310156200028b57858301810151828401820152918201916200026c565b838311156200029d5760008185840101525b5050505092915050565b6000806000806000806000806000806101408b8d031215620002c7578586fd5b620002d38c8c620001e2565b9950620002e48c60208d01620001e2565b9850620002f58c60408d01620001e2565b975060608b0151965060808b0151955060a08b0151945060c08b0151935060e08b015160018060401b03808211156200032c578485fd5b6200033a8e838f0162000200565b94506101008d015191508082111562000351578384fd5b6200035f8e838f0162000200565b93506101208d015191508082111562000376578283fd5b50620003858d828e0162000200565b9150509295989b9194979a5092959850565b61491480620003a76000396000f3fe6080604052600436106102465760003560e01c806382ad5f7511610139578063ba4bc763116100b6578063db88d5ea1161007a578063db88d5ea14610669578063dd49756e14610689578063ece1de44146106a9578063ee7269d7146106bc578063f2fde38b146106d1578063f48a0b31146106f157610246565b8063ba4bc763146105e1578063be6a18ef14610601578063c23f001f14610614578063cae6047f14610634578063d1fcfdb81461064957610246565b8063a2031de4116100fd578063a2031de414610560578063a3f2965d14610582578063ad48d611146105a2578063b329036b146105b7578063b6398667146105cc57610246565b806382ad5f75146104ee57806387bd84cc146105015780638da5cb5b146105215780638e50e50914610536578063a0c59ef31461054b57610246565b806364df049e116101c75780636d47ab721161018b5780636d47ab721461045757806370d8ddc814610486578063715018a61461049957806372fc4213146104ae5780638076f005146104ce57610246565b806364df049e146103c057806369dc9ff3146103e25780636b83a061146104025780636cc6cde1146104225780636ce8b5d71461043757610246565b8063315a095d1161020e578063315a095d146103275780634140a5eb1461034757806353376d1f1461035c5780635af798071461037c578063642f2eaf1461039157610246565b806311be19971461024b5780631459d3e21461028b57806317be14d4146102b857806330d7a368146102e5578063311a6c5614610307575b600080fd5b34801561025757600080fd5b5061026b6102663660046138b6565b610711565b6040516102829b9a99989796959493929190613ce8565b60405180910390f35b34801561029757600080fd5b506102ab6102a63660046139b5565b61077e565b6040516102829190613da0565b3480156102c457600080fd5b506102d86102d33660046139d1565b610844565b6040516102829190613dab565b3480156102f157600080fd5b506103056103003660046139b5565b6109e8565b005b34801561031357600080fd5b50610305610322366004613a5d565b610b69565b34801561033357600080fd5b506103056103423660046138b6565b610c7b565b34801561035357600080fd5b506102d8610d94565b34801561036857600080fd5b50610305610377366004613842565b610d9a565b34801561038857600080fd5b506102d8610e18565b34801561039d57600080fd5b506103b16103ac3660046138b6565b610e1e565b604051610282939291906147c2565b3480156103cc57600080fd5b506103d5610e42565b6040516102829190613c93565b3480156103ee57600080fd5b506102ab6103fd366004613842565b610e51565b34801561040e57600080fd5b506102ab61041d366004613963565b610e66565b34801561042e57600080fd5b506103d5610f56565b34801561044357600080fd5b50610305610452366004613a19565b610f65565b34801561046357600080fd5b50610477610472366004613842565b61107a565b604051610282939291906147e8565b6102d86104943660046139b5565b61109a565b3480156104a557600080fd5b5061030561131d565b3480156104ba57600080fd5b506103056104c93660046138b6565b61139c565b3480156104da57600080fd5b506102ab6104e93660046138b6565b611559565b6102d86104fc36600461397f565b61156e565b34801561050d57600080fd5b506102ab61051c3660046138b6565b611857565b34801561052d57600080fd5b506103d561186c565b34801561054257600080fd5b506102d861187b565b34801561055757600080fd5b506102d8611881565b34801561056c57600080fd5b50610575611887565b6040516102829190613dd2565b34801561058e57600080fd5b5061030561059d3660046139b5565b611915565b3480156105ae57600080fd5b506103d5611a3c565b3480156105c357600080fd5b506102d8611a4b565b3480156105d857600080fd5b50610575611a51565b3480156105ed57600080fd5b506102d86105fc3660046138b6565b611aac565b61030561060f3660046138b6565b611abe565b34801561062057600080fd5b506102d861062f36600461385e565b611d1f565b34801561064057600080fd5b506102d8611d3c565b34801561065557600080fd5b50610305610664366004613842565b611d42565b34801561067557600080fd5b506103056106843660046139b5565b611de9565b34801561069557600080fd5b506103056106a43660046138b6565b611ee6565b6103056106b73660046138b6565b611fc5565b3480156106c857600080fd5b50610575612074565b3480156106dd57600080fd5b506103056106ec366004613842565b6120cf565b3480156106fd57600080fd5b5061030561070c3660046138ce565b612185565b600560208190526000918252604090912080546001820154600283015460038401546004850154958501546006860154600787015460088801546009890154600a909901546001600160a01b039889169a9789169996989095169695939460ff938416949293919291168b565b600081602001516001600160a01b0316336001600160a01b0316146107be5760405162461bcd60e51b81526004016107b5906142ee565b60405180910390fd5b60006107c983612289565b60008181526003602052604090205490915060ff16156107fb5760405162461bcd60e51b81526004016107b590613eca565b600081815260036020526040808220805460ff191660011790555182917f0bed755d9d22259660bf623a395b620bbff2af67319e990b538dc8603bdc3e5f91a250600192915050565b60006108518484846122a2565b90506000808281526004602052604090206002015460ff16600581111561087457fe5b146108915760405162461bcd60e51b81526004016107b5906145d9565b60008460a00151856080015101905084606001516001600160a01b03166323b872dd866020015130846040518463ffffffff1660e01b81526004016108d893929190613d63565b602060405180830381600087803b1580156108f257600080fd5b505af1158015610906573d6000803e3d6000fd5b505050506040513d601f19601f8201168201806040525081019061092a9190613896565b6109465760405162461bcd60e51b81526004016107b590614650565b600082815260046020908152604091829020428155600201805460ff1916600117905586518082015191880151818401518985015160608b0151608085015160c09095015160e08d015197516001600160a01b039788169895909716968a967fe419a7cfec7b19a58f8ef66dbf85dd08b396bafa0e2f94b3181fd3d047cb7481966109d8969594938c93909190613ca7565b60405180910390a4509392505050565b60006109f382612289565b60008181526004602052604090209091506001600282015460ff166005811115610a1957fe5b1480610a36575060028082015460ff166005811115610a3457fe5b145b80610a5357506003600282015460ff166005811115610a5157fe5b145b610a6f5760405162461bcd60e51b81526004016107b590614058565b60006001600283015460ff166005811115610a8657fe5b1480610aa457506003600283015460ff166005811115610aa257fe5b145b15610adc57428460e00151620151800283600001540111610ad75760405162461bcd60e51b81526004016107b590613f8c565b610b12565b835160a00151825442620151809092020111610b0a5760405162461bcd60e51b81526004016107b590613f8c565b50825160c001515b6000610b2685608001518660a0015161230c565b9050610b6284866020015187600001516020015188604001518960000151604001518a60600151878a600101548d60000151608001518b612331565b5050505050565b60008281526006602090815260408083205480845260059092529091206007546001600160a01b03163314610bb05760405162461bcd60e51b81526004016107b59061460e565b6003600a82015460ff166004811115610bc557fe5b14610be25760405162461bcd60e51b81526004016107b590613e84565b83336001600160a01b03167f394027a5fa6e098a1191094d1719d6929b9abc535fcc0c8f448d6a4e7562227685604051610c1c9190613dab565b60405180910390a36001600682015460ff166002811115610c3957fe5b1415610c4e57610c498184612767565b610c75565b610c588184612ac5565b6000828152600460205260409020600201805460ff191660051790555b50505050565b33600090815260016020819052604090912090810154815403821115610cb35760405162461bcd60e51b81526004016107b590613e0c565b600e546040516323b872dd60e01b81526001600160a01b03909116906323b872dd90610ce790339030908790600401613d63565b602060405180830381600087803b158015610d0157600080fd5b505af1158015610d15573d6000803e3d6000fd5b505050506040513d601f19601f82011682018060405250810190610d399190613896565b610d4257600080fd5b336000818152600160205260409081902080548590039055517f05e8d4927d2e9cff8a7d6f1c0c3b0fdd4d7299da00fe4911745bda49a5834e6790610d88908590613dab565b60405180910390a25050565b60125481565b610da2612f02565b6000546001600160a01b03908116911614610dcf5760405162461bcd60e51b81526004016107b5906142b9565b6001600160a01b0381166000818152600c6020526040808220805460ff19169055517f45f62f30e7b8439e0da7d8e560fe39d01238091ce9e789e3d12b514edf98acea9190a250565b600f5481565b60046020526000908152604090208054600182015460029092015490919060ff1683565b6013546001600160a01b031681565b600c6020526000908152604090205460ff1681565b600081604001516001600160a01b0316336001600160a01b031614610e9d5760405162461bcd60e51b81526004016107b5906143d4565b6060820151336000908152600160205260409020541015610ed05760405162461bcd60e51b81526004016107b590614107565b6000610edb83612f06565b60008181526003602052604090205490915060ff1615610f0d5760405162461bcd60e51b81526004016107b590613eca565b600081815260036020526040808220805460ff191660011790555182917f4e58c75167b3bff3ab3949a55f72203f341f94cca1c2c0c84370731b2b4c201791a250600192915050565b6007546001600160a01b031681565b8151602001516001600160a01b03163314610f925760405162461bcd60e51b81526004016107b5906140d0565b6000610f9d83612289565b60008181526004602052604090209091506001600282015460ff166005811115610fc357fe5b14610fe05760405162461bcd60e51b81526004016107b590614058565b8360e00151620151800281600001540142111561100f5760405162461bcd60e51b81526004016107b59061439f565b83608001518311156110335760405162461bcd60e51b81526004016107b59061435c565b828160010181905550817fe18fe462037a62d3500e07f2b32d9e16a69cee44850c9b7dcef7d856087e4aff8460405161106c9190613dab565b60405180910390a250505050565b600160208190526000918252604090912080549181015460029091015483565b60006110a582612289565b60008181526004602052604090209091506001600282015460ff1660058111156110cb57fe5b14806110e957506003600282015460ff1660058111156110e757fe5b145b6111055760405162461bcd60e51b81526004016107b590614058565b8260e0015162015180028160000154014211156111345760405162461bcd60e51b81526004016107b59061439f565b60075460405163f7434ea960e01b81526000916001600160a01b03169063f7434ea99061116690600890600401613de5565b60206040518083038186803b15801561117e57600080fd5b505afa158015611192573d6000803e3d6000fd5b505050506040513d601f19601f820116820180604052508101906111b69190613a45565b9050803410156111d85760405162461bcd60e51b81526004016107b5906144a1565b6000806001600285015460ff1660058111156111f057fe5b141561123e5785602001516001600160a01b0316336001600160a01b03161461122b5760405162461bcd60e51b81526004016107b5906141c9565b505060208085015185519091015161127a565b8551602001516001600160a01b0316331461126b5760405162461bcd60e51b81526004016107b590614200565b50506020808501518551909101515b6002848101805460ff19166004179055428555608087015160608801516000926112ad9289928792879291903490612f14565b905080600801547f61606860eb6c87306811e2695215385101daab53bd6ab4e9f9049aead9363c7d60108960000151600001516040516020016112f1929190613bea565b60408051601f198184030181529082905261130b91613dd2565b60405180910390a25050505050919050565b611325612f02565b6000546001600160a01b039081169116146113525760405162461bcd60e51b81526004016107b5906142b9565b600080546040516001600160a01b03909116907f8be0079c531659141344cd1fd0a4f28419497f9722a3daafe3b4186f6b6457e0908390a3600080546001600160a01b0319169055565b6000818152600560205260409020600a81015460ff1660048111156113bd57fe5b60001080156113de57506003600a82015460ff1660048111156113dc57fe5b105b6113fa5760405162461bcd60e51b81526004016107b59061413e565b600b548160070154420310156114225760405162461bcd60e51b81526004016107b590613f8c565b600081600401546000146114a057600482018054600090915582546040516001600160a01b0390911690829061145790613c90565b60006040518083038185875af1925050503d8060008114611494576040519150601f19603f3d011682016040523d82523d6000602084013e611499565b606091505b5090925050505b60058201541561151d57600582018054600090915560018301546040516001600160a01b039091169082906114d490613c90565b60006040518083038185875af1925050503d8060008114611511576040519150601f19603f3d011682016040523d82523d6000602084013e611516565b606091505b5090925050505b6002600a83015460ff16600481111561153257fe5b1415611549576115448260015b612767565b611554565b61155482600261153f565b505050565b60026020526000908152604090205460ff1681565b600061157a8383613023565b9050600080828152600560205260409020600a015460ff16600481111561159d57fe5b146115ba5760405162461bcd60e51b81526004016107b590614278565b82604001516001600160a01b0316336001600160a01b031614156115f05760405162461bcd60e51b81526004016107b590614745565b60075460405163f7434ea960e01b81526000916001600160a01b03169063f7434ea99061162290600890600401613de5565b60206040518083038186803b15801561163a57600080fd5b505afa15801561164e573d6000803e3d6000fd5b505050506040513d601f19601f820116820180604052508101906116729190613a45565b9050803410156116945760405162461bcd60e51b81526004016107b5906144a1565b336000908152600160205260409020600281015442116116c65760405162461bcd60e51b81526004016107b59061445a565b6001810154815460608701519190039081101561179657600e5460608701516040516323b872dd60e01b81526001600160a01b03909216916323b872dd9161171991339130919087900390600401613d63565b602060405180830381600087803b15801561173357600080fd5b505af1158015611747573d6000803e3d6000fd5b505050506040513d601f19601f8201168201806040525081019061176b9190613896565b6117875760405162461bcd60e51b81526004016107b590614691565b60608601518254908290030182555b604080870180516001600160a01b0390811660009081526001602081905293812060608b01518786018054820190558186018054820190559351600e54919592946117ea948b943394909116903490612f14565b905080600801547f61606860eb6c87306811e2695215385101daab53bd6ab4e9f9049aead9363c7d60108a6000015160405160200161182a929190613bea565b60408051601f198184030181529082905261184491613dd2565b60405180910390a2505050505092915050565b60036020526000908152604090205460ff1681565b6000546001600160a01b031690565b60115481565b600a5481565b6010805460408051602060026001851615610100026000190190941693909304601f8101849004840282018401909252818152929183018282801561190d5780601f106118e25761010080835404028352916020019161190d565b820191906000526020600020905b8154815290600101906020018083116118f057829003601f168201915b505050505081565b600061192082612289565b60008181526004602052604090209091506001600282015460ff16600581111561194657fe5b148015611968575082602001516001600160a01b0316336001600160a01b0316145b8061199d57506003600282015460ff16600581111561198357fe5b14801561199d57508251602001516001600160a01b031633145b6119b95760405162461bcd60e51b81526004016107b5906144eb565b60018101541580156119cf5750825160a0015115155b156119ec576002818101805460ff19169091179055428155611554565b6000611a0084608001518560a0015161230c565b6020808601518651918201516040808901519084015160608a01516001890154608087015160c090970151979850610c75978b978a9291612331565b600e546001600160a01b031681565b600b5481565b6009805460408051602060026001851615610100026000190190941693909304601f8101849004840282018401909252818152929183018282801561190d5780601f106118e25761010080835404028352916020019161190d565b60066020526000908152604090205481565b600081815260056020526040808220600754915163f7434ea960e01b81529092916001600160a01b03169063f7434ea990611afe90600890600401613de5565b60206040518083038186803b158015611b1657600080fd5b505afa158015611b2a573d6000803e3d6000fd5b505050506040513d601f19601f82011682018060405250810190611b4e9190613a45565b600a83015490915060ff166004811115611b6457fe5b6000108015611b8557506003600a83015460ff166004811115611b8357fe5b105b611ba15760405162461bcd60e51b81526004016107b590613e43565b81546001600160a01b0316331480611bc5575060018201546001600160a01b031633145b611be15760405162461bcd60e51b81526004016107b590614325565b81546001600160a01b0316331415611c8957600482018054340190819055811115611c1e5760405162461bcd60e51b81526004016107b59061407f565b4260078301556005820154811115611c7f57600a8201805460ff1916600217905560405183907ff972c77402d0ee7d94e4b2ea7cee21a3d392136bf7c9b72d2dc85e2a4d24a9cf90611c7290600190613df8565b60405180910390a2611544565b6115448382613058565b600582018054340190819055811115611cb45760405162461bcd60e51b81526004016107b59061407f565b4260078301556004820154811115611d1557600a8201805460ff1916600117905560405183907ff972c77402d0ee7d94e4b2ea7cee21a3d392136bf7c9b72d2dc85e2a4d24a9cf90611d0890600090613df8565b60405180910390a2611554565b6115548382613058565b600d60209081526000928352604080842090915290825290205481565b61271081565b611d4a612f02565b6000546001600160a01b03908116911614611d775760405162461bcd60e51b81526004016107b5906142b9565b6001600160a01b0381166000908152600c602052604090205460ff1615611d9d57600080fd5b6001600160a01b0381166000818152600c6020526040808220805460ff19166001179055517f52133ca86a0b20d025852c627bd9d5c8e6037a237d7ef7d22f399ae642e6b9b49190a250565b6000611df482612289565b600081815260046020526040902090915060028082015460ff166005811115611e1957fe5b14611e365760405162461bcd60e51b81526004016107b590614058565b82602001516001600160a01b0316336001600160a01b031614611e6b5760405162461bcd60e51b81526004016107b5906145ae565b825160a0015181546201518090910201421115611e9a5760405162461bcd60e51b81526004016107b590614021565b60028101805460ff191660031790556080830151600182015542815560405182907f99e77d4092287badf5165a76eb7add37ec282650747091906c6a02e0cd4f5b3d90600090a2505050565b600e546040516323b872dd60e01b81526001600160a01b03909116906323b872dd90611f1a90339030908690600401613d63565b602060405180830381600087803b158015611f3457600080fd5b505af1158015611f48573d6000803e3d6000fd5b505050506040513d601f19601f82011682018060405250810190611f6c9190613896565b611f7557600080fd5b3360008181526001602052604090819020805484019055517fbc7c8a4d8049a3f99a02f2a20640c206a2e4d3f2fa54fd20da9f01fda3620cda90611fba908490613dab565b60405180910390a250565b60008181526005602052604090206002600682015460ff166002811115611fe857fe5b146120055760405162461bcd60e51b81526004016107b590614561565b60075460098083015460405163093225f160e31b81526001600160a01b03909316926349912f8892349261203e92909190600401614793565b6000604051808303818588803b15801561205757600080fd5b505af115801561206b573d6000803e3d6000fd5b50505050505050565b6008805460408051602060026001851615610100026000190190941693909304601f8101849004840282018401909252818152929183018282801561190d5780601f106118e25761010080835404028352916020019161190d565b6120d7612f02565b6000546001600160a01b039081169116146121045760405162461bcd60e51b81526004016107b5906142b9565b6001600160a01b03811661212a5760405162461bcd60e51b81526004016107b590613f46565b600080546040516001600160a01b03808516939216917f8be0079c531659141344cd1fd0a4f28419497f9722a3daafe3b4186f6b6457e091a3600080546001600160a01b0319166001600160a01b0392909216919091179055565b600082815260056020526040902080546001600160a01b03163314806121b7575060018101546001600160a01b031633145b6121d35760405162461bcd60e51b81526004016107b5906146f1565b6002600682015460ff1660028111156121e857fe5b146122055760405162461bcd60e51b81526004016107b59061440b565b6004600a82015460ff16600481111561221a57fe5b106122375760405162461bcd60e51b81526004016107b590613ef4565b60088101546007546040513392916001600160a01b0316907fdccf2f8b2cc26eafcd61905cba744cff4b81d14740725f6376390dc6298a6a3c9061227c908790613dd2565b60405180910390a4505050565b600061229c61229783613292565b6132f9565b92915050565b6000806122ae85612289565b90506122bf81866000015185613329565b6122db5760405162461bcd60e51b81526004016107b5906146c8565b6122e681868661345c565b6123025760405162461bcd60e51b81526004016107b59061453a565b90505b9392505050565b6000828201838110156123055760405162461bcd60e51b81526004016107b590613fea565b6001600160a01b03851661234457600080fd5b6001600160a01b0385166000908152600c602052604090205460ff1661236957600080fd5b60008a815260046020526040812060028101805460ff191660051790554290556123938585613577565b601154909150156124555760006123b76123af601154846135b9565b6127106135f3565b90506123c38282613577565b60135460405163a9059cbb60e01b81529193506001600160a01b03808a169263a9059cbb926123f89216908590600401613d87565b602060405180830381600087803b15801561241257600080fd5b505af1158015612426573d6000803e3d6000fd5b505050506040513d601f19601f8201168201806040525081019061244a9190613896565b61245357600080fd5b505b60006012541180156124795750866001600160a01b0316896001600160a01b031614155b1561252957600061248f6123af601254846135b9565b905061249b8282613577565b60405163a9059cbb60e01b81529092506001600160a01b0388169063a9059cbb906124cc908b908590600401613d87565b602060405180830381600087803b1580156124e657600080fd5b505af11580156124fa573d6000803e3d6000fd5b505050506040513d601f19601f8201168201806040525081019061251e9190613896565b61252757600080fd5b505b60008311801561254157506001600160a01b03881615155b156125ef5760006125556123af85846135b9565b90506125618282613577565b60405163a9059cbb60e01b81529092506001600160a01b0388169063a9059cbb90612592908c908590600401613d87565b602060405180830381600087803b1580156125ac57600080fd5b505af11580156125c0573d6000803e3d6000fd5b505050506040513d601f19601f820116820180604052508101906125e49190613896565b6125ed57600080fd5b505b81156126a05760006126046123af84846135b9565b90506126108282613577565b60405163a9059cbb60e01b81529092506001600160a01b0388169063a9059cbb90612643908e90858a0190600401613d87565b602060405180830381600087803b15801561265d57600080fd5b505af1158015612671573d6000803e3d6000fd5b505050506040513d601f19601f820116820180604052508101906126959190613896565b61269e57600080fd5b505b801561272f5760405163a9059cbb60e01b81526001600160a01b0387169063a9059cbb906126d4908c908590600401613d87565b602060405180830381600087803b1580156126ee57600080fd5b505af1158015612702573d6000803e3d6000fd5b505050506040513d601f19601f820116820180604052508101906127269190613896565b61272f57600080fd5b6040518b907f24196ec40f90671b7144e716978686b4f3c7d6b00b23da3971ef2b52af27d87f90600090a25050505050505050505050565b60028111156127885760405162461bcd60e51b81526004016107b590613fc1565b6002820180546004808501805460058701805460009687905592869055859055600a8701805460ff191690931790925560016020819052808701546001600160a01b03168552929391929091908514156128e15785546040516001600160a01b039091169084906127f890613c90565b60006040518083038185875af1925050503d8060008114612835576040519150601f19603f3d011682016040523d82523d6000602084013e61283a565b606091505b50506001878101546001600160a01b03908116600090815260209290925260408083208054899003905589548216835290912080546002808904909101909155600e549293509116906342966c6890865b0486036040518263ffffffff1660e01b81526004016128aa9190613dab565b600060405180830381600087803b1580156128c457600080fd5b505af11580156128d8573d6000803e3d6000fd5b50505050612abd565b60028514156129b15760018601546040516001600160a01b0390911690839061290990613c90565b60006040518083038185875af1925050503d8060008114612946576040519150601f19603f3d011682016040523d82523d6000602084013e61294b565b606091505b5050600a5487546001600160a01b039081166000908152600160208190526040808320429095016002958601558b548416835280832080548b90039055908b01548316825290208054838904019055600e5492935091909116906342966c68908661288b565b600186015460405160028504916001600160a01b031690828503906129d590613c90565b60006040518083038185875af1925050503d8060008114612a12576040519150601f19603f3d011682016040523d82523d6000602084013e612a17565b606091505b505087546040519193506001600160a01b0316908290612a3690613c90565b60006040518083038185875af1925050503d8060008114612a73576040519150601f19603f3d011682016040523d82523d6000602084013e612a78565b606091505b505087546001600160a01b039081166000908152600160208190526040808320805460028c0490819003909155918c0154909316825291902080549190910390559150505b505050505050565b6002811115612ae65760405162461bcd60e51b81526004016107b590613fc1565b6002820180546004808501805460058701805460009687905592869055859055600a8701805460ff191690931790925591929091906001851415612c305785546040516001600160a01b03909116908490612b4090613c90565b60006040518083038185875af1925050503d8060008114612b7d576040519150601f19603f3d011682016040523d82523d6000602084013e612b82565b606091505b50506003870154875460405163a9059cbb60e01b81529293506001600160a01b039182169263a9059cbb92612bbd9216908890600401613d87565b602060405180830381600087803b158015612bd757600080fd5b505af1158015612beb573d6000803e3d6000fd5b505050506040513d601f19601f82011682018060405250810190612c0f9190613896565b612c2b5760405162461bcd60e51b81526004016107b590614183565b612abd565b6002851415612cd85760018601546040516001600160a01b03909116908390612c5890613c90565b60006040518083038185875af1925050503d8060008114612c95576040519150601f19603f3d011682016040523d82523d6000602084013e612c9a565b606091505b50506003870154600188015460405163a9059cbb60e01b81529293506001600160a01b039182169263a9059cbb92612bbd9216908890600401613d87565b600186015460405160028504916001600160a01b03169082850390612cfc90613c90565b60006040518083038185875af1925050503d8060008114612d39576040519150601f19603f3d011682016040523d82523d6000602084013e612d3e565b606091505b505087546040519193506001600160a01b0316908290612d5d90613c90565b60006040518083038185875af1925050503d8060008114612d9a576040519150601f19603f3d011682016040523d82523d6000602084013e612d9f565b606091505b50506003880154600189015460405163a9059cbb60e01b815292945060028804926001600160a01b039283169263a9059cbb92612de592911690858b0390600401613d87565b602060405180830381600087803b158015612dff57600080fd5b505af1158015612e13573d6000803e3d6000fd5b505050506040513d601f19601f82011682018060405250810190612e379190613896565b612e535760405162461bcd60e51b81526004016107b590614183565b6003880154885460405163a9059cbb60e01b81526001600160a01b039283169263a9059cbb92612e8a929116908590600401613d87565b602060405180830381600087803b158015612ea457600080fd5b505af1158015612eb8573d6000803e3d6000fd5b505050506040513d601f19601f82011682018060405250810190612edc9190613896565b612ef85760405162461bcd60e51b81526004016107b590614183565b5050505050505050565b3390565b600061229c61229783613635565b600087815260056020526040902080546001600160a01b038089166001600160a01b031992831617835560018084018054928a1692909316919091179091556002808301879055600483018054860190556006830180548593919260ff1990911691908490811115612f8257fe5b02179055506001826002811115612f9557fe5b1415612fb9576003810180546001600160a01b0319166001600160a01b0386161790555b600a8101805460ff19166002179055426007820155600f80546001818101909255600883015560405189917ff972c77402d0ee7d94e4b2ea7cee21a3d392136bf7c9b72d2dc85e2a4d24a9cf916130109190613df8565b60405180910390a2979650505050505050565b60008061302f84612f06565b905061303c818585613329565b6123055760405162461bcd60e51b81526004016107b5906146c8565b6000828152600560205260409020600a810180546003919060ff191660018302179055506007546000906001600160a01b031663c13517e184600280600687015460ff1660028111156130a757fe5b146130b35760086130b6565b60095b6040518463ffffffff1660e01b81526004016130d39291906147fe565b6020604051808303818588803b1580156130ec57600080fd5b505af1158015613100573d6000803e3d6000fd5b50505050506040513d601f19601f820116820180604052508101906131259190613a45565b600081815260066020526040908190208690556007546008850154915192935083926001600160a01b03909116917f74baab670a4015ab2f1b467c5252a96141a2573f2908e58a92081e80d3cfde3d91613181919081906147b4565b60405180910390a36000838360040154111561320b5760048301805490859055835460405191869003916001600160a01b039091169082906131c290613c90565b60006040518083038185875af1925050503d80600081146131ff576040519150601f19603f3d011682016040523d82523d6000602084013e613204565b606091505b5090925050505b8383600501541115610b625760058301805490859055600184015460405191869003916001600160a01b0390911690829061324590613c90565b60006040518083038185875af1925050503d8060008114613282576040519150601f19603f3d011682016040523d82523d6000602084013e613287565b606091505b505050505050505050565b60006132a18260000151612f06565b82602001518360400151846060015185608001518660a001518760c001518860e001516040516020016132db989796959493929190613b4c565b60408051808303601f19018152919052805160209091012092915050565b60008160405160200161330c9190613c5f565b604051602081830303815290604052805190602001209050919050565b60008260e0015160001415801561334357508260e0015142115b1561335057506000612305565b6040808401516001600160a01b0316600090815260016020819052919020606085015191810154815491929103101561338d576000915050612305565b60008581526002602052604090205460ff16156133ae576000915050612305565b60008581526003602052604090205460ff16156133cf576001915050612305565b83604001516001600160a01b03166001868560000151866020015187604001516040516000815260200160405260405161340c9493929190613db4565b6020604051602081039080840390855afa15801561342e573d6000803e3d6000fd5b505050602060405103516001600160a01b03161415613451576001915050612305565b506000949350505050565b60008260c0015160001415801561347657508260c0015142115b1561348357506000612305565b60608301516001600160a01b03166000908152600c602052604090205460ff166134af57506000612305565b60008481526002602052604090205460ff16156134ce57506000612305565b60008481526003602052604090205460ff16156134ed57506001612305565b82602001516001600160a01b03166001858460000151856020015186604001516040516000815260200160405260405161352a9493929190613db4565b6020604051602081039080840390855afa15801561354c573d6000803e3d6000fd5b505050602060405103516001600160a01b0316141561356d57506001612305565b5060009392505050565b600061230583836040518060400160405280601e81526020017f536166654d6174683a207375627472616374696f6e206f766572666c6f77000081525061366f565b6000826135c85750600061229c565b828202828482816135d557fe5b04146123055760405162461bcd60e51b81526004016107b590614237565b600061230583836040518060400160405280601a81526020017f536166654d6174683a206469766973696f6e206279207a65726f00000000000081525061369b565b80516020808301516040808501516060860151608087015160a088015160c089015160e08a015195516000996132db999098979101613b9f565b600081848411156136935760405162461bcd60e51b81526004016107b59190613dd2565b505050900390565b600081836136bc5760405162461bcd60e51b81526004016107b59190613dd2565b5060008385816136c857fe5b0495945050505050565b803561229c816148c6565b60006101008083850312156136f0578182fd5b6136f981614893565b91505081358152602082013561370e816148c6565b60208201526040820135613721816148c6565b80604083015250606082013560608201526080820135608082015260a082013560a082015260c082013560c082015260e082013560e082015292915050565b60006101e08284031215613772578081fd5b61010061377e81614893565b915061378a84846136dd565b8252613798848285016136d2565b6020830152506137ac8361012084016136d2565b60408201526137bf8361014084016136d2565b6060820152610160820135608082015261018082013560a08201526101a082013560c08201526101c082013560e082015292915050565b600060608284031215613807578081fd5b6138116060614893565b9050813560ff8116811461382457600080fd5b80825250602082013560208201526040820135604082015292915050565b600060208284031215613853578081fd5b8135612305816148c6565b60008060408385031215613870578081fd5b823561387b816148c6565b9150602083013561388b816148c6565b809150509250929050565b6000602082840312156138a7578081fd5b81518015158114612305578182fd5b6000602082840312156138c7578081fd5b5035919050565b600080604083850312156138e0578182fd5b8235915060208084013567ffffffffffffffff808211156138ff578384fd5b81860187601f820112613910578485fd5b8035925081831115613920578485fd5b613932601f8401601f19168501614893565b91508282528784848301011115613947578485fd5b8284820185840137509081019091019190915290939092509050565b60006101008284031215613975578081fd5b61230583836136dd565b6000806101608385031215613992578182fd5b61399c84846136dd565b91506139ac8461010085016137f6565b90509250929050565b60006101e082840312156139c7578081fd5b6123058383613760565b60008060006102a084860312156139e6578081fd5b6139f08585613760565b9250613a00856101e086016137f6565b9150613a108561024086016137f6565b90509250925092565b6000806102008385031215613a2c578182fd5b613a368484613760565b946101e0939093013593505050565b600060208284031215613a56578081fd5b5051919050565b60008060408385031215613a6f578182fd5b50508035926020909101359150565b60008151808452815b81811015613aa357602081850181015186830182015201613a87565b81811115613ab45782602083870101525b50601f01601f19169290920160200192915050565b60008154600180821660008114613ae75760018114613b0557613b43565b60028304607f16865260ff1983166020870152604086019350613b43565b60028304808752613b15866148ba565b60005b82811015613b395781546020828b0101528482019150602081019050613b18565b8801602001955050505b50505092915050565b9788526bffffffffffffffffffffffff19606097881b811660208a015295871b861660348901529390951b9093166048860152605c850152607c840191909152609c83019190915260bc82015260dc0190565b9788526bffffffffffffffffffffffff19606097881b811660208a01529590961b909416603487015260488601929092526068850152608884015260a883015260c882015260e80190565b6000808454600180821660008114613c095760018114613c2057613c4f565b60ff198316865260028304607f1686019350613c4f565b600283048886526020808720875b83811015613c475781548a820152908501908201613c2e565b505050860193505b5050509283525050602001919050565b7f19457468657265756d205369676e6564204d6573736167653a0a3332000000008152601c810191909152603c0190565b90565b6001600160a01b0391909116815260200190565b6001600160a01b03978816815295871660208701529390951660408501526060840191909152608083015260a082019290925260c081019190915260e00190565b6001600160a01b038c811682528b81166020830152604082018b9052891660608201526080810188905260a08101879052610160810160038710613d2857fe5b8660c08301528560e0830152846101008301528361012083015260058310613d4c57fe5b826101408301529c9b505050505050505050505050565b6001600160a01b039384168152919092166020820152604081019190915260600190565b6001600160a01b03929092168252602082015260400190565b901515815260200190565b90815260200190565b93845260ff9290921660208401526040830152606082015260800190565b6000602082526123056020830184613a7e565b6000602082526123056020830184613ac9565b6020810160028310613e0657fe5b91905290565b6020808252601c908201527f596f7520646f6e2774206861766520656e6f67687420746f6b656e7300000000604082015260600190565b60208082526021908201527f446973707574652068617320616c7265616479206265656e20637265617465646040820152601760f91b606082015260800190565b60208082526026908201527f54686520646973707574652068617320616c7265616479206265656e2072657360408201526537b63b32b21760d11b606082015260800190565b60208082526010908201526f105b1c9958591e48185c1c1c9bdd995960821b604082015260600190565b60208082526032908201527f4d757374206e6f742073656e642065766964656e63652069662074686520646960408201527139b83aba329034b9903932b9b7b63b32b21760711b606082015260800190565b60208082526026908201527f4f776e61626c653a206e6577206f776e657220697320746865207a65726f206160408201526564647265737360d01b606082015260800190565b6020808252818101527f54696d656f75742074696d6520686173206e6f7420706173736564207965742e604082015260600190565b6020808252600f908201526e24b73b30b634b210393ab634b7339760891b604082015260600190565b6020808252601b908201527f536166654d6174683a206164646974696f6e206f766572666c6f770000000000604082015260600190565b6020808252601c908201527f57617272616e74792074696d65206861732074696d6564206f75742e00000000604082015260600190565b6020808252600d908201526c496e76616c696420706861736560981b604082015260600190565b60208082526031908201527f5468652070726f7365637574696f6e20666565206d75737420636f7665722061604082015270393134ba3930ba34b7b71031b7b9ba399760791b606082015260800190565b6020808252601e908201527f596f75206d75737420626520746865206c697374696e672073656c6c65720000604082015260600190565b6020808252601b908201527f596f7520646f6e2774206861766520656e6f6768742066756e64730000000000604082015260600190565b60208082526025908201527f44697370757465206973206e6f742077616974696e6720666f7220616e79207060408201526430b93a3c9760d91b606082015260800190565b60208082526026908201527f54686520607472616e73666572602066756e6374696f6e206d757374206e6f74604082015265103330b4b61760d11b606082015260800190565b60208082526017908201527f4f6e6c792062757965722063616e20646973707574652e000000000000000000604082015260600190565b60208082526018908201527f4f6e6c792073656c6c65722063616e20646973707574652e0000000000000000604082015260600190565b60208082526021908201527f536166654d6174683a206d756c7469706c69636174696f6e206f766572666c6f6040820152607760f81b606082015260800190565b60208082526021908201527f4c697374696e672068617320616c7265616479206265656e207265706f7274656040820152601960fa1b606082015260800190565b6020808252818101527f4f776e61626c653a2063616c6c6572206973206e6f7420746865206f776e6572604082015260600190565b6020808252601a908201527f53656e646572206973206e6f74206f72646572207369676e6572000000000000604082015260600190565b6020808252601e908201527f5468652063616c6c6572206d757374206265207468652073656e6465722e0000604082015260600190565b60208082526023908201527f526566756e642063616e27742062652067726561746572207468616e20746f7460408201526230b61760e91b606082015260800190565b6020808252818101527f436f6e6669726d6174696f6e2074696d65206861732074696d6564206f75742e604082015260600190565b6020808252601c908201527f53656e646572206973206e6f74206c697374696e67207369676e657200000000604082015260600190565b6020808252602f908201527f45766964656e63657320617265206f6e6c7920616c6c6f77656420666f72206f60408201526e393232b939903234b9b83aba32b99760891b606082015260800190565b60208082526027908201527f596f7520617265206e6f7420616c6c6f77656420746f207265706f7274206c6960408201526639ba34b733b99760c91b606082015260800190565b6020808252602a908201527f56616c7565206d7573742062652067726561746572207468616e2061726269746040820152691c985d1a5bdb90dbdcdd60b21b606082015260800190565b6020808252602f908201527f596f75206d7573742062652073656c6c6572206f7220627579657220696e207460408201526e3432903934b3b43a10383430b9b29760891b606082015260800190565b6020808252600d908201526c24b73b30b634b21037b93232b960991b604082015260600190565b6020808252602d908201527f41707065616c7320617265206f6e6c7920616c6c6f77656420666f72206f726460408201526c32b939903234b9b83aba32b99760991b606082015260800190565b6020808252601190820152702cb7ba9036bab9ba10313290313abcb2b960791b604082015260600190565b6020808252818101527f4f7264657220616c726561647920686173206265656e2070726f636573736564604082015260600190565b60208082526022908201527f5468652063616c6c6572206d757374206265207468652061726269747261746f604082015261391760f11b606082015260800190565b60208082526021908201527f4661696c656420746f207472616e7366657220627579657227732066756e64736040820152601760f91b606082015260800190565b60208082526019908201527f556e61626c6520746f207472616e7366657220746f6b656e7300000000000000604082015260600190565b6020808252600f908201526e496e76616c6964206c697374696e6760881b604082015260600190565b60208082526034908201527f5468652063616c6c6572206d757374206265207468652070726f73656375746960408201527337b71037b9103a3432903232b332b73230b73a1760611b606082015260800190565b6020808252602e908201527f596f752063616e2774207265706f727420796f757273656c662e20557365206360408201526d616e63656c4c697374696e67282960901b606082015260800190565b6000838252604060208301526147ac6040830184613ac9565b949350505050565b918252602082015260400190565b8381526020810183905260608101600683106147da57fe5b826040830152949350505050565b9283526020830191909152604082015260600190565b60006040820160ff85168352602060408185015282855460018082166000811461482f576001811461484d57614885565b60028304607f16865260ff1983166060890152608088019350614885565b6002830480875261485d8a6148ba565b885b8281101561487b5781548b82016060015290840190870161485f565b8a01606001955050505b509198975050505050505050565b60405181810167ffffffffffffffff811182821017156148b257600080fd5b604052919050565b60009081526020902090565b6001600160a01b03811681146148db57600080fd5b5056fea2646970667358221220a314439b8a5ea0e8afd0fcf6a201403307d2de0eeab29d0ce6e03275ae7282e964736f6c63430006080033",
  "immutableReferences": {},
  "source": "// SPDX-License-Identifier: MIT\npragma solidity ^0.6.0;\npragma experimental ABIEncoderV2;\n\nimport \"../arbitration/Arbitrator.sol\";\nimport \"../arbitration/IArbitrable.sol\";\n\nimport \"../token/ERC20Burnable.sol\";\n\nimport \"../utils/Ownable.sol\";\n\n\ncontract Dagora is IArbitrable, Ownable {\n    /* 2 decimal plates for percentage */\n    uint256 public constant INVERSE_BASIS_POINT = 10000;\n\n    uint8 constant AMOUNT_OF_CHOICES = 2;\n\n    enum Party {Prosecution, Defendant}\n    enum DisputeType {None, Report, Order}\n    enum RulingOptions {NoRuling, ProsecutionWins, DefendantWins}\n    enum DisputeStatus {\n        NoDispute,\n        WaitingProsecution,\n        WaitingDefendant,\n        DisputeCreated,\n        Resolved\n    }\n    enum Status {\n        NoTransaction,\n        WaitingConfirmation,\n        Warranty,\n        WarrantyConfirmation,\n        InDispute,\n        Finalized\n    }\n\n    struct Listing {\n        bytes32 ipfsHash;\n        address payable seller;\n        address payable stakeOwner;\n        uint256 stakedAmount;\n        uint256 commissionPercentage; /* two decimal places */\n        uint256 warranty; /* In days */\n        uint256 cashbackPercentage; /* two decimal places */\n        uint256 expiration;\n    }\n\n    struct Order {\n        Listing listing;\n        address payable buyer;\n        address payable commissioner;\n        ERC20 token;\n        uint256 total;\n        uint256 shippingCost;\n        uint256 expiration;\n        uint256 confirmationTimeout; /* In days */\n    }\n\n    struct Transaction {\n        /* Keep track of status update */\n        uint256 lastStatusUpdate;\n        /* Refund the seller can give */\n        uint256 refund;\n        /* Current status */\n        Status status;\n    }\n\n    struct Seller {\n        // The amount of tokens the contract holds for this seller.\n        uint256 balance;\n        /* Total number of tokens the seller can loose in disputes they are.\n         * Those tokens are locked. Note that we can have lockedTokens > balance but it should\n         * be statistically unlikely and does not pose issues.*/\n        uint256 lockedTokens;\n        uint256 blackListExpire;\n    }\n\n    /* An ECDSA signature. */\n    struct Sig {\n        /* v parameter */\n        uint8 v;\n        /* r parameter */\n        bytes32 r;\n        /* s parameter */\n        bytes32 s;\n    }\n\n    struct RunningDispute {\n        address payable prosecution;\n        address payable defendant;\n        uint256 amount;\n        ERC20 token;\n        uint256 prosecutionFee;\n        uint256 defendantFee;\n        DisputeType disputeType;\n        uint256 lastInteraction;\n        uint256 metaEvidenceId;\n        uint256 disputeId;\n        DisputeStatus status;\n    }\n\n    event TokenGranted(address indexed addr);\n    event TokenRevoked(address indexed addr);\n\n    event TokenDeposited(address indexed sender, uint256 value);\n    event TokenWithdrawed(address indexed sender, uint256 value);\n\n    event ListingApproved(bytes32 indexed hash);\n    event ListingCancelled(bytes32 indexed hash);\n\n    event OrderApproved(bytes32 indexed hash);\n    event OrderCancelled(bytes32 indexed hash);\n\n    event TransactionCreated(\n        bytes32 indexed hash,\n        address indexed buyer,\n        address indexed seller,\n        address stakeOwner,\n        address commissioner,\n        ERC20 token,\n        uint256 total,\n        uint256 commissionPercentage,\n        uint256 cashbackPercentage,\n        uint256 confirmationTimeout\n    );\n\n    event TransactionRefunded(bytes32 indexed hash, uint256 value);\n    event TransactionFinalized(bytes32 indexed hash);\n\n    event WarrantyClaimed(bytes32 indexed hash);\n\n    event HasToPayFee(bytes32 indexed _hash, Party _party);\n\n    mapping(address => Seller) public sellers;\n    /* Cancelled / finalized listings and orders, by hash. */\n    mapping(bytes32 => bool) public cancelledOrFinalized;\n    /* Orders and listings verified by on-chain approval (alternative to ECDSA\n     * signatures so that smart contracts can place orders and listings\n     * directly). */\n    mapping(bytes32 => bool) public approvedHashes;\n\n    mapping(bytes32 => Transaction) public transactions; // Listing Hash to Dispute\n\n    mapping(bytes32 => RunningDispute) public disputes; // Listing Hash to Dispute\n    mapping(uint256 => bytes32) public disputeIDtoHash;\n\n    Arbitrator public arbitrator; // Address of the arbitrator contract.\n    bytes public reportExtraData; // Extra data to set up the arbitration.\n    bytes public orderExtraData; // Extra data to set up the arbitration.\n    uint256 public blackListTimeout;\n    uint256 public feeTimeout;\n    /* Time in seconds a party can take to pay arbitration\n     * fees before being considered unresponding and lose the dispute.*/\n\n    mapping(address => bool) public contracts;\n\n    mapping(address => mapping(address => uint)) public balances;\n\n    ERC20Burnable public marketToken;\n    uint256 public metaEvidenceCount;\n    string public ipfsDomain;\n\n    uint256 public protocolFeePercentage;\n    uint256 public tokenOwnerFeePercentage;\n    address public protocolFeeRecipient;\n\n    constructor(\n        address _arbitrator,\n        address _token,\n        address _protocolFeeRecipient,\n        uint256 _feeTimeoutDays,\n        uint256 _blacklistTimeoutDays,\n        uint256 _protocolFeePercentage,\n        uint256 _tokenOwnerFeePercentage,\n        bytes memory _reportExtraData,\n        bytes memory _orderExtraData,\n        string memory _ipfsDomain\n    ) public Ownable() {\n        arbitrator = Arbitrator(_arbitrator);\n        marketToken = ERC20Burnable(_token);\n        protocolFeeRecipient = _protocolFeeRecipient;\n        feeTimeout = _feeTimeoutDays * (1 days);\n        blackListTimeout = _blacklistTimeoutDays * (1 days);\n        protocolFeePercentage = _protocolFeePercentage;\n        tokenOwnerFeePercentage = _tokenOwnerFeePercentage;\n        reportExtraData = _reportExtraData;\n        orderExtraData = _orderExtraData;\n        ipfsDomain = _ipfsDomain;\n    }\n\n    function grantAuthentication(address addr) public onlyOwner {\n        require(!contracts[addr]);\n        contracts[addr] = true;\n        emit TokenGranted(addr);\n    }\n\n    function revokeAuthentication(address addr) public onlyOwner {\n        contracts[addr] = false;\n        emit TokenRevoked(addr);\n    }\n\n    function depositTokens(uint256 value) public {\n        require(marketToken.transferFrom(msg.sender, address(this), value));\n        sellers[msg.sender].balance += value;\n        emit TokenDeposited(msg.sender, value);\n    }\n\n    function withdrawTokens(uint256 value) public {\n        Seller storage seller = sellers[msg.sender];\n        require(\n            seller.balance - seller.lockedTokens >= value,\n            \"You don't have enoght tokens\"\n        );\n        require(marketToken.transferFrom(msg.sender, address(this), value));\n        sellers[msg.sender].balance -= value;\n        emit TokenWithdrawed(msg.sender, value);\n    }\n\n    function approveListing(Listing memory _listing) public returns (bool) {\n        /* CHECKS */\n        /* Assert sender is authorized to approve listing. */\n        require(\n            msg.sender == _listing.stakeOwner,\n            \"Sender is not listing signer\"\n        );\n        require(\n            sellers[msg.sender].balance >= _listing.stakedAmount,\n            \"You don't have enoght funds\"\n        );\n        /* Calculate listing hash. */\n        bytes32 hash = hashListingToSign(_listing);\n        /* Assert listing has not already been approved. */\n        require(!approvedHashes[hash], \"Already approved\");\n        /* EFFECTS */\n        /* Mark listing as approved. */\n        approvedHashes[hash] = true;\n        emit ListingApproved(hash);\n        return true;\n    }\n\n    function cancelListing(Listing memory _listing, Sig memory sig) internal {\n        /* CHECKS */\n        /* Calculate listing hash. */\n        bytes32 hash = requireValidListing(_listing, sig);\n\n        /* Assert sender is authorized to cancel listing. */\n        require(\n            msg.sender == _listing.stakeOwner || msg.sender == _listing.seller\n        );\n\n        /* EFFECTS */\n\n        /* Mark listing as cancelled, preventing it from being matched. */\n        cancelledOrFinalized[hash] = true;\n\n        /* Log cancel event. */\n        emit ListingCancelled(hash);\n    }\n\n    function approveOrder(Order memory order) public returns (bool) {\n        /* CHECKS */\n        /* Assert sender is authorized to approve listing. */\n        require(msg.sender == order.buyer, \"Sender is not order signer\");\n        /* Calculate listing hash. */\n        bytes32 hash = hashOrderToSign(order);\n        /* Assert listing has not already been approved. */\n        require(!approvedHashes[hash], \"Already approved\");\n        /* EFFECTS */\n        /* Mark order as approved. */\n        approvedHashes[hash] = true;\n\n        emit OrderApproved(hash);\n        return true;\n    }\n\n    function cancelOrder(Order memory order, Sig memory orderSig, Sig memory listingSig) internal {\n        /* CHECKS */\n\n        /* Calculate listing hash. */\n        bytes32 hash = requireValidOrder(order, orderSig, listingSig);\n\n        /* Assert sender is authorized to cancel listing. */\n        require(msg.sender == order.buyer);\n\n        /* EFFECTS */\n\n        /* Mark listing as cancelled, preventing it from being matched. */\n        cancelledOrFinalized[hash] = true;\n\n        /* Log cancel event. */\n        emit OrderCancelled(hash);\n    }\n\n    function createTransaction(\n        Order memory _order,\n        Sig memory orderSig,\n        // Listing memory _listing,\n        Sig memory listingSig\n    ) public returns (bytes32 hash) {\n        // requireValidListing(_order.listing, listingSig);\n        hash = requireValidOrder(_order, orderSig, listingSig);\n        require(\n            transactions[hash].status == Status.NoTransaction,\n            \"Order already has been processed\"\n        );\n        uint256 amount = _order.total + _order.shippingCost;\n        // if (balances[_order.buyer][address(_order.token)] < amount) {\n        require(\n            _order.token.transferFrom(_order.buyer, address(this), amount), //- balances[_order.buyer][address(_order.token)]),\n            \"Failed to transfer buyer's funds.\"\n        );\n        //     balances[_order.buyer][address(_order.token)] = 0;\n        // } else {\n        //     balances[_order.buyer][address(_order.token)] -= amount;\n        // }\n        transactions[hash].lastStatusUpdate = now;\n        transactions[hash].status = Status.WaitingConfirmation;\n        emit TransactionCreated(\n            hash,\n            _order.buyer,\n            _order.listing.seller,\n            _order.listing.stakeOwner,\n            _order.commissioner,\n            _order.token,\n            amount,\n            _order.listing.commissionPercentage,\n            _order.listing.cashbackPercentage,\n            _order.confirmationTimeout\n        );\n    }\n\n    function confirmReceipt(Order memory _order/*, Listing memory _listing*/)\n        public\n    {\n        // require(\n        //     _order.listingHash == hashListingToSign(_listing),\n        //     \"Listing isn't correct\"\n        // );\n        bytes32 hash = hashOrderToSign(_order);\n        Transaction storage transaction = transactions[hash];\n        require(\n            (transaction.status == Status.WaitingConfirmation &&\n                msg.sender == _order.buyer) ||\n                (transaction.status == Status.WarrantyConfirmation &&\n                    msg.sender == _order.listing.seller),\n            \"You must be seller or buyer in the right phase.\"\n        );\n        if (transaction.refund == 0 && _order.listing.warranty > 0) {\n            transaction.status = Status.Warranty;\n            transaction.lastStatusUpdate = now;\n        } else {\n            uint256 total = SafeMath.add(_order.total, _order.shippingCost);\n            finalizeTransaction(\n                hash,\n                _order.buyer,\n                _order.listing.seller,\n                _order.commissioner,\n                _order.listing.stakeOwner,\n                _order.token,\n                total,\n                transaction.refund,\n                _order.listing.commissionPercentage,\n                _order.listing.cashbackPercentage\n            );\n        }\n    }\n\n    function executeTransaction(Order memory _order/*, Listing memory _listing*/)\n        public\n    {\n        // require(\n        //     _order.listingHash == hashListingToSign(_listing),\n        //     \"Listing isn't correct\"\n        // );\n        bytes32 hash = hashOrderToSign(_order);\n        Transaction storage transaction = transactions[hash];\n        require(\n            transaction.status == Status.WaitingConfirmation ||\n                transaction.status == Status.Warranty ||\n                transaction.status == Status.WarrantyConfirmation,\n            \"Invalid phase\"\n        );\n        uint256 cashbackPercentage = 0;\n        if (\n            transaction.status == Status.WaitingConfirmation ||\n            transaction.status == Status.WarrantyConfirmation\n        ) {\n            require(\n                transaction.lastStatusUpdate +\n                    (_order.confirmationTimeout * (1 days)) >\n                    now,\n                \"Timeout time has not passed yet.\"\n            );\n        } else {\n            require(\n                transaction.lastStatusUpdate + (_order.listing.warranty * (1 days)) >\n                    now,\n                \"Timeout time has not passed yet.\"\n            );\n            cashbackPercentage = _order.listing.cashbackPercentage;\n        }\n        uint256 total = SafeMath.add(_order.total, _order.shippingCost);\n        finalizeTransaction(\n            hash,\n            _order.buyer,\n            _order.listing.seller,\n            _order.commissioner,\n            _order.listing.stakeOwner,\n            _order.token,\n            total,\n            transaction.refund,\n            _order.listing.commissionPercentage,\n            cashbackPercentage\n        );\n    }\n\n    function finalizeTransaction(\n        bytes32 hash,\n        address buyer,\n        address seller,\n        address commissioner,\n        address stakeHolder,\n        ERC20 token,\n        uint256 total,\n        uint256 refund,\n        uint256 commissionPercentage,\n        uint256 cashbackPercentage\n    ) internal {\n        require(address(token) != address(0));\n        require(contracts[address(token)]);\n\n        transactions[hash].status = Status.Finalized;\n        transactions[hash].lastStatusUpdate = now;\n\n        uint256 price = SafeMath.sub(total, refund);\n\n        if (protocolFeePercentage > 0) {\n            uint256 protocolFee = SafeMath.div(\n                SafeMath.mul(protocolFeePercentage, price),\n                INVERSE_BASIS_POINT\n            );\n            price = SafeMath.sub(price, protocolFee);\n            // balances[protocolFeeRecipient][address(token)] += protocolFee;\n            require(token.transfer(protocolFeeRecipient, protocolFee));\n        }\n\n        if (tokenOwnerFeePercentage > 0 && seller != stakeHolder) {\n            uint256 stakeOwnerFee = SafeMath.div(\n                SafeMath.mul(tokenOwnerFeePercentage, price),\n                INVERSE_BASIS_POINT\n            );\n            price = SafeMath.sub(price, stakeOwnerFee);\n            // balances[stakeHolder][address(token)] += stakeOwnerFee;\n            require(token.transfer(stakeHolder, stakeOwnerFee));\n        }\n\n        if (commissionPercentage > 0 && commissioner != address(0x0)) {\n            uint256 commissionFee = SafeMath.div(\n                SafeMath.mul(commissionPercentage, price),\n                INVERSE_BASIS_POINT\n            );\n            price = SafeMath.sub(price, commissionFee);\n            // balances[commissioner][address(token)] += commissionFee;\n            require(token.transfer(commissioner, commissionFee));\n        }\n\n        if (cashbackPercentage > 0) {\n            uint256 cashback = SafeMath.div(\n                SafeMath.mul(cashbackPercentage, price),\n                INVERSE_BASIS_POINT\n            );\n            price = SafeMath.sub(price, cashback);\n            // balances[buyer][address(token)] += cashback  + refund;\n            require(token.transfer(buyer, cashback + refund));\n        }\n\n        if (price > 0){\n            // balances[seller][address(token)] += price;\n            require(token.transfer(seller, price));\n        }\n        emit TransactionFinalized(hash);\n    }\n\n    function claimWarranty(Order memory _order/*, Listing memory _listing*/)\n        public\n    {\n        // require(\n        //     _order.listingHash == hashListingToSign(_listing),\n        //     \"Listing isn't correct\"\n        // );\n        bytes32 hash = hashOrderToSign(_order);\n        Transaction storage transaction = transactions[hash];\n        require(transaction.status == Status.Warranty, \"Invalid phase\");\n        require(msg.sender == _order.buyer, \"You must be buyer\");\n        require(\n            now <=\n                transaction.lastStatusUpdate + (_order.listing.warranty * (1 days)),\n            \"Warranty time has timed out.\"\n        );\n\n        transaction.status = Status.WarrantyConfirmation;\n        transaction.refund = _order.total;\n        transaction.lastStatusUpdate = now;\n        emit WarrantyClaimed(hash);\n    }\n\n    function disputeTransaction(Order memory _order/*, Listing memory _listing*/)\n        public\n        payable\n        returns (bytes32 hash)\n    {\n        // require(\n        //     _order.listingHash == hashListingToSign(_listing),\n        //     \"Listing isn't correct\"\n        // );\n        hash = hashOrderToSign(_order);\n        Transaction storage transaction = transactions[hash];\n        require(\n            transaction.status == Status.WaitingConfirmation ||\n                transaction.status == Status.WarrantyConfirmation,\n            \"Invalid phase\"\n        );\n        require(\n            now <=\n                transaction.lastStatusUpdate +\n                    (_order.confirmationTimeout * (1 days)),\n            \"Confirmation time has timed out.\"\n        );\n        uint256 arbitrationCost = arbitrator.arbitrationCost(reportExtraData);\n        require(\n            msg.value >= arbitrationCost,\n            \"Value must be greater than arbitrationCost\"\n        );\n        address payable prosecution;\n        address payable defendant;\n        if (transaction.status == Status.WaitingConfirmation) {\n            require(msg.sender == _order.buyer, \"Only buyer can dispute.\");\n            prosecution = _order.buyer;\n            defendant = _order.listing.seller;\n        } else {\n            require(msg.sender == _order.listing.seller, \"Only seller can dispute.\");\n            prosecution = _order.buyer;\n            defendant = _order.listing.seller;\n        }\n        transaction.status = Status.InDispute;\n        transaction.lastStatusUpdate = now;\n        RunningDispute storage dispute = _createDispute(\n            hash,\n            prosecution,\n            defendant,\n            _order.total,\n            _order.token,\n            msg.value,\n            DisputeType.Order\n        );\n        emit MetaEvidence(\n            dispute.metaEvidenceId,\n            string(abi.encodePacked(ipfsDomain, _order.listing.ipfsHash))\n        );\n    }\n\n    function updateRefund(\n        Order memory _order,\n        /*Listing memory _listing,*/\n        uint256 refund\n    ) public {\n        // require(\n        //     _order.listingHash == hashListingToSign(_listing),\n        //     \"Listing isn't correct\"\n        // );\n        require(\n            msg.sender == _order.listing.seller,\n            \"You must be the listing seller\"\n        );\n        bytes32 hash = hashOrderToSign(_order);\n        Transaction storage transaction = transactions[hash];\n        require(\n            transaction.status == Status.WaitingConfirmation,\n            \"Invalid phase\"\n        );\n        require(\n            now <=\n                transaction.lastStatusUpdate +\n                    (_order.confirmationTimeout * (1 days)),\n            \"Confirmation time has timed out.\"\n        );\n        require(refund <= _order.total, \"Refund can't be greater than total.\");\n        transaction.refund = refund;\n        emit TransactionRefunded(hash, refund);\n    }\n\n    function report(Listing memory _listing, Sig memory sig)\n        public\n        payable\n        returns (bytes32 hash)\n    {\n        /* CHECKS */\n        hash = requireValidListing(_listing, sig);\n        require(\n            disputes[hash].status == DisputeStatus.NoDispute,\n            \"Listing has already been reported\"\n        );\n        require(\n            msg.sender != _listing.stakeOwner,\n            \"You can't report yourself. Use cancelListing()\"\n        );\n        uint256 arbitrationCost = arbitrator.arbitrationCost(reportExtraData);\n        require(\n            msg.value >= arbitrationCost,\n            \"Value must be greater than arbitrationCost\"\n        );\n        Seller storage prosecution = sellers[msg.sender];\n        require(\n            now > prosecution.blackListExpire,\n            \"You are not allowed to report listings.\"\n        );\n        uint256 availableBalance = prosecution.balance -\n            prosecution.lockedTokens;\n        if (availableBalance < _listing.stakedAmount) {\n            require(\n                marketToken.transferFrom(\n                    msg.sender,\n                    address(this),\n                    _listing.stakedAmount - availableBalance\n                ),\n                \"Unable to transfer tokens\"\n            );\n            prosecution.balance += _listing.stakedAmount - availableBalance;\n        }\n        /* EFFECTS */\n\n        Seller storage defendant = sellers[_listing.stakeOwner];\n        prosecution.lockedTokens += _listing.stakedAmount;\n        defendant.lockedTokens += _listing.stakedAmount;\n        RunningDispute storage dispute = _createDispute(\n            hash,\n            msg.sender,\n            _listing.stakeOwner,\n            _listing.stakedAmount,\n            marketToken,\n            msg.value,\n            DisputeType.Report\n        );\n        emit MetaEvidence(\n            dispute.metaEvidenceId,\n            string(abi.encodePacked(ipfsDomain, _listing.ipfsHash))\n        );\n    }\n\n    function _createDispute(\n        bytes32 hash,\n        address payable prosecution,\n        address payable defendant,\n        uint256 amount,\n        ERC20 token,\n        uint256 prosecutionFee,\n        DisputeType disputeType\n    ) internal returns (RunningDispute storage dispute) {\n        dispute = disputes[hash];\n        dispute.prosecution = prosecution;\n        dispute.defendant = defendant;\n        dispute.amount = amount;\n        dispute.prosecutionFee += prosecutionFee;\n        dispute.disputeType = disputeType;\n        /* We know the token is market token, save gas*/\n        if (disputeType == DisputeType.Report) dispute.token = token;\n        dispute.status = DisputeStatus.WaitingDefendant;\n        dispute.lastInteraction = now;\n        dispute.metaEvidenceId = metaEvidenceCount++;\n        emit HasToPayFee(hash, Party.Defendant);\n    }\n\n    function disputeTimeout(bytes32 hash) public {\n        RunningDispute storage dispute = disputes[hash];\n        require(\n            DisputeStatus.NoDispute < dispute.status &&\n                dispute.status < DisputeStatus.DisputeCreated,\n            \"Dispute is not waiting for any party.\"\n        );\n        require(\n            now - dispute.lastInteraction >= feeTimeout,\n            \"Timeout time has not passed yet.\"\n        );\n        bool success;\n        if (dispute.prosecutionFee != 0) {\n            uint256 prosecutionFee = dispute.prosecutionFee;\n            dispute.prosecutionFee = 0;\n            (success, ) = dispute.prosecution.call{value: prosecutionFee}(\"\");\n        }\n        if (dispute.defendantFee != 0) {\n            uint256 defendantFee = dispute.defendantFee;\n            dispute.defendantFee = 0;\n            (success, ) = dispute.defendant.call{value: defendantFee}(\"\");\n        }\n        if (dispute.status == DisputeStatus.WaitingDefendant) {\n            executeReportRuling(\n                dispute,\n                uint256(RulingOptions.ProsecutionWins)\n            );\n        } else {\n            executeReportRuling(dispute, uint256(RulingOptions.DefendantWins));\n        }\n    }\n\n    function payArbitrationFee(bytes32 hash) public payable {\n        RunningDispute storage dispute = disputes[hash];\n        uint256 arbitrationCost = arbitrator.arbitrationCost(reportExtraData);\n        require(\n            DisputeStatus.NoDispute < dispute.status &&\n                dispute.status < DisputeStatus.DisputeCreated,\n            \"Dispute has already been created.\"\n        );\n        require(\n            msg.sender == dispute.prosecution ||\n                msg.sender == dispute.defendant,\n            \"The caller must be the sender.\"\n        );\n\n        if (msg.sender == dispute.prosecution) {\n            dispute.prosecutionFee += msg.value;\n            require(\n                dispute.prosecutionFee >= arbitrationCost,\n                \"The prosecution fee must cover arbitration costs.\"\n            );\n            dispute.lastInteraction = now;\n            if (dispute.defendantFee < arbitrationCost) {\n                dispute.status = DisputeStatus.WaitingDefendant;\n                emit HasToPayFee(hash, Party.Defendant);\n            } else {\n                // The receiver has also paid the fee. We create the dispute.\n                raiseDispute(hash, arbitrationCost);\n            }\n        } else {\n            dispute.defendantFee += msg.value;\n            require(\n                dispute.defendantFee >= arbitrationCost,\n                \"The prosecution fee must cover arbitration costs.\"\n            );\n            dispute.lastInteraction = now;\n            if (dispute.prosecutionFee < arbitrationCost) {\n                dispute.status = DisputeStatus.WaitingProsecution;\n                emit HasToPayFee(hash, Party.Prosecution);\n            } else {\n                // The receiver has also paid the fee. We create the dispute.\n                raiseDispute(hash, arbitrationCost);\n            }\n        }\n    }\n\n    function raiseDispute(bytes32 hash, uint256 _arbitrationCost) internal {\n        RunningDispute storage dispute = disputes[hash];\n        dispute.status = DisputeStatus.DisputeCreated;\n        uint256 disputeId = arbitrator.createDispute{value: _arbitrationCost}(\n            AMOUNT_OF_CHOICES,\n            dispute.disputeType == DisputeType.Order\n                ? orderExtraData\n                : reportExtraData\n        );\n        disputeIDtoHash[disputeId] = hash;\n        emit Dispute(\n            arbitrator,\n            disputeId,\n            dispute.metaEvidenceId,\n            dispute.metaEvidenceId\n        );\n        // Refund sender if it overpaid.\n        bool success;\n        if (dispute.prosecutionFee > _arbitrationCost) {\n            uint256 extraFeeProsecution = dispute.prosecutionFee -\n                _arbitrationCost;\n            dispute.prosecutionFee = _arbitrationCost;\n            (success, ) = dispute.prosecution.call{value: extraFeeProsecution}(\n                \"\"\n            );\n        }\n\n        // Refund receiver if it overpaid.\n        if (dispute.defendantFee > _arbitrationCost) {\n            uint256 extraFeeDefendant = dispute.defendantFee - _arbitrationCost;\n            dispute.defendantFee = _arbitrationCost;\n            (success, ) = dispute.defendant.call{value: extraFeeDefendant}(\"\");\n        }\n    }\n\n    /** @dev Submit a reference to evidence. EVENT.\n     *  @param _hash The hash of the order.\n     *  @param _evidence A link to an evidence using its URI.\n     */\n    function submitEvidence(bytes32 _hash, string memory _evidence) public {\n        RunningDispute storage dispute = disputes[_hash];\n        require(\n            msg.sender == dispute.prosecution ||\n                msg.sender == dispute.defendant,\n            \"The caller must be the prosecution or the defendant.\"\n        );\n        require(\n            dispute.disputeType == DisputeType.Order,\n            \"Evidences are only allowed for orders disputes.\"\n        );\n        require(\n            dispute.status < DisputeStatus.Resolved,\n            \"Must not send evidence if the dispute is resolved.\"\n        );\n\n        emit Evidence(\n            arbitrator,\n            dispute.metaEvidenceId,\n            msg.sender,\n            _evidence\n        );\n    }\n\n    /** @dev Appeal an appealable ruling. UNTRUSTED.\n     *  Transfer the funds to the arbitrator.\n     *  Note that no checks are required as the checks are done by the arbitrator.\n     *  @param _hash The hash of the order.\n     */\n    function appeal(bytes32 _hash) public payable {\n        RunningDispute storage dispute = disputes[_hash];\n        require(\n            dispute.disputeType == DisputeType.Order,\n            \"Appeals are only allowed for orders disputes.\"\n        );\n\n        arbitrator.appeal{value: msg.value}(dispute.disputeId, orderExtraData);\n    }\n\n    function rule(uint256 _disputeID, uint256 _ruling) public override {\n        bytes32 hash = disputeIDtoHash[_disputeID];\n        RunningDispute storage dispute = disputes[hash];\n        require(\n            msg.sender == address(arbitrator),\n            \"The caller must be the arbitrator.\"\n        );\n        require(\n            dispute.status == DisputeStatus.DisputeCreated,\n            \"The dispute has already been resolved.\"\n        );\n        emit Ruling(Arbitrator(msg.sender), _disputeID, _ruling);\n        if (dispute.disputeType == DisputeType.Report) {\n            executeReportRuling(dispute, _ruling);\n        } else {\n            _executeOrderRuling(dispute, _ruling);\n            transactions[hash].status = Status.Finalized;\n        }\n    }\n\n    function _executeOrderRuling(\n        RunningDispute storage dispute,\n        uint256 _ruling\n    ) internal {\n        require(_ruling <= AMOUNT_OF_CHOICES, \"Invalid ruling.\");\n\n        uint256 amount = dispute.amount;\n        uint256 prosecutionFee = dispute.prosecutionFee;\n        uint256 defendantFee = dispute.defendantFee;\n\n        dispute.amount = 0;\n        dispute.prosecutionFee = 0;\n        dispute.defendantFee = 0;\n        dispute.status = DisputeStatus.Resolved;\n        // Give the arbitration fee back.\n        // Note that we use `send` to prevent a party from blocking the execution.\n        bool success = false;\n        if (_ruling == uint256(RulingOptions.ProsecutionWins)) {\n            (success, ) = dispute.prosecution.call{value: prosecutionFee}(\"\");\n            require(\n                dispute.token.transfer(dispute.prosecution, amount),\n                \"The `transfer` function must not fail.\"\n            );\n        } else if (_ruling == uint256(RulingOptions.DefendantWins)) {\n            (success, ) = dispute.defendant.call{value: defendantFee}(\"\");\n            require(\n                dispute.token.transfer(dispute.defendant, amount),\n                \"The `transfer` function must not fail.\"\n            );\n        } else {\n            // `senderFee` and `receiverFee` are equal to the arbitration cost.\n            uint256 splitArbitrationFee = prosecutionFee / 2;\n            /* Give 1 wei more to defendant in case of even number */\n            (success, ) = dispute.defendant.call{\n                value: defendantFee - splitArbitrationFee\n            }(\"\");\n            (success, ) = dispute.prosecution.call{value: splitArbitrationFee}(\n                \"\"\n            );\n            uint256 half = amount / 2;\n            require(\n                dispute.token.transfer(dispute.defendant, amount - half),\n                \"The `transfer` function must not fail.\"\n            );\n            require(\n                dispute.token.transfer(dispute.prosecution, half),\n                \"The `transfer` function must not fail.\"\n            );\n        }\n    }\n\n    function executeReportRuling(\n        RunningDispute storage dispute,\n        uint256 _ruling\n    ) internal {\n        require(_ruling <= AMOUNT_OF_CHOICES, \"Invalid ruling.\");\n\n        uint256 amount = dispute.amount;\n        uint256 prosecutionFee = dispute.prosecutionFee;\n        uint256 defendantFee = dispute.defendantFee;\n\n        dispute.amount = 0;\n        dispute.prosecutionFee = 0;\n        dispute.defendantFee = 0;\n        dispute.status = DisputeStatus.Resolved;\n        sellers[dispute.prosecution].lockedTokens -= dispute.amount;\n        sellers[dispute.defendant].lockedTokens -= dispute.amount;\n        // Give the arbitration fee back.\n        // Note that we use `send` to prevent a party from blocking the execution.\n        bool success = false;\n        if (_ruling == uint256(RulingOptions.ProsecutionWins)) {\n            (success, ) = dispute.prosecution.call{value: prosecutionFee}(\"\");\n            sellers[dispute.defendant].balance -= amount;\n            sellers[dispute.prosecution].balance += amount / 2;\n            marketToken.burn(amount - (amount / 2));\n        } else if (_ruling == uint256(RulingOptions.DefendantWins)) {\n            (success, ) = dispute.defendant.call{value: defendantFee}(\"\");\n            sellers[dispute.prosecution].blackListExpire =\n                now +\n                blackListTimeout;\n            sellers[dispute.prosecution].balance -= amount;\n            sellers[dispute.defendant].balance += amount / 2;\n            marketToken.burn(amount - (amount / 2));\n        } else {\n            // `senderFee` and `receiverFee` are equal to the arbitration cost.\n            uint256 splitArbitrationFee = prosecutionFee / 2;\n            (success, ) = dispute.defendant.call{\n                value: defendantFee - splitArbitrationFee\n            }(\"\");\n            (success, ) = dispute.prosecution.call{value: splitArbitrationFee}(\n                \"\"\n            );\n            // In the case of an uneven token amount, one basic token unit can be burnt.\n            sellers[dispute.prosecution].balance -= amount / 2;\n            sellers[dispute.defendant].balance -= amount / 2;\n        }\n    }\n\n    function validateListing(\n        bytes32 hash,\n        Listing memory _listing,\n        Sig memory sig\n    ) internal view returns (bool) {\n        /* Listing has expired */\n        if (_listing.expiration != 0 && now > _listing.expiration) {\n            return false;\n        }\n\n        /* Stake owner must have enough tokens */\n        Seller storage stakeOwner = sellers[_listing.stakeOwner];\n        if (\n            stakeOwner.balance - stakeOwner.lockedTokens < _listing.stakedAmount\n        ) {\n            return false;\n        }\n\n        /* Listing must have not been canceled or already filled. */\n        if (cancelledOrFinalized[hash]) {\n            return false;\n        }\n\n        /* Listing authentication. Listing must be either:\n        /* (a) previously approved */\n        if (approvedHashes[hash]) {\n            return true;\n        }\n\n        /* or (b) ECDSA-signed by stakeOwner. */\n        if (ecrecover(hash, sig.v, sig.r, sig.s) == _listing.stakeOwner) {\n            return true;\n        }\n\n        return false;\n    }\n\n    function validateOrder(\n        bytes32 hash,\n        Order memory order,\n        Sig memory sig\n    ) internal view returns (bool) {\n        /* Order has expired */\n        if (order.expiration != 0 && now > order.expiration) {\n            return false;\n        }\n\n        /* Token contract must be allowed */\n        if (!contracts[address(order.token)]) {\n            return false;\n        }\n\n        /* Listing must have not been canceled or already filled. */\n        if (cancelledOrFinalized[hash]) {\n            return false;\n        }\n\n        /* Order authentication. Order must be either:\n        /* (a) previously approved */\n        if (approvedHashes[hash]) {\n            return true;\n        }\n\n        /* or (b) ECDSA-signed by buyer. */\n        if (ecrecover(hash, sig.v, sig.r, sig.s) == order.buyer) {\n            return true;\n        }\n\n        return false;\n    }\n\n    function hashListing(Listing memory listing)\n        internal\n        pure\n        returns (bytes32 hash)\n    {\n        hash = keccak256(\n            abi.encodePacked(\n                listing.ipfsHash,\n                listing.seller,\n                listing.stakeOwner,\n                listing.stakedAmount,\n                listing.commissionPercentage,\n                listing.warranty,\n                listing.cashbackPercentage,\n                listing.expiration\n            )\n        );\n        return hash;\n    }\n\n    function hashOrder(Order memory order)\n        internal\n        pure\n        returns (bytes32 hash)\n    {\n        hash = keccak256(\n            abi.encodePacked(\n                hashListingToSign(order.listing),\n                order.buyer,\n                order.commissioner,\n                order.token,\n                order.total,\n                order.shippingCost,\n                order.expiration,\n                order.confirmationTimeout\n            )\n        );\n        return hash;\n    }\n\n    function hashToSign(bytes32 hash) internal pure returns (bytes32) {\n        return\n            keccak256(\n                abi.encodePacked(\"\\x19Ethereum Signed Message:\\n32\", hash)\n            );\n    }\n\n    function hashListingToSign(Listing memory listing)\n        internal\n        pure\n        returns (bytes32)\n    {\n        return hashToSign(hashListing(listing));\n    }\n\n    function hashOrderToSign(Order memory order)\n        internal\n        pure\n        returns (bytes32)\n    {\n        return hashToSign(hashOrder(order));\n    }\n\n    function requireValidListing(Listing memory listing, Sig memory sig)\n        internal\n        view\n        returns (bytes32)\n    {\n        bytes32 hash = hashListingToSign(listing);\n        require(validateListing(hash, listing, sig), \"Invalid listing\");\n        return hash;\n    }\n\n    function requireValidOrder(Order memory order, Sig memory orderSig, Sig memory listingSig)\n        internal\n        view\n        returns (bytes32)\n    {\n        bytes32 hash = hashOrderToSign(order);\n        require(validateListing(hash, order.listing, listingSig), \"Invalid listing\");\n        require(validateOrder(hash, order, orderSig), \"Invalid order\");\n        return hash;\n    }\n}\n",
  "sourcePath": "/home/gustavo/dagora/contracts/marketplace/Dagora.sol",
  "compiler": {
    "name": "solc",
    "version": "0.6.8+commit.0bbfe453.Emscripten.clang"
  },
  "schemaVersion": "3.2.0",
  "updatedAt": "2020-05-28T19:04:26.352Z",
  "devdoc": {
    "methods": {
      "appeal(bytes32)": {
        "details": "Appeal an appealable ruling. UNTRUSTED. Transfer the funds to the arbitrator. Note that no checks are required as the checks are done by the arbitrator.",
        "params": {
          "_hash": "The hash of the order."
        }
      },
      "owner()": {
        "details": "Returns the address of the current owner."
      },
      "renounceOwnership()": {
        "details": "Leaves the contract without owner. It will not be possible to call `onlyOwner` functions anymore. Can only be called by the current owner.     * NOTE: Renouncing ownership will leave the contract without an owner, thereby removing any functionality that is only available to the owner."
      },
      "submitEvidence(bytes32,string)": {
        "details": "Submit a reference to evidence. EVENT.",
        "params": {
          "_evidence": "A link to an evidence using its URI.",
          "_hash": "The hash of the order."
        }
      },
      "transferOwnership(address)": {
        "details": "Transfers ownership of the contract to a new account (`newOwner`). Can only be called by the current owner."
      }
    }
  },
  "userdoc": {
    "methods": {}
  }
}