{
  "contractName": "Dagora",
  "abi": [
    {
      "inputs": [
        {
          "internalType": "address",
          "name": "_arbitrator",
          "type": "address"
        },
        {
          "internalType": "address",
          "name": "_token",
          "type": "address"
        },
        {
          "internalType": "uint256",
          "name": "_reportTimeout",
          "type": "uint256"
        },
        {
          "internalType": "uint256",
          "name": "_feeTimeout",
          "type": "uint256"
        },
        {
          "internalType": "bytes",
          "name": "_reportExtraData",
          "type": "bytes"
        },
        {
          "internalType": "bytes",
          "name": "_orderExtraData",
          "type": "bytes"
        },
        {
          "internalType": "string",
          "name": "_ipfsDomain",
          "type": "string"
        }
      ],
      "stateMutability": "nonpayable",
      "type": "constructor"
    },
    {
      "anonymous": false,
      "inputs": [
        {
          "indexed": true,
          "internalType": "contract Arbitrator",
          "name": "_arbitrator",
          "type": "address"
        },
        {
          "indexed": true,
          "internalType": "uint256",
          "name": "_disputeID",
          "type": "uint256"
        },
        {
          "indexed": false,
          "internalType": "uint256",
          "name": "_metaEvidenceID",
          "type": "uint256"
        },
        {
          "indexed": false,
          "internalType": "uint256",
          "name": "_evidenceGroupID",
          "type": "uint256"
        }
      ],
      "name": "Dispute",
      "type": "event"
    },
    {
      "anonymous": false,
      "inputs": [
        {
          "indexed": true,
          "internalType": "contract Arbitrator",
          "name": "_arbitrator",
          "type": "address"
        },
        {
          "indexed": true,
          "internalType": "uint256",
          "name": "_evidenceGroupID",
          "type": "uint256"
        },
        {
          "indexed": true,
          "internalType": "address",
          "name": "_party",
          "type": "address"
        },
        {
          "indexed": false,
          "internalType": "string",
          "name": "_evidence",
          "type": "string"
        }
      ],
      "name": "Evidence",
      "type": "event"
    },
    {
      "anonymous": false,
      "inputs": [
        {
          "indexed": true,
          "internalType": "bytes32",
          "name": "_hash",
          "type": "bytes32"
        },
        {
          "indexed": false,
          "internalType": "enum Dagora.Party",
          "name": "_party",
          "type": "uint8"
        }
      ],
      "name": "HasToPayFee",
      "type": "event"
    },
    {
      "anonymous": false,
      "inputs": [
        {
          "indexed": true,
          "internalType": "bytes32",
          "name": "hash",
          "type": "bytes32"
        }
      ],
      "name": "ListingCancelled",
      "type": "event"
    },
    {
      "anonymous": false,
      "inputs": [
        {
          "indexed": true,
          "internalType": "uint256",
          "name": "_metaEvidenceID",
          "type": "uint256"
        },
        {
          "indexed": false,
          "internalType": "string",
          "name": "_evidence",
          "type": "string"
        }
      ],
      "name": "MetaEvidence",
      "type": "event"
    },
    {
      "anonymous": false,
      "inputs": [
        {
          "indexed": true,
          "internalType": "contract Arbitrator",
          "name": "_arbitrator",
          "type": "address"
        },
        {
          "indexed": true,
          "internalType": "uint256",
          "name": "_disputeID",
          "type": "uint256"
        },
        {
          "indexed": false,
          "internalType": "uint256",
          "name": "_ruling",
          "type": "uint256"
        }
      ],
      "name": "Ruling",
      "type": "event"
    },
    {
      "inputs": [
        {
          "internalType": "bytes32",
          "name": "",
          "type": "bytes32"
        }
      ],
      "name": "approvedOrders",
      "outputs": [
        {
          "internalType": "bool",
          "name": "",
          "type": "bool"
        }
      ],
      "stateMutability": "view",
      "type": "function"
    },
    {
      "inputs": [],
      "name": "arbitrator",
      "outputs": [
        {
          "internalType": "contract Arbitrator",
          "name": "",
          "type": "address"
        }
      ],
      "stateMutability": "view",
      "type": "function"
    },
    {
      "inputs": [
        {
          "internalType": "bytes32",
          "name": "",
          "type": "bytes32"
        }
      ],
      "name": "cancelledOrFinalized",
      "outputs": [
        {
          "internalType": "bool",
          "name": "",
          "type": "bool"
        }
      ],
      "stateMutability": "view",
      "type": "function"
    },
    {
      "inputs": [
        {
          "internalType": "uint256",
          "name": "",
          "type": "uint256"
        }
      ],
      "name": "disputeIDtoHash",
      "outputs": [
        {
          "internalType": "bytes32",
          "name": "",
          "type": "bytes32"
        }
      ],
      "stateMutability": "view",
      "type": "function"
    },
    {
      "inputs": [
        {
          "internalType": "bytes32",
          "name": "",
          "type": "bytes32"
        }
      ],
      "name": "disputes",
      "outputs": [
        {
          "internalType": "address payable",
          "name": "prosecution",
          "type": "address"
        },
        {
          "internalType": "address payable",
          "name": "defendant",
          "type": "address"
        },
        {
          "internalType": "uint256",
          "name": "amount",
          "type": "uint256"
        },
        {
          "internalType": "contract ERC20",
          "name": "token",
          "type": "address"
        },
        {
          "internalType": "uint256",
          "name": "prosecutionFee",
          "type": "uint256"
        },
        {
          "internalType": "uint256",
          "name": "defendantFee",
          "type": "uint256"
        },
        {
          "internalType": "enum Dagora.DisputeType",
          "name": "disputeType",
          "type": "uint8"
        },
        {
          "internalType": "uint256",
          "name": "lastInteraction",
          "type": "uint256"
        },
        {
          "internalType": "uint256",
          "name": "metaEvidenceId",
          "type": "uint256"
        },
        {
          "internalType": "enum Dagora.Status",
          "name": "status",
          "type": "uint8"
        }
      ],
      "stateMutability": "view",
      "type": "function"
    },
    {
      "inputs": [],
      "name": "feeTimeout",
      "outputs": [
        {
          "internalType": "uint256",
          "name": "",
          "type": "uint256"
        }
      ],
      "stateMutability": "view",
      "type": "function"
    },
    {
      "inputs": [],
      "name": "ipfsDomain",
      "outputs": [
        {
          "internalType": "string",
          "name": "",
          "type": "string"
        }
      ],
      "stateMutability": "view",
      "type": "function"
    },
    {
      "inputs": [],
      "name": "marketToken",
      "outputs": [
        {
          "internalType": "contract ERC20Burnable",
          "name": "",
          "type": "address"
        }
      ],
      "stateMutability": "view",
      "type": "function"
    },
    {
      "inputs": [],
      "name": "metaEvidenceCount",
      "outputs": [
        {
          "internalType": "uint256",
          "name": "",
          "type": "uint256"
        }
      ],
      "stateMutability": "view",
      "type": "function"
    },
    {
      "inputs": [],
      "name": "orderExtraData",
      "outputs": [
        {
          "internalType": "bytes",
          "name": "",
          "type": "bytes"
        }
      ],
      "stateMutability": "view",
      "type": "function"
    },
    {
      "inputs": [],
      "name": "reportExtraData",
      "outputs": [
        {
          "internalType": "bytes",
          "name": "",
          "type": "bytes"
        }
      ],
      "stateMutability": "view",
      "type": "function"
    },
    {
      "inputs": [],
      "name": "reportTimeout",
      "outputs": [
        {
          "internalType": "uint256",
          "name": "",
          "type": "uint256"
        }
      ],
      "stateMutability": "view",
      "type": "function"
    },
    {
      "inputs": [
        {
          "internalType": "address",
          "name": "",
          "type": "address"
        }
      ],
      "name": "sellers",
      "outputs": [
        {
          "internalType": "uint256",
          "name": "balance",
          "type": "uint256"
        },
        {
          "internalType": "uint256",
          "name": "lockedTokens",
          "type": "uint256"
        }
      ],
      "stateMutability": "view",
      "type": "function"
    },
    {
      "inputs": [
        {
          "internalType": "uint256",
          "name": "value",
          "type": "uint256"
        }
      ],
      "name": "depositTokens",
      "outputs": [],
      "stateMutability": "nonpayable",
      "type": "function"
    },
    {
      "inputs": [
        {
          "internalType": "uint256",
          "name": "value",
          "type": "uint256"
        }
      ],
      "name": "withdrawTokens",
      "outputs": [],
      "stateMutability": "nonpayable",
      "type": "function"
    },
    {
      "inputs": [
        {
          "components": [
            {
              "internalType": "bytes32",
              "name": "ipfsHash",
              "type": "bytes32"
            },
            {
              "internalType": "address",
              "name": "seller",
              "type": "address"
            },
            {
              "internalType": "address payable",
              "name": "stakeOwner",
              "type": "address"
            },
            {
              "internalType": "uint256",
              "name": "stakedAmount",
              "type": "uint256"
            },
            {
              "internalType": "uint256",
              "name": "commissionPercentage",
              "type": "uint256"
            },
            {
              "internalType": "uint256",
              "name": "creationTimestamp",
              "type": "uint256"
            },
            {
              "internalType": "uint256",
              "name": "warrantyTimeout",
              "type": "uint256"
            },
            {
              "internalType": "uint256",
              "name": "expiration",
              "type": "uint256"
            }
          ],
          "internalType": "struct Dagora.Listing",
          "name": "_listing",
          "type": "tuple"
        }
      ],
      "name": "approveListing",
      "outputs": [
        {
          "internalType": "bool",
          "name": "",
          "type": "bool"
        }
      ],
      "stateMutability": "nonpayable",
      "type": "function"
    },
    {
      "inputs": [
        {
          "components": [
            {
              "internalType": "bytes32",
              "name": "ipfsHash",
              "type": "bytes32"
            },
            {
              "internalType": "address",
              "name": "seller",
              "type": "address"
            },
            {
              "internalType": "address payable",
              "name": "stakeOwner",
              "type": "address"
            },
            {
              "internalType": "uint256",
              "name": "stakedAmount",
              "type": "uint256"
            },
            {
              "internalType": "uint256",
              "name": "commissionPercentage",
              "type": "uint256"
            },
            {
              "internalType": "uint256",
              "name": "creationTimestamp",
              "type": "uint256"
            },
            {
              "internalType": "uint256",
              "name": "warrantyTimeout",
              "type": "uint256"
            },
            {
              "internalType": "uint256",
              "name": "expiration",
              "type": "uint256"
            }
          ],
          "internalType": "struct Dagora.Listing",
          "name": "_listing",
          "type": "tuple"
        },
        {
          "components": [
            {
              "internalType": "uint8",
              "name": "v",
              "type": "uint8"
            },
            {
              "internalType": "bytes32",
              "name": "r",
              "type": "bytes32"
            },
            {
              "internalType": "bytes32",
              "name": "s",
              "type": "bytes32"
            }
          ],
          "internalType": "struct Dagora.Sig",
          "name": "sig",
          "type": "tuple"
        }
      ],
      "name": "report",
      "outputs": [
        {
          "internalType": "bytes32",
          "name": "hash",
          "type": "bytes32"
        }
      ],
      "stateMutability": "payable",
      "type": "function"
    },
    {
      "inputs": [
        {
          "internalType": "bytes32",
          "name": "hash",
          "type": "bytes32"
        }
      ],
      "name": "disputeTimeOut",
      "outputs": [],
      "stateMutability": "nonpayable",
      "type": "function"
    },
    {
      "inputs": [
        {
          "internalType": "bytes32",
          "name": "hash",
          "type": "bytes32"
        }
      ],
      "name": "payArbitrationFee",
      "outputs": [],
      "stateMutability": "payable",
      "type": "function"
    },
    {
      "inputs": [
        {
          "internalType": "uint256",
          "name": "_disputeID",
          "type": "uint256"
        },
        {
          "internalType": "uint256",
          "name": "_ruling",
          "type": "uint256"
        }
      ],
      "name": "rule",
      "outputs": [],
      "stateMutability": "nonpayable",
      "type": "function"
    }
  ],
  "bytecode": "0x60806040523480156200001157600080fd5b5060405162004aec38038062004aec83398181016040528101906200003791906200033b565b86600560006101000a81548173ffffffffffffffffffffffffffffffffffffffff021916908373ffffffffffffffffffffffffffffffffffffffff16021790555085600a60006101000a81548173ffffffffffffffffffffffffffffffffffffffff021916908373ffffffffffffffffffffffffffffffffffffffff16021790555084600981905550836008819055508260069080519060200190620000df9291906200011f565b508160079080519060200190620000f89291906200011f565b5080600c908051906020019062000111929190620001a6565b505050505050505062000563565b828054600181600116156101000203166002900490600052602060002090601f016020900481019282601f106200016257805160ff191683800117855562000193565b8280016001018555821562000193579182015b828111156200019257825182559160200191906001019062000175565b5b509050620001a291906200022d565b5090565b828054600181600116156101000203166002900490600052602060002090601f016020900481019282601f10620001e957805160ff19168380011785556200021a565b828001600101855582156200021a579182015b8281111562000219578251825591602001919060010190620001fc565b5b5090506200022991906200022d565b5090565b6200025291905b808211156200024e57600081600090555060010162000234565b5090565b90565b60008151905062000266816200052f565b92915050565b600082601f8301126200027e57600080fd5b8151620002956200028f8262000461565b62000433565b91508082526020830160208301858383011115620002b257600080fd5b620002bf838284620004f9565b50505092915050565b600082601f830112620002da57600080fd5b8151620002f1620002eb826200048e565b62000433565b915080825260208301602083018583830111156200030e57600080fd5b6200031b838284620004f9565b50505092915050565b600081519050620003358162000549565b92915050565b600080600080600080600060e0888a0312156200035757600080fd5b6000620003678a828b0162000255565b97505060206200037a8a828b0162000255565b96505060406200038d8a828b0162000324565b9550506060620003a08a828b0162000324565b945050608088015167ffffffffffffffff811115620003be57600080fd5b620003cc8a828b016200026c565b93505060a088015167ffffffffffffffff811115620003ea57600080fd5b620003f88a828b016200026c565b92505060c088015167ffffffffffffffff8111156200041657600080fd5b620004248a828b01620002c8565b91505092959891949750929550565b6000604051905081810181811067ffffffffffffffff821117156200045757600080fd5b8060405250919050565b600067ffffffffffffffff8211156200047957600080fd5b601f19601f8301169050602081019050919050565b600067ffffffffffffffff821115620004a657600080fd5b601f19601f8301169050602081019050919050565b6000620004c882620004cf565b9050919050565b600073ffffffffffffffffffffffffffffffffffffffff82169050919050565b6000819050919050565b60005b8381101562000519578082015181840152602081019050620004fc565b8381111562000529576000848401525b50505050565b6200053a81620004bb565b81146200054657600080fd5b50565b6200055481620004ef565b81146200056057600080fd5b50565b61457980620005736000396000f3fe60806040526004361061011f5760003560e01c8063ad48d611116100a0578063ca8d50ad11610064578063ca8d50ad146103ff578063dd49756e14610428578063e57d4adb14610451578063e6a445821461048e578063ee7269d7146104b95761011f565b8063ad48d61114610325578063b329036b14610350578063b63986671461037b578063ba4bc763146103a6578063be6a18ef146103e35761011f565b80636cc6cde1116100e75780636cc6cde1146102245780636d47ab721461024f5780638076f0051461028d57806382ad5f75146102ca578063a2031de4146102fa5761011f565b806311be199714610124578063311a6c561461016a578063315a095d146101935780635af79807146101bc5780636b83a061146101e7575b600080fd5b34801561013057600080fd5b5061014b600480360381019061014691906132ed565b6104e4565b6040516101619a99989796959493929190613cfc565b60405180910390f35b34801561017657600080fd5b50610191600480360381019061018c91906133d0565b6105b2565b005b34801561019f57600080fd5b506101ba60048036038101906101b5919061337e565b610680565b005b3480156101c857600080fd5b506101d161081c565b6040516101de919061414a565b60405180910390f35b3480156101f357600080fd5b5061020e60048036038101906102099190613316565b610822565b60405161021b9190613df8565b60405180910390f35b34801561023057600080fd5b506102396109c2565b6040516102469190613eb7565b60405180910390f35b34801561025b57600080fd5b506102766004803603810190610271919061329b565b6109e8565b604051610284929190614165565b60405180910390f35b34801561029957600080fd5b506102b460048036038101906102af91906132ed565b610a0c565b6040516102c19190613df8565b60405180910390f35b6102e460048036038101906102df9190613340565b610a2c565b6040516102f19190613e13565b60405180910390f35b34801561030657600080fd5b5061030f6110b4565b60405161031c9190613f08565b60405180910390f35b34801561033157600080fd5b5061033a611152565b6040516103479190613ed2565b60405180910390f35b34801561035c57600080fd5b50610365611178565b604051610372919061414a565b60405180910390f35b34801561038757600080fd5b5061039061117e565b60405161039d9190613e73565b60405180910390f35b3480156103b257600080fd5b506103cd60048036038101906103c8919061337e565b61121c565b6040516103da9190613e13565b60405180910390f35b6103fd60048036038101906103f891906132ed565b611234565b005b34801561040b57600080fd5b50610426600480360381019061042191906132ed565b6117d7565b005b34801561043457600080fd5b5061044f600480360381019061044a919061337e565b611a47565b005b34801561045d57600080fd5b50610478600480360381019061047391906132ed565b611b53565b6040516104859190613df8565b60405180910390f35b34801561049a57600080fd5b506104a3611b73565b6040516104b0919061414a565b60405180910390f35b3480156104c557600080fd5b506104ce611b79565b6040516104db9190613e73565b60405180910390f35b60036020528060005260406000206000915090508060000160009054906101000a900473ffffffffffffffffffffffffffffffffffffffff16908060010160009054906101000a900473ffffffffffffffffffffffffffffffffffffffff16908060020154908060030160009054906101000a900473ffffffffffffffffffffffffffffffffffffffff16908060040154908060050154908060060160009054906101000a900460ff16908060070154908060080154908060090160009054906101000a900460ff1690508a565b813373ffffffffffffffffffffffffffffffffffffffff167f394027a5fa6e098a1191094d1719d6929b9abc535fcc0c8f448d6a4e75622276836040516105f9919061414a565b60405180910390a360006004600084815260200190815260200160002054905060006003600083815260200190815260200160002090506000600181111561063d57fe5b8160060160009054906101000a900460ff16600181111561065a57fe5b141561066f5761066a8184611c17565b61067a565b6106798184612449565b5b50505050565b60008060003373ffffffffffffffffffffffffffffffffffffffff1673ffffffffffffffffffffffffffffffffffffffff1681526020019081526020016000209050818160010154826000015403101561070f576040517f08c379a000000000000000000000000000000000000000000000000000000000815260040161070690613f2a565b60405180910390fd5b816000803373ffffffffffffffffffffffffffffffffffffffff1673ffffffffffffffffffffffffffffffffffffffff16815260200190815260200160002060000160008282540392505081905550600a60009054906101000a900473ffffffffffffffffffffffffffffffffffffffff1673ffffffffffffffffffffffffffffffffffffffff166323b872dd3330856040518463ffffffff1660e01b81526004016107bd93929190613d98565b602060405180830381600087803b1580156107d757600080fd5b505af11580156107eb573d6000803e3d6000fd5b505050506040513d601f19601f8201168201806040525081019061080f91906132c4565b61081857600080fd5b5050565b600b5481565b6000816040015173ffffffffffffffffffffffffffffffffffffffff163373ffffffffffffffffffffffffffffffffffffffff1614610896576040517f08c379a000000000000000000000000000000000000000000000000000000000815260040161088d9061408a565b60405180910390fd5b81606001516000803373ffffffffffffffffffffffffffffffffffffffff1673ffffffffffffffffffffffffffffffffffffffff16815260200190815260200160002060000154101561091e576040517f08c379a000000000000000000000000000000000000000000000000000000000815260040161091590613fea565b60405180910390fd5b600061092983612be3565b90506002600082815260200190815260200160002060009054906101000a900460ff161561098c576040517f08c379a000000000000000000000000000000000000000000000000000000000815260040161098390613f6a565b60405180910390fd5b60016002600083815260200190815260200160002060006101000a81548160ff0219169083151502179055506001915050919050565b600560009054906101000a900473ffffffffffffffffffffffffffffffffffffffff1681565b60006020528060005260406000206000915090508060000154908060010154905082565b60016020528060005260406000206000915054906101000a900460ff1681565b6000610a3783612be3565b9050610a44818484612c44565b610a83576040517f08c379a0000000000000000000000000000000000000000000000000000000008152600401610a7a9061410a565b60405180910390fd5b60006004811115610a9057fe5b6003600083815260200190815260200160002060090160009054906101000a900460ff166004811115610abf57fe5b14610aff576040517f08c379a0000000000000000000000000000000000000000000000000000000008152600401610af69061404a565b60405180910390fd5b6009548360a00151014210610b49576040517f08c379a0000000000000000000000000000000000000000000000000000000008152600401610b40906140ca565b60405180910390fd5b826040015173ffffffffffffffffffffffffffffffffffffffff163373ffffffffffffffffffffffffffffffffffffffff161415610bbc576040517f08c379a0000000000000000000000000000000000000000000000000000000008152600401610bb39061412a565b60405180910390fd5b6000600560009054906101000a900473ffffffffffffffffffffffffffffffffffffffff1673ffffffffffffffffffffffffffffffffffffffff1663f7434ea960066040518263ffffffff1660e01b8152600401610c1a9190613e95565b60206040518083038186803b158015610c3257600080fd5b505afa158015610c46573d6000803e3d6000fd5b505050506040513d601f19601f82011682018060405250810190610c6a91906133a7565b905080341015610caf576040517f08c379a0000000000000000000000000000000000000000000000000000000008152600401610ca6906140aa565b60405180910390fd5b60008060003373ffffffffffffffffffffffffffffffffffffffff1673ffffffffffffffffffffffffffffffffffffffff16815260200190815260200160002090506000806000876040015173ffffffffffffffffffffffffffffffffffffffff1673ffffffffffffffffffffffffffffffffffffffff16815260200190815260200160002090506000826001015483600001540390508660600151811015610e6157600a60009054906101000a900473ffffffffffffffffffffffffffffffffffffffff1673ffffffffffffffffffffffffffffffffffffffff166323b872dd3330848b60600151036040518463ffffffff1660e01b8152600401610db793929190613d98565b602060405180830381600087803b158015610dd157600080fd5b505af1158015610de5573d6000803e3d6000fd5b505050506040513d601f19601f82011682018060405250810190610e0991906132c4565b610e48576040517f08c379a0000000000000000000000000000000000000000000000000000000008152600401610e3f906140ea565b60405180910390fd5b8087606001510383600001600082825401925050819055505b86606001518360010160008282540192505081905550866060015182600101600082825401925050819055506000600360008781526020019081526020016000209050338160000160006101000a81548173ffffffffffffffffffffffffffffffffffffffff021916908373ffffffffffffffffffffffffffffffffffffffff16021790555087604001518160010160006101000a81548173ffffffffffffffffffffffffffffffffffffffff021916908373ffffffffffffffffffffffffffffffffffffffff16021790555087606001518160020181905550600a60009054906101000a900473ffffffffffffffffffffffffffffffffffffffff168160030160006101000a81548173ffffffffffffffffffffffffffffffffffffffff021916908373ffffffffffffffffffffffffffffffffffffffff16021790555060008160060160006101000a81548160ff02191690836001811115610fc157fe5b021790555060028160090160006101000a81548160ff02191690836004811115610fe757fe5b0217905550428160070181905550600b600081548092919060010191905055816008018190555080600801547f61606860eb6c87306811e2695215385101daab53bd6ab4e9f9049aead9363c7d600c8a6000015160405160200161104c929190613cbf565b6040516020818303038152906040526040516110689190613f08565b60405180910390a2857ff972c77402d0ee7d94e4b2ea7cee21a3d392136bf7c9b72d2dc85e2a4d24a9cf60016040516110a19190613eed565b60405180910390a2505050505092915050565b600c8054600181600116156101000203166002900480601f01602080910402602001604051908101604052809291908181526020018280546001816001161561010002031660029004801561114a5780601f1061111f5761010080835404028352916020019161114a565b820191906000526020600020905b81548152906001019060200180831161112d57829003601f168201915b505050505081565b600a60009054906101000a900473ffffffffffffffffffffffffffffffffffffffff1681565b60085481565b60078054600181600116156101000203166002900480601f0160208091040260200160405190810160405280929190818152602001828054600181600116156101000203166002900480156112145780601f106111e957610100808354040283529160200191611214565b820191906000526020600020905b8154815290600101906020018083116111f757829003601f168201915b505050505081565b60046020528060005260406000206000915090505481565b60006003600083815260200190815260200160002090506000600560009054906101000a900473ffffffffffffffffffffffffffffffffffffffff1673ffffffffffffffffffffffffffffffffffffffff1663f7434ea960066040518263ffffffff1660e01b81526004016112a99190613e95565b60206040518083038186803b1580156112c157600080fd5b505afa1580156112d5573d6000803e3d6000fd5b505050506040513d601f19601f820116820180604052508101906112f991906133a7565b90508160090160009054906101000a900460ff16600481111561131857fe5b6000600481111561132557fe5b11801561135957506003600481111561133a57fe5b8260090160009054906101000a900460ff16600481111561135757fe5b105b611398576040517f08c379a000000000000000000000000000000000000000000000000000000000815260040161138f90613f4a565b60405180910390fd5b8160000160009054906101000a900473ffffffffffffffffffffffffffffffffffffffff1673ffffffffffffffffffffffffffffffffffffffff163373ffffffffffffffffffffffffffffffffffffffff16148061144557508160010160009054906101000a900473ffffffffffffffffffffffffffffffffffffffff1673ffffffffffffffffffffffffffffffffffffffff163373ffffffffffffffffffffffffffffffffffffffff16145b611484576040517f08c379a000000000000000000000000000000000000000000000000000000000815260040161147b9061406a565b60405180910390fd5b8160000160009054906101000a900473ffffffffffffffffffffffffffffffffffffffff1673ffffffffffffffffffffffffffffffffffffffff163373ffffffffffffffffffffffffffffffffffffffff161415611659573482600401600082825401925050819055508082600401541015611535576040517f08c379a000000000000000000000000000000000000000000000000000000000815260040161152c90613fca565b60405180910390fd5b42826007018190555080826005015410156115ae5760028260090160006101000a81548160ff0219169083600481111561156b57fe5b0217905550827ff972c77402d0ee7d94e4b2ea7cee21a3d392136bf7c9b72d2dc85e2a4d24a9cf60016040516115a19190613eed565b60405180910390a2611654565b611653838260068054600181600116156101000203166002900480601f0160208091040260200160405190810160405280929190818152602001828054600181600116156101000203166002900480156116495780601f1061161e57610100808354040283529160200191611649565b820191906000526020600020905b81548152906001019060200180831161162c57829003601f168201915b5050505050612e3c565b5b6117d2565b34826005016000828254019250508190555080826005015410156116b2576040517f08c379a00000000000000000000000000000000000000000000000000000000081526004016116a990613fca565b60405180910390fd5b428260070181905550808260040154101561172b5760018260090160006101000a81548160ff021916908360048111156116e857fe5b0217905550827ff972c77402d0ee7d94e4b2ea7cee21a3d392136bf7c9b72d2dc85e2a4d24a9cf600060405161171e9190613eed565b60405180910390a26117d1565b6117d0838260068054600181600116156101000203166002900480601f0160208091040260200160405190810160405280929190818152602001828054600181600116156101000203166002900480156117c65780601f1061179b576101008083540402835291602001916117c6565b820191906000526020600020905b8154815290600101906020018083116117a957829003601f168201915b5050505050612e3c565b5b5b505050565b60006003600083815260200190815260200160002090508060090160009054906101000a900460ff16600481111561180b57fe5b6000600481111561181857fe5b11801561184c57506003600481111561182d57fe5b8160090160009054906101000a900460ff16600481111561184a57fe5b105b61188b576040517f08c379a00000000000000000000000000000000000000000000000000000000081526004016118829061400a565b60405180910390fd5b6008548160070154420310156118d6576040517f08c379a00000000000000000000000000000000000000000000000000000000081526004016118cd90613f8a565b60405180910390fd5b600081600401541461195c578060000160009054906101000a900473ffffffffffffffffffffffffffffffffffffffff1673ffffffffffffffffffffffffffffffffffffffff166108fc82600401549081150290604051600060405180830381858888f19350505050158015611950573d6000803e3d6000fd5b50600081600401819055505b60008160050154146119e2578060010160009054906101000a900473ffffffffffffffffffffffffffffffffffffffff1673ffffffffffffffffffffffffffffffffffffffff166108fc82600501549081150290604051600060405180830381858888f193505050501580156119d6573d6000803e3d6000fd5b50600081600501819055505b600260048111156119ef57fe5b8160090160009054906101000a900460ff166004811115611a0c57fe5b1415611a2d57611a288160016002811115611a2357fe5b611c17565b611a43565b611a4281600280811115611a3d57fe5b611c17565b5b5050565b600a60009054906101000a900473ffffffffffffffffffffffffffffffffffffffff1673ffffffffffffffffffffffffffffffffffffffff166323b872dd3330846040518463ffffffff1660e01b8152600401611aa693929190613d98565b602060405180830381600087803b158015611ac057600080fd5b505af1158015611ad4573d6000803e3d6000fd5b505050506040513d601f19601f82011682018060405250810190611af891906132c4565b611b0157600080fd5b806000803373ffffffffffffffffffffffffffffffffffffffff1673ffffffffffffffffffffffffffffffffffffffff1681526020019081526020016000206000016000828254019250508190555050565b60026020528060005260406000206000915054906101000a900460ff1681565b60095481565b60068054600181600116156101000203166002900480601f016020809104026020016040519081016040528092919081815260200182805460018160011615610100020316600290048015611c0f5780601f10611be457610100808354040283529160200191611c0f565b820191906000526020600020905b815481529060010190602001808311611bf257829003601f168201915b505050505081565b600260ff16811115611c5e576040517f08c379a0000000000000000000000000000000000000000000000000000000008152600401611c5590613faa565b60405180910390fd5b60008260020154905060008360040154905060008460050154905060008560020181905550600085600401819055506000856005018190555060048560090160006101000a81548160ff02191690836004811115611cb857fe5b021790555084600201546000808760000160009054906101000a900473ffffffffffffffffffffffffffffffffffffffff1673ffffffffffffffffffffffffffffffffffffffff1673ffffffffffffffffffffffffffffffffffffffff1681526020019081526020016000206001016000828254039250508190555084600201546000808760010160009054906101000a900473ffffffffffffffffffffffffffffffffffffffff1673ffffffffffffffffffffffffffffffffffffffff1673ffffffffffffffffffffffffffffffffffffffff16815260200190815260200160002060010160008282540392505081905550600080905060016002811115611dbd57fe5b851415611fe2578560000160009054906101000a900473ffffffffffffffffffffffffffffffffffffffff1673ffffffffffffffffffffffffffffffffffffffff1683604051611e0c90613ce7565b60006040518083038185875af1925050503d8060008114611e49576040519150601f19603f3d011682016040523d82523d6000602084013e611e4e565b606091505b505080915050836000808860010160009054906101000a900473ffffffffffffffffffffffffffffffffffffffff1673ffffffffffffffffffffffffffffffffffffffff1673ffffffffffffffffffffffffffffffffffffffff1681526020019081526020016000206000016000828254039250508190555060028481611ed157fe5b046000808860000160009054906101000a900473ffffffffffffffffffffffffffffffffffffffff1673ffffffffffffffffffffffffffffffffffffffff1673ffffffffffffffffffffffffffffffffffffffff16815260200190815260200160002060000160008282540192505081905550600a60009054906101000a900473ffffffffffffffffffffffffffffffffffffffff1673ffffffffffffffffffffffffffffffffffffffff166342966c6860028681611f8c57fe5b0486036040518263ffffffff1660e01b8152600401611fab919061414a565b600060405180830381600087803b158015611fc557600080fd5b505af1158015611fd9573d6000803e3d6000fd5b50505050612441565b600280811115611fee57fe5b851415612213578560010160009054906101000a900473ffffffffffffffffffffffffffffffffffffffff1673ffffffffffffffffffffffffffffffffffffffff168260405161203d90613ce7565b60006040518083038185875af1925050503d806000811461207a576040519150601f19603f3d011682016040523d82523d6000602084013e61207f565b606091505b505080915050836000808860000160009054906101000a900473ffffffffffffffffffffffffffffffffffffffff1673ffffffffffffffffffffffffffffffffffffffff1673ffffffffffffffffffffffffffffffffffffffff168152602001908152602001600020600001600082825403925050819055506002848161210257fe5b046000808860010160009054906101000a900473ffffffffffffffffffffffffffffffffffffffff1673ffffffffffffffffffffffffffffffffffffffff1673ffffffffffffffffffffffffffffffffffffffff16815260200190815260200160002060000160008282540192505081905550600a60009054906101000a900473ffffffffffffffffffffffffffffffffffffffff1673ffffffffffffffffffffffffffffffffffffffff166342966c68600286816121bd57fe5b0486036040518263ffffffff1660e01b81526004016121dc919061414a565b600060405180830381600087803b1580156121f657600080fd5b505af115801561220a573d6000803e3d6000fd5b50505050612440565b60006002848161221f57fe5b0490508660010160009054906101000a900473ffffffffffffffffffffffffffffffffffffffff1673ffffffffffffffffffffffffffffffffffffffff1681840360405161226c90613ce7565b60006040518083038185875af1925050503d80600081146122a9576040519150601f19603f3d011682016040523d82523d6000602084013e6122ae565b606091505b5050809250508660000160009054906101000a900473ffffffffffffffffffffffffffffffffffffffff1673ffffffffffffffffffffffffffffffffffffffff16816040516122fc90613ce7565b60006040518083038185875af1925050503d8060008114612339576040519150601f19603f3d011682016040523d82523d6000602084013e61233e565b606091505b5050809250506002858161234e57fe5b046000808960000160009054906101000a900473ffffffffffffffffffffffffffffffffffffffff1673ffffffffffffffffffffffffffffffffffffffff1673ffffffffffffffffffffffffffffffffffffffff16815260200190815260200160002060000160008282540392505081905550600285816123cb57fe5b046000808960010160009054906101000a900473ffffffffffffffffffffffffffffffffffffffff1673ffffffffffffffffffffffffffffffffffffffff1673ffffffffffffffffffffffffffffffffffffffff16815260200190815260200160002060000160008282540392505081905550505b5b505050505050565b600260ff16811115612490576040517f08c379a000000000000000000000000000000000000000000000000000000000815260040161248790613faa565b60405180910390fd5b60008260020154905060008360040154905060008460050154905060008560020181905550600085600401819055506000856005018190555060048560090160006101000a81548160ff021916908360048111156124ea57fe5b021790555060008090506001600281111561250157fe5b8514156126b1578560000160009054906101000a900473ffffffffffffffffffffffffffffffffffffffff1673ffffffffffffffffffffffffffffffffffffffff168360405161255090613ce7565b60006040518083038185875af1925050503d806000811461258d576040519150601f19603f3d011682016040523d82523d6000602084013e612592565b606091505b5050809150508560030160009054906101000a900473ffffffffffffffffffffffffffffffffffffffff1673ffffffffffffffffffffffffffffffffffffffff1663a9059cbb8760000160009054906101000a900473ffffffffffffffffffffffffffffffffffffffff16866040518363ffffffff1660e01b815260040161261b929190613dcf565b602060405180830381600087803b15801561263557600080fd5b505af1158015612649573d6000803e3d6000fd5b505050506040513d601f19601f8201168201806040525081019061266d91906132c4565b6126ac576040517f08c379a00000000000000000000000000000000000000000000000000000000081526004016126a39061402a565b60405180910390fd5b612bdb565b6002808111156126bd57fe5b85141561286d578560010160009054906101000a900473ffffffffffffffffffffffffffffffffffffffff1673ffffffffffffffffffffffffffffffffffffffff168260405161270c90613ce7565b60006040518083038185875af1925050503d8060008114612749576040519150601f19603f3d011682016040523d82523d6000602084013e61274e565b606091505b5050809150508560030160009054906101000a900473ffffffffffffffffffffffffffffffffffffffff1673ffffffffffffffffffffffffffffffffffffffff1663a9059cbb8760010160009054906101000a900473ffffffffffffffffffffffffffffffffffffffff16866040518363ffffffff1660e01b81526004016127d7929190613dcf565b602060405180830381600087803b1580156127f157600080fd5b505af1158015612805573d6000803e3d6000fd5b505050506040513d601f19601f8201168201806040525081019061282991906132c4565b612868576040517f08c379a000000000000000000000000000000000000000000000000000000000815260040161285f9061402a565b60405180910390fd5b612bda565b60006002848161287957fe5b0490508660010160009054906101000a900473ffffffffffffffffffffffffffffffffffffffff1673ffffffffffffffffffffffffffffffffffffffff168184036040516128c690613ce7565b60006040518083038185875af1925050503d8060008114612903576040519150601f19603f3d011682016040523d82523d6000602084013e612908565b606091505b5050809250508660000160009054906101000a900473ffffffffffffffffffffffffffffffffffffffff1673ffffffffffffffffffffffffffffffffffffffff168160405161295690613ce7565b60006040518083038185875af1925050503d8060008114612993576040519150601f19603f3d011682016040523d82523d6000602084013e612998565b606091505b5050809250506000600286816129aa57fe5b0490508760030160009054906101000a900473ffffffffffffffffffffffffffffffffffffffff1673ffffffffffffffffffffffffffffffffffffffff1663a9059cbb8960010160009054906101000a900473ffffffffffffffffffffffffffffffffffffffff168389036040518363ffffffff1660e01b8152600401612a32929190613dcf565b602060405180830381600087803b158015612a4c57600080fd5b505af1158015612a60573d6000803e3d6000fd5b505050506040513d601f19601f82011682018060405250810190612a8491906132c4565b612ac3576040517f08c379a0000000000000000000000000000000000000000000000000000000008152600401612aba9061402a565b60405180910390fd5b8760030160009054906101000a900473ffffffffffffffffffffffffffffffffffffffff1673ffffffffffffffffffffffffffffffffffffffff1663a9059cbb8960000160009054906101000a900473ffffffffffffffffffffffffffffffffffffffff16836040518363ffffffff1660e01b8152600401612b46929190613dcf565b602060405180830381600087803b158015612b6057600080fd5b505af1158015612b74573d6000803e3d6000fd5b505050506040513d601f19601f82011682018060405250810190612b9891906132c4565b612bd7576040517f08c379a0000000000000000000000000000000000000000000000000000000008152600401612bce9061402a565b60405180910390fd5b50505b5b505050505050565b6000816000015182602001518360400151846060015185608001518660a001518760c001518860e00151604051602001612c24989796959493929190613c2d565b604051602081830303815290604052805190602001209050809050919050565b60008260a00151421015612c5b5760009050612e35565b60008360e0015114612c96578260e001518360a001511115612c805760009050612e35565b8260e00151421115612c955760009050612e35565b5b8260600151600080856040015173ffffffffffffffffffffffffffffffffffffffff1673ffffffffffffffffffffffffffffffffffffffff16815260200190815260200160002060010154600080866040015173ffffffffffffffffffffffffffffffffffffffff1673ffffffffffffffffffffffffffffffffffffffff16815260200190815260200160002060000154031015612d375760009050612e35565b6001600085815260200190815260200160002060009054906101000a900460ff1615612d665760009050612e35565b6002600085815260200190815260200160002060009054906101000a900460ff1615612d955760019050612e35565b826040015173ffffffffffffffffffffffffffffffffffffffff1660018584600001518560200151866040015160405160008152602001604052604051612ddf9493929190613e2e565b6020604051602081039080840390855afa158015612e01573d6000803e3d6000fd5b5050506020604051035173ffffffffffffffffffffffffffffffffffffffff161415612e305760019050612e35565b600090505b9392505050565b600060036000858152602001908152602001600020905060038160090160006101000a81548160ff02191690836004811115612e7457fe5b02179055506000600560009054906101000a900473ffffffffffffffffffffffffffffffffffffffff1673ffffffffffffffffffffffffffffffffffffffff1663c13517e1856002866040518463ffffffff1660e01b8152600401612eda92919061418e565b6020604051808303818588803b158015612ef357600080fd5b505af1158015612f07573d6000803e3d6000fd5b50505050506040513d601f19601f82011682018060405250810190612f2c91906133a7565b905084600460008381526020019081526020016000208190555080600560009054906101000a900473ffffffffffffffffffffffffffffffffffffffff1673ffffffffffffffffffffffffffffffffffffffff167f74baab670a4015ab2f1b467c5252a96141a2573f2908e58a92081e80d3cfde3d84600801548560080154604051612fb9929190614165565b60405180910390a3838260040154111561304e5760008483600401540390508483600401819055508260000160009054906101000a900473ffffffffffffffffffffffffffffffffffffffff1673ffffffffffffffffffffffffffffffffffffffff166108fc829081150290604051600060405180830381858888f1935050505015801561304b573d6000803e3d6000fd5b50505b83826005015411156130db5760008483600501540390508483600501819055508260010160009054906101000a900473ffffffffffffffffffffffffffffffffffffffff1673ffffffffffffffffffffffffffffffffffffffff166108fc829081150290604051600060405180830381858888f193505050501580156130d8573d6000803e3d6000fd5b50505b5050505050565b6000813590506130f1816144b9565b92915050565b600081359050613106816144d0565b92915050565b60008151905061311b816144e7565b92915050565b600081359050613130816144fe565b92915050565b6000610100828403121561314957600080fd5b6131546101006141be565b9050600061316484828501613121565b6000830152506020613178848285016130e2565b602083015250604061318c848285016130f7565b60408301525060606131a08482850161325c565b60608301525060806131b48482850161325c565b60808301525060a06131c88482850161325c565b60a08301525060c06131dc8482850161325c565b60c08301525060e06131f08482850161325c565b60e08301525092915050565b60006060828403121561320e57600080fd5b61321860606141be565b9050600061322884828501613286565b600083015250602061323c84828501613121565b602083015250604061325084828501613121565b60408301525092915050565b60008135905061326b81614515565b92915050565b60008151905061328081614515565b92915050565b6000813590506132958161452c565b92915050565b6000602082840312156132ad57600080fd5b60006132bb848285016130e2565b91505092915050565b6000602082840312156132d657600080fd5b60006132e48482850161310c565b91505092915050565b6000602082840312156132ff57600080fd5b600061330d84828501613121565b91505092915050565b6000610100828403121561332957600080fd5b600061333784828501613136565b91505092915050565b600080610160838503121561335457600080fd5b600061336285828601613136565b925050610100613374858286016131fc565b9150509250929050565b60006020828403121561339057600080fd5b600061339e8482850161325c565b91505092915050565b6000602082840312156133b957600080fd5b60006133c784828501613271565b91505092915050565b600080604083850312156133e357600080fd5b60006133f18582860161325c565b92505060206134028582860161325c565b9150509250929050565b6134158161430d565b82525050565b61342481614275565b82525050565b61343b61343682614275565b61443c565b82525050565b61344a81614263565b82525050565b61346161345c82614263565b61442a565b82525050565b61347081614287565b82525050565b61347f81614293565b82525050565b61349661349182614293565b61444e565b82525050565b60006134a782614215565b6134b1818561422b565b93506134c18185602086016143f7565b6134ca81614474565b840191505092915050565b6000815460018116600081146134f257600181146135185761355c565b607f6002830416613503818761422b565b955060ff19831686526020860193505061355c565b60028204613526818761422b565b9550613531856141eb565b60005b8281101561355357815481890152600182019150602081019050613534565b80880195505050505b505092915050565b61356d8161431f565b82525050565b61357c81614343565b82525050565b61358b81614367565b82525050565b61359a8161438b565b82525050565b6135a98161439d565b82525050565b6135b8816143af565b82525050565b60006135c982614220565b6135d38185614247565b93506135e38185602086016143f7565b6135ec81614474565b840191505092915050565b60008154600181166000811461361457600181146136395761367d565b607f60028304166136258187614258565b955060ff198316865280860193505061367d565b600282046136478187614258565b955061365285614200565b60005b8281101561367457815481890152600182019150602081019050613655565b82880195505050505b505092915050565b6000613692601c83614247565b91507f596f7520646f6e2774206861766520656e6f67687420746f6b656e73000000006000830152602082019050919050565b60006136d2602183614247565b91507f446973707574652068617320616c7265616479206265656e206372656174656460008301527f2e000000000000000000000000000000000000000000000000000000000000006020830152604082019050919050565b6000613738601083614247565b91507f416c726561647920617070726f766564000000000000000000000000000000006000830152602082019050919050565b6000613778602083614247565b91507f54696d656f75742074696d6520686173206e6f7420706173736564207965742e6000830152602082019050919050565b60006137b8600f83614247565b91507f496e76616c69642072756c696e672e00000000000000000000000000000000006000830152602082019050919050565b60006137f8603183614247565b91507f5468652070726f7365637574696f6e20666565206d75737420636f766572206160008301527f72626974726174696f6e20636f7374732e0000000000000000000000000000006020830152604082019050919050565b600061385e601b83614247565b91507f596f7520646f6e2774206861766520656e6f6768742066756e647300000000006000830152602082019050919050565b600061389e602583614247565b91507f44697370757465206973206e6f742077616974696e6720666f7220616e79207060008301527f617274792e0000000000000000000000000000000000000000000000000000006020830152604082019050919050565b6000613904602683614247565b91507f54686520607472616e73666572602066756e6374696f6e206d757374206e6f7460008301527f206661696c2e00000000000000000000000000000000000000000000000000006020830152604082019050919050565b600061396a602183614247565b91507f4c697374696e672068617320616c7265616479206265656e207265706f72746560008301527f64000000000000000000000000000000000000000000000000000000000000006020830152604082019050919050565b60006139d0601e83614247565b91507f5468652063616c6c6572206d757374206265207468652073656e6465722e00006000830152602082019050919050565b6000613a10601c83614247565b91507f53656e646572206973206e6f74206c697374696e67207369676e6572000000006000830152602082019050919050565b6000613a50602a83614247565b91507f56616c7565206d7573742062652067726561746572207468616e20617262697460008301527f726174696f6e436f7374000000000000000000000000000000000000000000006020830152604082019050919050565b6000613ab660008361423c565b9150600082019050919050565b6000613ad0601783614247565b91507f5265706f72742074696d652068617320657870697265640000000000000000006000830152602082019050919050565b6000613b10601983614247565b91507f556e61626c6520746f207472616e7366657220746f6b656e73000000000000006000830152602082019050919050565b6000613b50600f83614247565b91507f496e76616c6964206c697374696e6700000000000000000000000000000000006000830152602082019050919050565b6000613b90602e83614247565b91507f596f752063616e2774207265706f727420796f757273656c662e20557365206360008301527f616e63656c4c697374696e6728290000000000000000000000000000000000006020830152604082019050919050565b613bf2816142f6565b82525050565b613c09613c04826142f6565b61446a565b82525050565b613c18816143e5565b82525050565b613c2781614300565b82525050565b6000613c39828b613485565b602082019150613c49828a613450565b601482019150613c59828961342a565b601482019150613c698288613bf8565b602082019150613c798287613bf8565b602082019150613c898286613bf8565b602082019150613c998285613bf8565b602082019150613ca98284613bf8565b6020820191508190509998505050505050505050565b6000613ccb82856135f7565b9150613cd78284613485565b6020820191508190509392505050565b6000613cf282613aa9565b9150819050919050565b600061014082019050613d12600083018d61341b565b613d1f602083018c61341b565b613d2c604083018b613be9565b613d39606083018a613582565b613d466080830189613be9565b613d5360a0830188613be9565b613d6060c0830187613591565b613d6d60e0830186613be9565b613d7b610100830185613be9565b613d896101208301846135af565b9b9a5050505050505050505050565b6000606082019050613dad600083018661340c565b613dba6020830185613441565b613dc76040830184613be9565b949350505050565b6000604082019050613de4600083018561340c565b613df16020830184613be9565b9392505050565b6000602082019050613e0d6000830184613467565b92915050565b6000602082019050613e286000830184613476565b92915050565b6000608082019050613e436000830187613476565b613e506020830186613c1e565b613e5d6040830185613476565b613e6a6060830184613476565b95945050505050565b60006020820190508181036000830152613e8d818461349c565b905092915050565b60006020820190508181036000830152613eaf81846134d5565b905092915050565b6000602082019050613ecc6000830184613564565b92915050565b6000602082019050613ee76000830184613573565b92915050565b6000602082019050613f0260008301846135a0565b92915050565b60006020820190508181036000830152613f2281846135be565b905092915050565b60006020820190508181036000830152613f4381613685565b9050919050565b60006020820190508181036000830152613f63816136c5565b9050919050565b60006020820190508181036000830152613f838161372b565b9050919050565b60006020820190508181036000830152613fa38161376b565b9050919050565b60006020820190508181036000830152613fc3816137ab565b9050919050565b60006020820190508181036000830152613fe3816137eb565b9050919050565b6000602082019050818103600083015261400381613851565b9050919050565b6000602082019050818103600083015261402381613891565b9050919050565b60006020820190508181036000830152614043816138f7565b9050919050565b600060208201905081810360008301526140638161395d565b9050919050565b60006020820190508181036000830152614083816139c3565b9050919050565b600060208201905081810360008301526140a381613a03565b9050919050565b600060208201905081810360008301526140c381613a43565b9050919050565b600060208201905081810360008301526140e381613ac3565b9050919050565b6000602082019050818103600083015261410381613b03565b9050919050565b6000602082019050818103600083015261412381613b43565b9050919050565b6000602082019050818103600083015261414381613b83565b9050919050565b600060208201905061415f6000830184613be9565b92915050565b600060408201905061417a6000830185613be9565b6141876020830184613be9565b9392505050565b60006040820190506141a36000830185613c0f565b81810360208301526141b5818461349c565b90509392505050565b6000604051905081810181811067ffffffffffffffff821117156141e157600080fd5b8060405250919050565b60008190508160005260206000209050919050565b60008190508160005260206000209050919050565b600081519050919050565b600081519050919050565b600082825260208201905092915050565b600081905092915050565b600082825260208201905092915050565b600081905092915050565b600061426e826142d6565b9050919050565b6000614280826142d6565b9050919050565b60008115159050919050565b6000819050919050565b60008190506142ab82614492565b919050565b60008190506142be8261449f565b919050565b60008190506142d1826144ac565b919050565b600073ffffffffffffffffffffffffffffffffffffffff82169050919050565b6000819050919050565b600060ff82169050919050565b6000614318826143c1565b9050919050565b600061432a82614331565b9050919050565b600061433c826142d6565b9050919050565b600061434e82614355565b9050919050565b6000614360826142d6565b9050919050565b600061437282614379565b9050919050565b6000614384826142d6565b9050919050565b60006143968261429d565b9050919050565b60006143a8826142b0565b9050919050565b60006143ba826142c3565b9050919050565b60006143cc826143d3565b9050919050565b60006143de826142d6565b9050919050565b60006143f082614300565b9050919050565b60005b838110156144155780820151818401526020810190506143fa565b83811115614424576000848401525b50505050565b600061443582614458565b9050919050565b600061444782614458565b9050919050565b6000819050919050565b600061446382614485565b9050919050565b6000819050919050565b6000601f19601f8301169050919050565b60008160601b9050919050565b6002811061449c57fe5b50565b600281106144a957fe5b50565b600581106144b657fe5b50565b6144c281614263565b81146144cd57600080fd5b50565b6144d981614275565b81146144e457600080fd5b50565b6144f081614287565b81146144fb57600080fd5b50565b61450781614293565b811461451257600080fd5b50565b61451e816142f6565b811461452957600080fd5b50565b61453581614300565b811461454057600080fd5b5056fea264697066735822122006a7ae684eebdb2534d80b3f802f96473f37697626351638f29489f259d5f65764736f6c63430006080033",
  "immutableReferences": {},
  "source": "// SPDX-License-Identifier: MIT\npragma solidity ^0.6.0;\npragma experimental ABIEncoderV2;\n\nimport \"../arbitration/Arbitrator.sol\";\nimport \"../arbitration/IArbitrable.sol\";\n\nimport \"../token/ERC20Burnable.sol\";\n\ncontract Dagora is IArbitrable {\n\n    uint8 constant AMOUNT_OF_CHOICES = 2;\n\n    enum Party {Prosecution, Defendant}\n    enum DisputeType {Report, Order}\n    enum RulingOptions {NoRuling, ProsecutionWins, DefendantWins}\n    enum Status {NoDispute, WaitingProsecution, WaitingDefendant, DisputeCreated, Resolved}\n\n    struct Listing {\n        bytes32 ipfsHash;\n        address seller;\n        address payable stakeOwner;\n        uint stakedAmount;\n        uint commissionPercentage;\n        uint creationTimestamp;\n        uint warrantyTimeout;\n        uint expiration;\n    }\n\n    struct Seller {\n        uint balance;      // The amount of tokens the contract holds for this seller.\n        // Total number of tokens the seller can loose in disputes they are drawn in. Those tokens are locked. Note that we can have atStake > balance but it should be statistically unlikely and does not pose issues.\n        uint lockedTokens;\n    }\n\n    /* An ECDSA signature. */\n    struct Sig {\n        /* v parameter */\n        uint8 v;\n        /* r parameter */\n        bytes32 r;\n        /* s parameter */\n        bytes32 s;\n    }\n\n    struct RunningDispute {\n        address payable prosecution;\n        address payable defendant;\n        uint amount;\n        ERC20 token;\n        uint prosecutionFee;\n        uint defendantFee;\n        DisputeType disputeType;\n        uint lastInteraction;\n        uint metaEvidenceId;\n        Status status;\n    }\n\n    event ListingCancelled          (bytes32 indexed hash);\n\n    event HasToPayFee(bytes32 indexed _hash, Party _party);\n\n    mapping (address => Seller) public sellers;\n    /* Cancelled / finalized orders, by hash. */\n    mapping(bytes32 => bool) public cancelledOrFinalized;\n    /* Orders verified by on-chain approval (alternative to ECDSA signatures so that smart contracts can place orders directly). */\n    mapping(bytes32 => bool) public approvedOrders;\n\n    mapping (bytes32 => RunningDispute) public disputes; // Listing Hash to Dispute\n    mapping (uint => bytes32) public disputeIDtoHash;\n\n    Arbitrator public arbitrator; // Address of the arbitrator contract.\n    bytes public reportExtraData; // Extra data to set up the arbitration.\n    bytes public orderExtraData; // Extra data to set up the arbitration.\n    uint public feeTimeout; /* Time in seconds a party can take to pay arbitration\n     fees before being considered unresponding and lose the dispute.*/\n    uint public reportTimeout; // Time in seconds a party can report\n\n    ERC20Burnable public marketToken;\n    uint public metaEvidenceCount;\n    string public ipfsDomain;\n\n    constructor(address _arbitrator,\n                address _token,\n                uint _reportTimeout,\n                uint _feeTimeout,\n                bytes memory _reportExtraData,\n                bytes memory _orderExtraData,\n                string memory _ipfsDomain) public {\n        arbitrator = Arbitrator(_arbitrator);\n        marketToken = ERC20Burnable(_token);\n        reportTimeout = _reportTimeout;\n        feeTimeout = _feeTimeout;\n        reportExtraData = _reportExtraData;\n        orderExtraData = _orderExtraData;\n        ipfsDomain = _ipfsDomain;\n    }\n\n    function depositTokens(uint value)\n        public\n    {\n        require(marketToken.transferFrom(msg.sender, address(this), value));\n        sellers[msg.sender].balance += value;\n    }\n\n    function withdrawTokens(uint value)\n        public\n    {\n        Seller storage seller = sellers[msg.sender];\n        require(seller.balance - seller.lockedTokens >= value, \"You don't have enoght tokens\");\n        sellers[msg.sender].balance -= value;\n        require(marketToken.transferFrom(msg.sender, address(this), value));\n    }\n\n    function approveListing(Listing memory _listing)\n        public returns (bool)\n    {\n        /* CHECKS */\n        /* Assert sender is authorized to approve order. */\n        require(msg.sender == _listing.stakeOwner, \"Sender is not listing signer\");\n        require(sellers[msg.sender].balance >= _listing.stakedAmount, \"You don't have enoght funds\");\n        /* Calculate order hash. */\n        bytes32 hash = hashListing(_listing);\n        /* Assert order has not already been approved. */\n        require(!approvedOrders[hash], \"Already approved\");\n        /* EFFECTS */\n        /* Mark order as approved. */\n        approvedOrders[hash] = true;\n        return true;\n    }\n\n    function cancelOrder(Listing memory _listing, Sig memory sig) \n        internal\n    {\n        /* CHECKS */\n\n        /* Calculate order hash. */\n        bytes32 hash = requireValidListing(_listing, sig);\n\n        /* Assert sender is authorized to cancel order. */\n        require(msg.sender == _listing.stakeOwner);\n  \n        /* EFFECTS */\n      \n        /* Mark order as cancelled, preventing it from being matched. */\n        cancelledOrFinalized[hash] = true;\n\n        /* Log cancel event. */\n        emit ListingCancelled(hash);\n    }\n\n    function report(Listing memory _listing, Sig memory sig) public payable returns (bytes32 hash){\n        /* CHECKS */\n        hash = hashListing(_listing);\n        require(validateListing(hash, _listing, sig), \"Invalid listing\");\n        require(disputes[hash].status == Status.NoDispute, \"Listing has already been reported\");\n        require(now < _listing.creationTimestamp + reportTimeout, \"Report time has expired\");\n        require(msg.sender != _listing.stakeOwner, \"You can't report yourself. Use cancelListing()\");\n        uint arbitrationCost = arbitrator.arbitrationCost(reportExtraData);\n        require(msg.value >= arbitrationCost, \"Value must be greater than arbitrationCost\");\n        Seller storage prosecution = sellers[msg.sender];\n        Seller storage defendant = sellers[_listing.stakeOwner];\n        uint availableBalance = prosecution.balance - prosecution.lockedTokens;\n        if(availableBalance < _listing.stakedAmount) {\n            require(marketToken.transferFrom(msg.sender, address(this), _listing.stakedAmount - availableBalance), \"Unable to transfer tokens\");\n            prosecution.balance += _listing.stakedAmount - availableBalance;\n        }\n        /* EFFECTS */\n        prosecution.lockedTokens += _listing.stakedAmount;\n        defendant.lockedTokens += _listing.stakedAmount;\n        RunningDispute storage dispute = disputes[hash];\n        dispute.prosecution = msg.sender;\n        dispute.defendant = _listing.stakeOwner;\n        dispute.amount = _listing.stakedAmount;\n        dispute.token = marketToken;\n        dispute.prosecutionFee + msg.value;\n        dispute.disputeType = DisputeType.Report;\n        dispute.status = Status.WaitingDefendant;\n        dispute.lastInteraction = now;\n        dispute.metaEvidenceId = metaEvidenceCount++;\n        emit MetaEvidence(dispute.metaEvidenceId, string(abi.encodePacked(ipfsDomain, _listing.ipfsHash)));\n        emit HasToPayFee(hash, Party.Defendant);\n    }\n\n    function disputeTimeOut(bytes32 hash) public {\n        RunningDispute storage dispute = disputes[hash];\n        require(Status.NoDispute > dispute.status && dispute.status < Status.DisputeCreated, \"Dispute is not waiting for any party.\");\n        require(now - dispute.lastInteraction >= feeTimeout, \"Timeout time has not passed yet.\");\n        if (dispute.prosecutionFee != 0) {\n            dispute.prosecution.transfer(dispute.prosecutionFee);\n            dispute.prosecutionFee = 0;\n        }\n        if (dispute.defendantFee != 0) {\n            dispute.defendant.transfer(dispute.defendantFee);\n            dispute.defendantFee = 0;\n        }\n        if(dispute.status == Status.WaitingDefendant) {\n            executeReportRuling(dispute, uint(RulingOptions.ProsecutionWins));\n        } else {\n            executeReportRuling(dispute, uint(RulingOptions.DefendantWins));\n        }\n    }\n\n    function payArbitrationFee(bytes32 hash) public payable {\n        RunningDispute storage dispute = disputes[hash];\n        uint arbitrationCost = arbitrator.arbitrationCost(reportExtraData);\n        require(Status.NoDispute > dispute.status && dispute.status < Status.DisputeCreated, \"Dispute has already been created.\");\n        require(msg.sender == dispute.prosecution || msg.sender == dispute.defendant, \"The caller must be the sender.\");\n\n        if (msg.sender == dispute.prosecution) {\n            dispute.prosecutionFee += msg.value;\n            require(dispute.prosecutionFee >= arbitrationCost, \"The prosecution fee must cover arbitration costs.\");\n            dispute.lastInteraction = now;\n            if (dispute.defendantFee < arbitrationCost) {\n                dispute.status = Status.WaitingDefendant;\n                emit HasToPayFee(hash, Party.Defendant);\n            } else { // The receiver has also paid the fee. We create the dispute.\n                raiseDispute(hash, arbitrationCost, reportExtraData);\n            }\n        } else {\n            dispute.defendantFee += msg.value;\n            require(dispute.defendantFee >= arbitrationCost, \"The prosecution fee must cover arbitration costs.\");\n            dispute.lastInteraction = now;\n            if (dispute.prosecutionFee < arbitrationCost) {\n                dispute.status = Status.WaitingProsecution;\n                emit HasToPayFee(hash, Party.Prosecution);\n            } else { // The receiver has also paid the fee. We create the dispute.\n                raiseDispute(hash, arbitrationCost, reportExtraData);\n            }\n        }\n    }\n\n    function raiseDispute(bytes32 hash, uint _arbitrationCost, bytes memory extraData) internal {\n        RunningDispute storage dispute = disputes[hash];\n        dispute.status = Status.DisputeCreated;\n        uint disputeId = arbitrator.createDispute{value: _arbitrationCost}(AMOUNT_OF_CHOICES, extraData);\n        disputeIDtoHash[disputeId] = hash;\n        emit Dispute(arbitrator, disputeId, dispute.metaEvidenceId, dispute.metaEvidenceId);\n\n        // Refund sender if it overpaid.\n        if (dispute.prosecutionFee > _arbitrationCost) {\n            uint extraFeeProsecution = dispute.prosecutionFee - _arbitrationCost;\n            dispute.prosecutionFee = _arbitrationCost;\n            dispute.prosecution.transfer(extraFeeProsecution);\n        }\n\n        // Refund receiver if it overpaid.\n        if (dispute.defendantFee > _arbitrationCost) {\n            uint extraFeeDefendant = dispute.defendantFee - _arbitrationCost;\n            dispute.defendantFee = _arbitrationCost;\n            dispute.defendant.transfer(extraFeeDefendant);\n        }\n    }\n\n    function rule(uint _disputeID, uint _ruling) public override {\n        emit Ruling(Arbitrator(msg.sender), _disputeID, _ruling);\n        bytes32 hash = disputeIDtoHash[_disputeID];\n        RunningDispute storage dispute = disputes[hash];\n        if (dispute.disputeType == DisputeType.Report) {\n            executeReportRuling(dispute, _ruling);\n        } else {\n            executeOrderRuling(dispute, _ruling);\n        }\n    }\n\n    function executeOrderRuling(RunningDispute storage dispute, uint _ruling) internal {\n        require(_ruling <= AMOUNT_OF_CHOICES, \"Invalid ruling.\");\n\n        uint amount = dispute.amount;\n        uint prosecutionFee = dispute.prosecutionFee;\n        uint defendantFee = dispute.defendantFee;\n\n        dispute.amount = 0;\n        dispute.prosecutionFee = 0;\n        dispute.defendantFee = 0;\n        dispute.status = Status.Resolved;\n        // Give the arbitration fee back.\n        // Note that we use `send` to prevent a party from blocking the execution.\n        bool success = false;\n        if (_ruling == uint(RulingOptions.ProsecutionWins)) {\n            (success, ) = dispute.prosecution.call{value: prosecutionFee}(\"\");\n            require(dispute.token.transfer(dispute.prosecution, amount), \"The `transfer` function must not fail.\");\n        } else if (_ruling == uint(RulingOptions.DefendantWins)) {\n            (success, ) = dispute.defendant.call{value: defendantFee}(\"\");\n            require(dispute.token.transfer(dispute.defendant, amount), \"The `transfer` function must not fail.\");\n        } else {\n            // `senderFee` and `receiverFee` are equal to the arbitration cost.\n            uint splitArbitrationFee = prosecutionFee / 2;\n            (success, ) = dispute.defendant.call{value: defendantFee - splitArbitrationFee}(\"\");\n            (success, ) = dispute.prosecution.call{value: splitArbitrationFee}(\"\");\n            uint half = amount / 2;\n            require(dispute.token.transfer(dispute.defendant, amount - half), \"The `transfer` function must not fail.\");\n            require(dispute.token.transfer(dispute.prosecution, half), \"The `transfer` function must not fail.\");\n        }\n    }\n\n    function executeReportRuling(RunningDispute storage dispute, uint _ruling) internal {\n        require(_ruling <= AMOUNT_OF_CHOICES, \"Invalid ruling.\");\n\n        uint amount = dispute.amount;\n        uint prosecutionFee = dispute.prosecutionFee;\n        uint defendantFee = dispute.defendantFee;\n\n        dispute.amount = 0;\n        dispute.prosecutionFee = 0;\n        dispute.defendantFee = 0;\n        dispute.status = Status.Resolved;\n        sellers[dispute.prosecution].lockedTokens -= dispute.amount;\n        sellers[dispute.defendant].lockedTokens -= dispute.amount;\n        // Give the arbitration fee back.\n        // Note that we use `send` to prevent a party from blocking the execution.\n        bool success = false;\n        if (_ruling == uint(RulingOptions.ProsecutionWins)) {\n            (success, ) = dispute.prosecution.call{value: prosecutionFee}(\"\");\n            sellers[dispute.defendant].balance -= amount;\n            sellers[dispute.prosecution].balance += amount / 2;\n            marketToken.burn(amount - (amount / 2));\n        } else if (_ruling == uint(RulingOptions.DefendantWins)) {\n            (success, ) = dispute.defendant.call{value: defendantFee}(\"\");\n            sellers[dispute.prosecution].balance -= amount;\n            sellers[dispute.defendant].balance += amount / 2;\n            marketToken.burn(amount - (amount / 2));\n        } else {\n            // `senderFee` and `receiverFee` are equal to the arbitration cost.\n            uint splitArbitrationFee = prosecutionFee / 2;\n            (success, ) = dispute.defendant.call{value: defendantFee - splitArbitrationFee}(\"\");\n            (success, ) = dispute.prosecution.call{value: splitArbitrationFee}(\"\");\n            // In the case of an uneven token amount, one basic token unit can be burnt.\n            sellers[dispute.prosecution].balance -= amount / 2;\n            sellers[dispute.defendant].balance -= amount / 2;\n            \n        }\n    }\n\n    function validateListing(bytes32 hash, Listing memory _listing, Sig memory sig)\n        internal\n        view\n        returns (bool)\n    {\n        /* Listing isn't valid yet. */\n        if (now < _listing.creationTimestamp) {\n            return false;\n        }\n        /* Listing has expiration time */\n        if (_listing.expiration != 0) {\n            /* Listing creation timestamp is greater than expiration */\n            if (_listing.creationTimestamp > _listing.expiration)\n                return false;\n            /* Listing has expired */\n            if (now > _listing.expiration)\n                return false;\n        }\n\n        /* Stake owner must have enough tokens */\n        if (sellers[_listing.stakeOwner].balance - sellers[_listing.stakeOwner].lockedTokens < _listing.stakedAmount) {\n            return false;\n        }\n        \n        /* Order must have not been canceled or already filled. */\n        if (cancelledOrFinalized[hash]) {\n            return false;\n        }\n\n        /* Order authentication. Order must be either:\n        /* (a) previously approved */\n        if (approvedOrders[hash]) {\n            return true;\n        }\n\n        /* or (b) ECDSA-signed by maker. */\n        if (ecrecover(hash, sig.v, sig.r, sig.s) == _listing.stakeOwner) {\n            return true;\n        }\n\n        return false;\n    }\n\n    function hashListing(Listing memory listing)\n        internal\n        pure\n        returns (bytes32 hash)\n    {\n        hash = keccak256(abi.encodePacked(listing.ipfsHash, listing.seller, listing.stakeOwner, listing.stakedAmount, listing.commissionPercentage, listing.creationTimestamp, listing.warrantyTimeout, listing.expiration));\n        return hash;\n    }\n\n    function hashToSign(bytes32 hash)\n        internal\n        pure\n        returns (bytes32)\n    {\n        return keccak256(abi.encodePacked(\"\\x19Ethereum Signed Message:\\n32\", hash));\n    }\n\n    function requireValidListing(Listing memory listing, Sig memory sig)\n        internal\n        view\n        returns (bytes32)\n    {\n        bytes32 hash = hashListing(listing);\n        require(validateListing(hash, listing, sig));\n        return hash;\n    }\n\n    // function bytes32ToString(bytes32 x) constant returns (string) {\n    //     bytes memory bytesString = new bytes(32);\n    //     uint charCount = 0;\n    //     for (uint j = 0; j < 32; j++) {\n    //         byte char = byte(bytes32(uint(x) * 2 ** (8 * j)));\n    //         if (char != 0) {\n    //             bytesString[charCount] = char;\n    //             charCount++;\n    //         }\n    //     }\n    //     bytes memory bytesStringTrimmed = new bytes(charCount);\n    //     for (j = 0; j < charCount; j++) {\n    //         bytesStringTrimmed[j] = bytesString[j];\n    //     }\n    //     return string(bytesStringTrimmed);\n    // }\n}",
  "sourcePath": "/home/gustavo/dagora/contracts/marketplace/Dagora.sol",
  "compiler": {
    "name": "solc",
    "version": "0.6.8+commit.0bbfe453.Emscripten.clang"
  },
  "schemaVersion": "3.2.0",
  "updatedAt": "2020-05-27T04:45:31.619Z",
  "devdoc": {
    "methods": {}
  },
  "userdoc": {
    "methods": {}
  }
}