{
  "contractName": "Dagora",
  "abi": [
    {
      "inputs": [
        {
          "internalType": "address",
          "name": "_arbitrator",
          "type": "address"
        },
        {
          "internalType": "address",
          "name": "_token",
          "type": "address"
        },
        {
          "internalType": "address",
          "name": "_protocolFeeRecipient",
          "type": "address"
        },
        {
          "internalType": "uint256",
          "name": "_feeTimeoutDays",
          "type": "uint256"
        },
        {
          "internalType": "uint256",
          "name": "_blacklistTimeoutDays",
          "type": "uint256"
        },
        {
          "internalType": "uint256",
          "name": "_protocolFeePercentage",
          "type": "uint256"
        },
        {
          "internalType": "uint256",
          "name": "_tokenOwnerFeePercentage",
          "type": "uint256"
        },
        {
          "internalType": "bytes",
          "name": "_reportExtraData",
          "type": "bytes"
        },
        {
          "internalType": "bytes",
          "name": "_orderExtraData",
          "type": "bytes"
        },
        {
          "internalType": "string",
          "name": "_ipfsDomain",
          "type": "string"
        }
      ],
      "stateMutability": "nonpayable",
      "type": "constructor"
    },
    {
      "anonymous": false,
      "inputs": [
        {
          "indexed": true,
          "internalType": "contract Arbitrator",
          "name": "_arbitrator",
          "type": "address"
        },
        {
          "indexed": true,
          "internalType": "uint256",
          "name": "_disputeID",
          "type": "uint256"
        },
        {
          "indexed": false,
          "internalType": "uint256",
          "name": "_metaEvidenceID",
          "type": "uint256"
        },
        {
          "indexed": false,
          "internalType": "uint256",
          "name": "_evidenceGroupID",
          "type": "uint256"
        }
      ],
      "name": "Dispute",
      "type": "event"
    },
    {
      "anonymous": false,
      "inputs": [
        {
          "indexed": true,
          "internalType": "contract Arbitrator",
          "name": "_arbitrator",
          "type": "address"
        },
        {
          "indexed": true,
          "internalType": "uint256",
          "name": "_evidenceGroupID",
          "type": "uint256"
        },
        {
          "indexed": true,
          "internalType": "address",
          "name": "_party",
          "type": "address"
        },
        {
          "indexed": false,
          "internalType": "string",
          "name": "_evidence",
          "type": "string"
        }
      ],
      "name": "Evidence",
      "type": "event"
    },
    {
      "anonymous": false,
      "inputs": [
        {
          "indexed": true,
          "internalType": "bytes32",
          "name": "_hash",
          "type": "bytes32"
        },
        {
          "indexed": false,
          "internalType": "enum Dagora.Party",
          "name": "_party",
          "type": "uint8"
        }
      ],
      "name": "HasToPayFee",
      "type": "event"
    },
    {
      "anonymous": false,
      "inputs": [
        {
          "indexed": true,
          "internalType": "bytes32",
          "name": "hash",
          "type": "bytes32"
        }
      ],
      "name": "ListingApproved",
      "type": "event"
    },
    {
      "anonymous": false,
      "inputs": [
        {
          "indexed": true,
          "internalType": "bytes32",
          "name": "hash",
          "type": "bytes32"
        }
      ],
      "name": "ListingCancelled",
      "type": "event"
    },
    {
      "anonymous": false,
      "inputs": [
        {
          "indexed": true,
          "internalType": "uint256",
          "name": "_metaEvidenceID",
          "type": "uint256"
        },
        {
          "indexed": false,
          "internalType": "string",
          "name": "_evidence",
          "type": "string"
        }
      ],
      "name": "MetaEvidence",
      "type": "event"
    },
    {
      "anonymous": false,
      "inputs": [
        {
          "indexed": true,
          "internalType": "bytes32",
          "name": "hash",
          "type": "bytes32"
        }
      ],
      "name": "OrderApproved",
      "type": "event"
    },
    {
      "anonymous": false,
      "inputs": [
        {
          "indexed": true,
          "internalType": "bytes32",
          "name": "hash",
          "type": "bytes32"
        }
      ],
      "name": "OrderCancelled",
      "type": "event"
    },
    {
      "anonymous": false,
      "inputs": [
        {
          "indexed": true,
          "internalType": "address",
          "name": "previousOwner",
          "type": "address"
        },
        {
          "indexed": true,
          "internalType": "address",
          "name": "newOwner",
          "type": "address"
        }
      ],
      "name": "OwnershipTransferred",
      "type": "event"
    },
    {
      "anonymous": false,
      "inputs": [
        {
          "indexed": true,
          "internalType": "contract Arbitrator",
          "name": "_arbitrator",
          "type": "address"
        },
        {
          "indexed": true,
          "internalType": "uint256",
          "name": "_disputeID",
          "type": "uint256"
        },
        {
          "indexed": false,
          "internalType": "uint256",
          "name": "_ruling",
          "type": "uint256"
        }
      ],
      "name": "Ruling",
      "type": "event"
    },
    {
      "anonymous": false,
      "inputs": [
        {
          "indexed": true,
          "internalType": "address",
          "name": "sender",
          "type": "address"
        },
        {
          "indexed": false,
          "internalType": "uint256",
          "name": "value",
          "type": "uint256"
        }
      ],
      "name": "TokenDeposited",
      "type": "event"
    },
    {
      "anonymous": false,
      "inputs": [
        {
          "indexed": true,
          "internalType": "address",
          "name": "addr",
          "type": "address"
        }
      ],
      "name": "TokenGranted",
      "type": "event"
    },
    {
      "anonymous": false,
      "inputs": [
        {
          "indexed": true,
          "internalType": "address",
          "name": "addr",
          "type": "address"
        }
      ],
      "name": "TokenRevoked",
      "type": "event"
    },
    {
      "anonymous": false,
      "inputs": [
        {
          "indexed": true,
          "internalType": "address",
          "name": "sender",
          "type": "address"
        },
        {
          "indexed": false,
          "internalType": "uint256",
          "name": "value",
          "type": "uint256"
        }
      ],
      "name": "TokenWithdrawed",
      "type": "event"
    },
    {
      "anonymous": false,
      "inputs": [
        {
          "indexed": true,
          "internalType": "bytes32",
          "name": "hash",
          "type": "bytes32"
        },
        {
          "indexed": true,
          "internalType": "address",
          "name": "buyer",
          "type": "address"
        },
        {
          "indexed": true,
          "internalType": "address",
          "name": "seller",
          "type": "address"
        },
        {
          "indexed": false,
          "internalType": "address",
          "name": "stakeOwner",
          "type": "address"
        },
        {
          "indexed": false,
          "internalType": "address",
          "name": "commissioner",
          "type": "address"
        },
        {
          "indexed": false,
          "internalType": "contract ERC20",
          "name": "token",
          "type": "address"
        },
        {
          "indexed": false,
          "internalType": "uint256",
          "name": "total",
          "type": "uint256"
        },
        {
          "indexed": false,
          "internalType": "uint256",
          "name": "commissionPercentage",
          "type": "uint256"
        },
        {
          "indexed": false,
          "internalType": "uint256",
          "name": "cashbackPercentage",
          "type": "uint256"
        },
        {
          "indexed": false,
          "internalType": "uint256",
          "name": "confirmationTimeout",
          "type": "uint256"
        }
      ],
      "name": "TransactionCreated",
      "type": "event"
    },
    {
      "anonymous": false,
      "inputs": [
        {
          "indexed": true,
          "internalType": "bytes32",
          "name": "hash",
          "type": "bytes32"
        }
      ],
      "name": "TransactionFinalized",
      "type": "event"
    },
    {
      "anonymous": false,
      "inputs": [
        {
          "indexed": true,
          "internalType": "bytes32",
          "name": "hash",
          "type": "bytes32"
        },
        {
          "indexed": false,
          "internalType": "uint256",
          "name": "value",
          "type": "uint256"
        }
      ],
      "name": "TransactionRefunded",
      "type": "event"
    },
    {
      "anonymous": false,
      "inputs": [
        {
          "indexed": true,
          "internalType": "bytes32",
          "name": "hash",
          "type": "bytes32"
        }
      ],
      "name": "WarrantyClaimed",
      "type": "event"
    },
    {
      "inputs": [],
      "name": "INVERSE_BASIS_POINT",
      "outputs": [
        {
          "internalType": "uint256",
          "name": "",
          "type": "uint256"
        }
      ],
      "stateMutability": "view",
      "type": "function"
    },
    {
      "inputs": [
        {
          "internalType": "bytes32",
          "name": "",
          "type": "bytes32"
        }
      ],
      "name": "approvedHashes",
      "outputs": [
        {
          "internalType": "bool",
          "name": "",
          "type": "bool"
        }
      ],
      "stateMutability": "view",
      "type": "function"
    },
    {
      "inputs": [],
      "name": "arbitrator",
      "outputs": [
        {
          "internalType": "contract Arbitrator",
          "name": "",
          "type": "address"
        }
      ],
      "stateMutability": "view",
      "type": "function"
    },
    {
      "inputs": [],
      "name": "blackListTimeout",
      "outputs": [
        {
          "internalType": "uint256",
          "name": "",
          "type": "uint256"
        }
      ],
      "stateMutability": "view",
      "type": "function"
    },
    {
      "inputs": [
        {
          "internalType": "bytes32",
          "name": "",
          "type": "bytes32"
        }
      ],
      "name": "cancelledOrFinalized",
      "outputs": [
        {
          "internalType": "bool",
          "name": "",
          "type": "bool"
        }
      ],
      "stateMutability": "view",
      "type": "function"
    },
    {
      "inputs": [
        {
          "internalType": "address",
          "name": "",
          "type": "address"
        }
      ],
      "name": "contracts",
      "outputs": [
        {
          "internalType": "bool",
          "name": "",
          "type": "bool"
        }
      ],
      "stateMutability": "view",
      "type": "function"
    },
    {
      "inputs": [
        {
          "internalType": "uint256",
          "name": "",
          "type": "uint256"
        }
      ],
      "name": "disputeIDtoHash",
      "outputs": [
        {
          "internalType": "bytes32",
          "name": "",
          "type": "bytes32"
        }
      ],
      "stateMutability": "view",
      "type": "function"
    },
    {
      "inputs": [
        {
          "internalType": "bytes32",
          "name": "",
          "type": "bytes32"
        }
      ],
      "name": "disputes",
      "outputs": [
        {
          "internalType": "address payable",
          "name": "prosecution",
          "type": "address"
        },
        {
          "internalType": "address payable",
          "name": "defendant",
          "type": "address"
        },
        {
          "internalType": "uint256",
          "name": "amount",
          "type": "uint256"
        },
        {
          "internalType": "contract ERC20",
          "name": "token",
          "type": "address"
        },
        {
          "internalType": "uint256",
          "name": "prosecutionFee",
          "type": "uint256"
        },
        {
          "internalType": "uint256",
          "name": "defendantFee",
          "type": "uint256"
        },
        {
          "internalType": "enum Dagora.DisputeType",
          "name": "disputeType",
          "type": "uint8"
        },
        {
          "internalType": "uint256",
          "name": "lastInteraction",
          "type": "uint256"
        },
        {
          "internalType": "uint256",
          "name": "metaEvidenceId",
          "type": "uint256"
        },
        {
          "internalType": "uint256",
          "name": "disputeId",
          "type": "uint256"
        },
        {
          "internalType": "enum Dagora.DisputeStatus",
          "name": "status",
          "type": "uint8"
        }
      ],
      "stateMutability": "view",
      "type": "function"
    },
    {
      "inputs": [],
      "name": "feeTimeout",
      "outputs": [
        {
          "internalType": "uint256",
          "name": "",
          "type": "uint256"
        }
      ],
      "stateMutability": "view",
      "type": "function"
    },
    {
      "inputs": [],
      "name": "ipfsDomain",
      "outputs": [
        {
          "internalType": "string",
          "name": "",
          "type": "string"
        }
      ],
      "stateMutability": "view",
      "type": "function"
    },
    {
      "inputs": [],
      "name": "marketToken",
      "outputs": [
        {
          "internalType": "contract ERC20Burnable",
          "name": "",
          "type": "address"
        }
      ],
      "stateMutability": "view",
      "type": "function"
    },
    {
      "inputs": [],
      "name": "metaEvidenceCount",
      "outputs": [
        {
          "internalType": "uint256",
          "name": "",
          "type": "uint256"
        }
      ],
      "stateMutability": "view",
      "type": "function"
    },
    {
      "inputs": [],
      "name": "orderExtraData",
      "outputs": [
        {
          "internalType": "bytes",
          "name": "",
          "type": "bytes"
        }
      ],
      "stateMutability": "view",
      "type": "function"
    },
    {
      "inputs": [],
      "name": "owner",
      "outputs": [
        {
          "internalType": "address",
          "name": "",
          "type": "address"
        }
      ],
      "stateMutability": "view",
      "type": "function"
    },
    {
      "inputs": [],
      "name": "protocolFeePercentage",
      "outputs": [
        {
          "internalType": "uint256",
          "name": "",
          "type": "uint256"
        }
      ],
      "stateMutability": "view",
      "type": "function"
    },
    {
      "inputs": [],
      "name": "protocolFeeRecipient",
      "outputs": [
        {
          "internalType": "address",
          "name": "",
          "type": "address"
        }
      ],
      "stateMutability": "view",
      "type": "function"
    },
    {
      "inputs": [],
      "name": "renounceOwnership",
      "outputs": [],
      "stateMutability": "nonpayable",
      "type": "function"
    },
    {
      "inputs": [],
      "name": "reportExtraData",
      "outputs": [
        {
          "internalType": "bytes",
          "name": "",
          "type": "bytes"
        }
      ],
      "stateMutability": "view",
      "type": "function"
    },
    {
      "inputs": [
        {
          "internalType": "address",
          "name": "",
          "type": "address"
        }
      ],
      "name": "sellers",
      "outputs": [
        {
          "internalType": "uint256",
          "name": "balance",
          "type": "uint256"
        },
        {
          "internalType": "uint256",
          "name": "lockedTokens",
          "type": "uint256"
        },
        {
          "internalType": "uint256",
          "name": "blackListExpire",
          "type": "uint256"
        }
      ],
      "stateMutability": "view",
      "type": "function"
    },
    {
      "inputs": [],
      "name": "tokenOwnerFeePercentage",
      "outputs": [
        {
          "internalType": "uint256",
          "name": "",
          "type": "uint256"
        }
      ],
      "stateMutability": "view",
      "type": "function"
    },
    {
      "inputs": [
        {
          "internalType": "bytes32",
          "name": "",
          "type": "bytes32"
        }
      ],
      "name": "transactions",
      "outputs": [
        {
          "internalType": "uint256",
          "name": "lastStatusUpdate",
          "type": "uint256"
        },
        {
          "internalType": "uint256",
          "name": "refund",
          "type": "uint256"
        },
        {
          "internalType": "enum Dagora.Status",
          "name": "status",
          "type": "uint8"
        }
      ],
      "stateMutability": "view",
      "type": "function"
    },
    {
      "inputs": [
        {
          "internalType": "address",
          "name": "newOwner",
          "type": "address"
        }
      ],
      "name": "transferOwnership",
      "outputs": [],
      "stateMutability": "nonpayable",
      "type": "function"
    },
    {
      "inputs": [
        {
          "internalType": "address",
          "name": "addr",
          "type": "address"
        }
      ],
      "name": "grantAuthentication",
      "outputs": [],
      "stateMutability": "nonpayable",
      "type": "function"
    },
    {
      "inputs": [
        {
          "internalType": "address",
          "name": "addr",
          "type": "address"
        }
      ],
      "name": "revokeAuthentication",
      "outputs": [],
      "stateMutability": "nonpayable",
      "type": "function"
    },
    {
      "inputs": [
        {
          "internalType": "uint256",
          "name": "value",
          "type": "uint256"
        }
      ],
      "name": "depositTokens",
      "outputs": [],
      "stateMutability": "nonpayable",
      "type": "function"
    },
    {
      "inputs": [
        {
          "internalType": "uint256",
          "name": "value",
          "type": "uint256"
        }
      ],
      "name": "withdrawTokens",
      "outputs": [],
      "stateMutability": "nonpayable",
      "type": "function"
    },
    {
      "inputs": [
        {
          "components": [
            {
              "internalType": "bytes32",
              "name": "ipfsHash",
              "type": "bytes32"
            },
            {
              "internalType": "address payable",
              "name": "seller",
              "type": "address"
            },
            {
              "internalType": "address payable",
              "name": "stakeOwner",
              "type": "address"
            },
            {
              "internalType": "uint256",
              "name": "stakedAmount",
              "type": "uint256"
            },
            {
              "internalType": "uint256",
              "name": "commissionPercentage",
              "type": "uint256"
            },
            {
              "internalType": "uint256",
              "name": "warranty",
              "type": "uint256"
            },
            {
              "internalType": "uint256",
              "name": "cashbackPercentage",
              "type": "uint256"
            },
            {
              "internalType": "uint256",
              "name": "expiration",
              "type": "uint256"
            }
          ],
          "internalType": "struct Dagora.Listing",
          "name": "_listing",
          "type": "tuple"
        }
      ],
      "name": "approveListing",
      "outputs": [
        {
          "internalType": "bool",
          "name": "",
          "type": "bool"
        }
      ],
      "stateMutability": "nonpayable",
      "type": "function"
    },
    {
      "inputs": [
        {
          "components": [
            {
              "internalType": "bytes32",
              "name": "listingHash",
              "type": "bytes32"
            },
            {
              "internalType": "address payable",
              "name": "buyer",
              "type": "address"
            },
            {
              "internalType": "address payable",
              "name": "commissioner",
              "type": "address"
            },
            {
              "internalType": "contract ERC20",
              "name": "token",
              "type": "address"
            },
            {
              "internalType": "uint256",
              "name": "total",
              "type": "uint256"
            },
            {
              "internalType": "uint256",
              "name": "shippingCost",
              "type": "uint256"
            },
            {
              "internalType": "uint256",
              "name": "expiration",
              "type": "uint256"
            },
            {
              "internalType": "uint256",
              "name": "confirmationTimeout",
              "type": "uint256"
            }
          ],
          "internalType": "struct Dagora.Order",
          "name": "order",
          "type": "tuple"
        }
      ],
      "name": "approveOrder",
      "outputs": [
        {
          "internalType": "bool",
          "name": "",
          "type": "bool"
        }
      ],
      "stateMutability": "nonpayable",
      "type": "function"
    },
    {
      "inputs": [
        {
          "components": [
            {
              "internalType": "bytes32",
              "name": "listingHash",
              "type": "bytes32"
            },
            {
              "internalType": "address payable",
              "name": "buyer",
              "type": "address"
            },
            {
              "internalType": "address payable",
              "name": "commissioner",
              "type": "address"
            },
            {
              "internalType": "contract ERC20",
              "name": "token",
              "type": "address"
            },
            {
              "internalType": "uint256",
              "name": "total",
              "type": "uint256"
            },
            {
              "internalType": "uint256",
              "name": "shippingCost",
              "type": "uint256"
            },
            {
              "internalType": "uint256",
              "name": "expiration",
              "type": "uint256"
            },
            {
              "internalType": "uint256",
              "name": "confirmationTimeout",
              "type": "uint256"
            }
          ],
          "internalType": "struct Dagora.Order",
          "name": "_order",
          "type": "tuple"
        },
        {
          "components": [
            {
              "internalType": "uint8",
              "name": "v",
              "type": "uint8"
            },
            {
              "internalType": "bytes32",
              "name": "r",
              "type": "bytes32"
            },
            {
              "internalType": "bytes32",
              "name": "s",
              "type": "bytes32"
            }
          ],
          "internalType": "struct Dagora.Sig",
          "name": "orderSig",
          "type": "tuple"
        },
        {
          "components": [
            {
              "internalType": "bytes32",
              "name": "ipfsHash",
              "type": "bytes32"
            },
            {
              "internalType": "address payable",
              "name": "seller",
              "type": "address"
            },
            {
              "internalType": "address payable",
              "name": "stakeOwner",
              "type": "address"
            },
            {
              "internalType": "uint256",
              "name": "stakedAmount",
              "type": "uint256"
            },
            {
              "internalType": "uint256",
              "name": "commissionPercentage",
              "type": "uint256"
            },
            {
              "internalType": "uint256",
              "name": "warranty",
              "type": "uint256"
            },
            {
              "internalType": "uint256",
              "name": "cashbackPercentage",
              "type": "uint256"
            },
            {
              "internalType": "uint256",
              "name": "expiration",
              "type": "uint256"
            }
          ],
          "internalType": "struct Dagora.Listing",
          "name": "_listing",
          "type": "tuple"
        },
        {
          "components": [
            {
              "internalType": "uint8",
              "name": "v",
              "type": "uint8"
            },
            {
              "internalType": "bytes32",
              "name": "r",
              "type": "bytes32"
            },
            {
              "internalType": "bytes32",
              "name": "s",
              "type": "bytes32"
            }
          ],
          "internalType": "struct Dagora.Sig",
          "name": "listingSig",
          "type": "tuple"
        }
      ],
      "name": "createTransaction",
      "outputs": [
        {
          "internalType": "bytes32",
          "name": "hash",
          "type": "bytes32"
        }
      ],
      "stateMutability": "nonpayable",
      "type": "function"
    },
    {
      "inputs": [
        {
          "components": [
            {
              "internalType": "bytes32",
              "name": "listingHash",
              "type": "bytes32"
            },
            {
              "internalType": "address payable",
              "name": "buyer",
              "type": "address"
            },
            {
              "internalType": "address payable",
              "name": "commissioner",
              "type": "address"
            },
            {
              "internalType": "contract ERC20",
              "name": "token",
              "type": "address"
            },
            {
              "internalType": "uint256",
              "name": "total",
              "type": "uint256"
            },
            {
              "internalType": "uint256",
              "name": "shippingCost",
              "type": "uint256"
            },
            {
              "internalType": "uint256",
              "name": "expiration",
              "type": "uint256"
            },
            {
              "internalType": "uint256",
              "name": "confirmationTimeout",
              "type": "uint256"
            }
          ],
          "internalType": "struct Dagora.Order",
          "name": "_order",
          "type": "tuple"
        },
        {
          "components": [
            {
              "internalType": "bytes32",
              "name": "ipfsHash",
              "type": "bytes32"
            },
            {
              "internalType": "address payable",
              "name": "seller",
              "type": "address"
            },
            {
              "internalType": "address payable",
              "name": "stakeOwner",
              "type": "address"
            },
            {
              "internalType": "uint256",
              "name": "stakedAmount",
              "type": "uint256"
            },
            {
              "internalType": "uint256",
              "name": "commissionPercentage",
              "type": "uint256"
            },
            {
              "internalType": "uint256",
              "name": "warranty",
              "type": "uint256"
            },
            {
              "internalType": "uint256",
              "name": "cashbackPercentage",
              "type": "uint256"
            },
            {
              "internalType": "uint256",
              "name": "expiration",
              "type": "uint256"
            }
          ],
          "internalType": "struct Dagora.Listing",
          "name": "_listing",
          "type": "tuple"
        }
      ],
      "name": "confirmReceipt",
      "outputs": [],
      "stateMutability": "nonpayable",
      "type": "function"
    },
    {
      "inputs": [
        {
          "components": [
            {
              "internalType": "bytes32",
              "name": "listingHash",
              "type": "bytes32"
            },
            {
              "internalType": "address payable",
              "name": "buyer",
              "type": "address"
            },
            {
              "internalType": "address payable",
              "name": "commissioner",
              "type": "address"
            },
            {
              "internalType": "contract ERC20",
              "name": "token",
              "type": "address"
            },
            {
              "internalType": "uint256",
              "name": "total",
              "type": "uint256"
            },
            {
              "internalType": "uint256",
              "name": "shippingCost",
              "type": "uint256"
            },
            {
              "internalType": "uint256",
              "name": "expiration",
              "type": "uint256"
            },
            {
              "internalType": "uint256",
              "name": "confirmationTimeout",
              "type": "uint256"
            }
          ],
          "internalType": "struct Dagora.Order",
          "name": "_order",
          "type": "tuple"
        },
        {
          "components": [
            {
              "internalType": "bytes32",
              "name": "ipfsHash",
              "type": "bytes32"
            },
            {
              "internalType": "address payable",
              "name": "seller",
              "type": "address"
            },
            {
              "internalType": "address payable",
              "name": "stakeOwner",
              "type": "address"
            },
            {
              "internalType": "uint256",
              "name": "stakedAmount",
              "type": "uint256"
            },
            {
              "internalType": "uint256",
              "name": "commissionPercentage",
              "type": "uint256"
            },
            {
              "internalType": "uint256",
              "name": "warranty",
              "type": "uint256"
            },
            {
              "internalType": "uint256",
              "name": "cashbackPercentage",
              "type": "uint256"
            },
            {
              "internalType": "uint256",
              "name": "expiration",
              "type": "uint256"
            }
          ],
          "internalType": "struct Dagora.Listing",
          "name": "_listing",
          "type": "tuple"
        }
      ],
      "name": "executeTransaction",
      "outputs": [],
      "stateMutability": "nonpayable",
      "type": "function"
    },
    {
      "inputs": [
        {
          "components": [
            {
              "internalType": "bytes32",
              "name": "listingHash",
              "type": "bytes32"
            },
            {
              "internalType": "address payable",
              "name": "buyer",
              "type": "address"
            },
            {
              "internalType": "address payable",
              "name": "commissioner",
              "type": "address"
            },
            {
              "internalType": "contract ERC20",
              "name": "token",
              "type": "address"
            },
            {
              "internalType": "uint256",
              "name": "total",
              "type": "uint256"
            },
            {
              "internalType": "uint256",
              "name": "shippingCost",
              "type": "uint256"
            },
            {
              "internalType": "uint256",
              "name": "expiration",
              "type": "uint256"
            },
            {
              "internalType": "uint256",
              "name": "confirmationTimeout",
              "type": "uint256"
            }
          ],
          "internalType": "struct Dagora.Order",
          "name": "_order",
          "type": "tuple"
        },
        {
          "components": [
            {
              "internalType": "bytes32",
              "name": "ipfsHash",
              "type": "bytes32"
            },
            {
              "internalType": "address payable",
              "name": "seller",
              "type": "address"
            },
            {
              "internalType": "address payable",
              "name": "stakeOwner",
              "type": "address"
            },
            {
              "internalType": "uint256",
              "name": "stakedAmount",
              "type": "uint256"
            },
            {
              "internalType": "uint256",
              "name": "commissionPercentage",
              "type": "uint256"
            },
            {
              "internalType": "uint256",
              "name": "warranty",
              "type": "uint256"
            },
            {
              "internalType": "uint256",
              "name": "cashbackPercentage",
              "type": "uint256"
            },
            {
              "internalType": "uint256",
              "name": "expiration",
              "type": "uint256"
            }
          ],
          "internalType": "struct Dagora.Listing",
          "name": "_listing",
          "type": "tuple"
        }
      ],
      "name": "claimWarranty",
      "outputs": [],
      "stateMutability": "nonpayable",
      "type": "function"
    },
    {
      "inputs": [
        {
          "components": [
            {
              "internalType": "bytes32",
              "name": "listingHash",
              "type": "bytes32"
            },
            {
              "internalType": "address payable",
              "name": "buyer",
              "type": "address"
            },
            {
              "internalType": "address payable",
              "name": "commissioner",
              "type": "address"
            },
            {
              "internalType": "contract ERC20",
              "name": "token",
              "type": "address"
            },
            {
              "internalType": "uint256",
              "name": "total",
              "type": "uint256"
            },
            {
              "internalType": "uint256",
              "name": "shippingCost",
              "type": "uint256"
            },
            {
              "internalType": "uint256",
              "name": "expiration",
              "type": "uint256"
            },
            {
              "internalType": "uint256",
              "name": "confirmationTimeout",
              "type": "uint256"
            }
          ],
          "internalType": "struct Dagora.Order",
          "name": "_order",
          "type": "tuple"
        },
        {
          "components": [
            {
              "internalType": "bytes32",
              "name": "ipfsHash",
              "type": "bytes32"
            },
            {
              "internalType": "address payable",
              "name": "seller",
              "type": "address"
            },
            {
              "internalType": "address payable",
              "name": "stakeOwner",
              "type": "address"
            },
            {
              "internalType": "uint256",
              "name": "stakedAmount",
              "type": "uint256"
            },
            {
              "internalType": "uint256",
              "name": "commissionPercentage",
              "type": "uint256"
            },
            {
              "internalType": "uint256",
              "name": "warranty",
              "type": "uint256"
            },
            {
              "internalType": "uint256",
              "name": "cashbackPercentage",
              "type": "uint256"
            },
            {
              "internalType": "uint256",
              "name": "expiration",
              "type": "uint256"
            }
          ],
          "internalType": "struct Dagora.Listing",
          "name": "_listing",
          "type": "tuple"
        }
      ],
      "name": "disputeTransaction",
      "outputs": [
        {
          "internalType": "bytes32",
          "name": "hash",
          "type": "bytes32"
        }
      ],
      "stateMutability": "payable",
      "type": "function"
    },
    {
      "inputs": [
        {
          "components": [
            {
              "internalType": "bytes32",
              "name": "listingHash",
              "type": "bytes32"
            },
            {
              "internalType": "address payable",
              "name": "buyer",
              "type": "address"
            },
            {
              "internalType": "address payable",
              "name": "commissioner",
              "type": "address"
            },
            {
              "internalType": "contract ERC20",
              "name": "token",
              "type": "address"
            },
            {
              "internalType": "uint256",
              "name": "total",
              "type": "uint256"
            },
            {
              "internalType": "uint256",
              "name": "shippingCost",
              "type": "uint256"
            },
            {
              "internalType": "uint256",
              "name": "expiration",
              "type": "uint256"
            },
            {
              "internalType": "uint256",
              "name": "confirmationTimeout",
              "type": "uint256"
            }
          ],
          "internalType": "struct Dagora.Order",
          "name": "_order",
          "type": "tuple"
        },
        {
          "components": [
            {
              "internalType": "bytes32",
              "name": "ipfsHash",
              "type": "bytes32"
            },
            {
              "internalType": "address payable",
              "name": "seller",
              "type": "address"
            },
            {
              "internalType": "address payable",
              "name": "stakeOwner",
              "type": "address"
            },
            {
              "internalType": "uint256",
              "name": "stakedAmount",
              "type": "uint256"
            },
            {
              "internalType": "uint256",
              "name": "commissionPercentage",
              "type": "uint256"
            },
            {
              "internalType": "uint256",
              "name": "warranty",
              "type": "uint256"
            },
            {
              "internalType": "uint256",
              "name": "cashbackPercentage",
              "type": "uint256"
            },
            {
              "internalType": "uint256",
              "name": "expiration",
              "type": "uint256"
            }
          ],
          "internalType": "struct Dagora.Listing",
          "name": "_listing",
          "type": "tuple"
        },
        {
          "internalType": "uint256",
          "name": "refund",
          "type": "uint256"
        }
      ],
      "name": "updateRefund",
      "outputs": [],
      "stateMutability": "nonpayable",
      "type": "function"
    },
    {
      "inputs": [
        {
          "components": [
            {
              "internalType": "bytes32",
              "name": "ipfsHash",
              "type": "bytes32"
            },
            {
              "internalType": "address payable",
              "name": "seller",
              "type": "address"
            },
            {
              "internalType": "address payable",
              "name": "stakeOwner",
              "type": "address"
            },
            {
              "internalType": "uint256",
              "name": "stakedAmount",
              "type": "uint256"
            },
            {
              "internalType": "uint256",
              "name": "commissionPercentage",
              "type": "uint256"
            },
            {
              "internalType": "uint256",
              "name": "warranty",
              "type": "uint256"
            },
            {
              "internalType": "uint256",
              "name": "cashbackPercentage",
              "type": "uint256"
            },
            {
              "internalType": "uint256",
              "name": "expiration",
              "type": "uint256"
            }
          ],
          "internalType": "struct Dagora.Listing",
          "name": "_listing",
          "type": "tuple"
        },
        {
          "components": [
            {
              "internalType": "uint8",
              "name": "v",
              "type": "uint8"
            },
            {
              "internalType": "bytes32",
              "name": "r",
              "type": "bytes32"
            },
            {
              "internalType": "bytes32",
              "name": "s",
              "type": "bytes32"
            }
          ],
          "internalType": "struct Dagora.Sig",
          "name": "sig",
          "type": "tuple"
        }
      ],
      "name": "report",
      "outputs": [
        {
          "internalType": "bytes32",
          "name": "hash",
          "type": "bytes32"
        }
      ],
      "stateMutability": "payable",
      "type": "function"
    },
    {
      "inputs": [
        {
          "internalType": "bytes32",
          "name": "hash",
          "type": "bytes32"
        }
      ],
      "name": "disputeTimeout",
      "outputs": [],
      "stateMutability": "nonpayable",
      "type": "function"
    },
    {
      "inputs": [
        {
          "internalType": "bytes32",
          "name": "hash",
          "type": "bytes32"
        }
      ],
      "name": "payArbitrationFee",
      "outputs": [],
      "stateMutability": "payable",
      "type": "function"
    },
    {
      "inputs": [
        {
          "internalType": "bytes32",
          "name": "_hash",
          "type": "bytes32"
        },
        {
          "internalType": "string",
          "name": "_evidence",
          "type": "string"
        }
      ],
      "name": "submitEvidence",
      "outputs": [],
      "stateMutability": "nonpayable",
      "type": "function"
    },
    {
      "inputs": [
        {
          "internalType": "bytes32",
          "name": "_hash",
          "type": "bytes32"
        }
      ],
      "name": "appeal",
      "outputs": [],
      "stateMutability": "payable",
      "type": "function"
    },
    {
      "inputs": [
        {
          "internalType": "uint256",
          "name": "_disputeID",
          "type": "uint256"
        },
        {
          "internalType": "uint256",
          "name": "_ruling",
          "type": "uint256"
        }
      ],
      "name": "rule",
      "outputs": [],
      "stateMutability": "nonpayable",
      "type": "function"
    }
  ],
  "bytecode": "0x60806040523480156200001157600080fd5b5060405162004d7038038062004d708339810160408190526200003491620002a7565b6000620000496001600160e01b036200013b16565b600080546001600160a01b0319166001600160a01b0383169081178255604051929350917f8be0079c531659141344cd1fd0a4f28419497f9722a3daafe3b4186f6b6457e0908290a350600780546001600160a01b03808d166001600160a01b031992831617909255600d80548c841690831617905560128054928b169290911691909117905562015180808802600b558602600a55601085905560118490558251620000fe90600890602086019062000140565b5081516200011490600990602085019062000140565b5080516200012a90600f90602084019062000140565b505050505050505050505062000397565b335b90565b828054600181600116156101000203166002900490600052602060002090601f016020900481019282601f106200018357805160ff1916838001178555620001b3565b82800160010185558215620001b3579182015b82811115620001b357825182559160200191906001019062000196565b50620001c1929150620001c5565b5090565b6200013d91905b80821115620001c15760008155600101620001cc565b80516001600160a01b0381168114620001fa57600080fd5b92915050565b600082601f83011262000211578081fd5b81516001600160401b038082111562000228578283fd5b6040516020601f8401601f19168201810183811183821017156200024a578586fd5b806040525081945083825286818588010111156200026757600080fd5b600092505b838310156200028b57858301810151828401820152918201916200026c565b838311156200029d5760008185840101525b5050505092915050565b6000806000806000806000806000806101408b8d031215620002c7578586fd5b620002d38c8c620001e2565b9950620002e48c60208d01620001e2565b9850620002f58c60408d01620001e2565b975060608b0151965060808b0151955060a08b0151945060c08b0151935060e08b015160018060401b03808211156200032c578485fd5b6200033a8e838f0162000200565b94506101008d015191508082111562000351578384fd5b6200035f8e838f0162000200565b93506101208d015191508082111562000376578283fd5b50620003858d828e0162000200565b9150509295989b9194979a5092959850565b6149c980620003a76000396000f3fe60806040526004361061023b5760003560e01c806382ad5f751161012e578063be6a18ef116100ab578063ece1de441161006f578063ece1de441461065e578063ee7269d714610671578063f2fde38b14610686578063f48a0b31146106a6578063fbe4eb64146106c65761023b565b8063be6a18ef146105d6578063cae6047f146105e9578063d1e07197146105fe578063d1fcfdb81461061e578063dd49756e1461063e5761023b565b8063a2031de4116100f2578063a2031de414610555578063ad48d61114610577578063b329036b1461058c578063b6398667146105a1578063ba4bc763146105b65761023b565b806382ad5f75146104e357806387bd84cc146104f65780638da5cb5b146105165780638e50e5091461052b578063a0c59ef3146105405761023b565b80635af79807116101bc5780636cc6cde1116101805780636cc6cde11461044a5780636d47ab721461045f578063715018a61461048e57806372fc4213146104a35780638076f005146104c35761023b565b80635af79807146103a4578063642f2eaf146103b957806364df049e146103e857806369dc9ff31461040a5780636b83a0611461042a5761023b565b8063315a095d11610203578063315a095d146103025780634140a5eb1461032257806347081b711461033757806353376d1f1461035757806353a1173b146103775761023b565b806311be19971461024057806314a92c8d146102805780631b9eadb4146102ad57806328a98380146102c0578063311a6c56146102e2575b600080fd5b34801561024c57600080fd5b5061026061025b3660046138e8565b6106e6565b6040516102779b9a99989796959493929190613d6e565b60405180910390f35b34801561028c57600080fd5b506102a061029b366004613a70565b610753565b6040516102779190613e31565b6102a06102bb366004613a03565b61092c565b3480156102cc57600080fd5b506102e06102db366004613a03565b610bd8565b005b3480156102ee57600080fd5b506102e06102fd366004613ae3565b610d66565b34801561030e57600080fd5b506102e061031d3660046138e8565b610e76565b34801561032e57600080fd5b506102a0610f8f565b34801561034357600080fd5b506102e0610352366004613a03565b610f95565b34801561036357600080fd5b506102e06103723660046138ac565b6110bb565b34801561038357600080fd5b506103976103923660046139e7565b611139565b6040516102779190613e26565b3480156103b057600080fd5b506102a06111f6565b3480156103c557600080fd5b506103d96103d43660046138e8565b6111fc565b60405161027793929190614877565b3480156103f457600080fd5b506103fd611220565b6040516102779190613d19565b34801561041657600080fd5b506103976104253660046138ac565b61122f565b34801561043657600080fd5b50610397610445366004613995565b611244565b34801561045657600080fd5b506103fd611334565b34801561046b57600080fd5b5061047f61047a3660046138ac565b611343565b6040516102779392919061489d565b34801561049a57600080fd5b506102e0611363565b3480156104af57600080fd5b506102e06104be3660046138e8565b6113e2565b3480156104cf57600080fd5b506103976104de3660046138e8565b61159a565b6102a06104f13660046139b1565b6115af565b34801561050257600080fd5b506103976105113660046138e8565b61186b565b34801561052257600080fd5b506103fd611880565b34801561053757600080fd5b506102a061188f565b34801561054c57600080fd5b506102a0611895565b34801561056157600080fd5b5061056a61189b565b6040516102779190613e58565b34801561058357600080fd5b506103fd611929565b34801561059857600080fd5b506102a0611938565b3480156105ad57600080fd5b5061056a61193e565b3480156105c257600080fd5b506102a06105d13660046138e8565b611999565b6102e06105e43660046138e8565b6119ab565b3480156105f557600080fd5b506102a0611c0c565b34801561060a57600080fd5b506102e0610619366004613a30565b611c12565b34801561062a57600080fd5b506102e06106393660046138ac565b611d58565b34801561064a57600080fd5b506102e06106593660046138e8565b611dff565b6102e061066c3660046138e8565b611ede565b34801561067d57600080fd5b5061056a611f8d565b34801561069257600080fd5b506102e06106a13660046138ac565b611fe8565b3480156106b257600080fd5b506102e06106c1366004613900565b61209e565b3480156106d257600080fd5b506102e06106e1366004613a03565b6121a2565b600560208190526000918252604090912080546001820154600283015460038401546004850154958501546006860154600787015460088801546009890154600a909901546001600160a01b039889169a9789169996989095169695939460ff938416949293919291168b565b600061075f838361233f565b8551146107875760405162461bcd60e51b815260040161077e90613fcc565b60405180910390fd5b610791858561237d565b90506000808281526004602052604090206002015460ff1660058111156107b457fe5b146107d15760405162461bcd60e51b815260040161077e9061468e565b60008560a00151866080015101905085606001516001600160a01b03166323b872dd876020015130846040518463ffffffff1660e01b815260040161081893929190613de9565b602060405180830381600087803b15801561083257600080fd5b505af1158015610846573d6000803e3d6000fd5b505050506040513d601f19601f8201168201806040525081019061086a91906138c8565b6108865760405162461bcd60e51b815260040161077e90614705565b600082815260046020526040902042815560020180546001919060ff19168280021790555083602001516001600160a01b031686602001516001600160a01b0316837fe419a7cfec7b19a58f8ef66dbf85dd08b396bafa0e2f94b3181fd3d047cb748187604001518a604001518b60600151878b608001518c60c001518f60e0015160405161091b9796959493929190613d2d565b60405180910390a450949350505050565b6000610937826123b2565b8351146109565760405162461bcd60e51b815260040161077e90613fcc565b61095f836123c5565b60008181526004602052604090209091506001600282015460ff16600581111561098557fe5b14806109a357506003600282015460ff1660058111156109a157fe5b145b6109bf5760405162461bcd60e51b815260040161077e9061410d565b8360e0015162015180028160000154014211156109ee5760405162461bcd60e51b815260040161077e90614454565b60075460405163f7434ea960e01b81526000916001600160a01b03169063f7434ea990610a2090600890600401613e6b565b60206040518083038186803b158015610a3857600080fd5b505afa158015610a4c573d6000803e3d6000fd5b505050506040513d601f19601f82011682018060405250810190610a709190613acb565b905080341015610a925760405162461bcd60e51b815260040161077e90614556565b6000806001600285015460ff166005811115610aaa57fe5b1415610af65786602001516001600160a01b0316336001600160a01b031614610ae55760405162461bcd60e51b815260040161077e9061427e565b505060208086015190850151610b38565b85602001516001600160a01b0316336001600160a01b031614610b2b5760405162461bcd60e51b815260040161077e906142b5565b5050602080860151908501515b6002848101805460ff1916600417905542855560808801516060890151600092610b6b92899287928792919034906123d3565b905080600801547f61606860eb6c87306811e2695215385101daab53bd6ab4e9f9049aead9363c7d600f8960000151604051602001610bab929190613c70565b60408051601f1981840301815290829052610bc591613e58565b60405180910390a2505050505092915050565b610be1816123b2565b825114610c005760405162461bcd60e51b815260040161077e90613fcc565b6000610c0b836123c5565b9050600160008281526004602052604090206002015460ff166005811115610c2f57fe5b148015610c51575082602001516001600160a01b0316336001600160a01b0316145b80610c9b5750600360008281526004602052604090206002015460ff166005811115610c7957fe5b148015610c9b575081602001516001600160a01b0316336001600160a01b0316145b610cb75760405162461bcd60e51b815260040161077e906145a0565b600081815260046020526040902060010154158015610cda575060008260a00151115b15610d055760008181526004602052604090206002808201805460ff19169091179055429055610d61565b6000610d1984608001518560a001516124e2565b9050610d5f828560200151856020015187604001518760400151896060015187600460008b8152602001908152602001600020600101548b608001518c60c00151612507565b505b505050565b60008281526006602090815260408083205480845260059092529091206007546001600160a01b03163314610dad5760405162461bcd60e51b815260040161077e906146c3565b6003600a82015460ff166004811115610dc257fe5b14610ddf5760405162461bcd60e51b815260040161077e90613f0a565b83336001600160a01b03167f394027a5fa6e098a1191094d1719d6929b9abc535fcc0c8f448d6a4e7562227685604051610e199190613e31565b60405180910390a36001600682015460ff166002811115610e3657fe5b1415610e4b57610e46818461293d565b610d5f565b610e558184612c98565b506000908152600460205260409020600201805460ff191660051790555050565b33600090815260016020819052604090912090810154815403821115610eae5760405162461bcd60e51b815260040161077e90613e92565b600d546040516323b872dd60e01b81526001600160a01b03909116906323b872dd90610ee290339030908790600401613de9565b602060405180830381600087803b158015610efc57600080fd5b505af1158015610f10573d6000803e3d6000fd5b505050506040513d601f19601f82011682018060405250810190610f3491906138c8565b610f3d57600080fd5b336000818152600160205260409081902080548590039055517f05e8d4927d2e9cff8a7d6f1c0c3b0fdd4d7299da00fe4911745bda49a5834e6790610f83908590613e31565b60405180910390a25050565b60115481565b610f9e816123b2565b825114610fbd5760405162461bcd60e51b815260040161077e90613fcc565b6000610fc8836123c5565b600081815260046020526040902090915060028082015460ff166005811115610fed57fe5b1461100a5760405162461bcd60e51b815260040161077e9061410d565b83602001516001600160a01b0316336001600160a01b03161461103f5760405162461bcd60e51b815260040161077e90614663565b8260a00151620151800281600001540142111561106e5760405162461bcd60e51b815260040161077e906140d6565b60028101805460ff191660031790556080840151600182015542815560405182907f99e77d4092287badf5165a76eb7add37ec282650747091906c6a02e0cd4f5b3d90600090a250505050565b6110c36130d5565b6000546001600160a01b039081169116146110f05760405162461bcd60e51b815260040161077e9061436e565b6001600160a01b0381166000818152600c6020526040808220805460ff19169055517f45f62f30e7b8439e0da7d8e560fe39d01238091ce9e789e3d12b514edf98acea9190a250565b600081602001516001600160a01b0316336001600160a01b0316146111705760405162461bcd60e51b815260040161077e906143a3565b600061117b836123c5565b60008181526003602052604090205490915060ff16156111ad5760405162461bcd60e51b815260040161077e90613f50565b600081815260036020526040808220805460ff191660011790555182917f0bed755d9d22259660bf623a395b620bbff2af67319e990b538dc8603bdc3e5f91a250600192915050565b600e5481565b60046020526000908152604090208054600182015460029092015490919060ff1683565b6012546001600160a01b031681565b600c6020526000908152604090205460ff1681565b600081604001516001600160a01b0316336001600160a01b03161461127b5760405162461bcd60e51b815260040161077e90614489565b60608201513360009081526001602052604090205410156112ae5760405162461bcd60e51b815260040161077e906141bc565b60006112b9836123b2565b60008181526003602052604090205490915060ff16156112eb5760405162461bcd60e51b815260040161077e90613f50565b600081815260036020526040808220805460ff191660011790555182917f4e58c75167b3bff3ab3949a55f72203f341f94cca1c2c0c84370731b2b4c201791a250600192915050565b6007546001600160a01b031681565b600160208190526000918252604090912080549181015460029091015483565b61136b6130d5565b6000546001600160a01b039081169116146113985760405162461bcd60e51b815260040161077e9061436e565b600080546040516001600160a01b03909116907f8be0079c531659141344cd1fd0a4f28419497f9722a3daafe3b4186f6b6457e0908390a3600080546001600160a01b0319169055565b6000818152600560205260409020600a81015460ff16600481111561140357fe5b600010801561142457506003600a82015460ff16600481111561142257fe5b105b6114405760405162461bcd60e51b815260040161077e906141f3565b600b548160070154420310156114685760405162461bcd60e51b815260040161077e90614041565b600081600401546000146114e657600482018054600090915582546040516001600160a01b0390911690829061149d90613d16565b60006040518083038185875af1925050503d80600081146114da576040519150601f19603f3d011682016040523d82523d6000602084013e6114df565b606091505b5090925050505b60058201541561156357600582018054600090915560018301546040516001600160a01b0390911690829061151a90613d16565b60006040518083038185875af1925050503d8060008114611557576040519150601f19603f3d011682016040523d82523d6000602084013e61155c565b606091505b5090925050505b6002600a83015460ff16600481111561157857fe5b141561158f5761158a8260015b61293d565b610d61565b610d61826002611585565b60026020526000908152604090205460ff1681565b60006115bb838361233f565b9050600080828152600560205260409020600a015460ff1660048111156115de57fe5b146115fb5760405162461bcd60e51b815260040161077e9061432d565b82604001516001600160a01b0316336001600160a01b031614156116315760405162461bcd60e51b815260040161077e906147fa565b60075460405163f7434ea960e01b81526000916001600160a01b03169063f7434ea99061166390600890600401613e6b565b60206040518083038186803b15801561167b57600080fd5b505afa15801561168f573d6000803e3d6000fd5b505050506040513d601f19601f820116820180604052508101906116b39190613acb565b9050803410156116d55760405162461bcd60e51b815260040161077e90614556565b336000908152600160205260409020600281015442116117075760405162461bcd60e51b815260040161077e9061450f565b600181015481546060870151919003908110156117d757600d5460608701516040516323b872dd60e01b81526001600160a01b03909216916323b872dd9161175a91339130919087900390600401613de9565b602060405180830381600087803b15801561177457600080fd5b505af1158015611788573d6000803e3d6000fd5b505050506040513d601f19601f820116820180604052508101906117ac91906138c8565b6117c85760405162461bcd60e51b815260040161077e90614746565b60608601518254908290030182555b604080870180516001600160a01b0390811660009081526001602081905293812060608b01518786018054820190558186018054820190559351600d549195929461182b948b9433949091169034906123d3565b905080600801547f61606860eb6c87306811e2695215385101daab53bd6ab4e9f9049aead9363c7d600f8a60000151604051602001610bab929190613c70565b60036020526000908152604090205460ff1681565b6000546001600160a01b031690565b60105481565b600a5481565b600f805460408051602060026001851615610100026000190190941693909304601f810184900484028201840190925281815292918301828280156119215780601f106118f657610100808354040283529160200191611921565b820191906000526020600020905b81548152906001019060200180831161190457829003601f168201915b505050505081565b600d546001600160a01b031681565b600b5481565b6009805460408051602060026001851615610100026000190190941693909304601f810184900484028201840190925281815292918301828280156119215780601f106118f657610100808354040283529160200191611921565b60066020526000908152604090205481565b600081815260056020526040808220600754915163f7434ea960e01b81529092916001600160a01b03169063f7434ea9906119eb90600890600401613e6b565b60206040518083038186803b158015611a0357600080fd5b505afa158015611a17573d6000803e3d6000fd5b505050506040513d601f19601f82011682018060405250810190611a3b9190613acb565b600a83015490915060ff166004811115611a5157fe5b6000108015611a7257506003600a83015460ff166004811115611a7057fe5b105b611a8e5760405162461bcd60e51b815260040161077e90613ec9565b81546001600160a01b0316331480611ab2575060018201546001600160a01b031633145b611ace5760405162461bcd60e51b815260040161077e906143da565b81546001600160a01b0316331415611b7657600482018054340190819055811115611b0b5760405162461bcd60e51b815260040161077e90614134565b4260078301556005820154811115611b6c57600a8201805460ff1916600217905560405183907ff972c77402d0ee7d94e4b2ea7cee21a3d392136bf7c9b72d2dc85e2a4d24a9cf90611b5f90600190613e7e565b60405180910390a261158a565b61158a83826130d9565b600582018054340190819055811115611ba15760405162461bcd60e51b815260040161077e90614134565b4260078301556004820154811115611c0257600a8201805460ff1916600117905560405183907ff972c77402d0ee7d94e4b2ea7cee21a3d392136bf7c9b72d2dc85e2a4d24a9cf90611bf590600090613e7e565b60405180910390a2610d61565b610d6183826130d9565b61271081565b611c1b826123b2565b835114611c3a5760405162461bcd60e51b815260040161077e90613fcc565b81602001516001600160a01b0316336001600160a01b031614611c6f5760405162461bcd60e51b815260040161077e90614185565b6000611c7a846123c5565b60008181526004602052604090209091506001600282015460ff166005811115611ca057fe5b14611cbd5760405162461bcd60e51b815260040161077e9061410d565b8460e001516201518002816000015401421115611cec5760405162461bcd60e51b815260040161077e90614454565b8460800151831115611d105760405162461bcd60e51b815260040161077e90614411565b828160010181905550817fe18fe462037a62d3500e07f2b32d9e16a69cee44850c9b7dcef7d856087e4aff84604051611d499190613e31565b60405180910390a25050505050565b611d606130d5565b6000546001600160a01b03908116911614611d8d5760405162461bcd60e51b815260040161077e9061436e565b6001600160a01b0381166000908152600c602052604090205460ff1615611db357600080fd5b6001600160a01b0381166000818152600c6020526040808220805460ff19166001179055517f52133ca86a0b20d025852c627bd9d5c8e6037a237d7ef7d22f399ae642e6b9b49190a250565b600d546040516323b872dd60e01b81526001600160a01b03909116906323b872dd90611e3390339030908690600401613de9565b602060405180830381600087803b158015611e4d57600080fd5b505af1158015611e61573d6000803e3d6000fd5b505050506040513d601f19601f82011682018060405250810190611e8591906138c8565b611e8e57600080fd5b3360008181526001602052604090819020805484019055517fbc7c8a4d8049a3f99a02f2a20640c206a2e4d3f2fa54fd20da9f01fda3620cda90611ed3908490613e31565b60405180910390a250565b60008181526005602052604090206002600682015460ff166002811115611f0157fe5b14611f1e5760405162461bcd60e51b815260040161077e90614616565b60075460098083015460405163093225f160e31b81526001600160a01b03909316926349912f88923492611f5792909190600401614848565b6000604051808303818588803b158015611f7057600080fd5b505af1158015611f84573d6000803e3d6000fd5b50505050505050565b6008805460408051602060026001851615610100026000190190941693909304601f810184900484028201840190925281815292918301828280156119215780601f106118f657610100808354040283529160200191611921565b611ff06130d5565b6000546001600160a01b0390811691161461201d5760405162461bcd60e51b815260040161077e9061436e565b6001600160a01b0381166120435760405162461bcd60e51b815260040161077e90613ffb565b600080546040516001600160a01b03808516939216917f8be0079c531659141344cd1fd0a4f28419497f9722a3daafe3b4186f6b6457e091a3600080546001600160a01b0319166001600160a01b0392909216919091179055565b600082815260056020526040902080546001600160a01b03163314806120d0575060018101546001600160a01b031633145b6120ec5760405162461bcd60e51b815260040161077e906147a6565b6002600682015460ff16600281111561210157fe5b1461211e5760405162461bcd60e51b815260040161077e906144c0565b6004600a82015460ff16600481111561213357fe5b106121505760405162461bcd60e51b815260040161077e90613f7a565b60088101546007546040513392916001600160a01b0316907fdccf2f8b2cc26eafcd61905cba744cff4b81d14740725f6376390dc6298a6a3c90612195908790613e58565b60405180910390a4505050565b6121ab816123b2565b8251146121ca5760405162461bcd60e51b815260040161077e90613fcc565b60006121d5836123c5565b60008181526004602052604090209091506001600282015460ff1660058111156121fb57fe5b1480612218575060028082015460ff16600581111561221657fe5b145b8061223557506003600282015460ff16600581111561223357fe5b145b6122515760405162461bcd60e51b815260040161077e9061410d565b60006001600283015460ff16600581111561226857fe5b148061228657506003600283015460ff16600581111561228457fe5b145b156122be57428560e001516201518002836000015401116122b95760405162461bcd60e51b815260040161077e90614041565b6122f3565b428460a001516201518002836000015401116122ec5760405162461bcd60e51b815260040161077e90614041565b5060c08301515b600061230786608001518760a001516124e2565b90506123378487602001518760200151896040015189604001518b60600151878a600101548d608001518b612507565b505050505050565b60008061234b846123b2565b9050612358818585613316565b6123745760405162461bcd60e51b815260040161077e9061477d565b90505b92915050565b600080612389846123c5565b905061239681858561344b565b6123745760405162461bcd60e51b815260040161077e906145ef565b60006123776123c083613566565b6135be565b60006123776123c0836135ee565b600087815260056020526040902080546001600160a01b038089166001600160a01b031992831617835560018084018054928a1692909316919091179091556002808301879055600483018054860190556006830180548593919260ff199091169190849081111561244157fe5b0217905550600182600281111561245457fe5b1415612478576003810180546001600160a01b0319166001600160a01b0386161790555b600a8101805460ff19166002179055426007820155600e80546001818101909255600883015560405189917ff972c77402d0ee7d94e4b2ea7cee21a3d392136bf7c9b72d2dc85e2a4d24a9cf916124cf9190613e7e565b60405180910390a2979650505050505050565b6000828201838110156123745760405162461bcd60e51b815260040161077e9061409f565b6001600160a01b03851661251a57600080fd5b6001600160a01b0385166000908152600c602052604090205460ff1661253f57600080fd5b60008a815260046020526040812060028101805460ff191660051790554290556125698585613628565b6010549091501561262b57600061258d6125856010548461366a565b6127106136a4565b90506125998282613628565b60125460405163a9059cbb60e01b81529193506001600160a01b03808a169263a9059cbb926125ce9216908590600401613e0d565b602060405180830381600087803b1580156125e857600080fd5b505af11580156125fc573d6000803e3d6000fd5b505050506040513d601f19601f8201168201806040525081019061262091906138c8565b61262957600080fd5b505b600060115411801561264f5750866001600160a01b0316896001600160a01b031614155b156126ff5760006126656125856011548461366a565b90506126718282613628565b60405163a9059cbb60e01b81529092506001600160a01b0388169063a9059cbb906126a2908b908590600401613e0d565b602060405180830381600087803b1580156126bc57600080fd5b505af11580156126d0573d6000803e3d6000fd5b505050506040513d601f19601f820116820180604052508101906126f491906138c8565b6126fd57600080fd5b505b60008311801561271757506001600160a01b03881615155b156127c557600061272b612585858461366a565b90506127378282613628565b60405163a9059cbb60e01b81529092506001600160a01b0388169063a9059cbb90612768908c908590600401613e0d565b602060405180830381600087803b15801561278257600080fd5b505af1158015612796573d6000803e3d6000fd5b505050506040513d601f19601f820116820180604052508101906127ba91906138c8565b6127c357600080fd5b505b81156128765760006127da612585848461366a565b90506127e68282613628565b60405163a9059cbb60e01b81529092506001600160a01b0388169063a9059cbb90612819908e90858a0190600401613e0d565b602060405180830381600087803b15801561283357600080fd5b505af1158015612847573d6000803e3d6000fd5b505050506040513d601f19601f8201168201806040525081019061286b91906138c8565b61287457600080fd5b505b80156129055760405163a9059cbb60e01b81526001600160a01b0387169063a9059cbb906128aa908c908590600401613e0d565b602060405180830381600087803b1580156128c457600080fd5b505af11580156128d8573d6000803e3d6000fd5b505050506040513d601f19601f820116820180604052508101906128fc91906138c8565b61290557600080fd5b6040518b907f24196ec40f90671b7144e716978686b4f3c7d6b00b23da3971ef2b52af27d87f90600090a25050505050505050505050565b600281111561295e5760405162461bcd60e51b815260040161077e90614076565b6002820180546004808501805460058701805460009687905592869055859055600a8701805460ff191690931790925560016020819052808701546001600160a01b0316855292939192909190851415612ab75785546040516001600160a01b039091169084906129ce90613d16565b60006040518083038185875af1925050503d8060008114612a0b576040519150601f19603f3d011682016040523d82523d6000602084013e612a10565b606091505b50506001878101546001600160a01b03908116600090815260209290925260408083208054899003905589548216835290912080546002808904909101909155600d549293509116906342966c6890865b0486036040518263ffffffff1660e01b8152600401612a809190613e31565b600060405180830381600087803b158015612a9a57600080fd5b505af1158015612aae573d6000803e3d6000fd5b50505050612337565b6002851415612b875760018601546040516001600160a01b03909116908390612adf90613d16565b60006040518083038185875af1925050503d8060008114612b1c576040519150601f19603f3d011682016040523d82523d6000602084013e612b21565b606091505b5050600a5487546001600160a01b039081166000908152600160208190526040808320429095016002958601558b548416835280832080548b90039055908b01548316825290208054838904019055600d5492935091909116906342966c689086612a61565b600186015460405160028504916001600160a01b03169082850390612bab90613d16565b60006040518083038185875af1925050503d8060008114612be8576040519150601f19603f3d011682016040523d82523d6000602084013e612bed565b606091505b505087546040519193506001600160a01b0316908290612c0c90613d16565b60006040518083038185875af1925050503d8060008114612c49576040519150601f19603f3d011682016040523d82523d6000602084013e612c4e565b606091505b505087546001600160a01b03908116600090815260016020819052604080832080546002909b049a8b900390559a0154909116815297909720805495909503909455505050505050565b6002811115612cb95760405162461bcd60e51b815260040161077e90614076565b6002820180546004808501805460058701805460009687905592869055859055600a8701805460ff191690931790925591929091906001851415612e035785546040516001600160a01b03909116908490612d1390613d16565b60006040518083038185875af1925050503d8060008114612d50576040519150601f19603f3d011682016040523d82523d6000602084013e612d55565b606091505b50506003870154875460405163a9059cbb60e01b81529293506001600160a01b039182169263a9059cbb92612d909216908890600401613e0d565b602060405180830381600087803b158015612daa57600080fd5b505af1158015612dbe573d6000803e3d6000fd5b505050506040513d601f19601f82011682018060405250810190612de291906138c8565b612dfe5760405162461bcd60e51b815260040161077e90614238565b612337565b6002851415612eab5760018601546040516001600160a01b03909116908390612e2b90613d16565b60006040518083038185875af1925050503d8060008114612e68576040519150601f19603f3d011682016040523d82523d6000602084013e612e6d565b606091505b50506003870154600188015460405163a9059cbb60e01b81529293506001600160a01b039182169263a9059cbb92612d909216908890600401613e0d565b600186015460405160028504916001600160a01b03169082850390612ecf90613d16565b60006040518083038185875af1925050503d8060008114612f0c576040519150601f19603f3d011682016040523d82523d6000602084013e612f11565b606091505b505087546040519193506001600160a01b0316908290612f3090613d16565b60006040518083038185875af1925050503d8060008114612f6d576040519150601f19603f3d011682016040523d82523d6000602084013e612f72565b606091505b50506003880154600189015460405163a9059cbb60e01b815292945060028804926001600160a01b039283169263a9059cbb92612fb892911690858b0390600401613e0d565b602060405180830381600087803b158015612fd257600080fd5b505af1158015612fe6573d6000803e3d6000fd5b505050506040513d601f19601f8201168201806040525081019061300a91906138c8565b6130265760405162461bcd60e51b815260040161077e90614238565b6003880154885460405163a9059cbb60e01b81526001600160a01b039283169263a9059cbb9261305d929116908590600401613e0d565b602060405180830381600087803b15801561307757600080fd5b505af115801561308b573d6000803e3d6000fd5b505050506040513d601f19601f820116820180604052508101906130af91906138c8565b6130cb5760405162461bcd60e51b815260040161077e90614238565b5050505050505050565b3390565b6000828152600560205260409020600a810180546003919060ff191660018302179055506007546000906001600160a01b031663c13517e184600280600687015460ff16600281111561312857fe5b14613134576008613137565b60095b6040518463ffffffff1660e01b81526004016131549291906148b3565b6020604051808303818588803b15801561316d57600080fd5b505af1158015613181573d6000803e3d6000fd5b50505050506040513d601f19601f820116820180604052508101906131a69190613acb565b600081815260066020526040908190208690556007546008850154915192935083926001600160a01b03909116917f74baab670a4015ab2f1b467c5252a96141a2573f2908e58a92081e80d3cfde3d9161320291908190614869565b60405180910390a36000838360040154111561328c5760048301805490859055835460405191869003916001600160a01b0390911690829061324390613d16565b60006040518083038185875af1925050503d8060008114613280576040519150601f19603f3d011682016040523d82523d6000602084013e613285565b606091505b5090925050505b838360050154111561330f5760058301805490859055600184015460405191869003916001600160a01b039091169082906132c690613d16565b60006040518083038185875af1925050503d8060008114613303576040519150601f19603f3d011682016040523d82523d6000602084013e613308565b606091505b5090925050505b5050505050565b60008260e0015160001415801561333057508260e0015142115b1561333d57506000613444565b6040808401516001600160a01b0316600090815260016020819052919020606085015191810154815491929103101561337a576000915050613444565b60008581526002602052604090205460ff161561339b576000915050613444565b60008581526003602052604090205460ff16156133bc576001915050613444565b83604001516001600160a01b0316600186856000015186602001518760400151604051600081526020016040526040516133f99493929190613e3a565b6020604051602081039080840390855afa15801561341b573d6000803e3d6000fd5b505050602060405103516001600160a01b0316141561343e576001915050613444565b60009150505b9392505050565b60008260c0015160001415801561346557508260c0015142115b1561347257506000613444565b60608301516001600160a01b03166000908152600c602052604090205460ff1661349e57506000613444565b60008481526002602052604090205460ff16156134bd57506000613444565b60008481526003602052604090205460ff16156134dc57506001613444565b82602001516001600160a01b0316600185846000015185602001518660400151604051600081526020016040526040516135199493929190613e3a565b6020604051602081039080840390855afa15801561353b573d6000803e3d6000fd5b505050602060405103516001600160a01b0316141561355c57506001613444565b5060009392505050565b80516020808301516040808501516060860151608087015160a088015160c089015160e08a015195516000996135a0999098979101613c25565b60408051808303601f19018152919052805160209091012092915050565b6000816040516020016135d19190613ce5565b604051602081830303815290604052805190602001209050919050565b80516020808301516040808501516060860151608087015160a088015160c089015160e08a015195516000996135a0999098979101613bd2565b600061237483836040518060400160405280601e81526020017f536166654d6174683a207375627472616374696f6e206f766572666c6f7700008152506136e6565b60008261367957506000612377565b8282028284828161368657fe5b04146123745760405162461bcd60e51b815260040161077e906142ec565b600061237483836040518060400160405280601a81526020017f536166654d6174683a206469766973696f6e206279207a65726f000000000000815250613712565b6000818484111561370a5760405162461bcd60e51b815260040161077e9190613e58565b505050900390565b600081836137335760405162461bcd60e51b815260040161077e9190613e58565b50600083858161373f57fe5b0495945050505050565b80356123778161497b565b6000610100808385031215613767578182fd5b61377081614948565b9150508135815260208201356137858161497b565b602082015260408201356137988161497b565b80604083015250606082013560608201526080820135608082015260a082013560a082015260c082013560c082015260e082013560e082015292915050565b60006101008083850312156137ea578182fd5b6137f381614948565b9150508135815260208201356138088161497b565b6020820152604082013561381b8161497b565b604082015261382d8360608401613749565b60608201526080820135608082015260a082013560a082015260c082013560c082015260e082013560e082015292915050565b600060608284031215613871578081fd5b61387b6060614948565b9050813560ff8116811461388e57600080fd5b80825250602082013560208201526040820135604082015292915050565b6000602082840312156138bd578081fd5b81356123748161497b565b6000602082840312156138d9578081fd5b81518015158114612374578182fd5b6000602082840312156138f9578081fd5b5035919050565b60008060408385031215613912578081fd5b8235915060208084013567ffffffffffffffff80821115613931578384fd5b81860187601f820112613942578485fd5b8035925081831115613952578485fd5b613964601f8401601f19168501614948565b91508282528784848301011115613979578485fd5b8284820185840137509081019091019190915290939092509050565b600061010082840312156139a7578081fd5b6123748383613754565b60008061016083850312156139c4578182fd5b6139ce8484613754565b91506139de846101008501613860565b90509250929050565b600061010082840312156139f9578081fd5b61237483836137d7565b6000806102008385031215613a16578182fd5b613a2084846137d7565b91506139de846101008501613754565b60008060006102208486031215613a45578081fd5b613a4f85856137d7565b9250613a5f856101008601613754565b915061020084013590509250925092565b6000806000806102c08587031215613a86578081fd5b613a9086866137d7565b9350613aa0866101008701613860565b9250613ab0866101608701613754565b9150613ac0866102608701613860565b905092959194509250565b600060208284031215613adc578081fd5b5051919050565b60008060408385031215613af5578182fd5b50508035926020909101359150565b60008151808452815b81811015613b2957602081850181015186830182015201613b0d565b81811115613b3a5782602083870101525b50601f01601f19169290920160200192915050565b60008154600180821660008114613b6d5760018114613b8b57613bc9565b60028304607f16865260ff1983166020870152604086019350613bc9565b60028304808752613b9b8661496f565b60005b82811015613bbf5781546020828b0101528482019150602081019050613b9e565b8801602001955050505b50505092915050565b9788526bffffffffffffffffffffffff19606097881b811660208a015295871b861660348901529390951b9093166048860152605c850152607c840191909152609c83019190915260bc82015260dc0190565b9788526bffffffffffffffffffffffff19606097881b811660208a01529590961b909416603487015260488601929092526068850152608884015260a883015260c882015260e80190565b6000808454600180821660008114613c8f5760018114613ca657613cd5565b60ff198316865260028304607f1686019350613cd5565b600283048886526020808720875b83811015613ccd5781548a820152908501908201613cb4565b505050860193505b5050509283525050602001919050565b7f19457468657265756d205369676e6564204d6573736167653a0a3332000000008152601c810191909152603c0190565b90565b6001600160a01b0391909116815260200190565b6001600160a01b03978816815295871660208701529390951660408501526060840191909152608083015260a082019290925260c081019190915260e00190565b6001600160a01b038c811682528b81166020830152604082018b9052891660608201526080810188905260a08101879052610160810160038710613dae57fe5b8660c08301528560e0830152846101008301528361012083015260058310613dd257fe5b826101408301529c9b505050505050505050505050565b6001600160a01b039384168152919092166020820152604081019190915260600190565b6001600160a01b03929092168252602082015260400190565b901515815260200190565b90815260200190565b93845260ff9290921660208401526040830152606082015260800190565b6000602082526123746020830184613b04565b6000602082526123746020830184613b4f565b6020810160028310613e8c57fe5b91905290565b6020808252601c908201527f596f7520646f6e2774206861766520656e6f67687420746f6b656e7300000000604082015260600190565b60208082526021908201527f446973707574652068617320616c7265616479206265656e20637265617465646040820152601760f91b606082015260800190565b60208082526026908201527f54686520646973707574652068617320616c7265616479206265656e2072657360408201526537b63b32b21760d11b606082015260800190565b60208082526010908201526f105b1c9958591e48185c1c1c9bdd995960821b604082015260600190565b60208082526032908201527f4d757374206e6f742073656e642065766964656e63652069662074686520646960408201527139b83aba329034b9903932b9b7b63b32b21760711b606082015260800190565b602080825260159082015274131a5cdd1a5b99c81a5cdb89dd0818dbdc9c9958dd605a1b604082015260600190565b60208082526026908201527f4f776e61626c653a206e6577206f776e657220697320746865207a65726f206160408201526564647265737360d01b606082015260800190565b6020808252818101527f54696d656f75742074696d6520686173206e6f7420706173736564207965742e604082015260600190565b6020808252600f908201526e24b73b30b634b210393ab634b7339760891b604082015260600190565b6020808252601b908201527f536166654d6174683a206164646974696f6e206f766572666c6f770000000000604082015260600190565b6020808252601c908201527f57617272616e74792074696d65206861732074696d6564206f75742e00000000604082015260600190565b6020808252600d908201526c496e76616c696420706861736560981b604082015260600190565b60208082526031908201527f5468652070726f7365637574696f6e20666565206d75737420636f7665722061604082015270393134ba3930ba34b7b71031b7b9ba399760791b606082015260800190565b6020808252601e908201527f596f75206d75737420626520746865206c697374696e672073656c6c65720000604082015260600190565b6020808252601b908201527f596f7520646f6e2774206861766520656e6f6768742066756e64730000000000604082015260600190565b60208082526025908201527f44697370757465206973206e6f742077616974696e6720666f7220616e79207060408201526430b93a3c9760d91b606082015260800190565b60208082526026908201527f54686520607472616e73666572602066756e6374696f6e206d757374206e6f74604082015265103330b4b61760d11b606082015260800190565b60208082526017908201527f4f6e6c792062757965722063616e20646973707574652e000000000000000000604082015260600190565b60208082526018908201527f4f6e6c792073656c6c65722063616e20646973707574652e0000000000000000604082015260600190565b60208082526021908201527f536166654d6174683a206d756c7469706c69636174696f6e206f766572666c6f6040820152607760f81b606082015260800190565b60208082526021908201527f4c697374696e672068617320616c7265616479206265656e207265706f7274656040820152601960fa1b606082015260800190565b6020808252818101527f4f776e61626c653a2063616c6c6572206973206e6f7420746865206f776e6572604082015260600190565b6020808252601a908201527f53656e646572206973206e6f74206f72646572207369676e6572000000000000604082015260600190565b6020808252601e908201527f5468652063616c6c6572206d757374206265207468652073656e6465722e0000604082015260600190565b60208082526023908201527f526566756e642063616e27742062652067726561746572207468616e20746f7460408201526230b61760e91b606082015260800190565b6020808252818101527f436f6e6669726d6174696f6e2074696d65206861732074696d6564206f75742e604082015260600190565b6020808252601c908201527f53656e646572206973206e6f74206c697374696e67207369676e657200000000604082015260600190565b6020808252602f908201527f45766964656e63657320617265206f6e6c7920616c6c6f77656420666f72206f60408201526e393232b939903234b9b83aba32b99760891b606082015260800190565b60208082526027908201527f596f7520617265206e6f7420616c6c6f77656420746f207265706f7274206c6960408201526639ba34b733b99760c91b606082015260800190565b6020808252602a908201527f56616c7565206d7573742062652067726561746572207468616e2061726269746040820152691c985d1a5bdb90dbdcdd60b21b606082015260800190565b6020808252602f908201527f596f75206d7573742062652073656c6c6572206f7220627579657220696e207460408201526e3432903934b3b43a10383430b9b29760891b606082015260800190565b6020808252600d908201526c24b73b30b634b21037b93232b960991b604082015260600190565b6020808252602d908201527f41707065616c7320617265206f6e6c7920616c6c6f77656420666f72206f726460408201526c32b939903234b9b83aba32b99760991b606082015260800190565b6020808252601190820152702cb7ba9036bab9ba10313290313abcb2b960791b604082015260600190565b6020808252818101527f4f7264657220616c726561647920686173206265656e2070726f636573736564604082015260600190565b60208082526022908201527f5468652063616c6c6572206d757374206265207468652061726269747261746f604082015261391760f11b606082015260800190565b60208082526021908201527f4661696c656420746f207472616e7366657220627579657227732066756e64736040820152601760f91b606082015260800190565b60208082526019908201527f556e61626c6520746f207472616e7366657220746f6b656e7300000000000000604082015260600190565b6020808252600f908201526e496e76616c6964206c697374696e6760881b604082015260600190565b60208082526034908201527f5468652063616c6c6572206d757374206265207468652070726f73656375746960408201527337b71037b9103a3432903232b332b73230b73a1760611b606082015260800190565b6020808252602e908201527f596f752063616e2774207265706f727420796f757273656c662e20557365206360408201526d616e63656c4c697374696e67282960901b606082015260800190565b6000838252604060208301526148616040830184613b4f565b949350505050565b918252602082015260400190565b83815260208101839052606081016006831061488f57fe5b826040830152949350505050565b9283526020830191909152604082015260600190565b60006040820160ff8516835260206040818501528285546001808216600081146148e457600181146149025761493a565b60028304607f16865260ff198316606089015260808801935061493a565b600283048087526149128a61496f565b885b828110156149305781548b820160600152908401908701614914565b8a01606001955050505b509198975050505050505050565b60405181810167ffffffffffffffff8111828210171561496757600080fd5b604052919050565b60009081526020902090565b6001600160a01b038116811461499057600080fd5b5056fea2646970667358221220ed3252b77233af253008efa3ddefb46c5182ae2fee016d78aa4ccbb5717cf9aa64736f6c63430006080033",
  "immutableReferences": {},
  "source": "// SPDX-License-Identifier: MIT\npragma solidity ^0.6.0;\npragma experimental ABIEncoderV2;\n\nimport \"../arbitration/Arbitrator.sol\";\nimport \"../arbitration/IArbitrable.sol\";\n\nimport \"../token/ERC20Burnable.sol\";\n\nimport \"../utils/Ownable.sol\";\n\n\ncontract Dagora is IArbitrable, Ownable {\n    /* 2 decimal plates for percentage */\n    uint256 public constant INVERSE_BASIS_POINT = 10000;\n\n    uint8 constant AMOUNT_OF_CHOICES = 2;\n\n    enum Party {Prosecution, Defendant}\n    enum DisputeType {None, Report, Order}\n    enum RulingOptions {NoRuling, ProsecutionWins, DefendantWins}\n    enum DisputeStatus {\n        NoDispute,\n        WaitingProsecution,\n        WaitingDefendant,\n        DisputeCreated,\n        Resolved\n    }\n    enum Status {\n        NoTransaction,\n        WaitingConfirmation,\n        Warranty,\n        WarrantyConfirmation,\n        InDispute,\n        Finalized\n    }\n\n    struct Listing {\n        bytes32 ipfsHash;\n        address payable seller;\n        address payable stakeOwner;\n        uint256 stakedAmount;\n        uint256 commissionPercentage; /* two decimal places */\n        uint256 warranty; /* In days */\n        uint256 cashbackPercentage; /* two decimal places */\n        uint256 expiration;\n    }\n\n    struct Order {\n        bytes32 listingHash;\n        address payable buyer;\n        address payable commissioner;\n        ERC20 token;\n        uint256 total;\n        uint256 shippingCost;\n        uint256 expiration;\n        uint256 confirmationTimeout; /* In days */\n    }\n\n    struct Transaction {\n        /* Keep track of status update */\n        uint256 lastStatusUpdate;\n        /* Refund the seller can give */\n        uint256 refund;\n        /* Current status */\n        Status status;\n    }\n\n    struct Seller {\n        // The amount of tokens the contract holds for this seller.\n        uint256 balance;\n        /* Total number of tokens the seller can loose in disputes they are.\n         * Those tokens are locked. Note that we can have lockedTokens > balance but it should\n         * be statistically unlikely and does not pose issues.*/\n        uint256 lockedTokens;\n        uint256 blackListExpire;\n    }\n\n    /* An ECDSA signature. */\n    struct Sig {\n        /* v parameter */\n        uint8 v;\n        /* r parameter */\n        bytes32 r;\n        /* s parameter */\n        bytes32 s;\n    }\n\n    struct RunningDispute {\n        address payable prosecution;\n        address payable defendant;\n        uint256 amount;\n        ERC20 token;\n        uint256 prosecutionFee;\n        uint256 defendantFee;\n        DisputeType disputeType;\n        uint256 lastInteraction;\n        uint256 metaEvidenceId;\n        uint256 disputeId;\n        DisputeStatus status;\n    }\n\n    event TokenGranted(address indexed addr);\n    event TokenRevoked(address indexed addr);\n\n    event TokenDeposited(address indexed sender, uint256 value);\n    event TokenWithdrawed(address indexed sender, uint256 value);\n\n    event ListingApproved(bytes32 indexed hash);\n    event ListingCancelled(bytes32 indexed hash);\n\n    event OrderApproved(bytes32 indexed hash);\n    event OrderCancelled(bytes32 indexed hash);\n\n    event TransactionCreated(\n        bytes32 indexed hash,\n        address indexed buyer,\n        address indexed seller,\n        address stakeOwner,\n        address commissioner,\n        ERC20 token,\n        uint256 total,\n        uint256 commissionPercentage,\n        uint256 cashbackPercentage,\n        uint256 confirmationTimeout\n    );\n\n    event TransactionRefunded(bytes32 indexed hash, uint256 value);\n    event TransactionFinalized(bytes32 indexed hash);\n\n    event WarrantyClaimed(bytes32 indexed hash);\n\n    event HasToPayFee(bytes32 indexed _hash, Party _party);\n\n    mapping(address => Seller) public sellers;\n    /* Cancelled / finalized listings and orders, by hash. */\n    mapping(bytes32 => bool) public cancelledOrFinalized;\n    /* Orders and listings verified by on-chain approval (alternative to ECDSA\n     * signatures so that smart contracts can place orders and listings\n     * directly). */\n    mapping(bytes32 => bool) public approvedHashes;\n\n    mapping(bytes32 => Transaction) public transactions; // Listing Hash to Dispute\n\n    mapping(bytes32 => RunningDispute) public disputes; // Listing Hash to Dispute\n    mapping(uint256 => bytes32) public disputeIDtoHash;\n\n    Arbitrator public arbitrator; // Address of the arbitrator contract.\n    bytes public reportExtraData; // Extra data to set up the arbitration.\n    bytes public orderExtraData; // Extra data to set up the arbitration.\n    uint256 public blackListTimeout;\n    uint256 public feeTimeout;\n    /* Time in seconds a party can take to pay arbitration\n     * fees before being considered unresponding and lose the dispute.*/\n\n    mapping(address => bool) public contracts;\n\n    ERC20Burnable public marketToken;\n    uint256 public metaEvidenceCount;\n    string public ipfsDomain;\n\n    uint256 public protocolFeePercentage;\n    uint256 public tokenOwnerFeePercentage;\n    address public protocolFeeRecipient;\n\n    constructor(\n        address _arbitrator,\n        address _token,\n        address _protocolFeeRecipient,\n        uint256 _feeTimeoutDays,\n        uint256 _blacklistTimeoutDays,\n        uint256 _protocolFeePercentage,\n        uint256 _tokenOwnerFeePercentage,\n        bytes memory _reportExtraData,\n        bytes memory _orderExtraData,\n        string memory _ipfsDomain\n    ) public Ownable() {\n        arbitrator = Arbitrator(_arbitrator);\n        marketToken = ERC20Burnable(_token);\n        protocolFeeRecipient = _protocolFeeRecipient;\n        feeTimeout = _feeTimeoutDays * (1 days);\n        blackListTimeout = _blacklistTimeoutDays * (1 days);\n        protocolFeePercentage = _protocolFeePercentage;\n        tokenOwnerFeePercentage = _tokenOwnerFeePercentage;\n        reportExtraData = _reportExtraData;\n        orderExtraData = _orderExtraData;\n        ipfsDomain = _ipfsDomain;\n    }\n\n    function grantAuthentication(address addr) public onlyOwner {\n        require(!contracts[addr]);\n        contracts[addr] = true;\n        emit TokenGranted(addr);\n    }\n\n    function revokeAuthentication(address addr) public onlyOwner {\n        contracts[addr] = false;\n        emit TokenRevoked(addr);\n    }\n\n    function depositTokens(uint256 value) public {\n        require(marketToken.transferFrom(msg.sender, address(this), value));\n        sellers[msg.sender].balance += value;\n        emit TokenDeposited(msg.sender, value);\n    }\n\n    function withdrawTokens(uint256 value) public {\n        Seller storage seller = sellers[msg.sender];\n        require(\n            seller.balance - seller.lockedTokens >= value,\n            \"You don't have enoght tokens\"\n        );\n        require(marketToken.transferFrom(msg.sender, address(this), value));\n        sellers[msg.sender].balance -= value;\n        emit TokenWithdrawed(msg.sender, value);\n    }\n\n    function approveListing(Listing memory _listing) public returns (bool) {\n        /* CHECKS */\n        /* Assert sender is authorized to approve listing. */\n        require(\n            msg.sender == _listing.stakeOwner,\n            \"Sender is not listing signer\"\n        );\n        require(\n            sellers[msg.sender].balance >= _listing.stakedAmount,\n            \"You don't have enoght funds\"\n        );\n        /* Calculate listing hash. */\n        bytes32 hash = hashListingToSign(_listing);\n        /* Assert listing has not already been approved. */\n        require(!approvedHashes[hash], \"Already approved\");\n        /* EFFECTS */\n        /* Mark listing as approved. */\n        approvedHashes[hash] = true;\n        emit ListingApproved(hash);\n        return true;\n    }\n\n    function cancelListing(Listing memory _listing, Sig memory sig) internal {\n        /* CHECKS */\n        /* Calculate listing hash. */\n        bytes32 hash = requireValidListing(_listing, sig);\n\n        /* Assert sender is authorized to cancel listing. */\n        require(\n            msg.sender == _listing.stakeOwner || msg.sender == _listing.seller\n        );\n\n        /* EFFECTS */\n\n        /* Mark listing as cancelled, preventing it from being matched. */\n        cancelledOrFinalized[hash] = true;\n\n        /* Log cancel event. */\n        emit ListingCancelled(hash);\n    }\n\n    function approveOrder(Order memory order) public returns (bool) {\n        /* CHECKS */\n        /* Assert sender is authorized to approve listing. */\n        require(msg.sender == order.buyer, \"Sender is not order signer\");\n        /* Calculate listing hash. */\n        bytes32 hash = hashOrderToSign(order);\n        /* Assert listing has not already been approved. */\n        require(!approvedHashes[hash], \"Already approved\");\n        /* EFFECTS */\n        /* Mark order as approved. */\n        approvedHashes[hash] = true;\n\n        emit OrderApproved(hash);\n        return true;\n    }\n\n    function cancelOrder(Order memory order, Sig memory sig) internal {\n        /* CHECKS */\n\n        /* Calculate listing hash. */\n        bytes32 hash = requireValidOrder(order, sig);\n\n        /* Assert sender is authorized to cancel listing. */\n        require(msg.sender == order.buyer);\n\n        /* EFFECTS */\n\n        /* Mark listing as cancelled, preventing it from being matched. */\n        cancelledOrFinalized[hash] = true;\n\n        /* Log cancel event. */\n        emit OrderCancelled(hash);\n    }\n\n    function createTransaction(\n        Order memory _order,\n        Sig memory orderSig,\n        Listing memory _listing,\n        Sig memory listingSig\n    ) public returns (bytes32 hash) {\n        require(\n            _order.listingHash == requireValidListing(_listing, listingSig),\n            \"Listing isn't correct\"\n        );\n        hash = requireValidOrder(_order, orderSig);\n        require(\n            transactions[hash].status == Status.NoTransaction,\n            \"Order already has been processed\"\n        );\n        uint256 amount = _order.total + _order.shippingCost;\n        require(\n            _order.token.transferFrom(_order.buyer, address(this), amount),\n            \"Failed to transfer buyer's funds.\"\n        );\n        transactions[hash].lastStatusUpdate = now;\n        transactions[hash].status = Status.WaitingConfirmation;\n        emit TransactionCreated(\n            hash,\n            _order.buyer,\n            _listing.seller,\n            _listing.stakeOwner,\n            _order.commissioner,\n            _order.token,\n            amount,\n            _listing.commissionPercentage,\n            _listing.cashbackPercentage,\n            _order.confirmationTimeout\n        );\n    }\n\n    function confirmReceipt(Order memory _order, Listing memory _listing)\n        public\n    {\n        require(\n            _order.listingHash == hashListingToSign(_listing),\n            \"Listing isn't correct\"\n        );\n        bytes32 hash = hashOrderToSign(_order);\n        require(\n            (transactions[hash].status == Status.WaitingConfirmation &&\n                msg.sender == _order.buyer) ||\n                (transactions[hash].status == Status.WarrantyConfirmation &&\n                    msg.sender == _listing.seller),\n            \"You must be seller or buyer in the right phase.\"\n        );\n        if (transactions[hash].refund == 0 && _listing.warranty > 0) {\n            transactions[hash].status = Status.Warranty;\n            transactions[hash].lastStatusUpdate = now;\n        } else {\n            uint256 total = SafeMath.add(_order.total, _order.shippingCost);\n            finalizeTransaction(\n                hash,\n                _order.buyer,\n                _listing.seller,\n                _order.commissioner,\n                _listing.stakeOwner,\n                _order.token,\n                total,\n                transactions[hash].refund,\n                _listing.commissionPercentage,\n                _listing.cashbackPercentage\n            );\n        }\n    }\n\n    function executeTransaction(Order memory _order, Listing memory _listing)\n        public\n    {\n        require(\n            _order.listingHash == hashListingToSign(_listing),\n            \"Listing isn't correct\"\n        );\n        bytes32 hash = hashOrderToSign(_order);\n        Transaction storage transaction = transactions[hash];\n        require(\n            transaction.status == Status.WaitingConfirmation ||\n                transaction.status == Status.Warranty ||\n                transaction.status == Status.WarrantyConfirmation,\n            \"Invalid phase\"\n        );\n        uint256 cashbackPercentage = 0;\n        if (\n            transaction.status == Status.WaitingConfirmation ||\n            transaction.status == Status.WarrantyConfirmation\n        ) {\n            require(\n                transaction.lastStatusUpdate +\n                    (_order.confirmationTimeout * (1 days)) >\n                    now,\n                \"Timeout time has not passed yet.\"\n            );\n        } else {\n            require(\n                transaction.lastStatusUpdate + (_listing.warranty * (1 days)) >\n                    now,\n                \"Timeout time has not passed yet.\"\n            );\n            cashbackPercentage = _listing.cashbackPercentage;\n        }\n        uint256 total = SafeMath.add(_order.total, _order.shippingCost);\n        finalizeTransaction(\n            hash,\n            _order.buyer,\n            _listing.seller,\n            _order.commissioner,\n            _listing.stakeOwner,\n            _order.token,\n            total,\n            transaction.refund,\n            _listing.commissionPercentage,\n            cashbackPercentage\n        );\n    }\n\n    function finalizeTransaction(\n        bytes32 hash,\n        address buyer,\n        address seller,\n        address commissioner,\n        address stakeHolder,\n        ERC20 token,\n        uint256 total,\n        uint256 refund,\n        uint256 commissionPercentage,\n        uint256 cashbackPercentage\n    ) internal {\n        require(address(token) != address(0));\n        require(contracts[address(token)]);\n\n        transactions[hash].status = Status.Finalized;\n        transactions[hash].lastStatusUpdate = now;\n\n        uint256 price = SafeMath.sub(total, refund);\n\n        if (protocolFeePercentage > 0) {\n            uint256 protocolFee = SafeMath.div(\n                SafeMath.mul(protocolFeePercentage, price),\n                INVERSE_BASIS_POINT\n            );\n            price = SafeMath.sub(price, protocolFee);\n            require(token.transfer(protocolFeeRecipient, protocolFee));\n        }\n\n        if (tokenOwnerFeePercentage > 0 && seller != stakeHolder) {\n            uint256 stakeOwnerFee = SafeMath.div(\n                SafeMath.mul(tokenOwnerFeePercentage, price),\n                INVERSE_BASIS_POINT\n            );\n            price = SafeMath.sub(price, stakeOwnerFee);\n            require(token.transfer(stakeHolder, stakeOwnerFee));\n        }\n\n        if (commissionPercentage > 0 && commissioner != address(0x0)) {\n            uint256 commissionFee = SafeMath.div(\n                SafeMath.mul(commissionPercentage, price),\n                INVERSE_BASIS_POINT\n            );\n            price = SafeMath.sub(price, commissionFee);\n            require(token.transfer(commissioner, commissionFee));\n        }\n\n        if (cashbackPercentage > 0) {\n            uint256 cashback = SafeMath.div(\n                SafeMath.mul(cashbackPercentage, price),\n                INVERSE_BASIS_POINT\n            );\n            price = SafeMath.sub(price, cashback);\n            require(token.transfer(buyer, cashback + refund));\n        }\n\n        if (price > 0) require(token.transfer(seller, price));\n        emit TransactionFinalized(hash);\n    }\n\n    function claimWarranty(Order memory _order, Listing memory _listing)\n        public\n    {\n        require(\n            _order.listingHash == hashListingToSign(_listing),\n            \"Listing isn't correct\"\n        );\n        bytes32 hash = hashOrderToSign(_order);\n        Transaction storage transaction = transactions[hash];\n        require(transaction.status == Status.Warranty, \"Invalid phase\");\n        require(msg.sender == _order.buyer, \"You must be buyer\");\n        require(\n            now <=\n                transaction.lastStatusUpdate + (_listing.warranty * (1 days)),\n            \"Warranty time has timed out.\"\n        );\n\n        transaction.status = Status.WarrantyConfirmation;\n        transaction.refund = _order.total;\n        transaction.lastStatusUpdate = now;\n        emit WarrantyClaimed(hash);\n    }\n\n    function disputeTransaction(Order memory _order, Listing memory _listing)\n        public\n        payable\n        returns (bytes32 hash)\n    {\n        require(\n            _order.listingHash == hashListingToSign(_listing),\n            \"Listing isn't correct\"\n        );\n        hash = hashOrderToSign(_order);\n        Transaction storage transaction = transactions[hash];\n        require(\n            transaction.status == Status.WaitingConfirmation ||\n                transaction.status == Status.WarrantyConfirmation,\n            \"Invalid phase\"\n        );\n        require(\n            now <=\n                transaction.lastStatusUpdate +\n                    (_order.confirmationTimeout * (1 days)),\n            \"Confirmation time has timed out.\"\n        );\n        uint256 arbitrationCost = arbitrator.arbitrationCost(reportExtraData);\n        require(\n            msg.value >= arbitrationCost,\n            \"Value must be greater than arbitrationCost\"\n        );\n        address payable prosecution;\n        address payable defendant;\n        if (transaction.status == Status.WaitingConfirmation) {\n            require(msg.sender == _order.buyer, \"Only buyer can dispute.\");\n            prosecution = _order.buyer;\n            defendant = _listing.seller;\n        } else {\n            require(msg.sender == _listing.seller, \"Only seller can dispute.\");\n            prosecution = _order.buyer;\n            defendant = _listing.seller;\n        }\n        transaction.status = Status.InDispute;\n        transaction.lastStatusUpdate = now;\n        RunningDispute storage dispute = _createDispute(\n            hash,\n            prosecution,\n            defendant,\n            _order.total,\n            _order.token,\n            msg.value,\n            DisputeType.Order\n        );\n        emit MetaEvidence(\n            dispute.metaEvidenceId,\n            string(abi.encodePacked(ipfsDomain, _listing.ipfsHash))\n        );\n    }\n\n    function updateRefund(\n        Order memory _order,\n        Listing memory _listing,\n        uint256 refund\n    ) public {\n        require(\n            _order.listingHash == hashListingToSign(_listing),\n            \"Listing isn't correct\"\n        );\n        require(\n            msg.sender == _listing.seller,\n            \"You must be the listing seller\"\n        );\n        bytes32 hash = hashOrderToSign(_order);\n        Transaction storage transaction = transactions[hash];\n        require(\n            transaction.status == Status.WaitingConfirmation,\n            \"Invalid phase\"\n        );\n        require(\n            now <=\n                transaction.lastStatusUpdate +\n                    (_order.confirmationTimeout * (1 days)),\n            \"Confirmation time has timed out.\"\n        );\n        require(refund <= _order.total, \"Refund can't be greater than total.\");\n        transaction.refund = refund;\n        emit TransactionRefunded(hash, refund);\n    }\n\n    function report(Listing memory _listing, Sig memory sig)\n        public\n        payable\n        returns (bytes32 hash)\n    {\n        /* CHECKS */\n        hash = requireValidListing(_listing, sig);\n        require(\n            disputes[hash].status == DisputeStatus.NoDispute,\n            \"Listing has already been reported\"\n        );\n        require(\n            msg.sender != _listing.stakeOwner,\n            \"You can't report yourself. Use cancelListing()\"\n        );\n        uint256 arbitrationCost = arbitrator.arbitrationCost(reportExtraData);\n        require(\n            msg.value >= arbitrationCost,\n            \"Value must be greater than arbitrationCost\"\n        );\n        Seller storage prosecution = sellers[msg.sender];\n        require(\n            now > prosecution.blackListExpire,\n            \"You are not allowed to report listings.\"\n        );\n        uint256 availableBalance = prosecution.balance -\n            prosecution.lockedTokens;\n        if (availableBalance < _listing.stakedAmount) {\n            require(\n                marketToken.transferFrom(\n                    msg.sender,\n                    address(this),\n                    _listing.stakedAmount - availableBalance\n                ),\n                \"Unable to transfer tokens\"\n            );\n            prosecution.balance += _listing.stakedAmount - availableBalance;\n        }\n        /* EFFECTS */\n\n        Seller storage defendant = sellers[_listing.stakeOwner];\n        prosecution.lockedTokens += _listing.stakedAmount;\n        defendant.lockedTokens += _listing.stakedAmount;\n        RunningDispute storage dispute = _createDispute(\n            hash,\n            msg.sender,\n            _listing.stakeOwner,\n            _listing.stakedAmount,\n            marketToken,\n            msg.value,\n            DisputeType.Report\n        );\n        emit MetaEvidence(\n            dispute.metaEvidenceId,\n            string(abi.encodePacked(ipfsDomain, _listing.ipfsHash))\n        );\n    }\n\n    function _createDispute(\n        bytes32 hash,\n        address payable prosecution,\n        address payable defendant,\n        uint256 amount,\n        ERC20 token,\n        uint256 prosecutionFee,\n        DisputeType disputeType\n    ) internal returns (RunningDispute storage dispute) {\n        dispute = disputes[hash];\n        dispute.prosecution = prosecution;\n        dispute.defendant = defendant;\n        dispute.amount = amount;\n        dispute.prosecutionFee += prosecutionFee;\n        dispute.disputeType = disputeType;\n        /* We know the token is market token, save gas*/\n        if (disputeType == DisputeType.Report) dispute.token = token;\n        dispute.status = DisputeStatus.WaitingDefendant;\n        dispute.lastInteraction = now;\n        dispute.metaEvidenceId = metaEvidenceCount++;\n        emit HasToPayFee(hash, Party.Defendant);\n    }\n\n    function disputeTimeout(bytes32 hash) public {\n        RunningDispute storage dispute = disputes[hash];\n        require(\n            DisputeStatus.NoDispute < dispute.status &&\n                dispute.status < DisputeStatus.DisputeCreated,\n            \"Dispute is not waiting for any party.\"\n        );\n        require(\n            now - dispute.lastInteraction >= feeTimeout,\n            \"Timeout time has not passed yet.\"\n        );\n        bool success;\n        if (dispute.prosecutionFee != 0) {\n            uint256 prosecutionFee = dispute.prosecutionFee;\n            dispute.prosecutionFee = 0;\n            (success, ) = dispute.prosecution.call{value: prosecutionFee}(\"\");\n        }\n        if (dispute.defendantFee != 0) {\n            uint256 defendantFee = dispute.defendantFee;\n            dispute.defendantFee = 0;\n            (success, ) = dispute.defendant.call{value: defendantFee}(\"\");\n        }\n        if (dispute.status == DisputeStatus.WaitingDefendant) {\n            executeReportRuling(\n                dispute,\n                uint256(RulingOptions.ProsecutionWins)\n            );\n        } else {\n            executeReportRuling(dispute, uint256(RulingOptions.DefendantWins));\n        }\n    }\n\n    function payArbitrationFee(bytes32 hash) public payable {\n        RunningDispute storage dispute = disputes[hash];\n        uint256 arbitrationCost = arbitrator.arbitrationCost(reportExtraData);\n        require(\n            DisputeStatus.NoDispute < dispute.status &&\n                dispute.status < DisputeStatus.DisputeCreated,\n            \"Dispute has already been created.\"\n        );\n        require(\n            msg.sender == dispute.prosecution ||\n                msg.sender == dispute.defendant,\n            \"The caller must be the sender.\"\n        );\n\n        if (msg.sender == dispute.prosecution) {\n            dispute.prosecutionFee += msg.value;\n            require(\n                dispute.prosecutionFee >= arbitrationCost,\n                \"The prosecution fee must cover arbitration costs.\"\n            );\n            dispute.lastInteraction = now;\n            if (dispute.defendantFee < arbitrationCost) {\n                dispute.status = DisputeStatus.WaitingDefendant;\n                emit HasToPayFee(hash, Party.Defendant);\n            } else {\n                // The receiver has also paid the fee. We create the dispute.\n                raiseDispute(hash, arbitrationCost);\n            }\n        } else {\n            dispute.defendantFee += msg.value;\n            require(\n                dispute.defendantFee >= arbitrationCost,\n                \"The prosecution fee must cover arbitration costs.\"\n            );\n            dispute.lastInteraction = now;\n            if (dispute.prosecutionFee < arbitrationCost) {\n                dispute.status = DisputeStatus.WaitingProsecution;\n                emit HasToPayFee(hash, Party.Prosecution);\n            } else {\n                // The receiver has also paid the fee. We create the dispute.\n                raiseDispute(hash, arbitrationCost);\n            }\n        }\n    }\n\n    function raiseDispute(bytes32 hash, uint256 _arbitrationCost) internal {\n        RunningDispute storage dispute = disputes[hash];\n        dispute.status = DisputeStatus.DisputeCreated;\n        uint256 disputeId = arbitrator.createDispute{value: _arbitrationCost}(\n            AMOUNT_OF_CHOICES,\n            dispute.disputeType == DisputeType.Order\n                ? orderExtraData\n                : reportExtraData\n        );\n        disputeIDtoHash[disputeId] = hash;\n        emit Dispute(\n            arbitrator,\n            disputeId,\n            dispute.metaEvidenceId,\n            dispute.metaEvidenceId\n        );\n        // Refund sender if it overpaid.\n        bool success;\n        if (dispute.prosecutionFee > _arbitrationCost) {\n            uint256 extraFeeProsecution = dispute.prosecutionFee -\n                _arbitrationCost;\n            dispute.prosecutionFee = _arbitrationCost;\n            (success, ) = dispute.prosecution.call{value: extraFeeProsecution}(\n                \"\"\n            );\n        }\n\n        // Refund receiver if it overpaid.\n        if (dispute.defendantFee > _arbitrationCost) {\n            uint256 extraFeeDefendant = dispute.defendantFee - _arbitrationCost;\n            dispute.defendantFee = _arbitrationCost;\n            (success, ) = dispute.defendant.call{value: extraFeeDefendant}(\"\");\n        }\n    }\n\n    /** @dev Submit a reference to evidence. EVENT.\n     *  @param _hash The hash of the order.\n     *  @param _evidence A link to an evidence using its URI.\n     */\n    function submitEvidence(bytes32 _hash, string memory _evidence) public {\n        RunningDispute storage dispute = disputes[_hash];\n        require(\n            msg.sender == dispute.prosecution ||\n                msg.sender == dispute.defendant,\n            \"The caller must be the prosecution or the defendant.\"\n        );\n        require(\n            dispute.disputeType == DisputeType.Order,\n            \"Evidences are only allowed for orders disputes.\"\n        );\n        require(\n            dispute.status < DisputeStatus.Resolved,\n            \"Must not send evidence if the dispute is resolved.\"\n        );\n\n        emit Evidence(\n            arbitrator,\n            dispute.metaEvidenceId,\n            msg.sender,\n            _evidence\n        );\n    }\n\n    /** @dev Appeal an appealable ruling. UNTRUSTED.\n     *  Transfer the funds to the arbitrator.\n     *  Note that no checks are required as the checks are done by the arbitrator.\n     *  @param _hash The hash of the order.\n     */\n    function appeal(bytes32 _hash) public payable {\n        RunningDispute storage dispute = disputes[_hash];\n        require(\n            dispute.disputeType == DisputeType.Order,\n            \"Appeals are only allowed for orders disputes.\"\n        );\n\n        arbitrator.appeal{value: msg.value}(dispute.disputeId, orderExtraData);\n    }\n\n    function rule(uint256 _disputeID, uint256 _ruling) public override {\n        bytes32 hash = disputeIDtoHash[_disputeID];\n        RunningDispute storage dispute = disputes[hash];\n        require(\n            msg.sender == address(arbitrator),\n            \"The caller must be the arbitrator.\"\n        );\n        require(\n            dispute.status == DisputeStatus.DisputeCreated,\n            \"The dispute has already been resolved.\"\n        );\n        emit Ruling(Arbitrator(msg.sender), _disputeID, _ruling);\n        if (dispute.disputeType == DisputeType.Report) {\n            executeReportRuling(dispute, _ruling);\n        } else {\n            _executeOrderRuling(dispute, _ruling);\n            transactions[hash].status = Status.Finalized;\n        }\n    }\n\n    function _executeOrderRuling(\n        RunningDispute storage dispute,\n        uint256 _ruling\n    ) internal {\n        require(_ruling <= AMOUNT_OF_CHOICES, \"Invalid ruling.\");\n\n        uint256 amount = dispute.amount;\n        uint256 prosecutionFee = dispute.prosecutionFee;\n        uint256 defendantFee = dispute.defendantFee;\n\n        dispute.amount = 0;\n        dispute.prosecutionFee = 0;\n        dispute.defendantFee = 0;\n        dispute.status = DisputeStatus.Resolved;\n        // Give the arbitration fee back.\n        // Note that we use `send` to prevent a party from blocking the execution.\n        bool success = false;\n        if (_ruling == uint256(RulingOptions.ProsecutionWins)) {\n            (success, ) = dispute.prosecution.call{value: prosecutionFee}(\"\");\n            require(\n                dispute.token.transfer(dispute.prosecution, amount),\n                \"The `transfer` function must not fail.\"\n            );\n        } else if (_ruling == uint256(RulingOptions.DefendantWins)) {\n            (success, ) = dispute.defendant.call{value: defendantFee}(\"\");\n            require(\n                dispute.token.transfer(dispute.defendant, amount),\n                \"The `transfer` function must not fail.\"\n            );\n        } else {\n            // `senderFee` and `receiverFee` are equal to the arbitration cost.\n            uint256 splitArbitrationFee = prosecutionFee / 2;\n            /* Give 1 wei more to defendant in case of even number */\n            (success, ) = dispute.defendant.call{\n                value: defendantFee - splitArbitrationFee\n            }(\"\");\n            (success, ) = dispute.prosecution.call{value: splitArbitrationFee}(\n                \"\"\n            );\n            uint256 half = amount / 2;\n            require(\n                dispute.token.transfer(dispute.defendant, amount - half),\n                \"The `transfer` function must not fail.\"\n            );\n            require(\n                dispute.token.transfer(dispute.prosecution, half),\n                \"The `transfer` function must not fail.\"\n            );\n        }\n    }\n\n    function executeReportRuling(\n        RunningDispute storage dispute,\n        uint256 _ruling\n    ) internal {\n        require(_ruling <= AMOUNT_OF_CHOICES, \"Invalid ruling.\");\n\n        uint256 amount = dispute.amount;\n        uint256 prosecutionFee = dispute.prosecutionFee;\n        uint256 defendantFee = dispute.defendantFee;\n\n        dispute.amount = 0;\n        dispute.prosecutionFee = 0;\n        dispute.defendantFee = 0;\n        dispute.status = DisputeStatus.Resolved;\n        sellers[dispute.prosecution].lockedTokens -= dispute.amount;\n        sellers[dispute.defendant].lockedTokens -= dispute.amount;\n        // Give the arbitration fee back.\n        // Note that we use `send` to prevent a party from blocking the execution.\n        bool success = false;\n        if (_ruling == uint256(RulingOptions.ProsecutionWins)) {\n            (success, ) = dispute.prosecution.call{value: prosecutionFee}(\"\");\n            sellers[dispute.defendant].balance -= amount;\n            sellers[dispute.prosecution].balance += amount / 2;\n            marketToken.burn(amount - (amount / 2));\n        } else if (_ruling == uint256(RulingOptions.DefendantWins)) {\n            (success, ) = dispute.defendant.call{value: defendantFee}(\"\");\n            sellers[dispute.prosecution].blackListExpire =\n                now +\n                blackListTimeout;\n            sellers[dispute.prosecution].balance -= amount;\n            sellers[dispute.defendant].balance += amount / 2;\n            marketToken.burn(amount - (amount / 2));\n        } else {\n            // `senderFee` and `receiverFee` are equal to the arbitration cost.\n            uint256 splitArbitrationFee = prosecutionFee / 2;\n            (success, ) = dispute.defendant.call{\n                value: defendantFee - splitArbitrationFee\n            }(\"\");\n            (success, ) = dispute.prosecution.call{value: splitArbitrationFee}(\n                \"\"\n            );\n            // In the case of an uneven token amount, one basic token unit can be burnt.\n            sellers[dispute.prosecution].balance -= amount / 2;\n            sellers[dispute.defendant].balance -= amount / 2;\n        }\n    }\n\n    function validateListing(\n        bytes32 hash,\n        Listing memory _listing,\n        Sig memory sig\n    ) internal view returns (bool) {\n        /* Listing has expired */\n        if (_listing.expiration != 0 && now > _listing.expiration) {\n            return false;\n        }\n\n        /* Stake owner must have enough tokens */\n        Seller storage stakeOwner = sellers[_listing.stakeOwner];\n        if (\n            stakeOwner.balance - stakeOwner.lockedTokens < _listing.stakedAmount\n        ) {\n            return false;\n        }\n\n        /* Listing must have not been canceled or already filled. */\n        if (cancelledOrFinalized[hash]) {\n            return false;\n        }\n\n        /* Listing authentication. Listing must be either:\n        /* (a) previously approved */\n        if (approvedHashes[hash]) {\n            return true;\n        }\n\n        /* or (b) ECDSA-signed by stakeOwner. */\n        if (ecrecover(hash, sig.v, sig.r, sig.s) == _listing.stakeOwner) {\n            return true;\n        }\n\n        return false;\n    }\n\n    function validateOrder(\n        bytes32 hash,\n        Order memory order,\n        Sig memory sig\n    ) internal view returns (bool) {\n        /* Order has expired */\n        if (order.expiration != 0 && now > order.expiration) {\n            return false;\n        }\n\n        /* Token contract must be allowed */\n        if (!contracts[address(order.token)]) {\n            return false;\n        }\n\n        /* Listing must have not been canceled or already filled. */\n        if (cancelledOrFinalized[hash]) {\n            return false;\n        }\n\n        /* Order authentication. Order must be either:\n        /* (a) previously approved */\n        if (approvedHashes[hash]) {\n            return true;\n        }\n\n        /* or (b) ECDSA-signed by buyer. */\n        if (ecrecover(hash, sig.v, sig.r, sig.s) == order.buyer) {\n            return true;\n        }\n\n        return false;\n    }\n\n    function hashListing(Listing memory listing)\n        internal\n        pure\n        returns (bytes32 hash)\n    {\n        hash = keccak256(\n            abi.encodePacked(\n                listing.ipfsHash,\n                listing.seller,\n                listing.stakeOwner,\n                listing.stakedAmount,\n                listing.commissionPercentage,\n                listing.warranty,\n                listing.cashbackPercentage,\n                listing.expiration\n            )\n        );\n        return hash;\n    }\n\n    function hashOrder(Order memory order)\n        internal\n        pure\n        returns (bytes32 hash)\n    {\n        hash = keccak256(\n            abi.encodePacked(\n                order.listingHash,\n                order.buyer,\n                order.commissioner,\n                order.token,\n                order.total,\n                order.shippingCost,\n                order.expiration,\n                order.confirmationTimeout\n            )\n        );\n        return hash;\n    }\n\n    function hashToSign(bytes32 hash) internal pure returns (bytes32) {\n        return\n            keccak256(\n                abi.encodePacked(\"\\x19Ethereum Signed Message:\\n32\", hash)\n            );\n    }\n\n    function hashListingToSign(Listing memory listing)\n        internal\n        pure\n        returns (bytes32)\n    {\n        return hashToSign(hashListing(listing));\n    }\n\n    function hashOrderToSign(Order memory order)\n        internal\n        pure\n        returns (bytes32)\n    {\n        return hashToSign(hashOrder(order));\n    }\n\n    function requireValidListing(Listing memory listing, Sig memory sig)\n        internal\n        view\n        returns (bytes32)\n    {\n        bytes32 hash = hashListingToSign(listing);\n        require(validateListing(hash, listing, sig), \"Invalid listing\");\n        return hash;\n    }\n\n    function requireValidOrder(Order memory order, Sig memory sig)\n        internal\n        view\n        returns (bytes32)\n    {\n        bytes32 hash = hashOrderToSign(order);\n        require(validateOrder(hash, order, sig), \"Invalid order\");\n        return hash;\n    }\n}\n",
  "sourcePath": "/home/gustavo/dagora/contracts/marketplace/Dagora.sol",
  "compiler": {
    "name": "solc",
    "version": "0.6.8+commit.0bbfe453.Emscripten.clang"
  },
  "schemaVersion": "3.2.0",
  "updatedAt": "2020-05-28T06:05:01.226Z",
  "devdoc": {
    "methods": {
      "appeal(bytes32)": {
        "details": "Appeal an appealable ruling. UNTRUSTED. Transfer the funds to the arbitrator. Note that no checks are required as the checks are done by the arbitrator.",
        "params": {
          "_hash": "The hash of the order."
        }
      },
      "owner()": {
        "details": "Returns the address of the current owner."
      },
      "renounceOwnership()": {
        "details": "Leaves the contract without owner. It will not be possible to call `onlyOwner` functions anymore. Can only be called by the current owner.     * NOTE: Renouncing ownership will leave the contract without an owner, thereby removing any functionality that is only available to the owner."
      },
      "submitEvidence(bytes32,string)": {
        "details": "Submit a reference to evidence. EVENT.",
        "params": {
          "_evidence": "A link to an evidence using its URI.",
          "_hash": "The hash of the order."
        }
      },
      "transferOwnership(address)": {
        "details": "Transfers ownership of the contract to a new account (`newOwner`). Can only be called by the current owner."
      }
    }
  },
  "userdoc": {
    "methods": {}
  }
}