{
  "contractName": "EIP712Sig",
  "abi": [
    {
      "inputs": [
        {
          "internalType": "address",
          "name": "verifier",
          "type": "address"
        }
      ],
      "stateMutability": "nonpayable",
      "type": "constructor"
    },
    {
      "inputs": [],
      "name": "CALLDATA_TYPEHASH",
      "outputs": [
        {
          "internalType": "bytes32",
          "name": "",
          "type": "bytes32"
        }
      ],
      "stateMutability": "view",
      "type": "function"
    },
    {
      "inputs": [],
      "name": "DOMAIN_SEPARATOR",
      "outputs": [
        {
          "internalType": "bytes32",
          "name": "",
          "type": "bytes32"
        }
      ],
      "stateMutability": "view",
      "type": "function"
    },
    {
      "inputs": [],
      "name": "EIP712DOMAIN_TYPEHASH",
      "outputs": [
        {
          "internalType": "bytes32",
          "name": "",
          "type": "bytes32"
        }
      ],
      "stateMutability": "view",
      "type": "function"
    },
    {
      "inputs": [],
      "name": "RELAYDATA_TYPEHASH",
      "outputs": [
        {
          "internalType": "bytes32",
          "name": "",
          "type": "bytes32"
        }
      ],
      "stateMutability": "view",
      "type": "function"
    },
    {
      "inputs": [],
      "name": "RELAY_REQUEST_TYPEHASH",
      "outputs": [
        {
          "internalType": "bytes32",
          "name": "",
          "type": "bytes32"
        }
      ],
      "stateMutability": "view",
      "type": "function"
    },
    {
      "inputs": [
        {
          "components": [
            {
              "internalType": "address",
              "name": "target",
              "type": "address"
            },
            {
              "internalType": "bytes",
              "name": "encodedFunction",
              "type": "bytes"
            },
            {
              "components": [
                {
                  "internalType": "uint256",
                  "name": "gasLimit",
                  "type": "uint256"
                },
                {
                  "internalType": "uint256",
                  "name": "gasPrice",
                  "type": "uint256"
                },
                {
                  "internalType": "uint256",
                  "name": "pctRelayFee",
                  "type": "uint256"
                },
                {
                  "internalType": "uint256",
                  "name": "baseRelayFee",
                  "type": "uint256"
                }
              ],
              "internalType": "struct GSNTypes.GasData",
              "name": "gasData",
              "type": "tuple"
            },
            {
              "components": [
                {
                  "internalType": "address",
                  "name": "senderAddress",
                  "type": "address"
                },
                {
                  "internalType": "uint256",
                  "name": "senderNonce",
                  "type": "uint256"
                },
                {
                  "internalType": "address",
                  "name": "relayWorker",
                  "type": "address"
                },
                {
                  "internalType": "address",
                  "name": "paymaster",
                  "type": "address"
                },
                {
                  "internalType": "address",
                  "name": "forwarder",
                  "type": "address"
                }
              ],
              "internalType": "struct GSNTypes.RelayData",
              "name": "relayData",
              "type": "tuple"
            }
          ],
          "internalType": "struct GSNTypes.RelayRequest",
          "name": "req",
          "type": "tuple"
        },
        {
          "internalType": "bytes",
          "name": "signature",
          "type": "bytes"
        }
      ],
      "name": "verify",
      "outputs": [
        {
          "internalType": "bool",
          "name": "",
          "type": "bool"
        }
      ],
      "stateMutability": "view",
      "type": "function"
    }
  ],
  "bytecode": "0x608060405234801561001057600080fd5b506040516109b93803806109b983398101604081905261002f91610119565b6040805160a0810182526017606082019081527f47534e2052656c61796564205472616e73616374696f6e000000000000000000608083015281528151808301835260018152603160f81b6020828101919091528201526001600160a01b038316918101919091526100a0906100a9565b6000555061016b565b60007f91ab3d17e3a50a9d89e63fd30b92be7f5336b03b287bb946787a83a9d62a276682600001518051906020012083602001518051906020012084604001516040516020016100fc9493929190610147565b604051602081830303815290604052805190602001209050919050565b60006020828403121561012a578081fd5b81516001600160a01b0381168114610140578182fd5b9392505050565b938452602084019290925260408301526001600160a01b0316606082015260800190565b61083f8061017a6000396000f3fe608060405234801561001057600080fd5b50600436106100625760003560e01c80633644e515146100675780633fb37abf14610085578063abf0d3f41461008d578063c49f91d314610095578063cc0c62b21461009d578063f2ec77da146100a5575b600080fd5b61006f6100c5565b60405161007c919061062c565b60405180910390f35b61006f6100cb565b61006f6100ef565b61006f610113565b61006f610137565b6100b86100b3366004610508565b61015b565b60405161007c9190610621565b60005481565b7fd4d124fcf2dbb8c7b3fdba71ca7d085e2ef84141e4e237abc2d7e44f336e8dee81565b7fa897280591f702ca07cd3c44de3c7f8ba3df69914ca1e5a87c0cb0341901021881565b7f91ab3d17e3a50a9d89e63fd30b92be7f5336b03b287bb946787a83a9d62a276681565b7f86514b281af3e0c5eba52ca07847d78fcf4a1c55e3e7d84e12281e1e8512fd3581565b60008060005461016a856101c3565b60405160200161017b929190610606565b60408051601f1981840301815291905280516020909101206060850151519091506001600160a01b03166101af8285610242565b6001600160a01b0316149150505b92915050565b60007fa897280591f702ca07cd3c44de3c7f8ba3df69914ca1e5a87c0cb0341901021882600001518360200151805190602001206102048560400151610379565b61021186606001516103c4565b604051602001610225959493929190610635565b604051602081830303815290604052805190602001209050919050565b6000815160411461026e5760405162461bcd60e51b81526004016102659061070f565b60405180910390fd5b60208201516040830151606084015160001a7f7fffffffffffffffffffffffffffffff5d576e7357a4501ddfe92f46681b20a08211156102c05760405162461bcd60e51b815260040161026590610746565b8060ff16601b141580156102d857508060ff16601c14155b156102f55760405162461bcd60e51b815260040161026590610788565b60006001878386866040516000815260200160405260405161031a94939291906106ba565b6020604051602081039080840390855afa15801561033c573d6000803e3d6000fd5b5050604051601f1901519150506001600160a01b03811661036f5760405162461bcd60e51b8152600401610265906106d8565b9695505050505050565b60007fd4d124fcf2dbb8c7b3fdba71ca7d085e2ef84141e4e237abc2d7e44f336e8dee8260000151836020015184604001518560600151604051602001610225959493929190610697565b60007f86514b281af3e0c5eba52ca07847d78fcf4a1c55e3e7d84e12281e1e8512fd358260000151836020015184604001518560600151866080015160405160200161022596959493929190610661565b80356001600160a01b03811681146101bd57600080fd5b600082601f83011261043c578081fd5b813567ffffffffffffffff811115610452578182fd5b610465601f8201601f19166020016107ca565b915080825283602082850101111561047c57600080fd5b8060208401602084013760009082016020015292915050565b600060a082840312156104a6578081fd5b6104b060a06107ca565b905081356104bd816107f1565b81526020828101359082015260408201356104d7816107f1565b604082015260608201356104ea816107f1565b606082015260808201356104fd816107f1565b608082015292915050565b6000806040838503121561051a578182fd5b823567ffffffffffffffff80821115610531578384fd5b90840190818603610160811215610546578485fd5b61055060806107ca565b61055a8885610415565b815260208401358381111561056d578687fd5b6105798982870161042c565b6020830152506080603f1983011215610590578586fd5b61059a60806107ca565b915060408401358252606084013560208301526080840135604083015260a084013560608301528160408201526105d48860c08601610495565b606082015294505060208501359150808211156105ef578283fd5b506105fc8582860161042c565b9150509250929050565b61190160f01b81526002810192909252602282015260420190565b901515815260200190565b90815260200190565b9485526001600160a01b0393909316602085015260408401919091526060830152608082015260a00190565b9586526001600160a01b03948516602087015260408601939093529083166060850152821660808401521660a082015260c00190565b948552602085019390935260408401919091526060830152608082015260a00190565b93845260ff9290921660208401526040830152606082015260800190565b60208082526018908201527f45434453413a20696e76616c6964207369676e61747572650000000000000000604082015260600190565b6020808252601f908201527f45434453413a20696e76616c6964207369676e6174757265206c656e67746800604082015260600190565b60208082526022908201527f45434453413a20696e76616c6964207369676e6174757265202773272076616c604082015261756560f01b606082015260800190565b60208082526022908201527f45434453413a20696e76616c6964207369676e6174757265202776272076616c604082015261756560f01b606082015260800190565b60405181810167ffffffffffffffff811182821017156107e957600080fd5b604052919050565b6001600160a01b038116811461080657600080fd5b5056fea2646970667358221220efb6410cf0a5e693804486686360de2e1bfa31de28e899e20202362fe3d3e1f464736f6c634300060c0033",
  "immutableReferences": {},
  "source": "// SPDX-License-Identifier:MIT\npragma solidity ^0.6.2;\npragma experimental ABIEncoderV2;\n\nimport \"@openzeppelin/contracts/cryptography/ECDSA.sol\";\nimport \"./GSNTypes.sol\";\n\n// https://github.com/ethereum/EIPs/blob/master/assets/eip-712/Example.sol\ncontract EIP712Sig {\n\n    using ECDSA for bytes32;\n\n    struct EIP712Domain {\n        string name;\n        string version;\n//        uint256 chainId;\n        address verifyingContract;\n    }\n\n    bytes32 public constant EIP712DOMAIN_TYPEHASH = keccak256(\n        \"EIP712Domain(string name,string version,address verifyingContract)\"\n    );\n\n    // solhint-disable-next-line max-line-length\n    bytes32 public constant RELAY_REQUEST_TYPEHASH = keccak256(\"RelayRequest(address target,bytes encodedFunction,GasData gasData,RelayData relayData)GasData(uint256 gasLimit,uint256 gasPrice,uint256 pctRelayFee,uint256 baseRelayFee)RelayData(address senderAddress,uint256 senderNonce,address relayWorker,address paymaster,address forwarder)\");\n\n    // solhint-disable-next-line max-line-length\n    bytes32 public constant CALLDATA_TYPEHASH = keccak256(\"GasData(uint256 gasLimit,uint256 gasPrice,uint256 pctRelayFee,uint256 baseRelayFee)\");\n\n    // solhint-disable-next-line max-line-length\n    bytes32 public constant RELAYDATA_TYPEHASH = keccak256(\"RelayData(address senderAddress,uint256 senderNonce,address relayWorker,address paymaster,address forwarder)\");\n\n    // solhint-disable-next-line var-name-mixedcase\n    bytes32 public DOMAIN_SEPARATOR; //not constant - based on chainId\n\n    constructor (address verifier) public {\n        DOMAIN_SEPARATOR = hash(EIP712Domain({\n            name : \"GSN Relayed Transaction\",\n            version : \"1\",\n//            chainId : getChainID(),\n            verifyingContract : verifier\n        }));\n    }\n\n    function hash(EIP712Domain memory eip712Domain) internal pure returns (bytes32) {\n        return keccak256(abi.encode(\n                EIP712DOMAIN_TYPEHASH,\n                keccak256(bytes(eip712Domain.name)),\n                keccak256(bytes(eip712Domain.version)),\n//                eip712Domain.chainId,\n                eip712Domain.verifyingContract\n            ));\n    }\n\n    function hash(GSNTypes.RelayRequest memory req) internal pure returns (bytes32) {\n        return keccak256(abi.encode(\n                RELAY_REQUEST_TYPEHASH,\n                    req.target,\n                    keccak256(req.encodedFunction),\n                    hash(req.gasData),\n                    hash(req.relayData)\n            ));\n    }\n\n    function hash(GSNTypes.GasData memory req) internal pure returns (bytes32) {\n        return keccak256(abi.encode(\n                CALLDATA_TYPEHASH,\n                req.gasLimit,\n                req.gasPrice,\n                req.pctRelayFee,\n                req.baseRelayFee\n            ));\n    }\n\n    function hash(GSNTypes.RelayData memory req) internal pure returns (bytes32) {\n        return keccak256(abi.encode(\n                RELAYDATA_TYPEHASH,\n                req.senderAddress,\n                req.senderNonce,\n                req.relayWorker,\n                req.paymaster,\n                req.forwarder\n            ));\n    }\n\n    function verify(GSNTypes.RelayRequest memory req, bytes memory signature) public view returns (bool) {\n        bytes32 digest = keccak256(abi.encodePacked(\n                \"\\x19\\x01\", DOMAIN_SEPARATOR,\n                hash(req)\n            ));\n        return digest.recover(signature) == req.relayData.senderAddress;\n    }\n\n    function getChainID() internal pure returns (uint256) {\n//        uint256 id;\n//        assembly {\n//            id := chainid()\n//        }\n        return 7;\n    }\n}\n",
  "sourcePath": "@opengsn/gsn/contracts/utils/EIP712Sig.sol",
  "compiler": {
    "name": "solc",
    "version": "0.6.12+commit.27d51765.Emscripten.clang"
  },
  "schemaVersion": "3.2.3",
  "updatedAt": "2020-08-03T14:23:11.861Z",
  "devdoc": {
    "kind": "dev",
    "methods": {},
    "version": 1
  },
  "userdoc": {
    "kind": "user",
    "methods": {},
    "version": 1
  }
}