{
  "contractName": "GSNDagora",
  "abi": [
    {
      "inputs": [
        {
          "internalType": "address",
          "name": "_forwarder",
          "type": "address"
        },
        {
          "internalType": "address",
          "name": "_arbitrator",
          "type": "address"
        },
        {
          "internalType": "address",
          "name": "_token",
          "type": "address"
        },
        {
          "internalType": "address",
          "name": "_protocolFeeRecipient",
          "type": "address"
        },
        {
          "internalType": "uint256",
          "name": "_feeTimeoutDays",
          "type": "uint256"
        },
        {
          "internalType": "uint256",
          "name": "_blacklistTimeoutDays",
          "type": "uint256"
        },
        {
          "internalType": "uint256",
          "name": "_protocolFeePercentage",
          "type": "uint256"
        },
        {
          "internalType": "uint256",
          "name": "_tokenOwnerFeePercentage",
          "type": "uint256"
        },
        {
          "internalType": "bytes",
          "name": "_reportExtraData",
          "type": "bytes"
        },
        {
          "internalType": "bytes",
          "name": "_orderExtraData",
          "type": "bytes"
        },
        {
          "internalType": "string",
          "name": "_ipfsDomain",
          "type": "string"
        }
      ],
      "stateMutability": "nonpayable",
      "type": "constructor"
    },
    {
      "anonymous": false,
      "inputs": [
        {
          "indexed": true,
          "internalType": "contract Arbitrator",
          "name": "_arbitrator",
          "type": "address"
        },
        {
          "indexed": true,
          "internalType": "uint256",
          "name": "_disputeID",
          "type": "uint256"
        },
        {
          "indexed": false,
          "internalType": "uint256",
          "name": "_metaEvidenceID",
          "type": "uint256"
        },
        {
          "indexed": false,
          "internalType": "uint256",
          "name": "_evidenceGroupID",
          "type": "uint256"
        }
      ],
      "name": "Dispute",
      "type": "event"
    },
    {
      "anonymous": false,
      "inputs": [
        {
          "indexed": true,
          "internalType": "contract Arbitrator",
          "name": "_arbitrator",
          "type": "address"
        },
        {
          "indexed": true,
          "internalType": "uint256",
          "name": "_evidenceGroupID",
          "type": "uint256"
        },
        {
          "indexed": true,
          "internalType": "address",
          "name": "_party",
          "type": "address"
        },
        {
          "indexed": false,
          "internalType": "string",
          "name": "_evidence",
          "type": "string"
        }
      ],
      "name": "Evidence",
      "type": "event"
    },
    {
      "anonymous": false,
      "inputs": [
        {
          "indexed": true,
          "internalType": "bytes32",
          "name": "_hash",
          "type": "bytes32"
        },
        {
          "indexed": false,
          "internalType": "enum Dagora.Party",
          "name": "_party",
          "type": "uint8"
        }
      ],
      "name": "HasToPayFee",
      "type": "event"
    },
    {
      "anonymous": false,
      "inputs": [
        {
          "indexed": true,
          "internalType": "bytes32",
          "name": "hash",
          "type": "bytes32"
        }
      ],
      "name": "ListingApproved",
      "type": "event"
    },
    {
      "anonymous": false,
      "inputs": [
        {
          "indexed": true,
          "internalType": "bytes32",
          "name": "hash",
          "type": "bytes32"
        }
      ],
      "name": "ListingCancelled",
      "type": "event"
    },
    {
      "anonymous": false,
      "inputs": [
        {
          "indexed": true,
          "internalType": "uint256",
          "name": "_metaEvidenceID",
          "type": "uint256"
        },
        {
          "indexed": false,
          "internalType": "string",
          "name": "_evidence",
          "type": "string"
        }
      ],
      "name": "MetaEvidence",
      "type": "event"
    },
    {
      "anonymous": false,
      "inputs": [
        {
          "indexed": true,
          "internalType": "bytes32",
          "name": "hash",
          "type": "bytes32"
        }
      ],
      "name": "OrderApproved",
      "type": "event"
    },
    {
      "anonymous": false,
      "inputs": [
        {
          "indexed": true,
          "internalType": "bytes32",
          "name": "hash",
          "type": "bytes32"
        }
      ],
      "name": "OrderCancelled",
      "type": "event"
    },
    {
      "anonymous": false,
      "inputs": [
        {
          "indexed": true,
          "internalType": "address",
          "name": "previousOwner",
          "type": "address"
        },
        {
          "indexed": true,
          "internalType": "address",
          "name": "newOwner",
          "type": "address"
        }
      ],
      "name": "OwnershipTransferred",
      "type": "event"
    },
    {
      "anonymous": false,
      "inputs": [
        {
          "indexed": true,
          "internalType": "contract Arbitrator",
          "name": "_arbitrator",
          "type": "address"
        },
        {
          "indexed": true,
          "internalType": "uint256",
          "name": "_disputeID",
          "type": "uint256"
        },
        {
          "indexed": false,
          "internalType": "uint256",
          "name": "_ruling",
          "type": "uint256"
        }
      ],
      "name": "Ruling",
      "type": "event"
    },
    {
      "anonymous": false,
      "inputs": [
        {
          "indexed": true,
          "internalType": "address",
          "name": "sender",
          "type": "address"
        },
        {
          "indexed": false,
          "internalType": "uint256",
          "name": "value",
          "type": "uint256"
        }
      ],
      "name": "TokenDeposited",
      "type": "event"
    },
    {
      "anonymous": false,
      "inputs": [
        {
          "indexed": true,
          "internalType": "address",
          "name": "addr",
          "type": "address"
        }
      ],
      "name": "TokenGranted",
      "type": "event"
    },
    {
      "anonymous": false,
      "inputs": [
        {
          "indexed": true,
          "internalType": "address",
          "name": "addr",
          "type": "address"
        }
      ],
      "name": "TokenRevoked",
      "type": "event"
    },
    {
      "anonymous": false,
      "inputs": [
        {
          "indexed": true,
          "internalType": "address",
          "name": "sender",
          "type": "address"
        },
        {
          "indexed": false,
          "internalType": "uint256",
          "name": "value",
          "type": "uint256"
        }
      ],
      "name": "TokenWithdrawed",
      "type": "event"
    },
    {
      "anonymous": false,
      "inputs": [
        {
          "indexed": true,
          "internalType": "bytes32",
          "name": "hash",
          "type": "bytes32"
        },
        {
          "indexed": true,
          "internalType": "address",
          "name": "buyer",
          "type": "address"
        },
        {
          "indexed": true,
          "internalType": "address",
          "name": "seller",
          "type": "address"
        },
        {
          "indexed": false,
          "internalType": "address",
          "name": "stakeOwner",
          "type": "address"
        },
        {
          "indexed": false,
          "internalType": "address",
          "name": "commissioner",
          "type": "address"
        },
        {
          "indexed": false,
          "internalType": "contract ERC20",
          "name": "token",
          "type": "address"
        },
        {
          "indexed": false,
          "internalType": "uint256",
          "name": "total",
          "type": "uint256"
        },
        {
          "indexed": false,
          "internalType": "uint256",
          "name": "commissionPercentage",
          "type": "uint256"
        },
        {
          "indexed": false,
          "internalType": "uint256",
          "name": "cashbackPercentage",
          "type": "uint256"
        },
        {
          "indexed": false,
          "internalType": "uint256",
          "name": "confirmationTimeout",
          "type": "uint256"
        }
      ],
      "name": "TransactionCreated",
      "type": "event"
    },
    {
      "anonymous": false,
      "inputs": [
        {
          "indexed": true,
          "internalType": "bytes32",
          "name": "hash",
          "type": "bytes32"
        }
      ],
      "name": "TransactionFinalized",
      "type": "event"
    },
    {
      "anonymous": false,
      "inputs": [
        {
          "indexed": true,
          "internalType": "bytes32",
          "name": "hash",
          "type": "bytes32"
        },
        {
          "indexed": false,
          "internalType": "uint256",
          "name": "value",
          "type": "uint256"
        }
      ],
      "name": "TransactionRefunded",
      "type": "event"
    },
    {
      "anonymous": false,
      "inputs": [
        {
          "indexed": true,
          "internalType": "bytes32",
          "name": "hash",
          "type": "bytes32"
        }
      ],
      "name": "WarrantyClaimed",
      "type": "event"
    },
    {
      "inputs": [],
      "name": "INVERSE_BASIS_POINT",
      "outputs": [
        {
          "internalType": "uint256",
          "name": "",
          "type": "uint256"
        }
      ],
      "stateMutability": "view",
      "type": "function"
    },
    {
      "inputs": [
        {
          "internalType": "bytes32",
          "name": "_hash",
          "type": "bytes32"
        }
      ],
      "name": "appeal",
      "outputs": [],
      "stateMutability": "payable",
      "type": "function"
    },
    {
      "inputs": [
        {
          "components": [
            {
              "internalType": "bytes32",
              "name": "ipfsHash",
              "type": "bytes32"
            },
            {
              "internalType": "address payable",
              "name": "seller",
              "type": "address"
            },
            {
              "internalType": "address payable",
              "name": "stakeOwner",
              "type": "address"
            },
            {
              "internalType": "uint256",
              "name": "stakedAmount",
              "type": "uint256"
            },
            {
              "internalType": "uint256",
              "name": "commissionPercentage",
              "type": "uint256"
            },
            {
              "internalType": "uint256",
              "name": "warranty",
              "type": "uint256"
            },
            {
              "internalType": "uint256",
              "name": "cashbackPercentage",
              "type": "uint256"
            },
            {
              "internalType": "uint256",
              "name": "expiration",
              "type": "uint256"
            }
          ],
          "internalType": "struct Dagora.Listing",
          "name": "_listing",
          "type": "tuple"
        }
      ],
      "name": "approveListing",
      "outputs": [
        {
          "internalType": "bool",
          "name": "",
          "type": "bool"
        }
      ],
      "stateMutability": "nonpayable",
      "type": "function"
    },
    {
      "inputs": [
        {
          "components": [
            {
              "components": [
                {
                  "internalType": "bytes32",
                  "name": "ipfsHash",
                  "type": "bytes32"
                },
                {
                  "internalType": "address payable",
                  "name": "seller",
                  "type": "address"
                },
                {
                  "internalType": "address payable",
                  "name": "stakeOwner",
                  "type": "address"
                },
                {
                  "internalType": "uint256",
                  "name": "stakedAmount",
                  "type": "uint256"
                },
                {
                  "internalType": "uint256",
                  "name": "commissionPercentage",
                  "type": "uint256"
                },
                {
                  "internalType": "uint256",
                  "name": "warranty",
                  "type": "uint256"
                },
                {
                  "internalType": "uint256",
                  "name": "cashbackPercentage",
                  "type": "uint256"
                },
                {
                  "internalType": "uint256",
                  "name": "expiration",
                  "type": "uint256"
                }
              ],
              "internalType": "struct Dagora.Listing",
              "name": "listing",
              "type": "tuple"
            },
            {
              "internalType": "address payable",
              "name": "fundsHolder",
              "type": "address"
            },
            {
              "internalType": "address payable",
              "name": "buyer",
              "type": "address"
            },
            {
              "internalType": "address payable",
              "name": "commissioner",
              "type": "address"
            },
            {
              "internalType": "contract ERC20",
              "name": "token",
              "type": "address"
            },
            {
              "internalType": "uint256",
              "name": "total",
              "type": "uint256"
            },
            {
              "internalType": "uint256",
              "name": "cashback",
              "type": "uint256"
            },
            {
              "internalType": "uint256",
              "name": "commission",
              "type": "uint256"
            },
            {
              "internalType": "uint256",
              "name": "protocolFee",
              "type": "uint256"
            },
            {
              "internalType": "uint256",
              "name": "stakeHolderFee",
              "type": "uint256"
            },
            {
              "internalType": "uint256",
              "name": "expiration",
              "type": "uint256"
            },
            {
              "internalType": "uint256",
              "name": "confirmationTimeout",
              "type": "uint256"
            },
            {
              "internalType": "uint256",
              "name": "timestamp",
              "type": "uint256"
            }
          ],
          "internalType": "struct Dagora.Order",
          "name": "order",
          "type": "tuple"
        }
      ],
      "name": "approveOrder",
      "outputs": [
        {
          "internalType": "bool",
          "name": "",
          "type": "bool"
        }
      ],
      "stateMutability": "nonpayable",
      "type": "function"
    },
    {
      "inputs": [
        {
          "internalType": "bytes32",
          "name": "",
          "type": "bytes32"
        }
      ],
      "name": "approvedHashes",
      "outputs": [
        {
          "internalType": "bool",
          "name": "",
          "type": "bool"
        }
      ],
      "stateMutability": "view",
      "type": "function"
    },
    {
      "inputs": [
        {
          "internalType": "enum Dagora.DisputeType",
          "name": "_type",
          "type": "uint8"
        }
      ],
      "name": "arbitrationCost",
      "outputs": [
        {
          "internalType": "uint256",
          "name": "fee",
          "type": "uint256"
        }
      ],
      "stateMutability": "view",
      "type": "function"
    },
    {
      "inputs": [],
      "name": "arbitrator",
      "outputs": [
        {
          "internalType": "contract Arbitrator",
          "name": "",
          "type": "address"
        }
      ],
      "stateMutability": "view",
      "type": "function"
    },
    {
      "inputs": [
        {
          "components": [
            {
              "components": [
                {
                  "internalType": "bytes32",
                  "name": "ipfsHash",
                  "type": "bytes32"
                },
                {
                  "internalType": "address payable",
                  "name": "seller",
                  "type": "address"
                },
                {
                  "internalType": "address payable",
                  "name": "stakeOwner",
                  "type": "address"
                },
                {
                  "internalType": "uint256",
                  "name": "stakedAmount",
                  "type": "uint256"
                },
                {
                  "internalType": "uint256",
                  "name": "commissionPercentage",
                  "type": "uint256"
                },
                {
                  "internalType": "uint256",
                  "name": "warranty",
                  "type": "uint256"
                },
                {
                  "internalType": "uint256",
                  "name": "cashbackPercentage",
                  "type": "uint256"
                },
                {
                  "internalType": "uint256",
                  "name": "expiration",
                  "type": "uint256"
                }
              ],
              "internalType": "struct Dagora.Listing",
              "name": "listing",
              "type": "tuple"
            },
            {
              "internalType": "address payable",
              "name": "fundsHolder",
              "type": "address"
            },
            {
              "internalType": "address payable",
              "name": "buyer",
              "type": "address"
            },
            {
              "internalType": "address payable",
              "name": "commissioner",
              "type": "address"
            },
            {
              "internalType": "contract ERC20",
              "name": "token",
              "type": "address"
            },
            {
              "internalType": "uint256",
              "name": "total",
              "type": "uint256"
            },
            {
              "internalType": "uint256",
              "name": "cashback",
              "type": "uint256"
            },
            {
              "internalType": "uint256",
              "name": "commission",
              "type": "uint256"
            },
            {
              "internalType": "uint256",
              "name": "protocolFee",
              "type": "uint256"
            },
            {
              "internalType": "uint256",
              "name": "stakeHolderFee",
              "type": "uint256"
            },
            {
              "internalType": "uint256",
              "name": "expiration",
              "type": "uint256"
            },
            {
              "internalType": "uint256",
              "name": "confirmationTimeout",
              "type": "uint256"
            },
            {
              "internalType": "uint256",
              "name": "timestamp",
              "type": "uint256"
            }
          ],
          "internalType": "struct Dagora.Order",
          "name": "_order",
          "type": "tuple"
        }
      ],
      "name": "availableToken",
      "outputs": [
        {
          "internalType": "uint256",
          "name": "",
          "type": "uint256"
        }
      ],
      "stateMutability": "view",
      "type": "function"
    },
    {
      "inputs": [
        {
          "components": [
            {
              "components": [
                {
                  "internalType": "bytes32",
                  "name": "ipfsHash",
                  "type": "bytes32"
                },
                {
                  "internalType": "address payable",
                  "name": "seller",
                  "type": "address"
                },
                {
                  "internalType": "address payable",
                  "name": "stakeOwner",
                  "type": "address"
                },
                {
                  "internalType": "uint256",
                  "name": "stakedAmount",
                  "type": "uint256"
                },
                {
                  "internalType": "uint256",
                  "name": "commissionPercentage",
                  "type": "uint256"
                },
                {
                  "internalType": "uint256",
                  "name": "warranty",
                  "type": "uint256"
                },
                {
                  "internalType": "uint256",
                  "name": "cashbackPercentage",
                  "type": "uint256"
                },
                {
                  "internalType": "uint256",
                  "name": "expiration",
                  "type": "uint256"
                }
              ],
              "internalType": "struct Dagora.Listing",
              "name": "listing",
              "type": "tuple"
            },
            {
              "internalType": "address payable",
              "name": "fundsHolder",
              "type": "address"
            },
            {
              "internalType": "address payable",
              "name": "buyer",
              "type": "address"
            },
            {
              "internalType": "address payable",
              "name": "commissioner",
              "type": "address"
            },
            {
              "internalType": "contract ERC20",
              "name": "token",
              "type": "address"
            },
            {
              "internalType": "uint256",
              "name": "total",
              "type": "uint256"
            },
            {
              "internalType": "uint256",
              "name": "cashback",
              "type": "uint256"
            },
            {
              "internalType": "uint256",
              "name": "commission",
              "type": "uint256"
            },
            {
              "internalType": "uint256",
              "name": "protocolFee",
              "type": "uint256"
            },
            {
              "internalType": "uint256",
              "name": "stakeHolderFee",
              "type": "uint256"
            },
            {
              "internalType": "uint256",
              "name": "expiration",
              "type": "uint256"
            },
            {
              "internalType": "uint256",
              "name": "confirmationTimeout",
              "type": "uint256"
            },
            {
              "internalType": "uint256",
              "name": "timestamp",
              "type": "uint256"
            }
          ],
          "internalType": "struct Dagora.Order[]",
          "name": "orders",
          "type": "tuple[]"
        },
        {
          "components": [
            {
              "internalType": "uint8",
              "name": "v",
              "type": "uint8"
            },
            {
              "internalType": "bytes32",
              "name": "r",
              "type": "bytes32"
            },
            {
              "internalType": "bytes32",
              "name": "s",
              "type": "bytes32"
            }
          ],
          "internalType": "struct Dagora.Sig[]",
          "name": "orderSignatures",
          "type": "tuple[]"
        },
        {
          "components": [
            {
              "internalType": "uint8",
              "name": "v",
              "type": "uint8"
            },
            {
              "internalType": "bytes32",
              "name": "r",
              "type": "bytes32"
            },
            {
              "internalType": "bytes32",
              "name": "s",
              "type": "bytes32"
            }
          ],
          "internalType": "struct Dagora.Sig[]",
          "name": "listingSignatures",
          "type": "tuple[]"
        }
      ],
      "name": "batchCreateTransaction",
      "outputs": [
        {
          "internalType": "bytes32[]",
          "name": "hashes",
          "type": "bytes32[]"
        }
      ],
      "stateMutability": "nonpayable",
      "type": "function"
    },
    {
      "inputs": [
        {
          "components": [
            {
              "components": [
                {
                  "internalType": "bytes32",
                  "name": "ipfsHash",
                  "type": "bytes32"
                },
                {
                  "internalType": "address payable",
                  "name": "seller",
                  "type": "address"
                },
                {
                  "internalType": "address payable",
                  "name": "stakeOwner",
                  "type": "address"
                },
                {
                  "internalType": "uint256",
                  "name": "stakedAmount",
                  "type": "uint256"
                },
                {
                  "internalType": "uint256",
                  "name": "commissionPercentage",
                  "type": "uint256"
                },
                {
                  "internalType": "uint256",
                  "name": "warranty",
                  "type": "uint256"
                },
                {
                  "internalType": "uint256",
                  "name": "cashbackPercentage",
                  "type": "uint256"
                },
                {
                  "internalType": "uint256",
                  "name": "expiration",
                  "type": "uint256"
                }
              ],
              "internalType": "struct Dagora.Listing",
              "name": "listing",
              "type": "tuple"
            },
            {
              "internalType": "address payable",
              "name": "fundsHolder",
              "type": "address"
            },
            {
              "internalType": "address payable",
              "name": "buyer",
              "type": "address"
            },
            {
              "internalType": "address payable",
              "name": "commissioner",
              "type": "address"
            },
            {
              "internalType": "contract ERC20",
              "name": "token",
              "type": "address"
            },
            {
              "internalType": "uint256",
              "name": "total",
              "type": "uint256"
            },
            {
              "internalType": "uint256",
              "name": "cashback",
              "type": "uint256"
            },
            {
              "internalType": "uint256",
              "name": "commission",
              "type": "uint256"
            },
            {
              "internalType": "uint256",
              "name": "protocolFee",
              "type": "uint256"
            },
            {
              "internalType": "uint256",
              "name": "stakeHolderFee",
              "type": "uint256"
            },
            {
              "internalType": "uint256",
              "name": "expiration",
              "type": "uint256"
            },
            {
              "internalType": "uint256",
              "name": "confirmationTimeout",
              "type": "uint256"
            },
            {
              "internalType": "uint256",
              "name": "timestamp",
              "type": "uint256"
            }
          ],
          "internalType": "struct Dagora.Order[]",
          "name": "orders",
          "type": "tuple[]"
        }
      ],
      "name": "batchExecuteTransaction",
      "outputs": [],
      "stateMutability": "nonpayable",
      "type": "function"
    },
    {
      "inputs": [],
      "name": "blackListTimeout",
      "outputs": [
        {
          "internalType": "uint256",
          "name": "",
          "type": "uint256"
        }
      ],
      "stateMutability": "view",
      "type": "function"
    },
    {
      "inputs": [
        {
          "internalType": "bytes32",
          "name": "",
          "type": "bytes32"
        }
      ],
      "name": "cancelledOrFinalized",
      "outputs": [
        {
          "internalType": "bool",
          "name": "",
          "type": "bool"
        }
      ],
      "stateMutability": "view",
      "type": "function"
    },
    {
      "inputs": [
        {
          "components": [
            {
              "components": [
                {
                  "internalType": "bytes32",
                  "name": "ipfsHash",
                  "type": "bytes32"
                },
                {
                  "internalType": "address payable",
                  "name": "seller",
                  "type": "address"
                },
                {
                  "internalType": "address payable",
                  "name": "stakeOwner",
                  "type": "address"
                },
                {
                  "internalType": "uint256",
                  "name": "stakedAmount",
                  "type": "uint256"
                },
                {
                  "internalType": "uint256",
                  "name": "commissionPercentage",
                  "type": "uint256"
                },
                {
                  "internalType": "uint256",
                  "name": "warranty",
                  "type": "uint256"
                },
                {
                  "internalType": "uint256",
                  "name": "cashbackPercentage",
                  "type": "uint256"
                },
                {
                  "internalType": "uint256",
                  "name": "expiration",
                  "type": "uint256"
                }
              ],
              "internalType": "struct Dagora.Listing",
              "name": "listing",
              "type": "tuple"
            },
            {
              "internalType": "address payable",
              "name": "fundsHolder",
              "type": "address"
            },
            {
              "internalType": "address payable",
              "name": "buyer",
              "type": "address"
            },
            {
              "internalType": "address payable",
              "name": "commissioner",
              "type": "address"
            },
            {
              "internalType": "contract ERC20",
              "name": "token",
              "type": "address"
            },
            {
              "internalType": "uint256",
              "name": "total",
              "type": "uint256"
            },
            {
              "internalType": "uint256",
              "name": "cashback",
              "type": "uint256"
            },
            {
              "internalType": "uint256",
              "name": "commission",
              "type": "uint256"
            },
            {
              "internalType": "uint256",
              "name": "protocolFee",
              "type": "uint256"
            },
            {
              "internalType": "uint256",
              "name": "stakeHolderFee",
              "type": "uint256"
            },
            {
              "internalType": "uint256",
              "name": "expiration",
              "type": "uint256"
            },
            {
              "internalType": "uint256",
              "name": "confirmationTimeout",
              "type": "uint256"
            },
            {
              "internalType": "uint256",
              "name": "timestamp",
              "type": "uint256"
            }
          ],
          "internalType": "struct Dagora.Order",
          "name": "_order",
          "type": "tuple"
        },
        {
          "internalType": "uint256",
          "name": "fee",
          "type": "uint256"
        }
      ],
      "name": "chargeGasFee",
      "outputs": [],
      "stateMutability": "nonpayable",
      "type": "function"
    },
    {
      "inputs": [
        {
          "components": [
            {
              "components": [
                {
                  "internalType": "bytes32",
                  "name": "ipfsHash",
                  "type": "bytes32"
                },
                {
                  "internalType": "address payable",
                  "name": "seller",
                  "type": "address"
                },
                {
                  "internalType": "address payable",
                  "name": "stakeOwner",
                  "type": "address"
                },
                {
                  "internalType": "uint256",
                  "name": "stakedAmount",
                  "type": "uint256"
                },
                {
                  "internalType": "uint256",
                  "name": "commissionPercentage",
                  "type": "uint256"
                },
                {
                  "internalType": "uint256",
                  "name": "warranty",
                  "type": "uint256"
                },
                {
                  "internalType": "uint256",
                  "name": "cashbackPercentage",
                  "type": "uint256"
                },
                {
                  "internalType": "uint256",
                  "name": "expiration",
                  "type": "uint256"
                }
              ],
              "internalType": "struct Dagora.Listing",
              "name": "listing",
              "type": "tuple"
            },
            {
              "internalType": "address payable",
              "name": "fundsHolder",
              "type": "address"
            },
            {
              "internalType": "address payable",
              "name": "buyer",
              "type": "address"
            },
            {
              "internalType": "address payable",
              "name": "commissioner",
              "type": "address"
            },
            {
              "internalType": "contract ERC20",
              "name": "token",
              "type": "address"
            },
            {
              "internalType": "uint256",
              "name": "total",
              "type": "uint256"
            },
            {
              "internalType": "uint256",
              "name": "cashback",
              "type": "uint256"
            },
            {
              "internalType": "uint256",
              "name": "commission",
              "type": "uint256"
            },
            {
              "internalType": "uint256",
              "name": "protocolFee",
              "type": "uint256"
            },
            {
              "internalType": "uint256",
              "name": "stakeHolderFee",
              "type": "uint256"
            },
            {
              "internalType": "uint256",
              "name": "expiration",
              "type": "uint256"
            },
            {
              "internalType": "uint256",
              "name": "confirmationTimeout",
              "type": "uint256"
            },
            {
              "internalType": "uint256",
              "name": "timestamp",
              "type": "uint256"
            }
          ],
          "internalType": "struct Dagora.Order",
          "name": "_order",
          "type": "tuple"
        }
      ],
      "name": "claimWarranty",
      "outputs": [],
      "stateMutability": "nonpayable",
      "type": "function"
    },
    {
      "inputs": [
        {
          "components": [
            {
              "components": [
                {
                  "internalType": "bytes32",
                  "name": "ipfsHash",
                  "type": "bytes32"
                },
                {
                  "internalType": "address payable",
                  "name": "seller",
                  "type": "address"
                },
                {
                  "internalType": "address payable",
                  "name": "stakeOwner",
                  "type": "address"
                },
                {
                  "internalType": "uint256",
                  "name": "stakedAmount",
                  "type": "uint256"
                },
                {
                  "internalType": "uint256",
                  "name": "commissionPercentage",
                  "type": "uint256"
                },
                {
                  "internalType": "uint256",
                  "name": "warranty",
                  "type": "uint256"
                },
                {
                  "internalType": "uint256",
                  "name": "cashbackPercentage",
                  "type": "uint256"
                },
                {
                  "internalType": "uint256",
                  "name": "expiration",
                  "type": "uint256"
                }
              ],
              "internalType": "struct Dagora.Listing",
              "name": "listing",
              "type": "tuple"
            },
            {
              "internalType": "address payable",
              "name": "fundsHolder",
              "type": "address"
            },
            {
              "internalType": "address payable",
              "name": "buyer",
              "type": "address"
            },
            {
              "internalType": "address payable",
              "name": "commissioner",
              "type": "address"
            },
            {
              "internalType": "contract ERC20",
              "name": "token",
              "type": "address"
            },
            {
              "internalType": "uint256",
              "name": "total",
              "type": "uint256"
            },
            {
              "internalType": "uint256",
              "name": "cashback",
              "type": "uint256"
            },
            {
              "internalType": "uint256",
              "name": "commission",
              "type": "uint256"
            },
            {
              "internalType": "uint256",
              "name": "protocolFee",
              "type": "uint256"
            },
            {
              "internalType": "uint256",
              "name": "stakeHolderFee",
              "type": "uint256"
            },
            {
              "internalType": "uint256",
              "name": "expiration",
              "type": "uint256"
            },
            {
              "internalType": "uint256",
              "name": "confirmationTimeout",
              "type": "uint256"
            },
            {
              "internalType": "uint256",
              "name": "timestamp",
              "type": "uint256"
            }
          ],
          "internalType": "struct Dagora.Order",
          "name": "_order",
          "type": "tuple"
        }
      ],
      "name": "confirmReceipt",
      "outputs": [],
      "stateMutability": "nonpayable",
      "type": "function"
    },
    {
      "inputs": [
        {
          "internalType": "address",
          "name": "",
          "type": "address"
        }
      ],
      "name": "contracts",
      "outputs": [
        {
          "internalType": "bool",
          "name": "",
          "type": "bool"
        }
      ],
      "stateMutability": "view",
      "type": "function"
    },
    {
      "inputs": [
        {
          "components": [
            {
              "components": [
                {
                  "internalType": "bytes32",
                  "name": "ipfsHash",
                  "type": "bytes32"
                },
                {
                  "internalType": "address payable",
                  "name": "seller",
                  "type": "address"
                },
                {
                  "internalType": "address payable",
                  "name": "stakeOwner",
                  "type": "address"
                },
                {
                  "internalType": "uint256",
                  "name": "stakedAmount",
                  "type": "uint256"
                },
                {
                  "internalType": "uint256",
                  "name": "commissionPercentage",
                  "type": "uint256"
                },
                {
                  "internalType": "uint256",
                  "name": "warranty",
                  "type": "uint256"
                },
                {
                  "internalType": "uint256",
                  "name": "cashbackPercentage",
                  "type": "uint256"
                },
                {
                  "internalType": "uint256",
                  "name": "expiration",
                  "type": "uint256"
                }
              ],
              "internalType": "struct Dagora.Listing",
              "name": "listing",
              "type": "tuple"
            },
            {
              "internalType": "address payable",
              "name": "fundsHolder",
              "type": "address"
            },
            {
              "internalType": "address payable",
              "name": "buyer",
              "type": "address"
            },
            {
              "internalType": "address payable",
              "name": "commissioner",
              "type": "address"
            },
            {
              "internalType": "contract ERC20",
              "name": "token",
              "type": "address"
            },
            {
              "internalType": "uint256",
              "name": "total",
              "type": "uint256"
            },
            {
              "internalType": "uint256",
              "name": "cashback",
              "type": "uint256"
            },
            {
              "internalType": "uint256",
              "name": "commission",
              "type": "uint256"
            },
            {
              "internalType": "uint256",
              "name": "protocolFee",
              "type": "uint256"
            },
            {
              "internalType": "uint256",
              "name": "stakeHolderFee",
              "type": "uint256"
            },
            {
              "internalType": "uint256",
              "name": "expiration",
              "type": "uint256"
            },
            {
              "internalType": "uint256",
              "name": "confirmationTimeout",
              "type": "uint256"
            },
            {
              "internalType": "uint256",
              "name": "timestamp",
              "type": "uint256"
            }
          ],
          "internalType": "struct Dagora.Order",
          "name": "_order",
          "type": "tuple"
        },
        {
          "components": [
            {
              "internalType": "uint8",
              "name": "v",
              "type": "uint8"
            },
            {
              "internalType": "bytes32",
              "name": "r",
              "type": "bytes32"
            },
            {
              "internalType": "bytes32",
              "name": "s",
              "type": "bytes32"
            }
          ],
          "internalType": "struct Dagora.Sig",
          "name": "orderSig",
          "type": "tuple"
        },
        {
          "components": [
            {
              "internalType": "uint8",
              "name": "v",
              "type": "uint8"
            },
            {
              "internalType": "bytes32",
              "name": "r",
              "type": "bytes32"
            },
            {
              "internalType": "bytes32",
              "name": "s",
              "type": "bytes32"
            }
          ],
          "internalType": "struct Dagora.Sig",
          "name": "listingSig",
          "type": "tuple"
        }
      ],
      "name": "createTransaction",
      "outputs": [
        {
          "internalType": "bytes32",
          "name": "hash",
          "type": "bytes32"
        }
      ],
      "stateMutability": "nonpayable",
      "type": "function"
    },
    {
      "inputs": [
        {
          "internalType": "uint256",
          "name": "value",
          "type": "uint256"
        }
      ],
      "name": "depositTokens",
      "outputs": [],
      "stateMutability": "nonpayable",
      "type": "function"
    },
    {
      "inputs": [
        {
          "internalType": "uint256",
          "name": "",
          "type": "uint256"
        }
      ],
      "name": "disputeIDtoHash",
      "outputs": [
        {
          "internalType": "bytes32",
          "name": "",
          "type": "bytes32"
        }
      ],
      "stateMutability": "view",
      "type": "function"
    },
    {
      "inputs": [
        {
          "internalType": "bytes32",
          "name": "hash",
          "type": "bytes32"
        }
      ],
      "name": "disputeTimeout",
      "outputs": [],
      "stateMutability": "nonpayable",
      "type": "function"
    },
    {
      "inputs": [
        {
          "components": [
            {
              "components": [
                {
                  "internalType": "bytes32",
                  "name": "ipfsHash",
                  "type": "bytes32"
                },
                {
                  "internalType": "address payable",
                  "name": "seller",
                  "type": "address"
                },
                {
                  "internalType": "address payable",
                  "name": "stakeOwner",
                  "type": "address"
                },
                {
                  "internalType": "uint256",
                  "name": "stakedAmount",
                  "type": "uint256"
                },
                {
                  "internalType": "uint256",
                  "name": "commissionPercentage",
                  "type": "uint256"
                },
                {
                  "internalType": "uint256",
                  "name": "warranty",
                  "type": "uint256"
                },
                {
                  "internalType": "uint256",
                  "name": "cashbackPercentage",
                  "type": "uint256"
                },
                {
                  "internalType": "uint256",
                  "name": "expiration",
                  "type": "uint256"
                }
              ],
              "internalType": "struct Dagora.Listing",
              "name": "listing",
              "type": "tuple"
            },
            {
              "internalType": "address payable",
              "name": "fundsHolder",
              "type": "address"
            },
            {
              "internalType": "address payable",
              "name": "buyer",
              "type": "address"
            },
            {
              "internalType": "address payable",
              "name": "commissioner",
              "type": "address"
            },
            {
              "internalType": "contract ERC20",
              "name": "token",
              "type": "address"
            },
            {
              "internalType": "uint256",
              "name": "total",
              "type": "uint256"
            },
            {
              "internalType": "uint256",
              "name": "cashback",
              "type": "uint256"
            },
            {
              "internalType": "uint256",
              "name": "commission",
              "type": "uint256"
            },
            {
              "internalType": "uint256",
              "name": "protocolFee",
              "type": "uint256"
            },
            {
              "internalType": "uint256",
              "name": "stakeHolderFee",
              "type": "uint256"
            },
            {
              "internalType": "uint256",
              "name": "expiration",
              "type": "uint256"
            },
            {
              "internalType": "uint256",
              "name": "confirmationTimeout",
              "type": "uint256"
            },
            {
              "internalType": "uint256",
              "name": "timestamp",
              "type": "uint256"
            }
          ],
          "internalType": "struct Dagora.Order",
          "name": "_order",
          "type": "tuple"
        }
      ],
      "name": "disputeTransaction",
      "outputs": [
        {
          "internalType": "bytes32",
          "name": "hash",
          "type": "bytes32"
        }
      ],
      "stateMutability": "payable",
      "type": "function"
    },
    {
      "inputs": [
        {
          "internalType": "bytes32",
          "name": "",
          "type": "bytes32"
        }
      ],
      "name": "disputes",
      "outputs": [
        {
          "internalType": "address payable",
          "name": "prosecution",
          "type": "address"
        },
        {
          "internalType": "address payable",
          "name": "defendant",
          "type": "address"
        },
        {
          "internalType": "uint256",
          "name": "amount",
          "type": "uint256"
        },
        {
          "internalType": "contract ERC20",
          "name": "token",
          "type": "address"
        },
        {
          "internalType": "uint256",
          "name": "prosecutionFee",
          "type": "uint256"
        },
        {
          "internalType": "uint256",
          "name": "defendantFee",
          "type": "uint256"
        },
        {
          "internalType": "enum Dagora.DisputeType",
          "name": "disputeType",
          "type": "uint8"
        },
        {
          "internalType": "uint256",
          "name": "lastInteraction",
          "type": "uint256"
        },
        {
          "internalType": "uint256",
          "name": "metaEvidenceId",
          "type": "uint256"
        },
        {
          "internalType": "uint256",
          "name": "disputeId",
          "type": "uint256"
        },
        {
          "internalType": "enum Dagora.DisputeStatus",
          "name": "status",
          "type": "uint8"
        }
      ],
      "stateMutability": "view",
      "type": "function"
    },
    {
      "inputs": [
        {
          "components": [
            {
              "components": [
                {
                  "internalType": "bytes32",
                  "name": "ipfsHash",
                  "type": "bytes32"
                },
                {
                  "internalType": "address payable",
                  "name": "seller",
                  "type": "address"
                },
                {
                  "internalType": "address payable",
                  "name": "stakeOwner",
                  "type": "address"
                },
                {
                  "internalType": "uint256",
                  "name": "stakedAmount",
                  "type": "uint256"
                },
                {
                  "internalType": "uint256",
                  "name": "commissionPercentage",
                  "type": "uint256"
                },
                {
                  "internalType": "uint256",
                  "name": "warranty",
                  "type": "uint256"
                },
                {
                  "internalType": "uint256",
                  "name": "cashbackPercentage",
                  "type": "uint256"
                },
                {
                  "internalType": "uint256",
                  "name": "expiration",
                  "type": "uint256"
                }
              ],
              "internalType": "struct Dagora.Listing",
              "name": "listing",
              "type": "tuple"
            },
            {
              "internalType": "address payable",
              "name": "fundsHolder",
              "type": "address"
            },
            {
              "internalType": "address payable",
              "name": "buyer",
              "type": "address"
            },
            {
              "internalType": "address payable",
              "name": "commissioner",
              "type": "address"
            },
            {
              "internalType": "contract ERC20",
              "name": "token",
              "type": "address"
            },
            {
              "internalType": "uint256",
              "name": "total",
              "type": "uint256"
            },
            {
              "internalType": "uint256",
              "name": "cashback",
              "type": "uint256"
            },
            {
              "internalType": "uint256",
              "name": "commission",
              "type": "uint256"
            },
            {
              "internalType": "uint256",
              "name": "protocolFee",
              "type": "uint256"
            },
            {
              "internalType": "uint256",
              "name": "stakeHolderFee",
              "type": "uint256"
            },
            {
              "internalType": "uint256",
              "name": "expiration",
              "type": "uint256"
            },
            {
              "internalType": "uint256",
              "name": "confirmationTimeout",
              "type": "uint256"
            },
            {
              "internalType": "uint256",
              "name": "timestamp",
              "type": "uint256"
            }
          ],
          "internalType": "struct Dagora.Order",
          "name": "_order",
          "type": "tuple"
        }
      ],
      "name": "executeTransaction",
      "outputs": [],
      "stateMutability": "nonpayable",
      "type": "function"
    },
    {
      "inputs": [],
      "name": "feeTimeout",
      "outputs": [
        {
          "internalType": "uint256",
          "name": "",
          "type": "uint256"
        }
      ],
      "stateMutability": "view",
      "type": "function"
    },
    {
      "inputs": [
        {
          "internalType": "address",
          "name": "addr",
          "type": "address"
        }
      ],
      "name": "grantAuthentication",
      "outputs": [],
      "stateMutability": "nonpayable",
      "type": "function"
    },
    {
      "inputs": [],
      "name": "ipfsDomain",
      "outputs": [
        {
          "internalType": "string",
          "name": "",
          "type": "string"
        }
      ],
      "stateMutability": "view",
      "type": "function"
    },
    {
      "inputs": [
        {
          "internalType": "address",
          "name": "forwarder",
          "type": "address"
        }
      ],
      "name": "isTrustedForwarder",
      "outputs": [
        {
          "internalType": "bool",
          "name": "",
          "type": "bool"
        }
      ],
      "stateMutability": "view",
      "type": "function"
    },
    {
      "inputs": [],
      "name": "marketToken",
      "outputs": [
        {
          "internalType": "contract ERC20Burnable",
          "name": "",
          "type": "address"
        }
      ],
      "stateMutability": "view",
      "type": "function"
    },
    {
      "inputs": [],
      "name": "metaEvidenceCount",
      "outputs": [
        {
          "internalType": "uint256",
          "name": "",
          "type": "uint256"
        }
      ],
      "stateMutability": "view",
      "type": "function"
    },
    {
      "inputs": [],
      "name": "orderExtraData",
      "outputs": [
        {
          "internalType": "bytes",
          "name": "",
          "type": "bytes"
        }
      ],
      "stateMutability": "view",
      "type": "function"
    },
    {
      "inputs": [],
      "name": "owner",
      "outputs": [
        {
          "internalType": "address",
          "name": "",
          "type": "address"
        }
      ],
      "stateMutability": "view",
      "type": "function"
    },
    {
      "inputs": [
        {
          "internalType": "bytes32",
          "name": "hash",
          "type": "bytes32"
        }
      ],
      "name": "payArbitrationFee",
      "outputs": [],
      "stateMutability": "payable",
      "type": "function"
    },
    {
      "inputs": [],
      "name": "protocolFeePercentage",
      "outputs": [
        {
          "internalType": "uint256",
          "name": "",
          "type": "uint256"
        }
      ],
      "stateMutability": "view",
      "type": "function"
    },
    {
      "inputs": [],
      "name": "protocolFeeRecipient",
      "outputs": [
        {
          "internalType": "address",
          "name": "",
          "type": "address"
        }
      ],
      "stateMutability": "view",
      "type": "function"
    },
    {
      "inputs": [],
      "name": "renounceOwnership",
      "outputs": [],
      "stateMutability": "nonpayable",
      "type": "function"
    },
    {
      "inputs": [
        {
          "components": [
            {
              "internalType": "bytes32",
              "name": "ipfsHash",
              "type": "bytes32"
            },
            {
              "internalType": "address payable",
              "name": "seller",
              "type": "address"
            },
            {
              "internalType": "address payable",
              "name": "stakeOwner",
              "type": "address"
            },
            {
              "internalType": "uint256",
              "name": "stakedAmount",
              "type": "uint256"
            },
            {
              "internalType": "uint256",
              "name": "commissionPercentage",
              "type": "uint256"
            },
            {
              "internalType": "uint256",
              "name": "warranty",
              "type": "uint256"
            },
            {
              "internalType": "uint256",
              "name": "cashbackPercentage",
              "type": "uint256"
            },
            {
              "internalType": "uint256",
              "name": "expiration",
              "type": "uint256"
            }
          ],
          "internalType": "struct Dagora.Listing",
          "name": "_listing",
          "type": "tuple"
        },
        {
          "components": [
            {
              "internalType": "uint8",
              "name": "v",
              "type": "uint8"
            },
            {
              "internalType": "bytes32",
              "name": "r",
              "type": "bytes32"
            },
            {
              "internalType": "bytes32",
              "name": "s",
              "type": "bytes32"
            }
          ],
          "internalType": "struct Dagora.Sig",
          "name": "sig",
          "type": "tuple"
        }
      ],
      "name": "report",
      "outputs": [
        {
          "internalType": "bytes32",
          "name": "hash",
          "type": "bytes32"
        }
      ],
      "stateMutability": "payable",
      "type": "function"
    },
    {
      "inputs": [],
      "name": "reportExtraData",
      "outputs": [
        {
          "internalType": "bytes",
          "name": "",
          "type": "bytes"
        }
      ],
      "stateMutability": "view",
      "type": "function"
    },
    {
      "inputs": [
        {
          "internalType": "address",
          "name": "addr",
          "type": "address"
        }
      ],
      "name": "revokeAuthentication",
      "outputs": [],
      "stateMutability": "nonpayable",
      "type": "function"
    },
    {
      "inputs": [
        {
          "internalType": "uint256",
          "name": "_disputeID",
          "type": "uint256"
        },
        {
          "internalType": "uint256",
          "name": "_ruling",
          "type": "uint256"
        }
      ],
      "name": "rule",
      "outputs": [],
      "stateMutability": "nonpayable",
      "type": "function"
    },
    {
      "inputs": [
        {
          "internalType": "address",
          "name": "",
          "type": "address"
        }
      ],
      "name": "sellers",
      "outputs": [
        {
          "internalType": "uint256",
          "name": "balance",
          "type": "uint256"
        },
        {
          "internalType": "uint256",
          "name": "lockedTokens",
          "type": "uint256"
        },
        {
          "internalType": "uint256",
          "name": "blackListExpire",
          "type": "uint256"
        }
      ],
      "stateMutability": "view",
      "type": "function"
    },
    {
      "inputs": [
        {
          "internalType": "bytes32",
          "name": "_hash",
          "type": "bytes32"
        },
        {
          "internalType": "string",
          "name": "_evidence",
          "type": "string"
        }
      ],
      "name": "submitEvidence",
      "outputs": [],
      "stateMutability": "nonpayable",
      "type": "function"
    },
    {
      "inputs": [],
      "name": "tokenOwnerFeePercentage",
      "outputs": [
        {
          "internalType": "uint256",
          "name": "",
          "type": "uint256"
        }
      ],
      "stateMutability": "view",
      "type": "function"
    },
    {
      "inputs": [
        {
          "internalType": "bytes32",
          "name": "",
          "type": "bytes32"
        }
      ],
      "name": "transactions",
      "outputs": [
        {
          "internalType": "uint256",
          "name": "lastStatusUpdate",
          "type": "uint256"
        },
        {
          "internalType": "uint256",
          "name": "refund",
          "type": "uint256"
        },
        {
          "internalType": "uint256",
          "name": "gasFee",
          "type": "uint256"
        },
        {
          "internalType": "enum Dagora.Status",
          "name": "status",
          "type": "uint8"
        }
      ],
      "stateMutability": "view",
      "type": "function"
    },
    {
      "inputs": [
        {
          "internalType": "address",
          "name": "newOwner",
          "type": "address"
        }
      ],
      "name": "transferOwnership",
      "outputs": [],
      "stateMutability": "nonpayable",
      "type": "function"
    },
    {
      "inputs": [
        {
          "components": [
            {
              "components": [
                {
                  "internalType": "bytes32",
                  "name": "ipfsHash",
                  "type": "bytes32"
                },
                {
                  "internalType": "address payable",
                  "name": "seller",
                  "type": "address"
                },
                {
                  "internalType": "address payable",
                  "name": "stakeOwner",
                  "type": "address"
                },
                {
                  "internalType": "uint256",
                  "name": "stakedAmount",
                  "type": "uint256"
                },
                {
                  "internalType": "uint256",
                  "name": "commissionPercentage",
                  "type": "uint256"
                },
                {
                  "internalType": "uint256",
                  "name": "warranty",
                  "type": "uint256"
                },
                {
                  "internalType": "uint256",
                  "name": "cashbackPercentage",
                  "type": "uint256"
                },
                {
                  "internalType": "uint256",
                  "name": "expiration",
                  "type": "uint256"
                }
              ],
              "internalType": "struct Dagora.Listing",
              "name": "listing",
              "type": "tuple"
            },
            {
              "internalType": "address payable",
              "name": "fundsHolder",
              "type": "address"
            },
            {
              "internalType": "address payable",
              "name": "buyer",
              "type": "address"
            },
            {
              "internalType": "address payable",
              "name": "commissioner",
              "type": "address"
            },
            {
              "internalType": "contract ERC20",
              "name": "token",
              "type": "address"
            },
            {
              "internalType": "uint256",
              "name": "total",
              "type": "uint256"
            },
            {
              "internalType": "uint256",
              "name": "cashback",
              "type": "uint256"
            },
            {
              "internalType": "uint256",
              "name": "commission",
              "type": "uint256"
            },
            {
              "internalType": "uint256",
              "name": "protocolFee",
              "type": "uint256"
            },
            {
              "internalType": "uint256",
              "name": "stakeHolderFee",
              "type": "uint256"
            },
            {
              "internalType": "uint256",
              "name": "expiration",
              "type": "uint256"
            },
            {
              "internalType": "uint256",
              "name": "confirmationTimeout",
              "type": "uint256"
            },
            {
              "internalType": "uint256",
              "name": "timestamp",
              "type": "uint256"
            }
          ],
          "internalType": "struct Dagora.Order",
          "name": "_order",
          "type": "tuple"
        },
        {
          "internalType": "uint256",
          "name": "refund",
          "type": "uint256"
        }
      ],
      "name": "updateRefund",
      "outputs": [],
      "stateMutability": "nonpayable",
      "type": "function"
    },
    {
      "inputs": [
        {
          "internalType": "uint256",
          "name": "value",
          "type": "uint256"
        }
      ],
      "name": "withdrawTokens",
      "outputs": [],
      "stateMutability": "nonpayable",
      "type": "function"
    },
    {
      "inputs": [
        {
          "internalType": "address",
          "name": "_forwarder",
          "type": "address"
        }
      ],
      "name": "setTrustedForwarder",
      "outputs": [],
      "stateMutability": "nonpayable",
      "type": "function"
    },
    {
      "inputs": [],
      "name": "getTrustedForwarder",
      "outputs": [
        {
          "internalType": "address",
          "name": "",
          "type": "address"
        }
      ],
      "stateMutability": "view",
      "type": "function"
    },
    {
      "inputs": [],
      "name": "versionRecipient",
      "outputs": [
        {
          "internalType": "string",
          "name": "",
          "type": "string"
        }
      ],
      "stateMutability": "view",
      "type": "function"
    }
  ],
  "bytecode": "0x60806040523480156200001157600080fd5b50604051620056da380380620056da833981016040819052620000349162000466565b898989898989898989898888888888888660006200005162000199565b600080546001600160a01b0319166001600160a01b0383169081178255604051929350917f8be0079c531659141344cd1fd0a4f28419497f9722a3daafe3b4186f6b6457e0908290a350600a80546001600160a01b03808a166001600160a01b031992831617909255600f805492891692909116919091179055620151808086026008558402600755600d839055600e8290558051620000f990600c9060208401906200030b565b505050505050505089601060006101000a8154816001600160a01b0302191690836001600160a01b031602179055508260119080519060200190620001409291906200030b565b508151620001569060129060208501906200030b565b50505050505050505050508a601360006101000a8154816001600160a01b0302191690836001600160a01b0316021790555050505050505050505050506200059c565b6000620001b0620001b660201b620024021760201c565b90505b90565b600060183610801590620001d05750620001d03362000236565b156200023157620002296000368080601f0160208091040260200160405190810160405280939291908181526020018383808284376000920191909152505036601319019150506200024a602090811b6200247017901c565b9050620001b3565b503390565b6013546001600160a01b0390811691161490565b600081601401835110156200028b576200028b6200027a6004855185601401620002a760201b620024a81760201c565b6200030360201b620025031760201c565b6014820191506001600160a01b03828401511690505b92915050565b6060632800659560e01b848484604051602401620002c89392919062000579565b60408051601f198184030181529190526020810180516001600160e01b03166001600160e01b03199093169290921790915290509392505050565b805160208201fd5b828054600181600116156101000203166002900490600052602060002090601f016020900481019282601f106200034e57805160ff19168380011785556200037e565b828001600101855582156200037e579182015b828111156200037e57825182559160200191906001019062000361565b506200038c92915062000390565b5090565b5b808211156200038c576000815560010162000391565b80516001600160a01b0381168114620002a157600080fd5b600082601f830112620003d0578081fd5b81516001600160401b0380821115620003e7578283fd5b6040516020601f8401601f191682018101838111838210171562000409578586fd5b806040525081945083825286818588010111156200042657600080fd5b600092505b838310156200044a57858301810151828401820152918201916200042b565b838311156200045c5760008185840101525b5050505092915050565b60008060008060008060008060008060006101608c8e03121562000488578687fd5b620004948d8d620003a7565b9a50620004a58d60208e01620003a7565b9950620004b68d60408e01620003a7565b9850620004c78d60608e01620003a7565b975060808c0151965060a08c0151955060c08c0151945060e08c015193506101008c015160018060401b03811115620004fe578384fd5b6200050c8e828f01620003bf565b6101208e015190945090506001600160401b038111156200052b578283fd5b620005398e828f01620003bf565b6101408e015190935090506001600160401b0381111562000558578182fd5b620005668e828f01620003bf565b9150509295989b509295989b9093969950565b60608101600885106200058857fe5b938152602081019290925260409091015290565b61512e80620005ac6000396000f3fe6080604052600436106102ae5760003560e01c80638076f00511610175578063b6398667116100dc578063d48fd75411610095578063ece1de441161006f578063ece1de4414610809578063ee7269d71461081c578063f2fde38b14610831578063f48a0b3114610851576102ae565b8063d48fd754146107a9578063da742228146107c9578063dd49756e146107e9576102ae565b8063b639866714610717578063ba4bc7631461072c578063be6a18ef1461074c578063cae6047f1461075f578063ce1b815f14610774578063d1fcfdb814610789576102ae565b806396e712501161012e57806396e7125014610683578063a0c59ef3146106a3578063a2031de4146106b8578063ad48d611146106cd578063afd9e0d0146106e2578063b329036b14610702576102ae565b80638076f005146105e657806382ad5f751461060657806382e1e9721461061957806387bd84cc146106395780638da5cb5b146106595780638e50e5091461066e576102ae565b80635d2569ad116102195780636cc6cde1116101d25780636cc6cde11461052d5780636d47ab7214610542578063703472f314610571578063715018a61461059157806372fc4213146105a657806378e740ff146105c6576102ae565b80635d2569ad1461044e578063640b5aac1461047b578063642f2eaf1461049b57806364df049e146104cb57806369dc9ff3146104ed5780636b83a0611461050d576102ae565b80634140a5eb1161026b5780634140a5eb14610395578063486ff0cd146103aa57806353376d1f146103cc578063546f995c146103ec578063572b6c051461040c5780635af7980714610439576102ae565b806311be1997146102b357806320a1e5b5146102f35780632c3d01b814610320578063311a6c5614610342578063315a095d1461036257806339d2a69414610382575b600080fd5b3480156102bf57600080fd5b506102d36102ce36600461409c565b610871565b6040516102ea9b9a99989796959493929190614565565b60405180910390f35b3480156102ff57600080fd5b5061031361030e366004614206565b6108de565b6040516102ea919061466c565b34801561032c57600080fd5b5061034061033b3660046141ea565b610a84565b005b34801561034e57600080fd5b5061034061035d366004614292565b610bc2565b34801561036e57600080fd5b5061034061037d36600461409c565b610ce9565b6103136103903660046141ea565b610e51565b3480156103a157600080fd5b50610313610ed1565b3480156103b657600080fd5b506103bf610ed7565b6040516102ea9190614693565b3480156103d857600080fd5b506103406103e7366004613fa1565b610ef5565b3480156103f857600080fd5b50610340610407366004613fbd565b610f73565b34801561041857600080fd5b5061042c610427366004613fa1565b610fa7565b6040516102ea9190614661565b34801561044557600080fd5b50610313610fbe565b34801561045a57600080fd5b5061046e610469366004613ff8565b610fc4565b6040516102ea919061461d565b34801561048757600080fd5b5061034061049636600461424e565b61109d565b3480156104a757600080fd5b506104bb6104b636600461409c565b6111dd565b6040516102ea9493929190615043565b3480156104d757600080fd5b506104e0611207565b6040516102ea9190614510565b3480156104f957600080fd5b5061042c610508366004613fa1565b611216565b34801561051957600080fd5b5061042c610528366004614168565b61122b565b34801561053957600080fd5b506104e0611338565b34801561054e57600080fd5b5061056261055d366004613fa1565b611347565b6040516102ea9392919061502d565b34801561057d57600080fd5b5061031361058c366004614149565b611367565b34801561059d57600080fd5b506103406114b7565b3480156105b257600080fd5b506103406105c136600461409c565b611536565b3480156105d257600080fd5b5061042c6105e13660046141ea565b6116f3565b3480156105f257600080fd5b5061042c61060136600461409c565b6117b7565b610313610614366004614184565b6117cc565b34801561062557600080fd5b506103406106343660046141ea565b61184d565b34801561064557600080fd5b5061042c61065436600461409c565b611942565b34801561066557600080fd5b506104e0611957565b34801561067a57600080fd5b50610313611966565b34801561068f57600080fd5b5061034061069e3660046141ea565b61196c565b3480156106af57600080fd5b50610313611a72565b3480156106c457600080fd5b506103bf611a78565b3480156106d957600080fd5b506104e0611b06565b3480156106ee57600080fd5b506103136106fd3660046141ea565b611b15565b34801561070e57600080fd5b50610313611b68565b34801561072357600080fd5b506103bf611b6e565b34801561073857600080fd5b5061031361074736600461409c565b611bc9565b61034061075a36600461409c565b611bdb565b34801561076b57600080fd5b50610313611dfe565b34801561078057600080fd5b506104e0611e04565b34801561079557600080fd5b506103406107a4366004613fa1565b611e13565b3480156107b557600080fd5b506103406107c43660046141ba565b611eba565b3480156107d557600080fd5b506103406107e4366004613fa1565b611fe5565b3480156107f557600080fd5b5061034061080436600461409c565b612007565b61034061081736600461409c565b612113565b34801561082857600080fd5b506103bf6121c2565b34801561083d57600080fd5b5061034061084c366004613fa1565b61221d565b34801561085d57600080fd5b5061034061086c3660046140b4565b6122d3565b600560208190526000918252604090912080546001820154600283015460038401546004850154958501546006860154600787015460088801546009890154600a909901546001600160a01b039889169a9789169996989095169695939460ff938416949293919291168b565b60006108eb84848461250b565b6000818152600460205260408120919250600382015460ff16600581111561090f57fe5b146109355760405162461bcd60e51b815260040161092c90614e4c565b60405180910390fd5b84608001516001600160a01b03166323b872dd8660200151308860a001516040518463ffffffff1660e01b8152600401610971939291906145e0565b602060405180830381600087803b15801561098b57600080fd5b505af115801561099f573d6000803e3d6000fd5b505050506040513d601f19601f820116820180604052508101906109c3919061407c565b6109df5760405162461bcd60e51b815260040161092c90614ec3565b4281556003810180546001919060ff1916828002179055508460000151602001516001600160a01b031685604001516001600160a01b0316837fe419a7cfec7b19a58f8ef66dbf85dd08b396bafa0e2f94b3181fd3d047cb748188600001516040015189606001518a608001518b60a001518c60e001518d60c001518e6101600151604051610a749796959493929190614524565b60405180910390a4509392505050565b6000610a8f82612573565b60008181526004602052604090209091506001600382015460ff166005811115610ab557fe5b1480610ad357506002600382015460ff166005811115610ad157fe5b145b80610aef575060038082015460ff166005811115610aed57fe5b145b610b0b5760405162461bcd60e51b815260040161092c90614904565b60006001600383015460ff166005811115610b2257fe5b1480610b3f575060038083015460ff166005811115610b3d57fe5b145b15610b7c578361016001516201518002826000015401421015610b745760405162461bcd60e51b815260040161092c9061486f565b506000610bb3565b835160a0015182546201518090910201421015610bab5760405162461bcd60e51b815260040161092c9061486f565b50825160c001515b610bbc84612586565b50505050565b60008281526006602090815260408083205480845260059092529091206010546001600160a01b0316610bf361294c565b6001600160a01b031614610c195760405162461bcd60e51b815260040161092c90614e81565b6003600a82015460ff166004811115610c2e57fe5b14610c4b5760405162461bcd60e51b815260040161092c90614767565b83610c5461294c565b6001600160a01b03167f394027a5fa6e098a1191094d1719d6929b9abc535fcc0c8f448d6a4e7562227685604051610c8c919061466c565b60405180910390a36001600682015460ff166002811115610ca957fe5b1415610cbe57610cb9818461295b565b610bbc565b610cc88184612cb9565b506000908152600460205260409020600301805460ff191660051790555050565b600060016000610cf761294c565b6001600160a01b03166001600160a01b0316815260200190815260200160002090508181600101548260000154031015610d435760405162461bcd60e51b815260040161092c906146ef565b600a546001600160a01b03166323b872dd610d5c61294c565b30856040518463ffffffff1660e01b8152600401610d7c939291906145e0565b602060405180830381600087803b158015610d9657600080fd5b505af1158015610daa573d6000803e3d6000fd5b505050506040513d601f19601f82011682018060405250810190610dce919061407c565b610dd757600080fd5b8160016000610de461294c565b6001600160a01b0316815260208101919091526040016000208054919091039055610e0d61294c565b6001600160a01b03167f05e8d4927d2e9cff8a7d6f1c0c3b0fdd4d7299da00fe4911745bda49a5834e6783604051610e45919061466c565b60405180910390a25050565b6000610e5c826130f6565b600081815260056020908152604091829020600801548551519251939450927f61606860eb6c87306811e2695215385101daab53bd6ab4e9f9049aead9363c7d92610eaa92600c920161446a565b60408051601f1981840301815290829052610ec491614693565b60405180910390a2919050565b600e5481565b6040805180820190915260038152620312e360ec1b60208201525b90565b610efd61294c565b6000546001600160a01b03908116911614610f2a5760405162461bcd60e51b815260040161092c90614b24565b6001600160a01b038116600081815260096020526040808220805460ff19169055517f45f62f30e7b8439e0da7d8e560fe39d01238091ce9e789e3d12b514edf98acea9190a250565b60005b8151811015610fa357610f9b828281518110610f8e57fe5b6020026020010151610a84565b600101610f76565b5050565b6013546001600160a01b038281169116145b919050565b600b5481565b606082518451148015610fd8575081518351145b610fe157600080fd5b835167ffffffffffffffff81118015610ff957600080fd5b50604051908082528060200260200182016040528015611023578160200160208202803683370190505b50905060005b84518110156110955761107685828151811061104157fe5b602002602001015185838151811061105557fe5b602002602001015185848151811061106957fe5b60200260200101516108de565b82828151811061108257fe5b6020908102919091010152600101611029565b509392505050565b8151602001516001600160a01b03166110b461294c565b6001600160a01b0316146110da5760405162461bcd60e51b815260040161092c9061497c565b60006110e583612573565b60008181526004602052604090209091506001600382015460ff16600581111561110b57fe5b146111285760405162461bcd60e51b815260040161092c90614904565b83610160015162015180028160000154014211156111585760405162461bcd60e51b815260040161092c90614bc7565b8360a001518460e001518561012001518661010001518760c00151010101840111156111965760405162461bcd60e51b815260040161092c90614c33565b828160010181905550817fe18fe462037a62d3500e07f2b32d9e16a69cee44850c9b7dcef7d856087e4aff846040516111cf919061466c565b60405180910390a250505050565b60046020526000908152604090208054600182015460028301546003909301549192909160ff1684565b600f546001600160a01b031681565b60096020526000908152604090205460ff1681565b600081604001516001600160a01b031661124361294c565b6001600160a01b0316146112695760405162461bcd60e51b815260040161092c90614bfc565b81606001516001600061127a61294c565b6001600160a01b0316815260208101919091526040016000205410156112b25760405162461bcd60e51b815260040161092c906149b3565b60006112bd836132ad565b60008181526003602052604090205490915060ff16156112ef5760405162461bcd60e51b815260040161092c906147ad565b600081815260036020526040808220805460ff191660011790555182917f4e58c75167b3bff3ab3949a55f72203f341f94cca1c2c0c84370731b2b4c201791a250600192915050565b6010546001600160a01b031681565b600160208190526000918252604090912080549181015460029091015483565b60008082600281111561137657fe5b1161138057600080fd5b600182600281111561138e57fe5b141561141c5760105460405163f7434ea960e01b81526001600160a01b039091169063f7434ea9906113c5906011906004016146a6565b60206040518083038186803b1580156113dd57600080fd5b505afa1580156113f1573d6000803e3d6000fd5b505050506040513d601f19601f82011682018060405250810190611415919061427a565b9050610fb9565b600282600281111561142a57fe5b1415610fb95760105460405163f7434ea960e01b81526001600160a01b039091169063f7434ea990611461906012906004016146a6565b60206040518083038186803b15801561147957600080fd5b505afa15801561148d573d6000803e3d6000fd5b505050506040513d601f19601f820116820180604052508101906114b1919061427a565b92915050565b6114bf61294c565b6000546001600160a01b039081169116146114ec5760405162461bcd60e51b815260040161092c90614b24565b600080546040516001600160a01b03909116907f8be0079c531659141344cd1fd0a4f28419497f9722a3daafe3b4186f6b6457e0908390a3600080546001600160a01b0319169055565b6000818152600560205260409020600a81015460ff16600481111561155757fe5b600010801561157857506003600a82015460ff16600481111561157657fe5b105b6115945760405162461bcd60e51b815260040161092c906149ea565b6008548160070154420310156115bc5760405162461bcd60e51b815260040161092c9061486f565b6000816004015460001461163a57600482018054600090915582546040516001600160a01b039091169082906115f190610ef2565b60006040518083038185875af1925050503d806000811461162e576040519150601f19603f3d011682016040523d82523d6000602084013e611633565b606091505b5090925050505b6005820154156116b757600582018054600090915560018301546040516001600160a01b0390911690829061166e90610ef2565b60006040518083038185875af1925050503d80600081146116ab576040519150601f19603f3d011682016040523d82523d6000602084013e6116b0565b606091505b5090925050505b6002600a83015460ff1660048111156116cc57fe5b14156116e3576116de8260015b61295b565b6116ee565b6116ee8260026116d9565b505050565b600081602001516001600160a01b031661170b61294c565b6001600160a01b0316146117315760405162461bcd60e51b815260040161092c90614b59565b600061173c83612573565b60008181526003602052604090205490915060ff161561176e5760405162461bcd60e51b815260040161092c906147ad565b600081815260036020526040808220805460ff191660011790555182917f0bed755d9d22259660bf623a395b620bbff2af67319e990b538dc8603bdc3e5f91a250600192915050565b60026020526000908152604090205460ff1681565b60006117d883836132bb565b6000818152600560209081526040918290206008015486519251939450927f61606860eb6c87306811e2695215385101daab53bd6ab4e9f9049aead9363c7d9261182592600c920161446a565b60408051601f198184030181529082905261183f91614693565b60405180910390a292915050565b600061185882612573565b60008181526004602052604090209091506001600382015460ff16600581111561187e57fe5b1480156118a7575082604001516001600160a01b031661189c61294c565b6001600160a01b0316145b806118eb575060038082015460ff1660058111156118c157fe5b1480156118eb57508251602001516001600160a01b03166118e061294c565b6001600160a01b0316145b6119075760405162461bcd60e51b815260040161092c90614d5e565b600181015415801561191d5750825160a0015115155b156119395760038101805460ff191660021790554281556116ee565b6116ee83612586565b60036020526000908152604090205460ff1681565b6000546001600160a01b031690565b600d5481565b600061197782612573565b60008181526004602052604090209091506002600382015460ff16600581111561199d57fe5b146119ba5760405162461bcd60e51b815260040161092c90614904565b82604001516001600160a01b03166119d061294c565b6001600160a01b0316146119f65760405162461bcd60e51b815260040161092c90614e21565b825160a0015181546201518090910201421115611a255760405162461bcd60e51b815260040161092c906148cd565b6003818101805460ff1916909117905560a0830151600182015542815560405182907f99e77d4092287badf5165a76eb7add37ec282650747091906c6a02e0cd4f5b3d90600090a2505050565b60075481565b600c805460408051602060026001851615610100026000190190941693909304601f81018490048402820184019092528181529291830182828015611afe5780601f10611ad357610100808354040283529160200191611afe565b820191906000526020600020905b815481529060010190602001808311611ae157829003601f168201915b505050505081565b600a546001600160a01b031681565b60008060046000611b2585612573565b815260200190815260200160002090508260e001518361012001518461010001518560c001518460020154856001015401010101018360a0015103915050919050565b60085481565b6012805460408051602060026001851615610100026000190190941693909304601f81018490048402820184019092528181529291830182828015611afe5780601f10611ad357610100808354040283529160200191611afe565b60066020526000908152604090205481565b60008181526005602052604081206006810154909190611bfd9060ff16611367565b600a83015490915060ff166004811115611c1357fe5b6000108015611c3457506003600a83015460ff166004811115611c3257fe5b105b611c505760405162461bcd60e51b815260040161092c90614726565b81546001600160a01b0316611c6361294c565b6001600160a01b03161480611c94575060018201546001600160a01b0316611c8961294c565b6001600160a01b0316145b611cb05760405162461bcd60e51b815260040161092c90614b90565b81546001600160a01b0316611cc361294c565b6001600160a01b03161415611d6857600482018054340190819055811115611cfd5760405162461bcd60e51b815260040161092c9061492b565b4260078301556005820154811115611d5e57600a8201805460ff1916600217905560405183907ff972c77402d0ee7d94e4b2ea7cee21a3d392136bf7c9b72d2dc85e2a4d24a9cf90611d51906001906146db565b60405180910390a26116de565b6116de8382613504565b600582018054340190819055811115611d935760405162461bcd60e51b815260040161092c9061492b565b4260078301556004820154811115611df457600a8201805460ff1916600117905560405183907ff972c77402d0ee7d94e4b2ea7cee21a3d392136bf7c9b72d2dc85e2a4d24a9cf90611de7906000906146db565b60405180910390a26116ee565b6116ee8382613504565b61271081565b6013546001600160a01b031690565b611e1b61294c565b6000546001600160a01b03908116911614611e485760405162461bcd60e51b815260040161092c90614b24565b6001600160a01b03811660009081526009602052604090205460ff1615611e6e57600080fd5b6001600160a01b038116600081815260096020526040808220805460ff19166001179055517f52133ca86a0b20d025852c627bd9d5c8e6037a237d7ef7d22f399ae642e6b9b49190a250565b6000600481611ed6611ed1368790038701876141ea565b612573565b8152602081019190915260400160009081209150600382015460ff166005811115611efd57fe5b118015611f1c57506005600382015460ff166005811115611f1a57fe5b105b611f2557600080fd5b81611f386106fd368690038601866141ea565b1015611f4357600080fd5b60028101805483019055611f5f61018084016101608501613fa1565b6001600160a01b031663a9059cbb611f7561294c565b846040518363ffffffff1660e01b8152600401611f93929190614604565b602060405180830381600087803b158015611fad57600080fd5b505af1158015611fc1573d6000803e3d6000fd5b505050506040513d601f19601f82011682018060405250810190610bbc919061407c565b601380546001600160a01b0319166001600160a01b0392909216919091179055565b600a546001600160a01b03166323b872dd61202061294c565b30846040518463ffffffff1660e01b8152600401612040939291906145e0565b602060405180830381600087803b15801561205a57600080fd5b505af115801561206e573d6000803e3d6000fd5b505050506040513d601f19601f82011682018060405250810190612092919061407c565b61209b57600080fd5b80600160006120a861294c565b6001600160a01b031681526020810191909152604001600020805490910190556120d061294c565b6001600160a01b03167fbc7c8a4d8049a3f99a02f2a20640c206a2e4d3f2fa54fd20da9f01fda3620cda82604051612108919061466c565b60405180910390a250565b60008181526005602052604090206002600682015460ff16600281111561213657fe5b146121535760405162461bcd60e51b815260040161092c90614dd4565b601054600982015460405163093225f160e31b81526001600160a01b03909216916349912f8891349161218c9190601290600401615006565b6000604051808303818588803b1580156121a557600080fd5b505af11580156121b9573d6000803e3d6000fd5b50505050505050565b6011805460408051602060026001851615610100026000190190941693909304601f81018490048402820184019092528181529291830182828015611afe5780601f10611ad357610100808354040283529160200191611afe565b61222561294c565b6000546001600160a01b039081169116146122525760405162461bcd60e51b815260040161092c90614b24565b6001600160a01b0381166122785760405162461bcd60e51b815260040161092c90614829565b600080546040516001600160a01b03808516939216917f8be0079c531659141344cd1fd0a4f28419497f9722a3daafe3b4186f6b6457e091a3600080546001600160a01b0319166001600160a01b0392909216919091179055565b600082815260056020526040902080546001600160a01b03166122f461294c565b6001600160a01b03161480612325575060018101546001600160a01b031661231a61294c565b6001600160a01b0316145b6123415760405162461bcd60e51b815260040161092c90614f64565b6002600682015460ff16600281111561235657fe5b146123735760405162461bcd60e51b815260040161092c90614c7e565b6004600a82015460ff16600481111561238857fe5b106123a55760405162461bcd60e51b815260040161092c906147d7565b6123ad61294c565b60088201546010546040516001600160a01b0393841693909116907fdccf2f8b2cc26eafcd61905cba744cff4b81d14740725f6376390dc6298a6a3c906123f5908790614693565b60405180910390a4505050565b600060183610801590612419575061241933610fa7565b1561246b576124646000368080601f01602080910402602001604051908101604052809392919081815260200183838082843760009201919091525050601319360191506124709050565b9050610ef2565b503390565b600081601401835110156124965761249661249160048551856014016124a8565b612503565b5001601401516001600160a01b031690565b6060632800659560e01b8484846040516024016124c7939291906146b9565b60408051601f198184030181529190526020810180516001600160e01b03166001600160e01b03199093169290921790915290505b9392505050565b805160208201fd5b600061252561251d85600001516132ad565b855184613741565b6125415760405162461bcd60e51b815260040161092c90614f3b565b61255761254d85612573565b9150818585613874565b6124fc5760405162461bcd60e51b815260040161092c90614dad565b60006114b161258183613a7b565b613b04565b600061259182612573565b6000818152600460205260408120600181015460a086015193945090929091906125bb9083613b17565b60038401805460ff19166005179055600080855560018501556101008601519091501561267d576101008501516080860151600f5460405163a9059cbb60e01b815293839003936001600160a01b039283169363a9059cbb93612622931691600401614604565b602060405180830381600087803b15801561263c57600080fd5b505af1158015612650573d6000803e3d6000fd5b505050506040513d601f19601f82011682018060405250810190612674919061407c565b61267d57600080fd5b610120850151156127335761269781866101200151613b17565b905084608001516001600160a01b031663a9059cbb8660000151604001518761012001516040518363ffffffff1660e01b81526004016126d8929190614604565b602060405180830381600087803b1580156126f257600080fd5b505af1158015612706573d6000803e3d6000fd5b505050506040513d601f19601f8201168201806040525081019061272a919061407c565b61273357600080fd5b60e0850151156127d95760e08501516080860151606087015160405163a9059cbb60e01b815293839003936001600160a01b039092169263a9059cbb9261277e929190600401614604565b602060405180830381600087803b15801561279857600080fd5b505af11580156127ac573d6000803e3d6000fd5b505050506040513d601f19601f820116820180604052508101906127d0919061407c565b6127d957600080fd5b60c0850151156128815760c08501516080860151604080880151905163a9059cbb60e01b815293839003936001600160a01b039092169263a9059cbb926128269291870190600401614604565b602060405180830381600087803b15801561284057600080fd5b505af1158015612854573d6000803e3d6000fd5b505050506040513d601f19601f82011682018060405250810190612878919061407c565b61288157600080fd5b801561291a57608085015185516020015160405163a9059cbb60e01b81526001600160a01b039092169163a9059cbb916128bf918590600401614604565b602060405180830381600087803b1580156128d957600080fd5b505af11580156128ed573d6000803e3d6000fd5b505050506040513d601f19601f82011682018060405250810190612911919061407c565b61291a57600080fd5b60405184907f24196ec40f90671b7144e716978686b4f3c7d6b00b23da3971ef2b52af27d87f90600090a25050505050565b6000612956612402565b905090565b600281111561297c5760405162461bcd60e51b815260040161092c906148a4565b6002820180546004808501805460058701805460009687905592869055859055600a8701805460ff191690931790925560016020819052808701546001600160a01b0316855292939192909190851415612ad55785546040516001600160a01b039091169084906129ec90610ef2565b60006040518083038185875af1925050503d8060008114612a29576040519150601f19603f3d011682016040523d82523d6000602084013e612a2e565b606091505b50506001878101546001600160a01b03908116600090815260209290925260408083208054899003905589548216835290912080546002808904909101909155600a549293509116906342966c6890865b0486036040518263ffffffff1660e01b8152600401612a9e919061466c565b600060405180830381600087803b158015612ab857600080fd5b505af1158015612acc573d6000803e3d6000fd5b50505050612cb1565b6002851415612ba55760018601546040516001600160a01b03909116908390612afd90610ef2565b60006040518083038185875af1925050503d8060008114612b3a576040519150601f19603f3d011682016040523d82523d6000602084013e612b3f565b606091505b505060075487546001600160a01b039081166000908152600160208190526040808320429095016002958601558b548416835280832080548b90039055908b01548316825290208054838904019055600a5492935091909116906342966c689086612a7f565b600186015460405160028504916001600160a01b03169082850390612bc990610ef2565b60006040518083038185875af1925050503d8060008114612c06576040519150601f19603f3d011682016040523d82523d6000602084013e612c0b565b606091505b505087546040519193506001600160a01b0316908290612c2a90610ef2565b60006040518083038185875af1925050503d8060008114612c67576040519150601f19603f3d011682016040523d82523d6000602084013e612c6c565b606091505b505087546001600160a01b039081166000908152600160208190526040808320805460028c0490819003909155918c0154909316825291902080549190910390559150505b505050505050565b6002811115612cda5760405162461bcd60e51b815260040161092c906148a4565b6002820180546004808501805460058701805460009687905592869055859055600a8701805460ff191690931790925591929091906001851415612e245785546040516001600160a01b03909116908490612d3490610ef2565b60006040518083038185875af1925050503d8060008114612d71576040519150601f19603f3d011682016040523d82523d6000602084013e612d76565b606091505b50506003870154875460405163a9059cbb60e01b81529293506001600160a01b039182169263a9059cbb92612db19216908890600401614604565b602060405180830381600087803b158015612dcb57600080fd5b505af1158015612ddf573d6000803e3d6000fd5b505050506040513d601f19601f82011682018060405250810190612e03919061407c565b612e1f5760405162461bcd60e51b815260040161092c90614a2f565b612cb1565b6002851415612ecc5760018601546040516001600160a01b03909116908390612e4c90610ef2565b60006040518083038185875af1925050503d8060008114612e89576040519150601f19603f3d011682016040523d82523d6000602084013e612e8e565b606091505b50506003870154600188015460405163a9059cbb60e01b81529293506001600160a01b039182169263a9059cbb92612db19216908890600401614604565b600186015460405160028504916001600160a01b03169082850390612ef090610ef2565b60006040518083038185875af1925050503d8060008114612f2d576040519150601f19603f3d011682016040523d82523d6000602084013e612f32565b606091505b505087546040519193506001600160a01b0316908290612f5190610ef2565b60006040518083038185875af1925050503d8060008114612f8e576040519150601f19603f3d011682016040523d82523d6000602084013e612f93565b606091505b50506003880154600189015460405163a9059cbb60e01b815292945060028804926001600160a01b039283169263a9059cbb92612fd992911690858b0390600401614604565b602060405180830381600087803b158015612ff357600080fd5b505af1158015613007573d6000803e3d6000fd5b505050506040513d601f19601f8201168201806040525081019061302b919061407c565b6130475760405162461bcd60e51b815260040161092c90614a2f565b6003880154885460405163a9059cbb60e01b81526001600160a01b039283169263a9059cbb9261307e929116908590600401614604565b602060405180830381600087803b15801561309857600080fd5b505af11580156130ac573d6000803e3d6000fd5b505050506040513d601f19601f820116820180604052508101906130d0919061407c565b6130ec5760405162461bcd60e51b815260040161092c90614a2f565b5050505050505050565b600061310182612573565b60008181526004602052604090209091506001600382015460ff16600581111561312757fe5b1480613144575060038082015460ff16600581111561314257fe5b145b6131605760405162461bcd60e51b815260040161092c90614904565b82610160015162015180028160000154014211156131905760405162461bcd60e51b815260040161092c90614bc7565b600061319c6002611367565b9050803410156131be5760405162461bcd60e51b815260040161092c90614d14565b6000806001600385015460ff1660058111156131d657fe5b141561322a5785604001516001600160a01b03166131f261294c565b6001600160a01b0316146132185760405162461bcd60e51b815260040161092c90614a75565b50506040840151845160200151613275565b8551602001516001600160a01b031661324161294c565b6001600160a01b0316146132675760405162461bcd60e51b815260040161092c90614aac565b505060408401518451602001515b60038401805460ff1916600417905542845560a086015160808701516132a391879185918591346002613b59565b5050505050919050565b60006114b161258183613c68565b60006132c78383613ca2565b9050600080828152600560205260409020600a015460ff1660048111156132ea57fe5b146133075760405162461bcd60e51b815260040161092c90614ae3565b82604001516001600160a01b031661331d61294c565b6001600160a01b031614156133445760405162461bcd60e51b815260040161092c90614fb8565b60006133506001611367565b9050803410156133725760405162461bcd60e51b815260040161092c90614d14565b60006001600061338061294c565b6001600160a01b03166001600160a01b031681526020019081526020016000209050806002015442116133c55760405162461bcd60e51b815260040161092c90614ccd565b6001810154815460608701519190039081101561349857600a546001600160a01b03166323b872dd6133f561294c565b30848a60600151036040518463ffffffff1660e01b815260040161341b939291906145e0565b602060405180830381600087803b15801561343557600080fd5b505af1158015613449573d6000803e3d6000fd5b505050506040513d601f19601f8201168201806040525081019061346d919061407c565b6134895760405162461bcd60e51b815260040161092c90614f04565b60608601518254908290030182555b6040808701516001600160a01b0316600090815260016020819052919020606088015184830180548201905591810180549092019091556134f9856134db61294c565b60408a015160608b0151600a546001600160a01b0316346001613b59565b505050505092915050565b6000828152600560205260409020600a810180546003919060ff191660018302179055506010546000906001600160a01b031663c13517e184600280600687015460ff16600281111561355357fe5b1461355f576011613562565b60125b6040518463ffffffff1660e01b815260040161357f929190615071565b6020604051808303818588803b15801561359857600080fd5b505af11580156135ac573d6000803e3d6000fd5b50505050506040513d601f19601f820116820180604052508101906135d1919061427a565b600081815260066020526040908190208690556010546008850154915192935083926001600160a01b03909116917f74baab670a4015ab2f1b467c5252a96141a2573f2908e58a92081e80d3cfde3d9161362d9190819061501f565b60405180910390a3600083836004015411156136b75760048301805490859055835460405191869003916001600160a01b0390911690829061366e90610ef2565b60006040518083038185875af1925050503d80600081146136ab576040519150601f19603f3d011682016040523d82523d6000602084013e6136b0565b606091505b5090925050505b838360050154111561373a5760058301805490859055600184015460405191869003916001600160a01b039091169082906136f190610ef2565b60006040518083038185875af1925050503d806000811461372e576040519150601f19603f3d011682016040523d82523d6000602084013e613733565b606091505b5090925050505b5050505050565b60008260e0015160001415801561375b57508260e0015142115b15613768575060006124fc565b6040808401516001600160a01b031660009081526001602081905291902060608501519181015481549192910310156137a55760009150506124fc565b60008581526002602052604090205460ff16156137c65760009150506124fc565b60008581526003602052604090205460ff16156137e75760019150506124fc565b83604001516001600160a01b0316600186856000015186602001518760400151604051600081526020016040526040516138249493929190614675565b6020604051602081039080840390855afa158015613846573d6000803e3d6000fd5b505050602060405103516001600160a01b031614156138695760019150506124fc565b506000949350505050565b6000826101400151600014158015613890575082610140015142115b1561389d575060006124fc565b60808301516001600160a01b031660009081526009602052604090205460ff166138c9575060006124fc565b60008481526002602052604090205460ff16156138e8575060006124fc565b6138fe8360a00151846000015160800151613cd6565b8360e001511015613911575060006124fc565b6139278360a00151846000015160c00151613cd6565b8360c00151101561393a575060006124fc565b61394a8360a00151600d54613cd6565b836101000151101561395e575060006124fc565b825160208101516040909101516001600160a01b0390811691161480159061399957506139918360a00151600e54613cd6565b836101200151105b156139a6575060006124fc565b8260e001518361012001518461010001518560c001510101018360a0015110156139d2575060006124fc565b60008481526003602052604090205460ff16156139f1575060016124fc565b82604001516001600160a01b031660018584600001518560200151866040015160405160008152602001604052604051613a2e9493929190614675565b6020604051602081039080840390855afa158015613a50573d6000803e3d6000fd5b505050602060405103516001600160a01b03161415613a71575060016124fc565b5060009392505050565b6000613a8a82600001516132ad565b82604001518360200151846060015185608001518660a001518760c001518860e001518961010001518a61012001518b61014001518c61016001518d6101800151604051602001613ae79d9c9b9a99989796959493929190614397565b604051602081830303815290604052805190602001209050919050565b600081604051602001613ae791906144df565b60006124fc83836040518060400160405280601e81526020017f536166654d6174683a207375627472616374696f6e206f766572666c6f770000815250613cdf565b600087815260056020526040902080546001600160a01b038089166001600160a01b031992831617835560018084018054928a1692909316919091179091556002808301879055600483018054860190556006830180548593919260ff1990911691908490811115613bc757fe5b02179055506001826002811115613bda57fe5b1415613bfe576003810180546001600160a01b0319166001600160a01b0386161790555b600a8101805460ff19166002179055426007820155600b80546001818101909255600883015560405189917ff972c77402d0ee7d94e4b2ea7cee21a3d392136bf7c9b72d2dc85e2a4d24a9cf91613c5591906146db565b60405180910390a2979650505050505050565b80516020808301516040808501516060860151608087015160a088015160c089015160e08a01519551600099613ae799909897910161441f565b6000613cba613cb0846132ad565b9150818484613741565b6114b15760405162461bcd60e51b815260040161092c90614f3b565b61271091020490565b60008184841115613d035760405162461bcd60e51b815260040161092c9190614693565b505050900390565b80356114b1816150e0565b600082601f830112613d26578081fd5b8135613d39613d34826150b4565b61508d565b818152915060208083019084810161028080850287018301881015613d5d57600080fd5b60005b85811015613d8457613d728984613e7b565b85529383019391810191600101613d60565b50505050505092915050565b600082601f830112613da0578081fd5b8135613dae613d34826150b4565b8181529150602080830190848101606080850287018301881015613dd157600080fd5b60005b85811015613d8457613de68984613f55565b85529383019391810191600101613dd4565b6000610100808385031215613e0b578182fd5b613e148161508d565b915050813581526020820135613e29816150e0565b60208201526040820135613e3c816150e0565b80604083015250606082013560608201526080820135608082015260a082013560a082015260c082013560c082015260e082013560e082015292915050565b60006102808284031215613e8d578081fd5b6101a0613e998161508d565b9150613ea58484613df8565b8252610100613eb685828601613d0b565b6020840152610120613eca86828701613d0b565b6040850152610140613ede87828801613d0b565b6060860152610160613ef288828901613d0b565b60808701526101808088013560a08801528588013560c08801526101c088013560e08801526101e0880135858801526102008801358488015261022088013583880152610240880135828801526102608801358188015250505050505092915050565b600060608284031215613f66578081fd5b613f70606061508d565b9050813560ff81168114613f8357600080fd5b80825250602082013560208201526040820135604082015292915050565b600060208284031215613fb2578081fd5b81356124fc816150e0565b600060208284031215613fce578081fd5b813567ffffffffffffffff811115613fe4578182fd5b613ff084828501613d16565b949350505050565b60008060006060848603121561400c578182fd5b833567ffffffffffffffff80821115614023578384fd5b61402f87838801613d16565b94506020860135915080821115614044578384fd5b61405087838801613d90565b93506040860135915080821115614065578283fd5b5061407286828701613d90565b9150509250925092565b60006020828403121561408d578081fd5b815180151581146124fc578182fd5b6000602082840312156140ad578081fd5b5035919050565b600080604083850312156140c6578182fd5b8235915060208084013567ffffffffffffffff808211156140e5578384fd5b818601915086601f8301126140f8578384fd5b813581811115614106578485fd5b614118601f8201601f1916850161508d565b9150808252878482850101111561412d578485fd5b8084840185840137810190920192909252919491935090915050565b60006020828403121561415a578081fd5b8135600381106124fc578182fd5b6000610100828403121561417a578081fd5b6124fc8383613df8565b6000806101608385031215614197578182fd5b6141a18484613df8565b91506141b1846101008501613f55565b90509250929050565b6000808284036102a08112156141ce578283fd5b610280808212156141dd578384fd5b9395938601359450505050565b600061028082840312156141fc578081fd5b6124fc8383613e7b565b6000806000610340848603121561421b578081fd5b6142258585613e7b565b9250614235856102808601613f55565b9150614245856102e08601613f55565b90509250925092565b6000806102a08385031215614261578182fd5b61426b8484613e7b565b94610280939093013593505050565b60006020828403121561428b578081fd5b5051919050565b600080604083850312156142a4578182fd5b50508035926020909101359150565b60601b6bffffffffffffffffffffffff19169052565b60008151808452815b818110156142ee576020818501810151868301820152016142d2565b818111156142ff5782602083870101525b50601f01601f19169290920160200192915050565b6000815460018082166000811461433257600181146143505761438e565b60028304607f16865260ff198316602087015260408601935061438e565b60028304808752614360866150d4565b60005b828110156143845781546020828b0101528482019150602081019050614363565b8801602001955050505b50505092915050565b60008e82526bffffffffffffffffffffffff19808f60601b166020840152808e60601b1660348401526143cd604884018e6142b3565b60609b909b1b909a16605c8201526070810198909852609088019690965260b087019490945260d086019290925260f08501526101108401526101308301526101508201526101700195945050505050565b9788526bffffffffffffffffffffffff19606097881b811660208a01529590961b909416603487015260488601929092526068850152608884015260a883015260c882015260e80190565b600080845460018082166000811461448957600181146144a0576144cf565b60ff198316865260028304607f16860193506144cf565b600283048886526020808720875b838110156144c75781548a8201529085019082016144ae565b505050860193505b5050509283525050602001919050565b7f19457468657265756d205369676e6564204d6573736167653a0a3332000000008152601c810191909152603c0190565b6001600160a01b0391909116815260200190565b6001600160a01b03978816815295871660208701529390951660408501526060840191909152608083015260a082019290925260c081019190915260e00190565b6001600160a01b038c811682528b81166020830152604082018b9052891660608201526080810188905260a081018790526101608101600387106145a557fe5b8660c08301528560e08301528461010083015283610120830152600583106145c957fe5b826101408301529c9b505050505050505050505050565b6001600160a01b039384168152919092166020820152604081019190915260600190565b6001600160a01b03929092168252602082015260400190565b6020808252825182820181905260009190848201906040850190845b8181101561465557835183529284019291840191600101614639565b50909695505050505050565b901515815260200190565b90815260200190565b93845260ff9290921660208401526040830152606082015260800190565b6000602082526124fc60208301846142c9565b6000602082526124fc6020830184614314565b60608101600885106146c757fe5b938152602081019290925260409091015290565b60208101600283106146e957fe5b91905290565b6020808252601c908201527f596f7520646f6e2774206861766520656e6f67687420746f6b656e7300000000604082015260600190565b60208082526021908201527f446973707574652068617320616c7265616479206265656e20637265617465646040820152601760f91b606082015260800190565b60208082526026908201527f54686520646973707574652068617320616c7265616479206265656e2072657360408201526537b63b32b21760d11b606082015260800190565b60208082526010908201526f105b1c9958591e48185c1c1c9bdd995960821b604082015260600190565b60208082526032908201527f4d757374206e6f742073656e642065766964656e63652069662074686520646960408201527139b83aba329034b9903932b9b7b63b32b21760711b606082015260800190565b60208082526026908201527f4f776e61626c653a206e6577206f776e657220697320746865207a65726f206160408201526564647265737360d01b606082015260800190565b6020808252818101527f54696d656f75742074696d6520686173206e6f7420706173736564207965742e604082015260600190565b6020808252600f908201526e24b73b30b634b210393ab634b7339760891b604082015260600190565b6020808252601c908201527f57617272616e74792074696d65206861732074696d6564206f75742e00000000604082015260600190565b6020808252600d908201526c496e76616c696420706861736560981b604082015260600190565b60208082526031908201527f5468652070726f7365637574696f6e20666565206d75737420636f7665722061604082015270393134ba3930ba34b7b71031b7b9ba399760791b606082015260800190565b6020808252601e908201527f596f75206d75737420626520746865206c697374696e672073656c6c65720000604082015260600190565b6020808252601b908201527f596f7520646f6e2774206861766520656e6f6768742066756e64730000000000604082015260600190565b60208082526025908201527f44697370757465206973206e6f742077616974696e6720666f7220616e79207060408201526430b93a3c9760d91b606082015260800190565b60208082526026908201527f54686520607472616e73666572602066756e6374696f6e206d757374206e6f74604082015265103330b4b61760d11b606082015260800190565b60208082526017908201527f4f6e6c792062757965722063616e20646973707574652e000000000000000000604082015260600190565b60208082526018908201527f4f6e6c792073656c6c65722063616e20646973707574652e0000000000000000604082015260600190565b60208082526021908201527f4c697374696e672068617320616c7265616479206265656e207265706f7274656040820152601960fa1b606082015260800190565b6020808252818101527f4f776e61626c653a2063616c6c6572206973206e6f7420746865206f776e6572604082015260600190565b6020808252601a908201527f53656e646572206973206e6f74206f72646572207369676e6572000000000000604082015260600190565b6020808252601e908201527f5468652063616c6c6572206d757374206265207468652073656e6465722e0000604082015260600190565b6020808252818101527f436f6e6669726d6174696f6e2074696d65206861732074696d6564206f75742e604082015260600190565b6020808252601c908201527f53656e646572206973206e6f74206c697374696e67207369676e657200000000604082015260600190565b6020808252602b908201527f526566756e642063616e27742062652067726561746572207468616e20746f7460408201526a30b61030b63637bbb2b21760a91b606082015260800190565b6020808252602f908201527f45766964656e63657320617265206f6e6c7920616c6c6f77656420666f72206f60408201526e393232b939903234b9b83aba32b99760891b606082015260800190565b60208082526027908201527f596f7520617265206e6f7420616c6c6f77656420746f207265706f7274206c6960408201526639ba34b733b99760c91b606082015260800190565b6020808252602a908201527f56616c7565206d7573742062652067726561746572207468616e2061726269746040820152691c985d1a5bdb90dbdcdd60b21b606082015260800190565b6020808252602f908201527f596f75206d7573742062652073656c6c6572206f7220627579657220696e207460408201526e3432903934b3b43a10383430b9b29760891b606082015260800190565b6020808252600d908201526c24b73b30b634b21037b93232b960991b604082015260600190565b6020808252602d908201527f41707065616c7320617265206f6e6c7920616c6c6f77656420666f72206f726460408201526c32b939903234b9b83aba32b99760991b606082015260800190565b6020808252601190820152702cb7ba9036bab9ba10313290313abcb2b960791b604082015260600190565b6020808252818101527f4f7264657220616c726561647920686173206265656e2070726f636573736564604082015260600190565b60208082526022908201527f5468652063616c6c6572206d757374206265207468652061726269747261746f604082015261391760f11b606082015260800190565b60208082526021908201527f4661696c656420746f207472616e7366657220627579657227732066756e64736040820152601760f91b606082015260800190565b60208082526019908201527f556e61626c6520746f207472616e7366657220746f6b656e7300000000000000604082015260600190565b6020808252600f908201526e496e76616c6964206c697374696e6760881b604082015260600190565b60208082526034908201527f5468652063616c6c6572206d757374206265207468652070726f73656375746960408201527337b71037b9103a3432903232b332b73230b73a1760611b606082015260800190565b6020808252602e908201527f596f752063616e2774207265706f727420796f757273656c662e20557365206360408201526d616e63656c4c697374696e67282960901b606082015260800190565b600083825260406020830152613ff06040830184614314565b918252602082015260400190565b9283526020830191909152604082015260600190565b8481526020810184905260408101839052608081016006831061506257fe5b82606083015295945050505050565b600060ff8416825260406020830152613ff06040830184614314565b60405181810167ffffffffffffffff811182821017156150ac57600080fd5b604052919050565b600067ffffffffffffffff8211156150ca578081fd5b5060209081020190565b60009081526020902090565b6001600160a01b03811681146150f557600080fd5b5056fea2646970667358221220e21627aafe0270391e8fb9393978b3d93a93658d9636aee624fa6d5c1f6171b964736f6c634300060c0033",
  "immutableReferences": {},
  "source": "// SPDX-License-Identifier: MIT\npragma solidity ^0.6.0;\npragma experimental ABIEncoderV2;\n\nimport \"./KlerosDagora.sol\";\n\nimport \"@opengsn/gsn/contracts/BaseRelayRecipient.sol\";\nimport \"@opengsn/gsn/contracts/interfaces/IKnowForwarderAddress.sol\";\n\ncontract GSNDagora is KlerosDagora, BaseRelayRecipient, IKnowForwarderAddress {\n    constructor(\n        address _forwarder,\n        address _arbitrator,\n        address _token,\n        address _protocolFeeRecipient,\n        uint256 _feeTimeoutDays,\n        uint256 _blacklistTimeoutDays,\n        uint256 _protocolFeePercentage,\n        uint256 _tokenOwnerFeePercentage,\n        bytes memory _reportExtraData,\n        bytes memory _orderExtraData,\n        string memory _ipfsDomain\n    )\n        public\n        KlerosDagora(\n            _arbitrator,\n            _token,\n            _protocolFeeRecipient,\n            _feeTimeoutDays,\n            _blacklistTimeoutDays,\n            _protocolFeePercentage,\n            _tokenOwnerFeePercentage,\n            _reportExtraData,\n            _orderExtraData,\n            _ipfsDomain\n        )\n    {\n        trustedForwarder = _forwarder;\n    }\n\n    function setTrustedForwarder(address _forwarder) external {\n        trustedForwarder = _forwarder;\n    }\n\n    function getTrustedForwarder() external override view returns (address) {\n        return trustedForwarder;\n    }\n\n    function _msgSender()\n        internal\n        override(Context, BaseRelayRecipient)\n        view\n        returns (address payable)\n    {\n        return BaseRelayRecipient._msgSender();\n    }\n\n    function versionRecipient() external override view returns (string memory) {\n        return \"1.0\";\n    }\n}\n",
  "sourcePath": "/home/gustavo/projects/dagora/contracts/marketplace/GSNDagora.sol",
  "compiler": {
    "name": "solc",
    "version": "0.6.12+commit.27d51765.Emscripten.clang"
  },
  "schemaVersion": "3.2.3",
  "updatedAt": "2020-08-08T05:06:43.612Z",
  "devdoc": {
    "kind": "dev",
    "methods": {
      "appeal(bytes32)": {
        "details": "Appeal an appealable ruling. UNTRUSTED.  Transfer the funds to the arbitrator.  Note that no checks are required as the checks are done by the arbitrator.",
        "params": {
          "_hash": "The hash of the order."
        }
      },
      "owner()": {
        "details": "Returns the address of the current owner."
      },
      "renounceOwnership()": {
        "details": "Leaves the contract without owner. It will not be possible to call `onlyOwner` functions anymore. Can only be called by the current owner. NOTE: Renouncing ownership will leave the contract without an owner, thereby removing any functionality that is only available to the owner."
      },
      "rule(uint256,uint256)": {
        "details": "Give a ruling for a dispute. Must be called by the arbitrator.  The purpose of this function is to ensure that the address calling it has the right to rule on the contract.",
        "params": {
          "_disputeID": "ID of the dispute in the Arbitrator contract.",
          "_ruling": "Ruling given by the arbitrator. Note that 0 is reserved for \"Not able/wanting to make a decision\"."
        }
      },
      "submitEvidence(bytes32,string)": {
        "details": "Submit a reference to evidence. EVENT.",
        "params": {
          "_evidence": "A link to an evidence using its URI.",
          "_hash": "The hash of the order."
        }
      },
      "transferOwnership(address)": {
        "details": "Transfers ownership of the contract to a new account (`newOwner`). Can only be called by the current owner."
      }
    },
    "version": 1
  },
  "userdoc": {
    "kind": "user",
    "methods": {
      "getTrustedForwarder()": {
        "notice": "return the forwarder we trust to forward relayed transactions to us. the forwarder is required to verify the sender's signature, and verify the call is not a replay."
      },
      "isTrustedForwarder(address)": {
        "notice": "return if the forwarder is trusted to forward relayed transactions to us. the forwarder is required to verify the sender's signature, and verify the call is not a replay."
      }
    },
    "version": 1
  }
}