{
  "contractName": "KlerosDagora",
  "abi": [
    {
      "inputs": [
        {
          "internalType": "address",
          "name": "_arbitrator",
          "type": "address"
        },
        {
          "internalType": "address",
          "name": "_token",
          "type": "address"
        },
        {
          "internalType": "address",
          "name": "_protocolFeeRecipient",
          "type": "address"
        },
        {
          "internalType": "uint256",
          "name": "_feeTimeoutDays",
          "type": "uint256"
        },
        {
          "internalType": "uint256",
          "name": "_blacklistTimeoutDays",
          "type": "uint256"
        },
        {
          "internalType": "uint256",
          "name": "_protocolFeePercentage",
          "type": "uint256"
        },
        {
          "internalType": "uint256",
          "name": "_tokenOwnerFeePercentage",
          "type": "uint256"
        },
        {
          "internalType": "bytes",
          "name": "_reportExtraData",
          "type": "bytes"
        },
        {
          "internalType": "bytes",
          "name": "_orderExtraData",
          "type": "bytes"
        },
        {
          "internalType": "string",
          "name": "_ipfsDomain",
          "type": "string"
        }
      ],
      "stateMutability": "nonpayable",
      "type": "constructor"
    },
    {
      "anonymous": false,
      "inputs": [
        {
          "indexed": true,
          "internalType": "contract Arbitrator",
          "name": "_arbitrator",
          "type": "address"
        },
        {
          "indexed": true,
          "internalType": "uint256",
          "name": "_disputeID",
          "type": "uint256"
        },
        {
          "indexed": false,
          "internalType": "uint256",
          "name": "_metaEvidenceID",
          "type": "uint256"
        },
        {
          "indexed": false,
          "internalType": "uint256",
          "name": "_evidenceGroupID",
          "type": "uint256"
        }
      ],
      "name": "Dispute",
      "type": "event"
    },
    {
      "anonymous": false,
      "inputs": [
        {
          "indexed": true,
          "internalType": "contract Arbitrator",
          "name": "_arbitrator",
          "type": "address"
        },
        {
          "indexed": true,
          "internalType": "uint256",
          "name": "_evidenceGroupID",
          "type": "uint256"
        },
        {
          "indexed": true,
          "internalType": "address",
          "name": "_party",
          "type": "address"
        },
        {
          "indexed": false,
          "internalType": "string",
          "name": "_evidence",
          "type": "string"
        }
      ],
      "name": "Evidence",
      "type": "event"
    },
    {
      "anonymous": false,
      "inputs": [
        {
          "indexed": true,
          "internalType": "bytes32",
          "name": "_hash",
          "type": "bytes32"
        },
        {
          "indexed": false,
          "internalType": "enum Dagora.Party",
          "name": "_party",
          "type": "uint8"
        }
      ],
      "name": "HasToPayFee",
      "type": "event"
    },
    {
      "anonymous": false,
      "inputs": [
        {
          "indexed": true,
          "internalType": "bytes32",
          "name": "hash",
          "type": "bytes32"
        }
      ],
      "name": "ListingApproved",
      "type": "event"
    },
    {
      "anonymous": false,
      "inputs": [
        {
          "indexed": true,
          "internalType": "bytes32",
          "name": "hash",
          "type": "bytes32"
        }
      ],
      "name": "ListingCancelled",
      "type": "event"
    },
    {
      "anonymous": false,
      "inputs": [
        {
          "indexed": true,
          "internalType": "uint256",
          "name": "_metaEvidenceID",
          "type": "uint256"
        },
        {
          "indexed": false,
          "internalType": "string",
          "name": "_evidence",
          "type": "string"
        }
      ],
      "name": "MetaEvidence",
      "type": "event"
    },
    {
      "anonymous": false,
      "inputs": [
        {
          "indexed": true,
          "internalType": "bytes32",
          "name": "hash",
          "type": "bytes32"
        }
      ],
      "name": "OrderApproved",
      "type": "event"
    },
    {
      "anonymous": false,
      "inputs": [
        {
          "indexed": true,
          "internalType": "bytes32",
          "name": "hash",
          "type": "bytes32"
        }
      ],
      "name": "OrderCancelled",
      "type": "event"
    },
    {
      "anonymous": false,
      "inputs": [
        {
          "indexed": true,
          "internalType": "address",
          "name": "previousOwner",
          "type": "address"
        },
        {
          "indexed": true,
          "internalType": "address",
          "name": "newOwner",
          "type": "address"
        }
      ],
      "name": "OwnershipTransferred",
      "type": "event"
    },
    {
      "anonymous": false,
      "inputs": [
        {
          "indexed": true,
          "internalType": "contract Arbitrator",
          "name": "_arbitrator",
          "type": "address"
        },
        {
          "indexed": true,
          "internalType": "uint256",
          "name": "_disputeID",
          "type": "uint256"
        },
        {
          "indexed": false,
          "internalType": "uint256",
          "name": "_ruling",
          "type": "uint256"
        }
      ],
      "name": "Ruling",
      "type": "event"
    },
    {
      "anonymous": false,
      "inputs": [
        {
          "indexed": true,
          "internalType": "address",
          "name": "sender",
          "type": "address"
        },
        {
          "indexed": false,
          "internalType": "uint256",
          "name": "value",
          "type": "uint256"
        }
      ],
      "name": "TokenDeposited",
      "type": "event"
    },
    {
      "anonymous": false,
      "inputs": [
        {
          "indexed": true,
          "internalType": "address",
          "name": "addr",
          "type": "address"
        }
      ],
      "name": "TokenGranted",
      "type": "event"
    },
    {
      "anonymous": false,
      "inputs": [
        {
          "indexed": true,
          "internalType": "address",
          "name": "addr",
          "type": "address"
        }
      ],
      "name": "TokenRevoked",
      "type": "event"
    },
    {
      "anonymous": false,
      "inputs": [
        {
          "indexed": true,
          "internalType": "address",
          "name": "sender",
          "type": "address"
        },
        {
          "indexed": false,
          "internalType": "uint256",
          "name": "value",
          "type": "uint256"
        }
      ],
      "name": "TokenWithdrawed",
      "type": "event"
    },
    {
      "anonymous": false,
      "inputs": [
        {
          "indexed": true,
          "internalType": "bytes32",
          "name": "hash",
          "type": "bytes32"
        },
        {
          "indexed": true,
          "internalType": "address",
          "name": "buyer",
          "type": "address"
        },
        {
          "indexed": true,
          "internalType": "address",
          "name": "seller",
          "type": "address"
        },
        {
          "indexed": false,
          "internalType": "address",
          "name": "stakeOwner",
          "type": "address"
        },
        {
          "indexed": false,
          "internalType": "address",
          "name": "commissioner",
          "type": "address"
        },
        {
          "indexed": false,
          "internalType": "contract ERC20",
          "name": "token",
          "type": "address"
        },
        {
          "indexed": false,
          "internalType": "uint256",
          "name": "total",
          "type": "uint256"
        },
        {
          "indexed": false,
          "internalType": "uint256",
          "name": "commissionPercentage",
          "type": "uint256"
        },
        {
          "indexed": false,
          "internalType": "uint256",
          "name": "cashbackPercentage",
          "type": "uint256"
        },
        {
          "indexed": false,
          "internalType": "uint256",
          "name": "confirmationTimeout",
          "type": "uint256"
        }
      ],
      "name": "TransactionCreated",
      "type": "event"
    },
    {
      "anonymous": false,
      "inputs": [
        {
          "indexed": true,
          "internalType": "bytes32",
          "name": "hash",
          "type": "bytes32"
        }
      ],
      "name": "TransactionFinalized",
      "type": "event"
    },
    {
      "anonymous": false,
      "inputs": [
        {
          "indexed": true,
          "internalType": "bytes32",
          "name": "hash",
          "type": "bytes32"
        },
        {
          "indexed": false,
          "internalType": "uint256",
          "name": "value",
          "type": "uint256"
        }
      ],
      "name": "TransactionRefunded",
      "type": "event"
    },
    {
      "anonymous": false,
      "inputs": [
        {
          "indexed": true,
          "internalType": "bytes32",
          "name": "hash",
          "type": "bytes32"
        }
      ],
      "name": "WarrantyClaimed",
      "type": "event"
    },
    {
      "inputs": [],
      "name": "INVERSE_BASIS_POINT",
      "outputs": [
        {
          "internalType": "uint256",
          "name": "",
          "type": "uint256"
        }
      ],
      "stateMutability": "view",
      "type": "function"
    },
    {
      "inputs": [
        {
          "components": [
            {
              "internalType": "bytes32",
              "name": "ipfsHash",
              "type": "bytes32"
            },
            {
              "internalType": "address payable",
              "name": "seller",
              "type": "address"
            },
            {
              "internalType": "address payable",
              "name": "stakeOwner",
              "type": "address"
            },
            {
              "internalType": "uint256",
              "name": "stakedAmount",
              "type": "uint256"
            },
            {
              "internalType": "uint256",
              "name": "commissionPercentage",
              "type": "uint256"
            },
            {
              "internalType": "uint256",
              "name": "warranty",
              "type": "uint256"
            },
            {
              "internalType": "uint256",
              "name": "cashbackPercentage",
              "type": "uint256"
            },
            {
              "internalType": "uint256",
              "name": "expiration",
              "type": "uint256"
            }
          ],
          "internalType": "struct Dagora.Listing",
          "name": "_listing",
          "type": "tuple"
        }
      ],
      "name": "approveListing",
      "outputs": [
        {
          "internalType": "bool",
          "name": "",
          "type": "bool"
        }
      ],
      "stateMutability": "nonpayable",
      "type": "function"
    },
    {
      "inputs": [
        {
          "components": [
            {
              "components": [
                {
                  "internalType": "bytes32",
                  "name": "ipfsHash",
                  "type": "bytes32"
                },
                {
                  "internalType": "address payable",
                  "name": "seller",
                  "type": "address"
                },
                {
                  "internalType": "address payable",
                  "name": "stakeOwner",
                  "type": "address"
                },
                {
                  "internalType": "uint256",
                  "name": "stakedAmount",
                  "type": "uint256"
                },
                {
                  "internalType": "uint256",
                  "name": "commissionPercentage",
                  "type": "uint256"
                },
                {
                  "internalType": "uint256",
                  "name": "warranty",
                  "type": "uint256"
                },
                {
                  "internalType": "uint256",
                  "name": "cashbackPercentage",
                  "type": "uint256"
                },
                {
                  "internalType": "uint256",
                  "name": "expiration",
                  "type": "uint256"
                }
              ],
              "internalType": "struct Dagora.Listing",
              "name": "listing",
              "type": "tuple"
            },
            {
              "internalType": "address payable",
              "name": "fundsHolder",
              "type": "address"
            },
            {
              "internalType": "address payable",
              "name": "buyer",
              "type": "address"
            },
            {
              "internalType": "address payable",
              "name": "commissioner",
              "type": "address"
            },
            {
              "internalType": "contract ERC20",
              "name": "token",
              "type": "address"
            },
            {
              "internalType": "uint256",
              "name": "total",
              "type": "uint256"
            },
            {
              "internalType": "uint256",
              "name": "cashback",
              "type": "uint256"
            },
            {
              "internalType": "uint256",
              "name": "commission",
              "type": "uint256"
            },
            {
              "internalType": "uint256",
              "name": "protocolFee",
              "type": "uint256"
            },
            {
              "internalType": "uint256",
              "name": "stakeHolderFee",
              "type": "uint256"
            },
            {
              "internalType": "uint256",
              "name": "expiration",
              "type": "uint256"
            },
            {
              "internalType": "uint256",
              "name": "confirmationTimeout",
              "type": "uint256"
            },
            {
              "internalType": "uint256",
              "name": "timestamp",
              "type": "uint256"
            }
          ],
          "internalType": "struct Dagora.Order",
          "name": "order",
          "type": "tuple"
        }
      ],
      "name": "approveOrder",
      "outputs": [
        {
          "internalType": "bool",
          "name": "",
          "type": "bool"
        }
      ],
      "stateMutability": "nonpayable",
      "type": "function"
    },
    {
      "inputs": [
        {
          "internalType": "bytes32",
          "name": "",
          "type": "bytes32"
        }
      ],
      "name": "approvedHashes",
      "outputs": [
        {
          "internalType": "bool",
          "name": "",
          "type": "bool"
        }
      ],
      "stateMutability": "view",
      "type": "function"
    },
    {
      "inputs": [],
      "name": "arbitrator",
      "outputs": [
        {
          "internalType": "contract Arbitrator",
          "name": "",
          "type": "address"
        }
      ],
      "stateMutability": "view",
      "type": "function"
    },
    {
      "inputs": [
        {
          "components": [
            {
              "components": [
                {
                  "internalType": "bytes32",
                  "name": "ipfsHash",
                  "type": "bytes32"
                },
                {
                  "internalType": "address payable",
                  "name": "seller",
                  "type": "address"
                },
                {
                  "internalType": "address payable",
                  "name": "stakeOwner",
                  "type": "address"
                },
                {
                  "internalType": "uint256",
                  "name": "stakedAmount",
                  "type": "uint256"
                },
                {
                  "internalType": "uint256",
                  "name": "commissionPercentage",
                  "type": "uint256"
                },
                {
                  "internalType": "uint256",
                  "name": "warranty",
                  "type": "uint256"
                },
                {
                  "internalType": "uint256",
                  "name": "cashbackPercentage",
                  "type": "uint256"
                },
                {
                  "internalType": "uint256",
                  "name": "expiration",
                  "type": "uint256"
                }
              ],
              "internalType": "struct Dagora.Listing",
              "name": "listing",
              "type": "tuple"
            },
            {
              "internalType": "address payable",
              "name": "fundsHolder",
              "type": "address"
            },
            {
              "internalType": "address payable",
              "name": "buyer",
              "type": "address"
            },
            {
              "internalType": "address payable",
              "name": "commissioner",
              "type": "address"
            },
            {
              "internalType": "contract ERC20",
              "name": "token",
              "type": "address"
            },
            {
              "internalType": "uint256",
              "name": "total",
              "type": "uint256"
            },
            {
              "internalType": "uint256",
              "name": "cashback",
              "type": "uint256"
            },
            {
              "internalType": "uint256",
              "name": "commission",
              "type": "uint256"
            },
            {
              "internalType": "uint256",
              "name": "protocolFee",
              "type": "uint256"
            },
            {
              "internalType": "uint256",
              "name": "stakeHolderFee",
              "type": "uint256"
            },
            {
              "internalType": "uint256",
              "name": "expiration",
              "type": "uint256"
            },
            {
              "internalType": "uint256",
              "name": "confirmationTimeout",
              "type": "uint256"
            },
            {
              "internalType": "uint256",
              "name": "timestamp",
              "type": "uint256"
            }
          ],
          "internalType": "struct Dagora.Order",
          "name": "_order",
          "type": "tuple"
        }
      ],
      "name": "availableToken",
      "outputs": [
        {
          "internalType": "uint256",
          "name": "",
          "type": "uint256"
        }
      ],
      "stateMutability": "view",
      "type": "function"
    },
    {
      "inputs": [
        {
          "components": [
            {
              "components": [
                {
                  "internalType": "bytes32",
                  "name": "ipfsHash",
                  "type": "bytes32"
                },
                {
                  "internalType": "address payable",
                  "name": "seller",
                  "type": "address"
                },
                {
                  "internalType": "address payable",
                  "name": "stakeOwner",
                  "type": "address"
                },
                {
                  "internalType": "uint256",
                  "name": "stakedAmount",
                  "type": "uint256"
                },
                {
                  "internalType": "uint256",
                  "name": "commissionPercentage",
                  "type": "uint256"
                },
                {
                  "internalType": "uint256",
                  "name": "warranty",
                  "type": "uint256"
                },
                {
                  "internalType": "uint256",
                  "name": "cashbackPercentage",
                  "type": "uint256"
                },
                {
                  "internalType": "uint256",
                  "name": "expiration",
                  "type": "uint256"
                }
              ],
              "internalType": "struct Dagora.Listing",
              "name": "listing",
              "type": "tuple"
            },
            {
              "internalType": "address payable",
              "name": "fundsHolder",
              "type": "address"
            },
            {
              "internalType": "address payable",
              "name": "buyer",
              "type": "address"
            },
            {
              "internalType": "address payable",
              "name": "commissioner",
              "type": "address"
            },
            {
              "internalType": "contract ERC20",
              "name": "token",
              "type": "address"
            },
            {
              "internalType": "uint256",
              "name": "total",
              "type": "uint256"
            },
            {
              "internalType": "uint256",
              "name": "cashback",
              "type": "uint256"
            },
            {
              "internalType": "uint256",
              "name": "commission",
              "type": "uint256"
            },
            {
              "internalType": "uint256",
              "name": "protocolFee",
              "type": "uint256"
            },
            {
              "internalType": "uint256",
              "name": "stakeHolderFee",
              "type": "uint256"
            },
            {
              "internalType": "uint256",
              "name": "expiration",
              "type": "uint256"
            },
            {
              "internalType": "uint256",
              "name": "confirmationTimeout",
              "type": "uint256"
            },
            {
              "internalType": "uint256",
              "name": "timestamp",
              "type": "uint256"
            }
          ],
          "internalType": "struct Dagora.Order[]",
          "name": "orders",
          "type": "tuple[]"
        },
        {
          "components": [
            {
              "internalType": "uint8",
              "name": "v",
              "type": "uint8"
            },
            {
              "internalType": "bytes32",
              "name": "r",
              "type": "bytes32"
            },
            {
              "internalType": "bytes32",
              "name": "s",
              "type": "bytes32"
            }
          ],
          "internalType": "struct Dagora.Sig[]",
          "name": "orderSignatures",
          "type": "tuple[]"
        },
        {
          "components": [
            {
              "internalType": "uint8",
              "name": "v",
              "type": "uint8"
            },
            {
              "internalType": "bytes32",
              "name": "r",
              "type": "bytes32"
            },
            {
              "internalType": "bytes32",
              "name": "s",
              "type": "bytes32"
            }
          ],
          "internalType": "struct Dagora.Sig[]",
          "name": "listingSignatures",
          "type": "tuple[]"
        }
      ],
      "name": "batchCreateTransaction",
      "outputs": [
        {
          "internalType": "bytes32[]",
          "name": "hashes",
          "type": "bytes32[]"
        }
      ],
      "stateMutability": "nonpayable",
      "type": "function"
    },
    {
      "inputs": [
        {
          "components": [
            {
              "components": [
                {
                  "internalType": "bytes32",
                  "name": "ipfsHash",
                  "type": "bytes32"
                },
                {
                  "internalType": "address payable",
                  "name": "seller",
                  "type": "address"
                },
                {
                  "internalType": "address payable",
                  "name": "stakeOwner",
                  "type": "address"
                },
                {
                  "internalType": "uint256",
                  "name": "stakedAmount",
                  "type": "uint256"
                },
                {
                  "internalType": "uint256",
                  "name": "commissionPercentage",
                  "type": "uint256"
                },
                {
                  "internalType": "uint256",
                  "name": "warranty",
                  "type": "uint256"
                },
                {
                  "internalType": "uint256",
                  "name": "cashbackPercentage",
                  "type": "uint256"
                },
                {
                  "internalType": "uint256",
                  "name": "expiration",
                  "type": "uint256"
                }
              ],
              "internalType": "struct Dagora.Listing",
              "name": "listing",
              "type": "tuple"
            },
            {
              "internalType": "address payable",
              "name": "fundsHolder",
              "type": "address"
            },
            {
              "internalType": "address payable",
              "name": "buyer",
              "type": "address"
            },
            {
              "internalType": "address payable",
              "name": "commissioner",
              "type": "address"
            },
            {
              "internalType": "contract ERC20",
              "name": "token",
              "type": "address"
            },
            {
              "internalType": "uint256",
              "name": "total",
              "type": "uint256"
            },
            {
              "internalType": "uint256",
              "name": "cashback",
              "type": "uint256"
            },
            {
              "internalType": "uint256",
              "name": "commission",
              "type": "uint256"
            },
            {
              "internalType": "uint256",
              "name": "protocolFee",
              "type": "uint256"
            },
            {
              "internalType": "uint256",
              "name": "stakeHolderFee",
              "type": "uint256"
            },
            {
              "internalType": "uint256",
              "name": "expiration",
              "type": "uint256"
            },
            {
              "internalType": "uint256",
              "name": "confirmationTimeout",
              "type": "uint256"
            },
            {
              "internalType": "uint256",
              "name": "timestamp",
              "type": "uint256"
            }
          ],
          "internalType": "struct Dagora.Order[]",
          "name": "orders",
          "type": "tuple[]"
        }
      ],
      "name": "batchExecuteTransaction",
      "outputs": [],
      "stateMutability": "nonpayable",
      "type": "function"
    },
    {
      "inputs": [],
      "name": "blackListTimeout",
      "outputs": [
        {
          "internalType": "uint256",
          "name": "",
          "type": "uint256"
        }
      ],
      "stateMutability": "view",
      "type": "function"
    },
    {
      "inputs": [
        {
          "internalType": "bytes32",
          "name": "",
          "type": "bytes32"
        }
      ],
      "name": "cancelledOrFinalized",
      "outputs": [
        {
          "internalType": "bool",
          "name": "",
          "type": "bool"
        }
      ],
      "stateMutability": "view",
      "type": "function"
    },
    {
      "inputs": [
        {
          "components": [
            {
              "components": [
                {
                  "internalType": "bytes32",
                  "name": "ipfsHash",
                  "type": "bytes32"
                },
                {
                  "internalType": "address payable",
                  "name": "seller",
                  "type": "address"
                },
                {
                  "internalType": "address payable",
                  "name": "stakeOwner",
                  "type": "address"
                },
                {
                  "internalType": "uint256",
                  "name": "stakedAmount",
                  "type": "uint256"
                },
                {
                  "internalType": "uint256",
                  "name": "commissionPercentage",
                  "type": "uint256"
                },
                {
                  "internalType": "uint256",
                  "name": "warranty",
                  "type": "uint256"
                },
                {
                  "internalType": "uint256",
                  "name": "cashbackPercentage",
                  "type": "uint256"
                },
                {
                  "internalType": "uint256",
                  "name": "expiration",
                  "type": "uint256"
                }
              ],
              "internalType": "struct Dagora.Listing",
              "name": "listing",
              "type": "tuple"
            },
            {
              "internalType": "address payable",
              "name": "fundsHolder",
              "type": "address"
            },
            {
              "internalType": "address payable",
              "name": "buyer",
              "type": "address"
            },
            {
              "internalType": "address payable",
              "name": "commissioner",
              "type": "address"
            },
            {
              "internalType": "contract ERC20",
              "name": "token",
              "type": "address"
            },
            {
              "internalType": "uint256",
              "name": "total",
              "type": "uint256"
            },
            {
              "internalType": "uint256",
              "name": "cashback",
              "type": "uint256"
            },
            {
              "internalType": "uint256",
              "name": "commission",
              "type": "uint256"
            },
            {
              "internalType": "uint256",
              "name": "protocolFee",
              "type": "uint256"
            },
            {
              "internalType": "uint256",
              "name": "stakeHolderFee",
              "type": "uint256"
            },
            {
              "internalType": "uint256",
              "name": "expiration",
              "type": "uint256"
            },
            {
              "internalType": "uint256",
              "name": "confirmationTimeout",
              "type": "uint256"
            },
            {
              "internalType": "uint256",
              "name": "timestamp",
              "type": "uint256"
            }
          ],
          "internalType": "struct Dagora.Order",
          "name": "_order",
          "type": "tuple"
        },
        {
          "internalType": "uint256",
          "name": "fee",
          "type": "uint256"
        }
      ],
      "name": "chargeGasFee",
      "outputs": [],
      "stateMutability": "nonpayable",
      "type": "function"
    },
    {
      "inputs": [
        {
          "components": [
            {
              "components": [
                {
                  "internalType": "bytes32",
                  "name": "ipfsHash",
                  "type": "bytes32"
                },
                {
                  "internalType": "address payable",
                  "name": "seller",
                  "type": "address"
                },
                {
                  "internalType": "address payable",
                  "name": "stakeOwner",
                  "type": "address"
                },
                {
                  "internalType": "uint256",
                  "name": "stakedAmount",
                  "type": "uint256"
                },
                {
                  "internalType": "uint256",
                  "name": "commissionPercentage",
                  "type": "uint256"
                },
                {
                  "internalType": "uint256",
                  "name": "warranty",
                  "type": "uint256"
                },
                {
                  "internalType": "uint256",
                  "name": "cashbackPercentage",
                  "type": "uint256"
                },
                {
                  "internalType": "uint256",
                  "name": "expiration",
                  "type": "uint256"
                }
              ],
              "internalType": "struct Dagora.Listing",
              "name": "listing",
              "type": "tuple"
            },
            {
              "internalType": "address payable",
              "name": "fundsHolder",
              "type": "address"
            },
            {
              "internalType": "address payable",
              "name": "buyer",
              "type": "address"
            },
            {
              "internalType": "address payable",
              "name": "commissioner",
              "type": "address"
            },
            {
              "internalType": "contract ERC20",
              "name": "token",
              "type": "address"
            },
            {
              "internalType": "uint256",
              "name": "total",
              "type": "uint256"
            },
            {
              "internalType": "uint256",
              "name": "cashback",
              "type": "uint256"
            },
            {
              "internalType": "uint256",
              "name": "commission",
              "type": "uint256"
            },
            {
              "internalType": "uint256",
              "name": "protocolFee",
              "type": "uint256"
            },
            {
              "internalType": "uint256",
              "name": "stakeHolderFee",
              "type": "uint256"
            },
            {
              "internalType": "uint256",
              "name": "expiration",
              "type": "uint256"
            },
            {
              "internalType": "uint256",
              "name": "confirmationTimeout",
              "type": "uint256"
            },
            {
              "internalType": "uint256",
              "name": "timestamp",
              "type": "uint256"
            }
          ],
          "internalType": "struct Dagora.Order",
          "name": "_order",
          "type": "tuple"
        }
      ],
      "name": "claimWarranty",
      "outputs": [],
      "stateMutability": "nonpayable",
      "type": "function"
    },
    {
      "inputs": [
        {
          "components": [
            {
              "components": [
                {
                  "internalType": "bytes32",
                  "name": "ipfsHash",
                  "type": "bytes32"
                },
                {
                  "internalType": "address payable",
                  "name": "seller",
                  "type": "address"
                },
                {
                  "internalType": "address payable",
                  "name": "stakeOwner",
                  "type": "address"
                },
                {
                  "internalType": "uint256",
                  "name": "stakedAmount",
                  "type": "uint256"
                },
                {
                  "internalType": "uint256",
                  "name": "commissionPercentage",
                  "type": "uint256"
                },
                {
                  "internalType": "uint256",
                  "name": "warranty",
                  "type": "uint256"
                },
                {
                  "internalType": "uint256",
                  "name": "cashbackPercentage",
                  "type": "uint256"
                },
                {
                  "internalType": "uint256",
                  "name": "expiration",
                  "type": "uint256"
                }
              ],
              "internalType": "struct Dagora.Listing",
              "name": "listing",
              "type": "tuple"
            },
            {
              "internalType": "address payable",
              "name": "fundsHolder",
              "type": "address"
            },
            {
              "internalType": "address payable",
              "name": "buyer",
              "type": "address"
            },
            {
              "internalType": "address payable",
              "name": "commissioner",
              "type": "address"
            },
            {
              "internalType": "contract ERC20",
              "name": "token",
              "type": "address"
            },
            {
              "internalType": "uint256",
              "name": "total",
              "type": "uint256"
            },
            {
              "internalType": "uint256",
              "name": "cashback",
              "type": "uint256"
            },
            {
              "internalType": "uint256",
              "name": "commission",
              "type": "uint256"
            },
            {
              "internalType": "uint256",
              "name": "protocolFee",
              "type": "uint256"
            },
            {
              "internalType": "uint256",
              "name": "stakeHolderFee",
              "type": "uint256"
            },
            {
              "internalType": "uint256",
              "name": "expiration",
              "type": "uint256"
            },
            {
              "internalType": "uint256",
              "name": "confirmationTimeout",
              "type": "uint256"
            },
            {
              "internalType": "uint256",
              "name": "timestamp",
              "type": "uint256"
            }
          ],
          "internalType": "struct Dagora.Order",
          "name": "_order",
          "type": "tuple"
        }
      ],
      "name": "confirmReceipt",
      "outputs": [],
      "stateMutability": "nonpayable",
      "type": "function"
    },
    {
      "inputs": [
        {
          "internalType": "address",
          "name": "",
          "type": "address"
        }
      ],
      "name": "contracts",
      "outputs": [
        {
          "internalType": "bool",
          "name": "",
          "type": "bool"
        }
      ],
      "stateMutability": "view",
      "type": "function"
    },
    {
      "inputs": [
        {
          "components": [
            {
              "components": [
                {
                  "internalType": "bytes32",
                  "name": "ipfsHash",
                  "type": "bytes32"
                },
                {
                  "internalType": "address payable",
                  "name": "seller",
                  "type": "address"
                },
                {
                  "internalType": "address payable",
                  "name": "stakeOwner",
                  "type": "address"
                },
                {
                  "internalType": "uint256",
                  "name": "stakedAmount",
                  "type": "uint256"
                },
                {
                  "internalType": "uint256",
                  "name": "commissionPercentage",
                  "type": "uint256"
                },
                {
                  "internalType": "uint256",
                  "name": "warranty",
                  "type": "uint256"
                },
                {
                  "internalType": "uint256",
                  "name": "cashbackPercentage",
                  "type": "uint256"
                },
                {
                  "internalType": "uint256",
                  "name": "expiration",
                  "type": "uint256"
                }
              ],
              "internalType": "struct Dagora.Listing",
              "name": "listing",
              "type": "tuple"
            },
            {
              "internalType": "address payable",
              "name": "fundsHolder",
              "type": "address"
            },
            {
              "internalType": "address payable",
              "name": "buyer",
              "type": "address"
            },
            {
              "internalType": "address payable",
              "name": "commissioner",
              "type": "address"
            },
            {
              "internalType": "contract ERC20",
              "name": "token",
              "type": "address"
            },
            {
              "internalType": "uint256",
              "name": "total",
              "type": "uint256"
            },
            {
              "internalType": "uint256",
              "name": "cashback",
              "type": "uint256"
            },
            {
              "internalType": "uint256",
              "name": "commission",
              "type": "uint256"
            },
            {
              "internalType": "uint256",
              "name": "protocolFee",
              "type": "uint256"
            },
            {
              "internalType": "uint256",
              "name": "stakeHolderFee",
              "type": "uint256"
            },
            {
              "internalType": "uint256",
              "name": "expiration",
              "type": "uint256"
            },
            {
              "internalType": "uint256",
              "name": "confirmationTimeout",
              "type": "uint256"
            },
            {
              "internalType": "uint256",
              "name": "timestamp",
              "type": "uint256"
            }
          ],
          "internalType": "struct Dagora.Order",
          "name": "_order",
          "type": "tuple"
        },
        {
          "components": [
            {
              "internalType": "uint8",
              "name": "v",
              "type": "uint8"
            },
            {
              "internalType": "bytes32",
              "name": "r",
              "type": "bytes32"
            },
            {
              "internalType": "bytes32",
              "name": "s",
              "type": "bytes32"
            }
          ],
          "internalType": "struct Dagora.Sig",
          "name": "orderSig",
          "type": "tuple"
        },
        {
          "components": [
            {
              "internalType": "uint8",
              "name": "v",
              "type": "uint8"
            },
            {
              "internalType": "bytes32",
              "name": "r",
              "type": "bytes32"
            },
            {
              "internalType": "bytes32",
              "name": "s",
              "type": "bytes32"
            }
          ],
          "internalType": "struct Dagora.Sig",
          "name": "listingSig",
          "type": "tuple"
        }
      ],
      "name": "createTransaction",
      "outputs": [
        {
          "internalType": "bytes32",
          "name": "hash",
          "type": "bytes32"
        }
      ],
      "stateMutability": "nonpayable",
      "type": "function"
    },
    {
      "inputs": [
        {
          "internalType": "uint256",
          "name": "value",
          "type": "uint256"
        }
      ],
      "name": "depositTokens",
      "outputs": [],
      "stateMutability": "nonpayable",
      "type": "function"
    },
    {
      "inputs": [
        {
          "internalType": "uint256",
          "name": "",
          "type": "uint256"
        }
      ],
      "name": "disputeIDtoHash",
      "outputs": [
        {
          "internalType": "bytes32",
          "name": "",
          "type": "bytes32"
        }
      ],
      "stateMutability": "view",
      "type": "function"
    },
    {
      "inputs": [
        {
          "internalType": "bytes32",
          "name": "hash",
          "type": "bytes32"
        }
      ],
      "name": "disputeTimeout",
      "outputs": [],
      "stateMutability": "nonpayable",
      "type": "function"
    },
    {
      "inputs": [
        {
          "internalType": "bytes32",
          "name": "",
          "type": "bytes32"
        }
      ],
      "name": "disputes",
      "outputs": [
        {
          "internalType": "address payable",
          "name": "prosecution",
          "type": "address"
        },
        {
          "internalType": "address payable",
          "name": "defendant",
          "type": "address"
        },
        {
          "internalType": "uint256",
          "name": "amount",
          "type": "uint256"
        },
        {
          "internalType": "contract ERC20",
          "name": "token",
          "type": "address"
        },
        {
          "internalType": "uint256",
          "name": "prosecutionFee",
          "type": "uint256"
        },
        {
          "internalType": "uint256",
          "name": "defendantFee",
          "type": "uint256"
        },
        {
          "internalType": "enum Dagora.DisputeType",
          "name": "disputeType",
          "type": "uint8"
        },
        {
          "internalType": "uint256",
          "name": "lastInteraction",
          "type": "uint256"
        },
        {
          "internalType": "uint256",
          "name": "metaEvidenceId",
          "type": "uint256"
        },
        {
          "internalType": "uint256",
          "name": "disputeId",
          "type": "uint256"
        },
        {
          "internalType": "enum Dagora.DisputeStatus",
          "name": "status",
          "type": "uint8"
        }
      ],
      "stateMutability": "view",
      "type": "function"
    },
    {
      "inputs": [
        {
          "components": [
            {
              "components": [
                {
                  "internalType": "bytes32",
                  "name": "ipfsHash",
                  "type": "bytes32"
                },
                {
                  "internalType": "address payable",
                  "name": "seller",
                  "type": "address"
                },
                {
                  "internalType": "address payable",
                  "name": "stakeOwner",
                  "type": "address"
                },
                {
                  "internalType": "uint256",
                  "name": "stakedAmount",
                  "type": "uint256"
                },
                {
                  "internalType": "uint256",
                  "name": "commissionPercentage",
                  "type": "uint256"
                },
                {
                  "internalType": "uint256",
                  "name": "warranty",
                  "type": "uint256"
                },
                {
                  "internalType": "uint256",
                  "name": "cashbackPercentage",
                  "type": "uint256"
                },
                {
                  "internalType": "uint256",
                  "name": "expiration",
                  "type": "uint256"
                }
              ],
              "internalType": "struct Dagora.Listing",
              "name": "listing",
              "type": "tuple"
            },
            {
              "internalType": "address payable",
              "name": "fundsHolder",
              "type": "address"
            },
            {
              "internalType": "address payable",
              "name": "buyer",
              "type": "address"
            },
            {
              "internalType": "address payable",
              "name": "commissioner",
              "type": "address"
            },
            {
              "internalType": "contract ERC20",
              "name": "token",
              "type": "address"
            },
            {
              "internalType": "uint256",
              "name": "total",
              "type": "uint256"
            },
            {
              "internalType": "uint256",
              "name": "cashback",
              "type": "uint256"
            },
            {
              "internalType": "uint256",
              "name": "commission",
              "type": "uint256"
            },
            {
              "internalType": "uint256",
              "name": "protocolFee",
              "type": "uint256"
            },
            {
              "internalType": "uint256",
              "name": "stakeHolderFee",
              "type": "uint256"
            },
            {
              "internalType": "uint256",
              "name": "expiration",
              "type": "uint256"
            },
            {
              "internalType": "uint256",
              "name": "confirmationTimeout",
              "type": "uint256"
            },
            {
              "internalType": "uint256",
              "name": "timestamp",
              "type": "uint256"
            }
          ],
          "internalType": "struct Dagora.Order",
          "name": "_order",
          "type": "tuple"
        }
      ],
      "name": "executeTransaction",
      "outputs": [],
      "stateMutability": "nonpayable",
      "type": "function"
    },
    {
      "inputs": [],
      "name": "feeTimeout",
      "outputs": [
        {
          "internalType": "uint256",
          "name": "",
          "type": "uint256"
        }
      ],
      "stateMutability": "view",
      "type": "function"
    },
    {
      "inputs": [
        {
          "internalType": "address",
          "name": "addr",
          "type": "address"
        }
      ],
      "name": "grantAuthentication",
      "outputs": [],
      "stateMutability": "nonpayable",
      "type": "function"
    },
    {
      "inputs": [],
      "name": "ipfsDomain",
      "outputs": [
        {
          "internalType": "string",
          "name": "",
          "type": "string"
        }
      ],
      "stateMutability": "view",
      "type": "function"
    },
    {
      "inputs": [],
      "name": "marketToken",
      "outputs": [
        {
          "internalType": "contract ERC20Burnable",
          "name": "",
          "type": "address"
        }
      ],
      "stateMutability": "view",
      "type": "function"
    },
    {
      "inputs": [],
      "name": "metaEvidenceCount",
      "outputs": [
        {
          "internalType": "uint256",
          "name": "",
          "type": "uint256"
        }
      ],
      "stateMutability": "view",
      "type": "function"
    },
    {
      "inputs": [],
      "name": "orderExtraData",
      "outputs": [
        {
          "internalType": "bytes",
          "name": "",
          "type": "bytes"
        }
      ],
      "stateMutability": "view",
      "type": "function"
    },
    {
      "inputs": [],
      "name": "owner",
      "outputs": [
        {
          "internalType": "address",
          "name": "",
          "type": "address"
        }
      ],
      "stateMutability": "view",
      "type": "function"
    },
    {
      "inputs": [
        {
          "internalType": "bytes32",
          "name": "hash",
          "type": "bytes32"
        }
      ],
      "name": "payArbitrationFee",
      "outputs": [],
      "stateMutability": "payable",
      "type": "function"
    },
    {
      "inputs": [],
      "name": "protocolFeePercentage",
      "outputs": [
        {
          "internalType": "uint256",
          "name": "",
          "type": "uint256"
        }
      ],
      "stateMutability": "view",
      "type": "function"
    },
    {
      "inputs": [],
      "name": "protocolFeeRecipient",
      "outputs": [
        {
          "internalType": "address",
          "name": "",
          "type": "address"
        }
      ],
      "stateMutability": "view",
      "type": "function"
    },
    {
      "inputs": [],
      "name": "renounceOwnership",
      "outputs": [],
      "stateMutability": "nonpayable",
      "type": "function"
    },
    {
      "inputs": [],
      "name": "reportExtraData",
      "outputs": [
        {
          "internalType": "bytes",
          "name": "",
          "type": "bytes"
        }
      ],
      "stateMutability": "view",
      "type": "function"
    },
    {
      "inputs": [
        {
          "internalType": "address",
          "name": "addr",
          "type": "address"
        }
      ],
      "name": "revokeAuthentication",
      "outputs": [],
      "stateMutability": "nonpayable",
      "type": "function"
    },
    {
      "inputs": [
        {
          "internalType": "address",
          "name": "",
          "type": "address"
        }
      ],
      "name": "sellers",
      "outputs": [
        {
          "internalType": "uint256",
          "name": "balance",
          "type": "uint256"
        },
        {
          "internalType": "uint256",
          "name": "lockedTokens",
          "type": "uint256"
        },
        {
          "internalType": "uint256",
          "name": "blackListExpire",
          "type": "uint256"
        }
      ],
      "stateMutability": "view",
      "type": "function"
    },
    {
      "inputs": [],
      "name": "tokenOwnerFeePercentage",
      "outputs": [
        {
          "internalType": "uint256",
          "name": "",
          "type": "uint256"
        }
      ],
      "stateMutability": "view",
      "type": "function"
    },
    {
      "inputs": [
        {
          "internalType": "bytes32",
          "name": "",
          "type": "bytes32"
        }
      ],
      "name": "transactions",
      "outputs": [
        {
          "internalType": "uint256",
          "name": "lastStatusUpdate",
          "type": "uint256"
        },
        {
          "internalType": "uint256",
          "name": "refund",
          "type": "uint256"
        },
        {
          "internalType": "uint256",
          "name": "gasFee",
          "type": "uint256"
        },
        {
          "internalType": "enum Dagora.Status",
          "name": "status",
          "type": "uint8"
        }
      ],
      "stateMutability": "view",
      "type": "function"
    },
    {
      "inputs": [
        {
          "internalType": "address",
          "name": "newOwner",
          "type": "address"
        }
      ],
      "name": "transferOwnership",
      "outputs": [],
      "stateMutability": "nonpayable",
      "type": "function"
    },
    {
      "inputs": [
        {
          "components": [
            {
              "components": [
                {
                  "internalType": "bytes32",
                  "name": "ipfsHash",
                  "type": "bytes32"
                },
                {
                  "internalType": "address payable",
                  "name": "seller",
                  "type": "address"
                },
                {
                  "internalType": "address payable",
                  "name": "stakeOwner",
                  "type": "address"
                },
                {
                  "internalType": "uint256",
                  "name": "stakedAmount",
                  "type": "uint256"
                },
                {
                  "internalType": "uint256",
                  "name": "commissionPercentage",
                  "type": "uint256"
                },
                {
                  "internalType": "uint256",
                  "name": "warranty",
                  "type": "uint256"
                },
                {
                  "internalType": "uint256",
                  "name": "cashbackPercentage",
                  "type": "uint256"
                },
                {
                  "internalType": "uint256",
                  "name": "expiration",
                  "type": "uint256"
                }
              ],
              "internalType": "struct Dagora.Listing",
              "name": "listing",
              "type": "tuple"
            },
            {
              "internalType": "address payable",
              "name": "fundsHolder",
              "type": "address"
            },
            {
              "internalType": "address payable",
              "name": "buyer",
              "type": "address"
            },
            {
              "internalType": "address payable",
              "name": "commissioner",
              "type": "address"
            },
            {
              "internalType": "contract ERC20",
              "name": "token",
              "type": "address"
            },
            {
              "internalType": "uint256",
              "name": "total",
              "type": "uint256"
            },
            {
              "internalType": "uint256",
              "name": "cashback",
              "type": "uint256"
            },
            {
              "internalType": "uint256",
              "name": "commission",
              "type": "uint256"
            },
            {
              "internalType": "uint256",
              "name": "protocolFee",
              "type": "uint256"
            },
            {
              "internalType": "uint256",
              "name": "stakeHolderFee",
              "type": "uint256"
            },
            {
              "internalType": "uint256",
              "name": "expiration",
              "type": "uint256"
            },
            {
              "internalType": "uint256",
              "name": "confirmationTimeout",
              "type": "uint256"
            },
            {
              "internalType": "uint256",
              "name": "timestamp",
              "type": "uint256"
            }
          ],
          "internalType": "struct Dagora.Order",
          "name": "_order",
          "type": "tuple"
        },
        {
          "internalType": "uint256",
          "name": "refund",
          "type": "uint256"
        }
      ],
      "name": "updateRefund",
      "outputs": [],
      "stateMutability": "nonpayable",
      "type": "function"
    },
    {
      "inputs": [
        {
          "internalType": "uint256",
          "name": "value",
          "type": "uint256"
        }
      ],
      "name": "withdrawTokens",
      "outputs": [],
      "stateMutability": "nonpayable",
      "type": "function"
    },
    {
      "inputs": [
        {
          "components": [
            {
              "internalType": "bytes32",
              "name": "ipfsHash",
              "type": "bytes32"
            },
            {
              "internalType": "address payable",
              "name": "seller",
              "type": "address"
            },
            {
              "internalType": "address payable",
              "name": "stakeOwner",
              "type": "address"
            },
            {
              "internalType": "uint256",
              "name": "stakedAmount",
              "type": "uint256"
            },
            {
              "internalType": "uint256",
              "name": "commissionPercentage",
              "type": "uint256"
            },
            {
              "internalType": "uint256",
              "name": "warranty",
              "type": "uint256"
            },
            {
              "internalType": "uint256",
              "name": "cashbackPercentage",
              "type": "uint256"
            },
            {
              "internalType": "uint256",
              "name": "expiration",
              "type": "uint256"
            }
          ],
          "internalType": "struct Dagora.Listing",
          "name": "_listing",
          "type": "tuple"
        },
        {
          "components": [
            {
              "internalType": "uint8",
              "name": "v",
              "type": "uint8"
            },
            {
              "internalType": "bytes32",
              "name": "r",
              "type": "bytes32"
            },
            {
              "internalType": "bytes32",
              "name": "s",
              "type": "bytes32"
            }
          ],
          "internalType": "struct Dagora.Sig",
          "name": "sig",
          "type": "tuple"
        }
      ],
      "name": "report",
      "outputs": [
        {
          "internalType": "bytes32",
          "name": "hash",
          "type": "bytes32"
        }
      ],
      "stateMutability": "payable",
      "type": "function"
    },
    {
      "inputs": [
        {
          "components": [
            {
              "components": [
                {
                  "internalType": "bytes32",
                  "name": "ipfsHash",
                  "type": "bytes32"
                },
                {
                  "internalType": "address payable",
                  "name": "seller",
                  "type": "address"
                },
                {
                  "internalType": "address payable",
                  "name": "stakeOwner",
                  "type": "address"
                },
                {
                  "internalType": "uint256",
                  "name": "stakedAmount",
                  "type": "uint256"
                },
                {
                  "internalType": "uint256",
                  "name": "commissionPercentage",
                  "type": "uint256"
                },
                {
                  "internalType": "uint256",
                  "name": "warranty",
                  "type": "uint256"
                },
                {
                  "internalType": "uint256",
                  "name": "cashbackPercentage",
                  "type": "uint256"
                },
                {
                  "internalType": "uint256",
                  "name": "expiration",
                  "type": "uint256"
                }
              ],
              "internalType": "struct Dagora.Listing",
              "name": "listing",
              "type": "tuple"
            },
            {
              "internalType": "address payable",
              "name": "fundsHolder",
              "type": "address"
            },
            {
              "internalType": "address payable",
              "name": "buyer",
              "type": "address"
            },
            {
              "internalType": "address payable",
              "name": "commissioner",
              "type": "address"
            },
            {
              "internalType": "contract ERC20",
              "name": "token",
              "type": "address"
            },
            {
              "internalType": "uint256",
              "name": "total",
              "type": "uint256"
            },
            {
              "internalType": "uint256",
              "name": "cashback",
              "type": "uint256"
            },
            {
              "internalType": "uint256",
              "name": "commission",
              "type": "uint256"
            },
            {
              "internalType": "uint256",
              "name": "protocolFee",
              "type": "uint256"
            },
            {
              "internalType": "uint256",
              "name": "stakeHolderFee",
              "type": "uint256"
            },
            {
              "internalType": "uint256",
              "name": "expiration",
              "type": "uint256"
            },
            {
              "internalType": "uint256",
              "name": "confirmationTimeout",
              "type": "uint256"
            },
            {
              "internalType": "uint256",
              "name": "timestamp",
              "type": "uint256"
            }
          ],
          "internalType": "struct Dagora.Order",
          "name": "_order",
          "type": "tuple"
        }
      ],
      "name": "disputeTransaction",
      "outputs": [
        {
          "internalType": "bytes32",
          "name": "hash",
          "type": "bytes32"
        }
      ],
      "stateMutability": "payable",
      "type": "function"
    },
    {
      "inputs": [
        {
          "internalType": "bytes32",
          "name": "_hash",
          "type": "bytes32"
        },
        {
          "internalType": "string",
          "name": "_evidence",
          "type": "string"
        }
      ],
      "name": "submitEvidence",
      "outputs": [],
      "stateMutability": "nonpayable",
      "type": "function"
    },
    {
      "inputs": [
        {
          "internalType": "uint256",
          "name": "_disputeID",
          "type": "uint256"
        },
        {
          "internalType": "uint256",
          "name": "_ruling",
          "type": "uint256"
        }
      ],
      "name": "rule",
      "outputs": [],
      "stateMutability": "nonpayable",
      "type": "function"
    },
    {
      "inputs": [
        {
          "internalType": "bytes32",
          "name": "_hash",
          "type": "bytes32"
        }
      ],
      "name": "appeal",
      "outputs": [],
      "stateMutability": "payable",
      "type": "function"
    },
    {
      "inputs": [
        {
          "internalType": "enum Dagora.DisputeType",
          "name": "_type",
          "type": "uint8"
        }
      ],
      "name": "arbitrationCost",
      "outputs": [
        {
          "internalType": "uint256",
          "name": "fee",
          "type": "uint256"
        }
      ],
      "stateMutability": "view",
      "type": "function"
    }
  ],
  "bytecode": "0x60806040523480156200001157600080fd5b50604051620052b9380380620052b98339810160408190526200003491620002c2565b888888888888866000620000476200015d565b600080546001600160a01b0319166001600160a01b0383169081178255604051929350917f8be0079c531659141344cd1fd0a4f28419497f9722a3daafe3b4186f6b6457e0908290a350600a80546001600160a01b03808a166001600160a01b031992831617909255600f805492891692909116919091179055620151808086026008558402600755600d839055600e8290558051620000ef90600c90602084019062000161565b505050505050505089601060006101000a8154816001600160a01b0302191690836001600160a01b0316021790555082601190805190602001906200013692919062000161565b5081516200014c90601290602085019062000161565b5050505050505050505050620003b2565b3390565b828054600181600116156101000203166002900490600052602060002090601f016020900481019282601f10620001a457805160ff1916838001178555620001d4565b82800160010185558215620001d4579182015b82811115620001d4578251825591602001919060010190620001b7565b50620001e2929150620001e6565b5090565b5b80821115620001e25760008155600101620001e7565b80516001600160a01b03811681146200021557600080fd5b92915050565b600082601f8301126200022c578081fd5b81516001600160401b038082111562000243578283fd5b6040516020601f8401601f191682018101838111838210171562000265578586fd5b806040525081945083825286818588010111156200028257600080fd5b600092505b83831015620002a6578583018101518284018201529182019162000287565b83831115620002b85760008185840101525b5050505092915050565b6000806000806000806000806000806101408b8d031215620002e2578586fd5b620002ee8c8c620001fd565b9950620002ff8c60208d01620001fd565b9850620003108c60408d01620001fd565b975060608b0151965060808b0151955060a08b0151945060c08b0151935060e08b015160018060401b038082111562000347578485fd5b620003558e838f016200021b565b94506101008d01519150808211156200036c578384fd5b6200037a8e838f016200021b565b93506101208d015191508082111562000391578283fd5b50620003a08d828e016200021b565b9150509295989b9194979a5092959850565b614ef780620003c26000396000f3fe6080604052600436106102725760003560e01c80638076f0051161014f578063b329036b116100c1578063d48fd7541161007a578063d48fd75414610723578063dd49756e14610743578063ece1de4414610763578063ee7269d714610776578063f2fde38b1461078b578063f48a0b31146107ab57610272565b8063b329036b14610691578063b6398667146106a6578063ba4bc763146106bb578063be6a18ef146106db578063cae6047f146106ee578063d1fcfdb81461070357610272565b80638e50e509116101135780638e50e509146105f057806396e7125014610605578063a0c59ef314610625578063a2031de41461063a578063ad48d6111461065c578063afd9e0d01461067157610272565b80638076f0051461056857806382ad5f751461058857806382e1e9721461059b57806387bd84cc146105bb5780638da5cb5b146105db57610272565b8063640b5aac116101e85780636cc6cde1116101ac5780636cc6cde1146104af5780636d47ab72146104c4578063703472f3146104f3578063715018a61461051357806372fc42131461052857806378e740ff1461054857610272565b8063640b5aac146103f0578063642f2eaf1461041057806364df049e1461044057806369dc9ff3146104625780636b83a0611461048f57610272565b806339d2a6941161023a57806339d2a694146103465780634140a5eb1461035957806353376d1f1461036e578063546f995c1461038e5780635af79807146103ae5780635d2569ad146103c357610272565b806311be19971461027757806320a1e5b5146102b75780632c3d01b8146102e4578063311a6c5614610306578063315a095d14610326575b600080fd5b34801561028357600080fd5b50610297610292366004613e85565b6107cb565b6040516102ae9b9a99989796959493929190614350565b60405180910390f35b3480156102c357600080fd5b506102d76102d2366004613fef565b610838565b6040516102ae9190614457565b3480156102f057600080fd5b506103046102ff366004613fd3565b6109de565b005b34801561031257600080fd5b5061030461032136600461407b565b610b1c565b34801561033257600080fd5b50610304610341366004613e85565b610c43565b6102d7610354366004613fd3565b610dab565b34801561036557600080fd5b506102d7610e2b565b34801561037a57600080fd5b50610304610389366004613d8a565b610e31565b34801561039a57600080fd5b506103046103a9366004613da6565b610eaf565b3480156103ba57600080fd5b506102d7610ee3565b3480156103cf57600080fd5b506103e36103de366004613de1565b610ee9565b6040516102ae9190614408565b3480156103fc57600080fd5b5061030461040b366004614037565b610fc2565b34801561041c57600080fd5b5061043061042b366004613e85565b611102565b6040516102ae9493929190614e0c565b34801561044c57600080fd5b5061045561112c565b6040516102ae91906142fb565b34801561046e57600080fd5b5061048261047d366004613d8a565b61113b565b6040516102ae919061444c565b34801561049b57600080fd5b506104826104aa366004613f51565b611150565b3480156104bb57600080fd5b5061045561125f565b3480156104d057600080fd5b506104e46104df366004613d8a565b61126e565b6040516102ae93929190614df6565b3480156104ff57600080fd5b506102d761050e366004613f32565b61128e565b34801561051f57600080fd5b506103046113de565b34801561053457600080fd5b50610304610543366004613e85565b61145d565b34801561055457600080fd5b50610482610563366004613fd3565b61161a565b34801561057457600080fd5b50610482610583366004613e85565b6116de565b6102d7610596366004613f6d565b6116f3565b3480156105a757600080fd5b506103046105b6366004613fd3565b611774565b3480156105c757600080fd5b506104826105d6366004613e85565b611869565b3480156105e757600080fd5b5061045561187e565b3480156105fc57600080fd5b506102d761188d565b34801561061157600080fd5b50610304610620366004613fd3565b611893565b34801561063157600080fd5b506102d7611999565b34801561064657600080fd5b5061064f61199f565b6040516102ae919061447e565b34801561066857600080fd5b50610455611a2d565b34801561067d57600080fd5b506102d761068c366004613fd3565b611a3c565b34801561069d57600080fd5b506102d7611a8f565b3480156106b257600080fd5b5061064f611a95565b3480156106c757600080fd5b506102d76106d6366004613e85565b611af0565b6103046106e9366004613e85565b611b02565b3480156106fa57600080fd5b506102d7611d25565b34801561070f57600080fd5b5061030461071e366004613d8a565b611d2b565b34801561072f57600080fd5b5061030461073e366004613fa3565b611dd2565b34801561074f57600080fd5b5061030461075e366004613e85565b611efd565b610304610771366004613e85565b612009565b34801561078257600080fd5b5061064f6120b8565b34801561079757600080fd5b506103046107a6366004613d8a565b612113565b3480156107b757600080fd5b506103046107c6366004613e9d565b6121c9565b600560208190526000918252604090912080546001820154600283015460038401546004850154958501546006860154600787015460088801546009890154600a909901546001600160a01b039889169a9789169996989095169695939460ff938416949293919291168b565b60006108458484846122f8565b6000818152600460205260408120919250600382015460ff16600581111561086957fe5b1461088f5760405162461bcd60e51b815260040161088690614c15565b60405180910390fd5b84608001516001600160a01b03166323b872dd8660200151308860a001516040518463ffffffff1660e01b81526004016108cb939291906143cb565b602060405180830381600087803b1580156108e557600080fd5b505af11580156108f9573d6000803e3d6000fd5b505050506040513d601f19601f8201168201806040525081019061091d9190613e65565b6109395760405162461bcd60e51b815260040161088690614c8c565b4281556003810180546001919060ff1916828002179055508460000151602001516001600160a01b031685604001516001600160a01b0316837fe419a7cfec7b19a58f8ef66dbf85dd08b396bafa0e2f94b3181fd3d047cb748188600001516040015189606001518a608001518b60a001518c60e001518d60c001518e61016001516040516109ce979695949392919061430f565b60405180910390a4509392505050565b60006109e982612367565b60008181526004602052604090209091506001600382015460ff166005811115610a0f57fe5b1480610a2d57506002600382015460ff166005811115610a2b57fe5b145b80610a49575060038082015460ff166005811115610a4757fe5b145b610a655760405162461bcd60e51b8152600401610886906146cd565b60006001600383015460ff166005811115610a7c57fe5b1480610a99575060038083015460ff166005811115610a9757fe5b145b15610ad6578361016001516201518002826000015401421015610ace5760405162461bcd60e51b815260040161088690614638565b506000610b0d565b835160a0015182546201518090910201421015610b055760405162461bcd60e51b815260040161088690614638565b50825160c001515b610b168461237a565b50505050565b60008281526006602090815260408083205480845260059092529091206010546001600160a01b0316610b4d612740565b6001600160a01b031614610b735760405162461bcd60e51b815260040161088690614c4a565b6003600a82015460ff166004811115610b8857fe5b14610ba55760405162461bcd60e51b815260040161088690614530565b83610bae612740565b6001600160a01b03167f394027a5fa6e098a1191094d1719d6929b9abc535fcc0c8f448d6a4e7562227685604051610be69190614457565b60405180910390a36001600682015460ff166002811115610c0357fe5b1415610c1857610c138184612744565b610b16565b610c228184612aa2565b506000908152600460205260409020600301805460ff191660051790555050565b600060016000610c51612740565b6001600160a01b03166001600160a01b0316815260200190815260200160002090508181600101548260000154031015610c9d5760405162461bcd60e51b8152600401610886906144b8565b600a546001600160a01b03166323b872dd610cb6612740565b30856040518463ffffffff1660e01b8152600401610cd6939291906143cb565b602060405180830381600087803b158015610cf057600080fd5b505af1158015610d04573d6000803e3d6000fd5b505050506040513d601f19601f82011682018060405250810190610d289190613e65565b610d3157600080fd5b8160016000610d3e612740565b6001600160a01b0316815260208101919091526040016000208054919091039055610d67612740565b6001600160a01b03167f05e8d4927d2e9cff8a7d6f1c0c3b0fdd4d7299da00fe4911745bda49a5834e6783604051610d9f9190614457565b60405180910390a25050565b6000610db682612edf565b600081815260056020908152604091829020600801548551519251939450927f61606860eb6c87306811e2695215385101daab53bd6ab4e9f9049aead9363c7d92610e0492600c9201614252565b60408051601f1981840301815290829052610e1e9161447e565b60405180910390a2919050565b600e5481565b610e39612740565b6000546001600160a01b03908116911614610e665760405162461bcd60e51b8152600401610886906148ed565b6001600160a01b038116600081815260096020526040808220805460ff19169055517f45f62f30e7b8439e0da7d8e560fe39d01238091ce9e789e3d12b514edf98acea9190a250565b60005b8151811015610edf57610ed7828281518110610eca57fe5b60200260200101516109de565b600101610eb2565b5050565b600b5481565b606082518451148015610efd575081518351145b610f0657600080fd5b835167ffffffffffffffff81118015610f1e57600080fd5b50604051908082528060200260200182016040528015610f48578160200160208202803683370190505b50905060005b8451811015610fba57610f9b858281518110610f6657fe5b6020026020010151858381518110610f7a57fe5b6020026020010151858481518110610f8e57fe5b6020026020010151610838565b828281518110610fa757fe5b6020908102919091010152600101610f4e565b509392505050565b8151602001516001600160a01b0316610fd9612740565b6001600160a01b031614610fff5760405162461bcd60e51b815260040161088690614745565b600061100a83612367565b60008181526004602052604090209091506001600382015460ff16600581111561103057fe5b1461104d5760405162461bcd60e51b8152600401610886906146cd565b836101600151620151800281600001540142111561107d5760405162461bcd60e51b815260040161088690614990565b8360a001518460e001518561012001518661010001518760c00151010101840111156110bb5760405162461bcd60e51b8152600401610886906149fc565b828160010181905550817fe18fe462037a62d3500e07f2b32d9e16a69cee44850c9b7dcef7d856087e4aff846040516110f49190614457565b60405180910390a250505050565b60046020526000908152604090208054600182015460028301546003909301549192909160ff1684565b600f546001600160a01b031681565b60096020526000908152604090205460ff1681565b600081604001516001600160a01b0316611168612740565b6001600160a01b03161461118e5760405162461bcd60e51b8152600401610886906149c5565b81606001516001600061119f612740565b6001600160a01b0316815260208101919091526040016000205410156111d75760405162461bcd60e51b81526004016108869061477c565b60006111e283613096565b60008181526003602052604090205490915060ff16156112145760405162461bcd60e51b815260040161088690614576565b600081815260036020526040808220805460ff191660011790555182917f4e58c75167b3bff3ab3949a55f72203f341f94cca1c2c0c84370731b2b4c201791a260019150505b919050565b6010546001600160a01b031681565b600160208190526000918252604090912080549181015460029091015483565b60008082600281111561129d57fe5b116112a757600080fd5b60018260028111156112b557fe5b14156113435760105460405163f7434ea960e01b81526001600160a01b039091169063f7434ea9906112ec90601190600401614491565b60206040518083038186803b15801561130457600080fd5b505afa158015611318573d6000803e3d6000fd5b505050506040513d601f19601f8201168201806040525081019061133c9190614063565b905061125a565b600282600281111561135157fe5b141561125a5760105460405163f7434ea960e01b81526001600160a01b039091169063f7434ea99061138890601290600401614491565b60206040518083038186803b1580156113a057600080fd5b505afa1580156113b4573d6000803e3d6000fd5b505050506040513d601f19601f820116820180604052508101906113d89190614063565b92915050565b6113e6612740565b6000546001600160a01b039081169116146114135760405162461bcd60e51b8152600401610886906148ed565b600080546040516001600160a01b03909116907f8be0079c531659141344cd1fd0a4f28419497f9722a3daafe3b4186f6b6457e0908390a3600080546001600160a01b0319169055565b6000818152600560205260409020600a81015460ff16600481111561147e57fe5b600010801561149f57506003600a82015460ff16600481111561149d57fe5b105b6114bb5760405162461bcd60e51b8152600401610886906147b3565b6008548160070154420310156114e35760405162461bcd60e51b815260040161088690614638565b6000816004015460001461156157600482018054600090915582546040516001600160a01b03909116908290611518906142f8565b60006040518083038185875af1925050503d8060008114611555576040519150601f19603f3d011682016040523d82523d6000602084013e61155a565b606091505b5090925050505b6005820154156115de57600582018054600090915560018301546040516001600160a01b03909116908290611595906142f8565b60006040518083038185875af1925050503d80600081146115d2576040519150601f19603f3d011682016040523d82523d6000602084013e6115d7565b606091505b5090925050505b6002600a83015460ff1660048111156115f357fe5b141561160a576116058260015b612744565b611615565b611615826002611600565b505050565b600081602001516001600160a01b0316611632612740565b6001600160a01b0316146116585760405162461bcd60e51b815260040161088690614922565b600061166383612367565b60008181526003602052604090205490915060ff16156116955760405162461bcd60e51b815260040161088690614576565b600081815260036020526040808220805460ff191660011790555182917f0bed755d9d22259660bf623a395b620bbff2af67319e990b538dc8603bdc3e5f91a250600192915050565b60026020526000908152604090205460ff1681565b60006116ff83836130a4565b6000818152600560209081526040918290206008015486519251939450927f61606860eb6c87306811e2695215385101daab53bd6ab4e9f9049aead9363c7d9261174c92600c9201614252565b60408051601f19818403018152908290526117669161447e565b60405180910390a292915050565b600061177f82612367565b60008181526004602052604090209091506001600382015460ff1660058111156117a557fe5b1480156117ce575082604001516001600160a01b03166117c3612740565b6001600160a01b0316145b80611812575060038082015460ff1660058111156117e857fe5b14801561181257508251602001516001600160a01b0316611807612740565b6001600160a01b0316145b61182e5760405162461bcd60e51b815260040161088690614b27565b60018101541580156118445750825160a0015115155b156118605760038101805460ff19166002179055428155611615565b6116158361237a565b60036020526000908152604090205460ff1681565b6000546001600160a01b031690565b600d5481565b600061189e82612367565b60008181526004602052604090209091506002600382015460ff1660058111156118c457fe5b146118e15760405162461bcd60e51b8152600401610886906146cd565b82604001516001600160a01b03166118f7612740565b6001600160a01b03161461191d5760405162461bcd60e51b815260040161088690614bea565b825160a001518154620151809091020142111561194c5760405162461bcd60e51b815260040161088690614696565b6003818101805460ff1916909117905560a0830151600182015542815560405182907f99e77d4092287badf5165a76eb7add37ec282650747091906c6a02e0cd4f5b3d90600090a2505050565b60075481565b600c805460408051602060026001851615610100026000190190941693909304601f81018490048402820184019092528181529291830182828015611a255780601f106119fa57610100808354040283529160200191611a25565b820191906000526020600020905b815481529060010190602001808311611a0857829003601f168201915b505050505081565b600a546001600160a01b031681565b60008060046000611a4c85612367565b815260200190815260200160002090508260e001518361012001518461010001518560c001518460020154856001015401010101018360a0015103915050919050565b60085481565b6012805460408051602060026001851615610100026000190190941693909304601f81018490048402820184019092528181529291830182828015611a255780601f106119fa57610100808354040283529160200191611a25565b60066020526000908152604090205481565b60008181526005602052604081206006810154909190611b249060ff1661128e565b600a83015490915060ff166004811115611b3a57fe5b6000108015611b5b57506003600a83015460ff166004811115611b5957fe5b105b611b775760405162461bcd60e51b8152600401610886906144ef565b81546001600160a01b0316611b8a612740565b6001600160a01b03161480611bbb575060018201546001600160a01b0316611bb0612740565b6001600160a01b0316145b611bd75760405162461bcd60e51b815260040161088690614959565b81546001600160a01b0316611bea612740565b6001600160a01b03161415611c8f57600482018054340190819055811115611c245760405162461bcd60e51b8152600401610886906146f4565b4260078301556005820154811115611c8557600a8201805460ff1916600217905560405183907ff972c77402d0ee7d94e4b2ea7cee21a3d392136bf7c9b72d2dc85e2a4d24a9cf90611c78906001906144a4565b60405180910390a2611605565b61160583826132ed565b600582018054340190819055811115611cba5760405162461bcd60e51b8152600401610886906146f4565b4260078301556004820154811115611d1b57600a8201805460ff1916600117905560405183907ff972c77402d0ee7d94e4b2ea7cee21a3d392136bf7c9b72d2dc85e2a4d24a9cf90611d0e906000906144a4565b60405180910390a2611615565b61161583826132ed565b61271081565b611d33612740565b6000546001600160a01b03908116911614611d605760405162461bcd60e51b8152600401610886906148ed565b6001600160a01b03811660009081526009602052604090205460ff1615611d8657600080fd5b6001600160a01b038116600081815260096020526040808220805460ff19166001179055517f52133ca86a0b20d025852c627bd9d5c8e6037a237d7ef7d22f399ae642e6b9b49190a250565b6000600481611dee611de936879003870187613fd3565b612367565b8152602081019190915260400160009081209150600382015460ff166005811115611e1557fe5b118015611e3457506005600382015460ff166005811115611e3257fe5b105b611e3d57600080fd5b81611e5061068c36869003860186613fd3565b1015611e5b57600080fd5b60028101805483019055611e7761018084016101608501613d8a565b6001600160a01b031663a9059cbb611e8d612740565b846040518363ffffffff1660e01b8152600401611eab9291906143ef565b602060405180830381600087803b158015611ec557600080fd5b505af1158015611ed9573d6000803e3d6000fd5b505050506040513d601f19601f82011682018060405250810190610b169190613e65565b600a546001600160a01b03166323b872dd611f16612740565b30846040518463ffffffff1660e01b8152600401611f36939291906143cb565b602060405180830381600087803b158015611f5057600080fd5b505af1158015611f64573d6000803e3d6000fd5b505050506040513d601f19601f82011682018060405250810190611f889190613e65565b611f9157600080fd5b8060016000611f9e612740565b6001600160a01b03168152602081019190915260400160002080549091019055611fc6612740565b6001600160a01b03167fbc7c8a4d8049a3f99a02f2a20640c206a2e4d3f2fa54fd20da9f01fda3620cda82604051611ffe9190614457565b60405180910390a250565b60008181526005602052604090206002600682015460ff16600281111561202c57fe5b146120495760405162461bcd60e51b815260040161088690614b9d565b601054600982015460405163093225f160e31b81526001600160a01b03909216916349912f889134916120829190601290600401614dcf565b6000604051808303818588803b15801561209b57600080fd5b505af11580156120af573d6000803e3d6000fd5b50505050505050565b6011805460408051602060026001851615610100026000190190941693909304601f81018490048402820184019092528181529291830182828015611a255780601f106119fa57610100808354040283529160200191611a25565b61211b612740565b6000546001600160a01b039081169116146121485760405162461bcd60e51b8152600401610886906148ed565b6001600160a01b03811661216e5760405162461bcd60e51b8152600401610886906145f2565b600080546040516001600160a01b03808516939216917f8be0079c531659141344cd1fd0a4f28419497f9722a3daafe3b4186f6b6457e091a3600080546001600160a01b0319166001600160a01b0392909216919091179055565b600082815260056020526040902080546001600160a01b03166121ea612740565b6001600160a01b0316148061221b575060018101546001600160a01b0316612210612740565b6001600160a01b0316145b6122375760405162461bcd60e51b815260040161088690614d2d565b6002600682015460ff16600281111561224c57fe5b146122695760405162461bcd60e51b815260040161088690614a47565b6004600a82015460ff16600481111561227e57fe5b1061229b5760405162461bcd60e51b8152600401610886906145a0565b6122a3612740565b60088201546010546040516001600160a01b0393841693909116907fdccf2f8b2cc26eafcd61905cba744cff4b81d14740725f6376390dc6298a6a3c906122eb90879061447e565b60405180910390a4505050565b600061231261230a8560000151613096565b85518461352a565b61232e5760405162461bcd60e51b815260040161088690614d04565b61234461233a85612367565b915081858561365d565b6123605760405162461bcd60e51b815260040161088690614b76565b9392505050565b60006113d861237583613864565b6138ed565b600061238582612367565b6000818152600460205260408120600181015460a086015193945090929091906123af9083613900565b60038401805460ff191660051790556000808555600185015561010086015190915015612471576101008501516080860151600f5460405163a9059cbb60e01b815293839003936001600160a01b039283169363a9059cbb936124169316916004016143ef565b602060405180830381600087803b15801561243057600080fd5b505af1158015612444573d6000803e3d6000fd5b505050506040513d601f19601f820116820180604052508101906124689190613e65565b61247157600080fd5b610120850151156125275761248b81866101200151613900565b905084608001516001600160a01b031663a9059cbb8660000151604001518761012001516040518363ffffffff1660e01b81526004016124cc9291906143ef565b602060405180830381600087803b1580156124e657600080fd5b505af11580156124fa573d6000803e3d6000fd5b505050506040513d601f19601f8201168201806040525081019061251e9190613e65565b61252757600080fd5b60e0850151156125cd5760e08501516080860151606087015160405163a9059cbb60e01b815293839003936001600160a01b039092169263a9059cbb926125729291906004016143ef565b602060405180830381600087803b15801561258c57600080fd5b505af11580156125a0573d6000803e3d6000fd5b505050506040513d601f19601f820116820180604052508101906125c49190613e65565b6125cd57600080fd5b60c0850151156126755760c08501516080860151604080880151905163a9059cbb60e01b815293839003936001600160a01b039092169263a9059cbb9261261a92918701906004016143ef565b602060405180830381600087803b15801561263457600080fd5b505af1158015612648573d6000803e3d6000fd5b505050506040513d601f19601f8201168201806040525081019061266c9190613e65565b61267557600080fd5b801561270e57608085015185516020015160405163a9059cbb60e01b81526001600160a01b039092169163a9059cbb916126b39185906004016143ef565b602060405180830381600087803b1580156126cd57600080fd5b505af11580156126e1573d6000803e3d6000fd5b505050506040513d601f19601f820116820180604052508101906127059190613e65565b61270e57600080fd5b60405184907f24196ec40f90671b7144e716978686b4f3c7d6b00b23da3971ef2b52af27d87f90600090a25050505050565b3390565b60028111156127655760405162461bcd60e51b81526004016108869061466d565b6002820180546004808501805460058701805460009687905592869055859055600a8701805460ff191690931790925560016020819052808701546001600160a01b03168552929391929091908514156128be5785546040516001600160a01b039091169084906127d5906142f8565b60006040518083038185875af1925050503d8060008114612812576040519150601f19603f3d011682016040523d82523d6000602084013e612817565b606091505b50506001878101546001600160a01b03908116600090815260209290925260408083208054899003905589548216835290912080546002808904909101909155600a549293509116906342966c6890865b0486036040518263ffffffff1660e01b81526004016128879190614457565b600060405180830381600087803b1580156128a157600080fd5b505af11580156128b5573d6000803e3d6000fd5b50505050612a9a565b600285141561298e5760018601546040516001600160a01b039091169083906128e6906142f8565b60006040518083038185875af1925050503d8060008114612923576040519150601f19603f3d011682016040523d82523d6000602084013e612928565b606091505b505060075487546001600160a01b039081166000908152600160208190526040808320429095016002958601558b548416835280832080548b90039055908b01548316825290208054838904019055600a5492935091909116906342966c689086612868565b600186015460405160028504916001600160a01b031690828503906129b2906142f8565b60006040518083038185875af1925050503d80600081146129ef576040519150601f19603f3d011682016040523d82523d6000602084013e6129f4565b606091505b505087546040519193506001600160a01b0316908290612a13906142f8565b60006040518083038185875af1925050503d8060008114612a50576040519150601f19603f3d011682016040523d82523d6000602084013e612a55565b606091505b505087546001600160a01b039081166000908152600160208190526040808320805460028c0490819003909155918c0154909316825291902080549190910390559150505b505050505050565b6002811115612ac35760405162461bcd60e51b81526004016108869061466d565b6002820180546004808501805460058701805460009687905592869055859055600a8701805460ff191690931790925591929091906001851415612c0d5785546040516001600160a01b03909116908490612b1d906142f8565b60006040518083038185875af1925050503d8060008114612b5a576040519150601f19603f3d011682016040523d82523d6000602084013e612b5f565b606091505b50506003870154875460405163a9059cbb60e01b81529293506001600160a01b039182169263a9059cbb92612b9a92169088906004016143ef565b602060405180830381600087803b158015612bb457600080fd5b505af1158015612bc8573d6000803e3d6000fd5b505050506040513d601f19601f82011682018060405250810190612bec9190613e65565b612c085760405162461bcd60e51b8152600401610886906147f8565b612a9a565b6002851415612cb55760018601546040516001600160a01b03909116908390612c35906142f8565b60006040518083038185875af1925050503d8060008114612c72576040519150601f19603f3d011682016040523d82523d6000602084013e612c77565b606091505b50506003870154600188015460405163a9059cbb60e01b81529293506001600160a01b039182169263a9059cbb92612b9a92169088906004016143ef565b600186015460405160028504916001600160a01b03169082850390612cd9906142f8565b60006040518083038185875af1925050503d8060008114612d16576040519150601f19603f3d011682016040523d82523d6000602084013e612d1b565b606091505b505087546040519193506001600160a01b0316908290612d3a906142f8565b60006040518083038185875af1925050503d8060008114612d77576040519150601f19603f3d011682016040523d82523d6000602084013e612d7c565b606091505b50506003880154600189015460405163a9059cbb60e01b815292945060028804926001600160a01b039283169263a9059cbb92612dc292911690858b03906004016143ef565b602060405180830381600087803b158015612ddc57600080fd5b505af1158015612df0573d6000803e3d6000fd5b505050506040513d601f19601f82011682018060405250810190612e149190613e65565b612e305760405162461bcd60e51b8152600401610886906147f8565b6003880154885460405163a9059cbb60e01b81526001600160a01b039283169263a9059cbb92612e679291169085906004016143ef565b602060405180830381600087803b158015612e8157600080fd5b505af1158015612e95573d6000803e3d6000fd5b505050506040513d601f19601f82011682018060405250810190612eb99190613e65565b612ed55760405162461bcd60e51b8152600401610886906147f8565b5050505050505050565b6000612eea82612367565b60008181526004602052604090209091506001600382015460ff166005811115612f1057fe5b1480612f2d575060038082015460ff166005811115612f2b57fe5b145b612f495760405162461bcd60e51b8152600401610886906146cd565b8261016001516201518002816000015401421115612f795760405162461bcd60e51b815260040161088690614990565b6000612f85600261128e565b905080341015612fa75760405162461bcd60e51b815260040161088690614add565b6000806001600385015460ff166005811115612fbf57fe5b14156130135785604001516001600160a01b0316612fdb612740565b6001600160a01b0316146130015760405162461bcd60e51b81526004016108869061483e565b5050604084015184516020015161305e565b8551602001516001600160a01b031661302a612740565b6001600160a01b0316146130505760405162461bcd60e51b815260040161088690614875565b505060408401518451602001515b60038401805460ff1916600417905542845560a0860151608087015161308c91879185918591346002613942565b5050505050919050565b60006113d861237583613a51565b60006130b08383613a8b565b9050600080828152600560205260409020600a015460ff1660048111156130d357fe5b146130f05760405162461bcd60e51b8152600401610886906148ac565b82604001516001600160a01b0316613106612740565b6001600160a01b0316141561312d5760405162461bcd60e51b815260040161088690614d81565b6000613139600161128e565b90508034101561315b5760405162461bcd60e51b815260040161088690614add565b600060016000613169612740565b6001600160a01b03166001600160a01b031681526020019081526020016000209050806002015442116131ae5760405162461bcd60e51b815260040161088690614a96565b6001810154815460608701519190039081101561328157600a546001600160a01b03166323b872dd6131de612740565b30848a60600151036040518463ffffffff1660e01b8152600401613204939291906143cb565b602060405180830381600087803b15801561321e57600080fd5b505af1158015613232573d6000803e3d6000fd5b505050506040513d601f19601f820116820180604052508101906132569190613e65565b6132725760405162461bcd60e51b815260040161088690614ccd565b60608601518254908290030182555b6040808701516001600160a01b0316600090815260016020819052919020606088015184830180548201905591810180549092019091556132e2856132c4612740565b60408a015160608b0151600a546001600160a01b0316346001613942565b505050505092915050565b6000828152600560205260409020600a810180546003919060ff191660018302179055506010546000906001600160a01b031663c13517e184600280600687015460ff16600281111561333c57fe5b1461334857601161334b565b60125b6040518463ffffffff1660e01b8152600401613368929190614e3a565b6020604051808303818588803b15801561338157600080fd5b505af1158015613395573d6000803e3d6000fd5b50505050506040513d601f19601f820116820180604052508101906133ba9190614063565b600081815260066020526040908190208690556010546008850154915192935083926001600160a01b03909116917f74baab670a4015ab2f1b467c5252a96141a2573f2908e58a92081e80d3cfde3d9161341691908190614de8565b60405180910390a3600083836004015411156134a05760048301805490859055835460405191869003916001600160a01b03909116908290613457906142f8565b60006040518083038185875af1925050503d8060008114613494576040519150601f19603f3d011682016040523d82523d6000602084013e613499565b606091505b5090925050505b83836005015411156135235760058301805490859055600184015460405191869003916001600160a01b039091169082906134da906142f8565b60006040518083038185875af1925050503d8060008114613517576040519150601f19603f3d011682016040523d82523d6000602084013e61351c565b606091505b5090925050505b5050505050565b60008260e0015160001415801561354457508260e0015142115b1561355157506000612360565b6040808401516001600160a01b0316600090815260016020819052919020606085015191810154815491929103101561358e576000915050612360565b60008581526002602052604090205460ff16156135af576000915050612360565b60008581526003602052604090205460ff16156135d0576001915050612360565b83604001516001600160a01b03166001868560000151866020015187604001516040516000815260200160405260405161360d9493929190614460565b6020604051602081039080840390855afa15801561362f573d6000803e3d6000fd5b505050602060405103516001600160a01b03161415613652576001915050612360565b506000949350505050565b6000826101400151600014158015613679575082610140015142115b1561368657506000612360565b60808301516001600160a01b031660009081526009602052604090205460ff166136b257506000612360565b60008481526002602052604090205460ff16156136d157506000612360565b6136e78360a00151846000015160800151613abf565b8360e0015110156136fa57506000612360565b6137108360a00151846000015160c00151613abf565b8360c00151101561372357506000612360565b6137338360a00151600d54613abf565b836101000151101561374757506000612360565b825160208101516040909101516001600160a01b03908116911614801590613782575061377a8360a00151600e54613abf565b836101200151105b1561378f57506000612360565b8260e001518361012001518461010001518560c001510101018360a0015110156137bb57506000612360565b60008481526003602052604090205460ff16156137da57506001612360565b82604001516001600160a01b0316600185846000015185602001518660400151604051600081526020016040526040516138179493929190614460565b6020604051602081039080840390855afa158015613839573d6000803e3d6000fd5b505050602060405103516001600160a01b0316141561385a57506001612360565b5060009392505050565b60006138738260000151613096565b82604001518360200151846060015185608001518660a001518760c001518860e001518961010001518a61012001518b61014001518c61016001518d61018001516040516020016138d09d9c9b9a99989796959493929190614180565b604051602081830303815290604052805190602001209050919050565b6000816040516020016138d091906142c7565b600061236083836040518060400160405280601e81526020017f536166654d6174683a207375627472616374696f6e206f766572666c6f770000815250613ac8565b600087815260056020526040902080546001600160a01b038089166001600160a01b031992831617835560018084018054928a1692909316919091179091556002808301879055600483018054860190556006830180548593919260ff19909116919084908111156139b057fe5b021790555060018260028111156139c357fe5b14156139e7576003810180546001600160a01b0319166001600160a01b0386161790555b600a8101805460ff19166002179055426007820155600b80546001818101909255600883015560405189917ff972c77402d0ee7d94e4b2ea7cee21a3d392136bf7c9b72d2dc85e2a4d24a9cf91613a3e91906144a4565b60405180910390a2979650505050505050565b80516020808301516040808501516060860151608087015160a088015160c089015160e08a015195516000996138d0999098979101614207565b6000613aa3613a9984613096565b915081848461352a565b6113d85760405162461bcd60e51b815260040161088690614d04565b61271091020490565b60008184841115613aec5760405162461bcd60e51b8152600401610886919061447e565b505050900390565b80356113d881614ea9565b600082601f830112613b0f578081fd5b8135613b22613b1d82614e7d565b614e56565b818152915060208083019084810161028080850287018301881015613b4657600080fd5b60005b85811015613b6d57613b5b8984613c64565b85529383019391810191600101613b49565b50505050505092915050565b600082601f830112613b89578081fd5b8135613b97613b1d82614e7d565b8181529150602080830190848101606080850287018301881015613bba57600080fd5b60005b85811015613b6d57613bcf8984613d3e565b85529383019391810191600101613bbd565b6000610100808385031215613bf4578182fd5b613bfd81614e56565b915050813581526020820135613c1281614ea9565b60208201526040820135613c2581614ea9565b80604083015250606082013560608201526080820135608082015260a082013560a082015260c082013560c082015260e082013560e082015292915050565b60006102808284031215613c76578081fd5b6101a0613c8281614e56565b9150613c8e8484613be1565b8252610100613c9f85828601613af4565b6020840152610120613cb386828701613af4565b6040850152610140613cc787828801613af4565b6060860152610160613cdb88828901613af4565b60808701526101808088013560a08801528588013560c08801526101c088013560e08801526101e0880135858801526102008801358488015261022088013583880152610240880135828801526102608801358188015250505050505092915050565b600060608284031215613d4f578081fd5b613d596060614e56565b9050813560ff81168114613d6c57600080fd5b80825250602082013560208201526040820135604082015292915050565b600060208284031215613d9b578081fd5b813561236081614ea9565b600060208284031215613db7578081fd5b813567ffffffffffffffff811115613dcd578182fd5b613dd984828501613aff565b949350505050565b600080600060608486031215613df5578182fd5b833567ffffffffffffffff80821115613e0c578384fd5b613e1887838801613aff565b94506020860135915080821115613e2d578384fd5b613e3987838801613b79565b93506040860135915080821115613e4e578283fd5b50613e5b86828701613b79565b9150509250925092565b600060208284031215613e76578081fd5b81518015158114612360578182fd5b600060208284031215613e96578081fd5b5035919050565b60008060408385031215613eaf578182fd5b8235915060208084013567ffffffffffffffff80821115613ece578384fd5b818601915086601f830112613ee1578384fd5b813581811115613eef578485fd5b613f01601f8201601f19168501614e56565b91508082528784828501011115613f16578485fd5b8084840185840137810190920192909252919491935090915050565b600060208284031215613f43578081fd5b813560038110612360578182fd5b60006101008284031215613f63578081fd5b6123608383613be1565b6000806101608385031215613f80578182fd5b613f8a8484613be1565b9150613f9a846101008501613d3e565b90509250929050565b6000808284036102a0811215613fb7578283fd5b61028080821215613fc6578384fd5b9395938601359450505050565b60006102808284031215613fe5578081fd5b6123608383613c64565b60008060006103408486031215614004578081fd5b61400e8585613c64565b925061401e856102808601613d3e565b915061402e856102e08601613d3e565b90509250925092565b6000806102a0838503121561404a578182fd5b6140548484613c64565b94610280939093013593505050565b600060208284031215614074578081fd5b5051919050565b6000806040838503121561408d578182fd5b50508035926020909101359150565b60601b6bffffffffffffffffffffffff19169052565b60008151808452815b818110156140d7576020818501810151868301820152016140bb565b818111156140e85782602083870101525b50601f01601f19169290920160200192915050565b6000815460018082166000811461411b576001811461413957614177565b60028304607f16865260ff1983166020870152604086019350614177565b6002830480875261414986614e9d565b60005b8281101561416d5781546020828b010152848201915060208101905061414c565b8801602001955050505b50505092915050565b60008e82526bffffffffffffffffffffffff19808f60601b166020840152808e60601b166034840152808d60601b166048840152506141c2605c83018c61409c565b506070810198909852609088019690965260b087019490945260d086019290925260f08501526101108401526101308301526101508201526101700195945050505050565b9788526bffffffffffffffffffffffff19606097881b811660208a01529590961b909416603487015260488601929092526068850152608884015260a883015260c882015260e80190565b60008084546001808216600081146142715760018114614288576142b7565b60ff198316865260028304607f16860193506142b7565b600283048886526020808720875b838110156142af5781548a820152908501908201614296565b505050860193505b5050509283525050602001919050565b7f19457468657265756d205369676e6564204d6573736167653a0a3332000000008152601c810191909152603c0190565b90565b6001600160a01b0391909116815260200190565b6001600160a01b03978816815295871660208701529390951660408501526060840191909152608083015260a082019290925260c081019190915260e00190565b6001600160a01b038c811682528b81166020830152604082018b9052891660608201526080810188905260a0810187905261016081016003871061439057fe5b8660c08301528560e08301528461010083015283610120830152600583106143b457fe5b826101408301529c9b505050505050505050505050565b6001600160a01b039384168152919092166020820152604081019190915260600190565b6001600160a01b03929092168252602082015260400190565b6020808252825182820181905260009190848201906040850190845b8181101561444057835183529284019291840191600101614424565b50909695505050505050565b901515815260200190565b90815260200190565b93845260ff9290921660208401526040830152606082015260800190565b60006020825261236060208301846140b2565b60006020825261236060208301846140fd565b60208101600283106144b257fe5b91905290565b6020808252601c908201527f596f7520646f6e2774206861766520656e6f67687420746f6b656e7300000000604082015260600190565b60208082526021908201527f446973707574652068617320616c7265616479206265656e20637265617465646040820152601760f91b606082015260800190565b60208082526026908201527f54686520646973707574652068617320616c7265616479206265656e2072657360408201526537b63b32b21760d11b606082015260800190565b60208082526010908201526f105b1c9958591e48185c1c1c9bdd995960821b604082015260600190565b60208082526032908201527f4d757374206e6f742073656e642065766964656e63652069662074686520646960408201527139b83aba329034b9903932b9b7b63b32b21760711b606082015260800190565b60208082526026908201527f4f776e61626c653a206e6577206f776e657220697320746865207a65726f206160408201526564647265737360d01b606082015260800190565b6020808252818101527f54696d656f75742074696d6520686173206e6f7420706173736564207965742e604082015260600190565b6020808252600f908201526e24b73b30b634b210393ab634b7339760891b604082015260600190565b6020808252601c908201527f57617272616e74792074696d65206861732074696d6564206f75742e00000000604082015260600190565b6020808252600d908201526c496e76616c696420706861736560981b604082015260600190565b60208082526031908201527f5468652070726f7365637574696f6e20666565206d75737420636f7665722061604082015270393134ba3930ba34b7b71031b7b9ba399760791b606082015260800190565b6020808252601e908201527f596f75206d75737420626520746865206c697374696e672073656c6c65720000604082015260600190565b6020808252601b908201527f596f7520646f6e2774206861766520656e6f6768742066756e64730000000000604082015260600190565b60208082526025908201527f44697370757465206973206e6f742077616974696e6720666f7220616e79207060408201526430b93a3c9760d91b606082015260800190565b60208082526026908201527f54686520607472616e73666572602066756e6374696f6e206d757374206e6f74604082015265103330b4b61760d11b606082015260800190565b60208082526017908201527f4f6e6c792062757965722063616e20646973707574652e000000000000000000604082015260600190565b60208082526018908201527f4f6e6c792073656c6c65722063616e20646973707574652e0000000000000000604082015260600190565b60208082526021908201527f4c697374696e672068617320616c7265616479206265656e207265706f7274656040820152601960fa1b606082015260800190565b6020808252818101527f4f776e61626c653a2063616c6c6572206973206e6f7420746865206f776e6572604082015260600190565b6020808252601a908201527f53656e646572206973206e6f74206f72646572207369676e6572000000000000604082015260600190565b6020808252601e908201527f5468652063616c6c6572206d757374206265207468652073656e6465722e0000604082015260600190565b6020808252818101527f436f6e6669726d6174696f6e2074696d65206861732074696d6564206f75742e604082015260600190565b6020808252601c908201527f53656e646572206973206e6f74206c697374696e67207369676e657200000000604082015260600190565b6020808252602b908201527f526566756e642063616e27742062652067726561746572207468616e20746f7460408201526a30b61030b63637bbb2b21760a91b606082015260800190565b6020808252602f908201527f45766964656e63657320617265206f6e6c7920616c6c6f77656420666f72206f60408201526e393232b939903234b9b83aba32b99760891b606082015260800190565b60208082526027908201527f596f7520617265206e6f7420616c6c6f77656420746f207265706f7274206c6960408201526639ba34b733b99760c91b606082015260800190565b6020808252602a908201527f56616c7565206d7573742062652067726561746572207468616e2061726269746040820152691c985d1a5bdb90dbdcdd60b21b606082015260800190565b6020808252602f908201527f596f75206d7573742062652073656c6c6572206f7220627579657220696e207460408201526e3432903934b3b43a10383430b9b29760891b606082015260800190565b6020808252600d908201526c24b73b30b634b21037b93232b960991b604082015260600190565b6020808252602d908201527f41707065616c7320617265206f6e6c7920616c6c6f77656420666f72206f726460408201526c32b939903234b9b83aba32b99760991b606082015260800190565b6020808252601190820152702cb7ba9036bab9ba10313290313abcb2b960791b604082015260600190565b6020808252818101527f4f7264657220616c726561647920686173206265656e2070726f636573736564604082015260600190565b60208082526022908201527f5468652063616c6c6572206d757374206265207468652061726269747261746f604082015261391760f11b606082015260800190565b60208082526021908201527f4661696c656420746f207472616e7366657220627579657227732066756e64736040820152601760f91b606082015260800190565b60208082526019908201527f556e61626c6520746f207472616e7366657220746f6b656e7300000000000000604082015260600190565b6020808252600f908201526e496e76616c6964206c697374696e6760881b604082015260600190565b60208082526034908201527f5468652063616c6c6572206d757374206265207468652070726f73656375746960408201527337b71037b9103a3432903232b332b73230b73a1760611b606082015260800190565b6020808252602e908201527f596f752063616e2774207265706f727420796f757273656c662e20557365206360408201526d616e63656c4c697374696e67282960901b606082015260800190565b600083825260406020830152613dd960408301846140fd565b918252602082015260400190565b9283526020830191909152604082015260600190565b84815260208101849052604081018390526080810160068310614e2b57fe5b82606083015295945050505050565b600060ff8416825260406020830152613dd960408301846140fd565b60405181810167ffffffffffffffff81118282101715614e7557600080fd5b604052919050565b600067ffffffffffffffff821115614e93578081fd5b5060209081020190565b60009081526020902090565b6001600160a01b0381168114614ebe57600080fd5b5056fea264697066735822122025e738af50c53d8589df729f6a4a167562123bb85452a34ac399afd60042f71664736f6c634300060c0033",
  "immutableReferences": {},
  "source": "// SPDX-License-Identifier: MIT\npragma solidity ^0.6.0;\npragma experimental ABIEncoderV2;\n\nimport \"./BatchDagora.sol\";\nimport \"../arbitration/Arbitrator.sol\";\nimport \"../arbitration/IArbitrable.sol\";\n\ncontract KlerosDagora is BatchDagora, IArbitrable {\n    Arbitrator public arbitrator; // Address of the arbitrator contract.\n    bytes public reportExtraData; // Extra data to set up the arbitration.\n    bytes public orderExtraData; // Extra data to set up the arbitration.\n\n    constructor(\n        address _arbitrator,\n        address _token,\n        address _protocolFeeRecipient,\n        uint256 _feeTimeoutDays,\n        uint256 _blacklistTimeoutDays,\n        uint256 _protocolFeePercentage,\n        uint256 _tokenOwnerFeePercentage,\n        bytes memory _reportExtraData,\n        bytes memory _orderExtraData,\n        string memory _ipfsDomain\n    )\n        public\n        Dagora(\n            _token,\n            _protocolFeeRecipient,\n            _feeTimeoutDays,\n            _blacklistTimeoutDays,\n            _protocolFeePercentage,\n            _tokenOwnerFeePercentage,\n            _ipfsDomain\n        )\n    {\n        arbitrator = Arbitrator(_arbitrator);\n        reportExtraData = _reportExtraData;\n        orderExtraData = _orderExtraData;\n    }\n\n    function report(Listing memory _listing, Sig memory sig)\n        public\n        override\n        payable\n        returns (bytes32 hash)\n    {\n        hash = Dagora.report(_listing, sig);\n        emit MetaEvidence(\n            disputes[hash].metaEvidenceId,\n            string(abi.encodePacked(ipfsDomain, _listing.ipfsHash))\n        );\n    }\n\n    function disputeTransaction(Order memory _order)\n        public\n        override\n        payable\n        returns (bytes32 hash)\n    {\n        hash = Dagora.disputeTransaction(_order);\n        emit MetaEvidence(\n            disputes[hash].metaEvidenceId,\n            string(abi.encodePacked(ipfsDomain, _order.listing.ipfsHash))\n        );\n    }\n\n    function raiseDispute(bytes32 hash, uint256 _arbitrationCost)\n        internal\n        override\n    {\n        RunningDispute storage dispute = disputes[hash];\n        dispute.status = DisputeStatus.DisputeCreated;\n        uint256 disputeId = arbitrator.createDispute{ value: _arbitrationCost }(\n            AMOUNT_OF_CHOICES,\n            dispute.disputeType == DisputeType.Order\n                ? orderExtraData\n                : reportExtraData\n        );\n        disputeIDtoHash[disputeId] = hash;\n        emit Dispute(\n            arbitrator,\n            disputeId,\n            dispute.metaEvidenceId,\n            dispute.metaEvidenceId\n        );\n        // Refund sender if it overpaid.\n        bool success;\n        if (dispute.prosecutionFee > _arbitrationCost) {\n            uint256 extraFeeProsecution = dispute.prosecutionFee -\n                _arbitrationCost;\n            dispute.prosecutionFee = _arbitrationCost;\n            (success, ) = dispute.prosecution.call{\n                value: extraFeeProsecution\n            }(\"\");\n        }\n\n        // Refund receiver if it overpaid.\n        if (dispute.defendantFee > _arbitrationCost) {\n            uint256 extraFeeDefendant = dispute.defendantFee - _arbitrationCost;\n            dispute.defendantFee = _arbitrationCost;\n            (success, ) = dispute.defendant.call{ value: extraFeeDefendant }(\n                \"\"\n            );\n        }\n    }\n\n    function submitEvidence(bytes32 _hash, string memory _evidence)\n        public\n        override\n    {\n        RunningDispute storage dispute = disputes[_hash];\n        require(\n            _msgSender() == dispute.prosecution ||\n                _msgSender() == dispute.defendant,\n            \"The caller must be the prosecution or the defendant.\"\n        );\n        require(\n            dispute.disputeType == DisputeType.Order,\n            \"Evidences are only allowed for orders disputes.\"\n        );\n        require(\n            dispute.status < DisputeStatus.Resolved,\n            \"Must not send evidence if the dispute is resolved.\"\n        );\n\n        emit Evidence(\n            arbitrator,\n            dispute.metaEvidenceId,\n            _msgSender(),\n            _evidence\n        );\n    }\n\n    function rule(uint256 _disputeID, uint256 _ruling) public override {\n        bytes32 hash = disputeIDtoHash[_disputeID];\n        RunningDispute storage dispute = disputes[hash];\n        require(\n            _msgSender() == address(arbitrator),\n            \"The caller must be the arbitrator.\"\n        );\n        require(\n            dispute.status == DisputeStatus.DisputeCreated,\n            \"The dispute has already been resolved.\"\n        );\n        emit Ruling(Arbitrator(_msgSender()), _disputeID, _ruling);\n        if (dispute.disputeType == DisputeType.Report) {\n            executeReportRuling(dispute, _ruling);\n        } else {\n            _executeOrderRuling(dispute, _ruling);\n            transactions[hash].status = Status.Finalized;\n        }\n    }\n\n    function appeal(bytes32 _hash) public override payable {\n        RunningDispute storage dispute = disputes[_hash];\n        require(\n            dispute.disputeType == DisputeType.Order,\n            \"Appeals are only allowed for orders disputes.\"\n        );\n\n        arbitrator.appeal{ value: msg.value }(\n            dispute.disputeId,\n            orderExtraData\n        );\n    }\n\n    function arbitrationCost(DisputeType _type)\n        public\n        override\n        view\n        returns (uint256 fee)\n    {\n        require(_type > DisputeType.None);\n        if (_type == DisputeType.Report) {\n            fee = arbitrator.arbitrationCost(reportExtraData);\n        } else if (_type == DisputeType.Order) {\n            fee = arbitrator.arbitrationCost(orderExtraData);\n        }\n    }\n}\n",
  "sourcePath": "/home/gustavo/projects/dagora/contracts/marketplace/KlerosDagora.sol",
  "compiler": {
    "name": "solc",
    "version": "0.6.12+commit.27d51765.Emscripten.clang"
  },
  "schemaVersion": "3.2.3",
  "updatedAt": "2020-08-07T21:28:33.771Z",
  "devdoc": {
    "kind": "dev",
    "methods": {
      "appeal(bytes32)": {
        "details": "Appeal an appealable ruling. UNTRUSTED.  Transfer the funds to the arbitrator.  Note that no checks are required as the checks are done by the arbitrator.",
        "params": {
          "_hash": "The hash of the order."
        }
      },
      "owner()": {
        "details": "Returns the address of the current owner."
      },
      "renounceOwnership()": {
        "details": "Leaves the contract without owner. It will not be possible to call `onlyOwner` functions anymore. Can only be called by the current owner. NOTE: Renouncing ownership will leave the contract without an owner, thereby removing any functionality that is only available to the owner."
      },
      "rule(uint256,uint256)": {
        "details": "Give a ruling for a dispute. Must be called by the arbitrator.  The purpose of this function is to ensure that the address calling it has the right to rule on the contract.",
        "params": {
          "_disputeID": "ID of the dispute in the Arbitrator contract.",
          "_ruling": "Ruling given by the arbitrator. Note that 0 is reserved for \"Not able/wanting to make a decision\"."
        }
      },
      "submitEvidence(bytes32,string)": {
        "details": "Submit a reference to evidence. EVENT.",
        "params": {
          "_evidence": "A link to an evidence using its URI.",
          "_hash": "The hash of the order."
        }
      },
      "transferOwnership(address)": {
        "details": "Transfers ownership of the contract to a new account (`newOwner`). Can only be called by the current owner."
      }
    },
    "version": 1
  },
  "userdoc": {
    "kind": "user",
    "methods": {},
    "version": 1
  }
}