{
  "contractName": "TestDagora",
  "abi": [
    {
      "inputs": [
        {
          "internalType": "address",
          "name": "_arbitrator",
          "type": "address"
        },
        {
          "internalType": "address",
          "name": "_token",
          "type": "address"
        },
        {
          "internalType": "address",
          "name": "_protocolFeeRecipient",
          "type": "address"
        },
        {
          "internalType": "uint256",
          "name": "_feeTimeout",
          "type": "uint256"
        },
        {
          "internalType": "uint256",
          "name": "_protocolFeePercentage",
          "type": "uint256"
        },
        {
          "internalType": "uint256",
          "name": "_tokenOwnerFeePercentage",
          "type": "uint256"
        },
        {
          "internalType": "bytes",
          "name": "_reportExtraData",
          "type": "bytes"
        },
        {
          "internalType": "bytes",
          "name": "_orderExtraData",
          "type": "bytes"
        },
        {
          "internalType": "string",
          "name": "_ipfsDomain",
          "type": "string"
        }
      ],
      "stateMutability": "nonpayable",
      "type": "constructor"
    },
    {
      "anonymous": false,
      "inputs": [
        {
          "indexed": true,
          "internalType": "contract Arbitrator",
          "name": "_arbitrator",
          "type": "address"
        },
        {
          "indexed": true,
          "internalType": "uint256",
          "name": "_disputeID",
          "type": "uint256"
        },
        {
          "indexed": false,
          "internalType": "uint256",
          "name": "_metaEvidenceID",
          "type": "uint256"
        },
        {
          "indexed": false,
          "internalType": "uint256",
          "name": "_evidenceGroupID",
          "type": "uint256"
        }
      ],
      "name": "Dispute",
      "type": "event"
    },
    {
      "anonymous": false,
      "inputs": [
        {
          "indexed": true,
          "internalType": "contract Arbitrator",
          "name": "_arbitrator",
          "type": "address"
        },
        {
          "indexed": true,
          "internalType": "uint256",
          "name": "_evidenceGroupID",
          "type": "uint256"
        },
        {
          "indexed": true,
          "internalType": "address",
          "name": "_party",
          "type": "address"
        },
        {
          "indexed": false,
          "internalType": "string",
          "name": "_evidence",
          "type": "string"
        }
      ],
      "name": "Evidence",
      "type": "event"
    },
    {
      "anonymous": false,
      "inputs": [
        {
          "indexed": true,
          "internalType": "bytes32",
          "name": "_hash",
          "type": "bytes32"
        },
        {
          "indexed": false,
          "internalType": "enum Dagora.Party",
          "name": "_party",
          "type": "uint8"
        }
      ],
      "name": "HasToPayFee",
      "type": "event"
    },
    {
      "anonymous": false,
      "inputs": [
        {
          "indexed": true,
          "internalType": "bytes32",
          "name": "hash",
          "type": "bytes32"
        }
      ],
      "name": "ListingApproved",
      "type": "event"
    },
    {
      "anonymous": false,
      "inputs": [
        {
          "indexed": true,
          "internalType": "bytes32",
          "name": "hash",
          "type": "bytes32"
        }
      ],
      "name": "ListingCancelled",
      "type": "event"
    },
    {
      "anonymous": false,
      "inputs": [
        {
          "indexed": true,
          "internalType": "uint256",
          "name": "_metaEvidenceID",
          "type": "uint256"
        },
        {
          "indexed": false,
          "internalType": "string",
          "name": "_evidence",
          "type": "string"
        }
      ],
      "name": "MetaEvidence",
      "type": "event"
    },
    {
      "anonymous": false,
      "inputs": [
        {
          "indexed": true,
          "internalType": "bytes32",
          "name": "hash",
          "type": "bytes32"
        }
      ],
      "name": "OrderApproved",
      "type": "event"
    },
    {
      "anonymous": false,
      "inputs": [
        {
          "indexed": true,
          "internalType": "bytes32",
          "name": "hash",
          "type": "bytes32"
        }
      ],
      "name": "OrderCancelled",
      "type": "event"
    },
    {
      "anonymous": false,
      "inputs": [
        {
          "indexed": true,
          "internalType": "address",
          "name": "previousOwner",
          "type": "address"
        },
        {
          "indexed": true,
          "internalType": "address",
          "name": "newOwner",
          "type": "address"
        }
      ],
      "name": "OwnershipTransferred",
      "type": "event"
    },
    {
      "anonymous": false,
      "inputs": [
        {
          "indexed": true,
          "internalType": "contract Arbitrator",
          "name": "_arbitrator",
          "type": "address"
        },
        {
          "indexed": true,
          "internalType": "uint256",
          "name": "_disputeID",
          "type": "uint256"
        },
        {
          "indexed": false,
          "internalType": "uint256",
          "name": "_ruling",
          "type": "uint256"
        }
      ],
      "name": "Ruling",
      "type": "event"
    },
    {
      "anonymous": false,
      "inputs": [
        {
          "indexed": true,
          "internalType": "address",
          "name": "sender",
          "type": "address"
        },
        {
          "indexed": false,
          "internalType": "uint256",
          "name": "value",
          "type": "uint256"
        }
      ],
      "name": "TokenDeposited",
      "type": "event"
    },
    {
      "anonymous": false,
      "inputs": [
        {
          "indexed": true,
          "internalType": "address",
          "name": "addr",
          "type": "address"
        }
      ],
      "name": "TokenGranted",
      "type": "event"
    },
    {
      "anonymous": false,
      "inputs": [
        {
          "indexed": true,
          "internalType": "address",
          "name": "addr",
          "type": "address"
        }
      ],
      "name": "TokenRevoked",
      "type": "event"
    },
    {
      "anonymous": false,
      "inputs": [
        {
          "indexed": true,
          "internalType": "address",
          "name": "sender",
          "type": "address"
        },
        {
          "indexed": false,
          "internalType": "uint256",
          "name": "value",
          "type": "uint256"
        }
      ],
      "name": "TokenWithdrawed",
      "type": "event"
    },
    {
      "anonymous": false,
      "inputs": [
        {
          "indexed": true,
          "internalType": "bytes32",
          "name": "hash",
          "type": "bytes32"
        },
        {
          "indexed": true,
          "internalType": "address",
          "name": "buyer",
          "type": "address"
        },
        {
          "indexed": true,
          "internalType": "address",
          "name": "seller",
          "type": "address"
        },
        {
          "indexed": false,
          "internalType": "address",
          "name": "stakeOwner",
          "type": "address"
        },
        {
          "indexed": false,
          "internalType": "address",
          "name": "commissioner",
          "type": "address"
        },
        {
          "indexed": false,
          "internalType": "contract ERC20",
          "name": "token",
          "type": "address"
        },
        {
          "indexed": false,
          "internalType": "uint256",
          "name": "total",
          "type": "uint256"
        },
        {
          "indexed": false,
          "internalType": "uint256",
          "name": "commissionPercentage",
          "type": "uint256"
        },
        {
          "indexed": false,
          "internalType": "uint256",
          "name": "cashbackPercentage",
          "type": "uint256"
        },
        {
          "indexed": false,
          "internalType": "uint256",
          "name": "confirmationTimeout",
          "type": "uint256"
        }
      ],
      "name": "TransactionCreated",
      "type": "event"
    },
    {
      "anonymous": false,
      "inputs": [
        {
          "indexed": true,
          "internalType": "bytes32",
          "name": "hash",
          "type": "bytes32"
        }
      ],
      "name": "TransactionFinalized",
      "type": "event"
    },
    {
      "anonymous": false,
      "inputs": [
        {
          "indexed": true,
          "internalType": "bytes32",
          "name": "hash",
          "type": "bytes32"
        },
        {
          "indexed": false,
          "internalType": "uint256",
          "name": "value",
          "type": "uint256"
        }
      ],
      "name": "TransactionRefunded",
      "type": "event"
    },
    {
      "anonymous": false,
      "inputs": [
        {
          "indexed": true,
          "internalType": "bytes32",
          "name": "hash",
          "type": "bytes32"
        }
      ],
      "name": "WarrantyClaimed",
      "type": "event"
    },
    {
      "inputs": [],
      "name": "INVERSE_BASIS_POINT",
      "outputs": [
        {
          "internalType": "uint256",
          "name": "",
          "type": "uint256"
        }
      ],
      "stateMutability": "view",
      "type": "function",
      "constant": true
    },
    {
      "inputs": [
        {
          "internalType": "bytes32",
          "name": "_hash",
          "type": "bytes32"
        }
      ],
      "name": "appeal",
      "outputs": [],
      "stateMutability": "payable",
      "type": "function",
      "payable": true
    },
    {
      "inputs": [
        {
          "components": [
            {
              "internalType": "bytes32",
              "name": "ipfsHash",
              "type": "bytes32"
            },
            {
              "internalType": "address payable",
              "name": "seller",
              "type": "address"
            },
            {
              "internalType": "address payable",
              "name": "stakeOwner",
              "type": "address"
            },
            {
              "internalType": "uint256",
              "name": "stakedAmount",
              "type": "uint256"
            },
            {
              "internalType": "uint256",
              "name": "commissionPercentage",
              "type": "uint256"
            },
            {
              "internalType": "uint256",
              "name": "warranty",
              "type": "uint256"
            },
            {
              "internalType": "uint256",
              "name": "cashbackPercentage",
              "type": "uint256"
            },
            {
              "internalType": "uint256",
              "name": "expiration",
              "type": "uint256"
            }
          ],
          "internalType": "struct Dagora.Listing",
          "name": "_listing",
          "type": "tuple"
        }
      ],
      "name": "approveListing",
      "outputs": [
        {
          "internalType": "bool",
          "name": "",
          "type": "bool"
        }
      ],
      "stateMutability": "nonpayable",
      "type": "function"
    },
    {
      "inputs": [
        {
          "components": [
            {
              "internalType": "bytes32",
              "name": "listingHash",
              "type": "bytes32"
            },
            {
              "internalType": "address payable",
              "name": "buyer",
              "type": "address"
            },
            {
              "internalType": "address payable",
              "name": "commissioner",
              "type": "address"
            },
            {
              "internalType": "contract ERC20",
              "name": "token",
              "type": "address"
            },
            {
              "internalType": "uint256",
              "name": "total",
              "type": "uint256"
            },
            {
              "internalType": "uint256",
              "name": "shippingCost",
              "type": "uint256"
            },
            {
              "internalType": "uint256",
              "name": "expiration",
              "type": "uint256"
            },
            {
              "internalType": "uint256",
              "name": "confirmationTimeout",
              "type": "uint256"
            }
          ],
          "internalType": "struct Dagora.Order",
          "name": "order",
          "type": "tuple"
        }
      ],
      "name": "approveOrder",
      "outputs": [
        {
          "internalType": "bool",
          "name": "",
          "type": "bool"
        }
      ],
      "stateMutability": "nonpayable",
      "type": "function"
    },
    {
      "inputs": [
        {
          "internalType": "bytes32",
          "name": "",
          "type": "bytes32"
        }
      ],
      "name": "approvedHashes",
      "outputs": [
        {
          "internalType": "bool",
          "name": "",
          "type": "bool"
        }
      ],
      "stateMutability": "view",
      "type": "function",
      "constant": true
    },
    {
      "inputs": [],
      "name": "arbitrator",
      "outputs": [
        {
          "internalType": "contract Arbitrator",
          "name": "",
          "type": "address"
        }
      ],
      "stateMutability": "view",
      "type": "function",
      "constant": true
    },
    {
      "inputs": [
        {
          "internalType": "bytes32",
          "name": "",
          "type": "bytes32"
        }
      ],
      "name": "cancelledOrFinalized",
      "outputs": [
        {
          "internalType": "bool",
          "name": "",
          "type": "bool"
        }
      ],
      "stateMutability": "view",
      "type": "function",
      "constant": true
    },
    {
      "inputs": [
        {
          "components": [
            {
              "internalType": "bytes32",
              "name": "listingHash",
              "type": "bytes32"
            },
            {
              "internalType": "address payable",
              "name": "buyer",
              "type": "address"
            },
            {
              "internalType": "address payable",
              "name": "commissioner",
              "type": "address"
            },
            {
              "internalType": "contract ERC20",
              "name": "token",
              "type": "address"
            },
            {
              "internalType": "uint256",
              "name": "total",
              "type": "uint256"
            },
            {
              "internalType": "uint256",
              "name": "shippingCost",
              "type": "uint256"
            },
            {
              "internalType": "uint256",
              "name": "expiration",
              "type": "uint256"
            },
            {
              "internalType": "uint256",
              "name": "confirmationTimeout",
              "type": "uint256"
            }
          ],
          "internalType": "struct Dagora.Order",
          "name": "_order",
          "type": "tuple"
        },
        {
          "components": [
            {
              "internalType": "bytes32",
              "name": "ipfsHash",
              "type": "bytes32"
            },
            {
              "internalType": "address payable",
              "name": "seller",
              "type": "address"
            },
            {
              "internalType": "address payable",
              "name": "stakeOwner",
              "type": "address"
            },
            {
              "internalType": "uint256",
              "name": "stakedAmount",
              "type": "uint256"
            },
            {
              "internalType": "uint256",
              "name": "commissionPercentage",
              "type": "uint256"
            },
            {
              "internalType": "uint256",
              "name": "warranty",
              "type": "uint256"
            },
            {
              "internalType": "uint256",
              "name": "cashbackPercentage",
              "type": "uint256"
            },
            {
              "internalType": "uint256",
              "name": "expiration",
              "type": "uint256"
            }
          ],
          "internalType": "struct Dagora.Listing",
          "name": "_listing",
          "type": "tuple"
        }
      ],
      "name": "claimWarranty",
      "outputs": [],
      "stateMutability": "nonpayable",
      "type": "function"
    },
    {
      "inputs": [
        {
          "components": [
            {
              "internalType": "bytes32",
              "name": "listingHash",
              "type": "bytes32"
            },
            {
              "internalType": "address payable",
              "name": "buyer",
              "type": "address"
            },
            {
              "internalType": "address payable",
              "name": "commissioner",
              "type": "address"
            },
            {
              "internalType": "contract ERC20",
              "name": "token",
              "type": "address"
            },
            {
              "internalType": "uint256",
              "name": "total",
              "type": "uint256"
            },
            {
              "internalType": "uint256",
              "name": "shippingCost",
              "type": "uint256"
            },
            {
              "internalType": "uint256",
              "name": "expiration",
              "type": "uint256"
            },
            {
              "internalType": "uint256",
              "name": "confirmationTimeout",
              "type": "uint256"
            }
          ],
          "internalType": "struct Dagora.Order",
          "name": "_order",
          "type": "tuple"
        },
        {
          "components": [
            {
              "internalType": "bytes32",
              "name": "ipfsHash",
              "type": "bytes32"
            },
            {
              "internalType": "address payable",
              "name": "seller",
              "type": "address"
            },
            {
              "internalType": "address payable",
              "name": "stakeOwner",
              "type": "address"
            },
            {
              "internalType": "uint256",
              "name": "stakedAmount",
              "type": "uint256"
            },
            {
              "internalType": "uint256",
              "name": "commissionPercentage",
              "type": "uint256"
            },
            {
              "internalType": "uint256",
              "name": "warranty",
              "type": "uint256"
            },
            {
              "internalType": "uint256",
              "name": "cashbackPercentage",
              "type": "uint256"
            },
            {
              "internalType": "uint256",
              "name": "expiration",
              "type": "uint256"
            }
          ],
          "internalType": "struct Dagora.Listing",
          "name": "_listing",
          "type": "tuple"
        }
      ],
      "name": "conrfirmReceipt",
      "outputs": [],
      "stateMutability": "nonpayable",
      "type": "function"
    },
    {
      "inputs": [
        {
          "internalType": "address",
          "name": "",
          "type": "address"
        }
      ],
      "name": "contracts",
      "outputs": [
        {
          "internalType": "bool",
          "name": "",
          "type": "bool"
        }
      ],
      "stateMutability": "view",
      "type": "function",
      "constant": true
    },
    {
      "inputs": [
        {
          "components": [
            {
              "internalType": "bytes32",
              "name": "listingHash",
              "type": "bytes32"
            },
            {
              "internalType": "address payable",
              "name": "buyer",
              "type": "address"
            },
            {
              "internalType": "address payable",
              "name": "commissioner",
              "type": "address"
            },
            {
              "internalType": "contract ERC20",
              "name": "token",
              "type": "address"
            },
            {
              "internalType": "uint256",
              "name": "total",
              "type": "uint256"
            },
            {
              "internalType": "uint256",
              "name": "shippingCost",
              "type": "uint256"
            },
            {
              "internalType": "uint256",
              "name": "expiration",
              "type": "uint256"
            },
            {
              "internalType": "uint256",
              "name": "confirmationTimeout",
              "type": "uint256"
            }
          ],
          "internalType": "struct Dagora.Order",
          "name": "_order",
          "type": "tuple"
        },
        {
          "components": [
            {
              "internalType": "uint8",
              "name": "v",
              "type": "uint8"
            },
            {
              "internalType": "bytes32",
              "name": "r",
              "type": "bytes32"
            },
            {
              "internalType": "bytes32",
              "name": "s",
              "type": "bytes32"
            }
          ],
          "internalType": "struct Dagora.Sig",
          "name": "orderSig",
          "type": "tuple"
        },
        {
          "components": [
            {
              "internalType": "bytes32",
              "name": "ipfsHash",
              "type": "bytes32"
            },
            {
              "internalType": "address payable",
              "name": "seller",
              "type": "address"
            },
            {
              "internalType": "address payable",
              "name": "stakeOwner",
              "type": "address"
            },
            {
              "internalType": "uint256",
              "name": "stakedAmount",
              "type": "uint256"
            },
            {
              "internalType": "uint256",
              "name": "commissionPercentage",
              "type": "uint256"
            },
            {
              "internalType": "uint256",
              "name": "warranty",
              "type": "uint256"
            },
            {
              "internalType": "uint256",
              "name": "cashbackPercentage",
              "type": "uint256"
            },
            {
              "internalType": "uint256",
              "name": "expiration",
              "type": "uint256"
            }
          ],
          "internalType": "struct Dagora.Listing",
          "name": "_listing",
          "type": "tuple"
        },
        {
          "components": [
            {
              "internalType": "uint8",
              "name": "v",
              "type": "uint8"
            },
            {
              "internalType": "bytes32",
              "name": "r",
              "type": "bytes32"
            },
            {
              "internalType": "bytes32",
              "name": "s",
              "type": "bytes32"
            }
          ],
          "internalType": "struct Dagora.Sig",
          "name": "listingSig",
          "type": "tuple"
        }
      ],
      "name": "createTransaction",
      "outputs": [
        {
          "internalType": "bytes32",
          "name": "hash",
          "type": "bytes32"
        }
      ],
      "stateMutability": "nonpayable",
      "type": "function"
    },
    {
      "inputs": [
        {
          "internalType": "uint256",
          "name": "value",
          "type": "uint256"
        }
      ],
      "name": "depositTokens",
      "outputs": [],
      "stateMutability": "nonpayable",
      "type": "function"
    },
    {
      "inputs": [
        {
          "internalType": "uint256",
          "name": "",
          "type": "uint256"
        }
      ],
      "name": "disputeIDtoHash",
      "outputs": [
        {
          "internalType": "bytes32",
          "name": "",
          "type": "bytes32"
        }
      ],
      "stateMutability": "view",
      "type": "function",
      "constant": true
    },
    {
      "inputs": [
        {
          "internalType": "bytes32",
          "name": "hash",
          "type": "bytes32"
        }
      ],
      "name": "disputeTimeout",
      "outputs": [],
      "stateMutability": "nonpayable",
      "type": "function"
    },
    {
      "inputs": [
        {
          "components": [
            {
              "internalType": "bytes32",
              "name": "listingHash",
              "type": "bytes32"
            },
            {
              "internalType": "address payable",
              "name": "buyer",
              "type": "address"
            },
            {
              "internalType": "address payable",
              "name": "commissioner",
              "type": "address"
            },
            {
              "internalType": "contract ERC20",
              "name": "token",
              "type": "address"
            },
            {
              "internalType": "uint256",
              "name": "total",
              "type": "uint256"
            },
            {
              "internalType": "uint256",
              "name": "shippingCost",
              "type": "uint256"
            },
            {
              "internalType": "uint256",
              "name": "expiration",
              "type": "uint256"
            },
            {
              "internalType": "uint256",
              "name": "confirmationTimeout",
              "type": "uint256"
            }
          ],
          "internalType": "struct Dagora.Order",
          "name": "_order",
          "type": "tuple"
        },
        {
          "components": [
            {
              "internalType": "bytes32",
              "name": "ipfsHash",
              "type": "bytes32"
            },
            {
              "internalType": "address payable",
              "name": "seller",
              "type": "address"
            },
            {
              "internalType": "address payable",
              "name": "stakeOwner",
              "type": "address"
            },
            {
              "internalType": "uint256",
              "name": "stakedAmount",
              "type": "uint256"
            },
            {
              "internalType": "uint256",
              "name": "commissionPercentage",
              "type": "uint256"
            },
            {
              "internalType": "uint256",
              "name": "warranty",
              "type": "uint256"
            },
            {
              "internalType": "uint256",
              "name": "cashbackPercentage",
              "type": "uint256"
            },
            {
              "internalType": "uint256",
              "name": "expiration",
              "type": "uint256"
            }
          ],
          "internalType": "struct Dagora.Listing",
          "name": "_listing",
          "type": "tuple"
        }
      ],
      "name": "disputeTransaction",
      "outputs": [
        {
          "internalType": "bytes32",
          "name": "hash",
          "type": "bytes32"
        }
      ],
      "stateMutability": "payable",
      "type": "function",
      "payable": true
    },
    {
      "inputs": [
        {
          "internalType": "bytes32",
          "name": "",
          "type": "bytes32"
        }
      ],
      "name": "disputes",
      "outputs": [
        {
          "internalType": "address payable",
          "name": "prosecution",
          "type": "address"
        },
        {
          "internalType": "address payable",
          "name": "defendant",
          "type": "address"
        },
        {
          "internalType": "uint256",
          "name": "amount",
          "type": "uint256"
        },
        {
          "internalType": "contract ERC20",
          "name": "token",
          "type": "address"
        },
        {
          "internalType": "uint256",
          "name": "prosecutionFee",
          "type": "uint256"
        },
        {
          "internalType": "uint256",
          "name": "defendantFee",
          "type": "uint256"
        },
        {
          "internalType": "enum Dagora.DisputeType",
          "name": "disputeType",
          "type": "uint8"
        },
        {
          "internalType": "uint256",
          "name": "lastInteraction",
          "type": "uint256"
        },
        {
          "internalType": "uint256",
          "name": "metaEvidenceId",
          "type": "uint256"
        },
        {
          "internalType": "uint256",
          "name": "disputeId",
          "type": "uint256"
        },
        {
          "internalType": "enum Dagora.DisputeStatus",
          "name": "status",
          "type": "uint8"
        }
      ],
      "stateMutability": "view",
      "type": "function",
      "constant": true
    },
    {
      "inputs": [
        {
          "components": [
            {
              "internalType": "bytes32",
              "name": "listingHash",
              "type": "bytes32"
            },
            {
              "internalType": "address payable",
              "name": "buyer",
              "type": "address"
            },
            {
              "internalType": "address payable",
              "name": "commissioner",
              "type": "address"
            },
            {
              "internalType": "contract ERC20",
              "name": "token",
              "type": "address"
            },
            {
              "internalType": "uint256",
              "name": "total",
              "type": "uint256"
            },
            {
              "internalType": "uint256",
              "name": "shippingCost",
              "type": "uint256"
            },
            {
              "internalType": "uint256",
              "name": "expiration",
              "type": "uint256"
            },
            {
              "internalType": "uint256",
              "name": "confirmationTimeout",
              "type": "uint256"
            }
          ],
          "internalType": "struct Dagora.Order",
          "name": "_order",
          "type": "tuple"
        },
        {
          "components": [
            {
              "internalType": "bytes32",
              "name": "ipfsHash",
              "type": "bytes32"
            },
            {
              "internalType": "address payable",
              "name": "seller",
              "type": "address"
            },
            {
              "internalType": "address payable",
              "name": "stakeOwner",
              "type": "address"
            },
            {
              "internalType": "uint256",
              "name": "stakedAmount",
              "type": "uint256"
            },
            {
              "internalType": "uint256",
              "name": "commissionPercentage",
              "type": "uint256"
            },
            {
              "internalType": "uint256",
              "name": "warranty",
              "type": "uint256"
            },
            {
              "internalType": "uint256",
              "name": "cashbackPercentage",
              "type": "uint256"
            },
            {
              "internalType": "uint256",
              "name": "expiration",
              "type": "uint256"
            }
          ],
          "internalType": "struct Dagora.Listing",
          "name": "_listing",
          "type": "tuple"
        }
      ],
      "name": "executeTransaction",
      "outputs": [],
      "stateMutability": "nonpayable",
      "type": "function"
    },
    {
      "inputs": [],
      "name": "feeTimeout",
      "outputs": [
        {
          "internalType": "uint256",
          "name": "",
          "type": "uint256"
        }
      ],
      "stateMutability": "view",
      "type": "function",
      "constant": true
    },
    {
      "inputs": [
        {
          "internalType": "address",
          "name": "addr",
          "type": "address"
        }
      ],
      "name": "grantAuthentication",
      "outputs": [],
      "stateMutability": "nonpayable",
      "type": "function"
    },
    {
      "inputs": [],
      "name": "ipfsDomain",
      "outputs": [
        {
          "internalType": "string",
          "name": "",
          "type": "string"
        }
      ],
      "stateMutability": "view",
      "type": "function",
      "constant": true
    },
    {
      "inputs": [],
      "name": "marketToken",
      "outputs": [
        {
          "internalType": "contract ERC20Burnable",
          "name": "",
          "type": "address"
        }
      ],
      "stateMutability": "view",
      "type": "function",
      "constant": true
    },
    {
      "inputs": [],
      "name": "metaEvidenceCount",
      "outputs": [
        {
          "internalType": "uint256",
          "name": "",
          "type": "uint256"
        }
      ],
      "stateMutability": "view",
      "type": "function",
      "constant": true
    },
    {
      "inputs": [],
      "name": "orderExtraData",
      "outputs": [
        {
          "internalType": "bytes",
          "name": "",
          "type": "bytes"
        }
      ],
      "stateMutability": "view",
      "type": "function",
      "constant": true
    },
    {
      "inputs": [],
      "name": "owner",
      "outputs": [
        {
          "internalType": "address",
          "name": "",
          "type": "address"
        }
      ],
      "stateMutability": "view",
      "type": "function",
      "constant": true
    },
    {
      "inputs": [
        {
          "internalType": "bytes32",
          "name": "hash",
          "type": "bytes32"
        }
      ],
      "name": "payArbitrationFee",
      "outputs": [],
      "stateMutability": "payable",
      "type": "function",
      "payable": true
    },
    {
      "inputs": [],
      "name": "renounceOwnership",
      "outputs": [],
      "stateMutability": "nonpayable",
      "type": "function"
    },
    {
      "inputs": [
        {
          "components": [
            {
              "internalType": "bytes32",
              "name": "ipfsHash",
              "type": "bytes32"
            },
            {
              "internalType": "address payable",
              "name": "seller",
              "type": "address"
            },
            {
              "internalType": "address payable",
              "name": "stakeOwner",
              "type": "address"
            },
            {
              "internalType": "uint256",
              "name": "stakedAmount",
              "type": "uint256"
            },
            {
              "internalType": "uint256",
              "name": "commissionPercentage",
              "type": "uint256"
            },
            {
              "internalType": "uint256",
              "name": "warranty",
              "type": "uint256"
            },
            {
              "internalType": "uint256",
              "name": "cashbackPercentage",
              "type": "uint256"
            },
            {
              "internalType": "uint256",
              "name": "expiration",
              "type": "uint256"
            }
          ],
          "internalType": "struct Dagora.Listing",
          "name": "_listing",
          "type": "tuple"
        },
        {
          "components": [
            {
              "internalType": "uint8",
              "name": "v",
              "type": "uint8"
            },
            {
              "internalType": "bytes32",
              "name": "r",
              "type": "bytes32"
            },
            {
              "internalType": "bytes32",
              "name": "s",
              "type": "bytes32"
            }
          ],
          "internalType": "struct Dagora.Sig",
          "name": "sig",
          "type": "tuple"
        }
      ],
      "name": "report",
      "outputs": [
        {
          "internalType": "bytes32",
          "name": "hash",
          "type": "bytes32"
        }
      ],
      "stateMutability": "payable",
      "type": "function",
      "payable": true
    },
    {
      "inputs": [],
      "name": "reportExtraData",
      "outputs": [
        {
          "internalType": "bytes",
          "name": "",
          "type": "bytes"
        }
      ],
      "stateMutability": "view",
      "type": "function",
      "constant": true
    },
    {
      "inputs": [
        {
          "internalType": "address",
          "name": "addr",
          "type": "address"
        }
      ],
      "name": "revokeAuthentication",
      "outputs": [],
      "stateMutability": "nonpayable",
      "type": "function"
    },
    {
      "inputs": [
        {
          "internalType": "uint256",
          "name": "_disputeID",
          "type": "uint256"
        },
        {
          "internalType": "uint256",
          "name": "_ruling",
          "type": "uint256"
        }
      ],
      "name": "rule",
      "outputs": [],
      "stateMutability": "nonpayable",
      "type": "function"
    },
    {
      "inputs": [
        {
          "internalType": "address",
          "name": "",
          "type": "address"
        }
      ],
      "name": "sellers",
      "outputs": [
        {
          "internalType": "uint256",
          "name": "balance",
          "type": "uint256"
        },
        {
          "internalType": "uint256",
          "name": "lockedTokens",
          "type": "uint256"
        }
      ],
      "stateMutability": "view",
      "type": "function",
      "constant": true
    },
    {
      "inputs": [
        {
          "internalType": "bytes32",
          "name": "_hash",
          "type": "bytes32"
        },
        {
          "internalType": "string",
          "name": "_evidence",
          "type": "string"
        }
      ],
      "name": "submitEvidence",
      "outputs": [],
      "stateMutability": "nonpayable",
      "type": "function"
    },
    {
      "inputs": [
        {
          "internalType": "bytes32",
          "name": "",
          "type": "bytes32"
        }
      ],
      "name": "transactions",
      "outputs": [
        {
          "internalType": "uint256",
          "name": "lastStatusUpdate",
          "type": "uint256"
        },
        {
          "internalType": "uint256",
          "name": "refund",
          "type": "uint256"
        },
        {
          "internalType": "enum Dagora.Status",
          "name": "status",
          "type": "uint8"
        }
      ],
      "stateMutability": "view",
      "type": "function",
      "constant": true
    },
    {
      "inputs": [
        {
          "internalType": "address",
          "name": "newOwner",
          "type": "address"
        }
      ],
      "name": "transferOwnership",
      "outputs": [],
      "stateMutability": "nonpayable",
      "type": "function"
    },
    {
      "inputs": [
        {
          "components": [
            {
              "internalType": "bytes32",
              "name": "listingHash",
              "type": "bytes32"
            },
            {
              "internalType": "address payable",
              "name": "buyer",
              "type": "address"
            },
            {
              "internalType": "address payable",
              "name": "commissioner",
              "type": "address"
            },
            {
              "internalType": "contract ERC20",
              "name": "token",
              "type": "address"
            },
            {
              "internalType": "uint256",
              "name": "total",
              "type": "uint256"
            },
            {
              "internalType": "uint256",
              "name": "shippingCost",
              "type": "uint256"
            },
            {
              "internalType": "uint256",
              "name": "expiration",
              "type": "uint256"
            },
            {
              "internalType": "uint256",
              "name": "confirmationTimeout",
              "type": "uint256"
            }
          ],
          "internalType": "struct Dagora.Order",
          "name": "_order",
          "type": "tuple"
        },
        {
          "components": [
            {
              "internalType": "bytes32",
              "name": "ipfsHash",
              "type": "bytes32"
            },
            {
              "internalType": "address payable",
              "name": "seller",
              "type": "address"
            },
            {
              "internalType": "address payable",
              "name": "stakeOwner",
              "type": "address"
            },
            {
              "internalType": "uint256",
              "name": "stakedAmount",
              "type": "uint256"
            },
            {
              "internalType": "uint256",
              "name": "commissionPercentage",
              "type": "uint256"
            },
            {
              "internalType": "uint256",
              "name": "warranty",
              "type": "uint256"
            },
            {
              "internalType": "uint256",
              "name": "cashbackPercentage",
              "type": "uint256"
            },
            {
              "internalType": "uint256",
              "name": "expiration",
              "type": "uint256"
            }
          ],
          "internalType": "struct Dagora.Listing",
          "name": "_listing",
          "type": "tuple"
        },
        {
          "internalType": "uint256",
          "name": "refund",
          "type": "uint256"
        }
      ],
      "name": "updateRefund",
      "outputs": [],
      "stateMutability": "nonpayable",
      "type": "function"
    },
    {
      "inputs": [
        {
          "internalType": "uint256",
          "name": "value",
          "type": "uint256"
        }
      ],
      "name": "withdrawTokens",
      "outputs": [],
      "stateMutability": "nonpayable",
      "type": "function"
    },
    {
      "inputs": [
        {
          "components": [
            {
              "internalType": "bytes32",
              "name": "ipfsHash",
              "type": "bytes32"
            },
            {
              "internalType": "address payable",
              "name": "seller",
              "type": "address"
            },
            {
              "internalType": "address payable",
              "name": "stakeOwner",
              "type": "address"
            },
            {
              "internalType": "uint256",
              "name": "stakedAmount",
              "type": "uint256"
            },
            {
              "internalType": "uint256",
              "name": "commissionPercentage",
              "type": "uint256"
            },
            {
              "internalType": "uint256",
              "name": "warranty",
              "type": "uint256"
            },
            {
              "internalType": "uint256",
              "name": "cashbackPercentage",
              "type": "uint256"
            },
            {
              "internalType": "uint256",
              "name": "expiration",
              "type": "uint256"
            }
          ],
          "internalType": "struct Dagora.Listing",
          "name": "_listing",
          "type": "tuple"
        },
        {
          "components": [
            {
              "internalType": "uint8",
              "name": "v",
              "type": "uint8"
            },
            {
              "internalType": "bytes32",
              "name": "r",
              "type": "bytes32"
            },
            {
              "internalType": "bytes32",
              "name": "s",
              "type": "bytes32"
            }
          ],
          "internalType": "struct Dagora.Sig",
          "name": "sig",
          "type": "tuple"
        }
      ],
      "name": "_requireValidListing",
      "outputs": [
        {
          "internalType": "bool",
          "name": "",
          "type": "bool"
        }
      ],
      "stateMutability": "view",
      "type": "function",
      "constant": true
    },
    {
      "inputs": [
        {
          "components": [
            {
              "internalType": "bytes32",
              "name": "ipfsHash",
              "type": "bytes32"
            },
            {
              "internalType": "address payable",
              "name": "seller",
              "type": "address"
            },
            {
              "internalType": "address payable",
              "name": "stakeOwner",
              "type": "address"
            },
            {
              "internalType": "uint256",
              "name": "stakedAmount",
              "type": "uint256"
            },
            {
              "internalType": "uint256",
              "name": "commissionPercentage",
              "type": "uint256"
            },
            {
              "internalType": "uint256",
              "name": "warranty",
              "type": "uint256"
            },
            {
              "internalType": "uint256",
              "name": "cashbackPercentage",
              "type": "uint256"
            },
            {
              "internalType": "uint256",
              "name": "expiration",
              "type": "uint256"
            }
          ],
          "internalType": "struct Dagora.Listing",
          "name": "listing",
          "type": "tuple"
        }
      ],
      "name": "_hashListing",
      "outputs": [
        {
          "internalType": "bytes32",
          "name": "hash",
          "type": "bytes32"
        }
      ],
      "stateMutability": "pure",
      "type": "function",
      "constant": true
    },
    {
      "inputs": [
        {
          "components": [
            {
              "internalType": "bytes32",
              "name": "ipfsHash",
              "type": "bytes32"
            },
            {
              "internalType": "address payable",
              "name": "seller",
              "type": "address"
            },
            {
              "internalType": "address payable",
              "name": "stakeOwner",
              "type": "address"
            },
            {
              "internalType": "uint256",
              "name": "stakedAmount",
              "type": "uint256"
            },
            {
              "internalType": "uint256",
              "name": "commissionPercentage",
              "type": "uint256"
            },
            {
              "internalType": "uint256",
              "name": "warranty",
              "type": "uint256"
            },
            {
              "internalType": "uint256",
              "name": "cashbackPercentage",
              "type": "uint256"
            },
            {
              "internalType": "uint256",
              "name": "expiration",
              "type": "uint256"
            }
          ],
          "internalType": "struct Dagora.Listing",
          "name": "listing",
          "type": "tuple"
        }
      ],
      "name": "_hashListingToSign",
      "outputs": [
        {
          "internalType": "bytes32",
          "name": "hash",
          "type": "bytes32"
        }
      ],
      "stateMutability": "pure",
      "type": "function",
      "constant": true
    },
    {
      "inputs": [
        {
          "internalType": "bytes32",
          "name": "msgHash",
          "type": "bytes32"
        },
        {
          "components": [
            {
              "internalType": "uint8",
              "name": "v",
              "type": "uint8"
            },
            {
              "internalType": "bytes32",
              "name": "r",
              "type": "bytes32"
            },
            {
              "internalType": "bytes32",
              "name": "s",
              "type": "bytes32"
            }
          ],
          "internalType": "struct Dagora.Sig",
          "name": "sig",
          "type": "tuple"
        }
      ],
      "name": "_ecrecover",
      "outputs": [
        {
          "internalType": "address",
          "name": "",
          "type": "address"
        }
      ],
      "stateMutability": "pure",
      "type": "function",
      "constant": true
    }
  ],
  "bytecode": "0x60806040523480156200001157600080fd5b5060405162004d4838038062004d488339810160408190526200003491620002ae565b8888888888888888886000620000526001600160e01b036200014216565b600080546001600160a01b0319166001600160a01b0383169081178255604051929350917f8be0079c531659141344cd1fd0a4f28419497f9722a3daafe3b4186f6b6457e0908290a350600780546001600160a01b03808c166001600160a01b031992831617909255600c80548b841690831617905560118054928a1692909116919091179055600a869055600f85905560108490558251620000fd90600890602086019062000147565b5081516200011390600990602085019062000147565b5080516200012990600e90602084019062000147565b5050505050505050505050505050505050505062000396565b335b90565b828054600181600116156101000203166002900490600052602060002090601f016020900481019282601f106200018a57805160ff1916838001178555620001ba565b82800160010185558215620001ba579182015b82811115620001ba5782518255916020019190600101906200019d565b50620001c8929150620001cc565b5090565b6200014491905b80821115620001c85760008155600101620001d3565b80516001600160a01b03811681146200020157600080fd5b92915050565b600082601f83011262000218578081fd5b81516001600160401b03808211156200022f578283fd5b6040516020601f8401601f191682018101838111838210171562000251578586fd5b806040525081945083825286818588010111156200026e57600080fd5b600092505b8383101562000292578583018101518284018201529182019162000273565b83831115620002a45760008185840101525b5050505092915050565b60008060008060008060008060006101208a8c031215620002cd578485fd5b620002d98b8b620001e9565b9850620002ea8b60208c01620001e9565b9750620002fb8b60408c01620001e9565b60608b015160808c015160a08d015160c08e0151939a50919850965094506001600160401b03808211156200032e578485fd5b6200033c8d838e0162000207565b945060e08c015191508082111562000352578384fd5b620003608d838e0162000207565b93506101008c015191508082111562000377578283fd5b50620003868c828d0162000207565b9150509295985092959850929598565b6149a280620003a66000396000f3fe60806040526004361061023b5760003560e01c806382ad5f751161012e578063cae6047f116100ab578063ece1de441161006f578063ece1de4414610689578063ee7269d71461069c578063f2fde38b146106b1578063f48a0b31146106d1578063fbe4eb64146106f15761023b565b8063cae6047f146105f4578063d1e0719714610609578063d1fcfdb814610629578063d88f10b014610649578063dd49756e146106695761023b565b8063ad48d611116100f2578063ad48d61114610582578063b329036b14610597578063b6398667146105ac578063ba4bc763146105c1578063be6a18ef146105e15761023b565b806382ad5f75146104f857806387bd84cc1461050b5780638da5cb5b1461052b578063a2031de414610540578063a66f1a72146105625761023b565b80635af79807116101bc5780636d47ab72116101805780636d47ab7214610455578063715018a61461048357806372fc4213146104985780638076f005146104b857806381fd4fd7146104d85761023b565b80635af79807146103af578063642f2eaf146103c457806369dc9ff3146103f35780636b83a061146104135780636cc6cde1146104335761023b565b8063315a095d11610203578063315a095d1461030257806347081b71146103225780634f92352f1461034257806353376d1f1461036257806353a1173b146103825761023b565b806311be19971461024057806314a92c8d146102805780631b9eadb4146102ad578063203ab174146102c0578063311a6c56146102e0575b600080fd5b34801561024c57600080fd5b5061026061025b3660046138fb565b610711565b6040516102779b9a99989796959493929190613da4565b60405180910390f35b34801561028c57600080fd5b506102a061029b366004613aa6565b61077e565b6040516102779190613e67565b6102a06102bb366004613a39565b610957565b3480156102cc57600080fd5b506102a06102db3660046139d4565b610c03565b3480156102ec57600080fd5b506103006102fb366004613b19565b610c14565b005b34801561030e57600080fd5b5061030061031d3660046138fb565b610d26565b34801561032e57600080fd5b5061030061033d366004613a39565b610e3f565b34801561034e57600080fd5b506102a061035d3660046139d4565b610f65565b34801561036e57600080fd5b5061030061037d3660046138bf565b610f70565b34801561038e57600080fd5b506103a261039d366004613a1d565b610fee565b6040516102779190613e5c565b3480156103bb57600080fd5b506102a06110ab565b3480156103d057600080fd5b506103e46103df3660046138fb565b6110b1565b60405161027793929190614866565b3480156103ff57600080fd5b506103a261040e3660046138bf565b6110d5565b34801561041f57600080fd5b506103a261042e3660046139d4565b6110ea565b34801561043f57600080fd5b506104486111da565b6040516102779190613d4f565b34801561046157600080fd5b506104756104703660046138bf565b6111e9565b604051610277929190614858565b34801561048f57600080fd5b50610300611202565b3480156104a457600080fd5b506103006104b33660046138fb565b611281565b3480156104c457600080fd5b506103a26104d33660046138fb565b61143e565b3480156104e457600080fd5b506103a26104f33660046139f0565b611453565b6102a06105063660046139f0565b611468565b34801561051757600080fd5b506103a26105263660046138fb565b611703565b34801561053757600080fd5b50610448611718565b34801561054c57600080fd5b50610555611727565b6040516102779190613e8e565b34801561056e57600080fd5b5061044861057d3660046139a8565b6117b5565b34801561058e57600080fd5b5061044861181a565b3480156105a357600080fd5b506102a0611829565b3480156105b857600080fd5b5061055561182f565b3480156105cd57600080fd5b506102a06105dc3660046138fb565b61188a565b6103006105ef3660046138fb565b61189c565b34801561060057600080fd5b506102a0611afd565b34801561061557600080fd5b50610300610624366004613a66565b611b03565b34801561063557600080fd5b506103006106443660046138bf565b611c49565b34801561065557600080fd5b50610300610664366004613a39565b611cf0565b34801561067557600080fd5b506103006106843660046138fb565b611e77565b6103006106973660046138fb565b611f56565b3480156106a857600080fd5b50610555612005565b3480156106bd57600080fd5b506103006106cc3660046138bf565b612060565b3480156106dd57600080fd5b506103006106ec366004613913565b612116565b3480156106fd57600080fd5b5061030061070c366004613a39565b61221a565b600560208190526000918252604090912080546001820154600283015460038401546004850154958501546006860154600787015460088801546009890154600a909901546001600160a01b039889169a9789169996989095169695939460ff938416949293919291168b565b600061078a83836123b7565b8551146107b25760405162461bcd60e51b81526004016107a990614002565b60405180910390fd5b6107bc85856123f3565b90506000808281526004602052604090206002015460ff1660058111156107df57fe5b146107fc5760405162461bcd60e51b81526004016107a99061467d565b60008560a00151866080015101905085606001516001600160a01b03166323b872dd876020015130846040518463ffffffff1660e01b815260040161084393929190613e1f565b602060405180830381600087803b15801561085d57600080fd5b505af1158015610871573d6000803e3d6000fd5b505050506040513d601f19601f8201168201806040525081019061089591906138db565b6108b15760405162461bcd60e51b81526004016107a9906146f4565b600082815260046020526040902042815560020180546001919060ff19168280021790555083602001516001600160a01b031686602001516001600160a01b0316837fe419a7cfec7b19a58f8ef66dbf85dd08b396bafa0e2f94b3181fd3d047cb748187604001518a604001518b60600151878b608001518c60c001518f60e001516040516109469796959493929190613d63565b60405180910390a450949350505050565b600061096282612428565b8351146109815760405162461bcd60e51b81526004016107a990614002565b61098a8361243b565b60008181526004602052604090209091506001600282015460ff1660058111156109b057fe5b14806109ce57506003600282015460ff1660058111156109cc57fe5b145b6109ea5760405162461bcd60e51b81526004016107a990614143565b8360e001516201518002816000015401421115610a195760405162461bcd60e51b81526004016107a99061448a565b60075460405163f7434ea960e01b81526000916001600160a01b03169063f7434ea990610a4b90600890600401613ea1565b60206040518083038186803b158015610a6357600080fd5b505afa158015610a77573d6000803e3d6000fd5b505050506040513d601f19601f82011682018060405250810190610a9b9190613b01565b905080341015610abd5760405162461bcd60e51b81526004016107a990614545565b6000806001600285015460ff166005811115610ad557fe5b1415610b215786602001516001600160a01b0316336001600160a01b031614610b105760405162461bcd60e51b81526004016107a9906142b4565b505060208086015190850151610b63565b85602001516001600160a01b0316336001600160a01b031614610b565760405162461bcd60e51b81526004016107a9906142eb565b5050602080860151908501515b6002848101805460ff1916600417905542855560808801516060890151600092610b969289928792879291903490612449565b905080600801547f61606860eb6c87306811e2695215385101daab53bd6ab4e9f9049aead9363c7d600e8960000151604051602001610bd6929190613ca6565b60408051601f1981840301815290829052610bf091613e8e565b60405180910390a2505050505092915050565b6000610c0e82612428565b92915050565b60008281526006602090815260408083205480845260059092529091206007546001600160a01b03163314610c5b5760405162461bcd60e51b81526004016107a9906146b2565b6003600a82015460ff166004811115610c7057fe5b14610c8d5760405162461bcd60e51b81526004016107a990613f40565b83336001600160a01b03167f394027a5fa6e098a1191094d1719d6929b9abc535fcc0c8f448d6a4e7562227685604051610cc79190613e67565b60405180910390a36001600682015460ff166002811115610ce457fe5b1415610cf957610cf48184612558565b610d20565b610d0381846128a0565b6000828152600460205260409020600201805460ff191660051790555b50505050565b33600090815260016020819052604090912090810154815403821115610d5e5760405162461bcd60e51b81526004016107a990613ec8565b600c546040516323b872dd60e01b81526001600160a01b03909116906323b872dd90610d9290339030908790600401613e1f565b602060405180830381600087803b158015610dac57600080fd5b505af1158015610dc0573d6000803e3d6000fd5b505050506040513d601f19601f82011682018060405250810190610de491906138db565b610ded57600080fd5b336000818152600160205260409081902080548590039055517f05e8d4927d2e9cff8a7d6f1c0c3b0fdd4d7299da00fe4911745bda49a5834e6790610e33908590613e67565b60405180910390a25050565b610e4881612428565b825114610e675760405162461bcd60e51b81526004016107a990614002565b6000610e728361243b565b600081815260046020526040902090915060028082015460ff166005811115610e9757fe5b14610eb45760405162461bcd60e51b81526004016107a990614143565b83602001516001600160a01b0316336001600160a01b031614610ee95760405162461bcd60e51b81526004016107a990614652565b8260a001516201518002816000015401421115610f185760405162461bcd60e51b81526004016107a99061410c565b60028101805460ff191660031790556080840151600182015542815560405182907f99e77d4092287badf5165a76eb7add37ec282650747091906c6a02e0cd4f5b3d90600090a250505050565b6000610c0e82612cdd565b610f78612d35565b6000546001600160a01b03908116911614610fa55760405162461bcd60e51b81526004016107a9906143a4565b6001600160a01b0381166000818152600b6020526040808220805460ff19169055517f45f62f30e7b8439e0da7d8e560fe39d01238091ce9e789e3d12b514edf98acea9190a250565b600081602001516001600160a01b0316336001600160a01b0316146110255760405162461bcd60e51b81526004016107a9906143d9565b60006110308361243b565b60008181526003602052604090205490915060ff16156110625760405162461bcd60e51b81526004016107a990613f86565b600081815260036020526040808220805460ff191660011790555182917f0bed755d9d22259660bf623a395b620bbff2af67319e990b538dc8603bdc3e5f91a250600192915050565b600d5481565b60046020526000908152604090208054600182015460029092015490919060ff1683565b600b6020526000908152604090205460ff1681565b600081604001516001600160a01b0316336001600160a01b0316146111215760405162461bcd60e51b81526004016107a9906144bf565b60608201513360009081526001602052604090205410156111545760405162461bcd60e51b81526004016107a9906141f2565b600061115f83612428565b60008181526003602052604090205490915060ff16156111915760405162461bcd60e51b81526004016107a990613f86565b600081815260036020526040808220805460ff191660011790555182917f4e58c75167b3bff3ab3949a55f72203f341f94cca1c2c0c84370731b2b4c201791a250600192915050565b6007546001600160a01b031681565b6001602081905260009182526040909120805491015482565b61120a612d35565b6000546001600160a01b039081169116146112375760405162461bcd60e51b81526004016107a9906143a4565b600080546040516001600160a01b03909116907f8be0079c531659141344cd1fd0a4f28419497f9722a3daafe3b4186f6b6457e0908390a3600080546001600160a01b0319169055565b6000818152600560205260409020600a81015460ff1660048111156112a257fe5b60001080156112c357506003600a82015460ff1660048111156112c157fe5b105b6112df5760405162461bcd60e51b81526004016107a990614229565b600a548160070154420310156113075760405162461bcd60e51b81526004016107a990614077565b6000816004015460001461138557600482018054600090915582546040516001600160a01b0390911690829061133c90613d4c565b60006040518083038185875af1925050503d8060008114611379576040519150601f19603f3d011682016040523d82523d6000602084013e61137e565b606091505b5090925050505b60058201541561140257600582018054600090915560018301546040516001600160a01b039091169082906113b990613d4c565b60006040518083038185875af1925050503d80600081146113f6576040519150601f19603f3d011682016040523d82523d6000602084013e6113fb565b606091505b5090925050505b6002600a83015460ff16600481111561141757fe5b141561142e576114298260015b612558565b611439565b611439826002611424565b505050565b60026020526000908152604090205460ff1681565b600061145f83836123b7565b15159392505050565b600061147483836123b7565b9050600080828152600560205260409020600a015460ff16600481111561149757fe5b146114b45760405162461bcd60e51b81526004016107a990614363565b82604001516001600160a01b0316336001600160a01b031614156114ea5760405162461bcd60e51b81526004016107a9906147e9565b60075460405163f7434ea960e01b81526000916001600160a01b03169063f7434ea99061151c90600890600401613ea1565b60206040518083038186803b15801561153457600080fd5b505afa158015611548573d6000803e3d6000fd5b505050506040513d601f19601f8201168201806040525081019061156c9190613b01565b90508034101561158e5760405162461bcd60e51b81526004016107a990614545565b33600090815260016020819052604090912090810154815460608701519190039081101561166f57600c5460608701516040516323b872dd60e01b81526001600160a01b03909216916323b872dd916115f291339130919087900390600401613e1f565b602060405180830381600087803b15801561160c57600080fd5b505af1158015611620573d6000803e3d6000fd5b505050506040513d601f19601f8201168201806040525081019061164491906138db565b6116605760405162461bcd60e51b81526004016107a990614735565b60608601518254908290030182555b604080870180516001600160a01b0390811660009081526001602081905293812060608b01518786018054820190558186018054820190559351600c54919592946116c3948b943394909116903490612449565b905080600801547f61606860eb6c87306811e2695215385101daab53bd6ab4e9f9049aead9363c7d600e8a60000151604051602001610bd6929190613ca6565b60036020526000908152604090205460ff1681565b6000546001600160a01b031690565b600e805460408051602060026001851615610100026000190190941693909304601f810184900484028201840190925281815292918301828280156117ad5780601f10611782576101008083540402835291602001916117ad565b820191906000526020600020905b81548152906001019060200180831161179057829003601f168201915b505050505081565b6000600183836000015184602001518560400151604051600081526020016040526040516117e69493929190613e70565b6020604051602081039080840390855afa158015611808573d6000803e3d6000fd5b5050604051601f190151949350505050565b600c546001600160a01b031681565b600a5481565b6009805460408051602060026001851615610100026000190190941693909304601f810184900484028201840190925281815292918301828280156117ad5780601f10611782576101008083540402835291602001916117ad565b60066020526000908152604090205481565b600081815260056020526040808220600754915163f7434ea960e01b81529092916001600160a01b03169063f7434ea9906118dc90600890600401613ea1565b60206040518083038186803b1580156118f457600080fd5b505afa158015611908573d6000803e3d6000fd5b505050506040513d601f19601f8201168201806040525081019061192c9190613b01565b600a83015490915060ff16600481111561194257fe5b600010801561196357506003600a83015460ff16600481111561196157fe5b105b61197f5760405162461bcd60e51b81526004016107a990613eff565b81546001600160a01b03163314806119a3575060018201546001600160a01b031633145b6119bf5760405162461bcd60e51b81526004016107a990614410565b81546001600160a01b0316331415611a67576004820180543401908190558111156119fc5760405162461bcd60e51b81526004016107a99061416a565b4260078301556005820154811115611a5d57600a8201805460ff1916600217905560405183907ff972c77402d0ee7d94e4b2ea7cee21a3d392136bf7c9b72d2dc85e2a4d24a9cf90611a5090600190613eb4565b60405180910390a2611429565b6114298382612d39565b600582018054340190819055811115611a925760405162461bcd60e51b81526004016107a99061416a565b4260078301556004820154811115611af357600a8201805460ff1916600117905560405183907ff972c77402d0ee7d94e4b2ea7cee21a3d392136bf7c9b72d2dc85e2a4d24a9cf90611ae690600090613eb4565b60405180910390a2611439565b6114398382612d39565b61271081565b611b0c82612428565b835114611b2b5760405162461bcd60e51b81526004016107a990614002565b81602001516001600160a01b0316336001600160a01b031614611b605760405162461bcd60e51b81526004016107a9906141bb565b6000611b6b8461243b565b60008181526004602052604090209091506001600282015460ff166005811115611b9157fe5b14611bae5760405162461bcd60e51b81526004016107a990614143565b8460e001516201518002816000015401421115611bdd5760405162461bcd60e51b81526004016107a99061448a565b8460800151831115611c015760405162461bcd60e51b81526004016107a990614447565b828160010181905550817fe18fe462037a62d3500e07f2b32d9e16a69cee44850c9b7dcef7d856087e4aff84604051611c3a9190613e67565b60405180910390a25050505050565b611c51612d35565b6000546001600160a01b03908116911614611c7e5760405162461bcd60e51b81526004016107a9906143a4565b6001600160a01b0381166000908152600b602052604090205460ff1615611ca457600080fd5b6001600160a01b0381166000818152600b6020526040808220805460ff19166001179055517f52133ca86a0b20d025852c627bd9d5c8e6037a237d7ef7d22f399ae642e6b9b49190a250565b611cf981612428565b825114611d185760405162461bcd60e51b81526004016107a990614002565b6000611d238361243b565b9050600160008281526004602052604090206002015460ff166005811115611d4757fe5b148015611d69575082602001516001600160a01b0316336001600160a01b0316145b80611db35750600360008281526004602052604090206002015460ff166005811115611d9157fe5b148015611db3575081602001516001600160a01b0316336001600160a01b0316145b611dcf5760405162461bcd60e51b81526004016107a99061458f565b600081815260046020526040902060010154158015611df2575060008260a00151115b15611e1d5760008181526004602052604090206002808201805460ff19169091179055429055611439565b6000611e3184608001518560a00151612f76565b9050610d20828560200151856020015187604001518760400151896060015187600460008b8152602001908152602001600020600101548b608001518c60c00151612f9b565b600c546040516323b872dd60e01b81526001600160a01b03909116906323b872dd90611eab90339030908690600401613e1f565b602060405180830381600087803b158015611ec557600080fd5b505af1158015611ed9573d6000803e3d6000fd5b505050506040513d601f19601f82011682018060405250810190611efd91906138db565b611f0657600080fd5b3360008181526001602052604090819020805484019055517fbc7c8a4d8049a3f99a02f2a20640c206a2e4d3f2fa54fd20da9f01fda3620cda90611f4b908490613e67565b60405180910390a250565b60008181526005602052604090206002600682015460ff166002811115611f7957fe5b14611f965760405162461bcd60e51b81526004016107a990614605565b60075460098083015460405163093225f160e31b81526001600160a01b03909316926349912f88923492611fcf92909190600401614837565b6000604051808303818588803b158015611fe857600080fd5b505af1158015611ffc573d6000803e3d6000fd5b50505050505050565b6008805460408051602060026001851615610100026000190190941693909304601f810184900484028201840190925281815292918301828280156117ad5780601f10611782576101008083540402835291602001916117ad565b612068612d35565b6000546001600160a01b039081169116146120955760405162461bcd60e51b81526004016107a9906143a4565b6001600160a01b0381166120bb5760405162461bcd60e51b81526004016107a990614031565b600080546040516001600160a01b03808516939216917f8be0079c531659141344cd1fd0a4f28419497f9722a3daafe3b4186f6b6457e091a3600080546001600160a01b0319166001600160a01b0392909216919091179055565b600082815260056020526040902080546001600160a01b0316331480612148575060018101546001600160a01b031633145b6121645760405162461bcd60e51b81526004016107a990614795565b6002600682015460ff16600281111561217957fe5b146121965760405162461bcd60e51b81526004016107a9906144f6565b6004600a82015460ff1660048111156121ab57fe5b106121c85760405162461bcd60e51b81526004016107a990613fb0565b60088101546007546040513392916001600160a01b0316907fdccf2f8b2cc26eafcd61905cba744cff4b81d14740725f6376390dc6298a6a3c9061220d908790613e8e565b60405180910390a4505050565b61222381612428565b8251146122425760405162461bcd60e51b81526004016107a990614002565b600061224d8361243b565b60008181526004602052604090209091506001600282015460ff16600581111561227357fe5b1480612290575060028082015460ff16600581111561228e57fe5b145b806122ad57506003600282015460ff1660058111156122ab57fe5b145b6122c95760405162461bcd60e51b81526004016107a990614143565b60006001600283015460ff1660058111156122e057fe5b14806122fe57506003600283015460ff1660058111156122fc57fe5b145b1561233657428560e001516201518002836000015401116123315760405162461bcd60e51b81526004016107a990614077565b61236b565b428460a001516201518002836000015401116123645760405162461bcd60e51b81526004016107a990614077565b5060c08301515b600061237f86608001518760a00151612f76565b90506123af8487602001518760200151896040015189604001518b60600151878a600101548d608001518b612f9b565b505050505050565b6000806123c384612428565b90506123d08185856133d1565b6123ec5760405162461bcd60e51b81526004016107a99061476c565b9392505050565b6000806123ff8461243b565b905061240c818585613503565b6123ec5760405162461bcd60e51b81526004016107a9906145de565b6000610c0e61243683612cdd565b6135d1565b6000610c0e61243683613601565b600087815260056020526040902080546001600160a01b038089166001600160a01b031992831617835560018084018054928a1692909316919091179091556002808301879055600483018054860190556006830180548593919260ff19909116919084908111156124b757fe5b021790555060018260028111156124ca57fe5b14156124ee576003810180546001600160a01b0319166001600160a01b0386161790555b600a8101805460ff19166002179055426007820155600d80546001818101909255600883015560405189917ff972c77402d0ee7d94e4b2ea7cee21a3d392136bf7c9b72d2dc85e2a4d24a9cf916125459190613eb4565b60405180910390a2979650505050505050565b60028111156125795760405162461bcd60e51b81526004016107a9906140ac565b6002820180546004808501805460058701805460009687905592869055859055600a8701805460ff191690931790925560016020819052808701546001600160a01b03168552929391929091908514156126d25785546040516001600160a01b039091169084906125e990613d4c565b60006040518083038185875af1925050503d8060008114612626576040519150601f19603f3d011682016040523d82523d6000602084013e61262b565b606091505b50506001878101546001600160a01b03908116600090815260209290925260408083208054899003905589548216835290912080546002808904909101909155600c549293509116906342966c6890865b0486036040518263ffffffff1660e01b815260040161269b9190613e67565b600060405180830381600087803b1580156126b557600080fd5b505af11580156126c9573d6000803e3d6000fd5b505050506123af565b600285141561278f5760018601546040516001600160a01b039091169083906126fa90613d4c565b60006040518083038185875af1925050503d8060008114612737576040519150601f19603f3d011682016040523d82523d6000602084013e61273c565b606091505b505086546001600160a01b03908116600090815260016020819052604080832080548a90039055908a015483168252902080546002808904909101909155600c549293509116906342966c68908661267c565b600186015460405160028504916001600160a01b031690828503906127b390613d4c565b60006040518083038185875af1925050503d80600081146127f0576040519150601f19603f3d011682016040523d82523d6000602084013e6127f5565b606091505b505087546040519193506001600160a01b031690829061281490613d4c565b60006040518083038185875af1925050503d8060008114612851576040519150601f19603f3d011682016040523d82523d6000602084013e612856565b606091505b505087546001600160a01b03908116600090815260016020819052604080832080546002909b049a8b900390559a0154909116815297909720805495909503909455505050505050565b60028111156128c15760405162461bcd60e51b81526004016107a9906140ac565b6002820180546004808501805460058701805460009687905592869055859055600a8701805460ff191690931790925591929091906001851415612a0b5785546040516001600160a01b0390911690849061291b90613d4c565b60006040518083038185875af1925050503d8060008114612958576040519150601f19603f3d011682016040523d82523d6000602084013e61295d565b606091505b50506003870154875460405163a9059cbb60e01b81529293506001600160a01b039182169263a9059cbb926129989216908890600401613e43565b602060405180830381600087803b1580156129b257600080fd5b505af11580156129c6573d6000803e3d6000fd5b505050506040513d601f19601f820116820180604052508101906129ea91906138db565b612a065760405162461bcd60e51b81526004016107a99061426e565b6123af565b6002851415612ab35760018601546040516001600160a01b03909116908390612a3390613d4c565b60006040518083038185875af1925050503d8060008114612a70576040519150601f19603f3d011682016040523d82523d6000602084013e612a75565b606091505b50506003870154600188015460405163a9059cbb60e01b81529293506001600160a01b039182169263a9059cbb926129989216908890600401613e43565b600186015460405160028504916001600160a01b03169082850390612ad790613d4c565b60006040518083038185875af1925050503d8060008114612b14576040519150601f19603f3d011682016040523d82523d6000602084013e612b19565b606091505b505087546040519193506001600160a01b0316908290612b3890613d4c565b60006040518083038185875af1925050503d8060008114612b75576040519150601f19603f3d011682016040523d82523d6000602084013e612b7a565b606091505b50506003880154600189015460405163a9059cbb60e01b815292945060028804926001600160a01b039283169263a9059cbb92612bc092911690858b0390600401613e43565b602060405180830381600087803b158015612bda57600080fd5b505af1158015612bee573d6000803e3d6000fd5b505050506040513d601f19601f82011682018060405250810190612c1291906138db565b612c2e5760405162461bcd60e51b81526004016107a99061426e565b6003880154885460405163a9059cbb60e01b81526001600160a01b039283169263a9059cbb92612c65929116908590600401613e43565b602060405180830381600087803b158015612c7f57600080fd5b505af1158015612c93573d6000803e3d6000fd5b505050506040513d601f19601f82011682018060405250810190612cb791906138db565b612cd35760405162461bcd60e51b81526004016107a99061426e565b5050505050505050565b80516020808301516040808501516060860151608087015160a088015160c089015160e08a01519551600099612d17999098979101613c5b565b60408051808303601f19018152919052805160209091012092915050565b3390565b6000828152600560205260409020600a810180546003919060ff191660018302179055506007546000906001600160a01b031663c13517e184600280600687015460ff166002811115612d8857fe5b14612d94576008612d97565b60095b6040518463ffffffff1660e01b8152600401612db492919061488c565b6020604051808303818588803b158015612dcd57600080fd5b505af1158015612de1573d6000803e3d6000fd5b50505050506040513d601f19601f82011682018060405250810190612e069190613b01565b600081815260066020526040908190208690556007546008850154915192935083926001600160a01b03909116917f74baab670a4015ab2f1b467c5252a96141a2573f2908e58a92081e80d3cfde3d91612e6291908190614858565b60405180910390a360008383600401541115612eec5760048301805490859055835460405191869003916001600160a01b03909116908290612ea390613d4c565b60006040518083038185875af1925050503d8060008114612ee0576040519150601f19603f3d011682016040523d82523d6000602084013e612ee5565b606091505b5090925050505b8383600501541115612f6f5760058301805490859055600184015460405191869003916001600160a01b03909116908290612f2690613d4c565b60006040518083038185875af1925050503d8060008114612f63576040519150601f19603f3d011682016040523d82523d6000602084013e612f68565b606091505b5090925050505b5050505050565b6000828201838110156123ec5760405162461bcd60e51b81526004016107a9906140d5565b6001600160a01b038516612fae57600080fd5b6001600160a01b0385166000908152600b602052604090205460ff16612fd357600080fd5b60008a815260046020526040812060028101805460ff19166005179055429055612ffd858561363b565b600f54909150156130bf576000613021613019600f548461367d565b6127106136b7565b905061302d828261363b565b60115460405163a9059cbb60e01b81529193506001600160a01b03808a169263a9059cbb926130629216908590600401613e43565b602060405180830381600087803b15801561307c57600080fd5b505af1158015613090573d6000803e3d6000fd5b505050506040513d601f19601f820116820180604052508101906130b491906138db565b6130bd57600080fd5b505b60006010541180156130e35750866001600160a01b0316896001600160a01b031614155b156131935760006130f96130196010548461367d565b9050613105828261363b565b60405163a9059cbb60e01b81529092506001600160a01b0388169063a9059cbb90613136908b908590600401613e43565b602060405180830381600087803b15801561315057600080fd5b505af1158015613164573d6000803e3d6000fd5b505050506040513d601f19601f8201168201806040525081019061318891906138db565b61319157600080fd5b505b6000831180156131ab57506001600160a01b03881615155b156132595760006131bf613019858461367d565b90506131cb828261363b565b60405163a9059cbb60e01b81529092506001600160a01b0388169063a9059cbb906131fc908c908590600401613e43565b602060405180830381600087803b15801561321657600080fd5b505af115801561322a573d6000803e3d6000fd5b505050506040513d601f19601f8201168201806040525081019061324e91906138db565b61325757600080fd5b505b811561330a57600061326e613019848461367d565b905061327a828261363b565b60405163a9059cbb60e01b81529092506001600160a01b0388169063a9059cbb906132ad908e90858a0190600401613e43565b602060405180830381600087803b1580156132c757600080fd5b505af11580156132db573d6000803e3d6000fd5b505050506040513d601f19601f820116820180604052508101906132ff91906138db565b61330857600080fd5b505b80156133995760405163a9059cbb60e01b81526001600160a01b0387169063a9059cbb9061333e908c908590600401613e43565b602060405180830381600087803b15801561335857600080fd5b505af115801561336c573d6000803e3d6000fd5b505050506040513d601f19601f8201168201806040525081019061339091906138db565b61339957600080fd5b6040518b907f24196ec40f90671b7144e716978686b4f3c7d6b00b23da3971ef2b52af27d87f90600090a25050505050505050505050565b60008260e001516000141580156133eb57508260e0015142115b156133f8575060006123ec565b6060830151604080850180516001600160a01b03908116600090815260016020819052848220015492519091168152919091205403101561343b575060006123ec565b60008481526002602052604090205460ff161561345a575060006123ec565b60008481526003602052604090205460ff1615613479575060016123ec565b82604001516001600160a01b0316600185846000015185602001518660400151604051600081526020016040526040516134b69493929190613e70565b6020604051602081039080840390855afa1580156134d8573d6000803e3d6000fd5b505050602060405103516001600160a01b031614156134f9575060016123ec565b5060009392505050565b60008260c0015160001415801561351d57508260c0015142115b1561352a575060006123ec565b60608301516001600160a01b03166000908152600b602052604090205460ff16613556575060006123ec565b60008481526002602052604090205460ff1615613575575060006123ec565b60008481526003602052604090205460ff1615613594575060016123ec565b82602001516001600160a01b0316600185846000015185602001518660400151604051600081526020016040526040516134b69493929190613e70565b6000816040516020016135e49190613d1b565b604051602081830303815290604052805190602001209050919050565b80516020808301516040808501516060860151608087015160a088015160c089015160e08a01519551600099612d17999098979101613c08565b60006123ec83836040518060400160405280601e81526020017f536166654d6174683a207375627472616374696f6e206f766572666c6f7700008152506136f9565b60008261368c57506000610c0e565b8282028284828161369957fe5b04146123ec5760405162461bcd60e51b81526004016107a990614322565b60006123ec83836040518060400160405280601a81526020017f536166654d6174683a206469766973696f6e206279207a65726f000000000000815250613725565b6000818484111561371d5760405162461bcd60e51b81526004016107a99190613e8e565b505050900390565b600081836137465760405162461bcd60e51b81526004016107a99190613e8e565b50600083858161375257fe5b0495945050505050565b8035610c0e81614954565b600061010080838503121561377a578182fd5b61378381614921565b91505081358152602082013561379881614954565b602082015260408201356137ab81614954565b80604083015250606082013560608201526080820135608082015260a082013560a082015260c082013560c082015260e082013560e082015292915050565b60006101008083850312156137fd578182fd5b61380681614921565b91505081358152602082013561381b81614954565b6020820152604082013561382e81614954565b6040820152613840836060840161375c565b60608201526080820135608082015260a082013560a082015260c082013560c082015260e082013560e082015292915050565b600060608284031215613884578081fd5b61388e6060614921565b9050813560ff811681146138a157600080fd5b80825250602082013560208201526040820135604082015292915050565b6000602082840312156138d0578081fd5b81356123ec81614954565b6000602082840312156138ec578081fd5b815180151581146123ec578182fd5b60006020828403121561390c578081fd5b5035919050565b60008060408385031215613925578081fd5b8235915060208084013567ffffffffffffffff80821115613944578384fd5b81860187601f820112613955578485fd5b8035925081831115613965578485fd5b613977601f8401601f19168501614921565b9150828252878484830101111561398c578485fd5b8284820185840137509081019091019190915290939092509050565b600080608083850312156139ba578182fd5b823591506139cb8460208501613873565b90509250929050565b600061010082840312156139e6578081fd5b6123ec8383613767565b6000806101608385031215613a03578182fd5b613a0d8484613767565b91506139cb846101008501613873565b60006101008284031215613a2f578081fd5b6123ec83836137ea565b6000806102008385031215613a4c578182fd5b613a5684846137ea565b91506139cb846101008501613767565b60008060006102208486031215613a7b578081fd5b613a8585856137ea565b9250613a95856101008601613767565b915061020084013590509250925092565b6000806000806102c08587031215613abc578182fd5b613ac686866137ea565b9350613ad6866101008701613873565b9250613ae6866101608701613767565b9150613af6866102608701613873565b905092959194509250565b600060208284031215613b12578081fd5b5051919050565b60008060408385031215613b2b578182fd5b50508035926020909101359150565b60008151808452815b81811015613b5f57602081850181015186830182015201613b43565b81811115613b705782602083870101525b50601f01601f19169290920160200192915050565b60008154600180821660008114613ba35760018114613bc157613bff565b60028304607f16865260ff1983166020870152604086019350613bff565b60028304808752613bd186614948565b60005b82811015613bf55781546020828b0101528482019150602081019050613bd4565b8801602001955050505b50505092915050565b9788526bffffffffffffffffffffffff19606097881b811660208a015295871b861660348901529390951b9093166048860152605c850152607c840191909152609c83019190915260bc82015260dc0190565b9788526bffffffffffffffffffffffff19606097881b811660208a01529590961b909416603487015260488601929092526068850152608884015260a883015260c882015260e80190565b6000808454600180821660008114613cc55760018114613cdc57613d0b565b60ff198316865260028304607f1686019350613d0b565b600283048886526020808720875b83811015613d035781548a820152908501908201613cea565b505050860193505b5050509283525050602001919050565b7f19457468657265756d205369676e6564204d6573736167653a0a3332000000008152601c810191909152603c0190565b90565b6001600160a01b0391909116815260200190565b6001600160a01b03978816815295871660208701529390951660408501526060840191909152608083015260a082019290925260c081019190915260e00190565b6001600160a01b038c811682528b81166020830152604082018b9052891660608201526080810188905260a08101879052610160810160038710613de457fe5b8660c08301528560e0830152846101008301528361012083015260058310613e0857fe5b826101408301529c9b505050505050505050505050565b6001600160a01b039384168152919092166020820152604081019190915260600190565b6001600160a01b03929092168252602082015260400190565b901515815260200190565b90815260200190565b93845260ff9290921660208401526040830152606082015260800190565b6000602082526123ec6020830184613b3a565b6000602082526123ec6020830184613b85565b6020810160028310613ec257fe5b91905290565b6020808252601c908201527f596f7520646f6e2774206861766520656e6f67687420746f6b656e7300000000604082015260600190565b60208082526021908201527f446973707574652068617320616c7265616479206265656e20637265617465646040820152601760f91b606082015260800190565b60208082526026908201527f54686520646973707574652068617320616c7265616479206265656e2072657360408201526537b63b32b21760d11b606082015260800190565b60208082526010908201526f105b1c9958591e48185c1c1c9bdd995960821b604082015260600190565b60208082526032908201527f4d757374206e6f742073656e642065766964656e63652069662074686520646960408201527139b83aba329034b9903932b9b7b63b32b21760711b606082015260800190565b602080825260159082015274131a5cdd1a5b99c81a5cdb89dd0818dbdc9c9958dd605a1b604082015260600190565b60208082526026908201527f4f776e61626c653a206e6577206f776e657220697320746865207a65726f206160408201526564647265737360d01b606082015260800190565b6020808252818101527f54696d656f75742074696d6520686173206e6f7420706173736564207965742e604082015260600190565b6020808252600f908201526e24b73b30b634b210393ab634b7339760891b604082015260600190565b6020808252601b908201527f536166654d6174683a206164646974696f6e206f766572666c6f770000000000604082015260600190565b6020808252601c908201527f57617272616e74792074696d65206861732074696d6564206f75742e00000000604082015260600190565b6020808252600d908201526c496e76616c696420706861736560981b604082015260600190565b60208082526031908201527f5468652070726f7365637574696f6e20666565206d75737420636f7665722061604082015270393134ba3930ba34b7b71031b7b9ba399760791b606082015260800190565b6020808252601e908201527f596f75206d75737420626520746865206c697374696e672073656c6c65720000604082015260600190565b6020808252601b908201527f596f7520646f6e2774206861766520656e6f6768742066756e64730000000000604082015260600190565b60208082526025908201527f44697370757465206973206e6f742077616974696e6720666f7220616e79207060408201526430b93a3c9760d91b606082015260800190565b60208082526026908201527f54686520607472616e73666572602066756e6374696f6e206d757374206e6f74604082015265103330b4b61760d11b606082015260800190565b60208082526017908201527f4f6e6c792062757965722063616e20646973707574652e000000000000000000604082015260600190565b60208082526018908201527f4f6e6c792073656c6c65722063616e20646973707574652e0000000000000000604082015260600190565b60208082526021908201527f536166654d6174683a206d756c7469706c69636174696f6e206f766572666c6f6040820152607760f81b606082015260800190565b60208082526021908201527f4c697374696e672068617320616c7265616479206265656e207265706f7274656040820152601960fa1b606082015260800190565b6020808252818101527f4f776e61626c653a2063616c6c6572206973206e6f7420746865206f776e6572604082015260600190565b6020808252601a908201527f53656e646572206973206e6f74206f72646572207369676e6572000000000000604082015260600190565b6020808252601e908201527f5468652063616c6c6572206d757374206265207468652073656e6465722e0000604082015260600190565b60208082526023908201527f526566756e642063616e27742062652067726561746572207468616e20746f7460408201526230b61760e91b606082015260800190565b6020808252818101527f436f6e6669726d6174696f6e2074696d65206861732074696d6564206f75742e604082015260600190565b6020808252601c908201527f53656e646572206973206e6f74206c697374696e67207369676e657200000000604082015260600190565b6020808252602f908201527f45766964656e63657320617265206f6e6c7920616c6c6f77656420666f72206f60408201526e393232b939903234b9b83aba32b99760891b606082015260800190565b6020808252602a908201527f56616c7565206d7573742062652067726561746572207468616e2061726269746040820152691c985d1a5bdb90dbdcdd60b21b606082015260800190565b6020808252602f908201527f596f75206d7573742062652073656c6c6572206f7220627579657220696e207460408201526e3432903934b3b43a10383430b9b29760891b606082015260800190565b6020808252600d908201526c24b73b30b634b21037b93232b960991b604082015260600190565b6020808252602d908201527f41707065616c7320617265206f6e6c7920616c6c6f77656420666f72206f726460408201526c32b939903234b9b83aba32b99760991b606082015260800190565b6020808252601190820152702cb7ba9036bab9ba10313290313abcb2b960791b604082015260600190565b6020808252818101527f4f7264657220616c726561647920686173206265656e2070726f636573736564604082015260600190565b60208082526022908201527f5468652063616c6c6572206d757374206265207468652061726269747261746f604082015261391760f11b606082015260800190565b60208082526021908201527f4661696c656420746f207472616e7366657220627579657227732066756e64736040820152601760f91b606082015260800190565b60208082526019908201527f556e61626c6520746f207472616e7366657220746f6b656e7300000000000000604082015260600190565b6020808252600f908201526e496e76616c6964206c697374696e6760881b604082015260600190565b60208082526034908201527f5468652063616c6c6572206d757374206265207468652070726f73656375746960408201527337b71037b9103a3432903232b332b73230b73a1760611b606082015260800190565b6020808252602e908201527f596f752063616e2774207265706f727420796f757273656c662e20557365206360408201526d616e63656c4c697374696e67282960901b606082015260800190565b6000838252604060208301526148506040830184613b85565b949350505050565b918252602082015260400190565b83815260208101839052606081016006831061487e57fe5b826040830152949350505050565b60006040820160ff8516835260206040818501528285546001808216600081146148bd57600181146148db57614913565b60028304607f16865260ff1983166060890152608088019350614913565b600283048087526148eb8a614948565b885b828110156149095781548b8201606001529084019087016148ed565b8a01606001955050505b509198975050505050505050565b60405181810167ffffffffffffffff8111828210171561494057600080fd5b604052919050565b60009081526020902090565b6001600160a01b038116811461496957600080fd5b5056fea2646970667358221220916496330157caeceab16396f9cbc91a47229452827efaecb51ee6c5535a1f8964736f6c63430006080033",
  "immutableReferences": {},
  "source": "// SPDX-License-Identifier: MIT\npragma solidity ^0.6.0;\npragma experimental ABIEncoderV2;\n\nimport \"./Dagora.sol\";\n\ncontract TestDagora is Dagora {\n\n    constructor(address _arbitrator,\n                address _token,\n                address _protocolFeeRecipient,\n                uint _feeTimeout,\n                uint _protocolFeePercentage,\n                uint _tokenOwnerFeePercentage,\n                bytes memory _reportExtraData,\n                bytes memory _orderExtraData,\n                string memory _ipfsDomain)\n                Dagora(_arbitrator,\n                        _token,\n                        _protocolFeeRecipient,\n                        _feeTimeout,\n                        _protocolFeePercentage,\n                        _tokenOwnerFeePercentage,\n                        _reportExtraData,\n                        _orderExtraData,\n                        _ipfsDomain) public {\n    }\n\n    function _requireValidListing(Listing memory _listing, Sig memory sig)\n        public\n        view\n        returns (bool)\n    {\n        return requireValidListing(_listing, sig) != 0x0;\n    }\n\n    function _hashListing(Listing memory listing)\n        public\n        pure\n        returns (bytes32 hash)\n    {\n        return hashListing(listing);\n    }\n\n    function _hashListingToSign(Listing memory listing)\n        public\n        pure\n        returns (bytes32 hash)\n    {\n        return hashListingToSign(listing);\n    }\n\n    function _ecrecover(bytes32 msgHash, Sig memory sig) public pure returns (address) {\n        return ecrecover(msgHash, sig.v, sig.r, sig.s);\n    }\n}",
  "sourcePath": "/home/gustavo/dagora/contracts/marketplace/TestDagora.sol",
  "compiler": {
    "name": "solc",
    "version": "0.6.8+commit.0bbfe453.Emscripten.clang"
  },
  "schemaVersion": "3.2.0",
  "updatedAt": "2020-05-28T01:04:46.588Z",
  "networkType": "ethereum",
  "devdoc": {
    "methods": {
      "appeal(bytes32)": {
        "details": "Appeal an appealable ruling. UNTRUSTED. Transfer the funds to the arbitrator. Note that no checks are required as the checks are done by the arbitrator.",
        "params": {
          "_hash": "The hash of the order."
        }
      },
      "owner()": {
        "details": "Returns the address of the current owner."
      },
      "renounceOwnership()": {
        "details": "Leaves the contract without owner. It will not be possible to call `onlyOwner` functions anymore. Can only be called by the current owner.     * NOTE: Renouncing ownership will leave the contract without an owner, thereby removing any functionality that is only available to the owner."
      },
      "submitEvidence(bytes32,string)": {
        "details": "Submit a reference to evidence. EVENT.",
        "params": {
          "_evidence": "A link to an evidence using its URI.",
          "_hash": "The hash of the order."
        }
      },
      "transferOwnership(address)": {
        "details": "Transfers ownership of the contract to a new account (`newOwner`). Can only be called by the current owner."
      }
    }
  },
  "userdoc": {
    "methods": {}
  }
}