{
  "contractName": "TestDagora",
  "abi": [
    {
      "inputs": [
        {
          "internalType": "address",
          "name": "_arbitrator",
          "type": "address"
        },
        {
          "internalType": "address",
          "name": "_token",
          "type": "address"
        },
        {
          "internalType": "uint256",
          "name": "_reportTimeout",
          "type": "uint256"
        },
        {
          "internalType": "uint256",
          "name": "_feeTimeout",
          "type": "uint256"
        },
        {
          "internalType": "bytes",
          "name": "_reportExtraData",
          "type": "bytes"
        },
        {
          "internalType": "bytes",
          "name": "_orderExtraData",
          "type": "bytes"
        },
        {
          "internalType": "string",
          "name": "_ipfsDomain",
          "type": "string"
        }
      ],
      "stateMutability": "nonpayable",
      "type": "constructor"
    },
    {
      "anonymous": false,
      "inputs": [
        {
          "indexed": true,
          "internalType": "contract Arbitrator",
          "name": "_arbitrator",
          "type": "address"
        },
        {
          "indexed": true,
          "internalType": "uint256",
          "name": "_disputeID",
          "type": "uint256"
        },
        {
          "indexed": false,
          "internalType": "uint256",
          "name": "_metaEvidenceID",
          "type": "uint256"
        },
        {
          "indexed": false,
          "internalType": "uint256",
          "name": "_evidenceGroupID",
          "type": "uint256"
        }
      ],
      "name": "Dispute",
      "type": "event"
    },
    {
      "anonymous": false,
      "inputs": [
        {
          "indexed": true,
          "internalType": "contract Arbitrator",
          "name": "_arbitrator",
          "type": "address"
        },
        {
          "indexed": true,
          "internalType": "uint256",
          "name": "_evidenceGroupID",
          "type": "uint256"
        },
        {
          "indexed": true,
          "internalType": "address",
          "name": "_party",
          "type": "address"
        },
        {
          "indexed": false,
          "internalType": "string",
          "name": "_evidence",
          "type": "string"
        }
      ],
      "name": "Evidence",
      "type": "event"
    },
    {
      "anonymous": false,
      "inputs": [
        {
          "indexed": true,
          "internalType": "bytes32",
          "name": "_hash",
          "type": "bytes32"
        },
        {
          "indexed": false,
          "internalType": "enum Dagora.Party",
          "name": "_party",
          "type": "uint8"
        }
      ],
      "name": "HasToPayFee",
      "type": "event"
    },
    {
      "anonymous": false,
      "inputs": [
        {
          "indexed": true,
          "internalType": "bytes32",
          "name": "hash",
          "type": "bytes32"
        }
      ],
      "name": "ListingCancelled",
      "type": "event"
    },
    {
      "anonymous": false,
      "inputs": [
        {
          "indexed": true,
          "internalType": "uint256",
          "name": "_metaEvidenceID",
          "type": "uint256"
        },
        {
          "indexed": false,
          "internalType": "string",
          "name": "_evidence",
          "type": "string"
        }
      ],
      "name": "MetaEvidence",
      "type": "event"
    },
    {
      "anonymous": false,
      "inputs": [
        {
          "indexed": true,
          "internalType": "contract Arbitrator",
          "name": "_arbitrator",
          "type": "address"
        },
        {
          "indexed": true,
          "internalType": "uint256",
          "name": "_disputeID",
          "type": "uint256"
        },
        {
          "indexed": false,
          "internalType": "uint256",
          "name": "_ruling",
          "type": "uint256"
        }
      ],
      "name": "Ruling",
      "type": "event"
    },
    {
      "inputs": [
        {
          "components": [
            {
              "internalType": "bytes32",
              "name": "ipfsHash",
              "type": "bytes32"
            },
            {
              "internalType": "address",
              "name": "seller",
              "type": "address"
            },
            {
              "internalType": "address payable",
              "name": "stakeOwner",
              "type": "address"
            },
            {
              "internalType": "uint256",
              "name": "stakedAmount",
              "type": "uint256"
            },
            {
              "internalType": "uint256",
              "name": "commissionPercentage",
              "type": "uint256"
            },
            {
              "internalType": "uint256",
              "name": "creationTimestamp",
              "type": "uint256"
            },
            {
              "internalType": "uint256",
              "name": "warrantyTimeout",
              "type": "uint256"
            },
            {
              "internalType": "uint256",
              "name": "expiration",
              "type": "uint256"
            }
          ],
          "internalType": "struct Dagora.Listing",
          "name": "_listing",
          "type": "tuple"
        }
      ],
      "name": "approveListing",
      "outputs": [
        {
          "internalType": "bool",
          "name": "",
          "type": "bool"
        }
      ],
      "stateMutability": "nonpayable",
      "type": "function"
    },
    {
      "inputs": [
        {
          "internalType": "bytes32",
          "name": "",
          "type": "bytes32"
        }
      ],
      "name": "approvedOrders",
      "outputs": [
        {
          "internalType": "bool",
          "name": "",
          "type": "bool"
        }
      ],
      "stateMutability": "view",
      "type": "function",
      "constant": true
    },
    {
      "inputs": [],
      "name": "arbitrator",
      "outputs": [
        {
          "internalType": "contract Arbitrator",
          "name": "",
          "type": "address"
        }
      ],
      "stateMutability": "view",
      "type": "function",
      "constant": true
    },
    {
      "inputs": [
        {
          "internalType": "bytes32",
          "name": "",
          "type": "bytes32"
        }
      ],
      "name": "cancelledOrFinalized",
      "outputs": [
        {
          "internalType": "bool",
          "name": "",
          "type": "bool"
        }
      ],
      "stateMutability": "view",
      "type": "function",
      "constant": true
    },
    {
      "inputs": [
        {
          "internalType": "uint256",
          "name": "value",
          "type": "uint256"
        }
      ],
      "name": "depositTokens",
      "outputs": [],
      "stateMutability": "nonpayable",
      "type": "function"
    },
    {
      "inputs": [
        {
          "internalType": "uint256",
          "name": "",
          "type": "uint256"
        }
      ],
      "name": "disputeIDtoHash",
      "outputs": [
        {
          "internalType": "bytes32",
          "name": "",
          "type": "bytes32"
        }
      ],
      "stateMutability": "view",
      "type": "function",
      "constant": true
    },
    {
      "inputs": [
        {
          "internalType": "bytes32",
          "name": "hash",
          "type": "bytes32"
        }
      ],
      "name": "disputeTimeOut",
      "outputs": [],
      "stateMutability": "nonpayable",
      "type": "function"
    },
    {
      "inputs": [
        {
          "internalType": "bytes32",
          "name": "",
          "type": "bytes32"
        }
      ],
      "name": "disputes",
      "outputs": [
        {
          "internalType": "address payable",
          "name": "prosecution",
          "type": "address"
        },
        {
          "internalType": "address payable",
          "name": "defendant",
          "type": "address"
        },
        {
          "internalType": "uint256",
          "name": "amount",
          "type": "uint256"
        },
        {
          "internalType": "contract ERC20",
          "name": "token",
          "type": "address"
        },
        {
          "internalType": "uint256",
          "name": "prosecutionFee",
          "type": "uint256"
        },
        {
          "internalType": "uint256",
          "name": "defendantFee",
          "type": "uint256"
        },
        {
          "internalType": "enum Dagora.DisputeType",
          "name": "disputeType",
          "type": "uint8"
        },
        {
          "internalType": "uint256",
          "name": "lastInteraction",
          "type": "uint256"
        },
        {
          "internalType": "uint256",
          "name": "metaEvidenceId",
          "type": "uint256"
        },
        {
          "internalType": "enum Dagora.Status",
          "name": "status",
          "type": "uint8"
        }
      ],
      "stateMutability": "view",
      "type": "function",
      "constant": true
    },
    {
      "inputs": [],
      "name": "feeTimeout",
      "outputs": [
        {
          "internalType": "uint256",
          "name": "",
          "type": "uint256"
        }
      ],
      "stateMutability": "view",
      "type": "function",
      "constant": true
    },
    {
      "inputs": [],
      "name": "ipfsDomain",
      "outputs": [
        {
          "internalType": "string",
          "name": "",
          "type": "string"
        }
      ],
      "stateMutability": "view",
      "type": "function",
      "constant": true
    },
    {
      "inputs": [],
      "name": "marketToken",
      "outputs": [
        {
          "internalType": "contract ERC20Burnable",
          "name": "",
          "type": "address"
        }
      ],
      "stateMutability": "view",
      "type": "function",
      "constant": true
    },
    {
      "inputs": [],
      "name": "metaEvidenceCount",
      "outputs": [
        {
          "internalType": "uint256",
          "name": "",
          "type": "uint256"
        }
      ],
      "stateMutability": "view",
      "type": "function",
      "constant": true
    },
    {
      "inputs": [],
      "name": "orderExtraData",
      "outputs": [
        {
          "internalType": "bytes",
          "name": "",
          "type": "bytes"
        }
      ],
      "stateMutability": "view",
      "type": "function",
      "constant": true
    },
    {
      "inputs": [
        {
          "internalType": "bytes32",
          "name": "hash",
          "type": "bytes32"
        }
      ],
      "name": "payArbitrationFee",
      "outputs": [],
      "stateMutability": "payable",
      "type": "function",
      "payable": true
    },
    {
      "inputs": [
        {
          "components": [
            {
              "internalType": "bytes32",
              "name": "ipfsHash",
              "type": "bytes32"
            },
            {
              "internalType": "address",
              "name": "seller",
              "type": "address"
            },
            {
              "internalType": "address payable",
              "name": "stakeOwner",
              "type": "address"
            },
            {
              "internalType": "uint256",
              "name": "stakedAmount",
              "type": "uint256"
            },
            {
              "internalType": "uint256",
              "name": "commissionPercentage",
              "type": "uint256"
            },
            {
              "internalType": "uint256",
              "name": "creationTimestamp",
              "type": "uint256"
            },
            {
              "internalType": "uint256",
              "name": "warrantyTimeout",
              "type": "uint256"
            },
            {
              "internalType": "uint256",
              "name": "expiration",
              "type": "uint256"
            }
          ],
          "internalType": "struct Dagora.Listing",
          "name": "_listing",
          "type": "tuple"
        },
        {
          "components": [
            {
              "internalType": "uint8",
              "name": "v",
              "type": "uint8"
            },
            {
              "internalType": "bytes32",
              "name": "r",
              "type": "bytes32"
            },
            {
              "internalType": "bytes32",
              "name": "s",
              "type": "bytes32"
            }
          ],
          "internalType": "struct Dagora.Sig",
          "name": "sig",
          "type": "tuple"
        }
      ],
      "name": "report",
      "outputs": [
        {
          "internalType": "bytes32",
          "name": "hash",
          "type": "bytes32"
        }
      ],
      "stateMutability": "payable",
      "type": "function",
      "payable": true
    },
    {
      "inputs": [],
      "name": "reportExtraData",
      "outputs": [
        {
          "internalType": "bytes",
          "name": "",
          "type": "bytes"
        }
      ],
      "stateMutability": "view",
      "type": "function",
      "constant": true
    },
    {
      "inputs": [],
      "name": "reportTimeout",
      "outputs": [
        {
          "internalType": "uint256",
          "name": "",
          "type": "uint256"
        }
      ],
      "stateMutability": "view",
      "type": "function",
      "constant": true
    },
    {
      "inputs": [
        {
          "internalType": "uint256",
          "name": "_disputeID",
          "type": "uint256"
        },
        {
          "internalType": "uint256",
          "name": "_ruling",
          "type": "uint256"
        }
      ],
      "name": "rule",
      "outputs": [],
      "stateMutability": "nonpayable",
      "type": "function"
    },
    {
      "inputs": [
        {
          "internalType": "address",
          "name": "",
          "type": "address"
        }
      ],
      "name": "sellers",
      "outputs": [
        {
          "internalType": "uint256",
          "name": "balance",
          "type": "uint256"
        },
        {
          "internalType": "uint256",
          "name": "lockedTokens",
          "type": "uint256"
        }
      ],
      "stateMutability": "view",
      "type": "function",
      "constant": true
    },
    {
      "inputs": [
        {
          "internalType": "uint256",
          "name": "value",
          "type": "uint256"
        }
      ],
      "name": "withdrawTokens",
      "outputs": [],
      "stateMutability": "nonpayable",
      "type": "function"
    },
    {
      "inputs": [
        {
          "internalType": "bytes32",
          "name": "hash",
          "type": "bytes32"
        },
        {
          "components": [
            {
              "internalType": "bytes32",
              "name": "ipfsHash",
              "type": "bytes32"
            },
            {
              "internalType": "address",
              "name": "seller",
              "type": "address"
            },
            {
              "internalType": "address payable",
              "name": "stakeOwner",
              "type": "address"
            },
            {
              "internalType": "uint256",
              "name": "stakedAmount",
              "type": "uint256"
            },
            {
              "internalType": "uint256",
              "name": "commissionPercentage",
              "type": "uint256"
            },
            {
              "internalType": "uint256",
              "name": "creationTimestamp",
              "type": "uint256"
            },
            {
              "internalType": "uint256",
              "name": "warrantyTimeout",
              "type": "uint256"
            },
            {
              "internalType": "uint256",
              "name": "expiration",
              "type": "uint256"
            }
          ],
          "internalType": "struct Dagora.Listing",
          "name": "_listing",
          "type": "tuple"
        },
        {
          "components": [
            {
              "internalType": "uint8",
              "name": "v",
              "type": "uint8"
            },
            {
              "internalType": "bytes32",
              "name": "r",
              "type": "bytes32"
            },
            {
              "internalType": "bytes32",
              "name": "s",
              "type": "bytes32"
            }
          ],
          "internalType": "struct Dagora.Sig",
          "name": "sig",
          "type": "tuple"
        }
      ],
      "name": "_validateListing",
      "outputs": [
        {
          "internalType": "bool",
          "name": "",
          "type": "bool"
        }
      ],
      "stateMutability": "view",
      "type": "function",
      "constant": true
    },
    {
      "inputs": [
        {
          "components": [
            {
              "internalType": "bytes32",
              "name": "ipfsHash",
              "type": "bytes32"
            },
            {
              "internalType": "address",
              "name": "seller",
              "type": "address"
            },
            {
              "internalType": "address payable",
              "name": "stakeOwner",
              "type": "address"
            },
            {
              "internalType": "uint256",
              "name": "stakedAmount",
              "type": "uint256"
            },
            {
              "internalType": "uint256",
              "name": "commissionPercentage",
              "type": "uint256"
            },
            {
              "internalType": "uint256",
              "name": "creationTimestamp",
              "type": "uint256"
            },
            {
              "internalType": "uint256",
              "name": "warrantyTimeout",
              "type": "uint256"
            },
            {
              "internalType": "uint256",
              "name": "expiration",
              "type": "uint256"
            }
          ],
          "internalType": "struct Dagora.Listing",
          "name": "listing",
          "type": "tuple"
        }
      ],
      "name": "_hashListing",
      "outputs": [
        {
          "internalType": "bytes32",
          "name": "hash",
          "type": "bytes32"
        }
      ],
      "stateMutability": "pure",
      "type": "function",
      "constant": true
    }
  ],
  "bytecode": "0x60806040523480156200001157600080fd5b5060405162004c0338038062004c03833981810160405281019062000037919062000349565b8686868686868686600560006101000a81548173ffffffffffffffffffffffffffffffffffffffff021916908373ffffffffffffffffffffffffffffffffffffffff16021790555085600a60006101000a81548173ffffffffffffffffffffffffffffffffffffffff021916908373ffffffffffffffffffffffffffffffffffffffff16021790555084600981905550836008819055508260069080519060200190620000e69291906200012d565b508160079080519060200190620000ff9291906200012d565b5080600c908051906020019062000118929190620001b4565b50505050505050505050505050505062000571565b828054600181600116156101000203166002900490600052602060002090601f016020900481019282601f106200017057805160ff1916838001178555620001a1565b82800160010185558215620001a1579182015b82811115620001a057825182559160200191906001019062000183565b5b509050620001b091906200023b565b5090565b828054600181600116156101000203166002900490600052602060002090601f016020900481019282601f10620001f757805160ff191683800117855562000228565b8280016001018555821562000228579182015b82811115620002275782518255916020019190600101906200020a565b5b5090506200023791906200023b565b5090565b6200026091905b808211156200025c57600081600090555060010162000242565b5090565b90565b60008151905062000274816200053d565b92915050565b600082601f8301126200028c57600080fd5b8151620002a36200029d826200046f565b62000441565b91508082526020830160208301858383011115620002c057600080fd5b620002cd83828462000507565b50505092915050565b600082601f830112620002e857600080fd5b8151620002ff620002f9826200049c565b62000441565b915080825260208301602083018583830111156200031c57600080fd5b6200032983828462000507565b50505092915050565b600081519050620003438162000557565b92915050565b600080600080600080600060e0888a0312156200036557600080fd5b6000620003758a828b0162000263565b9750506020620003888a828b0162000263565b96505060406200039b8a828b0162000332565b9550506060620003ae8a828b0162000332565b945050608088015167ffffffffffffffff811115620003cc57600080fd5b620003da8a828b016200027a565b93505060a088015167ffffffffffffffff811115620003f857600080fd5b620004068a828b016200027a565b92505060c088015167ffffffffffffffff8111156200042457600080fd5b620004328a828b01620002d6565b91505092959891949750929550565b6000604051905081810181811067ffffffffffffffff821117156200046557600080fd5b8060405250919050565b600067ffffffffffffffff8211156200048757600080fd5b601f19601f8301169050602081019050919050565b600067ffffffffffffffff821115620004b457600080fd5b601f19601f8301169050602081019050919050565b6000620004d682620004dd565b9050919050565b600073ffffffffffffffffffffffffffffffffffffffff82169050919050565b6000819050919050565b60005b83811015620005275780820151818401526020810190506200050a565b8381111562000537576000848401525b50505050565b6200054881620004c9565b81146200055457600080fd5b50565b6200056281620004fd565b81146200056e57600080fd5b50565b61468280620005816000396000f3fe6080604052600436106101355760003560e01c8063ad48d611116100ab578063be6a18ef1161006f578063be6a18ef14610473578063ca8d50ad1461048f578063dd49756e146104b8578063e57d4adb146104e1578063e6a445821461051e578063ee7269d71461054957610135565b8063ad48d61114610378578063b329036b146103a3578063b6398667146103ce578063ba4bc763146103f9578063bc5eae0e1461043657610135565b80636b83a061116100fd5780636b83a0611461023a5780636cc6cde1146102775780636d47ab72146102a25780638076f005146102e057806382ad5f751461031d578063a2031de41461034d57610135565b806311be19971461013a578063311a6c5614610180578063315a095d146101a95780634f92352f146101d25780635af798071461020f575b600080fd5b34801561014657600080fd5b50610161600480360381019061015c91906133a5565b610574565b6040516101779a99989796959493929190613e05565b60405180910390f35b34801561018c57600080fd5b506101a760048036038101906101a291906134d9565b610642565b005b3480156101b557600080fd5b506101d060048036038101906101cb9190613487565b610710565b005b3480156101de57600080fd5b506101f960048036038101906101f4919061341f565b6108ac565b6040516102069190613f1c565b60405180910390f35b34801561021b57600080fd5b506102246108be565b6040516102319190614253565b60405180910390f35b34801561024657600080fd5b50610261600480360381019061025c919061341f565b6108c4565b60405161026e9190613f01565b60405180910390f35b34801561028357600080fd5b5061028c610a64565b6040516102999190613fc0565b60405180910390f35b3480156102ae57600080fd5b506102c960048036038101906102c49190613353565b610a8a565b6040516102d792919061426e565b60405180910390f35b3480156102ec57600080fd5b50610307600480360381019061030291906133a5565b610aae565b6040516103149190613f01565b60405180910390f35b61033760048036038101906103329190613449565b610ace565b6040516103449190613f1c565b60405180910390f35b34801561035957600080fd5b50610362611156565b60405161036f9190614011565b60405180910390f35b34801561038457600080fd5b5061038d6111f4565b60405161039a9190613fdb565b60405180910390f35b3480156103af57600080fd5b506103b861121a565b6040516103c59190614253565b60405180910390f35b3480156103da57600080fd5b506103e3611220565b6040516103f09190613f7c565b60405180910390f35b34801561040557600080fd5b50610420600480360381019061041b9190613487565b6112be565b60405161042d9190613f1c565b60405180910390f35b34801561044257600080fd5b5061045d600480360381019061045891906133ce565b6112d6565b60405161046a9190613f01565b60405180910390f35b61048d600480360381019061048891906133a5565b6112ec565b005b34801561049b57600080fd5b506104b660048036038101906104b191906133a5565b61188f565b005b3480156104c457600080fd5b506104df60048036038101906104da9190613487565b611aff565b005b3480156104ed57600080fd5b50610508600480360381019061050391906133a5565b611c0b565b6040516105159190613f01565b60405180910390f35b34801561052a57600080fd5b50610533611c2b565b6040516105409190614253565b60405180910390f35b34801561055557600080fd5b5061055e611c31565b60405161056b9190613f7c565b60405180910390f35b60036020528060005260406000206000915090508060000160009054906101000a900473ffffffffffffffffffffffffffffffffffffffff16908060010160009054906101000a900473ffffffffffffffffffffffffffffffffffffffff16908060020154908060030160009054906101000a900473ffffffffffffffffffffffffffffffffffffffff16908060040154908060050154908060060160009054906101000a900460ff16908060070154908060080154908060090160009054906101000a900460ff1690508a565b813373ffffffffffffffffffffffffffffffffffffffff167f394027a5fa6e098a1191094d1719d6929b9abc535fcc0c8f448d6a4e75622276836040516106899190614253565b60405180910390a36000600460008481526020019081526020016000205490506000600360008381526020019081526020016000209050600060018111156106cd57fe5b8160060160009054906101000a900460ff1660018111156106ea57fe5b14156106ff576106fa8184611ccf565b61070a565b6107098184612501565b5b50505050565b60008060003373ffffffffffffffffffffffffffffffffffffffff1673ffffffffffffffffffffffffffffffffffffffff1681526020019081526020016000209050818160010154826000015403101561079f576040517f08c379a000000000000000000000000000000000000000000000000000000000815260040161079690614033565b60405180910390fd5b816000803373ffffffffffffffffffffffffffffffffffffffff1673ffffffffffffffffffffffffffffffffffffffff16815260200190815260200160002060000160008282540392505081905550600a60009054906101000a900473ffffffffffffffffffffffffffffffffffffffff1673ffffffffffffffffffffffffffffffffffffffff166323b872dd3330856040518463ffffffff1660e01b815260040161084d93929190613ea1565b602060405180830381600087803b15801561086757600080fd5b505af115801561087b573d6000803e3d6000fd5b505050506040513d601f19601f8201168201806040525081019061089f919061337c565b6108a857600080fd5b5050565b60006108b782612c9b565b9050919050565b600b5481565b6000816040015173ffffffffffffffffffffffffffffffffffffffff163373ffffffffffffffffffffffffffffffffffffffff1614610938576040517f08c379a000000000000000000000000000000000000000000000000000000000815260040161092f90614193565b60405180910390fd5b81606001516000803373ffffffffffffffffffffffffffffffffffffffff1673ffffffffffffffffffffffffffffffffffffffff1681526020019081526020016000206000015410156109c0576040517f08c379a00000000000000000000000000000000000000000000000000000000081526004016109b7906140f3565b60405180910390fd5b60006109cb83612c9b565b90506002600082815260200190815260200160002060009054906101000a900460ff1615610a2e576040517f08c379a0000000000000000000000000000000000000000000000000000000008152600401610a2590614073565b60405180910390fd5b60016002600083815260200190815260200160002060006101000a81548160ff0219169083151502179055506001915050919050565b600560009054906101000a900473ffffffffffffffffffffffffffffffffffffffff1681565b60006020528060005260406000206000915090508060000154908060010154905082565b60016020528060005260406000206000915054906101000a900460ff1681565b6000610ad983612c9b565b9050610ae6818484612cfc565b610b25576040517f08c379a0000000000000000000000000000000000000000000000000000000008152600401610b1c90614213565b60405180910390fd5b60006004811115610b3257fe5b6003600083815260200190815260200160002060090160009054906101000a900460ff166004811115610b6157fe5b14610ba1576040517f08c379a0000000000000000000000000000000000000000000000000000000008152600401610b9890614153565b60405180910390fd5b6009548360a00151014210610beb576040517f08c379a0000000000000000000000000000000000000000000000000000000008152600401610be2906141d3565b60405180910390fd5b826040015173ffffffffffffffffffffffffffffffffffffffff163373ffffffffffffffffffffffffffffffffffffffff161415610c5e576040517f08c379a0000000000000000000000000000000000000000000000000000000008152600401610c5590614233565b60405180910390fd5b6000600560009054906101000a900473ffffffffffffffffffffffffffffffffffffffff1673ffffffffffffffffffffffffffffffffffffffff1663f7434ea960066040518263ffffffff1660e01b8152600401610cbc9190613f9e565b60206040518083038186803b158015610cd457600080fd5b505afa158015610ce8573d6000803e3d6000fd5b505050506040513d601f19601f82011682018060405250810190610d0c91906134b0565b905080341015610d51576040517f08c379a0000000000000000000000000000000000000000000000000000000008152600401610d48906141b3565b60405180910390fd5b60008060003373ffffffffffffffffffffffffffffffffffffffff1673ffffffffffffffffffffffffffffffffffffffff16815260200190815260200160002090506000806000876040015173ffffffffffffffffffffffffffffffffffffffff1673ffffffffffffffffffffffffffffffffffffffff16815260200190815260200160002090506000826001015483600001540390508660600151811015610f0357600a60009054906101000a900473ffffffffffffffffffffffffffffffffffffffff1673ffffffffffffffffffffffffffffffffffffffff166323b872dd3330848b60600151036040518463ffffffff1660e01b8152600401610e5993929190613ea1565b602060405180830381600087803b158015610e7357600080fd5b505af1158015610e87573d6000803e3d6000fd5b505050506040513d601f19601f82011682018060405250810190610eab919061337c565b610eea576040517f08c379a0000000000000000000000000000000000000000000000000000000008152600401610ee1906141f3565b60405180910390fd5b8087606001510383600001600082825401925050819055505b86606001518360010160008282540192505081905550866060015182600101600082825401925050819055506000600360008781526020019081526020016000209050338160000160006101000a81548173ffffffffffffffffffffffffffffffffffffffff021916908373ffffffffffffffffffffffffffffffffffffffff16021790555087604001518160010160006101000a81548173ffffffffffffffffffffffffffffffffffffffff021916908373ffffffffffffffffffffffffffffffffffffffff16021790555087606001518160020181905550600a60009054906101000a900473ffffffffffffffffffffffffffffffffffffffff168160030160006101000a81548173ffffffffffffffffffffffffffffffffffffffff021916908373ffffffffffffffffffffffffffffffffffffffff16021790555060008160060160006101000a81548160ff0219169083600181111561106357fe5b021790555060028160090160006101000a81548160ff0219169083600481111561108957fe5b0217905550428160070181905550600b600081548092919060010191905055816008018190555080600801547f61606860eb6c87306811e2695215385101daab53bd6ab4e9f9049aead9363c7d600c8a600001516040516020016110ee929190613dc8565b60405160208183030381529060405260405161110a9190614011565b60405180910390a2857ff972c77402d0ee7d94e4b2ea7cee21a3d392136bf7c9b72d2dc85e2a4d24a9cf60016040516111439190613ff6565b60405180910390a2505050505092915050565b600c8054600181600116156101000203166002900480601f0160208091040260200160405190810160405280929190818152602001828054600181600116156101000203166002900480156111ec5780601f106111c1576101008083540402835291602001916111ec565b820191906000526020600020905b8154815290600101906020018083116111cf57829003601f168201915b505050505081565b600a60009054906101000a900473ffffffffffffffffffffffffffffffffffffffff1681565b60085481565b60078054600181600116156101000203166002900480601f0160208091040260200160405190810160405280929190818152602001828054600181600116156101000203166002900480156112b65780601f1061128b576101008083540402835291602001916112b6565b820191906000526020600020905b81548152906001019060200180831161129957829003601f168201915b505050505081565b60046020528060005260406000206000915090505481565b60006112e3848484612cfc565b90509392505050565b60006003600083815260200190815260200160002090506000600560009054906101000a900473ffffffffffffffffffffffffffffffffffffffff1673ffffffffffffffffffffffffffffffffffffffff1663f7434ea960066040518263ffffffff1660e01b81526004016113619190613f9e565b60206040518083038186803b15801561137957600080fd5b505afa15801561138d573d6000803e3d6000fd5b505050506040513d601f19601f820116820180604052508101906113b191906134b0565b90508160090160009054906101000a900460ff1660048111156113d057fe5b600060048111156113dd57fe5b1180156114115750600360048111156113f257fe5b8260090160009054906101000a900460ff16600481111561140f57fe5b105b611450576040517f08c379a000000000000000000000000000000000000000000000000000000000815260040161144790614053565b60405180910390fd5b8160000160009054906101000a900473ffffffffffffffffffffffffffffffffffffffff1673ffffffffffffffffffffffffffffffffffffffff163373ffffffffffffffffffffffffffffffffffffffff1614806114fd57508160010160009054906101000a900473ffffffffffffffffffffffffffffffffffffffff1673ffffffffffffffffffffffffffffffffffffffff163373ffffffffffffffffffffffffffffffffffffffff16145b61153c576040517f08c379a000000000000000000000000000000000000000000000000000000000815260040161153390614173565b60405180910390fd5b8160000160009054906101000a900473ffffffffffffffffffffffffffffffffffffffff1673ffffffffffffffffffffffffffffffffffffffff163373ffffffffffffffffffffffffffffffffffffffff1614156117115734826004016000828254019250508190555080826004015410156115ed576040517f08c379a00000000000000000000000000000000000000000000000000000000081526004016115e4906140d3565b60405180910390fd5b42826007018190555080826005015410156116665760028260090160006101000a81548160ff0219169083600481111561162357fe5b0217905550827ff972c77402d0ee7d94e4b2ea7cee21a3d392136bf7c9b72d2dc85e2a4d24a9cf60016040516116599190613ff6565b60405180910390a261170c565b61170b838260068054600181600116156101000203166002900480601f0160208091040260200160405190810160405280929190818152602001828054600181600116156101000203166002900480156117015780601f106116d657610100808354040283529160200191611701565b820191906000526020600020905b8154815290600101906020018083116116e457829003601f168201915b5050505050612ef4565b5b61188a565b348260050160008282540192505081905550808260050154101561176a576040517f08c379a0000000000000000000000000000000000000000000000000000000008152600401611761906140d3565b60405180910390fd5b42826007018190555080826004015410156117e35760018260090160006101000a81548160ff021916908360048111156117a057fe5b0217905550827ff972c77402d0ee7d94e4b2ea7cee21a3d392136bf7c9b72d2dc85e2a4d24a9cf60006040516117d69190613ff6565b60405180910390a2611889565b611888838260068054600181600116156101000203166002900480601f01602080910402602001604051908101604052809291908181526020018280546001816001161561010002031660029004801561187e5780601f106118535761010080835404028352916020019161187e565b820191906000526020600020905b81548152906001019060200180831161186157829003601f168201915b5050505050612ef4565b5b5b505050565b60006003600083815260200190815260200160002090508060090160009054906101000a900460ff1660048111156118c357fe5b600060048111156118d057fe5b1180156119045750600360048111156118e557fe5b8160090160009054906101000a900460ff16600481111561190257fe5b105b611943576040517f08c379a000000000000000000000000000000000000000000000000000000000815260040161193a90614113565b60405180910390fd5b60085481600701544203101561198e576040517f08c379a000000000000000000000000000000000000000000000000000000000815260040161198590614093565b60405180910390fd5b6000816004015414611a14578060000160009054906101000a900473ffffffffffffffffffffffffffffffffffffffff1673ffffffffffffffffffffffffffffffffffffffff166108fc82600401549081150290604051600060405180830381858888f19350505050158015611a08573d6000803e3d6000fd5b50600081600401819055505b6000816005015414611a9a578060010160009054906101000a900473ffffffffffffffffffffffffffffffffffffffff1673ffffffffffffffffffffffffffffffffffffffff166108fc82600501549081150290604051600060405180830381858888f19350505050158015611a8e573d6000803e3d6000fd5b50600081600501819055505b60026004811115611aa757fe5b8160090160009054906101000a900460ff166004811115611ac457fe5b1415611ae557611ae08160016002811115611adb57fe5b611ccf565b611afb565b611afa81600280811115611af557fe5b611ccf565b5b5050565b600a60009054906101000a900473ffffffffffffffffffffffffffffffffffffffff1673ffffffffffffffffffffffffffffffffffffffff166323b872dd3330846040518463ffffffff1660e01b8152600401611b5e93929190613ea1565b602060405180830381600087803b158015611b7857600080fd5b505af1158015611b8c573d6000803e3d6000fd5b505050506040513d601f19601f82011682018060405250810190611bb0919061337c565b611bb957600080fd5b806000803373ffffffffffffffffffffffffffffffffffffffff1673ffffffffffffffffffffffffffffffffffffffff1681526020019081526020016000206000016000828254019250508190555050565b60026020528060005260406000206000915054906101000a900460ff1681565b60095481565b60068054600181600116156101000203166002900480601f016020809104026020016040519081016040528092919081815260200182805460018160011615610100020316600290048015611cc75780601f10611c9c57610100808354040283529160200191611cc7565b820191906000526020600020905b815481529060010190602001808311611caa57829003601f168201915b505050505081565b600260ff16811115611d16576040517f08c379a0000000000000000000000000000000000000000000000000000000008152600401611d0d906140b3565b60405180910390fd5b60008260020154905060008360040154905060008460050154905060008560020181905550600085600401819055506000856005018190555060048560090160006101000a81548160ff02191690836004811115611d7057fe5b021790555084600201546000808760000160009054906101000a900473ffffffffffffffffffffffffffffffffffffffff1673ffffffffffffffffffffffffffffffffffffffff1673ffffffffffffffffffffffffffffffffffffffff1681526020019081526020016000206001016000828254039250508190555084600201546000808760010160009054906101000a900473ffffffffffffffffffffffffffffffffffffffff1673ffffffffffffffffffffffffffffffffffffffff1673ffffffffffffffffffffffffffffffffffffffff16815260200190815260200160002060010160008282540392505081905550600080905060016002811115611e7557fe5b85141561209a578560000160009054906101000a900473ffffffffffffffffffffffffffffffffffffffff1673ffffffffffffffffffffffffffffffffffffffff1683604051611ec490613df0565b60006040518083038185875af1925050503d8060008114611f01576040519150601f19603f3d011682016040523d82523d6000602084013e611f06565b606091505b505080915050836000808860010160009054906101000a900473ffffffffffffffffffffffffffffffffffffffff1673ffffffffffffffffffffffffffffffffffffffff1673ffffffffffffffffffffffffffffffffffffffff1681526020019081526020016000206000016000828254039250508190555060028481611f8957fe5b046000808860000160009054906101000a900473ffffffffffffffffffffffffffffffffffffffff1673ffffffffffffffffffffffffffffffffffffffff1673ffffffffffffffffffffffffffffffffffffffff16815260200190815260200160002060000160008282540192505081905550600a60009054906101000a900473ffffffffffffffffffffffffffffffffffffffff1673ffffffffffffffffffffffffffffffffffffffff166342966c686002868161204457fe5b0486036040518263ffffffff1660e01b81526004016120639190614253565b600060405180830381600087803b15801561207d57600080fd5b505af1158015612091573d6000803e3d6000fd5b505050506124f9565b6002808111156120a657fe5b8514156122cb578560010160009054906101000a900473ffffffffffffffffffffffffffffffffffffffff1673ffffffffffffffffffffffffffffffffffffffff16826040516120f590613df0565b60006040518083038185875af1925050503d8060008114612132576040519150601f19603f3d011682016040523d82523d6000602084013e612137565b606091505b505080915050836000808860000160009054906101000a900473ffffffffffffffffffffffffffffffffffffffff1673ffffffffffffffffffffffffffffffffffffffff1673ffffffffffffffffffffffffffffffffffffffff16815260200190815260200160002060000160008282540392505081905550600284816121ba57fe5b046000808860010160009054906101000a900473ffffffffffffffffffffffffffffffffffffffff1673ffffffffffffffffffffffffffffffffffffffff1673ffffffffffffffffffffffffffffffffffffffff16815260200190815260200160002060000160008282540192505081905550600a60009054906101000a900473ffffffffffffffffffffffffffffffffffffffff1673ffffffffffffffffffffffffffffffffffffffff166342966c686002868161227557fe5b0486036040518263ffffffff1660e01b81526004016122949190614253565b600060405180830381600087803b1580156122ae57600080fd5b505af11580156122c2573d6000803e3d6000fd5b505050506124f8565b6000600284816122d757fe5b0490508660010160009054906101000a900473ffffffffffffffffffffffffffffffffffffffff1673ffffffffffffffffffffffffffffffffffffffff1681840360405161232490613df0565b60006040518083038185875af1925050503d8060008114612361576040519150601f19603f3d011682016040523d82523d6000602084013e612366565b606091505b5050809250508660000160009054906101000a900473ffffffffffffffffffffffffffffffffffffffff1673ffffffffffffffffffffffffffffffffffffffff16816040516123b490613df0565b60006040518083038185875af1925050503d80600081146123f1576040519150601f19603f3d011682016040523d82523d6000602084013e6123f6565b606091505b5050809250506002858161240657fe5b046000808960000160009054906101000a900473ffffffffffffffffffffffffffffffffffffffff1673ffffffffffffffffffffffffffffffffffffffff1673ffffffffffffffffffffffffffffffffffffffff168152602001908152602001600020600001600082825403925050819055506002858161248357fe5b046000808960010160009054906101000a900473ffffffffffffffffffffffffffffffffffffffff1673ffffffffffffffffffffffffffffffffffffffff1673ffffffffffffffffffffffffffffffffffffffff16815260200190815260200160002060000160008282540392505081905550505b5b505050505050565b600260ff16811115612548576040517f08c379a000000000000000000000000000000000000000000000000000000000815260040161253f906140b3565b60405180910390fd5b60008260020154905060008360040154905060008460050154905060008560020181905550600085600401819055506000856005018190555060048560090160006101000a81548160ff021916908360048111156125a257fe5b02179055506000809050600160028111156125b957fe5b851415612769578560000160009054906101000a900473ffffffffffffffffffffffffffffffffffffffff1673ffffffffffffffffffffffffffffffffffffffff168360405161260890613df0565b60006040518083038185875af1925050503d8060008114612645576040519150601f19603f3d011682016040523d82523d6000602084013e61264a565b606091505b5050809150508560030160009054906101000a900473ffffffffffffffffffffffffffffffffffffffff1673ffffffffffffffffffffffffffffffffffffffff1663a9059cbb8760000160009054906101000a900473ffffffffffffffffffffffffffffffffffffffff16866040518363ffffffff1660e01b81526004016126d3929190613ed8565b602060405180830381600087803b1580156126ed57600080fd5b505af1158015612701573d6000803e3d6000fd5b505050506040513d601f19601f82011682018060405250810190612725919061337c565b612764576040517f08c379a000000000000000000000000000000000000000000000000000000000815260040161275b90614133565b60405180910390fd5b612c93565b60028081111561277557fe5b851415612925578560010160009054906101000a900473ffffffffffffffffffffffffffffffffffffffff1673ffffffffffffffffffffffffffffffffffffffff16826040516127c490613df0565b60006040518083038185875af1925050503d8060008114612801576040519150601f19603f3d011682016040523d82523d6000602084013e612806565b606091505b5050809150508560030160009054906101000a900473ffffffffffffffffffffffffffffffffffffffff1673ffffffffffffffffffffffffffffffffffffffff1663a9059cbb8760010160009054906101000a900473ffffffffffffffffffffffffffffffffffffffff16866040518363ffffffff1660e01b815260040161288f929190613ed8565b602060405180830381600087803b1580156128a957600080fd5b505af11580156128bd573d6000803e3d6000fd5b505050506040513d601f19601f820116820180604052508101906128e1919061337c565b612920576040517f08c379a000000000000000000000000000000000000000000000000000000000815260040161291790614133565b60405180910390fd5b612c92565b60006002848161293157fe5b0490508660010160009054906101000a900473ffffffffffffffffffffffffffffffffffffffff1673ffffffffffffffffffffffffffffffffffffffff1681840360405161297e90613df0565b60006040518083038185875af1925050503d80600081146129bb576040519150601f19603f3d011682016040523d82523d6000602084013e6129c0565b606091505b5050809250508660000160009054906101000a900473ffffffffffffffffffffffffffffffffffffffff1673ffffffffffffffffffffffffffffffffffffffff1681604051612a0e90613df0565b60006040518083038185875af1925050503d8060008114612a4b576040519150601f19603f3d011682016040523d82523d6000602084013e612a50565b606091505b505080925050600060028681612a6257fe5b0490508760030160009054906101000a900473ffffffffffffffffffffffffffffffffffffffff1673ffffffffffffffffffffffffffffffffffffffff1663a9059cbb8960010160009054906101000a900473ffffffffffffffffffffffffffffffffffffffff168389036040518363ffffffff1660e01b8152600401612aea929190613ed8565b602060405180830381600087803b158015612b0457600080fd5b505af1158015612b18573d6000803e3d6000fd5b505050506040513d601f19601f82011682018060405250810190612b3c919061337c565b612b7b576040517f08c379a0000000000000000000000000000000000000000000000000000000008152600401612b7290614133565b60405180910390fd5b8760030160009054906101000a900473ffffffffffffffffffffffffffffffffffffffff1673ffffffffffffffffffffffffffffffffffffffff1663a9059cbb8960000160009054906101000a900473ffffffffffffffffffffffffffffffffffffffff16836040518363ffffffff1660e01b8152600401612bfe929190613ed8565b602060405180830381600087803b158015612c1857600080fd5b505af1158015612c2c573d6000803e3d6000fd5b505050506040513d601f19601f82011682018060405250810190612c50919061337c565b612c8f576040517f08c379a0000000000000000000000000000000000000000000000000000000008152600401612c8690614133565b60405180910390fd5b50505b5b505050505050565b6000816000015182602001518360400151846060015185608001518660a001518760c001518860e00151604051602001612cdc989796959493929190613d36565b604051602081830303815290604052805190602001209050809050919050565b60008260a00151421015612d135760009050612eed565b60008360e0015114612d4e578260e001518360a001511115612d385760009050612eed565b8260e00151421115612d4d5760009050612eed565b5b8260600151600080856040015173ffffffffffffffffffffffffffffffffffffffff1673ffffffffffffffffffffffffffffffffffffffff16815260200190815260200160002060010154600080866040015173ffffffffffffffffffffffffffffffffffffffff1673ffffffffffffffffffffffffffffffffffffffff16815260200190815260200160002060000154031015612def5760009050612eed565b6001600085815260200190815260200160002060009054906101000a900460ff1615612e1e5760009050612eed565b6002600085815260200190815260200160002060009054906101000a900460ff1615612e4d5760019050612eed565b826040015173ffffffffffffffffffffffffffffffffffffffff1660018584600001518560200151866040015160405160008152602001604052604051612e979493929190613f37565b6020604051602081039080840390855afa158015612eb9573d6000803e3d6000fd5b5050506020604051035173ffffffffffffffffffffffffffffffffffffffff161415612ee85760019050612eed565b600090505b9392505050565b600060036000858152602001908152602001600020905060038160090160006101000a81548160ff02191690836004811115612f2c57fe5b02179055506000600560009054906101000a900473ffffffffffffffffffffffffffffffffffffffff1673ffffffffffffffffffffffffffffffffffffffff1663c13517e1856002866040518463ffffffff1660e01b8152600401612f92929190614297565b6020604051808303818588803b158015612fab57600080fd5b505af1158015612fbf573d6000803e3d6000fd5b50505050506040513d601f19601f82011682018060405250810190612fe491906134b0565b905084600460008381526020019081526020016000208190555080600560009054906101000a900473ffffffffffffffffffffffffffffffffffffffff1673ffffffffffffffffffffffffffffffffffffffff167f74baab670a4015ab2f1b467c5252a96141a2573f2908e58a92081e80d3cfde3d8460080154856008015460405161307192919061426e565b60405180910390a383826004015411156131065760008483600401540390508483600401819055508260000160009054906101000a900473ffffffffffffffffffffffffffffffffffffffff1673ffffffffffffffffffffffffffffffffffffffff166108fc829081150290604051600060405180830381858888f19350505050158015613103573d6000803e3d6000fd5b50505b83826005015411156131935760008483600501540390508483600501819055508260010160009054906101000a900473ffffffffffffffffffffffffffffffffffffffff1673ffffffffffffffffffffffffffffffffffffffff166108fc829081150290604051600060405180830381858888f19350505050158015613190573d6000803e3d6000fd5b50505b5050505050565b6000813590506131a9816145c2565b92915050565b6000813590506131be816145d9565b92915050565b6000815190506131d3816145f0565b92915050565b6000813590506131e881614607565b92915050565b6000610100828403121561320157600080fd5b61320c6101006142c7565b9050600061321c848285016131d9565b60008301525060206132308482850161319a565b6020830152506040613244848285016131af565b604083015250606061325884828501613314565b606083015250608061326c84828501613314565b60808301525060a061328084828501613314565b60a08301525060c061329484828501613314565b60c08301525060e06132a884828501613314565b60e08301525092915050565b6000606082840312156132c657600080fd5b6132d060606142c7565b905060006132e08482850161333e565b60008301525060206132f4848285016131d9565b6020830152506040613308848285016131d9565b60408301525092915050565b6000813590506133238161461e565b92915050565b6000815190506133388161461e565b92915050565b60008135905061334d81614635565b92915050565b60006020828403121561336557600080fd5b60006133738482850161319a565b91505092915050565b60006020828403121561338e57600080fd5b600061339c848285016131c4565b91505092915050565b6000602082840312156133b757600080fd5b60006133c5848285016131d9565b91505092915050565b600080600061018084860312156133e457600080fd5b60006133f2868287016131d9565b9350506020613403868287016131ee565b925050610120613415868287016132b4565b9150509250925092565b6000610100828403121561343257600080fd5b6000613440848285016131ee565b91505092915050565b600080610160838503121561345d57600080fd5b600061346b858286016131ee565b92505061010061347d858286016132b4565b9150509250929050565b60006020828403121561349957600080fd5b60006134a784828501613314565b91505092915050565b6000602082840312156134c257600080fd5b60006134d084828501613329565b91505092915050565b600080604083850312156134ec57600080fd5b60006134fa85828601613314565b925050602061350b85828601613314565b9150509250929050565b61351e81614416565b82525050565b61352d8161437e565b82525050565b61354461353f8261437e565b614545565b82525050565b6135538161436c565b82525050565b61356a6135658261436c565b614533565b82525050565b61357981614390565b82525050565b6135888161439c565b82525050565b61359f61359a8261439c565b614557565b82525050565b60006135b08261431e565b6135ba8185614334565b93506135ca818560208601614500565b6135d38161457d565b840191505092915050565b6000815460018116600081146135fb576001811461362157613665565b607f600283041661360c8187614334565b955060ff198316865260208601935050613665565b6002820461362f8187614334565b955061363a856142f4565b60005b8281101561365c5781548189015260018201915060208101905061363d565b80880195505050505b505092915050565b61367681614428565b82525050565b6136858161444c565b82525050565b61369481614470565b82525050565b6136a381614494565b82525050565b6136b2816144a6565b82525050565b6136c1816144b8565b82525050565b60006136d282614329565b6136dc8185614350565b93506136ec818560208601614500565b6136f58161457d565b840191505092915050565b60008154600181166000811461371d576001811461374257613786565b607f600283041661372e8187614361565b955060ff1983168652808601935050613786565b600282046137508187614361565b955061375b85614309565b60005b8281101561377d5781548189015260018201915060208101905061375e565b82880195505050505b505092915050565b600061379b601c83614350565b91507f596f7520646f6e2774206861766520656e6f67687420746f6b656e73000000006000830152602082019050919050565b60006137db602183614350565b91507f446973707574652068617320616c7265616479206265656e206372656174656460008301527f2e000000000000000000000000000000000000000000000000000000000000006020830152604082019050919050565b6000613841601083614350565b91507f416c726561647920617070726f766564000000000000000000000000000000006000830152602082019050919050565b6000613881602083614350565b91507f54696d656f75742074696d6520686173206e6f7420706173736564207965742e6000830152602082019050919050565b60006138c1600f83614350565b91507f496e76616c69642072756c696e672e00000000000000000000000000000000006000830152602082019050919050565b6000613901603183614350565b91507f5468652070726f7365637574696f6e20666565206d75737420636f766572206160008301527f72626974726174696f6e20636f7374732e0000000000000000000000000000006020830152604082019050919050565b6000613967601b83614350565b91507f596f7520646f6e2774206861766520656e6f6768742066756e647300000000006000830152602082019050919050565b60006139a7602583614350565b91507f44697370757465206973206e6f742077616974696e6720666f7220616e79207060008301527f617274792e0000000000000000000000000000000000000000000000000000006020830152604082019050919050565b6000613a0d602683614350565b91507f54686520607472616e73666572602066756e6374696f6e206d757374206e6f7460008301527f206661696c2e00000000000000000000000000000000000000000000000000006020830152604082019050919050565b6000613a73602183614350565b91507f4c697374696e672068617320616c7265616479206265656e207265706f72746560008301527f64000000000000000000000000000000000000000000000000000000000000006020830152604082019050919050565b6000613ad9601e83614350565b91507f5468652063616c6c6572206d757374206265207468652073656e6465722e00006000830152602082019050919050565b6000613b19601c83614350565b91507f53656e646572206973206e6f74206c697374696e67207369676e6572000000006000830152602082019050919050565b6000613b59602a83614350565b91507f56616c7565206d7573742062652067726561746572207468616e20617262697460008301527f726174696f6e436f7374000000000000000000000000000000000000000000006020830152604082019050919050565b6000613bbf600083614345565b9150600082019050919050565b6000613bd9601783614350565b91507f5265706f72742074696d652068617320657870697265640000000000000000006000830152602082019050919050565b6000613c19601983614350565b91507f556e61626c6520746f207472616e7366657220746f6b656e73000000000000006000830152602082019050919050565b6000613c59600f83614350565b91507f496e76616c6964206c697374696e6700000000000000000000000000000000006000830152602082019050919050565b6000613c99602e83614350565b91507f596f752063616e2774207265706f727420796f757273656c662e20557365206360008301527f616e63656c4c697374696e6728290000000000000000000000000000000000006020830152604082019050919050565b613cfb816143ff565b82525050565b613d12613d0d826143ff565b614573565b82525050565b613d21816144ee565b82525050565b613d3081614409565b82525050565b6000613d42828b61358e565b602082019150613d52828a613559565b601482019150613d628289613533565b601482019150613d728288613d01565b602082019150613d828287613d01565b602082019150613d928286613d01565b602082019150613da28285613d01565b602082019150613db28284613d01565b6020820191508190509998505050505050505050565b6000613dd48285613700565b9150613de0828461358e565b6020820191508190509392505050565b6000613dfb82613bb2565b9150819050919050565b600061014082019050613e1b600083018d613524565b613e28602083018c613524565b613e35604083018b613cf2565b613e42606083018a61368b565b613e4f6080830189613cf2565b613e5c60a0830188613cf2565b613e6960c083018761369a565b613e7660e0830186613cf2565b613e84610100830185613cf2565b613e926101208301846136b8565b9b9a5050505050505050505050565b6000606082019050613eb66000830186613515565b613ec3602083018561354a565b613ed06040830184613cf2565b949350505050565b6000604082019050613eed6000830185613515565b613efa6020830184613cf2565b9392505050565b6000602082019050613f166000830184613570565b92915050565b6000602082019050613f31600083018461357f565b92915050565b6000608082019050613f4c600083018761357f565b613f596020830186613d27565b613f66604083018561357f565b613f73606083018461357f565b95945050505050565b60006020820190508181036000830152613f9681846135a5565b905092915050565b60006020820190508181036000830152613fb881846135de565b905092915050565b6000602082019050613fd5600083018461366d565b92915050565b6000602082019050613ff0600083018461367c565b92915050565b600060208201905061400b60008301846136a9565b92915050565b6000602082019050818103600083015261402b81846136c7565b905092915050565b6000602082019050818103600083015261404c8161378e565b9050919050565b6000602082019050818103600083015261406c816137ce565b9050919050565b6000602082019050818103600083015261408c81613834565b9050919050565b600060208201905081810360008301526140ac81613874565b9050919050565b600060208201905081810360008301526140cc816138b4565b9050919050565b600060208201905081810360008301526140ec816138f4565b9050919050565b6000602082019050818103600083015261410c8161395a565b9050919050565b6000602082019050818103600083015261412c8161399a565b9050919050565b6000602082019050818103600083015261414c81613a00565b9050919050565b6000602082019050818103600083015261416c81613a66565b9050919050565b6000602082019050818103600083015261418c81613acc565b9050919050565b600060208201905081810360008301526141ac81613b0c565b9050919050565b600060208201905081810360008301526141cc81613b4c565b9050919050565b600060208201905081810360008301526141ec81613bcc565b9050919050565b6000602082019050818103600083015261420c81613c0c565b9050919050565b6000602082019050818103600083015261422c81613c4c565b9050919050565b6000602082019050818103600083015261424c81613c8c565b9050919050565b60006020820190506142686000830184613cf2565b92915050565b60006040820190506142836000830185613cf2565b6142906020830184613cf2565b9392505050565b60006040820190506142ac6000830185613d18565b81810360208301526142be81846135a5565b90509392505050565b6000604051905081810181811067ffffffffffffffff821117156142ea57600080fd5b8060405250919050565b60008190508160005260206000209050919050565b60008190508160005260206000209050919050565b600081519050919050565b600081519050919050565b600082825260208201905092915050565b600081905092915050565b600082825260208201905092915050565b600081905092915050565b6000614377826143df565b9050919050565b6000614389826143df565b9050919050565b60008115159050919050565b6000819050919050565b60008190506143b48261459b565b919050565b60008190506143c7826145a8565b919050565b60008190506143da826145b5565b919050565b600073ffffffffffffffffffffffffffffffffffffffff82169050919050565b6000819050919050565b600060ff82169050919050565b6000614421826144ca565b9050919050565b60006144338261443a565b9050919050565b6000614445826143df565b9050919050565b60006144578261445e565b9050919050565b6000614469826143df565b9050919050565b600061447b82614482565b9050919050565b600061448d826143df565b9050919050565b600061449f826143a6565b9050919050565b60006144b1826143b9565b9050919050565b60006144c3826143cc565b9050919050565b60006144d5826144dc565b9050919050565b60006144e7826143df565b9050919050565b60006144f982614409565b9050919050565b60005b8381101561451e578082015181840152602081019050614503565b8381111561452d576000848401525b50505050565b600061453e82614561565b9050919050565b600061455082614561565b9050919050565b6000819050919050565b600061456c8261458e565b9050919050565b6000819050919050565b6000601f19601f8301169050919050565b60008160601b9050919050565b600281106145a557fe5b50565b600281106145b257fe5b50565b600581106145bf57fe5b50565b6145cb8161436c565b81146145d657600080fd5b50565b6145e28161437e565b81146145ed57600080fd5b50565b6145f981614390565b811461460457600080fd5b50565b6146108161439c565b811461461b57600080fd5b50565b614627816143ff565b811461463257600080fd5b50565b61463e81614409565b811461464957600080fd5b5056fea2646970667358221220dcc76e12d6b99136dbb9a1ffc9f48a31c0206f539c31f2c89fb54943724350a464736f6c63430006080033",
  "immutableReferences": {},
  "source": "// SPDX-License-Identifier: MIT\npragma solidity ^0.6.0;\npragma experimental ABIEncoderV2;\n\nimport \"./Dagora.sol\";\n\ncontract TestDagora is Dagora {\n\n    constructor(address _arbitrator,\n                address _token,\n                uint _reportTimeout,\n                uint _feeTimeout,\n                bytes memory _reportExtraData,\n                bytes memory _orderExtraData,\n                string memory _ipfsDomain)\n                Dagora(_arbitrator,\n                        _token,\n                        _reportTimeout,\n                        _feeTimeout,\n                        _reportExtraData,\n                        _orderExtraData,\n                        _ipfsDomain) public {\n    }\n\n    function _validateListing(bytes32 hash, Listing memory _listing, Sig memory sig)\n        public\n        view\n        returns (bool)\n    {\n        return validateListing(hash, _listing, sig);\n    }\n\n    function _hashListing(Listing memory listing)\n        public\n        pure\n        returns (bytes32 hash)\n    {\n        return hashListing(listing);\n    }\n}",
  "sourcePath": "/home/gustavo/dagora/contracts/marketplace/TestDagora.sol",
  "compiler": {
    "name": "solc",
    "version": "0.6.8+commit.0bbfe453.Emscripten.clang"
  },
  "schemaVersion": "3.2.0",
  "updatedAt": "2020-05-27T04:45:43.414Z",
  "networkType": "ethereum",
  "devdoc": {
    "methods": {}
  },
  "userdoc": {
    "methods": {}
  }
}