{
  "contractName": "TestDagora",
  "abi": [
    {
      "inputs": [
        {
          "internalType": "address",
          "name": "_arbitrator",
          "type": "address"
        },
        {
          "internalType": "address",
          "name": "_token",
          "type": "address"
        },
        {
          "internalType": "address",
          "name": "_protocolFeeRecipient",
          "type": "address"
        },
        {
          "internalType": "uint256",
          "name": "_feeTimeoutDays",
          "type": "uint256"
        },
        {
          "internalType": "uint256",
          "name": "_blacklistTimeoutDays",
          "type": "uint256"
        },
        {
          "internalType": "uint256",
          "name": "_protocolFeePercentage",
          "type": "uint256"
        },
        {
          "internalType": "uint256",
          "name": "_tokenOwnerFeePercentage",
          "type": "uint256"
        },
        {
          "internalType": "bytes",
          "name": "_reportExtraData",
          "type": "bytes"
        },
        {
          "internalType": "bytes",
          "name": "_orderExtraData",
          "type": "bytes"
        },
        {
          "internalType": "string",
          "name": "_ipfsDomain",
          "type": "string"
        }
      ],
      "stateMutability": "nonpayable",
      "type": "constructor"
    },
    {
      "anonymous": false,
      "inputs": [
        {
          "indexed": true,
          "internalType": "contract Arbitrator",
          "name": "_arbitrator",
          "type": "address"
        },
        {
          "indexed": true,
          "internalType": "uint256",
          "name": "_disputeID",
          "type": "uint256"
        },
        {
          "indexed": false,
          "internalType": "uint256",
          "name": "_metaEvidenceID",
          "type": "uint256"
        },
        {
          "indexed": false,
          "internalType": "uint256",
          "name": "_evidenceGroupID",
          "type": "uint256"
        }
      ],
      "name": "Dispute",
      "type": "event"
    },
    {
      "anonymous": false,
      "inputs": [
        {
          "indexed": true,
          "internalType": "contract Arbitrator",
          "name": "_arbitrator",
          "type": "address"
        },
        {
          "indexed": true,
          "internalType": "uint256",
          "name": "_evidenceGroupID",
          "type": "uint256"
        },
        {
          "indexed": true,
          "internalType": "address",
          "name": "_party",
          "type": "address"
        },
        {
          "indexed": false,
          "internalType": "string",
          "name": "_evidence",
          "type": "string"
        }
      ],
      "name": "Evidence",
      "type": "event"
    },
    {
      "anonymous": false,
      "inputs": [
        {
          "indexed": true,
          "internalType": "bytes32",
          "name": "_hash",
          "type": "bytes32"
        },
        {
          "indexed": false,
          "internalType": "enum Dagora.Party",
          "name": "_party",
          "type": "uint8"
        }
      ],
      "name": "HasToPayFee",
      "type": "event"
    },
    {
      "anonymous": false,
      "inputs": [
        {
          "indexed": true,
          "internalType": "bytes32",
          "name": "hash",
          "type": "bytes32"
        }
      ],
      "name": "ListingApproved",
      "type": "event"
    },
    {
      "anonymous": false,
      "inputs": [
        {
          "indexed": true,
          "internalType": "bytes32",
          "name": "hash",
          "type": "bytes32"
        }
      ],
      "name": "ListingCancelled",
      "type": "event"
    },
    {
      "anonymous": false,
      "inputs": [
        {
          "indexed": true,
          "internalType": "uint256",
          "name": "_metaEvidenceID",
          "type": "uint256"
        },
        {
          "indexed": false,
          "internalType": "string",
          "name": "_evidence",
          "type": "string"
        }
      ],
      "name": "MetaEvidence",
      "type": "event"
    },
    {
      "anonymous": false,
      "inputs": [
        {
          "indexed": true,
          "internalType": "bytes32",
          "name": "hash",
          "type": "bytes32"
        }
      ],
      "name": "OrderApproved",
      "type": "event"
    },
    {
      "anonymous": false,
      "inputs": [
        {
          "indexed": true,
          "internalType": "bytes32",
          "name": "hash",
          "type": "bytes32"
        }
      ],
      "name": "OrderCancelled",
      "type": "event"
    },
    {
      "anonymous": false,
      "inputs": [
        {
          "indexed": true,
          "internalType": "address",
          "name": "previousOwner",
          "type": "address"
        },
        {
          "indexed": true,
          "internalType": "address",
          "name": "newOwner",
          "type": "address"
        }
      ],
      "name": "OwnershipTransferred",
      "type": "event"
    },
    {
      "anonymous": false,
      "inputs": [
        {
          "indexed": true,
          "internalType": "contract Arbitrator",
          "name": "_arbitrator",
          "type": "address"
        },
        {
          "indexed": true,
          "internalType": "uint256",
          "name": "_disputeID",
          "type": "uint256"
        },
        {
          "indexed": false,
          "internalType": "uint256",
          "name": "_ruling",
          "type": "uint256"
        }
      ],
      "name": "Ruling",
      "type": "event"
    },
    {
      "anonymous": false,
      "inputs": [
        {
          "indexed": true,
          "internalType": "address",
          "name": "sender",
          "type": "address"
        },
        {
          "indexed": false,
          "internalType": "uint256",
          "name": "value",
          "type": "uint256"
        }
      ],
      "name": "TokenDeposited",
      "type": "event"
    },
    {
      "anonymous": false,
      "inputs": [
        {
          "indexed": true,
          "internalType": "address",
          "name": "addr",
          "type": "address"
        }
      ],
      "name": "TokenGranted",
      "type": "event"
    },
    {
      "anonymous": false,
      "inputs": [
        {
          "indexed": true,
          "internalType": "address",
          "name": "addr",
          "type": "address"
        }
      ],
      "name": "TokenRevoked",
      "type": "event"
    },
    {
      "anonymous": false,
      "inputs": [
        {
          "indexed": true,
          "internalType": "address",
          "name": "sender",
          "type": "address"
        },
        {
          "indexed": false,
          "internalType": "uint256",
          "name": "value",
          "type": "uint256"
        }
      ],
      "name": "TokenWithdrawed",
      "type": "event"
    },
    {
      "anonymous": false,
      "inputs": [
        {
          "indexed": true,
          "internalType": "bytes32",
          "name": "hash",
          "type": "bytes32"
        },
        {
          "indexed": true,
          "internalType": "address",
          "name": "buyer",
          "type": "address"
        },
        {
          "indexed": true,
          "internalType": "address",
          "name": "seller",
          "type": "address"
        },
        {
          "indexed": false,
          "internalType": "address",
          "name": "stakeOwner",
          "type": "address"
        },
        {
          "indexed": false,
          "internalType": "address",
          "name": "commissioner",
          "type": "address"
        },
        {
          "indexed": false,
          "internalType": "contract ERC20",
          "name": "token",
          "type": "address"
        },
        {
          "indexed": false,
          "internalType": "uint256",
          "name": "total",
          "type": "uint256"
        },
        {
          "indexed": false,
          "internalType": "uint256",
          "name": "commissionPercentage",
          "type": "uint256"
        },
        {
          "indexed": false,
          "internalType": "uint256",
          "name": "cashbackPercentage",
          "type": "uint256"
        },
        {
          "indexed": false,
          "internalType": "uint256",
          "name": "confirmationTimeout",
          "type": "uint256"
        }
      ],
      "name": "TransactionCreated",
      "type": "event"
    },
    {
      "anonymous": false,
      "inputs": [
        {
          "indexed": true,
          "internalType": "bytes32",
          "name": "hash",
          "type": "bytes32"
        }
      ],
      "name": "TransactionFinalized",
      "type": "event"
    },
    {
      "anonymous": false,
      "inputs": [
        {
          "indexed": true,
          "internalType": "bytes32",
          "name": "hash",
          "type": "bytes32"
        },
        {
          "indexed": false,
          "internalType": "uint256",
          "name": "value",
          "type": "uint256"
        }
      ],
      "name": "TransactionRefunded",
      "type": "event"
    },
    {
      "anonymous": false,
      "inputs": [
        {
          "indexed": true,
          "internalType": "bytes32",
          "name": "hash",
          "type": "bytes32"
        }
      ],
      "name": "WarrantyClaimed",
      "type": "event"
    },
    {
      "inputs": [],
      "name": "INVERSE_BASIS_POINT",
      "outputs": [
        {
          "internalType": "uint256",
          "name": "",
          "type": "uint256"
        }
      ],
      "stateMutability": "view",
      "type": "function",
      "constant": true
    },
    {
      "inputs": [
        {
          "internalType": "bytes32",
          "name": "_hash",
          "type": "bytes32"
        }
      ],
      "name": "appeal",
      "outputs": [],
      "stateMutability": "payable",
      "type": "function",
      "payable": true
    },
    {
      "inputs": [
        {
          "components": [
            {
              "internalType": "bytes32",
              "name": "ipfsHash",
              "type": "bytes32"
            },
            {
              "internalType": "address payable",
              "name": "seller",
              "type": "address"
            },
            {
              "internalType": "address payable",
              "name": "stakeOwner",
              "type": "address"
            },
            {
              "internalType": "uint256",
              "name": "stakedAmount",
              "type": "uint256"
            },
            {
              "internalType": "uint256",
              "name": "commissionPercentage",
              "type": "uint256"
            },
            {
              "internalType": "uint256",
              "name": "warranty",
              "type": "uint256"
            },
            {
              "internalType": "uint256",
              "name": "cashbackPercentage",
              "type": "uint256"
            },
            {
              "internalType": "uint256",
              "name": "expiration",
              "type": "uint256"
            }
          ],
          "internalType": "struct Dagora.Listing",
          "name": "_listing",
          "type": "tuple"
        }
      ],
      "name": "approveListing",
      "outputs": [
        {
          "internalType": "bool",
          "name": "",
          "type": "bool"
        }
      ],
      "stateMutability": "nonpayable",
      "type": "function"
    },
    {
      "inputs": [
        {
          "components": [
            {
              "internalType": "bytes32",
              "name": "listingHash",
              "type": "bytes32"
            },
            {
              "internalType": "address payable",
              "name": "buyer",
              "type": "address"
            },
            {
              "internalType": "address payable",
              "name": "commissioner",
              "type": "address"
            },
            {
              "internalType": "contract ERC20",
              "name": "token",
              "type": "address"
            },
            {
              "internalType": "uint256",
              "name": "total",
              "type": "uint256"
            },
            {
              "internalType": "uint256",
              "name": "shippingCost",
              "type": "uint256"
            },
            {
              "internalType": "uint256",
              "name": "expiration",
              "type": "uint256"
            },
            {
              "internalType": "uint256",
              "name": "confirmationTimeout",
              "type": "uint256"
            }
          ],
          "internalType": "struct Dagora.Order",
          "name": "order",
          "type": "tuple"
        }
      ],
      "name": "approveOrder",
      "outputs": [
        {
          "internalType": "bool",
          "name": "",
          "type": "bool"
        }
      ],
      "stateMutability": "nonpayable",
      "type": "function"
    },
    {
      "inputs": [
        {
          "internalType": "bytes32",
          "name": "",
          "type": "bytes32"
        }
      ],
      "name": "approvedHashes",
      "outputs": [
        {
          "internalType": "bool",
          "name": "",
          "type": "bool"
        }
      ],
      "stateMutability": "view",
      "type": "function",
      "constant": true
    },
    {
      "inputs": [],
      "name": "arbitrator",
      "outputs": [
        {
          "internalType": "contract Arbitrator",
          "name": "",
          "type": "address"
        }
      ],
      "stateMutability": "view",
      "type": "function",
      "constant": true
    },
    {
      "inputs": [],
      "name": "blackListTimeout",
      "outputs": [
        {
          "internalType": "uint256",
          "name": "",
          "type": "uint256"
        }
      ],
      "stateMutability": "view",
      "type": "function",
      "constant": true
    },
    {
      "inputs": [
        {
          "internalType": "bytes32",
          "name": "",
          "type": "bytes32"
        }
      ],
      "name": "cancelledOrFinalized",
      "outputs": [
        {
          "internalType": "bool",
          "name": "",
          "type": "bool"
        }
      ],
      "stateMutability": "view",
      "type": "function",
      "constant": true
    },
    {
      "inputs": [
        {
          "components": [
            {
              "internalType": "bytes32",
              "name": "listingHash",
              "type": "bytes32"
            },
            {
              "internalType": "address payable",
              "name": "buyer",
              "type": "address"
            },
            {
              "internalType": "address payable",
              "name": "commissioner",
              "type": "address"
            },
            {
              "internalType": "contract ERC20",
              "name": "token",
              "type": "address"
            },
            {
              "internalType": "uint256",
              "name": "total",
              "type": "uint256"
            },
            {
              "internalType": "uint256",
              "name": "shippingCost",
              "type": "uint256"
            },
            {
              "internalType": "uint256",
              "name": "expiration",
              "type": "uint256"
            },
            {
              "internalType": "uint256",
              "name": "confirmationTimeout",
              "type": "uint256"
            }
          ],
          "internalType": "struct Dagora.Order",
          "name": "_order",
          "type": "tuple"
        },
        {
          "components": [
            {
              "internalType": "bytes32",
              "name": "ipfsHash",
              "type": "bytes32"
            },
            {
              "internalType": "address payable",
              "name": "seller",
              "type": "address"
            },
            {
              "internalType": "address payable",
              "name": "stakeOwner",
              "type": "address"
            },
            {
              "internalType": "uint256",
              "name": "stakedAmount",
              "type": "uint256"
            },
            {
              "internalType": "uint256",
              "name": "commissionPercentage",
              "type": "uint256"
            },
            {
              "internalType": "uint256",
              "name": "warranty",
              "type": "uint256"
            },
            {
              "internalType": "uint256",
              "name": "cashbackPercentage",
              "type": "uint256"
            },
            {
              "internalType": "uint256",
              "name": "expiration",
              "type": "uint256"
            }
          ],
          "internalType": "struct Dagora.Listing",
          "name": "_listing",
          "type": "tuple"
        }
      ],
      "name": "claimWarranty",
      "outputs": [],
      "stateMutability": "nonpayable",
      "type": "function"
    },
    {
      "inputs": [
        {
          "components": [
            {
              "internalType": "bytes32",
              "name": "listingHash",
              "type": "bytes32"
            },
            {
              "internalType": "address payable",
              "name": "buyer",
              "type": "address"
            },
            {
              "internalType": "address payable",
              "name": "commissioner",
              "type": "address"
            },
            {
              "internalType": "contract ERC20",
              "name": "token",
              "type": "address"
            },
            {
              "internalType": "uint256",
              "name": "total",
              "type": "uint256"
            },
            {
              "internalType": "uint256",
              "name": "shippingCost",
              "type": "uint256"
            },
            {
              "internalType": "uint256",
              "name": "expiration",
              "type": "uint256"
            },
            {
              "internalType": "uint256",
              "name": "confirmationTimeout",
              "type": "uint256"
            }
          ],
          "internalType": "struct Dagora.Order",
          "name": "_order",
          "type": "tuple"
        },
        {
          "components": [
            {
              "internalType": "bytes32",
              "name": "ipfsHash",
              "type": "bytes32"
            },
            {
              "internalType": "address payable",
              "name": "seller",
              "type": "address"
            },
            {
              "internalType": "address payable",
              "name": "stakeOwner",
              "type": "address"
            },
            {
              "internalType": "uint256",
              "name": "stakedAmount",
              "type": "uint256"
            },
            {
              "internalType": "uint256",
              "name": "commissionPercentage",
              "type": "uint256"
            },
            {
              "internalType": "uint256",
              "name": "warranty",
              "type": "uint256"
            },
            {
              "internalType": "uint256",
              "name": "cashbackPercentage",
              "type": "uint256"
            },
            {
              "internalType": "uint256",
              "name": "expiration",
              "type": "uint256"
            }
          ],
          "internalType": "struct Dagora.Listing",
          "name": "_listing",
          "type": "tuple"
        }
      ],
      "name": "confirmReceipt",
      "outputs": [],
      "stateMutability": "nonpayable",
      "type": "function"
    },
    {
      "inputs": [
        {
          "internalType": "address",
          "name": "",
          "type": "address"
        }
      ],
      "name": "contracts",
      "outputs": [
        {
          "internalType": "bool",
          "name": "",
          "type": "bool"
        }
      ],
      "stateMutability": "view",
      "type": "function",
      "constant": true
    },
    {
      "inputs": [
        {
          "components": [
            {
              "internalType": "bytes32",
              "name": "listingHash",
              "type": "bytes32"
            },
            {
              "internalType": "address payable",
              "name": "buyer",
              "type": "address"
            },
            {
              "internalType": "address payable",
              "name": "commissioner",
              "type": "address"
            },
            {
              "internalType": "contract ERC20",
              "name": "token",
              "type": "address"
            },
            {
              "internalType": "uint256",
              "name": "total",
              "type": "uint256"
            },
            {
              "internalType": "uint256",
              "name": "shippingCost",
              "type": "uint256"
            },
            {
              "internalType": "uint256",
              "name": "expiration",
              "type": "uint256"
            },
            {
              "internalType": "uint256",
              "name": "confirmationTimeout",
              "type": "uint256"
            }
          ],
          "internalType": "struct Dagora.Order",
          "name": "_order",
          "type": "tuple"
        },
        {
          "components": [
            {
              "internalType": "uint8",
              "name": "v",
              "type": "uint8"
            },
            {
              "internalType": "bytes32",
              "name": "r",
              "type": "bytes32"
            },
            {
              "internalType": "bytes32",
              "name": "s",
              "type": "bytes32"
            }
          ],
          "internalType": "struct Dagora.Sig",
          "name": "orderSig",
          "type": "tuple"
        },
        {
          "components": [
            {
              "internalType": "bytes32",
              "name": "ipfsHash",
              "type": "bytes32"
            },
            {
              "internalType": "address payable",
              "name": "seller",
              "type": "address"
            },
            {
              "internalType": "address payable",
              "name": "stakeOwner",
              "type": "address"
            },
            {
              "internalType": "uint256",
              "name": "stakedAmount",
              "type": "uint256"
            },
            {
              "internalType": "uint256",
              "name": "commissionPercentage",
              "type": "uint256"
            },
            {
              "internalType": "uint256",
              "name": "warranty",
              "type": "uint256"
            },
            {
              "internalType": "uint256",
              "name": "cashbackPercentage",
              "type": "uint256"
            },
            {
              "internalType": "uint256",
              "name": "expiration",
              "type": "uint256"
            }
          ],
          "internalType": "struct Dagora.Listing",
          "name": "_listing",
          "type": "tuple"
        },
        {
          "components": [
            {
              "internalType": "uint8",
              "name": "v",
              "type": "uint8"
            },
            {
              "internalType": "bytes32",
              "name": "r",
              "type": "bytes32"
            },
            {
              "internalType": "bytes32",
              "name": "s",
              "type": "bytes32"
            }
          ],
          "internalType": "struct Dagora.Sig",
          "name": "listingSig",
          "type": "tuple"
        }
      ],
      "name": "createTransaction",
      "outputs": [
        {
          "internalType": "bytes32",
          "name": "hash",
          "type": "bytes32"
        }
      ],
      "stateMutability": "nonpayable",
      "type": "function"
    },
    {
      "inputs": [
        {
          "internalType": "uint256",
          "name": "value",
          "type": "uint256"
        }
      ],
      "name": "depositTokens",
      "outputs": [],
      "stateMutability": "nonpayable",
      "type": "function"
    },
    {
      "inputs": [
        {
          "internalType": "uint256",
          "name": "",
          "type": "uint256"
        }
      ],
      "name": "disputeIDtoHash",
      "outputs": [
        {
          "internalType": "bytes32",
          "name": "",
          "type": "bytes32"
        }
      ],
      "stateMutability": "view",
      "type": "function",
      "constant": true
    },
    {
      "inputs": [
        {
          "internalType": "bytes32",
          "name": "hash",
          "type": "bytes32"
        }
      ],
      "name": "disputeTimeout",
      "outputs": [],
      "stateMutability": "nonpayable",
      "type": "function"
    },
    {
      "inputs": [
        {
          "components": [
            {
              "internalType": "bytes32",
              "name": "listingHash",
              "type": "bytes32"
            },
            {
              "internalType": "address payable",
              "name": "buyer",
              "type": "address"
            },
            {
              "internalType": "address payable",
              "name": "commissioner",
              "type": "address"
            },
            {
              "internalType": "contract ERC20",
              "name": "token",
              "type": "address"
            },
            {
              "internalType": "uint256",
              "name": "total",
              "type": "uint256"
            },
            {
              "internalType": "uint256",
              "name": "shippingCost",
              "type": "uint256"
            },
            {
              "internalType": "uint256",
              "name": "expiration",
              "type": "uint256"
            },
            {
              "internalType": "uint256",
              "name": "confirmationTimeout",
              "type": "uint256"
            }
          ],
          "internalType": "struct Dagora.Order",
          "name": "_order",
          "type": "tuple"
        },
        {
          "components": [
            {
              "internalType": "bytes32",
              "name": "ipfsHash",
              "type": "bytes32"
            },
            {
              "internalType": "address payable",
              "name": "seller",
              "type": "address"
            },
            {
              "internalType": "address payable",
              "name": "stakeOwner",
              "type": "address"
            },
            {
              "internalType": "uint256",
              "name": "stakedAmount",
              "type": "uint256"
            },
            {
              "internalType": "uint256",
              "name": "commissionPercentage",
              "type": "uint256"
            },
            {
              "internalType": "uint256",
              "name": "warranty",
              "type": "uint256"
            },
            {
              "internalType": "uint256",
              "name": "cashbackPercentage",
              "type": "uint256"
            },
            {
              "internalType": "uint256",
              "name": "expiration",
              "type": "uint256"
            }
          ],
          "internalType": "struct Dagora.Listing",
          "name": "_listing",
          "type": "tuple"
        }
      ],
      "name": "disputeTransaction",
      "outputs": [
        {
          "internalType": "bytes32",
          "name": "hash",
          "type": "bytes32"
        }
      ],
      "stateMutability": "payable",
      "type": "function",
      "payable": true
    },
    {
      "inputs": [
        {
          "internalType": "bytes32",
          "name": "",
          "type": "bytes32"
        }
      ],
      "name": "disputes",
      "outputs": [
        {
          "internalType": "address payable",
          "name": "prosecution",
          "type": "address"
        },
        {
          "internalType": "address payable",
          "name": "defendant",
          "type": "address"
        },
        {
          "internalType": "uint256",
          "name": "amount",
          "type": "uint256"
        },
        {
          "internalType": "contract ERC20",
          "name": "token",
          "type": "address"
        },
        {
          "internalType": "uint256",
          "name": "prosecutionFee",
          "type": "uint256"
        },
        {
          "internalType": "uint256",
          "name": "defendantFee",
          "type": "uint256"
        },
        {
          "internalType": "enum Dagora.DisputeType",
          "name": "disputeType",
          "type": "uint8"
        },
        {
          "internalType": "uint256",
          "name": "lastInteraction",
          "type": "uint256"
        },
        {
          "internalType": "uint256",
          "name": "metaEvidenceId",
          "type": "uint256"
        },
        {
          "internalType": "uint256",
          "name": "disputeId",
          "type": "uint256"
        },
        {
          "internalType": "enum Dagora.DisputeStatus",
          "name": "status",
          "type": "uint8"
        }
      ],
      "stateMutability": "view",
      "type": "function",
      "constant": true
    },
    {
      "inputs": [
        {
          "components": [
            {
              "internalType": "bytes32",
              "name": "listingHash",
              "type": "bytes32"
            },
            {
              "internalType": "address payable",
              "name": "buyer",
              "type": "address"
            },
            {
              "internalType": "address payable",
              "name": "commissioner",
              "type": "address"
            },
            {
              "internalType": "contract ERC20",
              "name": "token",
              "type": "address"
            },
            {
              "internalType": "uint256",
              "name": "total",
              "type": "uint256"
            },
            {
              "internalType": "uint256",
              "name": "shippingCost",
              "type": "uint256"
            },
            {
              "internalType": "uint256",
              "name": "expiration",
              "type": "uint256"
            },
            {
              "internalType": "uint256",
              "name": "confirmationTimeout",
              "type": "uint256"
            }
          ],
          "internalType": "struct Dagora.Order",
          "name": "_order",
          "type": "tuple"
        },
        {
          "components": [
            {
              "internalType": "bytes32",
              "name": "ipfsHash",
              "type": "bytes32"
            },
            {
              "internalType": "address payable",
              "name": "seller",
              "type": "address"
            },
            {
              "internalType": "address payable",
              "name": "stakeOwner",
              "type": "address"
            },
            {
              "internalType": "uint256",
              "name": "stakedAmount",
              "type": "uint256"
            },
            {
              "internalType": "uint256",
              "name": "commissionPercentage",
              "type": "uint256"
            },
            {
              "internalType": "uint256",
              "name": "warranty",
              "type": "uint256"
            },
            {
              "internalType": "uint256",
              "name": "cashbackPercentage",
              "type": "uint256"
            },
            {
              "internalType": "uint256",
              "name": "expiration",
              "type": "uint256"
            }
          ],
          "internalType": "struct Dagora.Listing",
          "name": "_listing",
          "type": "tuple"
        }
      ],
      "name": "executeTransaction",
      "outputs": [],
      "stateMutability": "nonpayable",
      "type": "function"
    },
    {
      "inputs": [],
      "name": "feeTimeout",
      "outputs": [
        {
          "internalType": "uint256",
          "name": "",
          "type": "uint256"
        }
      ],
      "stateMutability": "view",
      "type": "function",
      "constant": true
    },
    {
      "inputs": [
        {
          "internalType": "address",
          "name": "addr",
          "type": "address"
        }
      ],
      "name": "grantAuthentication",
      "outputs": [],
      "stateMutability": "nonpayable",
      "type": "function"
    },
    {
      "inputs": [],
      "name": "ipfsDomain",
      "outputs": [
        {
          "internalType": "string",
          "name": "",
          "type": "string"
        }
      ],
      "stateMutability": "view",
      "type": "function",
      "constant": true
    },
    {
      "inputs": [],
      "name": "marketToken",
      "outputs": [
        {
          "internalType": "contract ERC20Burnable",
          "name": "",
          "type": "address"
        }
      ],
      "stateMutability": "view",
      "type": "function",
      "constant": true
    },
    {
      "inputs": [],
      "name": "metaEvidenceCount",
      "outputs": [
        {
          "internalType": "uint256",
          "name": "",
          "type": "uint256"
        }
      ],
      "stateMutability": "view",
      "type": "function",
      "constant": true
    },
    {
      "inputs": [],
      "name": "orderExtraData",
      "outputs": [
        {
          "internalType": "bytes",
          "name": "",
          "type": "bytes"
        }
      ],
      "stateMutability": "view",
      "type": "function",
      "constant": true
    },
    {
      "inputs": [],
      "name": "owner",
      "outputs": [
        {
          "internalType": "address",
          "name": "",
          "type": "address"
        }
      ],
      "stateMutability": "view",
      "type": "function",
      "constant": true
    },
    {
      "inputs": [
        {
          "internalType": "bytes32",
          "name": "hash",
          "type": "bytes32"
        }
      ],
      "name": "payArbitrationFee",
      "outputs": [],
      "stateMutability": "payable",
      "type": "function",
      "payable": true
    },
    {
      "inputs": [],
      "name": "protocolFeePercentage",
      "outputs": [
        {
          "internalType": "uint256",
          "name": "",
          "type": "uint256"
        }
      ],
      "stateMutability": "view",
      "type": "function",
      "constant": true
    },
    {
      "inputs": [],
      "name": "protocolFeeRecipient",
      "outputs": [
        {
          "internalType": "address",
          "name": "",
          "type": "address"
        }
      ],
      "stateMutability": "view",
      "type": "function",
      "constant": true
    },
    {
      "inputs": [],
      "name": "renounceOwnership",
      "outputs": [],
      "stateMutability": "nonpayable",
      "type": "function"
    },
    {
      "inputs": [
        {
          "components": [
            {
              "internalType": "bytes32",
              "name": "ipfsHash",
              "type": "bytes32"
            },
            {
              "internalType": "address payable",
              "name": "seller",
              "type": "address"
            },
            {
              "internalType": "address payable",
              "name": "stakeOwner",
              "type": "address"
            },
            {
              "internalType": "uint256",
              "name": "stakedAmount",
              "type": "uint256"
            },
            {
              "internalType": "uint256",
              "name": "commissionPercentage",
              "type": "uint256"
            },
            {
              "internalType": "uint256",
              "name": "warranty",
              "type": "uint256"
            },
            {
              "internalType": "uint256",
              "name": "cashbackPercentage",
              "type": "uint256"
            },
            {
              "internalType": "uint256",
              "name": "expiration",
              "type": "uint256"
            }
          ],
          "internalType": "struct Dagora.Listing",
          "name": "_listing",
          "type": "tuple"
        },
        {
          "components": [
            {
              "internalType": "uint8",
              "name": "v",
              "type": "uint8"
            },
            {
              "internalType": "bytes32",
              "name": "r",
              "type": "bytes32"
            },
            {
              "internalType": "bytes32",
              "name": "s",
              "type": "bytes32"
            }
          ],
          "internalType": "struct Dagora.Sig",
          "name": "sig",
          "type": "tuple"
        }
      ],
      "name": "report",
      "outputs": [
        {
          "internalType": "bytes32",
          "name": "hash",
          "type": "bytes32"
        }
      ],
      "stateMutability": "payable",
      "type": "function",
      "payable": true
    },
    {
      "inputs": [],
      "name": "reportExtraData",
      "outputs": [
        {
          "internalType": "bytes",
          "name": "",
          "type": "bytes"
        }
      ],
      "stateMutability": "view",
      "type": "function",
      "constant": true
    },
    {
      "inputs": [
        {
          "internalType": "address",
          "name": "addr",
          "type": "address"
        }
      ],
      "name": "revokeAuthentication",
      "outputs": [],
      "stateMutability": "nonpayable",
      "type": "function"
    },
    {
      "inputs": [
        {
          "internalType": "uint256",
          "name": "_disputeID",
          "type": "uint256"
        },
        {
          "internalType": "uint256",
          "name": "_ruling",
          "type": "uint256"
        }
      ],
      "name": "rule",
      "outputs": [],
      "stateMutability": "nonpayable",
      "type": "function"
    },
    {
      "inputs": [
        {
          "internalType": "address",
          "name": "",
          "type": "address"
        }
      ],
      "name": "sellers",
      "outputs": [
        {
          "internalType": "uint256",
          "name": "balance",
          "type": "uint256"
        },
        {
          "internalType": "uint256",
          "name": "lockedTokens",
          "type": "uint256"
        },
        {
          "internalType": "uint256",
          "name": "blackListExpire",
          "type": "uint256"
        }
      ],
      "stateMutability": "view",
      "type": "function",
      "constant": true
    },
    {
      "inputs": [
        {
          "internalType": "bytes32",
          "name": "_hash",
          "type": "bytes32"
        },
        {
          "internalType": "string",
          "name": "_evidence",
          "type": "string"
        }
      ],
      "name": "submitEvidence",
      "outputs": [],
      "stateMutability": "nonpayable",
      "type": "function"
    },
    {
      "inputs": [],
      "name": "tokenOwnerFeePercentage",
      "outputs": [
        {
          "internalType": "uint256",
          "name": "",
          "type": "uint256"
        }
      ],
      "stateMutability": "view",
      "type": "function",
      "constant": true
    },
    {
      "inputs": [
        {
          "internalType": "bytes32",
          "name": "",
          "type": "bytes32"
        }
      ],
      "name": "transactions",
      "outputs": [
        {
          "internalType": "uint256",
          "name": "lastStatusUpdate",
          "type": "uint256"
        },
        {
          "internalType": "uint256",
          "name": "refund",
          "type": "uint256"
        },
        {
          "internalType": "enum Dagora.Status",
          "name": "status",
          "type": "uint8"
        }
      ],
      "stateMutability": "view",
      "type": "function",
      "constant": true
    },
    {
      "inputs": [
        {
          "internalType": "address",
          "name": "newOwner",
          "type": "address"
        }
      ],
      "name": "transferOwnership",
      "outputs": [],
      "stateMutability": "nonpayable",
      "type": "function"
    },
    {
      "inputs": [
        {
          "components": [
            {
              "internalType": "bytes32",
              "name": "listingHash",
              "type": "bytes32"
            },
            {
              "internalType": "address payable",
              "name": "buyer",
              "type": "address"
            },
            {
              "internalType": "address payable",
              "name": "commissioner",
              "type": "address"
            },
            {
              "internalType": "contract ERC20",
              "name": "token",
              "type": "address"
            },
            {
              "internalType": "uint256",
              "name": "total",
              "type": "uint256"
            },
            {
              "internalType": "uint256",
              "name": "shippingCost",
              "type": "uint256"
            },
            {
              "internalType": "uint256",
              "name": "expiration",
              "type": "uint256"
            },
            {
              "internalType": "uint256",
              "name": "confirmationTimeout",
              "type": "uint256"
            }
          ],
          "internalType": "struct Dagora.Order",
          "name": "_order",
          "type": "tuple"
        },
        {
          "components": [
            {
              "internalType": "bytes32",
              "name": "ipfsHash",
              "type": "bytes32"
            },
            {
              "internalType": "address payable",
              "name": "seller",
              "type": "address"
            },
            {
              "internalType": "address payable",
              "name": "stakeOwner",
              "type": "address"
            },
            {
              "internalType": "uint256",
              "name": "stakedAmount",
              "type": "uint256"
            },
            {
              "internalType": "uint256",
              "name": "commissionPercentage",
              "type": "uint256"
            },
            {
              "internalType": "uint256",
              "name": "warranty",
              "type": "uint256"
            },
            {
              "internalType": "uint256",
              "name": "cashbackPercentage",
              "type": "uint256"
            },
            {
              "internalType": "uint256",
              "name": "expiration",
              "type": "uint256"
            }
          ],
          "internalType": "struct Dagora.Listing",
          "name": "_listing",
          "type": "tuple"
        },
        {
          "internalType": "uint256",
          "name": "refund",
          "type": "uint256"
        }
      ],
      "name": "updateRefund",
      "outputs": [],
      "stateMutability": "nonpayable",
      "type": "function"
    },
    {
      "inputs": [
        {
          "internalType": "uint256",
          "name": "value",
          "type": "uint256"
        }
      ],
      "name": "withdrawTokens",
      "outputs": [],
      "stateMutability": "nonpayable",
      "type": "function"
    },
    {
      "inputs": [
        {
          "components": [
            {
              "internalType": "bytes32",
              "name": "ipfsHash",
              "type": "bytes32"
            },
            {
              "internalType": "address payable",
              "name": "seller",
              "type": "address"
            },
            {
              "internalType": "address payable",
              "name": "stakeOwner",
              "type": "address"
            },
            {
              "internalType": "uint256",
              "name": "stakedAmount",
              "type": "uint256"
            },
            {
              "internalType": "uint256",
              "name": "commissionPercentage",
              "type": "uint256"
            },
            {
              "internalType": "uint256",
              "name": "warranty",
              "type": "uint256"
            },
            {
              "internalType": "uint256",
              "name": "cashbackPercentage",
              "type": "uint256"
            },
            {
              "internalType": "uint256",
              "name": "expiration",
              "type": "uint256"
            }
          ],
          "internalType": "struct Dagora.Listing",
          "name": "_listing",
          "type": "tuple"
        },
        {
          "components": [
            {
              "internalType": "uint8",
              "name": "v",
              "type": "uint8"
            },
            {
              "internalType": "bytes32",
              "name": "r",
              "type": "bytes32"
            },
            {
              "internalType": "bytes32",
              "name": "s",
              "type": "bytes32"
            }
          ],
          "internalType": "struct Dagora.Sig",
          "name": "sig",
          "type": "tuple"
        }
      ],
      "name": "_requireValidListing",
      "outputs": [
        {
          "internalType": "bool",
          "name": "",
          "type": "bool"
        }
      ],
      "stateMutability": "view",
      "type": "function",
      "constant": true
    },
    {
      "inputs": [
        {
          "components": [
            {
              "internalType": "bytes32",
              "name": "ipfsHash",
              "type": "bytes32"
            },
            {
              "internalType": "address payable",
              "name": "seller",
              "type": "address"
            },
            {
              "internalType": "address payable",
              "name": "stakeOwner",
              "type": "address"
            },
            {
              "internalType": "uint256",
              "name": "stakedAmount",
              "type": "uint256"
            },
            {
              "internalType": "uint256",
              "name": "commissionPercentage",
              "type": "uint256"
            },
            {
              "internalType": "uint256",
              "name": "warranty",
              "type": "uint256"
            },
            {
              "internalType": "uint256",
              "name": "cashbackPercentage",
              "type": "uint256"
            },
            {
              "internalType": "uint256",
              "name": "expiration",
              "type": "uint256"
            }
          ],
          "internalType": "struct Dagora.Listing",
          "name": "listing",
          "type": "tuple"
        }
      ],
      "name": "_hashListing",
      "outputs": [
        {
          "internalType": "bytes32",
          "name": "hash",
          "type": "bytes32"
        }
      ],
      "stateMutability": "pure",
      "type": "function",
      "constant": true
    },
    {
      "inputs": [
        {
          "components": [
            {
              "internalType": "bytes32",
              "name": "ipfsHash",
              "type": "bytes32"
            },
            {
              "internalType": "address payable",
              "name": "seller",
              "type": "address"
            },
            {
              "internalType": "address payable",
              "name": "stakeOwner",
              "type": "address"
            },
            {
              "internalType": "uint256",
              "name": "stakedAmount",
              "type": "uint256"
            },
            {
              "internalType": "uint256",
              "name": "commissionPercentage",
              "type": "uint256"
            },
            {
              "internalType": "uint256",
              "name": "warranty",
              "type": "uint256"
            },
            {
              "internalType": "uint256",
              "name": "cashbackPercentage",
              "type": "uint256"
            },
            {
              "internalType": "uint256",
              "name": "expiration",
              "type": "uint256"
            }
          ],
          "internalType": "struct Dagora.Listing",
          "name": "listing",
          "type": "tuple"
        }
      ],
      "name": "_hashListingToSign",
      "outputs": [
        {
          "internalType": "bytes32",
          "name": "hash",
          "type": "bytes32"
        }
      ],
      "stateMutability": "pure",
      "type": "function",
      "constant": true
    },
    {
      "inputs": [
        {
          "internalType": "bytes32",
          "name": "msgHash",
          "type": "bytes32"
        },
        {
          "components": [
            {
              "internalType": "uint8",
              "name": "v",
              "type": "uint8"
            },
            {
              "internalType": "bytes32",
              "name": "r",
              "type": "bytes32"
            },
            {
              "internalType": "bytes32",
              "name": "s",
              "type": "bytes32"
            }
          ],
          "internalType": "struct Dagora.Sig",
          "name": "sig",
          "type": "tuple"
        }
      ],
      "name": "_ecrecover",
      "outputs": [
        {
          "internalType": "address",
          "name": "",
          "type": "address"
        }
      ],
      "stateMutability": "pure",
      "type": "function",
      "constant": true
    }
  ],
  "bytecode": "0x60806040523480156200001157600080fd5b5060405162004ee538038062004ee58339810160408190526200003491620002bb565b898989898989898989896000620000536001600160e01b036200014f16565b600080546001600160a01b0319166001600160a01b0383169081178255604051929350917f8be0079c531659141344cd1fd0a4f28419497f9722a3daafe3b4186f6b6457e0908290a350600780546001600160a01b03808d166001600160a01b031992831617909255600d80548c841690831617905560128054928b169290911691909117905562015180808802600b558602600a556010859055601184905582516200010890600890602086019062000154565b5081516200011e90600990602085019062000154565b5080516200013490600f90602084019062000154565b505050505050505050505050505050505050505050620003ab565b335b90565b828054600181600116156101000203166002900490600052602060002090601f016020900481019282601f106200019757805160ff1916838001178555620001c7565b82800160010185558215620001c7579182015b82811115620001c7578251825591602001919060010190620001aa565b50620001d5929150620001d9565b5090565b6200015191905b80821115620001d55760008155600101620001e0565b80516001600160a01b03811681146200020e57600080fd5b92915050565b600082601f83011262000225578081fd5b81516001600160401b03808211156200023c578283fd5b6040516020601f8401601f19168201810183811183821017156200025e578586fd5b806040525081945083825286818588010111156200027b57600080fd5b600092505b838310156200029f578583018101518284018201529182019162000280565b83831115620002b15760008185840101525b5050505092915050565b6000806000806000806000806000806101408b8d031215620002db578586fd5b620002e78c8c620001f6565b9950620002f88c60208d01620001f6565b9850620003098c60408d01620001f6565b975060608b0151965060808b0151955060a08b0151945060c08b0151935060e08b015160018060401b038082111562000340578485fd5b6200034e8e838f0162000214565b94506101008d015191508082111562000365578384fd5b620003738e838f0162000214565b93506101208d01519150808211156200038a578283fd5b50620003998d828e0162000214565b9150509295989b9194979a5092959850565b614b2a80620003bb6000396000f3fe6080604052600436106102675760003560e01c806381fd4fd711610144578063ba4bc763116100b6578063dd49756e1161007a578063dd49756e146106ea578063ece1de441461070a578063ee7269d71461071d578063f2fde38b14610732578063f48a0b3114610752578063fbe4eb641461077257610267565b8063ba4bc76314610662578063be6a18ef14610682578063cae6047f14610695578063d1e07197146106aa578063d1fcfdb8146106ca57610267565b8063a0c59ef311610108578063a0c59ef3146105cc578063a2031de4146105e1578063a66f1a7214610603578063ad48d61114610623578063b329036b14610638578063b63986671461064d57610267565b806381fd4fd71461054f57806382ad5f751461056f57806387bd84cc146105825780638da5cb5b146105a25780638e50e509146105b757610267565b806353a1173b116101dd5780636b83a061116101a15780636b83a061146104965780636cc6cde1146104b65780636d47ab72146104cb578063715018a6146104fa57806372fc42131461050f5780638076f0051461052f57610267565b806353a1173b146103e35780635af7980714610410578063642f2eaf1461042557806364df049e1461045457806369dc9ff31461047657610267565b8063311a6c561161022f578063311a6c561461032e578063315a095d1461034e5780634140a5eb1461036e57806347081b71146103835780634f92352f146103a357806353376d1f146103c357610267565b806311be19971461026c57806314a92c8d146102ac5780631b9eadb4146102d9578063203ab174146102ec57806328a983801461030c575b600080fd5b34801561027857600080fd5b5061028c610287366004613a26565b610792565b6040516102a39b9a99989796959493929190613ecf565b60405180910390f35b3480156102b857600080fd5b506102cc6102c7366004613bd1565b6107ff565b6040516102a39190613f92565b6102cc6102e7366004613b64565b6109d8565b3480156102f857600080fd5b506102cc610307366004613aff565b610c84565b34801561031857600080fd5b5061032c610327366004613b64565b610c95565b005b34801561033a57600080fd5b5061032c610349366004613c44565b610e23565b34801561035a57600080fd5b5061032c610369366004613a26565b610f33565b34801561037a57600080fd5b506102cc61104c565b34801561038f57600080fd5b5061032c61039e366004613b64565b611052565b3480156103af57600080fd5b506102cc6103be366004613aff565b611178565b3480156103cf57600080fd5b5061032c6103de3660046139ea565b611183565b3480156103ef57600080fd5b506104036103fe366004613b48565b611201565b6040516102a39190613f87565b34801561041c57600080fd5b506102cc6112be565b34801561043157600080fd5b50610445610440366004613a26565b6112c4565b6040516102a3939291906149d8565b34801561046057600080fd5b506104696112e8565b6040516102a39190613e7a565b34801561048257600080fd5b506104036104913660046139ea565b6112f7565b3480156104a257600080fd5b506104036104b1366004613aff565b61130c565b3480156104c257600080fd5b506104696113fc565b3480156104d757600080fd5b506104eb6104e63660046139ea565b61140b565b6040516102a3939291906149fe565b34801561050657600080fd5b5061032c61142b565b34801561051b57600080fd5b5061032c61052a366004613a26565b6114aa565b34801561053b57600080fd5b5061040361054a366004613a26565b611662565b34801561055b57600080fd5b5061040361056a366004613b1b565b611677565b6102cc61057d366004613b1b565b61168c565b34801561058e57600080fd5b5061040361059d366004613a26565b611948565b3480156105ae57600080fd5b5061046961195d565b3480156105c357600080fd5b506102cc61196c565b3480156105d857600080fd5b506102cc611972565b3480156105ed57600080fd5b506105f6611978565b6040516102a39190613fb9565b34801561060f57600080fd5b5061046961061e366004613ad3565b611a06565b34801561062f57600080fd5b50610469611a6b565b34801561064457600080fd5b506102cc611a7a565b34801561065957600080fd5b506105f6611a80565b34801561066e57600080fd5b506102cc61067d366004613a26565b611adb565b61032c610690366004613a26565b611aed565b3480156106a157600080fd5b506102cc611d4e565b3480156106b657600080fd5b5061032c6106c5366004613b91565b611d54565b3480156106d657600080fd5b5061032c6106e53660046139ea565b611e9a565b3480156106f657600080fd5b5061032c610705366004613a26565b611f41565b61032c610718366004613a26565b612020565b34801561072957600080fd5b506105f66120cf565b34801561073e57600080fd5b5061032c61074d3660046139ea565b61212a565b34801561075e57600080fd5b5061032c61076d366004613a3e565b6121e0565b34801561077e57600080fd5b5061032c61078d366004613b64565b6122e4565b600560208190526000918252604090912080546001820154600283015460038401546004850154958501546006860154600787015460088801546009890154600a909901546001600160a01b039889169a9789169996989095169695939460ff938416949293919291168b565b600061080b8383612481565b8551146108335760405162461bcd60e51b815260040161082a9061412d565b60405180910390fd5b61083d85856124bd565b90506000808281526004602052604090206002015460ff16600581111561086057fe5b1461087d5760405162461bcd60e51b815260040161082a906147ef565b60008560a00151866080015101905085606001516001600160a01b03166323b872dd876020015130846040518463ffffffff1660e01b81526004016108c493929190613f4a565b602060405180830381600087803b1580156108de57600080fd5b505af11580156108f2573d6000803e3d6000fd5b505050506040513d601f19601f820116820180604052508101906109169190613a06565b6109325760405162461bcd60e51b815260040161082a90614866565b600082815260046020526040902042815560020180546001919060ff19168280021790555083602001516001600160a01b031686602001516001600160a01b0316837fe419a7cfec7b19a58f8ef66dbf85dd08b396bafa0e2f94b3181fd3d047cb748187604001518a604001518b60600151878b608001518c60c001518f60e001516040516109c79796959493929190613e8e565b60405180910390a450949350505050565b60006109e3826124f2565b835114610a025760405162461bcd60e51b815260040161082a9061412d565b610a0b83612505565b60008181526004602052604090209091506001600282015460ff166005811115610a3157fe5b1480610a4f57506003600282015460ff166005811115610a4d57fe5b145b610a6b5760405162461bcd60e51b815260040161082a9061426e565b8360e001516201518002816000015401421115610a9a5760405162461bcd60e51b815260040161082a906145b5565b60075460405163f7434ea960e01b81526000916001600160a01b03169063f7434ea990610acc90600890600401613fcc565b60206040518083038186803b158015610ae457600080fd5b505afa158015610af8573d6000803e3d6000fd5b505050506040513d601f19601f82011682018060405250810190610b1c9190613c2c565b905080341015610b3e5760405162461bcd60e51b815260040161082a906146b7565b6000806001600285015460ff166005811115610b5657fe5b1415610ba25786602001516001600160a01b0316336001600160a01b031614610b915760405162461bcd60e51b815260040161082a906143df565b505060208086015190850151610be4565b85602001516001600160a01b0316336001600160a01b031614610bd75760405162461bcd60e51b815260040161082a90614416565b5050602080860151908501515b6002848101805460ff1916600417905542855560808801516060890151600092610c179289928792879291903490612513565b905080600801547f61606860eb6c87306811e2695215385101daab53bd6ab4e9f9049aead9363c7d600f8960000151604051602001610c57929190613dd1565b60408051601f1981840301815290829052610c7191613fb9565b60405180910390a2505050505092915050565b6000610c8f826124f2565b92915050565b610c9e816124f2565b825114610cbd5760405162461bcd60e51b815260040161082a9061412d565b6000610cc883612505565b9050600160008281526004602052604090206002015460ff166005811115610cec57fe5b148015610d0e575082602001516001600160a01b0316336001600160a01b0316145b80610d585750600360008281526004602052604090206002015460ff166005811115610d3657fe5b148015610d58575081602001516001600160a01b0316336001600160a01b0316145b610d745760405162461bcd60e51b815260040161082a90614701565b600081815260046020526040902060010154158015610d97575060008260a00151115b15610dc25760008181526004602052604090206002808201805460ff19169091179055429055610e1e565b6000610dd684608001518560a00151612622565b9050610e1c828560200151856020015187604001518760400151896060015187600460008b8152602001908152602001600020600101548b608001518c60c00151612647565b505b505050565b60008281526006602090815260408083205480845260059092529091206007546001600160a01b03163314610e6a5760405162461bcd60e51b815260040161082a90614824565b6003600a82015460ff166004811115610e7f57fe5b14610e9c5760405162461bcd60e51b815260040161082a9061406b565b83336001600160a01b03167f394027a5fa6e098a1191094d1719d6929b9abc535fcc0c8f448d6a4e7562227685604051610ed69190613f92565b60405180910390a36001600682015460ff166002811115610ef357fe5b1415610f0857610f038184612a7d565b610e1c565b610f128184612dd8565b506000908152600460205260409020600201805460ff191660051790555050565b33600090815260016020819052604090912090810154815403821115610f6b5760405162461bcd60e51b815260040161082a90613ff3565b600d546040516323b872dd60e01b81526001600160a01b03909116906323b872dd90610f9f90339030908790600401613f4a565b602060405180830381600087803b158015610fb957600080fd5b505af1158015610fcd573d6000803e3d6000fd5b505050506040513d601f19601f82011682018060405250810190610ff19190613a06565b610ffa57600080fd5b336000818152600160205260409081902080548590039055517f05e8d4927d2e9cff8a7d6f1c0c3b0fdd4d7299da00fe4911745bda49a5834e6790611040908590613f92565b60405180910390a25050565b60115481565b61105b816124f2565b82511461107a5760405162461bcd60e51b815260040161082a9061412d565b600061108583612505565b600081815260046020526040902090915060028082015460ff1660058111156110aa57fe5b146110c75760405162461bcd60e51b815260040161082a9061426e565b83602001516001600160a01b0316336001600160a01b0316146110fc5760405162461bcd60e51b815260040161082a906147c4565b8260a00151620151800281600001540142111561112b5760405162461bcd60e51b815260040161082a90614237565b60028101805460ff191660031790556080840151600182015542815560405182907f99e77d4092287badf5165a76eb7add37ec282650747091906c6a02e0cd4f5b3d90600090a250505050565b6000610c8f82613215565b61118b61326d565b6000546001600160a01b039081169116146111b85760405162461bcd60e51b815260040161082a906144cf565b6001600160a01b0381166000818152600c6020526040808220805460ff19169055517f45f62f30e7b8439e0da7d8e560fe39d01238091ce9e789e3d12b514edf98acea9190a250565b600081602001516001600160a01b0316336001600160a01b0316146112385760405162461bcd60e51b815260040161082a90614504565b600061124383612505565b60008181526003602052604090205490915060ff16156112755760405162461bcd60e51b815260040161082a906140b1565b600081815260036020526040808220805460ff191660011790555182917f0bed755d9d22259660bf623a395b620bbff2af67319e990b538dc8603bdc3e5f91a250600192915050565b600e5481565b60046020526000908152604090208054600182015460029092015490919060ff1683565b6012546001600160a01b031681565b600c6020526000908152604090205460ff1681565b600081604001516001600160a01b0316336001600160a01b0316146113435760405162461bcd60e51b815260040161082a906145ea565b60608201513360009081526001602052604090205410156113765760405162461bcd60e51b815260040161082a9061431d565b6000611381836124f2565b60008181526003602052604090205490915060ff16156113b35760405162461bcd60e51b815260040161082a906140b1565b600081815260036020526040808220805460ff191660011790555182917f4e58c75167b3bff3ab3949a55f72203f341f94cca1c2c0c84370731b2b4c201791a250600192915050565b6007546001600160a01b031681565b600160208190526000918252604090912080549181015460029091015483565b61143361326d565b6000546001600160a01b039081169116146114605760405162461bcd60e51b815260040161082a906144cf565b600080546040516001600160a01b03909116907f8be0079c531659141344cd1fd0a4f28419497f9722a3daafe3b4186f6b6457e0908390a3600080546001600160a01b0319169055565b6000818152600560205260409020600a81015460ff1660048111156114cb57fe5b60001080156114ec57506003600a82015460ff1660048111156114ea57fe5b105b6115085760405162461bcd60e51b815260040161082a90614354565b600b548160070154420310156115305760405162461bcd60e51b815260040161082a906141a2565b600081600401546000146115ae57600482018054600090915582546040516001600160a01b0390911690829061156590613e77565b60006040518083038185875af1925050503d80600081146115a2576040519150601f19603f3d011682016040523d82523d6000602084013e6115a7565b606091505b5090925050505b60058201541561162b57600582018054600090915560018301546040516001600160a01b039091169082906115e290613e77565b60006040518083038185875af1925050503d806000811461161f576040519150601f19603f3d011682016040523d82523d6000602084013e611624565b606091505b5090925050505b6002600a83015460ff16600481111561164057fe5b1415611657576116528260015b612a7d565b610e1e565b610e1e82600261164d565b60026020526000908152604090205460ff1681565b60006116838383612481565b15159392505050565b60006116988383612481565b9050600080828152600560205260409020600a015460ff1660048111156116bb57fe5b146116d85760405162461bcd60e51b815260040161082a9061448e565b82604001516001600160a01b0316336001600160a01b0316141561170e5760405162461bcd60e51b815260040161082a9061495b565b60075460405163f7434ea960e01b81526000916001600160a01b03169063f7434ea99061174090600890600401613fcc565b60206040518083038186803b15801561175857600080fd5b505afa15801561176c573d6000803e3d6000fd5b505050506040513d601f19601f820116820180604052508101906117909190613c2c565b9050803410156117b25760405162461bcd60e51b815260040161082a906146b7565b336000908152600160205260409020600281015442116117e45760405162461bcd60e51b815260040161082a90614670565b600181015481546060870151919003908110156118b457600d5460608701516040516323b872dd60e01b81526001600160a01b03909216916323b872dd9161183791339130919087900390600401613f4a565b602060405180830381600087803b15801561185157600080fd5b505af1158015611865573d6000803e3d6000fd5b505050506040513d601f19601f820116820180604052508101906118899190613a06565b6118a55760405162461bcd60e51b815260040161082a906148a7565b60608601518254908290030182555b604080870180516001600160a01b0390811660009081526001602081905293812060608b01518786018054820190558186018054820190559351600d5491959294611908948b943394909116903490612513565b905080600801547f61606860eb6c87306811e2695215385101daab53bd6ab4e9f9049aead9363c7d600f8a60000151604051602001610c57929190613dd1565b60036020526000908152604090205460ff1681565b6000546001600160a01b031690565b60105481565b600a5481565b600f805460408051602060026001851615610100026000190190941693909304601f810184900484028201840190925281815292918301828280156119fe5780601f106119d3576101008083540402835291602001916119fe565b820191906000526020600020905b8154815290600101906020018083116119e157829003601f168201915b505050505081565b600060018383600001518460200151856040015160405160008152602001604052604051611a379493929190613f9b565b6020604051602081039080840390855afa158015611a59573d6000803e3d6000fd5b5050604051601f190151949350505050565b600d546001600160a01b031681565b600b5481565b6009805460408051602060026001851615610100026000190190941693909304601f810184900484028201840190925281815292918301828280156119fe5780601f106119d3576101008083540402835291602001916119fe565b60066020526000908152604090205481565b600081815260056020526040808220600754915163f7434ea960e01b81529092916001600160a01b03169063f7434ea990611b2d90600890600401613fcc565b60206040518083038186803b158015611b4557600080fd5b505afa158015611b59573d6000803e3d6000fd5b505050506040513d601f19601f82011682018060405250810190611b7d9190613c2c565b600a83015490915060ff166004811115611b9357fe5b6000108015611bb457506003600a83015460ff166004811115611bb257fe5b105b611bd05760405162461bcd60e51b815260040161082a9061402a565b81546001600160a01b0316331480611bf4575060018201546001600160a01b031633145b611c105760405162461bcd60e51b815260040161082a9061453b565b81546001600160a01b0316331415611cb857600482018054340190819055811115611c4d5760405162461bcd60e51b815260040161082a90614295565b4260078301556005820154811115611cae57600a8201805460ff1916600217905560405183907ff972c77402d0ee7d94e4b2ea7cee21a3d392136bf7c9b72d2dc85e2a4d24a9cf90611ca190600190613fdf565b60405180910390a2611652565b6116528382613271565b600582018054340190819055811115611ce35760405162461bcd60e51b815260040161082a90614295565b4260078301556004820154811115611d4457600a8201805460ff1916600117905560405183907ff972c77402d0ee7d94e4b2ea7cee21a3d392136bf7c9b72d2dc85e2a4d24a9cf90611d3790600090613fdf565b60405180910390a2610e1e565b610e1e8382613271565b61271081565b611d5d826124f2565b835114611d7c5760405162461bcd60e51b815260040161082a9061412d565b81602001516001600160a01b0316336001600160a01b031614611db15760405162461bcd60e51b815260040161082a906142e6565b6000611dbc84612505565b60008181526004602052604090209091506001600282015460ff166005811115611de257fe5b14611dff5760405162461bcd60e51b815260040161082a9061426e565b8460e001516201518002816000015401421115611e2e5760405162461bcd60e51b815260040161082a906145b5565b8460800151831115611e525760405162461bcd60e51b815260040161082a90614572565b828160010181905550817fe18fe462037a62d3500e07f2b32d9e16a69cee44850c9b7dcef7d856087e4aff84604051611e8b9190613f92565b60405180910390a25050505050565b611ea261326d565b6000546001600160a01b03908116911614611ecf5760405162461bcd60e51b815260040161082a906144cf565b6001600160a01b0381166000908152600c602052604090205460ff1615611ef557600080fd5b6001600160a01b0381166000818152600c6020526040808220805460ff19166001179055517f52133ca86a0b20d025852c627bd9d5c8e6037a237d7ef7d22f399ae642e6b9b49190a250565b600d546040516323b872dd60e01b81526001600160a01b03909116906323b872dd90611f7590339030908690600401613f4a565b602060405180830381600087803b158015611f8f57600080fd5b505af1158015611fa3573d6000803e3d6000fd5b505050506040513d601f19601f82011682018060405250810190611fc79190613a06565b611fd057600080fd5b3360008181526001602052604090819020805484019055517fbc7c8a4d8049a3f99a02f2a20640c206a2e4d3f2fa54fd20da9f01fda3620cda90612015908490613f92565b60405180910390a250565b60008181526005602052604090206002600682015460ff16600281111561204357fe5b146120605760405162461bcd60e51b815260040161082a90614777565b60075460098083015460405163093225f160e31b81526001600160a01b03909316926349912f88923492612099929091906004016149a9565b6000604051808303818588803b1580156120b257600080fd5b505af11580156120c6573d6000803e3d6000fd5b50505050505050565b6008805460408051602060026001851615610100026000190190941693909304601f810184900484028201840190925281815292918301828280156119fe5780601f106119d3576101008083540402835291602001916119fe565b61213261326d565b6000546001600160a01b0390811691161461215f5760405162461bcd60e51b815260040161082a906144cf565b6001600160a01b0381166121855760405162461bcd60e51b815260040161082a9061415c565b600080546040516001600160a01b03808516939216917f8be0079c531659141344cd1fd0a4f28419497f9722a3daafe3b4186f6b6457e091a3600080546001600160a01b0319166001600160a01b0392909216919091179055565b600082815260056020526040902080546001600160a01b0316331480612212575060018101546001600160a01b031633145b61222e5760405162461bcd60e51b815260040161082a90614907565b6002600682015460ff16600281111561224357fe5b146122605760405162461bcd60e51b815260040161082a90614621565b6004600a82015460ff16600481111561227557fe5b106122925760405162461bcd60e51b815260040161082a906140db565b60088101546007546040513392916001600160a01b0316907fdccf2f8b2cc26eafcd61905cba744cff4b81d14740725f6376390dc6298a6a3c906122d7908790613fb9565b60405180910390a4505050565b6122ed816124f2565b82511461230c5760405162461bcd60e51b815260040161082a9061412d565b600061231783612505565b60008181526004602052604090209091506001600282015460ff16600581111561233d57fe5b148061235a575060028082015460ff16600581111561235857fe5b145b8061237757506003600282015460ff16600581111561237557fe5b145b6123935760405162461bcd60e51b815260040161082a9061426e565b60006001600283015460ff1660058111156123aa57fe5b14806123c857506003600283015460ff1660058111156123c657fe5b145b1561240057428560e001516201518002836000015401116123fb5760405162461bcd60e51b815260040161082a906141a2565b612435565b428460a0015162015180028360000154011161242e5760405162461bcd60e51b815260040161082a906141a2565b5060c08301515b600061244986608001518760a00151612622565b90506124798487602001518760200151896040015189604001518b60600151878a600101548d608001518b612647565b505050505050565b60008061248d846124f2565b905061249a8185856134ae565b6124b65760405162461bcd60e51b815260040161082a906148de565b9392505050565b6000806124c984612505565b90506124d68185856135e1565b6124b65760405162461bcd60e51b815260040161082a90614750565b6000610c8f61250083613215565b6136fc565b6000610c8f6125008361372c565b600087815260056020526040902080546001600160a01b038089166001600160a01b031992831617835560018084018054928a1692909316919091179091556002808301879055600483018054860190556006830180548593919260ff199091169190849081111561258157fe5b0217905550600182600281111561259457fe5b14156125b8576003810180546001600160a01b0319166001600160a01b0386161790555b600a8101805460ff19166002179055426007820155600e80546001818101909255600883015560405189917ff972c77402d0ee7d94e4b2ea7cee21a3d392136bf7c9b72d2dc85e2a4d24a9cf9161260f9190613fdf565b60405180910390a2979650505050505050565b6000828201838110156124b65760405162461bcd60e51b815260040161082a90614200565b6001600160a01b03851661265a57600080fd5b6001600160a01b0385166000908152600c602052604090205460ff1661267f57600080fd5b60008a815260046020526040812060028101805460ff191660051790554290556126a98585613766565b6010549091501561276b5760006126cd6126c5601054846137a8565b6127106137e2565b90506126d98282613766565b60125460405163a9059cbb60e01b81529193506001600160a01b03808a169263a9059cbb9261270e9216908590600401613f6e565b602060405180830381600087803b15801561272857600080fd5b505af115801561273c573d6000803e3d6000fd5b505050506040513d601f19601f820116820180604052508101906127609190613a06565b61276957600080fd5b505b600060115411801561278f5750866001600160a01b0316896001600160a01b031614155b1561283f5760006127a56126c5601154846137a8565b90506127b18282613766565b60405163a9059cbb60e01b81529092506001600160a01b0388169063a9059cbb906127e2908b908590600401613f6e565b602060405180830381600087803b1580156127fc57600080fd5b505af1158015612810573d6000803e3d6000fd5b505050506040513d601f19601f820116820180604052508101906128349190613a06565b61283d57600080fd5b505b60008311801561285757506001600160a01b03881615155b1561290557600061286b6126c585846137a8565b90506128778282613766565b60405163a9059cbb60e01b81529092506001600160a01b0388169063a9059cbb906128a8908c908590600401613f6e565b602060405180830381600087803b1580156128c257600080fd5b505af11580156128d6573d6000803e3d6000fd5b505050506040513d601f19601f820116820180604052508101906128fa9190613a06565b61290357600080fd5b505b81156129b657600061291a6126c584846137a8565b90506129268282613766565b60405163a9059cbb60e01b81529092506001600160a01b0388169063a9059cbb90612959908e90858a0190600401613f6e565b602060405180830381600087803b15801561297357600080fd5b505af1158015612987573d6000803e3d6000fd5b505050506040513d601f19601f820116820180604052508101906129ab9190613a06565b6129b457600080fd5b505b8015612a455760405163a9059cbb60e01b81526001600160a01b0387169063a9059cbb906129ea908c908590600401613f6e565b602060405180830381600087803b158015612a0457600080fd5b505af1158015612a18573d6000803e3d6000fd5b505050506040513d601f19601f82011682018060405250810190612a3c9190613a06565b612a4557600080fd5b6040518b907f24196ec40f90671b7144e716978686b4f3c7d6b00b23da3971ef2b52af27d87f90600090a25050505050505050505050565b6002811115612a9e5760405162461bcd60e51b815260040161082a906141d7565b6002820180546004808501805460058701805460009687905592869055859055600a8701805460ff191690931790925560016020819052808701546001600160a01b0316855292939192909190851415612bf75785546040516001600160a01b03909116908490612b0e90613e77565b60006040518083038185875af1925050503d8060008114612b4b576040519150601f19603f3d011682016040523d82523d6000602084013e612b50565b606091505b50506001878101546001600160a01b03908116600090815260209290925260408083208054899003905589548216835290912080546002808904909101909155600d549293509116906342966c6890865b0486036040518263ffffffff1660e01b8152600401612bc09190613f92565b600060405180830381600087803b158015612bda57600080fd5b505af1158015612bee573d6000803e3d6000fd5b50505050612479565b6002851415612cc75760018601546040516001600160a01b03909116908390612c1f90613e77565b60006040518083038185875af1925050503d8060008114612c5c576040519150601f19603f3d011682016040523d82523d6000602084013e612c61565b606091505b5050600a5487546001600160a01b039081166000908152600160208190526040808320429095016002958601558b548416835280832080548b90039055908b01548316825290208054838904019055600d5492935091909116906342966c689086612ba1565b600186015460405160028504916001600160a01b03169082850390612ceb90613e77565b60006040518083038185875af1925050503d8060008114612d28576040519150601f19603f3d011682016040523d82523d6000602084013e612d2d565b606091505b505087546040519193506001600160a01b0316908290612d4c90613e77565b60006040518083038185875af1925050503d8060008114612d89576040519150601f19603f3d011682016040523d82523d6000602084013e612d8e565b606091505b505087546001600160a01b03908116600090815260016020819052604080832080546002909b049a8b900390559a0154909116815297909720805495909503909455505050505050565b6002811115612df95760405162461bcd60e51b815260040161082a906141d7565b6002820180546004808501805460058701805460009687905592869055859055600a8701805460ff191690931790925591929091906001851415612f435785546040516001600160a01b03909116908490612e5390613e77565b60006040518083038185875af1925050503d8060008114612e90576040519150601f19603f3d011682016040523d82523d6000602084013e612e95565b606091505b50506003870154875460405163a9059cbb60e01b81529293506001600160a01b039182169263a9059cbb92612ed09216908890600401613f6e565b602060405180830381600087803b158015612eea57600080fd5b505af1158015612efe573d6000803e3d6000fd5b505050506040513d601f19601f82011682018060405250810190612f229190613a06565b612f3e5760405162461bcd60e51b815260040161082a90614399565b612479565b6002851415612feb5760018601546040516001600160a01b03909116908390612f6b90613e77565b60006040518083038185875af1925050503d8060008114612fa8576040519150601f19603f3d011682016040523d82523d6000602084013e612fad565b606091505b50506003870154600188015460405163a9059cbb60e01b81529293506001600160a01b039182169263a9059cbb92612ed09216908890600401613f6e565b600186015460405160028504916001600160a01b0316908285039061300f90613e77565b60006040518083038185875af1925050503d806000811461304c576040519150601f19603f3d011682016040523d82523d6000602084013e613051565b606091505b505087546040519193506001600160a01b031690829061307090613e77565b60006040518083038185875af1925050503d80600081146130ad576040519150601f19603f3d011682016040523d82523d6000602084013e6130b2565b606091505b50506003880154600189015460405163a9059cbb60e01b815292945060028804926001600160a01b039283169263a9059cbb926130f892911690858b0390600401613f6e565b602060405180830381600087803b15801561311257600080fd5b505af1158015613126573d6000803e3d6000fd5b505050506040513d601f19601f8201168201806040525081019061314a9190613a06565b6131665760405162461bcd60e51b815260040161082a90614399565b6003880154885460405163a9059cbb60e01b81526001600160a01b039283169263a9059cbb9261319d929116908590600401613f6e565b602060405180830381600087803b1580156131b757600080fd5b505af11580156131cb573d6000803e3d6000fd5b505050506040513d601f19601f820116820180604052508101906131ef9190613a06565b61320b5760405162461bcd60e51b815260040161082a90614399565b5050505050505050565b80516020808301516040808501516060860151608087015160a088015160c089015160e08a0151955160009961324f999098979101613d86565b60408051808303601f19018152919052805160209091012092915050565b3390565b6000828152600560205260409020600a810180546003919060ff191660018302179055506007546000906001600160a01b031663c13517e184600280600687015460ff1660028111156132c057fe5b146132cc5760086132cf565b60095b6040518463ffffffff1660e01b81526004016132ec929190614a14565b6020604051808303818588803b15801561330557600080fd5b505af1158015613319573d6000803e3d6000fd5b50505050506040513d601f19601f8201168201806040525081019061333e9190613c2c565b600081815260066020526040908190208690556007546008850154915192935083926001600160a01b03909116917f74baab670a4015ab2f1b467c5252a96141a2573f2908e58a92081e80d3cfde3d9161339a919081906149ca565b60405180910390a3600083836004015411156134245760048301805490859055835460405191869003916001600160a01b039091169082906133db90613e77565b60006040518083038185875af1925050503d8060008114613418576040519150601f19603f3d011682016040523d82523d6000602084013e61341d565b606091505b5090925050505b83836005015411156134a75760058301805490859055600184015460405191869003916001600160a01b0390911690829061345e90613e77565b60006040518083038185875af1925050503d806000811461349b576040519150601f19603f3d011682016040523d82523d6000602084013e6134a0565b606091505b5090925050505b5050505050565b60008260e001516000141580156134c857508260e0015142115b156134d5575060006124b6565b6040808401516001600160a01b031660009081526001602081905291902060608501519181015481549192910310156135125760009150506124b6565b60008581526002602052604090205460ff16156135335760009150506124b6565b60008581526003602052604090205460ff16156135545760019150506124b6565b83604001516001600160a01b0316600186856000015186602001518760400151604051600081526020016040526040516135919493929190613f9b565b6020604051602081039080840390855afa1580156135b3573d6000803e3d6000fd5b505050602060405103516001600160a01b031614156135d65760019150506124b6565b506000949350505050565b60008260c001516000141580156135fb57508260c0015142115b15613608575060006124b6565b60608301516001600160a01b03166000908152600c602052604090205460ff16613634575060006124b6565b60008481526002602052604090205460ff1615613653575060006124b6565b60008481526003602052604090205460ff1615613672575060016124b6565b82602001516001600160a01b0316600185846000015185602001518660400151604051600081526020016040526040516136af9493929190613f9b565b6020604051602081039080840390855afa1580156136d1573d6000803e3d6000fd5b505050602060405103516001600160a01b031614156136f2575060016124b6565b5060009392505050565b60008160405160200161370f9190613e46565b604051602081830303815290604052805190602001209050919050565b80516020808301516040808501516060860151608087015160a088015160c089015160e08a0151955160009961324f999098979101613d33565b60006124b683836040518060400160405280601e81526020017f536166654d6174683a207375627472616374696f6e206f766572666c6f770000815250613824565b6000826137b757506000610c8f565b828202828482816137c457fe5b04146124b65760405162461bcd60e51b815260040161082a9061444d565b60006124b683836040518060400160405280601a81526020017f536166654d6174683a206469766973696f6e206279207a65726f000000000000815250613850565b600081848411156138485760405162461bcd60e51b815260040161082a9190613fb9565b505050900390565b600081836138715760405162461bcd60e51b815260040161082a9190613fb9565b50600083858161387d57fe5b0495945050505050565b8035610c8f81614adc565b60006101008083850312156138a5578182fd5b6138ae81614aa9565b9150508135815260208201356138c381614adc565b602082015260408201356138d681614adc565b80604083015250606082013560608201526080820135608082015260a082013560a082015260c082013560c082015260e082013560e082015292915050565b6000610100808385031215613928578182fd5b61393181614aa9565b91505081358152602082013561394681614adc565b6020820152604082013561395981614adc565b604082015261396b8360608401613887565b60608201526080820135608082015260a082013560a082015260c082013560c082015260e082013560e082015292915050565b6000606082840312156139af578081fd5b6139b96060614aa9565b9050813560ff811681146139cc57600080fd5b80825250602082013560208201526040820135604082015292915050565b6000602082840312156139fb578081fd5b81356124b681614adc565b600060208284031215613a17578081fd5b815180151581146124b6578182fd5b600060208284031215613a37578081fd5b5035919050565b60008060408385031215613a50578081fd5b8235915060208084013567ffffffffffffffff80821115613a6f578384fd5b81860187601f820112613a80578485fd5b8035925081831115613a90578485fd5b613aa2601f8401601f19168501614aa9565b91508282528784848301011115613ab7578485fd5b8284820185840137509081019091019190915290939092509050565b60008060808385031215613ae5578182fd5b82359150613af6846020850161399e565b90509250929050565b60006101008284031215613b11578081fd5b6124b68383613892565b6000806101608385031215613b2e578182fd5b613b388484613892565b9150613af684610100850161399e565b60006101008284031215613b5a578081fd5b6124b68383613915565b6000806102008385031215613b77578182fd5b613b818484613915565b9150613af6846101008501613892565b60008060006102208486031215613ba6578081fd5b613bb08585613915565b9250613bc0856101008601613892565b915061020084013590509250925092565b6000806000806102c08587031215613be7578182fd5b613bf18686613915565b9350613c0186610100870161399e565b9250613c11866101608701613892565b9150613c2186610260870161399e565b905092959194509250565b600060208284031215613c3d578081fd5b5051919050565b60008060408385031215613c56578182fd5b50508035926020909101359150565b60008151808452815b81811015613c8a57602081850181015186830182015201613c6e565b81811115613c9b5782602083870101525b50601f01601f19169290920160200192915050565b60008154600180821660008114613cce5760018114613cec57613d2a565b60028304607f16865260ff1983166020870152604086019350613d2a565b60028304808752613cfc86614ad0565b60005b82811015613d205781546020828b0101528482019150602081019050613cff565b8801602001955050505b50505092915050565b9788526bffffffffffffffffffffffff19606097881b811660208a015295871b861660348901529390951b9093166048860152605c850152607c840191909152609c83019190915260bc82015260dc0190565b9788526bffffffffffffffffffffffff19606097881b811660208a01529590961b909416603487015260488601929092526068850152608884015260a883015260c882015260e80190565b6000808454600180821660008114613df05760018114613e0757613e36565b60ff198316865260028304607f1686019350613e36565b600283048886526020808720875b83811015613e2e5781548a820152908501908201613e15565b505050860193505b5050509283525050602001919050565b7f19457468657265756d205369676e6564204d6573736167653a0a3332000000008152601c810191909152603c0190565b90565b6001600160a01b0391909116815260200190565b6001600160a01b03978816815295871660208701529390951660408501526060840191909152608083015260a082019290925260c081019190915260e00190565b6001600160a01b038c811682528b81166020830152604082018b9052891660608201526080810188905260a08101879052610160810160038710613f0f57fe5b8660c08301528560e0830152846101008301528361012083015260058310613f3357fe5b826101408301529c9b505050505050505050505050565b6001600160a01b039384168152919092166020820152604081019190915260600190565b6001600160a01b03929092168252602082015260400190565b901515815260200190565b90815260200190565b93845260ff9290921660208401526040830152606082015260800190565b6000602082526124b66020830184613c65565b6000602082526124b66020830184613cb0565b6020810160028310613fed57fe5b91905290565b6020808252601c908201527f596f7520646f6e2774206861766520656e6f67687420746f6b656e7300000000604082015260600190565b60208082526021908201527f446973707574652068617320616c7265616479206265656e20637265617465646040820152601760f91b606082015260800190565b60208082526026908201527f54686520646973707574652068617320616c7265616479206265656e2072657360408201526537b63b32b21760d11b606082015260800190565b60208082526010908201526f105b1c9958591e48185c1c1c9bdd995960821b604082015260600190565b60208082526032908201527f4d757374206e6f742073656e642065766964656e63652069662074686520646960408201527139b83aba329034b9903932b9b7b63b32b21760711b606082015260800190565b602080825260159082015274131a5cdd1a5b99c81a5cdb89dd0818dbdc9c9958dd605a1b604082015260600190565b60208082526026908201527f4f776e61626c653a206e6577206f776e657220697320746865207a65726f206160408201526564647265737360d01b606082015260800190565b6020808252818101527f54696d656f75742074696d6520686173206e6f7420706173736564207965742e604082015260600190565b6020808252600f908201526e24b73b30b634b210393ab634b7339760891b604082015260600190565b6020808252601b908201527f536166654d6174683a206164646974696f6e206f766572666c6f770000000000604082015260600190565b6020808252601c908201527f57617272616e74792074696d65206861732074696d6564206f75742e00000000604082015260600190565b6020808252600d908201526c496e76616c696420706861736560981b604082015260600190565b60208082526031908201527f5468652070726f7365637574696f6e20666565206d75737420636f7665722061604082015270393134ba3930ba34b7b71031b7b9ba399760791b606082015260800190565b6020808252601e908201527f596f75206d75737420626520746865206c697374696e672073656c6c65720000604082015260600190565b6020808252601b908201527f596f7520646f6e2774206861766520656e6f6768742066756e64730000000000604082015260600190565b60208082526025908201527f44697370757465206973206e6f742077616974696e6720666f7220616e79207060408201526430b93a3c9760d91b606082015260800190565b60208082526026908201527f54686520607472616e73666572602066756e6374696f6e206d757374206e6f74604082015265103330b4b61760d11b606082015260800190565b60208082526017908201527f4f6e6c792062757965722063616e20646973707574652e000000000000000000604082015260600190565b60208082526018908201527f4f6e6c792073656c6c65722063616e20646973707574652e0000000000000000604082015260600190565b60208082526021908201527f536166654d6174683a206d756c7469706c69636174696f6e206f766572666c6f6040820152607760f81b606082015260800190565b60208082526021908201527f4c697374696e672068617320616c7265616479206265656e207265706f7274656040820152601960fa1b606082015260800190565b6020808252818101527f4f776e61626c653a2063616c6c6572206973206e6f7420746865206f776e6572604082015260600190565b6020808252601a908201527f53656e646572206973206e6f74206f72646572207369676e6572000000000000604082015260600190565b6020808252601e908201527f5468652063616c6c6572206d757374206265207468652073656e6465722e0000604082015260600190565b60208082526023908201527f526566756e642063616e27742062652067726561746572207468616e20746f7460408201526230b61760e91b606082015260800190565b6020808252818101527f436f6e6669726d6174696f6e2074696d65206861732074696d6564206f75742e604082015260600190565b6020808252601c908201527f53656e646572206973206e6f74206c697374696e67207369676e657200000000604082015260600190565b6020808252602f908201527f45766964656e63657320617265206f6e6c7920616c6c6f77656420666f72206f60408201526e393232b939903234b9b83aba32b99760891b606082015260800190565b60208082526027908201527f596f7520617265206e6f7420616c6c6f77656420746f207265706f7274206c6960408201526639ba34b733b99760c91b606082015260800190565b6020808252602a908201527f56616c7565206d7573742062652067726561746572207468616e2061726269746040820152691c985d1a5bdb90dbdcdd60b21b606082015260800190565b6020808252602f908201527f596f75206d7573742062652073656c6c6572206f7220627579657220696e207460408201526e3432903934b3b43a10383430b9b29760891b606082015260800190565b6020808252600d908201526c24b73b30b634b21037b93232b960991b604082015260600190565b6020808252602d908201527f41707065616c7320617265206f6e6c7920616c6c6f77656420666f72206f726460408201526c32b939903234b9b83aba32b99760991b606082015260800190565b6020808252601190820152702cb7ba9036bab9ba10313290313abcb2b960791b604082015260600190565b6020808252818101527f4f7264657220616c726561647920686173206265656e2070726f636573736564604082015260600190565b60208082526022908201527f5468652063616c6c6572206d757374206265207468652061726269747261746f604082015261391760f11b606082015260800190565b60208082526021908201527f4661696c656420746f207472616e7366657220627579657227732066756e64736040820152601760f91b606082015260800190565b60208082526019908201527f556e61626c6520746f207472616e7366657220746f6b656e7300000000000000604082015260600190565b6020808252600f908201526e496e76616c6964206c697374696e6760881b604082015260600190565b60208082526034908201527f5468652063616c6c6572206d757374206265207468652070726f73656375746960408201527337b71037b9103a3432903232b332b73230b73a1760611b606082015260800190565b6020808252602e908201527f596f752063616e2774207265706f727420796f757273656c662e20557365206360408201526d616e63656c4c697374696e67282960901b606082015260800190565b6000838252604060208301526149c26040830184613cb0565b949350505050565b918252602082015260400190565b8381526020810183905260608101600683106149f057fe5b826040830152949350505050565b9283526020830191909152604082015260600190565b60006040820160ff851683526020604081850152828554600180821660008114614a455760018114614a6357614a9b565b60028304607f16865260ff1983166060890152608088019350614a9b565b60028304808752614a738a614ad0565b885b82811015614a915781548b820160600152908401908701614a75565b8a01606001955050505b509198975050505050505050565b60405181810167ffffffffffffffff81118282101715614ac857600080fd5b604052919050565b60009081526020902090565b6001600160a01b0381168114614af157600080fd5b5056fea26469706673582212206247ab57ce5c532035b7581c7e574b0c0a6123e985dc5b739a55e31d8f54bb2764736f6c63430006080033",
  "immutableReferences": {},
  "source": "// SPDX-License-Identifier: MIT\npragma solidity ^0.6.0;\npragma experimental ABIEncoderV2;\n\nimport \"./Dagora.sol\";\n\ncontract TestDagora is Dagora {\n\n    constructor(address _arbitrator,\n                address _token,\n                address _protocolFeeRecipient,\n                uint _feeTimeoutDays,\n                uint _blacklistTimeoutDays,\n                uint _protocolFeePercentage,\n                uint _tokenOwnerFeePercentage,\n                bytes memory _reportExtraData,\n                bytes memory _orderExtraData,\n                string memory _ipfsDomain)\n                Dagora(_arbitrator,\n                        _token,\n                        _protocolFeeRecipient,\n                        _feeTimeoutDays,\n                        _blacklistTimeoutDays,\n                        _protocolFeePercentage,\n                        _tokenOwnerFeePercentage,\n                        _reportExtraData,\n                        _orderExtraData,\n                        _ipfsDomain) public {\n    }\n\n    function _requireValidListing(Listing memory _listing, Sig memory sig)\n        public\n        view\n        returns (bool)\n    {\n        return requireValidListing(_listing, sig) != 0x0;\n    }\n\n    function _hashListing(Listing memory listing)\n        public\n        pure\n        returns (bytes32 hash)\n    {\n        return hashListing(listing);\n    }\n\n    function _hashListingToSign(Listing memory listing)\n        public\n        pure\n        returns (bytes32 hash)\n    {\n        return hashListingToSign(listing);\n    }\n\n    function _ecrecover(bytes32 msgHash, Sig memory sig) public pure returns (address) {\n        return ecrecover(msgHash, sig.v, sig.r, sig.s);\n    }\n}",
  "sourcePath": "/home/gustavo/dagora/contracts/marketplace/TestDagora.sol",
  "compiler": {
    "name": "solc",
    "version": "0.6.8+commit.0bbfe453.Emscripten.clang"
  },
  "schemaVersion": "3.2.0",
  "updatedAt": "2020-05-28T06:05:04.735Z",
  "networkType": "ethereum",
  "devdoc": {
    "methods": {
      "appeal(bytes32)": {
        "details": "Appeal an appealable ruling. UNTRUSTED. Transfer the funds to the arbitrator. Note that no checks are required as the checks are done by the arbitrator.",
        "params": {
          "_hash": "The hash of the order."
        }
      },
      "owner()": {
        "details": "Returns the address of the current owner."
      },
      "renounceOwnership()": {
        "details": "Leaves the contract without owner. It will not be possible to call `onlyOwner` functions anymore. Can only be called by the current owner.     * NOTE: Renouncing ownership will leave the contract without an owner, thereby removing any functionality that is only available to the owner."
      },
      "submitEvidence(bytes32,string)": {
        "details": "Submit a reference to evidence. EVENT.",
        "params": {
          "_evidence": "A link to an evidence using its URI.",
          "_hash": "The hash of the order."
        }
      },
      "transferOwnership(address)": {
        "details": "Transfers ownership of the contract to a new account (`newOwner`). Can only be called by the current owner."
      }
    }
  },
  "userdoc": {
    "methods": {}
  }
}