{
  "contractName": "TestDagora",
  "abi": [
    {
      "inputs": [
        {
          "internalType": "address",
          "name": "_arbitrator",
          "type": "address"
        },
        {
          "internalType": "address",
          "name": "_token",
          "type": "address"
        },
        {
          "internalType": "address",
          "name": "_protocolFeeRecipient",
          "type": "address"
        },
        {
          "internalType": "uint256",
          "name": "_feeTimeoutDays",
          "type": "uint256"
        },
        {
          "internalType": "uint256",
          "name": "_blacklistTimeoutDays",
          "type": "uint256"
        },
        {
          "internalType": "uint256",
          "name": "_protocolFeePercentage",
          "type": "uint256"
        },
        {
          "internalType": "uint256",
          "name": "_tokenOwnerFeePercentage",
          "type": "uint256"
        },
        {
          "internalType": "bytes",
          "name": "_reportExtraData",
          "type": "bytes"
        },
        {
          "internalType": "bytes",
          "name": "_orderExtraData",
          "type": "bytes"
        },
        {
          "internalType": "string",
          "name": "_ipfsDomain",
          "type": "string"
        },
        {
          "internalType": "address",
          "name": "_forwarder",
          "type": "address"
        }
      ],
      "stateMutability": "nonpayable",
      "type": "constructor"
    },
    {
      "anonymous": false,
      "inputs": [
        {
          "indexed": true,
          "internalType": "contract Arbitrator",
          "name": "_arbitrator",
          "type": "address"
        },
        {
          "indexed": true,
          "internalType": "uint256",
          "name": "_disputeID",
          "type": "uint256"
        },
        {
          "indexed": false,
          "internalType": "uint256",
          "name": "_metaEvidenceID",
          "type": "uint256"
        },
        {
          "indexed": false,
          "internalType": "uint256",
          "name": "_evidenceGroupID",
          "type": "uint256"
        }
      ],
      "name": "Dispute",
      "type": "event"
    },
    {
      "anonymous": false,
      "inputs": [
        {
          "indexed": true,
          "internalType": "contract Arbitrator",
          "name": "_arbitrator",
          "type": "address"
        },
        {
          "indexed": true,
          "internalType": "uint256",
          "name": "_evidenceGroupID",
          "type": "uint256"
        },
        {
          "indexed": true,
          "internalType": "address",
          "name": "_party",
          "type": "address"
        },
        {
          "indexed": false,
          "internalType": "string",
          "name": "_evidence",
          "type": "string"
        }
      ],
      "name": "Evidence",
      "type": "event"
    },
    {
      "anonymous": false,
      "inputs": [
        {
          "indexed": true,
          "internalType": "bytes32",
          "name": "_hash",
          "type": "bytes32"
        },
        {
          "indexed": false,
          "internalType": "enum Dagora.Party",
          "name": "_party",
          "type": "uint8"
        }
      ],
      "name": "HasToPayFee",
      "type": "event"
    },
    {
      "anonymous": false,
      "inputs": [
        {
          "indexed": true,
          "internalType": "bytes32",
          "name": "hash",
          "type": "bytes32"
        }
      ],
      "name": "ListingApproved",
      "type": "event"
    },
    {
      "anonymous": false,
      "inputs": [
        {
          "indexed": true,
          "internalType": "bytes32",
          "name": "hash",
          "type": "bytes32"
        }
      ],
      "name": "ListingCancelled",
      "type": "event"
    },
    {
      "anonymous": false,
      "inputs": [
        {
          "indexed": true,
          "internalType": "uint256",
          "name": "_metaEvidenceID",
          "type": "uint256"
        },
        {
          "indexed": false,
          "internalType": "string",
          "name": "_evidence",
          "type": "string"
        }
      ],
      "name": "MetaEvidence",
      "type": "event"
    },
    {
      "anonymous": false,
      "inputs": [
        {
          "indexed": true,
          "internalType": "bytes32",
          "name": "hash",
          "type": "bytes32"
        }
      ],
      "name": "OrderApproved",
      "type": "event"
    },
    {
      "anonymous": false,
      "inputs": [
        {
          "indexed": true,
          "internalType": "bytes32",
          "name": "hash",
          "type": "bytes32"
        }
      ],
      "name": "OrderCancelled",
      "type": "event"
    },
    {
      "anonymous": false,
      "inputs": [
        {
          "indexed": true,
          "internalType": "address",
          "name": "previousOwner",
          "type": "address"
        },
        {
          "indexed": true,
          "internalType": "address",
          "name": "newOwner",
          "type": "address"
        }
      ],
      "name": "OwnershipTransferred",
      "type": "event"
    },
    {
      "anonymous": false,
      "inputs": [
        {
          "indexed": true,
          "internalType": "contract Arbitrator",
          "name": "_arbitrator",
          "type": "address"
        },
        {
          "indexed": true,
          "internalType": "uint256",
          "name": "_disputeID",
          "type": "uint256"
        },
        {
          "indexed": false,
          "internalType": "uint256",
          "name": "_ruling",
          "type": "uint256"
        }
      ],
      "name": "Ruling",
      "type": "event"
    },
    {
      "anonymous": false,
      "inputs": [
        {
          "indexed": true,
          "internalType": "address",
          "name": "sender",
          "type": "address"
        },
        {
          "indexed": false,
          "internalType": "uint256",
          "name": "value",
          "type": "uint256"
        }
      ],
      "name": "TokenDeposited",
      "type": "event"
    },
    {
      "anonymous": false,
      "inputs": [
        {
          "indexed": true,
          "internalType": "address",
          "name": "addr",
          "type": "address"
        }
      ],
      "name": "TokenGranted",
      "type": "event"
    },
    {
      "anonymous": false,
      "inputs": [
        {
          "indexed": true,
          "internalType": "address",
          "name": "addr",
          "type": "address"
        }
      ],
      "name": "TokenRevoked",
      "type": "event"
    },
    {
      "anonymous": false,
      "inputs": [
        {
          "indexed": true,
          "internalType": "address",
          "name": "sender",
          "type": "address"
        },
        {
          "indexed": false,
          "internalType": "uint256",
          "name": "value",
          "type": "uint256"
        }
      ],
      "name": "TokenWithdrawed",
      "type": "event"
    },
    {
      "anonymous": false,
      "inputs": [
        {
          "indexed": true,
          "internalType": "bytes32",
          "name": "hash",
          "type": "bytes32"
        },
        {
          "indexed": true,
          "internalType": "address",
          "name": "buyer",
          "type": "address"
        },
        {
          "indexed": true,
          "internalType": "address",
          "name": "seller",
          "type": "address"
        },
        {
          "indexed": false,
          "internalType": "address",
          "name": "stakeOwner",
          "type": "address"
        },
        {
          "indexed": false,
          "internalType": "address",
          "name": "commissioner",
          "type": "address"
        },
        {
          "indexed": false,
          "internalType": "contract ERC20",
          "name": "token",
          "type": "address"
        },
        {
          "indexed": false,
          "internalType": "uint256",
          "name": "total",
          "type": "uint256"
        },
        {
          "indexed": false,
          "internalType": "uint256",
          "name": "commissionPercentage",
          "type": "uint256"
        },
        {
          "indexed": false,
          "internalType": "uint256",
          "name": "cashbackPercentage",
          "type": "uint256"
        },
        {
          "indexed": false,
          "internalType": "uint256",
          "name": "confirmationTimeout",
          "type": "uint256"
        }
      ],
      "name": "TransactionCreated",
      "type": "event"
    },
    {
      "anonymous": false,
      "inputs": [
        {
          "indexed": true,
          "internalType": "bytes32",
          "name": "hash",
          "type": "bytes32"
        }
      ],
      "name": "TransactionFinalized",
      "type": "event"
    },
    {
      "anonymous": false,
      "inputs": [
        {
          "indexed": true,
          "internalType": "bytes32",
          "name": "hash",
          "type": "bytes32"
        },
        {
          "indexed": false,
          "internalType": "uint256",
          "name": "value",
          "type": "uint256"
        }
      ],
      "name": "TransactionRefunded",
      "type": "event"
    },
    {
      "anonymous": false,
      "inputs": [
        {
          "indexed": true,
          "internalType": "bytes32",
          "name": "hash",
          "type": "bytes32"
        }
      ],
      "name": "WarrantyClaimed",
      "type": "event"
    },
    {
      "inputs": [],
      "name": "INVERSE_BASIS_POINT",
      "outputs": [
        {
          "internalType": "uint256",
          "name": "",
          "type": "uint256"
        }
      ],
      "stateMutability": "view",
      "type": "function",
      "constant": true
    },
    {
      "inputs": [
        {
          "internalType": "bytes32",
          "name": "_hash",
          "type": "bytes32"
        }
      ],
      "name": "appeal",
      "outputs": [],
      "stateMutability": "payable",
      "type": "function",
      "payable": true
    },
    {
      "inputs": [
        {
          "components": [
            {
              "internalType": "bytes32",
              "name": "ipfsHash",
              "type": "bytes32"
            },
            {
              "internalType": "address payable",
              "name": "seller",
              "type": "address"
            },
            {
              "internalType": "address payable",
              "name": "stakeOwner",
              "type": "address"
            },
            {
              "internalType": "uint256",
              "name": "stakedAmount",
              "type": "uint256"
            },
            {
              "internalType": "uint256",
              "name": "commissionPercentage",
              "type": "uint256"
            },
            {
              "internalType": "uint256",
              "name": "warranty",
              "type": "uint256"
            },
            {
              "internalType": "uint256",
              "name": "cashbackPercentage",
              "type": "uint256"
            },
            {
              "internalType": "uint256",
              "name": "expiration",
              "type": "uint256"
            }
          ],
          "internalType": "struct Dagora.Listing",
          "name": "_listing",
          "type": "tuple"
        }
      ],
      "name": "approveListing",
      "outputs": [
        {
          "internalType": "bool",
          "name": "",
          "type": "bool"
        }
      ],
      "stateMutability": "nonpayable",
      "type": "function"
    },
    {
      "inputs": [
        {
          "components": [
            {
              "components": [
                {
                  "internalType": "bytes32",
                  "name": "ipfsHash",
                  "type": "bytes32"
                },
                {
                  "internalType": "address payable",
                  "name": "seller",
                  "type": "address"
                },
                {
                  "internalType": "address payable",
                  "name": "stakeOwner",
                  "type": "address"
                },
                {
                  "internalType": "uint256",
                  "name": "stakedAmount",
                  "type": "uint256"
                },
                {
                  "internalType": "uint256",
                  "name": "commissionPercentage",
                  "type": "uint256"
                },
                {
                  "internalType": "uint256",
                  "name": "warranty",
                  "type": "uint256"
                },
                {
                  "internalType": "uint256",
                  "name": "cashbackPercentage",
                  "type": "uint256"
                },
                {
                  "internalType": "uint256",
                  "name": "expiration",
                  "type": "uint256"
                }
              ],
              "internalType": "struct Dagora.Listing",
              "name": "listing",
              "type": "tuple"
            },
            {
              "internalType": "address payable",
              "name": "fundsHolder",
              "type": "address"
            },
            {
              "internalType": "address payable",
              "name": "buyer",
              "type": "address"
            },
            {
              "internalType": "address payable",
              "name": "commissioner",
              "type": "address"
            },
            {
              "internalType": "contract ERC20",
              "name": "token",
              "type": "address"
            },
            {
              "internalType": "uint256",
              "name": "total",
              "type": "uint256"
            },
            {
              "internalType": "uint256",
              "name": "cashback",
              "type": "uint256"
            },
            {
              "internalType": "uint256",
              "name": "commission",
              "type": "uint256"
            },
            {
              "internalType": "uint256",
              "name": "protocolFee",
              "type": "uint256"
            },
            {
              "internalType": "uint256",
              "name": "stakeHolderFee",
              "type": "uint256"
            },
            {
              "internalType": "uint256",
              "name": "expiration",
              "type": "uint256"
            },
            {
              "internalType": "uint256",
              "name": "confirmationTimeout",
              "type": "uint256"
            },
            {
              "internalType": "uint256",
              "name": "timestamp",
              "type": "uint256"
            }
          ],
          "internalType": "struct Dagora.Order",
          "name": "order",
          "type": "tuple"
        }
      ],
      "name": "approveOrder",
      "outputs": [
        {
          "internalType": "bool",
          "name": "",
          "type": "bool"
        }
      ],
      "stateMutability": "nonpayable",
      "type": "function"
    },
    {
      "inputs": [
        {
          "internalType": "bytes32",
          "name": "",
          "type": "bytes32"
        }
      ],
      "name": "approvedHashes",
      "outputs": [
        {
          "internalType": "bool",
          "name": "",
          "type": "bool"
        }
      ],
      "stateMutability": "view",
      "type": "function",
      "constant": true
    },
    {
      "inputs": [],
      "name": "arbitrator",
      "outputs": [
        {
          "internalType": "contract Arbitrator",
          "name": "",
          "type": "address"
        }
      ],
      "stateMutability": "view",
      "type": "function",
      "constant": true
    },
    {
      "inputs": [
        {
          "components": [
            {
              "components": [
                {
                  "internalType": "bytes32",
                  "name": "ipfsHash",
                  "type": "bytes32"
                },
                {
                  "internalType": "address payable",
                  "name": "seller",
                  "type": "address"
                },
                {
                  "internalType": "address payable",
                  "name": "stakeOwner",
                  "type": "address"
                },
                {
                  "internalType": "uint256",
                  "name": "stakedAmount",
                  "type": "uint256"
                },
                {
                  "internalType": "uint256",
                  "name": "commissionPercentage",
                  "type": "uint256"
                },
                {
                  "internalType": "uint256",
                  "name": "warranty",
                  "type": "uint256"
                },
                {
                  "internalType": "uint256",
                  "name": "cashbackPercentage",
                  "type": "uint256"
                },
                {
                  "internalType": "uint256",
                  "name": "expiration",
                  "type": "uint256"
                }
              ],
              "internalType": "struct Dagora.Listing",
              "name": "listing",
              "type": "tuple"
            },
            {
              "internalType": "address payable",
              "name": "fundsHolder",
              "type": "address"
            },
            {
              "internalType": "address payable",
              "name": "buyer",
              "type": "address"
            },
            {
              "internalType": "address payable",
              "name": "commissioner",
              "type": "address"
            },
            {
              "internalType": "contract ERC20",
              "name": "token",
              "type": "address"
            },
            {
              "internalType": "uint256",
              "name": "total",
              "type": "uint256"
            },
            {
              "internalType": "uint256",
              "name": "cashback",
              "type": "uint256"
            },
            {
              "internalType": "uint256",
              "name": "commission",
              "type": "uint256"
            },
            {
              "internalType": "uint256",
              "name": "protocolFee",
              "type": "uint256"
            },
            {
              "internalType": "uint256",
              "name": "stakeHolderFee",
              "type": "uint256"
            },
            {
              "internalType": "uint256",
              "name": "expiration",
              "type": "uint256"
            },
            {
              "internalType": "uint256",
              "name": "confirmationTimeout",
              "type": "uint256"
            },
            {
              "internalType": "uint256",
              "name": "timestamp",
              "type": "uint256"
            }
          ],
          "internalType": "struct Dagora.Order",
          "name": "_order",
          "type": "tuple"
        }
      ],
      "name": "availableToken",
      "outputs": [
        {
          "internalType": "uint256",
          "name": "",
          "type": "uint256"
        }
      ],
      "stateMutability": "view",
      "type": "function",
      "constant": true
    },
    {
      "inputs": [
        {
          "components": [
            {
              "components": [
                {
                  "internalType": "bytes32",
                  "name": "ipfsHash",
                  "type": "bytes32"
                },
                {
                  "internalType": "address payable",
                  "name": "seller",
                  "type": "address"
                },
                {
                  "internalType": "address payable",
                  "name": "stakeOwner",
                  "type": "address"
                },
                {
                  "internalType": "uint256",
                  "name": "stakedAmount",
                  "type": "uint256"
                },
                {
                  "internalType": "uint256",
                  "name": "commissionPercentage",
                  "type": "uint256"
                },
                {
                  "internalType": "uint256",
                  "name": "warranty",
                  "type": "uint256"
                },
                {
                  "internalType": "uint256",
                  "name": "cashbackPercentage",
                  "type": "uint256"
                },
                {
                  "internalType": "uint256",
                  "name": "expiration",
                  "type": "uint256"
                }
              ],
              "internalType": "struct Dagora.Listing",
              "name": "listing",
              "type": "tuple"
            },
            {
              "internalType": "address payable",
              "name": "fundsHolder",
              "type": "address"
            },
            {
              "internalType": "address payable",
              "name": "buyer",
              "type": "address"
            },
            {
              "internalType": "address payable",
              "name": "commissioner",
              "type": "address"
            },
            {
              "internalType": "contract ERC20",
              "name": "token",
              "type": "address"
            },
            {
              "internalType": "uint256",
              "name": "total",
              "type": "uint256"
            },
            {
              "internalType": "uint256",
              "name": "cashback",
              "type": "uint256"
            },
            {
              "internalType": "uint256",
              "name": "commission",
              "type": "uint256"
            },
            {
              "internalType": "uint256",
              "name": "protocolFee",
              "type": "uint256"
            },
            {
              "internalType": "uint256",
              "name": "stakeHolderFee",
              "type": "uint256"
            },
            {
              "internalType": "uint256",
              "name": "expiration",
              "type": "uint256"
            },
            {
              "internalType": "uint256",
              "name": "confirmationTimeout",
              "type": "uint256"
            },
            {
              "internalType": "uint256",
              "name": "timestamp",
              "type": "uint256"
            }
          ],
          "internalType": "struct Dagora.Order[]",
          "name": "orders",
          "type": "tuple[]"
        },
        {
          "components": [
            {
              "internalType": "uint8",
              "name": "v",
              "type": "uint8"
            },
            {
              "internalType": "bytes32",
              "name": "r",
              "type": "bytes32"
            },
            {
              "internalType": "bytes32",
              "name": "s",
              "type": "bytes32"
            }
          ],
          "internalType": "struct Dagora.Sig[]",
          "name": "orderSignatures",
          "type": "tuple[]"
        },
        {
          "components": [
            {
              "internalType": "uint8",
              "name": "v",
              "type": "uint8"
            },
            {
              "internalType": "bytes32",
              "name": "r",
              "type": "bytes32"
            },
            {
              "internalType": "bytes32",
              "name": "s",
              "type": "bytes32"
            }
          ],
          "internalType": "struct Dagora.Sig[]",
          "name": "listingSignatures",
          "type": "tuple[]"
        }
      ],
      "name": "batchCreateTransaction",
      "outputs": [
        {
          "internalType": "bytes32[]",
          "name": "hashes",
          "type": "bytes32[]"
        }
      ],
      "stateMutability": "nonpayable",
      "type": "function"
    },
    {
      "inputs": [
        {
          "components": [
            {
              "components": [
                {
                  "internalType": "bytes32",
                  "name": "ipfsHash",
                  "type": "bytes32"
                },
                {
                  "internalType": "address payable",
                  "name": "seller",
                  "type": "address"
                },
                {
                  "internalType": "address payable",
                  "name": "stakeOwner",
                  "type": "address"
                },
                {
                  "internalType": "uint256",
                  "name": "stakedAmount",
                  "type": "uint256"
                },
                {
                  "internalType": "uint256",
                  "name": "commissionPercentage",
                  "type": "uint256"
                },
                {
                  "internalType": "uint256",
                  "name": "warranty",
                  "type": "uint256"
                },
                {
                  "internalType": "uint256",
                  "name": "cashbackPercentage",
                  "type": "uint256"
                },
                {
                  "internalType": "uint256",
                  "name": "expiration",
                  "type": "uint256"
                }
              ],
              "internalType": "struct Dagora.Listing",
              "name": "listing",
              "type": "tuple"
            },
            {
              "internalType": "address payable",
              "name": "fundsHolder",
              "type": "address"
            },
            {
              "internalType": "address payable",
              "name": "buyer",
              "type": "address"
            },
            {
              "internalType": "address payable",
              "name": "commissioner",
              "type": "address"
            },
            {
              "internalType": "contract ERC20",
              "name": "token",
              "type": "address"
            },
            {
              "internalType": "uint256",
              "name": "total",
              "type": "uint256"
            },
            {
              "internalType": "uint256",
              "name": "cashback",
              "type": "uint256"
            },
            {
              "internalType": "uint256",
              "name": "commission",
              "type": "uint256"
            },
            {
              "internalType": "uint256",
              "name": "protocolFee",
              "type": "uint256"
            },
            {
              "internalType": "uint256",
              "name": "stakeHolderFee",
              "type": "uint256"
            },
            {
              "internalType": "uint256",
              "name": "expiration",
              "type": "uint256"
            },
            {
              "internalType": "uint256",
              "name": "confirmationTimeout",
              "type": "uint256"
            },
            {
              "internalType": "uint256",
              "name": "timestamp",
              "type": "uint256"
            }
          ],
          "internalType": "struct Dagora.Order[]",
          "name": "orders",
          "type": "tuple[]"
        }
      ],
      "name": "batchExecuteTransaction",
      "outputs": [],
      "stateMutability": "nonpayable",
      "type": "function"
    },
    {
      "inputs": [],
      "name": "blackListTimeout",
      "outputs": [
        {
          "internalType": "uint256",
          "name": "",
          "type": "uint256"
        }
      ],
      "stateMutability": "view",
      "type": "function",
      "constant": true
    },
    {
      "inputs": [
        {
          "internalType": "bytes32",
          "name": "",
          "type": "bytes32"
        }
      ],
      "name": "cancelledOrFinalized",
      "outputs": [
        {
          "internalType": "bool",
          "name": "",
          "type": "bool"
        }
      ],
      "stateMutability": "view",
      "type": "function",
      "constant": true
    },
    {
      "inputs": [
        {
          "components": [
            {
              "components": [
                {
                  "internalType": "bytes32",
                  "name": "ipfsHash",
                  "type": "bytes32"
                },
                {
                  "internalType": "address payable",
                  "name": "seller",
                  "type": "address"
                },
                {
                  "internalType": "address payable",
                  "name": "stakeOwner",
                  "type": "address"
                },
                {
                  "internalType": "uint256",
                  "name": "stakedAmount",
                  "type": "uint256"
                },
                {
                  "internalType": "uint256",
                  "name": "commissionPercentage",
                  "type": "uint256"
                },
                {
                  "internalType": "uint256",
                  "name": "warranty",
                  "type": "uint256"
                },
                {
                  "internalType": "uint256",
                  "name": "cashbackPercentage",
                  "type": "uint256"
                },
                {
                  "internalType": "uint256",
                  "name": "expiration",
                  "type": "uint256"
                }
              ],
              "internalType": "struct Dagora.Listing",
              "name": "listing",
              "type": "tuple"
            },
            {
              "internalType": "address payable",
              "name": "fundsHolder",
              "type": "address"
            },
            {
              "internalType": "address payable",
              "name": "buyer",
              "type": "address"
            },
            {
              "internalType": "address payable",
              "name": "commissioner",
              "type": "address"
            },
            {
              "internalType": "contract ERC20",
              "name": "token",
              "type": "address"
            },
            {
              "internalType": "uint256",
              "name": "total",
              "type": "uint256"
            },
            {
              "internalType": "uint256",
              "name": "cashback",
              "type": "uint256"
            },
            {
              "internalType": "uint256",
              "name": "commission",
              "type": "uint256"
            },
            {
              "internalType": "uint256",
              "name": "protocolFee",
              "type": "uint256"
            },
            {
              "internalType": "uint256",
              "name": "stakeHolderFee",
              "type": "uint256"
            },
            {
              "internalType": "uint256",
              "name": "expiration",
              "type": "uint256"
            },
            {
              "internalType": "uint256",
              "name": "confirmationTimeout",
              "type": "uint256"
            },
            {
              "internalType": "uint256",
              "name": "timestamp",
              "type": "uint256"
            }
          ],
          "internalType": "struct Dagora.Order",
          "name": "_order",
          "type": "tuple"
        },
        {
          "internalType": "uint256",
          "name": "fee",
          "type": "uint256"
        }
      ],
      "name": "chargeGasFee",
      "outputs": [],
      "stateMutability": "nonpayable",
      "type": "function"
    },
    {
      "inputs": [
        {
          "components": [
            {
              "components": [
                {
                  "internalType": "bytes32",
                  "name": "ipfsHash",
                  "type": "bytes32"
                },
                {
                  "internalType": "address payable",
                  "name": "seller",
                  "type": "address"
                },
                {
                  "internalType": "address payable",
                  "name": "stakeOwner",
                  "type": "address"
                },
                {
                  "internalType": "uint256",
                  "name": "stakedAmount",
                  "type": "uint256"
                },
                {
                  "internalType": "uint256",
                  "name": "commissionPercentage",
                  "type": "uint256"
                },
                {
                  "internalType": "uint256",
                  "name": "warranty",
                  "type": "uint256"
                },
                {
                  "internalType": "uint256",
                  "name": "cashbackPercentage",
                  "type": "uint256"
                },
                {
                  "internalType": "uint256",
                  "name": "expiration",
                  "type": "uint256"
                }
              ],
              "internalType": "struct Dagora.Listing",
              "name": "listing",
              "type": "tuple"
            },
            {
              "internalType": "address payable",
              "name": "fundsHolder",
              "type": "address"
            },
            {
              "internalType": "address payable",
              "name": "buyer",
              "type": "address"
            },
            {
              "internalType": "address payable",
              "name": "commissioner",
              "type": "address"
            },
            {
              "internalType": "contract ERC20",
              "name": "token",
              "type": "address"
            },
            {
              "internalType": "uint256",
              "name": "total",
              "type": "uint256"
            },
            {
              "internalType": "uint256",
              "name": "cashback",
              "type": "uint256"
            },
            {
              "internalType": "uint256",
              "name": "commission",
              "type": "uint256"
            },
            {
              "internalType": "uint256",
              "name": "protocolFee",
              "type": "uint256"
            },
            {
              "internalType": "uint256",
              "name": "stakeHolderFee",
              "type": "uint256"
            },
            {
              "internalType": "uint256",
              "name": "expiration",
              "type": "uint256"
            },
            {
              "internalType": "uint256",
              "name": "confirmationTimeout",
              "type": "uint256"
            },
            {
              "internalType": "uint256",
              "name": "timestamp",
              "type": "uint256"
            }
          ],
          "internalType": "struct Dagora.Order",
          "name": "_order",
          "type": "tuple"
        }
      ],
      "name": "claimWarranty",
      "outputs": [],
      "stateMutability": "nonpayable",
      "type": "function"
    },
    {
      "inputs": [
        {
          "components": [
            {
              "components": [
                {
                  "internalType": "bytes32",
                  "name": "ipfsHash",
                  "type": "bytes32"
                },
                {
                  "internalType": "address payable",
                  "name": "seller",
                  "type": "address"
                },
                {
                  "internalType": "address payable",
                  "name": "stakeOwner",
                  "type": "address"
                },
                {
                  "internalType": "uint256",
                  "name": "stakedAmount",
                  "type": "uint256"
                },
                {
                  "internalType": "uint256",
                  "name": "commissionPercentage",
                  "type": "uint256"
                },
                {
                  "internalType": "uint256",
                  "name": "warranty",
                  "type": "uint256"
                },
                {
                  "internalType": "uint256",
                  "name": "cashbackPercentage",
                  "type": "uint256"
                },
                {
                  "internalType": "uint256",
                  "name": "expiration",
                  "type": "uint256"
                }
              ],
              "internalType": "struct Dagora.Listing",
              "name": "listing",
              "type": "tuple"
            },
            {
              "internalType": "address payable",
              "name": "fundsHolder",
              "type": "address"
            },
            {
              "internalType": "address payable",
              "name": "buyer",
              "type": "address"
            },
            {
              "internalType": "address payable",
              "name": "commissioner",
              "type": "address"
            },
            {
              "internalType": "contract ERC20",
              "name": "token",
              "type": "address"
            },
            {
              "internalType": "uint256",
              "name": "total",
              "type": "uint256"
            },
            {
              "internalType": "uint256",
              "name": "cashback",
              "type": "uint256"
            },
            {
              "internalType": "uint256",
              "name": "commission",
              "type": "uint256"
            },
            {
              "internalType": "uint256",
              "name": "protocolFee",
              "type": "uint256"
            },
            {
              "internalType": "uint256",
              "name": "stakeHolderFee",
              "type": "uint256"
            },
            {
              "internalType": "uint256",
              "name": "expiration",
              "type": "uint256"
            },
            {
              "internalType": "uint256",
              "name": "confirmationTimeout",
              "type": "uint256"
            },
            {
              "internalType": "uint256",
              "name": "timestamp",
              "type": "uint256"
            }
          ],
          "internalType": "struct Dagora.Order",
          "name": "_order",
          "type": "tuple"
        }
      ],
      "name": "confirmReceipt",
      "outputs": [],
      "stateMutability": "nonpayable",
      "type": "function"
    },
    {
      "inputs": [
        {
          "internalType": "address",
          "name": "",
          "type": "address"
        }
      ],
      "name": "contracts",
      "outputs": [
        {
          "internalType": "bool",
          "name": "",
          "type": "bool"
        }
      ],
      "stateMutability": "view",
      "type": "function",
      "constant": true
    },
    {
      "inputs": [
        {
          "components": [
            {
              "components": [
                {
                  "internalType": "bytes32",
                  "name": "ipfsHash",
                  "type": "bytes32"
                },
                {
                  "internalType": "address payable",
                  "name": "seller",
                  "type": "address"
                },
                {
                  "internalType": "address payable",
                  "name": "stakeOwner",
                  "type": "address"
                },
                {
                  "internalType": "uint256",
                  "name": "stakedAmount",
                  "type": "uint256"
                },
                {
                  "internalType": "uint256",
                  "name": "commissionPercentage",
                  "type": "uint256"
                },
                {
                  "internalType": "uint256",
                  "name": "warranty",
                  "type": "uint256"
                },
                {
                  "internalType": "uint256",
                  "name": "cashbackPercentage",
                  "type": "uint256"
                },
                {
                  "internalType": "uint256",
                  "name": "expiration",
                  "type": "uint256"
                }
              ],
              "internalType": "struct Dagora.Listing",
              "name": "listing",
              "type": "tuple"
            },
            {
              "internalType": "address payable",
              "name": "fundsHolder",
              "type": "address"
            },
            {
              "internalType": "address payable",
              "name": "buyer",
              "type": "address"
            },
            {
              "internalType": "address payable",
              "name": "commissioner",
              "type": "address"
            },
            {
              "internalType": "contract ERC20",
              "name": "token",
              "type": "address"
            },
            {
              "internalType": "uint256",
              "name": "total",
              "type": "uint256"
            },
            {
              "internalType": "uint256",
              "name": "cashback",
              "type": "uint256"
            },
            {
              "internalType": "uint256",
              "name": "commission",
              "type": "uint256"
            },
            {
              "internalType": "uint256",
              "name": "protocolFee",
              "type": "uint256"
            },
            {
              "internalType": "uint256",
              "name": "stakeHolderFee",
              "type": "uint256"
            },
            {
              "internalType": "uint256",
              "name": "expiration",
              "type": "uint256"
            },
            {
              "internalType": "uint256",
              "name": "confirmationTimeout",
              "type": "uint256"
            },
            {
              "internalType": "uint256",
              "name": "timestamp",
              "type": "uint256"
            }
          ],
          "internalType": "struct Dagora.Order",
          "name": "_order",
          "type": "tuple"
        },
        {
          "components": [
            {
              "internalType": "uint8",
              "name": "v",
              "type": "uint8"
            },
            {
              "internalType": "bytes32",
              "name": "r",
              "type": "bytes32"
            },
            {
              "internalType": "bytes32",
              "name": "s",
              "type": "bytes32"
            }
          ],
          "internalType": "struct Dagora.Sig",
          "name": "orderSig",
          "type": "tuple"
        },
        {
          "components": [
            {
              "internalType": "uint8",
              "name": "v",
              "type": "uint8"
            },
            {
              "internalType": "bytes32",
              "name": "r",
              "type": "bytes32"
            },
            {
              "internalType": "bytes32",
              "name": "s",
              "type": "bytes32"
            }
          ],
          "internalType": "struct Dagora.Sig",
          "name": "listingSig",
          "type": "tuple"
        }
      ],
      "name": "createTransaction",
      "outputs": [
        {
          "internalType": "bytes32",
          "name": "hash",
          "type": "bytes32"
        }
      ],
      "stateMutability": "nonpayable",
      "type": "function"
    },
    {
      "inputs": [
        {
          "internalType": "uint256",
          "name": "value",
          "type": "uint256"
        }
      ],
      "name": "depositTokens",
      "outputs": [],
      "stateMutability": "nonpayable",
      "type": "function"
    },
    {
      "inputs": [
        {
          "internalType": "uint256",
          "name": "",
          "type": "uint256"
        }
      ],
      "name": "disputeIDtoHash",
      "outputs": [
        {
          "internalType": "bytes32",
          "name": "",
          "type": "bytes32"
        }
      ],
      "stateMutability": "view",
      "type": "function",
      "constant": true
    },
    {
      "inputs": [
        {
          "internalType": "bytes32",
          "name": "hash",
          "type": "bytes32"
        }
      ],
      "name": "disputeTimeout",
      "outputs": [],
      "stateMutability": "nonpayable",
      "type": "function"
    },
    {
      "inputs": [
        {
          "components": [
            {
              "components": [
                {
                  "internalType": "bytes32",
                  "name": "ipfsHash",
                  "type": "bytes32"
                },
                {
                  "internalType": "address payable",
                  "name": "seller",
                  "type": "address"
                },
                {
                  "internalType": "address payable",
                  "name": "stakeOwner",
                  "type": "address"
                },
                {
                  "internalType": "uint256",
                  "name": "stakedAmount",
                  "type": "uint256"
                },
                {
                  "internalType": "uint256",
                  "name": "commissionPercentage",
                  "type": "uint256"
                },
                {
                  "internalType": "uint256",
                  "name": "warranty",
                  "type": "uint256"
                },
                {
                  "internalType": "uint256",
                  "name": "cashbackPercentage",
                  "type": "uint256"
                },
                {
                  "internalType": "uint256",
                  "name": "expiration",
                  "type": "uint256"
                }
              ],
              "internalType": "struct Dagora.Listing",
              "name": "listing",
              "type": "tuple"
            },
            {
              "internalType": "address payable",
              "name": "fundsHolder",
              "type": "address"
            },
            {
              "internalType": "address payable",
              "name": "buyer",
              "type": "address"
            },
            {
              "internalType": "address payable",
              "name": "commissioner",
              "type": "address"
            },
            {
              "internalType": "contract ERC20",
              "name": "token",
              "type": "address"
            },
            {
              "internalType": "uint256",
              "name": "total",
              "type": "uint256"
            },
            {
              "internalType": "uint256",
              "name": "cashback",
              "type": "uint256"
            },
            {
              "internalType": "uint256",
              "name": "commission",
              "type": "uint256"
            },
            {
              "internalType": "uint256",
              "name": "protocolFee",
              "type": "uint256"
            },
            {
              "internalType": "uint256",
              "name": "stakeHolderFee",
              "type": "uint256"
            },
            {
              "internalType": "uint256",
              "name": "expiration",
              "type": "uint256"
            },
            {
              "internalType": "uint256",
              "name": "confirmationTimeout",
              "type": "uint256"
            },
            {
              "internalType": "uint256",
              "name": "timestamp",
              "type": "uint256"
            }
          ],
          "internalType": "struct Dagora.Order",
          "name": "_order",
          "type": "tuple"
        }
      ],
      "name": "disputeTransaction",
      "outputs": [
        {
          "internalType": "bytes32",
          "name": "hash",
          "type": "bytes32"
        }
      ],
      "stateMutability": "payable",
      "type": "function",
      "payable": true
    },
    {
      "inputs": [
        {
          "internalType": "bytes32",
          "name": "",
          "type": "bytes32"
        }
      ],
      "name": "disputes",
      "outputs": [
        {
          "internalType": "address payable",
          "name": "prosecution",
          "type": "address"
        },
        {
          "internalType": "address payable",
          "name": "defendant",
          "type": "address"
        },
        {
          "internalType": "uint256",
          "name": "amount",
          "type": "uint256"
        },
        {
          "internalType": "contract ERC20",
          "name": "token",
          "type": "address"
        },
        {
          "internalType": "uint256",
          "name": "prosecutionFee",
          "type": "uint256"
        },
        {
          "internalType": "uint256",
          "name": "defendantFee",
          "type": "uint256"
        },
        {
          "internalType": "enum Dagora.DisputeType",
          "name": "disputeType",
          "type": "uint8"
        },
        {
          "internalType": "uint256",
          "name": "lastInteraction",
          "type": "uint256"
        },
        {
          "internalType": "uint256",
          "name": "metaEvidenceId",
          "type": "uint256"
        },
        {
          "internalType": "uint256",
          "name": "disputeId",
          "type": "uint256"
        },
        {
          "internalType": "enum Dagora.DisputeStatus",
          "name": "status",
          "type": "uint8"
        }
      ],
      "stateMutability": "view",
      "type": "function",
      "constant": true
    },
    {
      "inputs": [
        {
          "components": [
            {
              "components": [
                {
                  "internalType": "bytes32",
                  "name": "ipfsHash",
                  "type": "bytes32"
                },
                {
                  "internalType": "address payable",
                  "name": "seller",
                  "type": "address"
                },
                {
                  "internalType": "address payable",
                  "name": "stakeOwner",
                  "type": "address"
                },
                {
                  "internalType": "uint256",
                  "name": "stakedAmount",
                  "type": "uint256"
                },
                {
                  "internalType": "uint256",
                  "name": "commissionPercentage",
                  "type": "uint256"
                },
                {
                  "internalType": "uint256",
                  "name": "warranty",
                  "type": "uint256"
                },
                {
                  "internalType": "uint256",
                  "name": "cashbackPercentage",
                  "type": "uint256"
                },
                {
                  "internalType": "uint256",
                  "name": "expiration",
                  "type": "uint256"
                }
              ],
              "internalType": "struct Dagora.Listing",
              "name": "listing",
              "type": "tuple"
            },
            {
              "internalType": "address payable",
              "name": "fundsHolder",
              "type": "address"
            },
            {
              "internalType": "address payable",
              "name": "buyer",
              "type": "address"
            },
            {
              "internalType": "address payable",
              "name": "commissioner",
              "type": "address"
            },
            {
              "internalType": "contract ERC20",
              "name": "token",
              "type": "address"
            },
            {
              "internalType": "uint256",
              "name": "total",
              "type": "uint256"
            },
            {
              "internalType": "uint256",
              "name": "cashback",
              "type": "uint256"
            },
            {
              "internalType": "uint256",
              "name": "commission",
              "type": "uint256"
            },
            {
              "internalType": "uint256",
              "name": "protocolFee",
              "type": "uint256"
            },
            {
              "internalType": "uint256",
              "name": "stakeHolderFee",
              "type": "uint256"
            },
            {
              "internalType": "uint256",
              "name": "expiration",
              "type": "uint256"
            },
            {
              "internalType": "uint256",
              "name": "confirmationTimeout",
              "type": "uint256"
            },
            {
              "internalType": "uint256",
              "name": "timestamp",
              "type": "uint256"
            }
          ],
          "internalType": "struct Dagora.Order",
          "name": "_order",
          "type": "tuple"
        }
      ],
      "name": "executeTransaction",
      "outputs": [],
      "stateMutability": "nonpayable",
      "type": "function"
    },
    {
      "inputs": [],
      "name": "feeTimeout",
      "outputs": [
        {
          "internalType": "uint256",
          "name": "",
          "type": "uint256"
        }
      ],
      "stateMutability": "view",
      "type": "function",
      "constant": true
    },
    {
      "inputs": [
        {
          "internalType": "address",
          "name": "addr",
          "type": "address"
        }
      ],
      "name": "grantAuthentication",
      "outputs": [],
      "stateMutability": "nonpayable",
      "type": "function"
    },
    {
      "inputs": [],
      "name": "ipfsDomain",
      "outputs": [
        {
          "internalType": "string",
          "name": "",
          "type": "string"
        }
      ],
      "stateMutability": "view",
      "type": "function",
      "constant": true
    },
    {
      "inputs": [
        {
          "internalType": "address",
          "name": "forwarder",
          "type": "address"
        }
      ],
      "name": "isTrustedForwarder",
      "outputs": [
        {
          "internalType": "bool",
          "name": "",
          "type": "bool"
        }
      ],
      "stateMutability": "view",
      "type": "function",
      "constant": true
    },
    {
      "inputs": [],
      "name": "marketToken",
      "outputs": [
        {
          "internalType": "contract ERC20Burnable",
          "name": "",
          "type": "address"
        }
      ],
      "stateMutability": "view",
      "type": "function",
      "constant": true
    },
    {
      "inputs": [],
      "name": "metaEvidenceCount",
      "outputs": [
        {
          "internalType": "uint256",
          "name": "",
          "type": "uint256"
        }
      ],
      "stateMutability": "view",
      "type": "function",
      "constant": true
    },
    {
      "inputs": [],
      "name": "orderExtraData",
      "outputs": [
        {
          "internalType": "bytes",
          "name": "",
          "type": "bytes"
        }
      ],
      "stateMutability": "view",
      "type": "function",
      "constant": true
    },
    {
      "inputs": [],
      "name": "owner",
      "outputs": [
        {
          "internalType": "address",
          "name": "",
          "type": "address"
        }
      ],
      "stateMutability": "view",
      "type": "function",
      "constant": true
    },
    {
      "inputs": [
        {
          "internalType": "bytes32",
          "name": "hash",
          "type": "bytes32"
        }
      ],
      "name": "payArbitrationFee",
      "outputs": [],
      "stateMutability": "payable",
      "type": "function",
      "payable": true
    },
    {
      "inputs": [],
      "name": "protocolFeePercentage",
      "outputs": [
        {
          "internalType": "uint256",
          "name": "",
          "type": "uint256"
        }
      ],
      "stateMutability": "view",
      "type": "function",
      "constant": true
    },
    {
      "inputs": [],
      "name": "protocolFeeRecipient",
      "outputs": [
        {
          "internalType": "address",
          "name": "",
          "type": "address"
        }
      ],
      "stateMutability": "view",
      "type": "function",
      "constant": true
    },
    {
      "inputs": [],
      "name": "renounceOwnership",
      "outputs": [],
      "stateMutability": "nonpayable",
      "type": "function"
    },
    {
      "inputs": [
        {
          "components": [
            {
              "internalType": "bytes32",
              "name": "ipfsHash",
              "type": "bytes32"
            },
            {
              "internalType": "address payable",
              "name": "seller",
              "type": "address"
            },
            {
              "internalType": "address payable",
              "name": "stakeOwner",
              "type": "address"
            },
            {
              "internalType": "uint256",
              "name": "stakedAmount",
              "type": "uint256"
            },
            {
              "internalType": "uint256",
              "name": "commissionPercentage",
              "type": "uint256"
            },
            {
              "internalType": "uint256",
              "name": "warranty",
              "type": "uint256"
            },
            {
              "internalType": "uint256",
              "name": "cashbackPercentage",
              "type": "uint256"
            },
            {
              "internalType": "uint256",
              "name": "expiration",
              "type": "uint256"
            }
          ],
          "internalType": "struct Dagora.Listing",
          "name": "_listing",
          "type": "tuple"
        },
        {
          "components": [
            {
              "internalType": "uint8",
              "name": "v",
              "type": "uint8"
            },
            {
              "internalType": "bytes32",
              "name": "r",
              "type": "bytes32"
            },
            {
              "internalType": "bytes32",
              "name": "s",
              "type": "bytes32"
            }
          ],
          "internalType": "struct Dagora.Sig",
          "name": "sig",
          "type": "tuple"
        }
      ],
      "name": "report",
      "outputs": [
        {
          "internalType": "bytes32",
          "name": "hash",
          "type": "bytes32"
        }
      ],
      "stateMutability": "payable",
      "type": "function",
      "payable": true
    },
    {
      "inputs": [],
      "name": "reportExtraData",
      "outputs": [
        {
          "internalType": "bytes",
          "name": "",
          "type": "bytes"
        }
      ],
      "stateMutability": "view",
      "type": "function",
      "constant": true
    },
    {
      "inputs": [
        {
          "internalType": "address",
          "name": "addr",
          "type": "address"
        }
      ],
      "name": "revokeAuthentication",
      "outputs": [],
      "stateMutability": "nonpayable",
      "type": "function"
    },
    {
      "inputs": [
        {
          "internalType": "uint256",
          "name": "_disputeID",
          "type": "uint256"
        },
        {
          "internalType": "uint256",
          "name": "_ruling",
          "type": "uint256"
        }
      ],
      "name": "rule",
      "outputs": [],
      "stateMutability": "nonpayable",
      "type": "function"
    },
    {
      "inputs": [
        {
          "internalType": "address",
          "name": "",
          "type": "address"
        }
      ],
      "name": "sellers",
      "outputs": [
        {
          "internalType": "uint256",
          "name": "balance",
          "type": "uint256"
        },
        {
          "internalType": "uint256",
          "name": "lockedTokens",
          "type": "uint256"
        },
        {
          "internalType": "uint256",
          "name": "blackListExpire",
          "type": "uint256"
        }
      ],
      "stateMutability": "view",
      "type": "function",
      "constant": true
    },
    {
      "inputs": [
        {
          "internalType": "bytes32",
          "name": "_hash",
          "type": "bytes32"
        },
        {
          "internalType": "string",
          "name": "_evidence",
          "type": "string"
        }
      ],
      "name": "submitEvidence",
      "outputs": [],
      "stateMutability": "nonpayable",
      "type": "function"
    },
    {
      "inputs": [],
      "name": "tokenOwnerFeePercentage",
      "outputs": [
        {
          "internalType": "uint256",
          "name": "",
          "type": "uint256"
        }
      ],
      "stateMutability": "view",
      "type": "function",
      "constant": true
    },
    {
      "inputs": [
        {
          "internalType": "bytes32",
          "name": "",
          "type": "bytes32"
        }
      ],
      "name": "transactions",
      "outputs": [
        {
          "internalType": "uint256",
          "name": "lastStatusUpdate",
          "type": "uint256"
        },
        {
          "internalType": "uint256",
          "name": "refund",
          "type": "uint256"
        },
        {
          "internalType": "uint256",
          "name": "gasFee",
          "type": "uint256"
        },
        {
          "internalType": "enum Dagora.Status",
          "name": "status",
          "type": "uint8"
        }
      ],
      "stateMutability": "view",
      "type": "function",
      "constant": true
    },
    {
      "inputs": [
        {
          "internalType": "address",
          "name": "newOwner",
          "type": "address"
        }
      ],
      "name": "transferOwnership",
      "outputs": [],
      "stateMutability": "nonpayable",
      "type": "function"
    },
    {
      "inputs": [
        {
          "components": [
            {
              "components": [
                {
                  "internalType": "bytes32",
                  "name": "ipfsHash",
                  "type": "bytes32"
                },
                {
                  "internalType": "address payable",
                  "name": "seller",
                  "type": "address"
                },
                {
                  "internalType": "address payable",
                  "name": "stakeOwner",
                  "type": "address"
                },
                {
                  "internalType": "uint256",
                  "name": "stakedAmount",
                  "type": "uint256"
                },
                {
                  "internalType": "uint256",
                  "name": "commissionPercentage",
                  "type": "uint256"
                },
                {
                  "internalType": "uint256",
                  "name": "warranty",
                  "type": "uint256"
                },
                {
                  "internalType": "uint256",
                  "name": "cashbackPercentage",
                  "type": "uint256"
                },
                {
                  "internalType": "uint256",
                  "name": "expiration",
                  "type": "uint256"
                }
              ],
              "internalType": "struct Dagora.Listing",
              "name": "listing",
              "type": "tuple"
            },
            {
              "internalType": "address payable",
              "name": "fundsHolder",
              "type": "address"
            },
            {
              "internalType": "address payable",
              "name": "buyer",
              "type": "address"
            },
            {
              "internalType": "address payable",
              "name": "commissioner",
              "type": "address"
            },
            {
              "internalType": "contract ERC20",
              "name": "token",
              "type": "address"
            },
            {
              "internalType": "uint256",
              "name": "total",
              "type": "uint256"
            },
            {
              "internalType": "uint256",
              "name": "cashback",
              "type": "uint256"
            },
            {
              "internalType": "uint256",
              "name": "commission",
              "type": "uint256"
            },
            {
              "internalType": "uint256",
              "name": "protocolFee",
              "type": "uint256"
            },
            {
              "internalType": "uint256",
              "name": "stakeHolderFee",
              "type": "uint256"
            },
            {
              "internalType": "uint256",
              "name": "expiration",
              "type": "uint256"
            },
            {
              "internalType": "uint256",
              "name": "confirmationTimeout",
              "type": "uint256"
            },
            {
              "internalType": "uint256",
              "name": "timestamp",
              "type": "uint256"
            }
          ],
          "internalType": "struct Dagora.Order",
          "name": "_order",
          "type": "tuple"
        },
        {
          "internalType": "uint256",
          "name": "refund",
          "type": "uint256"
        }
      ],
      "name": "updateRefund",
      "outputs": [],
      "stateMutability": "nonpayable",
      "type": "function"
    },
    {
      "inputs": [],
      "name": "versionRecipient",
      "outputs": [
        {
          "internalType": "string",
          "name": "",
          "type": "string"
        }
      ],
      "stateMutability": "view",
      "type": "function",
      "constant": true
    },
    {
      "inputs": [
        {
          "internalType": "uint256",
          "name": "value",
          "type": "uint256"
        }
      ],
      "name": "withdrawTokens",
      "outputs": [],
      "stateMutability": "nonpayable",
      "type": "function"
    },
    {
      "inputs": [
        {
          "components": [
            {
              "internalType": "bytes32",
              "name": "ipfsHash",
              "type": "bytes32"
            },
            {
              "internalType": "address payable",
              "name": "seller",
              "type": "address"
            },
            {
              "internalType": "address payable",
              "name": "stakeOwner",
              "type": "address"
            },
            {
              "internalType": "uint256",
              "name": "stakedAmount",
              "type": "uint256"
            },
            {
              "internalType": "uint256",
              "name": "commissionPercentage",
              "type": "uint256"
            },
            {
              "internalType": "uint256",
              "name": "warranty",
              "type": "uint256"
            },
            {
              "internalType": "uint256",
              "name": "cashbackPercentage",
              "type": "uint256"
            },
            {
              "internalType": "uint256",
              "name": "expiration",
              "type": "uint256"
            }
          ],
          "internalType": "struct Dagora.Listing",
          "name": "_listing",
          "type": "tuple"
        },
        {
          "components": [
            {
              "internalType": "uint8",
              "name": "v",
              "type": "uint8"
            },
            {
              "internalType": "bytes32",
              "name": "r",
              "type": "bytes32"
            },
            {
              "internalType": "bytes32",
              "name": "s",
              "type": "bytes32"
            }
          ],
          "internalType": "struct Dagora.Sig",
          "name": "sig",
          "type": "tuple"
        }
      ],
      "name": "_requireValidListing",
      "outputs": [
        {
          "internalType": "bool",
          "name": "",
          "type": "bool"
        }
      ],
      "stateMutability": "view",
      "type": "function",
      "constant": true
    },
    {
      "inputs": [
        {
          "components": [
            {
              "internalType": "bytes32",
              "name": "ipfsHash",
              "type": "bytes32"
            },
            {
              "internalType": "address payable",
              "name": "seller",
              "type": "address"
            },
            {
              "internalType": "address payable",
              "name": "stakeOwner",
              "type": "address"
            },
            {
              "internalType": "uint256",
              "name": "stakedAmount",
              "type": "uint256"
            },
            {
              "internalType": "uint256",
              "name": "commissionPercentage",
              "type": "uint256"
            },
            {
              "internalType": "uint256",
              "name": "warranty",
              "type": "uint256"
            },
            {
              "internalType": "uint256",
              "name": "cashbackPercentage",
              "type": "uint256"
            },
            {
              "internalType": "uint256",
              "name": "expiration",
              "type": "uint256"
            }
          ],
          "internalType": "struct Dagora.Listing",
          "name": "listing",
          "type": "tuple"
        }
      ],
      "name": "_hashListing",
      "outputs": [
        {
          "internalType": "bytes32",
          "name": "hash",
          "type": "bytes32"
        }
      ],
      "stateMutability": "pure",
      "type": "function",
      "constant": true
    },
    {
      "inputs": [
        {
          "components": [
            {
              "internalType": "bytes32",
              "name": "ipfsHash",
              "type": "bytes32"
            },
            {
              "internalType": "address payable",
              "name": "seller",
              "type": "address"
            },
            {
              "internalType": "address payable",
              "name": "stakeOwner",
              "type": "address"
            },
            {
              "internalType": "uint256",
              "name": "stakedAmount",
              "type": "uint256"
            },
            {
              "internalType": "uint256",
              "name": "commissionPercentage",
              "type": "uint256"
            },
            {
              "internalType": "uint256",
              "name": "warranty",
              "type": "uint256"
            },
            {
              "internalType": "uint256",
              "name": "cashbackPercentage",
              "type": "uint256"
            },
            {
              "internalType": "uint256",
              "name": "expiration",
              "type": "uint256"
            }
          ],
          "internalType": "struct Dagora.Listing",
          "name": "listing",
          "type": "tuple"
        }
      ],
      "name": "_hashListingToSign",
      "outputs": [
        {
          "internalType": "bytes32",
          "name": "hash",
          "type": "bytes32"
        }
      ],
      "stateMutability": "pure",
      "type": "function",
      "constant": true
    },
    {
      "inputs": [
        {
          "internalType": "bytes32",
          "name": "msgHash",
          "type": "bytes32"
        },
        {
          "components": [
            {
              "internalType": "uint8",
              "name": "v",
              "type": "uint8"
            },
            {
              "internalType": "bytes32",
              "name": "r",
              "type": "bytes32"
            },
            {
              "internalType": "bytes32",
              "name": "s",
              "type": "bytes32"
            }
          ],
          "internalType": "struct Dagora.Sig",
          "name": "sig",
          "type": "tuple"
        }
      ],
      "name": "_ecrecover",
      "outputs": [
        {
          "internalType": "address",
          "name": "",
          "type": "address"
        }
      ],
      "stateMutability": "pure",
      "type": "function",
      "constant": true
    }
  ],
  "bytecode": "0x60806040523480156200001157600080fd5b506040516200571638038062005716833981016040819052620000349162000423565b8a8a8a8a8a8a8a8a8a8a8a60006200004b62000156565b600080546001600160a01b0319166001600160a01b0383169081178255604051929350917f8be0079c531659141344cd1fd0a4f28419497f9722a3daafe3b4186f6b6457e0908290a350600180546001600160a01b038084166001600160a01b031992831617909255600880548e8416908316179055600e80548d841690831617905560138054928c169290911691909117905562015180808902600c558702600b556011869055601285905583516200010d906009906020870190620002c8565b5082516200012390600a906020860190620002c8565b50815162000139906010906020850190620002c8565b505050505050505050505050505050505050505050505062000559565b60006200016d6200017360201b620028821760201c565b90505b90565b6000601836108015906200018d57506200018d33620001f3565b15620001ee57620001e66000368080601f01602080910402602001604051908101604052809392919081815260200183838082843760009201919091525050366013190191505062000207602090811b620028f017901c565b905062000170565b503390565b6001546001600160a01b0390811691161490565b600081601401835110156200024857620002486200023760048551856014016200026460201b620029281760201c565b620002c060201b620029831760201c565b6014820191506001600160a01b03828401511690505b92915050565b6060632800659560e01b848484604051602401620002859392919062000536565b60408051601f198184030181529190526020810180516001600160e01b03166001600160e01b03199093169290921790915290509392505050565b805160208201fd5b828054600181600116156101000203166002900490600052602060002090601f016020900481019282601f106200030b57805160ff19168380011785556200033b565b828001600101855582156200033b579182015b828111156200033b5782518255916020019190600101906200031e565b50620003499291506200034d565b5090565b5b808211156200034957600081556001016200034e565b80516001600160a01b03811681146200025e57600080fd5b600082601f8301126200038d578081fd5b81516001600160401b0380821115620003a4578283fd5b6040516020601f8401601f1916820181018381118382101715620003c6578586fd5b80604052508194508382528681858801011115620003e357600080fd5b600092505b83831015620004075785830181015182840182015291820191620003e8565b83831115620004195760008185840101525b5050505092915050565b60008060008060008060008060008060006101608c8e03121562000445578687fd5b620004518d8d62000364565b9a50620004628d60208e0162000364565b9950620004738d60408e0162000364565b985060608c0151975060808c0151965060a08c0151955060c08c0151945060e08c015160018060401b03811115620004a9578485fd5b620004b78e828f016200037c565b6101008e015190955090506001600160401b03811115620004d6578384fd5b620004e48e828f016200037c565b6101208e015190945090506001600160401b0381111562000503578283fd5b620005118e828f016200037c565b925050620005248d6101408e0162000364565b90509295989b509295989b9093969950565b60608101600885106200054557fe5b938152602081019290925260409091015290565b6151ad80620005696000396000f3fe6080604052600436106102c95760003560e01c80638076f00511610175578063afd9e0d0116100dc578063d1fcfdb811610095578063ece1de441161006f578063ece1de441461084f578063ee7269d714610862578063f2fde38b14610877578063f48a0b3114610897576102c9565b8063d1fcfdb8146107ef578063d48fd7541461080f578063dd49756e1461082f576102c9565b8063afd9e0d01461075d578063b329036b1461077d578063b639866714610792578063ba4bc763146107a7578063be6a18ef146107c7578063cae6047f146107da576102c9565b80638e50e5091161012e5780638e50e509146106c957806396e71250146106de578063a0c59ef3146106fe578063a2031de414610713578063a66f1a7214610728578063ad48d61114610748576102c9565b80638076f0051461062157806381fd4fd71461064157806382ad5f751461066157806382e1e9721461067457806387bd84cc146106945780638da5cb5b146106b4576102c9565b8063572b6c051161023457806369dc9ff3116101ed5780636d47ab72116101c75780636d47ab721461059d578063715018a6146105cc57806372fc4213146105e157806378e740ff14610601576102c9565b806369dc9ff3146105485780636b83a061146105685780636cc6cde114610588576102c9565b8063572b6c05146104675780635af79807146104945780635d2569ad146104a9578063640b5aac146104d6578063642f2eaf146104f657806364df049e14610526576102c9565b806339d2a6941161028657806339d2a694146103bd5780634140a5eb146103d0578063486ff0cd146103e55780634f92352f1461040757806353376d1f14610427578063546f995c14610447576102c9565b806311be1997146102ce578063203ab1741461030e57806320a1e5b51461033b5780632c3d01b81461035b578063311a6c561461037d578063315a095d1461039d575b600080fd5b3480156102da57600080fd5b506102ee6102e9366004614118565b6108b7565b6040516103059b9a999897969594939291906145e4565b60405180910390f35b34801561031a57600080fd5b5061032e6103293660046141f1565b610925565b60405161030591906146eb565b34801561034757600080fd5b5061032e610356366004614286565b610936565b34801561036757600080fd5b5061037b61037636600461426a565b610adc565b005b34801561038957600080fd5b5061037b610398366004614312565b610c1a565b3480156103a957600080fd5b5061037b6103b8366004614118565b610d44565b61032e6103cb36600461426a565b610eac565b3480156103dc57600080fd5b5061032e611143565b3480156103f157600080fd5b506103fa611149565b6040516103059190614712565b34801561041357600080fd5b5061032e6104223660046141f1565b611167565b34801561043357600080fd5b5061037b61044236600461401d565b611172565b34801561045357600080fd5b5061037b610462366004614039565b6111f0565b34801561047357600080fd5b5061048761048236600461401d565b611224565b60405161030591906146e0565b3480156104a057600080fd5b5061032e611238565b3480156104b557600080fd5b506104c96104c4366004614074565b61123e565b604051610305919061469c565b3480156104e257600080fd5b5061037b6104f13660046142ce565b611317565b34801561050257600080fd5b50610516610511366004614118565b611457565b60405161030594939291906150c2565b34801561053257600080fd5b5061053b611481565b604051610305919061458f565b34801561055457600080fd5b5061048761056336600461401d565b611490565b34801561057457600080fd5b506104876105833660046141f1565b6114a5565b34801561059457600080fd5b5061053b6115b2565b3480156105a957600080fd5b506105bd6105b836600461401d565b6115c1565b604051610305939291906150ac565b3480156105d857600080fd5b5061037b6115e1565b3480156105ed57600080fd5b5061037b6105fc366004614118565b611660565b34801561060d57600080fd5b5061048761061c36600461426a565b61181d565b34801561062d57600080fd5b5061048761063c366004614118565b6118e1565b34801561064d57600080fd5b5061048761065c36600461420d565b6118f6565b61032e61066f36600461420d565b61190b565b34801561068057600080fd5b5061037b61068f36600461426a565b611c2b565b3480156106a057600080fd5b506104876106af366004614118565b611d20565b3480156106c057600080fd5b5061053b611d35565b3480156106d557600080fd5b5061032e611d44565b3480156106ea57600080fd5b5061037b6106f936600461426a565b611d4a565b34801561070a57600080fd5b5061032e611e50565b34801561071f57600080fd5b506103fa611e56565b34801561073457600080fd5b5061053b6107433660046141c5565b611ee4565b34801561075457600080fd5b5061053b611f49565b34801561076957600080fd5b5061032e61077836600461426a565b611f58565b34801561078957600080fd5b5061032e611fab565b34801561079e57600080fd5b506103fa611fb1565b3480156107b357600080fd5b5061032e6107c2366004614118565b61200c565b61037b6107d5366004614118565b61201e565b3480156107e657600080fd5b5061032e6122af565b3480156107fb57600080fd5b5061037b61080a36600461401d565b6122b5565b34801561081b57600080fd5b5061037b61082a36600461423a565b61235c565b34801561083b57600080fd5b5061037b61084a366004614118565b612487565b61037b61085d366004614118565b612593565b34801561086e57600080fd5b506103fa612642565b34801561088357600080fd5b5061037b61089236600461401d565b61269d565b3480156108a357600080fd5b5061037b6108b2366004614130565b612753565b600660208190526000918252604090912080546001820154600283015460038401546004850154600586015496860154600787015460088801546009890154600a909901546001600160a01b039889169a978916999698909516969395939460ff938416949293919291168b565b60006109308261298b565b92915050565b600061094384848461299e565b6000818152600560205260408120919250600382015460ff16600581111561096757fe5b1461098d5760405162461bcd60e51b815260040161098490614ecb565b60405180910390fd5b84608001516001600160a01b03166323b872dd8660200151308860a001516040518463ffffffff1660e01b81526004016109c99392919061465f565b602060405180830381600087803b1580156109e357600080fd5b505af11580156109f7573d6000803e3d6000fd5b505050506040513d601f19601f82011682018060405250810190610a1b91906140f8565b610a375760405162461bcd60e51b815260040161098490614f42565b4281556003810180546001919060ff1916828002179055508460000151602001516001600160a01b031685604001516001600160a01b0316837fe419a7cfec7b19a58f8ef66dbf85dd08b396bafa0e2f94b3181fd3d047cb748188600001516040015189606001518a608001518b60a001518c60e001518d60c001518e6101600151604051610acc97969594939291906145a3565b60405180910390a4509392505050565b6000610ae782612a06565b60008181526005602052604090209091506001600382015460ff166005811115610b0d57fe5b1480610b2b57506002600382015460ff166005811115610b2957fe5b145b80610b47575060038082015460ff166005811115610b4557fe5b145b610b635760405162461bcd60e51b815260040161098490614983565b60006001600383015460ff166005811115610b7a57fe5b1480610b97575060038083015460ff166005811115610b9557fe5b145b15610bd4578361016001516201518002826000015401421015610bcc5760405162461bcd60e51b8152600401610984906148ee565b506000610c0b565b835160a0015182546201518090910201421015610c035760405162461bcd60e51b8152600401610984906148ee565b50825160c001515b610c1484612a14565b50505050565b60008281526007602090815260408083205480845260069092529091206008546001600160a01b0316610c4b612dda565b6001600160a01b031614610c715760405162461bcd60e51b815260040161098490614f00565b6003600a82015460ff166004811115610c8657fe5b14610ca35760405162461bcd60e51b8152600401610984906147e6565b83610cac612dda565b6001600160a01b03167f394027a5fa6e098a1191094d1719d6929b9abc535fcc0c8f448d6a4e7562227685604051610ce491906146eb565b60405180910390a36001600682015460ff166002811115610d0157fe5b1415610d1657610d118184612de9565b610c14565b610d208184613145565b506000908152600560208190526040909120600301805460ff191690911790555050565b600060026000610d52612dda565b6001600160a01b03166001600160a01b0316815260200190815260200160002090508181600101548260000154031015610d9e5760405162461bcd60e51b81526004016109849061476e565b600e546001600160a01b03166323b872dd610db7612dda565b30856040518463ffffffff1660e01b8152600401610dd79392919061465f565b602060405180830381600087803b158015610df157600080fd5b505af1158015610e05573d6000803e3d6000fd5b505050506040513d601f19601f82011682018060405250810190610e2991906140f8565b610e3257600080fd5b8160026000610e3f612dda565b6001600160a01b0316815260208101919091526040016000208054919091039055610e68612dda565b6001600160a01b03167f05e8d4927d2e9cff8a7d6f1c0c3b0fdd4d7299da00fe4911745bda49a5834e6783604051610ea091906146eb565b60405180910390a25050565b6000610eb782612a06565b60008181526005602052604090209091506001600382015460ff166005811115610edd57fe5b1480610efa575060038082015460ff166005811115610ef857fe5b145b610f165760405162461bcd60e51b815260040161098490614983565b8261016001516201518002816000015401421115610f465760405162461bcd60e51b815260040161098490614c46565b60085460405163f7434ea960e01b81526000916001600160a01b03169063f7434ea990610f7890600990600401614725565b60206040518083038186803b158015610f9057600080fd5b505afa158015610fa4573d6000803e3d6000fd5b505050506040513d601f19601f82011682018060405250810190610fc891906142fa565b905080341015610fea5760405162461bcd60e51b815260040161098490614d93565b6000806001600385015460ff16600581111561100257fe5b14156110565785604001516001600160a01b031661101e612dda565b6001600160a01b0316146110445760405162461bcd60e51b815260040161098490614af4565b505060408401518451602001516110a1565b8551602001516001600160a01b031661106d612dda565b6001600160a01b0316146110935760405162461bcd60e51b815260040161098490614b2b565b505060408401518451602001515b60038401805460ff1916600417905542845560a086015160808701516000916110d39188918691869190346002613582565b905080600801547f61606860eb6c87306811e2695215385101daab53bd6ab4e9f9049aead9363c7d60108960000151600001516040516020016111179291906144e9565b60408051601f198184030181529082905261113191614712565b60405180910390a25050505050919050565b60125481565b6040805180820190915260038152620312e360ec1b60208201525b90565b600061093082613695565b61117a612dda565b6000546001600160a01b039081169116146111a75760405162461bcd60e51b815260040161098490614ba3565b6001600160a01b0381166000818152600d6020526040808220805460ff19169055517f45f62f30e7b8439e0da7d8e560fe39d01238091ce9e789e3d12b514edf98acea9190a250565b60005b81518110156112205761121882828151811061120b57fe5b6020026020010151610adc565b6001016111f3565b5050565b6001546001600160a01b0390811691161490565b600f5481565b606082518451148015611252575081518351145b61125b57600080fd5b835167ffffffffffffffff8111801561127357600080fd5b5060405190808252806020026020018201604052801561129d578160200160208202803683370190505b50905060005b845181101561130f576112f08582815181106112bb57fe5b60200260200101518583815181106112cf57fe5b60200260200101518584815181106112e357fe5b6020026020010151610936565b8282815181106112fc57fe5b60209081029190910101526001016112a3565b509392505050565b8151602001516001600160a01b031661132e612dda565b6001600160a01b0316146113545760405162461bcd60e51b8152600401610984906149fb565b600061135f83612a06565b60008181526005602052604090209091506001600382015460ff16600581111561138557fe5b146113a25760405162461bcd60e51b815260040161098490614983565b83610160015162015180028160000154014211156113d25760405162461bcd60e51b815260040161098490614c46565b8360a001518460e001518561012001518661010001518760c00151010101840111156114105760405162461bcd60e51b815260040161098490614cb2565b828160010181905550817fe18fe462037a62d3500e07f2b32d9e16a69cee44850c9b7dcef7d856087e4aff8460405161144991906146eb565b60405180910390a250505050565b60056020526000908152604090208054600182015460028301546003909301549192909160ff1684565b6013546001600160a01b031681565b600d6020526000908152604090205460ff1681565b600081604001516001600160a01b03166114bd612dda565b6001600160a01b0316146114e35760405162461bcd60e51b815260040161098490614c7b565b8160600151600260006114f4612dda565b6001600160a01b03168152602081019190915260400160002054101561152c5760405162461bcd60e51b815260040161098490614a32565b60006115378361298b565b60008181526004602052604090205490915060ff16156115695760405162461bcd60e51b81526004016109849061482c565b600081815260046020526040808220805460ff191660011790555182917f4e58c75167b3bff3ab3949a55f72203f341f94cca1c2c0c84370731b2b4c201791a250600192915050565b6008546001600160a01b031681565b600260208190526000918252604090912080546001820154919092015483565b6115e9612dda565b6000546001600160a01b039081169116146116165760405162461bcd60e51b815260040161098490614ba3565b600080546040516001600160a01b03909116907f8be0079c531659141344cd1fd0a4f28419497f9722a3daafe3b4186f6b6457e0908390a3600080546001600160a01b0319169055565b6000818152600660205260409020600a81015460ff16600481111561168157fe5b60001080156116a257506003600a82015460ff1660048111156116a057fe5b105b6116be5760405162461bcd60e51b815260040161098490614a69565b600c548160070154420310156116e65760405162461bcd60e51b8152600401610984906148ee565b6000816004015460001461176457600482018054600090915582546040516001600160a01b0390911690829061171b90611164565b60006040518083038185875af1925050503d8060008114611758576040519150601f19603f3d011682016040523d82523d6000602084013e61175d565b606091505b5090925050505b6005820154156117e157600582018054600090915560018301546040516001600160a01b0390911690829061179890611164565b60006040518083038185875af1925050503d80600081146117d5576040519150601f19603f3d011682016040523d82523d6000602084013e6117da565b606091505b5090925050505b6002600a83015460ff1660048111156117f657fe5b141561180d576118088260015b612de9565b611818565b611818826002611803565b505050565b600081602001516001600160a01b0316611835612dda565b6001600160a01b03161461185b5760405162461bcd60e51b815260040161098490614bd8565b600061186683612a06565b60008181526004602052604090205490915060ff16156118985760405162461bcd60e51b81526004016109849061482c565b600081815260046020526040808220805460ff191660011790555182917f0bed755d9d22259660bf623a395b620bbff2af67319e990b538dc8603bdc3e5f91a250600192915050565b60036020526000908152604090205460ff1681565b600061190283836136ec565b15159392505050565b600061191783836136ec565b9050600080828152600660205260409020600a015460ff16600481111561193a57fe5b146119575760405162461bcd60e51b815260040161098490614b62565b82604001516001600160a01b031661196d612dda565b6001600160a01b031614156119945760405162461bcd60e51b815260040161098490615037565b60085460405163f7434ea960e01b81526000916001600160a01b03169063f7434ea9906119c690600990600401614725565b60206040518083038186803b1580156119de57600080fd5b505afa1580156119f2573d6000803e3d6000fd5b505050506040513d601f19601f82011682018060405250810190611a1691906142fa565b905080341015611a385760405162461bcd60e51b815260040161098490614d93565b600060026000611a46612dda565b6001600160a01b03166001600160a01b03168152602001908152602001600020905080600201544211611a8b5760405162461bcd60e51b815260040161098490614d4c565b60018101548154606087015191900390811015611b5e57600e546001600160a01b03166323b872dd611abb612dda565b30848a60600151036040518463ffffffff1660e01b8152600401611ae19392919061465f565b602060405180830381600087803b158015611afb57600080fd5b505af1158015611b0f573d6000803e3d6000fd5b505050506040513d601f19601f82011682018060405250810190611b3391906140f8565b611b4f5760405162461bcd60e51b815260040161098490614f83565b60608601518254908290030182555b6040808701516001600160a01b0316600090815260026020529081206060880151600180860180548301905582018054909101905590611bbe86611ba0612dda565b60408b015160608c0151600e546001600160a01b0316346001613582565b905080600801547f61606860eb6c87306811e2695215385101daab53bd6ab4e9f9049aead9363c7d60108a60000151604051602001611bfe9291906144e9565b60408051601f1981840301815290829052611c1891614712565b60405180910390a2505050505092915050565b6000611c3682612a06565b60008181526005602052604090209091506001600382015460ff166005811115611c5c57fe5b148015611c85575082604001516001600160a01b0316611c7a612dda565b6001600160a01b0316145b80611cc9575060038082015460ff166005811115611c9f57fe5b148015611cc957508251602001516001600160a01b0316611cbe612dda565b6001600160a01b0316145b611ce55760405162461bcd60e51b815260040161098490614ddd565b6001810154158015611cfb5750825160a0015115155b15611d175760038101805460ff19166002179055428155611818565b61181883612a14565b60046020526000908152604090205460ff1681565b6000546001600160a01b031690565b60115481565b6000611d5582612a06565b60008181526005602052604090209091506002600382015460ff166005811115611d7b57fe5b14611d985760405162461bcd60e51b815260040161098490614983565b82604001516001600160a01b0316611dae612dda565b6001600160a01b031614611dd45760405162461bcd60e51b815260040161098490614ea0565b825160a0015181546201518090910201421115611e035760405162461bcd60e51b81526004016109849061494c565b6003818101805460ff1916909117905560a0830151600182015542815560405182907f99e77d4092287badf5165a76eb7add37ec282650747091906c6a02e0cd4f5b3d90600090a2505050565b600b5481565b6010805460408051602060026001851615610100026000190190941693909304601f81018490048402820184019092528181529291830182828015611edc5780601f10611eb157610100808354040283529160200191611edc565b820191906000526020600020905b815481529060010190602001808311611ebf57829003601f168201915b505050505081565b600060018383600001518460200151856040015160405160008152602001604052604051611f1594939291906146f4565b6020604051602081039080840390855afa158015611f37573d6000803e3d6000fd5b5050604051601f190151949350505050565b600e546001600160a01b031681565b60008060056000611f6885612a06565b815260200190815260200160002090508260e001518361012001518461010001518560c001518460020154856001015401010101018360a0015103915050919050565b600c5481565b600a805460408051602060026001851615610100026000190190941693909304601f81018490048402820184019092528181529291830182828015611edc5780601f10611eb157610100808354040283529160200191611edc565b60076020526000908152604090205481565b600081815260066020526040808220600854915163f7434ea960e01b81529092916001600160a01b03169063f7434ea99061205e90600990600401614725565b60206040518083038186803b15801561207657600080fd5b505afa15801561208a573d6000803e3d6000fd5b505050506040513d601f19601f820116820180604052508101906120ae91906142fa565b600a83015490915060ff1660048111156120c457fe5b60001080156120e557506003600a83015460ff1660048111156120e357fe5b105b6121015760405162461bcd60e51b8152600401610984906147a5565b81546001600160a01b0316612114612dda565b6001600160a01b03161480612145575060018201546001600160a01b031661213a612dda565b6001600160a01b0316145b6121615760405162461bcd60e51b815260040161098490614c0f565b81546001600160a01b0316612174612dda565b6001600160a01b03161415612219576004820180543401908190558111156121ae5760405162461bcd60e51b8152600401610984906149aa565b426007830155600582015481111561220f57600a8201805460ff1916600217905560405183907ff972c77402d0ee7d94e4b2ea7cee21a3d392136bf7c9b72d2dc85e2a4d24a9cf906122029060019061475a565b60405180910390a2611808565b6118088382613720565b6005820180543401908190558111156122445760405162461bcd60e51b8152600401610984906149aa565b42600783015560048201548111156122a557600a8201805460ff1916600117905560405183907ff972c77402d0ee7d94e4b2ea7cee21a3d392136bf7c9b72d2dc85e2a4d24a9cf906122989060009061475a565b60405180910390a2611818565b6118188382613720565b61271081565b6122bd612dda565b6000546001600160a01b039081169116146122ea5760405162461bcd60e51b815260040161098490614ba3565b6001600160a01b0381166000908152600d602052604090205460ff161561231057600080fd5b6001600160a01b0381166000818152600d6020526040808220805460ff19166001179055517f52133ca86a0b20d025852c627bd9d5c8e6037a237d7ef7d22f399ae642e6b9b49190a250565b60006005816123786123733687900387018761426a565b612a06565b8152602081019190915260400160009081209150600382015460ff16600581111561239f57fe5b1180156123be57506005600382015460ff1660058111156123bc57fe5b105b6123c757600080fd5b816123da6107783686900386018661426a565b10156123e557600080fd5b600281018054830190556124016101808401610160850161401d565b6001600160a01b031663a9059cbb612417612dda565b846040518363ffffffff1660e01b8152600401612435929190614683565b602060405180830381600087803b15801561244f57600080fd5b505af1158015612463573d6000803e3d6000fd5b505050506040513d601f19601f82011682018060405250810190610c1491906140f8565b600e546001600160a01b03166323b872dd6124a0612dda565b30846040518463ffffffff1660e01b81526004016124c09392919061465f565b602060405180830381600087803b1580156124da57600080fd5b505af11580156124ee573d6000803e3d6000fd5b505050506040513d601f19601f8201168201806040525081019061251291906140f8565b61251b57600080fd5b8060026000612528612dda565b6001600160a01b03168152602081019190915260400160002080549091019055612550612dda565b6001600160a01b03167fbc7c8a4d8049a3f99a02f2a20640c206a2e4d3f2fa54fd20da9f01fda3620cda8260405161258891906146eb565b60405180910390a250565b60008181526006602052604090206002600682015460ff1660028111156125b657fe5b146125d35760405162461bcd60e51b815260040161098490614e53565b600854600982015460405163093225f160e31b81526001600160a01b03909216916349912f8891349161260c9190600a90600401615085565b6000604051808303818588803b15801561262557600080fd5b505af1158015612639573d6000803e3d6000fd5b50505050505050565b6009805460408051602060026001851615610100026000190190941693909304601f81018490048402820184019092528181529291830182828015611edc5780601f10611eb157610100808354040283529160200191611edc565b6126a5612dda565b6000546001600160a01b039081169116146126d25760405162461bcd60e51b815260040161098490614ba3565b6001600160a01b0381166126f85760405162461bcd60e51b8152600401610984906148a8565b600080546040516001600160a01b03808516939216917f8be0079c531659141344cd1fd0a4f28419497f9722a3daafe3b4186f6b6457e091a3600080546001600160a01b0319166001600160a01b0392909216919091179055565b600082815260066020526040902080546001600160a01b0316612774612dda565b6001600160a01b031614806127a5575060018101546001600160a01b031661279a612dda565b6001600160a01b0316145b6127c15760405162461bcd60e51b815260040161098490614fe3565b6002600682015460ff1660028111156127d657fe5b146127f35760405162461bcd60e51b815260040161098490614cfd565b6004600a82015460ff16600481111561280857fe5b106128255760405162461bcd60e51b815260040161098490614856565b61282d612dda565b60088281015490546040516001600160a01b0393841693909116907fdccf2f8b2cc26eafcd61905cba744cff4b81d14740725f6376390dc6298a6a3c90612875908790614712565b60405180910390a4505050565b600060183610801590612899575061289933611224565b156128eb576128e46000368080601f01602080910402602001604051908101604052809392919081815260200183838082843760009201919091525050601319360191506128f09050565b9050611164565b503390565b60008160140183511015612916576129166129116004855185601401612928565b612983565b5001601401516001600160a01b031690565b6060632800659560e01b84848460405160240161294793929190614738565b60408051601f198184030181529190526020810180516001600160e01b03166001600160e01b03199093169290921790915290505b9392505050565b805160208201fd5b600061093061299983613695565b61395d565b60006129b86129b0856000015161298b565b855184613970565b6129d45760405162461bcd60e51b815260040161098490614fba565b6129ea6129e085612a06565b9150818585613a9d565b61297c5760405162461bcd60e51b815260040161098490614e2c565b600061093061299983613ca4565b6000612a1f82612a06565b6000818152600560205260408120600181015460a08601519394509092909190612a499083613d10565b60038401805460ff191660051790556000808555600185015561010086015190915015612b0b57610100850151608086015160135460405163a9059cbb60e01b815293839003936001600160a01b039283169363a9059cbb93612ab0931691600401614683565b602060405180830381600087803b158015612aca57600080fd5b505af1158015612ade573d6000803e3d6000fd5b505050506040513d601f19601f82011682018060405250810190612b0291906140f8565b612b0b57600080fd5b61012085015115612bc157612b2581866101200151613d10565b905084608001516001600160a01b031663a9059cbb8660000151604001518761012001516040518363ffffffff1660e01b8152600401612b66929190614683565b602060405180830381600087803b158015612b8057600080fd5b505af1158015612b94573d6000803e3d6000fd5b505050506040513d601f19601f82011682018060405250810190612bb891906140f8565b612bc157600080fd5b60e085015115612c675760e08501516080860151606087015160405163a9059cbb60e01b815293839003936001600160a01b039092169263a9059cbb92612c0c929190600401614683565b602060405180830381600087803b158015612c2657600080fd5b505af1158015612c3a573d6000803e3d6000fd5b505050506040513d601f19601f82011682018060405250810190612c5e91906140f8565b612c6757600080fd5b60c085015115612d0f5760c08501516080860151604080880151905163a9059cbb60e01b815293839003936001600160a01b039092169263a9059cbb92612cb49291870190600401614683565b602060405180830381600087803b158015612cce57600080fd5b505af1158015612ce2573d6000803e3d6000fd5b505050506040513d601f19601f82011682018060405250810190612d0691906140f8565b612d0f57600080fd5b8015612da857608085015185516020015160405163a9059cbb60e01b81526001600160a01b039092169163a9059cbb91612d4d918590600401614683565b602060405180830381600087803b158015612d6757600080fd5b505af1158015612d7b573d6000803e3d6000fd5b505050506040513d601f19601f82011682018060405250810190612d9f91906140f8565b612da857600080fd5b60405184907f24196ec40f90671b7144e716978686b4f3c7d6b00b23da3971ef2b52af27d87f90600090a25050505050565b6000612de4612882565b905090565b6002811115612e0a5760405162461bcd60e51b815260040161098490614923565b600282810180546004808601805460058801805460009687905592869055859055600a8801805460ff19169093179092556020949094526001808701546001600160a01b03168452919390929091851415612f5f5785546040516001600160a01b03909116908490612e7b90611164565b60006040518083038185875af1925050503d8060008114612eb8576040519150601f19603f3d011682016040523d82523d6000602084013e612ebd565b606091505b505060018701546001600160a01b03908116600090815260026020819052604080832080548a900390558a54841683529091208054828904019055600e549293509116906342966c6890865b0486036040518263ffffffff1660e01b8152600401612f2891906146eb565b600060405180830381600087803b158015612f4257600080fd5b505af1158015612f56573d6000803e3d6000fd5b5050505061313d565b60028514156130325760018601546040516001600160a01b03909116908390612f8790611164565b60006040518083038185875af1925050503d8060008114612fc4576040519150601f19603f3d011682016040523d82523d6000602084013e612fc9565b606091505b5050600b5487546001600160a01b03908116600090815260026020819052604080832042909501948201949094558a548316825283822080548a9003905560018b0154831682529290208054838904019055600e5492935091909116906342966c689086612f09565b600186015460405160028504916001600160a01b0316908285039061305690611164565b60006040518083038185875af1925050503d8060008114613093576040519150601f19603f3d011682016040523d82523d6000602084013e613098565b606091505b505087546040519193506001600160a01b03169082906130b790611164565b60006040518083038185875af1925050503d80600081146130f4576040519150601f19603f3d011682016040523d82523d6000602084013e6130f9565b606091505b505087546001600160a01b0390811660009081526002602081905260408083208054928b0492839003905560018c0154909316825291902080549190910390559150505b505050505050565b60028111156131665760405162461bcd60e51b815260040161098490614923565b6002820180546004808501805460058701805460009687905592869055859055600a8701805460ff1916909317909255919290919060018514156132b05785546040516001600160a01b039091169084906131c090611164565b60006040518083038185875af1925050503d80600081146131fd576040519150601f19603f3d011682016040523d82523d6000602084013e613202565b606091505b50506003870154875460405163a9059cbb60e01b81529293506001600160a01b039182169263a9059cbb9261323d9216908890600401614683565b602060405180830381600087803b15801561325757600080fd5b505af115801561326b573d6000803e3d6000fd5b505050506040513d601f19601f8201168201806040525081019061328f91906140f8565b6132ab5760405162461bcd60e51b815260040161098490614aae565b61313d565b60028514156133585760018601546040516001600160a01b039091169083906132d890611164565b60006040518083038185875af1925050503d8060008114613315576040519150601f19603f3d011682016040523d82523d6000602084013e61331a565b606091505b50506003870154600188015460405163a9059cbb60e01b81529293506001600160a01b039182169263a9059cbb9261323d9216908890600401614683565b600186015460405160028504916001600160a01b0316908285039061337c90611164565b60006040518083038185875af1925050503d80600081146133b9576040519150601f19603f3d011682016040523d82523d6000602084013e6133be565b606091505b505087546040519193506001600160a01b03169082906133dd90611164565b60006040518083038185875af1925050503d806000811461341a576040519150601f19603f3d011682016040523d82523d6000602084013e61341f565b606091505b50506003880154600189015460405163a9059cbb60e01b815292945060028804926001600160a01b039283169263a9059cbb9261346592911690858b0390600401614683565b602060405180830381600087803b15801561347f57600080fd5b505af1158015613493573d6000803e3d6000fd5b505050506040513d601f19601f820116820180604052508101906134b791906140f8565b6134d35760405162461bcd60e51b815260040161098490614aae565b6003880154885460405163a9059cbb60e01b81526001600160a01b039283169263a9059cbb9261350a929116908590600401614683565b602060405180830381600087803b15801561352457600080fd5b505af1158015613538573d6000803e3d6000fd5b505050506040513d601f19601f8201168201806040525081019061355c91906140f8565b6135785760405162461bcd60e51b815260040161098490614aae565b5050505050505050565b600087815260066020819052604090912080546001600160a01b03808a166001600160a01b031992831617835560018084018054928b169290931691909117909155600280830188905560048301805487019055928201805492938593919260ff19909216919084908111156135f457fe5b0217905550600182600281111561360757fe5b141561362b576003810180546001600160a01b0319166001600160a01b0386161790555b600a8101805460ff19166002179055426007820155600f80546001818101909255600883015560405189917ff972c77402d0ee7d94e4b2ea7cee21a3d392136bf7c9b72d2dc85e2a4d24a9cf91613682919061475a565b60405180910390a2979650505050505050565b80516020808301516040808501516060860151608087015160a088015160c089015160e08a015195516000996136cf99909897910161449e565b604051602081830303815290604052805190602001209050919050565b60006137046136fa8461298b565b9150818484613970565b6109305760405162461bcd60e51b815260040161098490614fba565b6000828152600660205260409020600a810180546003919060ff191660018302179055506008546000906001600160a01b031663c13517e184600280600687015460ff16600281111561376f57fe5b1461377b57600961377e565b600a5b6040518463ffffffff1660e01b815260040161379b9291906150f0565b6020604051808303818588803b1580156137b457600080fd5b505af11580156137c8573d6000803e3d6000fd5b50505050506040513d601f19601f820116820180604052508101906137ed91906142fa565b600081815260076020526040908190208690556008805490850154915192935083926001600160a01b03909116917f74baab670a4015ab2f1b467c5252a96141a2573f2908e58a92081e80d3cfde3d916138499190819061509e565b60405180910390a3600083836004015411156138d35760048301805490859055835460405191869003916001600160a01b0390911690829061388a90611164565b60006040518083038185875af1925050503d80600081146138c7576040519150601f19603f3d011682016040523d82523d6000602084013e6138cc565b606091505b5090925050505b83836005015411156139565760058301805490859055600184015460405191869003916001600160a01b0390911690829061390d90611164565b60006040518083038185875af1925050503d806000811461394a576040519150601f19603f3d011682016040523d82523d6000602084013e61394f565b606091505b5090925050505b5050505050565b6000816040516020016136cf919061455e565b60008260e0015160001415801561398a57508260e0015142115b156139975750600061297c565b6040808401516001600160a01b031660009081526002602052206060840151600182015482540310156139ce57600091505061297c565b60008581526003602052604090205460ff16156139ef57600091505061297c565b60008581526004602052604090205460ff1615613a1057600191505061297c565b83604001516001600160a01b031660018685600001518660200151876040015160405160008152602001604052604051613a4d94939291906146f4565b6020604051602081039080840390855afa158015613a6f573d6000803e3d6000fd5b505050602060405103516001600160a01b03161415613a9257600191505061297c565b506000949350505050565b6000826101400151600014158015613ab9575082610140015142115b15613ac65750600061297c565b60808301516001600160a01b03166000908152600d602052604090205460ff16613af25750600061297c565b60008481526003602052604090205460ff1615613b115750600061297c565b613b278360a00151846000015160800151613d52565b8360e001511015613b3a5750600061297c565b613b508360a00151846000015160c00151613d52565b8360c001511015613b635750600061297c565b613b738360a00151601154613d52565b8361010001511015613b875750600061297c565b825160208101516040909101516001600160a01b03908116911614801590613bc25750613bba8360a00151601254613d52565b836101200151105b15613bcf5750600061297c565b8260e001518361012001518461010001518560c001510101018360a001511015613bfb5750600061297c565b60008481526004602052604090205460ff1615613c1a5750600161297c565b82604001516001600160a01b031660018584600001518560200151866040015160405160008152602001604052604051613c5794939291906146f4565b6020604051602081039080840390855afa158015613c79573d6000803e3d6000fd5b505050602060405103516001600160a01b03161415613c9a5750600161297c565b5060009392505050565b6000613cb3826000015161298b565b82604001518360200151846060015185608001518660a001518760c001518860e001518961010001518a61012001518b61014001518c61016001518d61018001516040516020016136cf9d9c9b9a99989796959493929190614417565b600061297c83836040518060400160405280601e81526020017f536166654d6174683a207375627472616374696f6e206f766572666c6f770000815250613d5b565b61271091020490565b60008184841115613d7f5760405162461bcd60e51b81526004016109849190614712565b505050900390565b80356109308161515f565b600082601f830112613da2578081fd5b8135613db5613db082615133565b61510c565b818152915060208083019084810161028080850287018301881015613dd957600080fd5b60005b85811015613e0057613dee8984613ef7565b85529383019391810191600101613ddc565b50505050505092915050565b600082601f830112613e1c578081fd5b8135613e2a613db082615133565b8181529150602080830190848101606080850287018301881015613e4d57600080fd5b60005b85811015613e0057613e628984613fd1565b85529383019391810191600101613e50565b6000610100808385031215613e87578182fd5b613e908161510c565b915050813581526020820135613ea58161515f565b60208201526040820135613eb88161515f565b80604083015250606082013560608201526080820135608082015260a082013560a082015260c082013560c082015260e082013560e082015292915050565b60006102808284031215613f09578081fd5b6101a0613f158161510c565b9150613f218484613e74565b8252610100613f3285828601613d87565b6020840152610120613f4686828701613d87565b6040850152610140613f5a87828801613d87565b6060860152610160613f6e88828901613d87565b60808701526101808088013560a08801528588013560c08801526101c088013560e08801526101e0880135858801526102008801358488015261022088013583880152610240880135828801526102608801358188015250505050505092915050565b600060608284031215613fe2578081fd5b613fec606061510c565b9050813560ff81168114613fff57600080fd5b80825250602082013560208201526040820135604082015292915050565b60006020828403121561402e578081fd5b813561297c8161515f565b60006020828403121561404a578081fd5b813567ffffffffffffffff811115614060578182fd5b61406c84828501613d92565b949350505050565b600080600060608486031215614088578182fd5b833567ffffffffffffffff8082111561409f578384fd5b6140ab87838801613d92565b945060208601359150808211156140c0578384fd5b6140cc87838801613e0c565b935060408601359150808211156140e1578283fd5b506140ee86828701613e0c565b9150509250925092565b600060208284031215614109578081fd5b8151801515811461297c578182fd5b600060208284031215614129578081fd5b5035919050565b60008060408385031215614142578182fd5b8235915060208084013567ffffffffffffffff80821115614161578384fd5b818601915086601f830112614174578384fd5b813581811115614182578485fd5b614194601f8201601f1916850161510c565b915080825287848285010111156141a9578485fd5b8084840185840137810190920192909252919491935090915050565b600080608083850312156141d7578182fd5b823591506141e88460208501613fd1565b90509250929050565b60006101008284031215614203578081fd5b61297c8383613e74565b6000806101608385031215614220578182fd5b61422a8484613e74565b91506141e8846101008501613fd1565b6000808284036102a081121561424e578283fd5b6102808082121561425d578384fd5b9395938601359450505050565b6000610280828403121561427c578081fd5b61297c8383613ef7565b6000806000610340848603121561429b578081fd5b6142a58585613ef7565b92506142b5856102808601613fd1565b91506142c5856102e08601613fd1565b90509250925092565b6000806102a083850312156142e1578182fd5b6142eb8484613ef7565b94610280939093013593505050565b60006020828403121561430b578081fd5b5051919050565b60008060408385031215614324578182fd5b50508035926020909101359150565b60601b6bffffffffffffffffffffffff19169052565b60008151808452815b8181101561436e57602081850181015186830182015201614352565b8181111561437f5782602083870101525b50601f01601f19169290920160200192915050565b600081546001808216600081146143b257600181146143d05761440e565b60028304607f16865260ff198316602087015260408601935061440e565b600283048087526143e086615153565b60005b828110156144045781546020828b01015284820191506020810190506143e3565b8801602001955050505b50505092915050565b60008e82526bffffffffffffffffffffffff19808f60601b166020840152808e60601b166034840152808d60601b16604884015250614459605c83018c614333565b506070810198909852609088019690965260b087019490945260d086019290925260f08501526101108401526101308301526101508201526101700195945050505050565b9788526bffffffffffffffffffffffff19606097881b811660208a01529590961b909416603487015260488601929092526068850152608884015260a883015260c882015260e80190565b6000808454600180821660008114614508576001811461451f5761454e565b60ff198316865260028304607f168601935061454e565b600283048886526020808720875b838110156145465781548a82015290850190820161452d565b505050860193505b5050509283525050602001919050565b7f19457468657265756d205369676e6564204d6573736167653a0a3332000000008152601c810191909152603c0190565b6001600160a01b0391909116815260200190565b6001600160a01b03978816815295871660208701529390951660408501526060840191909152608083015260a082019290925260c081019190915260e00190565b6001600160a01b038c811682528b81166020830152604082018b9052891660608201526080810188905260a0810187905261016081016003871061462457fe5b8660c08301528560e083015284610100830152836101208301526005831061464857fe5b826101408301529c9b505050505050505050505050565b6001600160a01b039384168152919092166020820152604081019190915260600190565b6001600160a01b03929092168252602082015260400190565b6020808252825182820181905260009190848201906040850190845b818110156146d4578351835292840192918401916001016146b8565b50909695505050505050565b901515815260200190565b90815260200190565b93845260ff9290921660208401526040830152606082015260800190565b60006020825261297c6020830184614349565b60006020825261297c6020830184614394565b606081016008851061474657fe5b938152602081019290925260409091015290565b602081016002831061476857fe5b91905290565b6020808252601c908201527f596f7520646f6e2774206861766520656e6f67687420746f6b656e7300000000604082015260600190565b60208082526021908201527f446973707574652068617320616c7265616479206265656e20637265617465646040820152601760f91b606082015260800190565b60208082526026908201527f54686520646973707574652068617320616c7265616479206265656e2072657360408201526537b63b32b21760d11b606082015260800190565b60208082526010908201526f105b1c9958591e48185c1c1c9bdd995960821b604082015260600190565b60208082526032908201527f4d757374206e6f742073656e642065766964656e63652069662074686520646960408201527139b83aba329034b9903932b9b7b63b32b21760711b606082015260800190565b60208082526026908201527f4f776e61626c653a206e6577206f776e657220697320746865207a65726f206160408201526564647265737360d01b606082015260800190565b6020808252818101527f54696d656f75742074696d6520686173206e6f7420706173736564207965742e604082015260600190565b6020808252600f908201526e24b73b30b634b210393ab634b7339760891b604082015260600190565b6020808252601c908201527f57617272616e74792074696d65206861732074696d6564206f75742e00000000604082015260600190565b6020808252600d908201526c496e76616c696420706861736560981b604082015260600190565b60208082526031908201527f5468652070726f7365637574696f6e20666565206d75737420636f7665722061604082015270393134ba3930ba34b7b71031b7b9ba399760791b606082015260800190565b6020808252601e908201527f596f75206d75737420626520746865206c697374696e672073656c6c65720000604082015260600190565b6020808252601b908201527f596f7520646f6e2774206861766520656e6f6768742066756e64730000000000604082015260600190565b60208082526025908201527f44697370757465206973206e6f742077616974696e6720666f7220616e79207060408201526430b93a3c9760d91b606082015260800190565b60208082526026908201527f54686520607472616e73666572602066756e6374696f6e206d757374206e6f74604082015265103330b4b61760d11b606082015260800190565b60208082526017908201527f4f6e6c792062757965722063616e20646973707574652e000000000000000000604082015260600190565b60208082526018908201527f4f6e6c792073656c6c65722063616e20646973707574652e0000000000000000604082015260600190565b60208082526021908201527f4c697374696e672068617320616c7265616479206265656e207265706f7274656040820152601960fa1b606082015260800190565b6020808252818101527f4f776e61626c653a2063616c6c6572206973206e6f7420746865206f776e6572604082015260600190565b6020808252601a908201527f53656e646572206973206e6f74206f72646572207369676e6572000000000000604082015260600190565b6020808252601e908201527f5468652063616c6c6572206d757374206265207468652073656e6465722e0000604082015260600190565b6020808252818101527f436f6e6669726d6174696f6e2074696d65206861732074696d6564206f75742e604082015260600190565b6020808252601c908201527f53656e646572206973206e6f74206c697374696e67207369676e657200000000604082015260600190565b6020808252602b908201527f526566756e642063616e27742062652067726561746572207468616e20746f7460408201526a30b61030b63637bbb2b21760a91b606082015260800190565b6020808252602f908201527f45766964656e63657320617265206f6e6c7920616c6c6f77656420666f72206f60408201526e393232b939903234b9b83aba32b99760891b606082015260800190565b60208082526027908201527f596f7520617265206e6f7420616c6c6f77656420746f207265706f7274206c6960408201526639ba34b733b99760c91b606082015260800190565b6020808252602a908201527f56616c7565206d7573742062652067726561746572207468616e2061726269746040820152691c985d1a5bdb90dbdcdd60b21b606082015260800190565b6020808252602f908201527f596f75206d7573742062652073656c6c6572206f7220627579657220696e207460408201526e3432903934b3b43a10383430b9b29760891b606082015260800190565b6020808252600d908201526c24b73b30b634b21037b93232b960991b604082015260600190565b6020808252602d908201527f41707065616c7320617265206f6e6c7920616c6c6f77656420666f72206f726460408201526c32b939903234b9b83aba32b99760991b606082015260800190565b6020808252601190820152702cb7ba9036bab9ba10313290313abcb2b960791b604082015260600190565b6020808252818101527f4f7264657220616c726561647920686173206265656e2070726f636573736564604082015260600190565b60208082526022908201527f5468652063616c6c6572206d757374206265207468652061726269747261746f604082015261391760f11b606082015260800190565b60208082526021908201527f4661696c656420746f207472616e7366657220627579657227732066756e64736040820152601760f91b606082015260800190565b60208082526019908201527f556e61626c6520746f207472616e7366657220746f6b656e7300000000000000604082015260600190565b6020808252600f908201526e496e76616c6964206c697374696e6760881b604082015260600190565b60208082526034908201527f5468652063616c6c6572206d757374206265207468652070726f73656375746960408201527337b71037b9103a3432903232b332b73230b73a1760611b606082015260800190565b6020808252602e908201527f596f752063616e2774207265706f727420796f757273656c662e20557365206360408201526d616e63656c4c697374696e67282960901b606082015260800190565b60008382526040602083015261406c6040830184614394565b918252602082015260400190565b9283526020830191909152604082015260600190565b848152602081018490526040810183905260808101600683106150e157fe5b82606083015295945050505050565b600060ff841682526040602083015261406c6040830184614394565b60405181810167ffffffffffffffff8111828210171561512b57600080fd5b604052919050565b600067ffffffffffffffff821115615149578081fd5b5060209081020190565b60009081526020902090565b6001600160a01b038116811461517457600080fd5b5056fea2646970667358221220b73d4e549b4a5f93bd0e1bae98f469c0ea4e9adef1cf1cfb9e8f0108aa4ec26664736f6c634300060c0033",
  "immutableReferences": {},
  "source": "// SPDX-License-Identifier: MIT\npragma solidity ^0.6.0;\npragma experimental ABIEncoderV2;\n\nimport \"./Dagora.sol\";\n\ncontract TestDagora is Dagora {\n    constructor(\n        address _arbitrator,\n        address _token,\n        address _protocolFeeRecipient,\n        uint256 _feeTimeoutDays,\n        uint256 _blacklistTimeoutDays,\n        uint256 _protocolFeePercentage,\n        uint256 _tokenOwnerFeePercentage,\n        bytes memory _reportExtraData,\n        bytes memory _orderExtraData,\n        string memory _ipfsDomain,\n        address _forwarder\n    )\n        public\n        Dagora(\n            _arbitrator,\n            _token,\n            _protocolFeeRecipient,\n            _feeTimeoutDays,\n            _blacklistTimeoutDays,\n            _protocolFeePercentage,\n            _tokenOwnerFeePercentage,\n            _reportExtraData,\n            _orderExtraData,\n            _ipfsDomain,\n            _forwarder\n        )\n    {}\n\n    function _requireValidListing(Listing memory _listing, Sig memory sig)\n        public\n        view\n        returns (bool)\n    {\n        return requireValidListing(_listing, sig) != 0x0;\n    }\n\n    function _hashListing(Listing memory listing)\n        public\n        pure\n        returns (bytes32 hash)\n    {\n        return hashListing(listing);\n    }\n\n    function _hashListingToSign(Listing memory listing)\n        public\n        pure\n        returns (bytes32 hash)\n    {\n        return hashListingToSign(listing);\n    }\n\n    function _ecrecover(bytes32 msgHash, Sig memory sig)\n        public\n        pure\n        returns (address)\n    {\n        return ecrecover(msgHash, sig.v, sig.r, sig.s);\n    }\n}\n",
  "sourcePath": "/home/gustavo/projects/dagora/contracts/marketplace/TestDagora.sol",
  "compiler": {
    "name": "solc",
    "version": "0.6.12+commit.27d51765.Emscripten.clang"
  },
  "schemaVersion": "3.2.3",
  "updatedAt": "2020-08-03T14:25:41.261Z",
  "networkType": "ethereum",
  "devdoc": {
    "kind": "dev",
    "methods": {
      "appeal(bytes32)": {
        "details": "Appeal an appealable ruling. UNTRUSTED.  Transfer the funds to the arbitrator.  Note that no checks are required as the checks are done by the arbitrator.",
        "params": {
          "_hash": "The hash of the order."
        }
      },
      "owner()": {
        "details": "Returns the address of the current owner."
      },
      "renounceOwnership()": {
        "details": "Leaves the contract without owner. It will not be possible to call `onlyOwner` functions anymore. Can only be called by the current owner. NOTE: Renouncing ownership will leave the contract without an owner, thereby removing any functionality that is only available to the owner."
      },
      "rule(uint256,uint256)": {
        "details": "Give a ruling for a dispute. Must be called by the arbitrator.  The purpose of this function is to ensure that the address calling it has the right to rule on the contract.",
        "params": {
          "_disputeID": "ID of the dispute in the Arbitrator contract.",
          "_ruling": "Ruling given by the arbitrator. Note that 0 is reserved for \"Not able/wanting to make a decision\"."
        }
      },
      "submitEvidence(bytes32,string)": {
        "details": "Submit a reference to evidence. EVENT.",
        "params": {
          "_evidence": "A link to an evidence using its URI.",
          "_hash": "The hash of the order."
        }
      },
      "transferOwnership(address)": {
        "details": "Transfers ownership of the contract to a new account (`newOwner`). Can only be called by the current owner."
      }
    },
    "version": 1
  },
  "userdoc": {
    "kind": "user",
    "methods": {
      "isTrustedForwarder(address)": {
        "notice": "return if the forwarder is trusted to forward relayed transactions to us. the forwarder is required to verify the sender's signature, and verify the call is not a replay."
      }
    },
    "version": 1
  }
}