{
  "contractName": "TestDagora",
  "abi": [
    {
      "inputs": [
        {
          "internalType": "address",
          "name": "_arbitrator",
          "type": "address"
        },
        {
          "internalType": "address",
          "name": "_token",
          "type": "address"
        },
        {
          "internalType": "address",
          "name": "_protocolFeeRecipient",
          "type": "address"
        },
        {
          "internalType": "uint256",
          "name": "_feeTimeoutDays",
          "type": "uint256"
        },
        {
          "internalType": "uint256",
          "name": "_blacklistTimeoutDays",
          "type": "uint256"
        },
        {
          "internalType": "uint256",
          "name": "_protocolFeePercentage",
          "type": "uint256"
        },
        {
          "internalType": "uint256",
          "name": "_tokenOwnerFeePercentage",
          "type": "uint256"
        },
        {
          "internalType": "bytes",
          "name": "_reportExtraData",
          "type": "bytes"
        },
        {
          "internalType": "bytes",
          "name": "_orderExtraData",
          "type": "bytes"
        },
        {
          "internalType": "string",
          "name": "_ipfsDomain",
          "type": "string"
        }
      ],
      "stateMutability": "nonpayable",
      "type": "constructor"
    },
    {
      "anonymous": false,
      "inputs": [
        {
          "indexed": true,
          "internalType": "contract Arbitrator",
          "name": "_arbitrator",
          "type": "address"
        },
        {
          "indexed": true,
          "internalType": "uint256",
          "name": "_disputeID",
          "type": "uint256"
        },
        {
          "indexed": false,
          "internalType": "uint256",
          "name": "_metaEvidenceID",
          "type": "uint256"
        },
        {
          "indexed": false,
          "internalType": "uint256",
          "name": "_evidenceGroupID",
          "type": "uint256"
        }
      ],
      "name": "Dispute",
      "type": "event"
    },
    {
      "anonymous": false,
      "inputs": [
        {
          "indexed": true,
          "internalType": "contract Arbitrator",
          "name": "_arbitrator",
          "type": "address"
        },
        {
          "indexed": true,
          "internalType": "uint256",
          "name": "_evidenceGroupID",
          "type": "uint256"
        },
        {
          "indexed": true,
          "internalType": "address",
          "name": "_party",
          "type": "address"
        },
        {
          "indexed": false,
          "internalType": "string",
          "name": "_evidence",
          "type": "string"
        }
      ],
      "name": "Evidence",
      "type": "event"
    },
    {
      "anonymous": false,
      "inputs": [
        {
          "indexed": true,
          "internalType": "bytes32",
          "name": "_hash",
          "type": "bytes32"
        },
        {
          "indexed": false,
          "internalType": "enum Dagora.Party",
          "name": "_party",
          "type": "uint8"
        }
      ],
      "name": "HasToPayFee",
      "type": "event"
    },
    {
      "anonymous": false,
      "inputs": [
        {
          "indexed": true,
          "internalType": "bytes32",
          "name": "hash",
          "type": "bytes32"
        }
      ],
      "name": "ListingApproved",
      "type": "event"
    },
    {
      "anonymous": false,
      "inputs": [
        {
          "indexed": true,
          "internalType": "bytes32",
          "name": "hash",
          "type": "bytes32"
        }
      ],
      "name": "ListingCancelled",
      "type": "event"
    },
    {
      "anonymous": false,
      "inputs": [
        {
          "indexed": true,
          "internalType": "uint256",
          "name": "_metaEvidenceID",
          "type": "uint256"
        },
        {
          "indexed": false,
          "internalType": "string",
          "name": "_evidence",
          "type": "string"
        }
      ],
      "name": "MetaEvidence",
      "type": "event"
    },
    {
      "anonymous": false,
      "inputs": [
        {
          "indexed": true,
          "internalType": "bytes32",
          "name": "hash",
          "type": "bytes32"
        }
      ],
      "name": "OrderApproved",
      "type": "event"
    },
    {
      "anonymous": false,
      "inputs": [
        {
          "indexed": true,
          "internalType": "bytes32",
          "name": "hash",
          "type": "bytes32"
        }
      ],
      "name": "OrderCancelled",
      "type": "event"
    },
    {
      "anonymous": false,
      "inputs": [
        {
          "indexed": true,
          "internalType": "address",
          "name": "previousOwner",
          "type": "address"
        },
        {
          "indexed": true,
          "internalType": "address",
          "name": "newOwner",
          "type": "address"
        }
      ],
      "name": "OwnershipTransferred",
      "type": "event"
    },
    {
      "anonymous": false,
      "inputs": [
        {
          "indexed": true,
          "internalType": "contract Arbitrator",
          "name": "_arbitrator",
          "type": "address"
        },
        {
          "indexed": true,
          "internalType": "uint256",
          "name": "_disputeID",
          "type": "uint256"
        },
        {
          "indexed": false,
          "internalType": "uint256",
          "name": "_ruling",
          "type": "uint256"
        }
      ],
      "name": "Ruling",
      "type": "event"
    },
    {
      "anonymous": false,
      "inputs": [
        {
          "indexed": true,
          "internalType": "address",
          "name": "sender",
          "type": "address"
        },
        {
          "indexed": false,
          "internalType": "uint256",
          "name": "value",
          "type": "uint256"
        }
      ],
      "name": "TokenDeposited",
      "type": "event"
    },
    {
      "anonymous": false,
      "inputs": [
        {
          "indexed": true,
          "internalType": "address",
          "name": "addr",
          "type": "address"
        }
      ],
      "name": "TokenGranted",
      "type": "event"
    },
    {
      "anonymous": false,
      "inputs": [
        {
          "indexed": true,
          "internalType": "address",
          "name": "addr",
          "type": "address"
        }
      ],
      "name": "TokenRevoked",
      "type": "event"
    },
    {
      "anonymous": false,
      "inputs": [
        {
          "indexed": true,
          "internalType": "address",
          "name": "sender",
          "type": "address"
        },
        {
          "indexed": false,
          "internalType": "uint256",
          "name": "value",
          "type": "uint256"
        }
      ],
      "name": "TokenWithdrawed",
      "type": "event"
    },
    {
      "anonymous": false,
      "inputs": [
        {
          "indexed": true,
          "internalType": "bytes32",
          "name": "hash",
          "type": "bytes32"
        },
        {
          "indexed": true,
          "internalType": "address",
          "name": "buyer",
          "type": "address"
        },
        {
          "indexed": true,
          "internalType": "address",
          "name": "seller",
          "type": "address"
        },
        {
          "indexed": false,
          "internalType": "address",
          "name": "stakeOwner",
          "type": "address"
        },
        {
          "indexed": false,
          "internalType": "address",
          "name": "commissioner",
          "type": "address"
        },
        {
          "indexed": false,
          "internalType": "contract ERC20",
          "name": "token",
          "type": "address"
        },
        {
          "indexed": false,
          "internalType": "uint256",
          "name": "total",
          "type": "uint256"
        },
        {
          "indexed": false,
          "internalType": "uint256",
          "name": "commissionPercentage",
          "type": "uint256"
        },
        {
          "indexed": false,
          "internalType": "uint256",
          "name": "cashbackPercentage",
          "type": "uint256"
        },
        {
          "indexed": false,
          "internalType": "uint256",
          "name": "confirmationTimeout",
          "type": "uint256"
        }
      ],
      "name": "TransactionCreated",
      "type": "event"
    },
    {
      "anonymous": false,
      "inputs": [
        {
          "indexed": true,
          "internalType": "bytes32",
          "name": "hash",
          "type": "bytes32"
        }
      ],
      "name": "TransactionFinalized",
      "type": "event"
    },
    {
      "anonymous": false,
      "inputs": [
        {
          "indexed": true,
          "internalType": "bytes32",
          "name": "hash",
          "type": "bytes32"
        },
        {
          "indexed": false,
          "internalType": "uint256",
          "name": "value",
          "type": "uint256"
        }
      ],
      "name": "TransactionRefunded",
      "type": "event"
    },
    {
      "anonymous": false,
      "inputs": [
        {
          "indexed": true,
          "internalType": "bytes32",
          "name": "hash",
          "type": "bytes32"
        }
      ],
      "name": "WarrantyClaimed",
      "type": "event"
    },
    {
      "inputs": [],
      "name": "INVERSE_BASIS_POINT",
      "outputs": [
        {
          "internalType": "uint256",
          "name": "",
          "type": "uint256"
        }
      ],
      "stateMutability": "view",
      "type": "function",
      "constant": true
    },
    {
      "inputs": [
        {
          "internalType": "bytes32",
          "name": "_hash",
          "type": "bytes32"
        }
      ],
      "name": "appeal",
      "outputs": [],
      "stateMutability": "payable",
      "type": "function",
      "payable": true
    },
    {
      "inputs": [
        {
          "components": [
            {
              "internalType": "bytes32",
              "name": "ipfsHash",
              "type": "bytes32"
            },
            {
              "internalType": "address payable",
              "name": "seller",
              "type": "address"
            },
            {
              "internalType": "address payable",
              "name": "stakeOwner",
              "type": "address"
            },
            {
              "internalType": "uint256",
              "name": "stakedAmount",
              "type": "uint256"
            },
            {
              "internalType": "uint256",
              "name": "commissionPercentage",
              "type": "uint256"
            },
            {
              "internalType": "uint256",
              "name": "warranty",
              "type": "uint256"
            },
            {
              "internalType": "uint256",
              "name": "cashbackPercentage",
              "type": "uint256"
            },
            {
              "internalType": "uint256",
              "name": "expiration",
              "type": "uint256"
            }
          ],
          "internalType": "struct Dagora.Listing",
          "name": "_listing",
          "type": "tuple"
        }
      ],
      "name": "approveListing",
      "outputs": [
        {
          "internalType": "bool",
          "name": "",
          "type": "bool"
        }
      ],
      "stateMutability": "nonpayable",
      "type": "function"
    },
    {
      "inputs": [
        {
          "components": [
            {
              "components": [
                {
                  "internalType": "bytes32",
                  "name": "ipfsHash",
                  "type": "bytes32"
                },
                {
                  "internalType": "address payable",
                  "name": "seller",
                  "type": "address"
                },
                {
                  "internalType": "address payable",
                  "name": "stakeOwner",
                  "type": "address"
                },
                {
                  "internalType": "uint256",
                  "name": "stakedAmount",
                  "type": "uint256"
                },
                {
                  "internalType": "uint256",
                  "name": "commissionPercentage",
                  "type": "uint256"
                },
                {
                  "internalType": "uint256",
                  "name": "warranty",
                  "type": "uint256"
                },
                {
                  "internalType": "uint256",
                  "name": "cashbackPercentage",
                  "type": "uint256"
                },
                {
                  "internalType": "uint256",
                  "name": "expiration",
                  "type": "uint256"
                }
              ],
              "internalType": "struct Dagora.Listing",
              "name": "listing",
              "type": "tuple"
            },
            {
              "internalType": "address payable",
              "name": "buyer",
              "type": "address"
            },
            {
              "internalType": "address payable",
              "name": "commissioner",
              "type": "address"
            },
            {
              "internalType": "contract ERC20",
              "name": "token",
              "type": "address"
            },
            {
              "internalType": "uint256",
              "name": "total",
              "type": "uint256"
            },
            {
              "internalType": "uint256",
              "name": "shippingCost",
              "type": "uint256"
            },
            {
              "internalType": "uint256",
              "name": "expiration",
              "type": "uint256"
            },
            {
              "internalType": "uint256",
              "name": "confirmationTimeout",
              "type": "uint256"
            }
          ],
          "internalType": "struct Dagora.Order",
          "name": "order",
          "type": "tuple"
        }
      ],
      "name": "approveOrder",
      "outputs": [
        {
          "internalType": "bool",
          "name": "",
          "type": "bool"
        }
      ],
      "stateMutability": "nonpayable",
      "type": "function"
    },
    {
      "inputs": [
        {
          "internalType": "bytes32",
          "name": "",
          "type": "bytes32"
        }
      ],
      "name": "approvedHashes",
      "outputs": [
        {
          "internalType": "bool",
          "name": "",
          "type": "bool"
        }
      ],
      "stateMutability": "view",
      "type": "function",
      "constant": true
    },
    {
      "inputs": [],
      "name": "arbitrator",
      "outputs": [
        {
          "internalType": "contract Arbitrator",
          "name": "",
          "type": "address"
        }
      ],
      "stateMutability": "view",
      "type": "function",
      "constant": true
    },
    {
      "inputs": [
        {
          "internalType": "address",
          "name": "",
          "type": "address"
        },
        {
          "internalType": "address",
          "name": "",
          "type": "address"
        }
      ],
      "name": "balances",
      "outputs": [
        {
          "internalType": "uint256",
          "name": "",
          "type": "uint256"
        }
      ],
      "stateMutability": "view",
      "type": "function",
      "constant": true
    },
    {
      "inputs": [],
      "name": "blackListTimeout",
      "outputs": [
        {
          "internalType": "uint256",
          "name": "",
          "type": "uint256"
        }
      ],
      "stateMutability": "view",
      "type": "function",
      "constant": true
    },
    {
      "inputs": [
        {
          "internalType": "bytes32",
          "name": "",
          "type": "bytes32"
        }
      ],
      "name": "cancelledOrFinalized",
      "outputs": [
        {
          "internalType": "bool",
          "name": "",
          "type": "bool"
        }
      ],
      "stateMutability": "view",
      "type": "function",
      "constant": true
    },
    {
      "inputs": [
        {
          "components": [
            {
              "components": [
                {
                  "internalType": "bytes32",
                  "name": "ipfsHash",
                  "type": "bytes32"
                },
                {
                  "internalType": "address payable",
                  "name": "seller",
                  "type": "address"
                },
                {
                  "internalType": "address payable",
                  "name": "stakeOwner",
                  "type": "address"
                },
                {
                  "internalType": "uint256",
                  "name": "stakedAmount",
                  "type": "uint256"
                },
                {
                  "internalType": "uint256",
                  "name": "commissionPercentage",
                  "type": "uint256"
                },
                {
                  "internalType": "uint256",
                  "name": "warranty",
                  "type": "uint256"
                },
                {
                  "internalType": "uint256",
                  "name": "cashbackPercentage",
                  "type": "uint256"
                },
                {
                  "internalType": "uint256",
                  "name": "expiration",
                  "type": "uint256"
                }
              ],
              "internalType": "struct Dagora.Listing",
              "name": "listing",
              "type": "tuple"
            },
            {
              "internalType": "address payable",
              "name": "buyer",
              "type": "address"
            },
            {
              "internalType": "address payable",
              "name": "commissioner",
              "type": "address"
            },
            {
              "internalType": "contract ERC20",
              "name": "token",
              "type": "address"
            },
            {
              "internalType": "uint256",
              "name": "total",
              "type": "uint256"
            },
            {
              "internalType": "uint256",
              "name": "shippingCost",
              "type": "uint256"
            },
            {
              "internalType": "uint256",
              "name": "expiration",
              "type": "uint256"
            },
            {
              "internalType": "uint256",
              "name": "confirmationTimeout",
              "type": "uint256"
            }
          ],
          "internalType": "struct Dagora.Order",
          "name": "_order",
          "type": "tuple"
        }
      ],
      "name": "claimWarranty",
      "outputs": [],
      "stateMutability": "nonpayable",
      "type": "function"
    },
    {
      "inputs": [
        {
          "components": [
            {
              "components": [
                {
                  "internalType": "bytes32",
                  "name": "ipfsHash",
                  "type": "bytes32"
                },
                {
                  "internalType": "address payable",
                  "name": "seller",
                  "type": "address"
                },
                {
                  "internalType": "address payable",
                  "name": "stakeOwner",
                  "type": "address"
                },
                {
                  "internalType": "uint256",
                  "name": "stakedAmount",
                  "type": "uint256"
                },
                {
                  "internalType": "uint256",
                  "name": "commissionPercentage",
                  "type": "uint256"
                },
                {
                  "internalType": "uint256",
                  "name": "warranty",
                  "type": "uint256"
                },
                {
                  "internalType": "uint256",
                  "name": "cashbackPercentage",
                  "type": "uint256"
                },
                {
                  "internalType": "uint256",
                  "name": "expiration",
                  "type": "uint256"
                }
              ],
              "internalType": "struct Dagora.Listing",
              "name": "listing",
              "type": "tuple"
            },
            {
              "internalType": "address payable",
              "name": "buyer",
              "type": "address"
            },
            {
              "internalType": "address payable",
              "name": "commissioner",
              "type": "address"
            },
            {
              "internalType": "contract ERC20",
              "name": "token",
              "type": "address"
            },
            {
              "internalType": "uint256",
              "name": "total",
              "type": "uint256"
            },
            {
              "internalType": "uint256",
              "name": "shippingCost",
              "type": "uint256"
            },
            {
              "internalType": "uint256",
              "name": "expiration",
              "type": "uint256"
            },
            {
              "internalType": "uint256",
              "name": "confirmationTimeout",
              "type": "uint256"
            }
          ],
          "internalType": "struct Dagora.Order",
          "name": "_order",
          "type": "tuple"
        }
      ],
      "name": "confirmReceipt",
      "outputs": [],
      "stateMutability": "nonpayable",
      "type": "function"
    },
    {
      "inputs": [
        {
          "internalType": "address",
          "name": "",
          "type": "address"
        }
      ],
      "name": "contracts",
      "outputs": [
        {
          "internalType": "bool",
          "name": "",
          "type": "bool"
        }
      ],
      "stateMutability": "view",
      "type": "function",
      "constant": true
    },
    {
      "inputs": [
        {
          "components": [
            {
              "components": [
                {
                  "internalType": "bytes32",
                  "name": "ipfsHash",
                  "type": "bytes32"
                },
                {
                  "internalType": "address payable",
                  "name": "seller",
                  "type": "address"
                },
                {
                  "internalType": "address payable",
                  "name": "stakeOwner",
                  "type": "address"
                },
                {
                  "internalType": "uint256",
                  "name": "stakedAmount",
                  "type": "uint256"
                },
                {
                  "internalType": "uint256",
                  "name": "commissionPercentage",
                  "type": "uint256"
                },
                {
                  "internalType": "uint256",
                  "name": "warranty",
                  "type": "uint256"
                },
                {
                  "internalType": "uint256",
                  "name": "cashbackPercentage",
                  "type": "uint256"
                },
                {
                  "internalType": "uint256",
                  "name": "expiration",
                  "type": "uint256"
                }
              ],
              "internalType": "struct Dagora.Listing",
              "name": "listing",
              "type": "tuple"
            },
            {
              "internalType": "address payable",
              "name": "buyer",
              "type": "address"
            },
            {
              "internalType": "address payable",
              "name": "commissioner",
              "type": "address"
            },
            {
              "internalType": "contract ERC20",
              "name": "token",
              "type": "address"
            },
            {
              "internalType": "uint256",
              "name": "total",
              "type": "uint256"
            },
            {
              "internalType": "uint256",
              "name": "shippingCost",
              "type": "uint256"
            },
            {
              "internalType": "uint256",
              "name": "expiration",
              "type": "uint256"
            },
            {
              "internalType": "uint256",
              "name": "confirmationTimeout",
              "type": "uint256"
            }
          ],
          "internalType": "struct Dagora.Order",
          "name": "_order",
          "type": "tuple"
        },
        {
          "components": [
            {
              "internalType": "uint8",
              "name": "v",
              "type": "uint8"
            },
            {
              "internalType": "bytes32",
              "name": "r",
              "type": "bytes32"
            },
            {
              "internalType": "bytes32",
              "name": "s",
              "type": "bytes32"
            }
          ],
          "internalType": "struct Dagora.Sig",
          "name": "orderSig",
          "type": "tuple"
        },
        {
          "components": [
            {
              "internalType": "uint8",
              "name": "v",
              "type": "uint8"
            },
            {
              "internalType": "bytes32",
              "name": "r",
              "type": "bytes32"
            },
            {
              "internalType": "bytes32",
              "name": "s",
              "type": "bytes32"
            }
          ],
          "internalType": "struct Dagora.Sig",
          "name": "listingSig",
          "type": "tuple"
        }
      ],
      "name": "createTransaction",
      "outputs": [
        {
          "internalType": "bytes32",
          "name": "hash",
          "type": "bytes32"
        }
      ],
      "stateMutability": "nonpayable",
      "type": "function"
    },
    {
      "inputs": [
        {
          "internalType": "uint256",
          "name": "value",
          "type": "uint256"
        }
      ],
      "name": "depositTokens",
      "outputs": [],
      "stateMutability": "nonpayable",
      "type": "function"
    },
    {
      "inputs": [
        {
          "internalType": "uint256",
          "name": "",
          "type": "uint256"
        }
      ],
      "name": "disputeIDtoHash",
      "outputs": [
        {
          "internalType": "bytes32",
          "name": "",
          "type": "bytes32"
        }
      ],
      "stateMutability": "view",
      "type": "function",
      "constant": true
    },
    {
      "inputs": [
        {
          "internalType": "bytes32",
          "name": "hash",
          "type": "bytes32"
        }
      ],
      "name": "disputeTimeout",
      "outputs": [],
      "stateMutability": "nonpayable",
      "type": "function"
    },
    {
      "inputs": [
        {
          "components": [
            {
              "components": [
                {
                  "internalType": "bytes32",
                  "name": "ipfsHash",
                  "type": "bytes32"
                },
                {
                  "internalType": "address payable",
                  "name": "seller",
                  "type": "address"
                },
                {
                  "internalType": "address payable",
                  "name": "stakeOwner",
                  "type": "address"
                },
                {
                  "internalType": "uint256",
                  "name": "stakedAmount",
                  "type": "uint256"
                },
                {
                  "internalType": "uint256",
                  "name": "commissionPercentage",
                  "type": "uint256"
                },
                {
                  "internalType": "uint256",
                  "name": "warranty",
                  "type": "uint256"
                },
                {
                  "internalType": "uint256",
                  "name": "cashbackPercentage",
                  "type": "uint256"
                },
                {
                  "internalType": "uint256",
                  "name": "expiration",
                  "type": "uint256"
                }
              ],
              "internalType": "struct Dagora.Listing",
              "name": "listing",
              "type": "tuple"
            },
            {
              "internalType": "address payable",
              "name": "buyer",
              "type": "address"
            },
            {
              "internalType": "address payable",
              "name": "commissioner",
              "type": "address"
            },
            {
              "internalType": "contract ERC20",
              "name": "token",
              "type": "address"
            },
            {
              "internalType": "uint256",
              "name": "total",
              "type": "uint256"
            },
            {
              "internalType": "uint256",
              "name": "shippingCost",
              "type": "uint256"
            },
            {
              "internalType": "uint256",
              "name": "expiration",
              "type": "uint256"
            },
            {
              "internalType": "uint256",
              "name": "confirmationTimeout",
              "type": "uint256"
            }
          ],
          "internalType": "struct Dagora.Order",
          "name": "_order",
          "type": "tuple"
        }
      ],
      "name": "disputeTransaction",
      "outputs": [
        {
          "internalType": "bytes32",
          "name": "hash",
          "type": "bytes32"
        }
      ],
      "stateMutability": "payable",
      "type": "function",
      "payable": true
    },
    {
      "inputs": [
        {
          "internalType": "bytes32",
          "name": "",
          "type": "bytes32"
        }
      ],
      "name": "disputes",
      "outputs": [
        {
          "internalType": "address payable",
          "name": "prosecution",
          "type": "address"
        },
        {
          "internalType": "address payable",
          "name": "defendant",
          "type": "address"
        },
        {
          "internalType": "uint256",
          "name": "amount",
          "type": "uint256"
        },
        {
          "internalType": "contract ERC20",
          "name": "token",
          "type": "address"
        },
        {
          "internalType": "uint256",
          "name": "prosecutionFee",
          "type": "uint256"
        },
        {
          "internalType": "uint256",
          "name": "defendantFee",
          "type": "uint256"
        },
        {
          "internalType": "enum Dagora.DisputeType",
          "name": "disputeType",
          "type": "uint8"
        },
        {
          "internalType": "uint256",
          "name": "lastInteraction",
          "type": "uint256"
        },
        {
          "internalType": "uint256",
          "name": "metaEvidenceId",
          "type": "uint256"
        },
        {
          "internalType": "uint256",
          "name": "disputeId",
          "type": "uint256"
        },
        {
          "internalType": "enum Dagora.DisputeStatus",
          "name": "status",
          "type": "uint8"
        }
      ],
      "stateMutability": "view",
      "type": "function",
      "constant": true
    },
    {
      "inputs": [
        {
          "components": [
            {
              "components": [
                {
                  "internalType": "bytes32",
                  "name": "ipfsHash",
                  "type": "bytes32"
                },
                {
                  "internalType": "address payable",
                  "name": "seller",
                  "type": "address"
                },
                {
                  "internalType": "address payable",
                  "name": "stakeOwner",
                  "type": "address"
                },
                {
                  "internalType": "uint256",
                  "name": "stakedAmount",
                  "type": "uint256"
                },
                {
                  "internalType": "uint256",
                  "name": "commissionPercentage",
                  "type": "uint256"
                },
                {
                  "internalType": "uint256",
                  "name": "warranty",
                  "type": "uint256"
                },
                {
                  "internalType": "uint256",
                  "name": "cashbackPercentage",
                  "type": "uint256"
                },
                {
                  "internalType": "uint256",
                  "name": "expiration",
                  "type": "uint256"
                }
              ],
              "internalType": "struct Dagora.Listing",
              "name": "listing",
              "type": "tuple"
            },
            {
              "internalType": "address payable",
              "name": "buyer",
              "type": "address"
            },
            {
              "internalType": "address payable",
              "name": "commissioner",
              "type": "address"
            },
            {
              "internalType": "contract ERC20",
              "name": "token",
              "type": "address"
            },
            {
              "internalType": "uint256",
              "name": "total",
              "type": "uint256"
            },
            {
              "internalType": "uint256",
              "name": "shippingCost",
              "type": "uint256"
            },
            {
              "internalType": "uint256",
              "name": "expiration",
              "type": "uint256"
            },
            {
              "internalType": "uint256",
              "name": "confirmationTimeout",
              "type": "uint256"
            }
          ],
          "internalType": "struct Dagora.Order",
          "name": "_order",
          "type": "tuple"
        }
      ],
      "name": "executeTransaction",
      "outputs": [],
      "stateMutability": "nonpayable",
      "type": "function"
    },
    {
      "inputs": [],
      "name": "feeTimeout",
      "outputs": [
        {
          "internalType": "uint256",
          "name": "",
          "type": "uint256"
        }
      ],
      "stateMutability": "view",
      "type": "function",
      "constant": true
    },
    {
      "inputs": [
        {
          "internalType": "address",
          "name": "addr",
          "type": "address"
        }
      ],
      "name": "grantAuthentication",
      "outputs": [],
      "stateMutability": "nonpayable",
      "type": "function"
    },
    {
      "inputs": [],
      "name": "ipfsDomain",
      "outputs": [
        {
          "internalType": "string",
          "name": "",
          "type": "string"
        }
      ],
      "stateMutability": "view",
      "type": "function",
      "constant": true
    },
    {
      "inputs": [],
      "name": "marketToken",
      "outputs": [
        {
          "internalType": "contract ERC20Burnable",
          "name": "",
          "type": "address"
        }
      ],
      "stateMutability": "view",
      "type": "function",
      "constant": true
    },
    {
      "inputs": [],
      "name": "metaEvidenceCount",
      "outputs": [
        {
          "internalType": "uint256",
          "name": "",
          "type": "uint256"
        }
      ],
      "stateMutability": "view",
      "type": "function",
      "constant": true
    },
    {
      "inputs": [],
      "name": "orderExtraData",
      "outputs": [
        {
          "internalType": "bytes",
          "name": "",
          "type": "bytes"
        }
      ],
      "stateMutability": "view",
      "type": "function",
      "constant": true
    },
    {
      "inputs": [],
      "name": "owner",
      "outputs": [
        {
          "internalType": "address",
          "name": "",
          "type": "address"
        }
      ],
      "stateMutability": "view",
      "type": "function",
      "constant": true
    },
    {
      "inputs": [
        {
          "internalType": "bytes32",
          "name": "hash",
          "type": "bytes32"
        }
      ],
      "name": "payArbitrationFee",
      "outputs": [],
      "stateMutability": "payable",
      "type": "function",
      "payable": true
    },
    {
      "inputs": [],
      "name": "protocolFeePercentage",
      "outputs": [
        {
          "internalType": "uint256",
          "name": "",
          "type": "uint256"
        }
      ],
      "stateMutability": "view",
      "type": "function",
      "constant": true
    },
    {
      "inputs": [],
      "name": "protocolFeeRecipient",
      "outputs": [
        {
          "internalType": "address",
          "name": "",
          "type": "address"
        }
      ],
      "stateMutability": "view",
      "type": "function",
      "constant": true
    },
    {
      "inputs": [],
      "name": "renounceOwnership",
      "outputs": [],
      "stateMutability": "nonpayable",
      "type": "function"
    },
    {
      "inputs": [
        {
          "components": [
            {
              "internalType": "bytes32",
              "name": "ipfsHash",
              "type": "bytes32"
            },
            {
              "internalType": "address payable",
              "name": "seller",
              "type": "address"
            },
            {
              "internalType": "address payable",
              "name": "stakeOwner",
              "type": "address"
            },
            {
              "internalType": "uint256",
              "name": "stakedAmount",
              "type": "uint256"
            },
            {
              "internalType": "uint256",
              "name": "commissionPercentage",
              "type": "uint256"
            },
            {
              "internalType": "uint256",
              "name": "warranty",
              "type": "uint256"
            },
            {
              "internalType": "uint256",
              "name": "cashbackPercentage",
              "type": "uint256"
            },
            {
              "internalType": "uint256",
              "name": "expiration",
              "type": "uint256"
            }
          ],
          "internalType": "struct Dagora.Listing",
          "name": "_listing",
          "type": "tuple"
        },
        {
          "components": [
            {
              "internalType": "uint8",
              "name": "v",
              "type": "uint8"
            },
            {
              "internalType": "bytes32",
              "name": "r",
              "type": "bytes32"
            },
            {
              "internalType": "bytes32",
              "name": "s",
              "type": "bytes32"
            }
          ],
          "internalType": "struct Dagora.Sig",
          "name": "sig",
          "type": "tuple"
        }
      ],
      "name": "report",
      "outputs": [
        {
          "internalType": "bytes32",
          "name": "hash",
          "type": "bytes32"
        }
      ],
      "stateMutability": "payable",
      "type": "function",
      "payable": true
    },
    {
      "inputs": [],
      "name": "reportExtraData",
      "outputs": [
        {
          "internalType": "bytes",
          "name": "",
          "type": "bytes"
        }
      ],
      "stateMutability": "view",
      "type": "function",
      "constant": true
    },
    {
      "inputs": [
        {
          "internalType": "address",
          "name": "addr",
          "type": "address"
        }
      ],
      "name": "revokeAuthentication",
      "outputs": [],
      "stateMutability": "nonpayable",
      "type": "function"
    },
    {
      "inputs": [
        {
          "internalType": "uint256",
          "name": "_disputeID",
          "type": "uint256"
        },
        {
          "internalType": "uint256",
          "name": "_ruling",
          "type": "uint256"
        }
      ],
      "name": "rule",
      "outputs": [],
      "stateMutability": "nonpayable",
      "type": "function"
    },
    {
      "inputs": [
        {
          "internalType": "address",
          "name": "",
          "type": "address"
        }
      ],
      "name": "sellers",
      "outputs": [
        {
          "internalType": "uint256",
          "name": "balance",
          "type": "uint256"
        },
        {
          "internalType": "uint256",
          "name": "lockedTokens",
          "type": "uint256"
        },
        {
          "internalType": "uint256",
          "name": "blackListExpire",
          "type": "uint256"
        }
      ],
      "stateMutability": "view",
      "type": "function",
      "constant": true
    },
    {
      "inputs": [
        {
          "internalType": "bytes32",
          "name": "_hash",
          "type": "bytes32"
        },
        {
          "internalType": "string",
          "name": "_evidence",
          "type": "string"
        }
      ],
      "name": "submitEvidence",
      "outputs": [],
      "stateMutability": "nonpayable",
      "type": "function"
    },
    {
      "inputs": [],
      "name": "tokenOwnerFeePercentage",
      "outputs": [
        {
          "internalType": "uint256",
          "name": "",
          "type": "uint256"
        }
      ],
      "stateMutability": "view",
      "type": "function",
      "constant": true
    },
    {
      "inputs": [
        {
          "internalType": "bytes32",
          "name": "",
          "type": "bytes32"
        }
      ],
      "name": "transactions",
      "outputs": [
        {
          "internalType": "uint256",
          "name": "lastStatusUpdate",
          "type": "uint256"
        },
        {
          "internalType": "uint256",
          "name": "refund",
          "type": "uint256"
        },
        {
          "internalType": "enum Dagora.Status",
          "name": "status",
          "type": "uint8"
        }
      ],
      "stateMutability": "view",
      "type": "function",
      "constant": true
    },
    {
      "inputs": [
        {
          "internalType": "address",
          "name": "newOwner",
          "type": "address"
        }
      ],
      "name": "transferOwnership",
      "outputs": [],
      "stateMutability": "nonpayable",
      "type": "function"
    },
    {
      "inputs": [
        {
          "components": [
            {
              "components": [
                {
                  "internalType": "bytes32",
                  "name": "ipfsHash",
                  "type": "bytes32"
                },
                {
                  "internalType": "address payable",
                  "name": "seller",
                  "type": "address"
                },
                {
                  "internalType": "address payable",
                  "name": "stakeOwner",
                  "type": "address"
                },
                {
                  "internalType": "uint256",
                  "name": "stakedAmount",
                  "type": "uint256"
                },
                {
                  "internalType": "uint256",
                  "name": "commissionPercentage",
                  "type": "uint256"
                },
                {
                  "internalType": "uint256",
                  "name": "warranty",
                  "type": "uint256"
                },
                {
                  "internalType": "uint256",
                  "name": "cashbackPercentage",
                  "type": "uint256"
                },
                {
                  "internalType": "uint256",
                  "name": "expiration",
                  "type": "uint256"
                }
              ],
              "internalType": "struct Dagora.Listing",
              "name": "listing",
              "type": "tuple"
            },
            {
              "internalType": "address payable",
              "name": "buyer",
              "type": "address"
            },
            {
              "internalType": "address payable",
              "name": "commissioner",
              "type": "address"
            },
            {
              "internalType": "contract ERC20",
              "name": "token",
              "type": "address"
            },
            {
              "internalType": "uint256",
              "name": "total",
              "type": "uint256"
            },
            {
              "internalType": "uint256",
              "name": "shippingCost",
              "type": "uint256"
            },
            {
              "internalType": "uint256",
              "name": "expiration",
              "type": "uint256"
            },
            {
              "internalType": "uint256",
              "name": "confirmationTimeout",
              "type": "uint256"
            }
          ],
          "internalType": "struct Dagora.Order",
          "name": "_order",
          "type": "tuple"
        },
        {
          "internalType": "uint256",
          "name": "refund",
          "type": "uint256"
        }
      ],
      "name": "updateRefund",
      "outputs": [],
      "stateMutability": "nonpayable",
      "type": "function"
    },
    {
      "inputs": [
        {
          "internalType": "uint256",
          "name": "value",
          "type": "uint256"
        }
      ],
      "name": "withdrawTokens",
      "outputs": [],
      "stateMutability": "nonpayable",
      "type": "function"
    },
    {
      "inputs": [
        {
          "components": [
            {
              "internalType": "bytes32",
              "name": "ipfsHash",
              "type": "bytes32"
            },
            {
              "internalType": "address payable",
              "name": "seller",
              "type": "address"
            },
            {
              "internalType": "address payable",
              "name": "stakeOwner",
              "type": "address"
            },
            {
              "internalType": "uint256",
              "name": "stakedAmount",
              "type": "uint256"
            },
            {
              "internalType": "uint256",
              "name": "commissionPercentage",
              "type": "uint256"
            },
            {
              "internalType": "uint256",
              "name": "warranty",
              "type": "uint256"
            },
            {
              "internalType": "uint256",
              "name": "cashbackPercentage",
              "type": "uint256"
            },
            {
              "internalType": "uint256",
              "name": "expiration",
              "type": "uint256"
            }
          ],
          "internalType": "struct Dagora.Listing",
          "name": "_listing",
          "type": "tuple"
        },
        {
          "components": [
            {
              "internalType": "uint8",
              "name": "v",
              "type": "uint8"
            },
            {
              "internalType": "bytes32",
              "name": "r",
              "type": "bytes32"
            },
            {
              "internalType": "bytes32",
              "name": "s",
              "type": "bytes32"
            }
          ],
          "internalType": "struct Dagora.Sig",
          "name": "sig",
          "type": "tuple"
        }
      ],
      "name": "_requireValidListing",
      "outputs": [
        {
          "internalType": "bool",
          "name": "",
          "type": "bool"
        }
      ],
      "stateMutability": "view",
      "type": "function",
      "constant": true
    },
    {
      "inputs": [
        {
          "components": [
            {
              "internalType": "bytes32",
              "name": "ipfsHash",
              "type": "bytes32"
            },
            {
              "internalType": "address payable",
              "name": "seller",
              "type": "address"
            },
            {
              "internalType": "address payable",
              "name": "stakeOwner",
              "type": "address"
            },
            {
              "internalType": "uint256",
              "name": "stakedAmount",
              "type": "uint256"
            },
            {
              "internalType": "uint256",
              "name": "commissionPercentage",
              "type": "uint256"
            },
            {
              "internalType": "uint256",
              "name": "warranty",
              "type": "uint256"
            },
            {
              "internalType": "uint256",
              "name": "cashbackPercentage",
              "type": "uint256"
            },
            {
              "internalType": "uint256",
              "name": "expiration",
              "type": "uint256"
            }
          ],
          "internalType": "struct Dagora.Listing",
          "name": "listing",
          "type": "tuple"
        }
      ],
      "name": "_hashListing",
      "outputs": [
        {
          "internalType": "bytes32",
          "name": "hash",
          "type": "bytes32"
        }
      ],
      "stateMutability": "pure",
      "type": "function",
      "constant": true
    },
    {
      "inputs": [
        {
          "components": [
            {
              "internalType": "bytes32",
              "name": "ipfsHash",
              "type": "bytes32"
            },
            {
              "internalType": "address payable",
              "name": "seller",
              "type": "address"
            },
            {
              "internalType": "address payable",
              "name": "stakeOwner",
              "type": "address"
            },
            {
              "internalType": "uint256",
              "name": "stakedAmount",
              "type": "uint256"
            },
            {
              "internalType": "uint256",
              "name": "commissionPercentage",
              "type": "uint256"
            },
            {
              "internalType": "uint256",
              "name": "warranty",
              "type": "uint256"
            },
            {
              "internalType": "uint256",
              "name": "cashbackPercentage",
              "type": "uint256"
            },
            {
              "internalType": "uint256",
              "name": "expiration",
              "type": "uint256"
            }
          ],
          "internalType": "struct Dagora.Listing",
          "name": "listing",
          "type": "tuple"
        }
      ],
      "name": "_hashListingToSign",
      "outputs": [
        {
          "internalType": "bytes32",
          "name": "hash",
          "type": "bytes32"
        }
      ],
      "stateMutability": "pure",
      "type": "function",
      "constant": true
    },
    {
      "inputs": [
        {
          "internalType": "bytes32",
          "name": "msgHash",
          "type": "bytes32"
        },
        {
          "components": [
            {
              "internalType": "uint8",
              "name": "v",
              "type": "uint8"
            },
            {
              "internalType": "bytes32",
              "name": "r",
              "type": "bytes32"
            },
            {
              "internalType": "bytes32",
              "name": "s",
              "type": "bytes32"
            }
          ],
          "internalType": "struct Dagora.Sig",
          "name": "sig",
          "type": "tuple"
        }
      ],
      "name": "_ecrecover",
      "outputs": [
        {
          "internalType": "address",
          "name": "",
          "type": "address"
        }
      ],
      "stateMutability": "pure",
      "type": "function",
      "constant": true
    }
  ],
  "bytecode": "0x60806040523480156200001157600080fd5b5060405162004e2e38038062004e2e8339810160408190526200003491620002bb565b898989898989898989896000620000536001600160e01b036200014f16565b600080546001600160a01b0319166001600160a01b0383169081178255604051929350917f8be0079c531659141344cd1fd0a4f28419497f9722a3daafe3b4186f6b6457e0908290a350600780546001600160a01b03808d166001600160a01b031992831617909255600e80548c841690831617905560138054928b169290911691909117905562015180808802600b558602600a556011859055601284905582516200010890600890602086019062000154565b5081516200011e90600990602085019062000154565b5080516200013490601090602084019062000154565b505050505050505050505050505050505050505050620003ab565b335b90565b828054600181600116156101000203166002900490600052602060002090601f016020900481019282601f106200019757805160ff1916838001178555620001c7565b82800160010185558215620001c7579182015b82811115620001c7578251825591602001919060010190620001aa565b50620001d5929150620001d9565b5090565b6200015191905b80821115620001d55760008155600101620001e0565b80516001600160a01b03811681146200020e57600080fd5b92915050565b600082601f83011262000225578081fd5b81516001600160401b03808211156200023c578283fd5b6040516020601f8401601f19168201810183811183821017156200025e578586fd5b806040525081945083825286818588010111156200027b57600080fd5b600092505b838310156200029f578583018101518284018201529182019162000280565b83831115620002b15760008185840101525b5050505092915050565b6000806000806000806000806000806101408b8d031215620002db578586fd5b620002e78c8c620001f6565b9950620002f88c60208d01620001f6565b9850620003098c60408d01620001f6565b975060608b0151965060808b0151955060a08b0151945060c08b0151935060e08b015160018060401b038082111562000340578485fd5b6200034e8e838f0162000214565b94506101008d015191508082111562000365578384fd5b620003738e838f0162000214565b93506101208d01519150808211156200038a578283fd5b50620003998d828e0162000214565b9150509295989b9194979a5092959850565b614a7380620003bb6000396000f3fe6080604052600436106102725760003560e01c806381fd4fd71161014f578063b6398667116100c1578063db88d5ea1161007a578063db88d5ea14610715578063dd49756e14610735578063ece1de4414610755578063ee7269d714610768578063f2fde38b1461077d578063f48a0b311461079d57610272565b8063b639866714610678578063ba4bc7631461068d578063be6a18ef146106ad578063c23f001f146106c0578063cae6047f146106e0578063d1fcfdb8146106f557610272565b8063a0c59ef311610113578063a0c59ef3146105d7578063a2031de4146105ec578063a3f2965d1461060e578063a66f1a721461062e578063ad48d6111461064e578063b329036b1461066357610272565b806381fd4fd71461055a57806382ad5f751461057a57806387bd84cc1461058d5780638da5cb5b146105ad5780638e50e509146105c257610272565b8063642f2eaf116101e85780636ce8b5d7116101ac5780636ce8b5d7146104a35780636d47ab72146104c357806370d8ddc8146104f2578063715018a61461050557806372fc42131461051a5780638076f0051461053a57610272565b8063642f2eaf146103fd57806364df049e1461042c57806369dc9ff31461044e5780636b83a0611461046e5780636cc6cde11461048e57610272565b8063311a6c561161023a578063311a6c5614610353578063315a095d146103735780634140a5eb146103935780634f92352f146103a857806353376d1f146103c85780635af79807146103e857610272565b806311be1997146102775780631459d3e2146102b757806317be14d4146102e4578063203ab1741461031157806330d7a36814610331575b600080fd5b34801561028357600080fd5b506102976102923660046139f2565b6107bd565b6040516102ae9b9a99989796959493929190613e47565b60405180910390f35b3480156102c357600080fd5b506102d76102d2366004613b14565b61082a565b6040516102ae9190613eff565b3480156102f057600080fd5b506103046102ff366004613b30565b6108f0565b6040516102ae9190613f0a565b34801561031d57600080fd5b5061030461032c366004613acb565b610a94565b34801561033d57600080fd5b5061035161034c366004613b14565b610aa5565b005b34801561035f57600080fd5b5061035161036e366004613bbc565b610c26565b34801561037f57600080fd5b5061035161038e3660046139f2565b610d38565b34801561039f57600080fd5b50610304610e51565b3480156103b457600080fd5b506103046103c3366004613acb565b610e57565b3480156103d457600080fd5b506103516103e336600461397e565b610e62565b3480156103f457600080fd5b50610304610ee0565b34801561040957600080fd5b5061041d6104183660046139f2565b610ee6565b6040516102ae93929190614921565b34801561043857600080fd5b50610441610f0a565b6040516102ae9190613df2565b34801561045a57600080fd5b506102d761046936600461397e565b610f19565b34801561047a57600080fd5b506102d7610489366004613acb565b610f2e565b34801561049a57600080fd5b5061044161101e565b3480156104af57600080fd5b506103516104be366004613b78565b61102d565b3480156104cf57600080fd5b506104e36104de36600461397e565b611142565b6040516102ae93929190614947565b610304610500366004613b14565b611162565b34801561051157600080fd5b506103516113e5565b34801561052657600080fd5b506103516105353660046139f2565b611464565b34801561054657600080fd5b506102d76105553660046139f2565b611621565b34801561056657600080fd5b506102d7610575366004613ae7565b611636565b610304610588366004613ae7565b61164b565b34801561059957600080fd5b506102d76105a83660046139f2565b611934565b3480156105b957600080fd5b50610441611949565b3480156105ce57600080fd5b50610304611958565b3480156105e357600080fd5b5061030461195e565b3480156105f857600080fd5b50610601611964565b6040516102ae9190613f31565b34801561061a57600080fd5b50610351610629366004613b14565b6119f2565b34801561063a57600080fd5b50610441610649366004613a9f565b611b19565b34801561065a57600080fd5b50610441611b7e565b34801561066f57600080fd5b50610304611b8d565b34801561068457600080fd5b50610601611b93565b34801561069957600080fd5b506103046106a83660046139f2565b611bee565b6103516106bb3660046139f2565b611c00565b3480156106cc57600080fd5b506103046106db36600461399a565b611e61565b3480156106ec57600080fd5b50610304611e7e565b34801561070157600080fd5b5061035161071036600461397e565b611e84565b34801561072157600080fd5b50610351610730366004613b14565b611f2b565b34801561074157600080fd5b506103516107503660046139f2565b612028565b6103516107633660046139f2565b612107565b34801561077457600080fd5b506106016121b6565b34801561078957600080fd5b5061035161079836600461397e565b612211565b3480156107a957600080fd5b506103516107b8366004613a0a565b6122c7565b600560208190526000918252604090912080546001820154600283015460038401546004850154958501546006860154600787015460088801546009890154600a909901546001600160a01b039889169a9789169996989095169695939460ff938416949293919291168b565b600081602001516001600160a01b0316336001600160a01b03161461086a5760405162461bcd60e51b81526004016108619061444d565b60405180910390fd5b6000610875836123cb565b60008181526003602052604090205490915060ff16156108a75760405162461bcd60e51b815260040161086190614029565b600081815260036020526040808220805460ff191660011790555182917f0bed755d9d22259660bf623a395b620bbff2af67319e990b538dc8603bdc3e5f91a250600192915050565b60006108fd8484846123de565b90506000808281526004602052604090206002015460ff16600581111561092057fe5b1461093d5760405162461bcd60e51b815260040161086190614738565b60008460a00151856080015101905084606001516001600160a01b03166323b872dd866020015130846040518463ffffffff1660e01b815260040161098493929190613ec2565b602060405180830381600087803b15801561099e57600080fd5b505af11580156109b2573d6000803e3d6000fd5b505050506040513d601f19601f820116820180604052508101906109d691906139d2565b6109f25760405162461bcd60e51b8152600401610861906147af565b600082815260046020908152604091829020428155600201805460ff1916600117905586518082015191880151818401518985015160608b0151608085015160c09095015160e08d015197516001600160a01b039788169895909716968a967fe419a7cfec7b19a58f8ef66dbf85dd08b396bafa0e2f94b3181fd3d047cb748196610a84969594938c93909190613e06565b60405180910390a4509392505050565b6000610a9f82612448565b92915050565b6000610ab0826123cb565b60008181526004602052604090209091506001600282015460ff166005811115610ad657fe5b1480610af3575060028082015460ff166005811115610af157fe5b145b80610b1057506003600282015460ff166005811115610b0e57fe5b145b610b2c5760405162461bcd60e51b8152600401610861906141b7565b60006001600283015460ff166005811115610b4357fe5b1480610b6157506003600283015460ff166005811115610b5f57fe5b145b15610b9957428460e00151620151800283600001540111610b945760405162461bcd60e51b8152600401610861906140eb565b610bcf565b835160a00151825442620151809092020111610bc75760405162461bcd60e51b8152600401610861906140eb565b50825160c001515b6000610be385608001518660a00151612456565b9050610c1f84866020015187600001516020015188604001518960000151604001518a60600151878a600101548d60000151608001518b61247b565b5050505050565b60008281526006602090815260408083205480845260059092529091206007546001600160a01b03163314610c6d5760405162461bcd60e51b81526004016108619061476d565b6003600a82015460ff166004811115610c8257fe5b14610c9f5760405162461bcd60e51b815260040161086190613fe3565b83336001600160a01b03167f394027a5fa6e098a1191094d1719d6929b9abc535fcc0c8f448d6a4e7562227685604051610cd99190613f0a565b60405180910390a36001600682015460ff166002811115610cf657fe5b1415610d0b57610d0681846128b1565b610d32565b610d158184612c0f565b6000828152600460205260409020600201805460ff191660051790555b50505050565b33600090815260016020819052604090912090810154815403821115610d705760405162461bcd60e51b815260040161086190613f6b565b600e546040516323b872dd60e01b81526001600160a01b03909116906323b872dd90610da490339030908790600401613ec2565b602060405180830381600087803b158015610dbe57600080fd5b505af1158015610dd2573d6000803e3d6000fd5b505050506040513d601f19601f82011682018060405250810190610df691906139d2565b610dff57600080fd5b336000818152600160205260409081902080548590039055517f05e8d4927d2e9cff8a7d6f1c0c3b0fdd4d7299da00fe4911745bda49a5834e6790610e45908590613f0a565b60405180910390a25050565b60125481565b6000610a9f8261304c565b610e6a6130a4565b6000546001600160a01b03908116911614610e975760405162461bcd60e51b815260040161086190614418565b6001600160a01b0381166000818152600c6020526040808220805460ff19169055517f45f62f30e7b8439e0da7d8e560fe39d01238091ce9e789e3d12b514edf98acea9190a250565b600f5481565b60046020526000908152604090208054600182015460029092015490919060ff1683565b6013546001600160a01b031681565b600c6020526000908152604090205460ff1681565b600081604001516001600160a01b0316336001600160a01b031614610f655760405162461bcd60e51b815260040161086190614533565b6060820151336000908152600160205260409020541015610f985760405162461bcd60e51b815260040161086190614266565b6000610fa383612448565b60008181526003602052604090205490915060ff1615610fd55760405162461bcd60e51b815260040161086190614029565b600081815260036020526040808220805460ff191660011790555182917f4e58c75167b3bff3ab3949a55f72203f341f94cca1c2c0c84370731b2b4c201791a250600192915050565b6007546001600160a01b031681565b8151602001516001600160a01b0316331461105a5760405162461bcd60e51b81526004016108619061422f565b6000611065836123cb565b60008181526004602052604090209091506001600282015460ff16600581111561108b57fe5b146110a85760405162461bcd60e51b8152600401610861906141b7565b8360e0015162015180028160000154014211156110d75760405162461bcd60e51b8152600401610861906144fe565b83608001518311156110fb5760405162461bcd60e51b8152600401610861906144bb565b828160010181905550817fe18fe462037a62d3500e07f2b32d9e16a69cee44850c9b7dcef7d856087e4aff846040516111349190613f0a565b60405180910390a250505050565b600160208190526000918252604090912080549181015460029091015483565b600061116d826123cb565b60008181526004602052604090209091506001600282015460ff16600581111561119357fe5b14806111b157506003600282015460ff1660058111156111af57fe5b145b6111cd5760405162461bcd60e51b8152600401610861906141b7565b8260e0015162015180028160000154014211156111fc5760405162461bcd60e51b8152600401610861906144fe565b60075460405163f7434ea960e01b81526000916001600160a01b03169063f7434ea99061122e90600890600401613f44565b60206040518083038186803b15801561124657600080fd5b505afa15801561125a573d6000803e3d6000fd5b505050506040513d601f19601f8201168201806040525081019061127e9190613ba4565b9050803410156112a05760405162461bcd60e51b815260040161086190614600565b6000806001600285015460ff1660058111156112b857fe5b14156113065785602001516001600160a01b0316336001600160a01b0316146112f35760405162461bcd60e51b815260040161086190614328565b5050602080850151855190910151611342565b8551602001516001600160a01b031633146113335760405162461bcd60e51b81526004016108619061435f565b50506020808501518551909101515b6002848101805460ff191660041790554285556080870151606088015160009261137592899287928792919034906130a8565b905080600801547f61606860eb6c87306811e2695215385101daab53bd6ab4e9f9049aead9363c7d60108960000151600001516040516020016113b9929190613d49565b60408051601f19818403018152908290526113d391613f31565b60405180910390a25050505050919050565b6113ed6130a4565b6000546001600160a01b0390811691161461141a5760405162461bcd60e51b815260040161086190614418565b600080546040516001600160a01b03909116907f8be0079c531659141344cd1fd0a4f28419497f9722a3daafe3b4186f6b6457e0908390a3600080546001600160a01b0319169055565b6000818152600560205260409020600a81015460ff16600481111561148557fe5b60001080156114a657506003600a82015460ff1660048111156114a457fe5b105b6114c25760405162461bcd60e51b81526004016108619061429d565b600b548160070154420310156114ea5760405162461bcd60e51b8152600401610861906140eb565b6000816004015460001461156857600482018054600090915582546040516001600160a01b0390911690829061151f90613def565b60006040518083038185875af1925050503d806000811461155c576040519150601f19603f3d011682016040523d82523d6000602084013e611561565b606091505b5090925050505b6005820154156115e557600582018054600090915560018301546040516001600160a01b0390911690829061159c90613def565b60006040518083038185875af1925050503d80600081146115d9576040519150601f19603f3d011682016040523d82523d6000602084013e6115de565b606091505b5090925050505b6002600a83015460ff1660048111156115fa57fe5b14156116115761160c8260015b6128b1565b61161c565b61161c826002611607565b505050565b60026020526000908152604090205460ff1681565b600061164283836131b7565b15159392505050565b600061165783836131b7565b9050600080828152600560205260409020600a015460ff16600481111561167a57fe5b146116975760405162461bcd60e51b8152600401610861906143d7565b82604001516001600160a01b0316336001600160a01b031614156116cd5760405162461bcd60e51b8152600401610861906148a4565b60075460405163f7434ea960e01b81526000916001600160a01b03169063f7434ea9906116ff90600890600401613f44565b60206040518083038186803b15801561171757600080fd5b505afa15801561172b573d6000803e3d6000fd5b505050506040513d601f19601f8201168201806040525081019061174f9190613ba4565b9050803410156117715760405162461bcd60e51b815260040161086190614600565b336000908152600160205260409020600281015442116117a35760405162461bcd60e51b8152600401610861906145b9565b6001810154815460608701519190039081101561187357600e5460608701516040516323b872dd60e01b81526001600160a01b03909216916323b872dd916117f691339130919087900390600401613ec2565b602060405180830381600087803b15801561181057600080fd5b505af1158015611824573d6000803e3d6000fd5b505050506040513d601f19601f8201168201806040525081019061184891906139d2565b6118645760405162461bcd60e51b8152600401610861906147f0565b60608601518254908290030182555b604080870180516001600160a01b0390811660009081526001602081905293812060608b01518786018054820190558186018054820190559351600e54919592946118c7948b9433949091169034906130a8565b905080600801547f61606860eb6c87306811e2695215385101daab53bd6ab4e9f9049aead9363c7d60108a60000151604051602001611907929190613d49565b60408051601f198184030181529082905261192191613f31565b60405180910390a2505050505092915050565b60036020526000908152604090205460ff1681565b6000546001600160a01b031690565b60115481565b600a5481565b6010805460408051602060026001851615610100026000190190941693909304601f810184900484028201840190925281815292918301828280156119ea5780601f106119bf576101008083540402835291602001916119ea565b820191906000526020600020905b8154815290600101906020018083116119cd57829003601f168201915b505050505081565b60006119fd826123cb565b60008181526004602052604090209091506001600282015460ff166005811115611a2357fe5b148015611a45575082602001516001600160a01b0316336001600160a01b0316145b80611a7a57506003600282015460ff166005811115611a6057fe5b148015611a7a57508251602001516001600160a01b031633145b611a965760405162461bcd60e51b81526004016108619061464a565b6001810154158015611aac5750825160a0015115155b15611ac9576002818101805460ff1916909117905542815561161c565b6000611add84608001518560a00151612456565b6020808601518651918201516040808901519084015160608a01516001890154608087015160c090970151979850610d32978b978a929161247b565b600060018383600001518460200151856040015160405160008152602001604052604051611b4a9493929190613f13565b6020604051602081039080840390855afa158015611b6c573d6000803e3d6000fd5b5050604051601f190151949350505050565b600e546001600160a01b031681565b600b5481565b6009805460408051602060026001851615610100026000190190941693909304601f810184900484028201840190925281815292918301828280156119ea5780601f106119bf576101008083540402835291602001916119ea565b60066020526000908152604090205481565b600081815260056020526040808220600754915163f7434ea960e01b81529092916001600160a01b03169063f7434ea990611c4090600890600401613f44565b60206040518083038186803b158015611c5857600080fd5b505afa158015611c6c573d6000803e3d6000fd5b505050506040513d601f19601f82011682018060405250810190611c909190613ba4565b600a83015490915060ff166004811115611ca657fe5b6000108015611cc757506003600a83015460ff166004811115611cc557fe5b105b611ce35760405162461bcd60e51b815260040161086190613fa2565b81546001600160a01b0316331480611d07575060018201546001600160a01b031633145b611d235760405162461bcd60e51b815260040161086190614484565b81546001600160a01b0316331415611dcb57600482018054340190819055811115611d605760405162461bcd60e51b8152600401610861906141de565b4260078301556005820154811115611dc157600a8201805460ff1916600217905560405183907ff972c77402d0ee7d94e4b2ea7cee21a3d392136bf7c9b72d2dc85e2a4d24a9cf90611db490600190613f57565b60405180910390a261160c565b61160c83826131ec565b600582018054340190819055811115611df65760405162461bcd60e51b8152600401610861906141de565b4260078301556004820154811115611e5757600a8201805460ff1916600117905560405183907ff972c77402d0ee7d94e4b2ea7cee21a3d392136bf7c9b72d2dc85e2a4d24a9cf90611e4a90600090613f57565b60405180910390a261161c565b61161c83826131ec565b600d60209081526000928352604080842090915290825290205481565b61271081565b611e8c6130a4565b6000546001600160a01b03908116911614611eb95760405162461bcd60e51b815260040161086190614418565b6001600160a01b0381166000908152600c602052604090205460ff1615611edf57600080fd5b6001600160a01b0381166000818152600c6020526040808220805460ff19166001179055517f52133ca86a0b20d025852c627bd9d5c8e6037a237d7ef7d22f399ae642e6b9b49190a250565b6000611f36826123cb565b600081815260046020526040902090915060028082015460ff166005811115611f5b57fe5b14611f785760405162461bcd60e51b8152600401610861906141b7565b82602001516001600160a01b0316336001600160a01b031614611fad5760405162461bcd60e51b81526004016108619061470d565b825160a0015181546201518090910201421115611fdc5760405162461bcd60e51b815260040161086190614180565b60028101805460ff191660031790556080830151600182015542815560405182907f99e77d4092287badf5165a76eb7add37ec282650747091906c6a02e0cd4f5b3d90600090a2505050565b600e546040516323b872dd60e01b81526001600160a01b03909116906323b872dd9061205c90339030908690600401613ec2565b602060405180830381600087803b15801561207657600080fd5b505af115801561208a573d6000803e3d6000fd5b505050506040513d601f19601f820116820180604052508101906120ae91906139d2565b6120b757600080fd5b3360008181526001602052604090819020805484019055517fbc7c8a4d8049a3f99a02f2a20640c206a2e4d3f2fa54fd20da9f01fda3620cda906120fc908490613f0a565b60405180910390a250565b60008181526005602052604090206002600682015460ff16600281111561212a57fe5b146121475760405162461bcd60e51b8152600401610861906146c0565b60075460098083015460405163093225f160e31b81526001600160a01b03909316926349912f88923492612180929091906004016148f2565b6000604051808303818588803b15801561219957600080fd5b505af11580156121ad573d6000803e3d6000fd5b50505050505050565b6008805460408051602060026001851615610100026000190190941693909304601f810184900484028201840190925281815292918301828280156119ea5780601f106119bf576101008083540402835291602001916119ea565b6122196130a4565b6000546001600160a01b039081169116146122465760405162461bcd60e51b815260040161086190614418565b6001600160a01b03811661226c5760405162461bcd60e51b8152600401610861906140a5565b600080546040516001600160a01b03808516939216917f8be0079c531659141344cd1fd0a4f28419497f9722a3daafe3b4186f6b6457e091a3600080546001600160a01b0319166001600160a01b0392909216919091179055565b600082815260056020526040902080546001600160a01b03163314806122f9575060018101546001600160a01b031633145b6123155760405162461bcd60e51b815260040161086190614850565b6002600682015460ff16600281111561232a57fe5b146123475760405162461bcd60e51b81526004016108619061456a565b6004600a82015460ff16600481111561235c57fe5b106123795760405162461bcd60e51b815260040161086190614053565b60088101546007546040513392916001600160a01b0316907fdccf2f8b2cc26eafcd61905cba744cff4b81d14740725f6376390dc6298a6a3c906123be908790613f31565b60405180910390a4505050565b6000610a9f6123d983613426565b61346f565b6000806123ea856123cb565b90506123fb8186600001518561349f565b6124175760405162461bcd60e51b815260040161086190614827565b6124228186866135d2565b61243e5760405162461bcd60e51b815260040161086190614699565b90505b9392505050565b6000610a9f6123d98361304c565b6000828201838110156124415760405162461bcd60e51b815260040161086190614149565b6001600160a01b03851661248e57600080fd5b6001600160a01b0385166000908152600c602052604090205460ff166124b357600080fd5b60008a815260046020526040812060028101805460ff191660051790554290556124dd85856136ed565b6011549091501561259f5760006125016124f96011548461372f565b612710613769565b905061250d82826136ed565b60135460405163a9059cbb60e01b81529193506001600160a01b03808a169263a9059cbb926125429216908590600401613ee6565b602060405180830381600087803b15801561255c57600080fd5b505af1158015612570573d6000803e3d6000fd5b505050506040513d601f19601f8201168201806040525081019061259491906139d2565b61259d57600080fd5b505b60006012541180156125c35750866001600160a01b0316896001600160a01b031614155b156126735760006125d96124f96012548461372f565b90506125e582826136ed565b60405163a9059cbb60e01b81529092506001600160a01b0388169063a9059cbb90612616908b908590600401613ee6565b602060405180830381600087803b15801561263057600080fd5b505af1158015612644573d6000803e3d6000fd5b505050506040513d601f19601f8201168201806040525081019061266891906139d2565b61267157600080fd5b505b60008311801561268b57506001600160a01b03881615155b1561273957600061269f6124f9858461372f565b90506126ab82826136ed565b60405163a9059cbb60e01b81529092506001600160a01b0388169063a9059cbb906126dc908c908590600401613ee6565b602060405180830381600087803b1580156126f657600080fd5b505af115801561270a573d6000803e3d6000fd5b505050506040513d601f19601f8201168201806040525081019061272e91906139d2565b61273757600080fd5b505b81156127ea57600061274e6124f9848461372f565b905061275a82826136ed565b60405163a9059cbb60e01b81529092506001600160a01b0388169063a9059cbb9061278d908e90858a0190600401613ee6565b602060405180830381600087803b1580156127a757600080fd5b505af11580156127bb573d6000803e3d6000fd5b505050506040513d601f19601f820116820180604052508101906127df91906139d2565b6127e857600080fd5b505b80156128795760405163a9059cbb60e01b81526001600160a01b0387169063a9059cbb9061281e908c908590600401613ee6565b602060405180830381600087803b15801561283857600080fd5b505af115801561284c573d6000803e3d6000fd5b505050506040513d601f19601f8201168201806040525081019061287091906139d2565b61287957600080fd5b6040518b907f24196ec40f90671b7144e716978686b4f3c7d6b00b23da3971ef2b52af27d87f90600090a25050505050505050505050565b60028111156128d25760405162461bcd60e51b815260040161086190614120565b6002820180546004808501805460058701805460009687905592869055859055600a8701805460ff191690931790925560016020819052808701546001600160a01b0316855292939192909190851415612a2b5785546040516001600160a01b0390911690849061294290613def565b60006040518083038185875af1925050503d806000811461297f576040519150601f19603f3d011682016040523d82523d6000602084013e612984565b606091505b50506001878101546001600160a01b03908116600090815260209290925260408083208054899003905589548216835290912080546002808904909101909155600e549293509116906342966c6890865b0486036040518263ffffffff1660e01b81526004016129f49190613f0a565b600060405180830381600087803b158015612a0e57600080fd5b505af1158015612a22573d6000803e3d6000fd5b50505050612c07565b6002851415612afb5760018601546040516001600160a01b03909116908390612a5390613def565b60006040518083038185875af1925050503d8060008114612a90576040519150601f19603f3d011682016040523d82523d6000602084013e612a95565b606091505b5050600a5487546001600160a01b039081166000908152600160208190526040808320429095016002958601558b548416835280832080548b90039055908b01548316825290208054838904019055600e5492935091909116906342966c6890866129d5565b600186015460405160028504916001600160a01b03169082850390612b1f90613def565b60006040518083038185875af1925050503d8060008114612b5c576040519150601f19603f3d011682016040523d82523d6000602084013e612b61565b606091505b505087546040519193506001600160a01b0316908290612b8090613def565b60006040518083038185875af1925050503d8060008114612bbd576040519150601f19603f3d011682016040523d82523d6000602084013e612bc2565b606091505b505087546001600160a01b039081166000908152600160208190526040808320805460028c0490819003909155918c0154909316825291902080549190910390559150505b505050505050565b6002811115612c305760405162461bcd60e51b815260040161086190614120565b6002820180546004808501805460058701805460009687905592869055859055600a8701805460ff191690931790925591929091906001851415612d7a5785546040516001600160a01b03909116908490612c8a90613def565b60006040518083038185875af1925050503d8060008114612cc7576040519150601f19603f3d011682016040523d82523d6000602084013e612ccc565b606091505b50506003870154875460405163a9059cbb60e01b81529293506001600160a01b039182169263a9059cbb92612d079216908890600401613ee6565b602060405180830381600087803b158015612d2157600080fd5b505af1158015612d35573d6000803e3d6000fd5b505050506040513d601f19601f82011682018060405250810190612d5991906139d2565b612d755760405162461bcd60e51b8152600401610861906142e2565b612c07565b6002851415612e225760018601546040516001600160a01b03909116908390612da290613def565b60006040518083038185875af1925050503d8060008114612ddf576040519150601f19603f3d011682016040523d82523d6000602084013e612de4565b606091505b50506003870154600188015460405163a9059cbb60e01b81529293506001600160a01b039182169263a9059cbb92612d079216908890600401613ee6565b600186015460405160028504916001600160a01b03169082850390612e4690613def565b60006040518083038185875af1925050503d8060008114612e83576040519150601f19603f3d011682016040523d82523d6000602084013e612e88565b606091505b505087546040519193506001600160a01b0316908290612ea790613def565b60006040518083038185875af1925050503d8060008114612ee4576040519150601f19603f3d011682016040523d82523d6000602084013e612ee9565b606091505b50506003880154600189015460405163a9059cbb60e01b815292945060028804926001600160a01b039283169263a9059cbb92612f2f92911690858b0390600401613ee6565b602060405180830381600087803b158015612f4957600080fd5b505af1158015612f5d573d6000803e3d6000fd5b505050506040513d601f19601f82011682018060405250810190612f8191906139d2565b612f9d5760405162461bcd60e51b8152600401610861906142e2565b6003880154885460405163a9059cbb60e01b81526001600160a01b039283169263a9059cbb92612fd4929116908590600401613ee6565b602060405180830381600087803b158015612fee57600080fd5b505af1158015613002573d6000803e3d6000fd5b505050506040513d601f19601f8201168201806040525081019061302691906139d2565b6130425760405162461bcd60e51b8152600401610861906142e2565b5050505050505050565b80516020808301516040808501516060860151608087015160a088015160c089015160e08a01519551600099613086999098979101613cfe565b60408051808303601f19018152919052805160209091012092915050565b3390565b600087815260056020526040902080546001600160a01b038089166001600160a01b031992831617835560018084018054928a1692909316919091179091556002808301879055600483018054860190556006830180548593919260ff199091169190849081111561311657fe5b0217905550600182600281111561312957fe5b141561314d576003810180546001600160a01b0319166001600160a01b0386161790555b600a8101805460ff19166002179055426007820155600f80546001818101909255600883015560405189917ff972c77402d0ee7d94e4b2ea7cee21a3d392136bf7c9b72d2dc85e2a4d24a9cf916131a49190613f57565b60405180910390a2979650505050505050565b6000806131c384612448565b90506131d081858561349f565b6124415760405162461bcd60e51b815260040161086190614827565b6000828152600560205260409020600a810180546003919060ff191660018302179055506007546000906001600160a01b031663c13517e184600280600687015460ff16600281111561323b57fe5b1461324757600861324a565b60095b6040518463ffffffff1660e01b815260040161326792919061495d565b6020604051808303818588803b15801561328057600080fd5b505af1158015613294573d6000803e3d6000fd5b50505050506040513d601f19601f820116820180604052508101906132b99190613ba4565b600081815260066020526040908190208690556007546008850154915192935083926001600160a01b03909116917f74baab670a4015ab2f1b467c5252a96141a2573f2908e58a92081e80d3cfde3d9161331591908190614913565b60405180910390a36000838360040154111561339f5760048301805490859055835460405191869003916001600160a01b0390911690829061335690613def565b60006040518083038185875af1925050503d8060008114613393576040519150601f19603f3d011682016040523d82523d6000602084013e613398565b606091505b5090925050505b8383600501541115610c1f5760058301805490859055600184015460405191869003916001600160a01b039091169082906133d990613def565b60006040518083038185875af1925050503d8060008114613416576040519150601f19603f3d011682016040523d82523d6000602084013e61341b565b606091505b505050505050505050565b60006134358260000151612448565b82602001518360400151846060015185608001518660a001518760c001518860e00151604051602001613086989796959493929190613cab565b6000816040516020016134829190613dbe565b604051602081830303815290604052805190602001209050919050565b60008260e001516000141580156134b957508260e0015142115b156134c657506000612441565b6040808401516001600160a01b03166000908152600160208190529190206060850151918101548154919291031015613503576000915050612441565b60008581526002602052604090205460ff1615613524576000915050612441565b60008581526003602052604090205460ff1615613545576001915050612441565b83604001516001600160a01b0316600186856000015186602001518760400151604051600081526020016040526040516135829493929190613f13565b6020604051602081039080840390855afa1580156135a4573d6000803e3d6000fd5b505050602060405103516001600160a01b031614156135c7576001915050612441565b506000949350505050565b60008260c001516000141580156135ec57508260c0015142115b156135f957506000612441565b60608301516001600160a01b03166000908152600c602052604090205460ff1661362557506000612441565b60008481526002602052604090205460ff161561364457506000612441565b60008481526003602052604090205460ff161561366357506001612441565b82602001516001600160a01b0316600185846000015185602001518660400151604051600081526020016040526040516136a09493929190613f13565b6020604051602081039080840390855afa1580156136c2573d6000803e3d6000fd5b505050602060405103516001600160a01b031614156136e357506001612441565b5060009392505050565b600061244183836040518060400160405280601e81526020017f536166654d6174683a207375627472616374696f6e206f766572666c6f7700008152506137ab565b60008261373e57506000610a9f565b8282028284828161374b57fe5b04146124415760405162461bcd60e51b815260040161086190614396565b600061244183836040518060400160405280601a81526020017f536166654d6174683a206469766973696f6e206279207a65726f0000000000008152506137d7565b600081848411156137cf5760405162461bcd60e51b81526004016108619190613f31565b505050900390565b600081836137f85760405162461bcd60e51b81526004016108619190613f31565b50600083858161380457fe5b0495945050505050565b8035610a9f81614a25565b600061010080838503121561382c578182fd5b613835816149f2565b91505081358152602082013561384a81614a25565b6020820152604082013561385d81614a25565b80604083015250606082013560608201526080820135608082015260a082013560a082015260c082013560c082015260e082013560e082015292915050565b60006101e082840312156138ae578081fd5b6101006138ba816149f2565b91506138c68484613819565b82526138d48482850161380e565b6020830152506138e883610120840161380e565b60408201526138fb83610140840161380e565b6060820152610160820135608082015261018082013560a08201526101a082013560c08201526101c082013560e082015292915050565b600060608284031215613943578081fd5b61394d60606149f2565b9050813560ff8116811461396057600080fd5b80825250602082013560208201526040820135604082015292915050565b60006020828403121561398f578081fd5b813561244181614a25565b600080604083850312156139ac578081fd5b82356139b781614a25565b915060208301356139c781614a25565b809150509250929050565b6000602082840312156139e3578081fd5b81518015158114612441578182fd5b600060208284031215613a03578081fd5b5035919050565b60008060408385031215613a1c578182fd5b8235915060208084013567ffffffffffffffff80821115613a3b578384fd5b81860187601f820112613a4c578485fd5b8035925081831115613a5c578485fd5b613a6e601f8401601f191685016149f2565b91508282528784848301011115613a83578485fd5b8284820185840137509081019091019190915290939092509050565b60008060808385031215613ab1578182fd5b82359150613ac28460208501613932565b90509250929050565b60006101008284031215613add578081fd5b6124418383613819565b6000806101608385031215613afa578182fd5b613b048484613819565b9150613ac2846101008501613932565b60006101e08284031215613b26578081fd5b612441838361389c565b60008060006102a08486031215613b45578081fd5b613b4f858561389c565b9250613b5f856101e08601613932565b9150613b6f856102408601613932565b90509250925092565b6000806102008385031215613b8b578182fd5b613b95848461389c565b946101e0939093013593505050565b600060208284031215613bb5578081fd5b5051919050565b60008060408385031215613bce578182fd5b50508035926020909101359150565b60008151808452815b81811015613c0257602081850181015186830182015201613be6565b81811115613c135782602083870101525b50601f01601f19169290920160200192915050565b60008154600180821660008114613c465760018114613c6457613ca2565b60028304607f16865260ff1983166020870152604086019350613ca2565b60028304808752613c7486614a19565b60005b82811015613c985781546020828b0101528482019150602081019050613c77565b8801602001955050505b50505092915050565b9788526bffffffffffffffffffffffff19606097881b811660208a015295871b861660348901529390951b9093166048860152605c850152607c840191909152609c83019190915260bc82015260dc0190565b9788526bffffffffffffffffffffffff19606097881b811660208a01529590961b909416603487015260488601929092526068850152608884015260a883015260c882015260e80190565b6000808454600180821660008114613d685760018114613d7f57613dae565b60ff198316865260028304607f1686019350613dae565b600283048886526020808720875b83811015613da65781548a820152908501908201613d8d565b505050860193505b5050509283525050602001919050565b7f19457468657265756d205369676e6564204d6573736167653a0a3332000000008152601c810191909152603c0190565b90565b6001600160a01b0391909116815260200190565b6001600160a01b03978816815295871660208701529390951660408501526060840191909152608083015260a082019290925260c081019190915260e00190565b6001600160a01b038c811682528b81166020830152604082018b9052891660608201526080810188905260a08101879052610160810160038710613e8757fe5b8660c08301528560e0830152846101008301528361012083015260058310613eab57fe5b826101408301529c9b505050505050505050505050565b6001600160a01b039384168152919092166020820152604081019190915260600190565b6001600160a01b03929092168252602082015260400190565b901515815260200190565b90815260200190565b93845260ff9290921660208401526040830152606082015260800190565b6000602082526124416020830184613bdd565b6000602082526124416020830184613c28565b6020810160028310613f6557fe5b91905290565b6020808252601c908201527f596f7520646f6e2774206861766520656e6f67687420746f6b656e7300000000604082015260600190565b60208082526021908201527f446973707574652068617320616c7265616479206265656e20637265617465646040820152601760f91b606082015260800190565b60208082526026908201527f54686520646973707574652068617320616c7265616479206265656e2072657360408201526537b63b32b21760d11b606082015260800190565b60208082526010908201526f105b1c9958591e48185c1c1c9bdd995960821b604082015260600190565b60208082526032908201527f4d757374206e6f742073656e642065766964656e63652069662074686520646960408201527139b83aba329034b9903932b9b7b63b32b21760711b606082015260800190565b60208082526026908201527f4f776e61626c653a206e6577206f776e657220697320746865207a65726f206160408201526564647265737360d01b606082015260800190565b6020808252818101527f54696d656f75742074696d6520686173206e6f7420706173736564207965742e604082015260600190565b6020808252600f908201526e24b73b30b634b210393ab634b7339760891b604082015260600190565b6020808252601b908201527f536166654d6174683a206164646974696f6e206f766572666c6f770000000000604082015260600190565b6020808252601c908201527f57617272616e74792074696d65206861732074696d6564206f75742e00000000604082015260600190565b6020808252600d908201526c496e76616c696420706861736560981b604082015260600190565b60208082526031908201527f5468652070726f7365637574696f6e20666565206d75737420636f7665722061604082015270393134ba3930ba34b7b71031b7b9ba399760791b606082015260800190565b6020808252601e908201527f596f75206d75737420626520746865206c697374696e672073656c6c65720000604082015260600190565b6020808252601b908201527f596f7520646f6e2774206861766520656e6f6768742066756e64730000000000604082015260600190565b60208082526025908201527f44697370757465206973206e6f742077616974696e6720666f7220616e79207060408201526430b93a3c9760d91b606082015260800190565b60208082526026908201527f54686520607472616e73666572602066756e6374696f6e206d757374206e6f74604082015265103330b4b61760d11b606082015260800190565b60208082526017908201527f4f6e6c792062757965722063616e20646973707574652e000000000000000000604082015260600190565b60208082526018908201527f4f6e6c792073656c6c65722063616e20646973707574652e0000000000000000604082015260600190565b60208082526021908201527f536166654d6174683a206d756c7469706c69636174696f6e206f766572666c6f6040820152607760f81b606082015260800190565b60208082526021908201527f4c697374696e672068617320616c7265616479206265656e207265706f7274656040820152601960fa1b606082015260800190565b6020808252818101527f4f776e61626c653a2063616c6c6572206973206e6f7420746865206f776e6572604082015260600190565b6020808252601a908201527f53656e646572206973206e6f74206f72646572207369676e6572000000000000604082015260600190565b6020808252601e908201527f5468652063616c6c6572206d757374206265207468652073656e6465722e0000604082015260600190565b60208082526023908201527f526566756e642063616e27742062652067726561746572207468616e20746f7460408201526230b61760e91b606082015260800190565b6020808252818101527f436f6e6669726d6174696f6e2074696d65206861732074696d6564206f75742e604082015260600190565b6020808252601c908201527f53656e646572206973206e6f74206c697374696e67207369676e657200000000604082015260600190565b6020808252602f908201527f45766964656e63657320617265206f6e6c7920616c6c6f77656420666f72206f60408201526e393232b939903234b9b83aba32b99760891b606082015260800190565b60208082526027908201527f596f7520617265206e6f7420616c6c6f77656420746f207265706f7274206c6960408201526639ba34b733b99760c91b606082015260800190565b6020808252602a908201527f56616c7565206d7573742062652067726561746572207468616e2061726269746040820152691c985d1a5bdb90dbdcdd60b21b606082015260800190565b6020808252602f908201527f596f75206d7573742062652073656c6c6572206f7220627579657220696e207460408201526e3432903934b3b43a10383430b9b29760891b606082015260800190565b6020808252600d908201526c24b73b30b634b21037b93232b960991b604082015260600190565b6020808252602d908201527f41707065616c7320617265206f6e6c7920616c6c6f77656420666f72206f726460408201526c32b939903234b9b83aba32b99760991b606082015260800190565b6020808252601190820152702cb7ba9036bab9ba10313290313abcb2b960791b604082015260600190565b6020808252818101527f4f7264657220616c726561647920686173206265656e2070726f636573736564604082015260600190565b60208082526022908201527f5468652063616c6c6572206d757374206265207468652061726269747261746f604082015261391760f11b606082015260800190565b60208082526021908201527f4661696c656420746f207472616e7366657220627579657227732066756e64736040820152601760f91b606082015260800190565b60208082526019908201527f556e61626c6520746f207472616e7366657220746f6b656e7300000000000000604082015260600190565b6020808252600f908201526e496e76616c6964206c697374696e6760881b604082015260600190565b60208082526034908201527f5468652063616c6c6572206d757374206265207468652070726f73656375746960408201527337b71037b9103a3432903232b332b73230b73a1760611b606082015260800190565b6020808252602e908201527f596f752063616e2774207265706f727420796f757273656c662e20557365206360408201526d616e63656c4c697374696e67282960901b606082015260800190565b60008382526040602083015261490b6040830184613c28565b949350505050565b918252602082015260400190565b83815260208101839052606081016006831061493957fe5b826040830152949350505050565b9283526020830191909152604082015260600190565b60006040820160ff85168352602060408185015282855460018082166000811461498e57600181146149ac576149e4565b60028304607f16865260ff19831660608901526080880193506149e4565b600283048087526149bc8a614a19565b885b828110156149da5781548b8201606001529084019087016149be565b8a01606001955050505b509198975050505050505050565b60405181810167ffffffffffffffff81118282101715614a1157600080fd5b604052919050565b60009081526020902090565b6001600160a01b0381168114614a3a57600080fd5b5056fea264697066735822122007752007c8d1fe1d1e4ffc84d783b5125b01887b2eab052e3064d3bda87fa83964736f6c63430006080033",
  "immutableReferences": {},
  "source": "// SPDX-License-Identifier: MIT\npragma solidity ^0.6.0;\npragma experimental ABIEncoderV2;\n\nimport \"./Dagora.sol\";\n\ncontract TestDagora is Dagora {\n\n    constructor(address _arbitrator,\n                address _token,\n                address _protocolFeeRecipient,\n                uint _feeTimeoutDays,\n                uint _blacklistTimeoutDays,\n                uint _protocolFeePercentage,\n                uint _tokenOwnerFeePercentage,\n                bytes memory _reportExtraData,\n                bytes memory _orderExtraData,\n                string memory _ipfsDomain)\n                Dagora(_arbitrator,\n                        _token,\n                        _protocolFeeRecipient,\n                        _feeTimeoutDays,\n                        _blacklistTimeoutDays,\n                        _protocolFeePercentage,\n                        _tokenOwnerFeePercentage,\n                        _reportExtraData,\n                        _orderExtraData,\n                        _ipfsDomain) public {\n    }\n\n    function _requireValidListing(Listing memory _listing, Sig memory sig)\n        public\n        view\n        returns (bool)\n    {\n        return requireValidListing(_listing, sig) != 0x0;\n    }\n\n    function _hashListing(Listing memory listing)\n        public\n        pure\n        returns (bytes32 hash)\n    {\n        return hashListing(listing);\n    }\n\n    function _hashListingToSign(Listing memory listing)\n        public\n        pure\n        returns (bytes32 hash)\n    {\n        return hashListingToSign(listing);\n    }\n\n    function _ecrecover(bytes32 msgHash, Sig memory sig) public pure returns (address) {\n        return ecrecover(msgHash, sig.v, sig.r, sig.s);\n    }\n}",
  "sourcePath": "/home/gustavo/dagora/contracts/marketplace/TestDagora.sol",
  "compiler": {
    "name": "solc",
    "version": "0.6.8+commit.0bbfe453.Emscripten.clang"
  },
  "schemaVersion": "3.2.0",
  "updatedAt": "2020-05-28T19:04:29.208Z",
  "networkType": "ethereum",
  "devdoc": {
    "methods": {
      "appeal(bytes32)": {
        "details": "Appeal an appealable ruling. UNTRUSTED. Transfer the funds to the arbitrator. Note that no checks are required as the checks are done by the arbitrator.",
        "params": {
          "_hash": "The hash of the order."
        }
      },
      "owner()": {
        "details": "Returns the address of the current owner."
      },
      "renounceOwnership()": {
        "details": "Leaves the contract without owner. It will not be possible to call `onlyOwner` functions anymore. Can only be called by the current owner.     * NOTE: Renouncing ownership will leave the contract without an owner, thereby removing any functionality that is only available to the owner."
      },
      "submitEvidence(bytes32,string)": {
        "details": "Submit a reference to evidence. EVENT.",
        "params": {
          "_evidence": "A link to an evidence using its URI.",
          "_hash": "The hash of the order."
        }
      },
      "transferOwnership(address)": {
        "details": "Transfers ownership of the contract to a new account (`newOwner`). Can only be called by the current owner."
      }
    }
  },
  "userdoc": {
    "methods": {}
  }
}