{
  "contractName": "TestDagora",
  "abi": [
    {
      "inputs": [
        {
          "internalType": "address",
          "name": "_arbitrator",
          "type": "address"
        },
        {
          "internalType": "address",
          "name": "_token",
          "type": "address"
        },
        {
          "internalType": "address",
          "name": "_protocolFeeRecipient",
          "type": "address"
        },
        {
          "internalType": "uint256",
          "name": "_feeTimeoutDays",
          "type": "uint256"
        },
        {
          "internalType": "uint256",
          "name": "_blacklistTimeoutDays",
          "type": "uint256"
        },
        {
          "internalType": "uint256",
          "name": "_protocolFeePercentage",
          "type": "uint256"
        },
        {
          "internalType": "uint256",
          "name": "_tokenOwnerFeePercentage",
          "type": "uint256"
        },
        {
          "internalType": "bytes",
          "name": "_reportExtraData",
          "type": "bytes"
        },
        {
          "internalType": "bytes",
          "name": "_orderExtraData",
          "type": "bytes"
        },
        {
          "internalType": "string",
          "name": "_ipfsDomain",
          "type": "string"
        },
        {
          "internalType": "address",
          "name": "_forwarder",
          "type": "address"
        }
      ],
      "stateMutability": "nonpayable",
      "type": "constructor"
    },
    {
      "anonymous": false,
      "inputs": [
        {
          "indexed": true,
          "internalType": "contract Arbitrator",
          "name": "_arbitrator",
          "type": "address"
        },
        {
          "indexed": true,
          "internalType": "uint256",
          "name": "_disputeID",
          "type": "uint256"
        },
        {
          "indexed": false,
          "internalType": "uint256",
          "name": "_metaEvidenceID",
          "type": "uint256"
        },
        {
          "indexed": false,
          "internalType": "uint256",
          "name": "_evidenceGroupID",
          "type": "uint256"
        }
      ],
      "name": "Dispute",
      "type": "event"
    },
    {
      "anonymous": false,
      "inputs": [
        {
          "indexed": true,
          "internalType": "contract Arbitrator",
          "name": "_arbitrator",
          "type": "address"
        },
        {
          "indexed": true,
          "internalType": "uint256",
          "name": "_evidenceGroupID",
          "type": "uint256"
        },
        {
          "indexed": true,
          "internalType": "address",
          "name": "_party",
          "type": "address"
        },
        {
          "indexed": false,
          "internalType": "string",
          "name": "_evidence",
          "type": "string"
        }
      ],
      "name": "Evidence",
      "type": "event"
    },
    {
      "anonymous": false,
      "inputs": [
        {
          "indexed": true,
          "internalType": "bytes32",
          "name": "_hash",
          "type": "bytes32"
        },
        {
          "indexed": false,
          "internalType": "enum Dagora.Party",
          "name": "_party",
          "type": "uint8"
        }
      ],
      "name": "HasToPayFee",
      "type": "event"
    },
    {
      "anonymous": false,
      "inputs": [
        {
          "indexed": true,
          "internalType": "bytes32",
          "name": "hash",
          "type": "bytes32"
        }
      ],
      "name": "ListingApproved",
      "type": "event"
    },
    {
      "anonymous": false,
      "inputs": [
        {
          "indexed": true,
          "internalType": "bytes32",
          "name": "hash",
          "type": "bytes32"
        }
      ],
      "name": "ListingCancelled",
      "type": "event"
    },
    {
      "anonymous": false,
      "inputs": [
        {
          "indexed": true,
          "internalType": "uint256",
          "name": "_metaEvidenceID",
          "type": "uint256"
        },
        {
          "indexed": false,
          "internalType": "string",
          "name": "_evidence",
          "type": "string"
        }
      ],
      "name": "MetaEvidence",
      "type": "event"
    },
    {
      "anonymous": false,
      "inputs": [
        {
          "indexed": true,
          "internalType": "bytes32",
          "name": "hash",
          "type": "bytes32"
        }
      ],
      "name": "OrderApproved",
      "type": "event"
    },
    {
      "anonymous": false,
      "inputs": [
        {
          "indexed": true,
          "internalType": "bytes32",
          "name": "hash",
          "type": "bytes32"
        }
      ],
      "name": "OrderCancelled",
      "type": "event"
    },
    {
      "anonymous": false,
      "inputs": [
        {
          "indexed": true,
          "internalType": "address",
          "name": "previousOwner",
          "type": "address"
        },
        {
          "indexed": true,
          "internalType": "address",
          "name": "newOwner",
          "type": "address"
        }
      ],
      "name": "OwnershipTransferred",
      "type": "event"
    },
    {
      "anonymous": false,
      "inputs": [
        {
          "indexed": true,
          "internalType": "contract Arbitrator",
          "name": "_arbitrator",
          "type": "address"
        },
        {
          "indexed": true,
          "internalType": "uint256",
          "name": "_disputeID",
          "type": "uint256"
        },
        {
          "indexed": false,
          "internalType": "uint256",
          "name": "_ruling",
          "type": "uint256"
        }
      ],
      "name": "Ruling",
      "type": "event"
    },
    {
      "anonymous": false,
      "inputs": [
        {
          "indexed": true,
          "internalType": "address",
          "name": "sender",
          "type": "address"
        },
        {
          "indexed": false,
          "internalType": "uint256",
          "name": "value",
          "type": "uint256"
        }
      ],
      "name": "TokenDeposited",
      "type": "event"
    },
    {
      "anonymous": false,
      "inputs": [
        {
          "indexed": true,
          "internalType": "address",
          "name": "addr",
          "type": "address"
        }
      ],
      "name": "TokenGranted",
      "type": "event"
    },
    {
      "anonymous": false,
      "inputs": [
        {
          "indexed": true,
          "internalType": "address",
          "name": "addr",
          "type": "address"
        }
      ],
      "name": "TokenRevoked",
      "type": "event"
    },
    {
      "anonymous": false,
      "inputs": [
        {
          "indexed": true,
          "internalType": "address",
          "name": "sender",
          "type": "address"
        },
        {
          "indexed": false,
          "internalType": "uint256",
          "name": "value",
          "type": "uint256"
        }
      ],
      "name": "TokenWithdrawed",
      "type": "event"
    },
    {
      "anonymous": false,
      "inputs": [
        {
          "indexed": true,
          "internalType": "bytes32",
          "name": "hash",
          "type": "bytes32"
        },
        {
          "indexed": true,
          "internalType": "address",
          "name": "buyer",
          "type": "address"
        },
        {
          "indexed": true,
          "internalType": "address",
          "name": "seller",
          "type": "address"
        },
        {
          "indexed": false,
          "internalType": "address",
          "name": "stakeOwner",
          "type": "address"
        },
        {
          "indexed": false,
          "internalType": "address",
          "name": "commissioner",
          "type": "address"
        },
        {
          "indexed": false,
          "internalType": "contract ERC20",
          "name": "token",
          "type": "address"
        },
        {
          "indexed": false,
          "internalType": "uint256",
          "name": "total",
          "type": "uint256"
        },
        {
          "indexed": false,
          "internalType": "uint256",
          "name": "commissionPercentage",
          "type": "uint256"
        },
        {
          "indexed": false,
          "internalType": "uint256",
          "name": "cashbackPercentage",
          "type": "uint256"
        },
        {
          "indexed": false,
          "internalType": "uint256",
          "name": "confirmationTimeout",
          "type": "uint256"
        }
      ],
      "name": "TransactionCreated",
      "type": "event"
    },
    {
      "anonymous": false,
      "inputs": [
        {
          "indexed": true,
          "internalType": "bytes32",
          "name": "hash",
          "type": "bytes32"
        }
      ],
      "name": "TransactionFinalized",
      "type": "event"
    },
    {
      "anonymous": false,
      "inputs": [
        {
          "indexed": true,
          "internalType": "bytes32",
          "name": "hash",
          "type": "bytes32"
        },
        {
          "indexed": false,
          "internalType": "uint256",
          "name": "value",
          "type": "uint256"
        }
      ],
      "name": "TransactionRefunded",
      "type": "event"
    },
    {
      "anonymous": false,
      "inputs": [
        {
          "indexed": true,
          "internalType": "bytes32",
          "name": "hash",
          "type": "bytes32"
        }
      ],
      "name": "WarrantyClaimed",
      "type": "event"
    },
    {
      "inputs": [],
      "name": "INVERSE_BASIS_POINT",
      "outputs": [
        {
          "internalType": "uint256",
          "name": "",
          "type": "uint256"
        }
      ],
      "stateMutability": "view",
      "type": "function"
    },
    {
      "inputs": [
        {
          "internalType": "bytes32",
          "name": "_hash",
          "type": "bytes32"
        }
      ],
      "name": "appeal",
      "outputs": [],
      "stateMutability": "payable",
      "type": "function"
    },
    {
      "inputs": [
        {
          "components": [
            {
              "internalType": "bytes32",
              "name": "ipfsHash",
              "type": "bytes32"
            },
            {
              "internalType": "address payable",
              "name": "seller",
              "type": "address"
            },
            {
              "internalType": "address payable",
              "name": "stakeOwner",
              "type": "address"
            },
            {
              "internalType": "uint256",
              "name": "stakedAmount",
              "type": "uint256"
            },
            {
              "internalType": "uint256",
              "name": "commissionPercentage",
              "type": "uint256"
            },
            {
              "internalType": "uint256",
              "name": "warranty",
              "type": "uint256"
            },
            {
              "internalType": "uint256",
              "name": "cashbackPercentage",
              "type": "uint256"
            },
            {
              "internalType": "uint256",
              "name": "expiration",
              "type": "uint256"
            }
          ],
          "internalType": "struct Dagora.Listing",
          "name": "_listing",
          "type": "tuple"
        }
      ],
      "name": "approveListing",
      "outputs": [
        {
          "internalType": "bool",
          "name": "",
          "type": "bool"
        }
      ],
      "stateMutability": "nonpayable",
      "type": "function"
    },
    {
      "inputs": [
        {
          "components": [
            {
              "components": [
                {
                  "internalType": "bytes32",
                  "name": "ipfsHash",
                  "type": "bytes32"
                },
                {
                  "internalType": "address payable",
                  "name": "seller",
                  "type": "address"
                },
                {
                  "internalType": "address payable",
                  "name": "stakeOwner",
                  "type": "address"
                },
                {
                  "internalType": "uint256",
                  "name": "stakedAmount",
                  "type": "uint256"
                },
                {
                  "internalType": "uint256",
                  "name": "commissionPercentage",
                  "type": "uint256"
                },
                {
                  "internalType": "uint256",
                  "name": "warranty",
                  "type": "uint256"
                },
                {
                  "internalType": "uint256",
                  "name": "cashbackPercentage",
                  "type": "uint256"
                },
                {
                  "internalType": "uint256",
                  "name": "expiration",
                  "type": "uint256"
                }
              ],
              "internalType": "struct Dagora.Listing",
              "name": "listing",
              "type": "tuple"
            },
            {
              "internalType": "address payable",
              "name": "fundsHolder",
              "type": "address"
            },
            {
              "internalType": "address payable",
              "name": "buyer",
              "type": "address"
            },
            {
              "internalType": "address payable",
              "name": "commissioner",
              "type": "address"
            },
            {
              "internalType": "contract ERC20",
              "name": "token",
              "type": "address"
            },
            {
              "internalType": "uint256",
              "name": "total",
              "type": "uint256"
            },
            {
              "internalType": "uint256",
              "name": "cashback",
              "type": "uint256"
            },
            {
              "internalType": "uint256",
              "name": "commission",
              "type": "uint256"
            },
            {
              "internalType": "uint256",
              "name": "protocolFee",
              "type": "uint256"
            },
            {
              "internalType": "uint256",
              "name": "stakeHolderFee",
              "type": "uint256"
            },
            {
              "internalType": "uint256",
              "name": "expiration",
              "type": "uint256"
            },
            {
              "internalType": "uint256",
              "name": "confirmationTimeout",
              "type": "uint256"
            },
            {
              "internalType": "uint256",
              "name": "timestamp",
              "type": "uint256"
            }
          ],
          "internalType": "struct Dagora.Order",
          "name": "order",
          "type": "tuple"
        }
      ],
      "name": "approveOrder",
      "outputs": [
        {
          "internalType": "bool",
          "name": "",
          "type": "bool"
        }
      ],
      "stateMutability": "nonpayable",
      "type": "function"
    },
    {
      "inputs": [
        {
          "internalType": "bytes32",
          "name": "",
          "type": "bytes32"
        }
      ],
      "name": "approvedHashes",
      "outputs": [
        {
          "internalType": "bool",
          "name": "",
          "type": "bool"
        }
      ],
      "stateMutability": "view",
      "type": "function"
    },
    {
      "inputs": [
        {
          "internalType": "enum Dagora.DisputeType",
          "name": "_type",
          "type": "uint8"
        }
      ],
      "name": "arbitrationCost",
      "outputs": [
        {
          "internalType": "uint256",
          "name": "fee",
          "type": "uint256"
        }
      ],
      "stateMutability": "view",
      "type": "function"
    },
    {
      "inputs": [],
      "name": "arbitrator",
      "outputs": [
        {
          "internalType": "contract Arbitrator",
          "name": "",
          "type": "address"
        }
      ],
      "stateMutability": "view",
      "type": "function"
    },
    {
      "inputs": [
        {
          "components": [
            {
              "components": [
                {
                  "internalType": "bytes32",
                  "name": "ipfsHash",
                  "type": "bytes32"
                },
                {
                  "internalType": "address payable",
                  "name": "seller",
                  "type": "address"
                },
                {
                  "internalType": "address payable",
                  "name": "stakeOwner",
                  "type": "address"
                },
                {
                  "internalType": "uint256",
                  "name": "stakedAmount",
                  "type": "uint256"
                },
                {
                  "internalType": "uint256",
                  "name": "commissionPercentage",
                  "type": "uint256"
                },
                {
                  "internalType": "uint256",
                  "name": "warranty",
                  "type": "uint256"
                },
                {
                  "internalType": "uint256",
                  "name": "cashbackPercentage",
                  "type": "uint256"
                },
                {
                  "internalType": "uint256",
                  "name": "expiration",
                  "type": "uint256"
                }
              ],
              "internalType": "struct Dagora.Listing",
              "name": "listing",
              "type": "tuple"
            },
            {
              "internalType": "address payable",
              "name": "fundsHolder",
              "type": "address"
            },
            {
              "internalType": "address payable",
              "name": "buyer",
              "type": "address"
            },
            {
              "internalType": "address payable",
              "name": "commissioner",
              "type": "address"
            },
            {
              "internalType": "contract ERC20",
              "name": "token",
              "type": "address"
            },
            {
              "internalType": "uint256",
              "name": "total",
              "type": "uint256"
            },
            {
              "internalType": "uint256",
              "name": "cashback",
              "type": "uint256"
            },
            {
              "internalType": "uint256",
              "name": "commission",
              "type": "uint256"
            },
            {
              "internalType": "uint256",
              "name": "protocolFee",
              "type": "uint256"
            },
            {
              "internalType": "uint256",
              "name": "stakeHolderFee",
              "type": "uint256"
            },
            {
              "internalType": "uint256",
              "name": "expiration",
              "type": "uint256"
            },
            {
              "internalType": "uint256",
              "name": "confirmationTimeout",
              "type": "uint256"
            },
            {
              "internalType": "uint256",
              "name": "timestamp",
              "type": "uint256"
            }
          ],
          "internalType": "struct Dagora.Order",
          "name": "_order",
          "type": "tuple"
        }
      ],
      "name": "availableToken",
      "outputs": [
        {
          "internalType": "uint256",
          "name": "",
          "type": "uint256"
        }
      ],
      "stateMutability": "view",
      "type": "function"
    },
    {
      "inputs": [
        {
          "components": [
            {
              "components": [
                {
                  "internalType": "bytes32",
                  "name": "ipfsHash",
                  "type": "bytes32"
                },
                {
                  "internalType": "address payable",
                  "name": "seller",
                  "type": "address"
                },
                {
                  "internalType": "address payable",
                  "name": "stakeOwner",
                  "type": "address"
                },
                {
                  "internalType": "uint256",
                  "name": "stakedAmount",
                  "type": "uint256"
                },
                {
                  "internalType": "uint256",
                  "name": "commissionPercentage",
                  "type": "uint256"
                },
                {
                  "internalType": "uint256",
                  "name": "warranty",
                  "type": "uint256"
                },
                {
                  "internalType": "uint256",
                  "name": "cashbackPercentage",
                  "type": "uint256"
                },
                {
                  "internalType": "uint256",
                  "name": "expiration",
                  "type": "uint256"
                }
              ],
              "internalType": "struct Dagora.Listing",
              "name": "listing",
              "type": "tuple"
            },
            {
              "internalType": "address payable",
              "name": "fundsHolder",
              "type": "address"
            },
            {
              "internalType": "address payable",
              "name": "buyer",
              "type": "address"
            },
            {
              "internalType": "address payable",
              "name": "commissioner",
              "type": "address"
            },
            {
              "internalType": "contract ERC20",
              "name": "token",
              "type": "address"
            },
            {
              "internalType": "uint256",
              "name": "total",
              "type": "uint256"
            },
            {
              "internalType": "uint256",
              "name": "cashback",
              "type": "uint256"
            },
            {
              "internalType": "uint256",
              "name": "commission",
              "type": "uint256"
            },
            {
              "internalType": "uint256",
              "name": "protocolFee",
              "type": "uint256"
            },
            {
              "internalType": "uint256",
              "name": "stakeHolderFee",
              "type": "uint256"
            },
            {
              "internalType": "uint256",
              "name": "expiration",
              "type": "uint256"
            },
            {
              "internalType": "uint256",
              "name": "confirmationTimeout",
              "type": "uint256"
            },
            {
              "internalType": "uint256",
              "name": "timestamp",
              "type": "uint256"
            }
          ],
          "internalType": "struct Dagora.Order[]",
          "name": "orders",
          "type": "tuple[]"
        },
        {
          "components": [
            {
              "internalType": "uint8",
              "name": "v",
              "type": "uint8"
            },
            {
              "internalType": "bytes32",
              "name": "r",
              "type": "bytes32"
            },
            {
              "internalType": "bytes32",
              "name": "s",
              "type": "bytes32"
            }
          ],
          "internalType": "struct Dagora.Sig[]",
          "name": "orderSignatures",
          "type": "tuple[]"
        },
        {
          "components": [
            {
              "internalType": "uint8",
              "name": "v",
              "type": "uint8"
            },
            {
              "internalType": "bytes32",
              "name": "r",
              "type": "bytes32"
            },
            {
              "internalType": "bytes32",
              "name": "s",
              "type": "bytes32"
            }
          ],
          "internalType": "struct Dagora.Sig[]",
          "name": "listingSignatures",
          "type": "tuple[]"
        }
      ],
      "name": "batchCreateTransaction",
      "outputs": [
        {
          "internalType": "bytes32[]",
          "name": "hashes",
          "type": "bytes32[]"
        }
      ],
      "stateMutability": "nonpayable",
      "type": "function"
    },
    {
      "inputs": [
        {
          "components": [
            {
              "components": [
                {
                  "internalType": "bytes32",
                  "name": "ipfsHash",
                  "type": "bytes32"
                },
                {
                  "internalType": "address payable",
                  "name": "seller",
                  "type": "address"
                },
                {
                  "internalType": "address payable",
                  "name": "stakeOwner",
                  "type": "address"
                },
                {
                  "internalType": "uint256",
                  "name": "stakedAmount",
                  "type": "uint256"
                },
                {
                  "internalType": "uint256",
                  "name": "commissionPercentage",
                  "type": "uint256"
                },
                {
                  "internalType": "uint256",
                  "name": "warranty",
                  "type": "uint256"
                },
                {
                  "internalType": "uint256",
                  "name": "cashbackPercentage",
                  "type": "uint256"
                },
                {
                  "internalType": "uint256",
                  "name": "expiration",
                  "type": "uint256"
                }
              ],
              "internalType": "struct Dagora.Listing",
              "name": "listing",
              "type": "tuple"
            },
            {
              "internalType": "address payable",
              "name": "fundsHolder",
              "type": "address"
            },
            {
              "internalType": "address payable",
              "name": "buyer",
              "type": "address"
            },
            {
              "internalType": "address payable",
              "name": "commissioner",
              "type": "address"
            },
            {
              "internalType": "contract ERC20",
              "name": "token",
              "type": "address"
            },
            {
              "internalType": "uint256",
              "name": "total",
              "type": "uint256"
            },
            {
              "internalType": "uint256",
              "name": "cashback",
              "type": "uint256"
            },
            {
              "internalType": "uint256",
              "name": "commission",
              "type": "uint256"
            },
            {
              "internalType": "uint256",
              "name": "protocolFee",
              "type": "uint256"
            },
            {
              "internalType": "uint256",
              "name": "stakeHolderFee",
              "type": "uint256"
            },
            {
              "internalType": "uint256",
              "name": "expiration",
              "type": "uint256"
            },
            {
              "internalType": "uint256",
              "name": "confirmationTimeout",
              "type": "uint256"
            },
            {
              "internalType": "uint256",
              "name": "timestamp",
              "type": "uint256"
            }
          ],
          "internalType": "struct Dagora.Order[]",
          "name": "orders",
          "type": "tuple[]"
        }
      ],
      "name": "batchExecuteTransaction",
      "outputs": [],
      "stateMutability": "nonpayable",
      "type": "function"
    },
    {
      "inputs": [],
      "name": "blackListTimeout",
      "outputs": [
        {
          "internalType": "uint256",
          "name": "",
          "type": "uint256"
        }
      ],
      "stateMutability": "view",
      "type": "function"
    },
    {
      "inputs": [
        {
          "internalType": "bytes32",
          "name": "",
          "type": "bytes32"
        }
      ],
      "name": "cancelledOrFinalized",
      "outputs": [
        {
          "internalType": "bool",
          "name": "",
          "type": "bool"
        }
      ],
      "stateMutability": "view",
      "type": "function"
    },
    {
      "inputs": [
        {
          "components": [
            {
              "components": [
                {
                  "internalType": "bytes32",
                  "name": "ipfsHash",
                  "type": "bytes32"
                },
                {
                  "internalType": "address payable",
                  "name": "seller",
                  "type": "address"
                },
                {
                  "internalType": "address payable",
                  "name": "stakeOwner",
                  "type": "address"
                },
                {
                  "internalType": "uint256",
                  "name": "stakedAmount",
                  "type": "uint256"
                },
                {
                  "internalType": "uint256",
                  "name": "commissionPercentage",
                  "type": "uint256"
                },
                {
                  "internalType": "uint256",
                  "name": "warranty",
                  "type": "uint256"
                },
                {
                  "internalType": "uint256",
                  "name": "cashbackPercentage",
                  "type": "uint256"
                },
                {
                  "internalType": "uint256",
                  "name": "expiration",
                  "type": "uint256"
                }
              ],
              "internalType": "struct Dagora.Listing",
              "name": "listing",
              "type": "tuple"
            },
            {
              "internalType": "address payable",
              "name": "fundsHolder",
              "type": "address"
            },
            {
              "internalType": "address payable",
              "name": "buyer",
              "type": "address"
            },
            {
              "internalType": "address payable",
              "name": "commissioner",
              "type": "address"
            },
            {
              "internalType": "contract ERC20",
              "name": "token",
              "type": "address"
            },
            {
              "internalType": "uint256",
              "name": "total",
              "type": "uint256"
            },
            {
              "internalType": "uint256",
              "name": "cashback",
              "type": "uint256"
            },
            {
              "internalType": "uint256",
              "name": "commission",
              "type": "uint256"
            },
            {
              "internalType": "uint256",
              "name": "protocolFee",
              "type": "uint256"
            },
            {
              "internalType": "uint256",
              "name": "stakeHolderFee",
              "type": "uint256"
            },
            {
              "internalType": "uint256",
              "name": "expiration",
              "type": "uint256"
            },
            {
              "internalType": "uint256",
              "name": "confirmationTimeout",
              "type": "uint256"
            },
            {
              "internalType": "uint256",
              "name": "timestamp",
              "type": "uint256"
            }
          ],
          "internalType": "struct Dagora.Order",
          "name": "_order",
          "type": "tuple"
        },
        {
          "internalType": "uint256",
          "name": "fee",
          "type": "uint256"
        }
      ],
      "name": "chargeGasFee",
      "outputs": [],
      "stateMutability": "nonpayable",
      "type": "function"
    },
    {
      "inputs": [
        {
          "components": [
            {
              "components": [
                {
                  "internalType": "bytes32",
                  "name": "ipfsHash",
                  "type": "bytes32"
                },
                {
                  "internalType": "address payable",
                  "name": "seller",
                  "type": "address"
                },
                {
                  "internalType": "address payable",
                  "name": "stakeOwner",
                  "type": "address"
                },
                {
                  "internalType": "uint256",
                  "name": "stakedAmount",
                  "type": "uint256"
                },
                {
                  "internalType": "uint256",
                  "name": "commissionPercentage",
                  "type": "uint256"
                },
                {
                  "internalType": "uint256",
                  "name": "warranty",
                  "type": "uint256"
                },
                {
                  "internalType": "uint256",
                  "name": "cashbackPercentage",
                  "type": "uint256"
                },
                {
                  "internalType": "uint256",
                  "name": "expiration",
                  "type": "uint256"
                }
              ],
              "internalType": "struct Dagora.Listing",
              "name": "listing",
              "type": "tuple"
            },
            {
              "internalType": "address payable",
              "name": "fundsHolder",
              "type": "address"
            },
            {
              "internalType": "address payable",
              "name": "buyer",
              "type": "address"
            },
            {
              "internalType": "address payable",
              "name": "commissioner",
              "type": "address"
            },
            {
              "internalType": "contract ERC20",
              "name": "token",
              "type": "address"
            },
            {
              "internalType": "uint256",
              "name": "total",
              "type": "uint256"
            },
            {
              "internalType": "uint256",
              "name": "cashback",
              "type": "uint256"
            },
            {
              "internalType": "uint256",
              "name": "commission",
              "type": "uint256"
            },
            {
              "internalType": "uint256",
              "name": "protocolFee",
              "type": "uint256"
            },
            {
              "internalType": "uint256",
              "name": "stakeHolderFee",
              "type": "uint256"
            },
            {
              "internalType": "uint256",
              "name": "expiration",
              "type": "uint256"
            },
            {
              "internalType": "uint256",
              "name": "confirmationTimeout",
              "type": "uint256"
            },
            {
              "internalType": "uint256",
              "name": "timestamp",
              "type": "uint256"
            }
          ],
          "internalType": "struct Dagora.Order",
          "name": "_order",
          "type": "tuple"
        }
      ],
      "name": "claimWarranty",
      "outputs": [],
      "stateMutability": "nonpayable",
      "type": "function"
    },
    {
      "inputs": [
        {
          "components": [
            {
              "components": [
                {
                  "internalType": "bytes32",
                  "name": "ipfsHash",
                  "type": "bytes32"
                },
                {
                  "internalType": "address payable",
                  "name": "seller",
                  "type": "address"
                },
                {
                  "internalType": "address payable",
                  "name": "stakeOwner",
                  "type": "address"
                },
                {
                  "internalType": "uint256",
                  "name": "stakedAmount",
                  "type": "uint256"
                },
                {
                  "internalType": "uint256",
                  "name": "commissionPercentage",
                  "type": "uint256"
                },
                {
                  "internalType": "uint256",
                  "name": "warranty",
                  "type": "uint256"
                },
                {
                  "internalType": "uint256",
                  "name": "cashbackPercentage",
                  "type": "uint256"
                },
                {
                  "internalType": "uint256",
                  "name": "expiration",
                  "type": "uint256"
                }
              ],
              "internalType": "struct Dagora.Listing",
              "name": "listing",
              "type": "tuple"
            },
            {
              "internalType": "address payable",
              "name": "fundsHolder",
              "type": "address"
            },
            {
              "internalType": "address payable",
              "name": "buyer",
              "type": "address"
            },
            {
              "internalType": "address payable",
              "name": "commissioner",
              "type": "address"
            },
            {
              "internalType": "contract ERC20",
              "name": "token",
              "type": "address"
            },
            {
              "internalType": "uint256",
              "name": "total",
              "type": "uint256"
            },
            {
              "internalType": "uint256",
              "name": "cashback",
              "type": "uint256"
            },
            {
              "internalType": "uint256",
              "name": "commission",
              "type": "uint256"
            },
            {
              "internalType": "uint256",
              "name": "protocolFee",
              "type": "uint256"
            },
            {
              "internalType": "uint256",
              "name": "stakeHolderFee",
              "type": "uint256"
            },
            {
              "internalType": "uint256",
              "name": "expiration",
              "type": "uint256"
            },
            {
              "internalType": "uint256",
              "name": "confirmationTimeout",
              "type": "uint256"
            },
            {
              "internalType": "uint256",
              "name": "timestamp",
              "type": "uint256"
            }
          ],
          "internalType": "struct Dagora.Order",
          "name": "_order",
          "type": "tuple"
        }
      ],
      "name": "confirmReceipt",
      "outputs": [],
      "stateMutability": "nonpayable",
      "type": "function"
    },
    {
      "inputs": [
        {
          "internalType": "address",
          "name": "",
          "type": "address"
        }
      ],
      "name": "contracts",
      "outputs": [
        {
          "internalType": "bool",
          "name": "",
          "type": "bool"
        }
      ],
      "stateMutability": "view",
      "type": "function"
    },
    {
      "inputs": [
        {
          "components": [
            {
              "components": [
                {
                  "internalType": "bytes32",
                  "name": "ipfsHash",
                  "type": "bytes32"
                },
                {
                  "internalType": "address payable",
                  "name": "seller",
                  "type": "address"
                },
                {
                  "internalType": "address payable",
                  "name": "stakeOwner",
                  "type": "address"
                },
                {
                  "internalType": "uint256",
                  "name": "stakedAmount",
                  "type": "uint256"
                },
                {
                  "internalType": "uint256",
                  "name": "commissionPercentage",
                  "type": "uint256"
                },
                {
                  "internalType": "uint256",
                  "name": "warranty",
                  "type": "uint256"
                },
                {
                  "internalType": "uint256",
                  "name": "cashbackPercentage",
                  "type": "uint256"
                },
                {
                  "internalType": "uint256",
                  "name": "expiration",
                  "type": "uint256"
                }
              ],
              "internalType": "struct Dagora.Listing",
              "name": "listing",
              "type": "tuple"
            },
            {
              "internalType": "address payable",
              "name": "fundsHolder",
              "type": "address"
            },
            {
              "internalType": "address payable",
              "name": "buyer",
              "type": "address"
            },
            {
              "internalType": "address payable",
              "name": "commissioner",
              "type": "address"
            },
            {
              "internalType": "contract ERC20",
              "name": "token",
              "type": "address"
            },
            {
              "internalType": "uint256",
              "name": "total",
              "type": "uint256"
            },
            {
              "internalType": "uint256",
              "name": "cashback",
              "type": "uint256"
            },
            {
              "internalType": "uint256",
              "name": "commission",
              "type": "uint256"
            },
            {
              "internalType": "uint256",
              "name": "protocolFee",
              "type": "uint256"
            },
            {
              "internalType": "uint256",
              "name": "stakeHolderFee",
              "type": "uint256"
            },
            {
              "internalType": "uint256",
              "name": "expiration",
              "type": "uint256"
            },
            {
              "internalType": "uint256",
              "name": "confirmationTimeout",
              "type": "uint256"
            },
            {
              "internalType": "uint256",
              "name": "timestamp",
              "type": "uint256"
            }
          ],
          "internalType": "struct Dagora.Order",
          "name": "_order",
          "type": "tuple"
        },
        {
          "components": [
            {
              "internalType": "uint8",
              "name": "v",
              "type": "uint8"
            },
            {
              "internalType": "bytes32",
              "name": "r",
              "type": "bytes32"
            },
            {
              "internalType": "bytes32",
              "name": "s",
              "type": "bytes32"
            }
          ],
          "internalType": "struct Dagora.Sig",
          "name": "orderSig",
          "type": "tuple"
        },
        {
          "components": [
            {
              "internalType": "uint8",
              "name": "v",
              "type": "uint8"
            },
            {
              "internalType": "bytes32",
              "name": "r",
              "type": "bytes32"
            },
            {
              "internalType": "bytes32",
              "name": "s",
              "type": "bytes32"
            }
          ],
          "internalType": "struct Dagora.Sig",
          "name": "listingSig",
          "type": "tuple"
        }
      ],
      "name": "createTransaction",
      "outputs": [
        {
          "internalType": "bytes32",
          "name": "hash",
          "type": "bytes32"
        }
      ],
      "stateMutability": "nonpayable",
      "type": "function"
    },
    {
      "inputs": [
        {
          "internalType": "uint256",
          "name": "value",
          "type": "uint256"
        }
      ],
      "name": "depositTokens",
      "outputs": [],
      "stateMutability": "nonpayable",
      "type": "function"
    },
    {
      "inputs": [
        {
          "internalType": "uint256",
          "name": "",
          "type": "uint256"
        }
      ],
      "name": "disputeIDtoHash",
      "outputs": [
        {
          "internalType": "bytes32",
          "name": "",
          "type": "bytes32"
        }
      ],
      "stateMutability": "view",
      "type": "function"
    },
    {
      "inputs": [
        {
          "internalType": "bytes32",
          "name": "hash",
          "type": "bytes32"
        }
      ],
      "name": "disputeTimeout",
      "outputs": [],
      "stateMutability": "nonpayable",
      "type": "function"
    },
    {
      "inputs": [
        {
          "components": [
            {
              "components": [
                {
                  "internalType": "bytes32",
                  "name": "ipfsHash",
                  "type": "bytes32"
                },
                {
                  "internalType": "address payable",
                  "name": "seller",
                  "type": "address"
                },
                {
                  "internalType": "address payable",
                  "name": "stakeOwner",
                  "type": "address"
                },
                {
                  "internalType": "uint256",
                  "name": "stakedAmount",
                  "type": "uint256"
                },
                {
                  "internalType": "uint256",
                  "name": "commissionPercentage",
                  "type": "uint256"
                },
                {
                  "internalType": "uint256",
                  "name": "warranty",
                  "type": "uint256"
                },
                {
                  "internalType": "uint256",
                  "name": "cashbackPercentage",
                  "type": "uint256"
                },
                {
                  "internalType": "uint256",
                  "name": "expiration",
                  "type": "uint256"
                }
              ],
              "internalType": "struct Dagora.Listing",
              "name": "listing",
              "type": "tuple"
            },
            {
              "internalType": "address payable",
              "name": "fundsHolder",
              "type": "address"
            },
            {
              "internalType": "address payable",
              "name": "buyer",
              "type": "address"
            },
            {
              "internalType": "address payable",
              "name": "commissioner",
              "type": "address"
            },
            {
              "internalType": "contract ERC20",
              "name": "token",
              "type": "address"
            },
            {
              "internalType": "uint256",
              "name": "total",
              "type": "uint256"
            },
            {
              "internalType": "uint256",
              "name": "cashback",
              "type": "uint256"
            },
            {
              "internalType": "uint256",
              "name": "commission",
              "type": "uint256"
            },
            {
              "internalType": "uint256",
              "name": "protocolFee",
              "type": "uint256"
            },
            {
              "internalType": "uint256",
              "name": "stakeHolderFee",
              "type": "uint256"
            },
            {
              "internalType": "uint256",
              "name": "expiration",
              "type": "uint256"
            },
            {
              "internalType": "uint256",
              "name": "confirmationTimeout",
              "type": "uint256"
            },
            {
              "internalType": "uint256",
              "name": "timestamp",
              "type": "uint256"
            }
          ],
          "internalType": "struct Dagora.Order",
          "name": "_order",
          "type": "tuple"
        }
      ],
      "name": "disputeTransaction",
      "outputs": [
        {
          "internalType": "bytes32",
          "name": "hash",
          "type": "bytes32"
        }
      ],
      "stateMutability": "payable",
      "type": "function"
    },
    {
      "inputs": [
        {
          "internalType": "bytes32",
          "name": "",
          "type": "bytes32"
        }
      ],
      "name": "disputes",
      "outputs": [
        {
          "internalType": "address payable",
          "name": "prosecution",
          "type": "address"
        },
        {
          "internalType": "address payable",
          "name": "defendant",
          "type": "address"
        },
        {
          "internalType": "uint256",
          "name": "amount",
          "type": "uint256"
        },
        {
          "internalType": "contract ERC20",
          "name": "token",
          "type": "address"
        },
        {
          "internalType": "uint256",
          "name": "prosecutionFee",
          "type": "uint256"
        },
        {
          "internalType": "uint256",
          "name": "defendantFee",
          "type": "uint256"
        },
        {
          "internalType": "enum Dagora.DisputeType",
          "name": "disputeType",
          "type": "uint8"
        },
        {
          "internalType": "uint256",
          "name": "lastInteraction",
          "type": "uint256"
        },
        {
          "internalType": "uint256",
          "name": "metaEvidenceId",
          "type": "uint256"
        },
        {
          "internalType": "uint256",
          "name": "disputeId",
          "type": "uint256"
        },
        {
          "internalType": "enum Dagora.DisputeStatus",
          "name": "status",
          "type": "uint8"
        }
      ],
      "stateMutability": "view",
      "type": "function"
    },
    {
      "inputs": [
        {
          "components": [
            {
              "components": [
                {
                  "internalType": "bytes32",
                  "name": "ipfsHash",
                  "type": "bytes32"
                },
                {
                  "internalType": "address payable",
                  "name": "seller",
                  "type": "address"
                },
                {
                  "internalType": "address payable",
                  "name": "stakeOwner",
                  "type": "address"
                },
                {
                  "internalType": "uint256",
                  "name": "stakedAmount",
                  "type": "uint256"
                },
                {
                  "internalType": "uint256",
                  "name": "commissionPercentage",
                  "type": "uint256"
                },
                {
                  "internalType": "uint256",
                  "name": "warranty",
                  "type": "uint256"
                },
                {
                  "internalType": "uint256",
                  "name": "cashbackPercentage",
                  "type": "uint256"
                },
                {
                  "internalType": "uint256",
                  "name": "expiration",
                  "type": "uint256"
                }
              ],
              "internalType": "struct Dagora.Listing",
              "name": "listing",
              "type": "tuple"
            },
            {
              "internalType": "address payable",
              "name": "fundsHolder",
              "type": "address"
            },
            {
              "internalType": "address payable",
              "name": "buyer",
              "type": "address"
            },
            {
              "internalType": "address payable",
              "name": "commissioner",
              "type": "address"
            },
            {
              "internalType": "contract ERC20",
              "name": "token",
              "type": "address"
            },
            {
              "internalType": "uint256",
              "name": "total",
              "type": "uint256"
            },
            {
              "internalType": "uint256",
              "name": "cashback",
              "type": "uint256"
            },
            {
              "internalType": "uint256",
              "name": "commission",
              "type": "uint256"
            },
            {
              "internalType": "uint256",
              "name": "protocolFee",
              "type": "uint256"
            },
            {
              "internalType": "uint256",
              "name": "stakeHolderFee",
              "type": "uint256"
            },
            {
              "internalType": "uint256",
              "name": "expiration",
              "type": "uint256"
            },
            {
              "internalType": "uint256",
              "name": "confirmationTimeout",
              "type": "uint256"
            },
            {
              "internalType": "uint256",
              "name": "timestamp",
              "type": "uint256"
            }
          ],
          "internalType": "struct Dagora.Order",
          "name": "_order",
          "type": "tuple"
        }
      ],
      "name": "executeTransaction",
      "outputs": [],
      "stateMutability": "nonpayable",
      "type": "function"
    },
    {
      "inputs": [],
      "name": "feeTimeout",
      "outputs": [
        {
          "internalType": "uint256",
          "name": "",
          "type": "uint256"
        }
      ],
      "stateMutability": "view",
      "type": "function"
    },
    {
      "inputs": [],
      "name": "getTrustedForwarder",
      "outputs": [
        {
          "internalType": "address",
          "name": "",
          "type": "address"
        }
      ],
      "stateMutability": "view",
      "type": "function"
    },
    {
      "inputs": [
        {
          "internalType": "address",
          "name": "addr",
          "type": "address"
        }
      ],
      "name": "grantAuthentication",
      "outputs": [],
      "stateMutability": "nonpayable",
      "type": "function"
    },
    {
      "inputs": [],
      "name": "ipfsDomain",
      "outputs": [
        {
          "internalType": "string",
          "name": "",
          "type": "string"
        }
      ],
      "stateMutability": "view",
      "type": "function"
    },
    {
      "inputs": [
        {
          "internalType": "address",
          "name": "forwarder",
          "type": "address"
        }
      ],
      "name": "isTrustedForwarder",
      "outputs": [
        {
          "internalType": "bool",
          "name": "",
          "type": "bool"
        }
      ],
      "stateMutability": "view",
      "type": "function"
    },
    {
      "inputs": [],
      "name": "marketToken",
      "outputs": [
        {
          "internalType": "contract ERC20Burnable",
          "name": "",
          "type": "address"
        }
      ],
      "stateMutability": "view",
      "type": "function"
    },
    {
      "inputs": [],
      "name": "metaEvidenceCount",
      "outputs": [
        {
          "internalType": "uint256",
          "name": "",
          "type": "uint256"
        }
      ],
      "stateMutability": "view",
      "type": "function"
    },
    {
      "inputs": [],
      "name": "orderExtraData",
      "outputs": [
        {
          "internalType": "bytes",
          "name": "",
          "type": "bytes"
        }
      ],
      "stateMutability": "view",
      "type": "function"
    },
    {
      "inputs": [],
      "name": "owner",
      "outputs": [
        {
          "internalType": "address",
          "name": "",
          "type": "address"
        }
      ],
      "stateMutability": "view",
      "type": "function"
    },
    {
      "inputs": [
        {
          "internalType": "bytes32",
          "name": "hash",
          "type": "bytes32"
        }
      ],
      "name": "payArbitrationFee",
      "outputs": [],
      "stateMutability": "payable",
      "type": "function"
    },
    {
      "inputs": [],
      "name": "protocolFeePercentage",
      "outputs": [
        {
          "internalType": "uint256",
          "name": "",
          "type": "uint256"
        }
      ],
      "stateMutability": "view",
      "type": "function"
    },
    {
      "inputs": [],
      "name": "protocolFeeRecipient",
      "outputs": [
        {
          "internalType": "address",
          "name": "",
          "type": "address"
        }
      ],
      "stateMutability": "view",
      "type": "function"
    },
    {
      "inputs": [],
      "name": "renounceOwnership",
      "outputs": [],
      "stateMutability": "nonpayable",
      "type": "function"
    },
    {
      "inputs": [
        {
          "components": [
            {
              "internalType": "bytes32",
              "name": "ipfsHash",
              "type": "bytes32"
            },
            {
              "internalType": "address payable",
              "name": "seller",
              "type": "address"
            },
            {
              "internalType": "address payable",
              "name": "stakeOwner",
              "type": "address"
            },
            {
              "internalType": "uint256",
              "name": "stakedAmount",
              "type": "uint256"
            },
            {
              "internalType": "uint256",
              "name": "commissionPercentage",
              "type": "uint256"
            },
            {
              "internalType": "uint256",
              "name": "warranty",
              "type": "uint256"
            },
            {
              "internalType": "uint256",
              "name": "cashbackPercentage",
              "type": "uint256"
            },
            {
              "internalType": "uint256",
              "name": "expiration",
              "type": "uint256"
            }
          ],
          "internalType": "struct Dagora.Listing",
          "name": "_listing",
          "type": "tuple"
        },
        {
          "components": [
            {
              "internalType": "uint8",
              "name": "v",
              "type": "uint8"
            },
            {
              "internalType": "bytes32",
              "name": "r",
              "type": "bytes32"
            },
            {
              "internalType": "bytes32",
              "name": "s",
              "type": "bytes32"
            }
          ],
          "internalType": "struct Dagora.Sig",
          "name": "sig",
          "type": "tuple"
        }
      ],
      "name": "report",
      "outputs": [
        {
          "internalType": "bytes32",
          "name": "hash",
          "type": "bytes32"
        }
      ],
      "stateMutability": "payable",
      "type": "function"
    },
    {
      "inputs": [],
      "name": "reportExtraData",
      "outputs": [
        {
          "internalType": "bytes",
          "name": "",
          "type": "bytes"
        }
      ],
      "stateMutability": "view",
      "type": "function"
    },
    {
      "inputs": [
        {
          "internalType": "address",
          "name": "addr",
          "type": "address"
        }
      ],
      "name": "revokeAuthentication",
      "outputs": [],
      "stateMutability": "nonpayable",
      "type": "function"
    },
    {
      "inputs": [
        {
          "internalType": "uint256",
          "name": "_disputeID",
          "type": "uint256"
        },
        {
          "internalType": "uint256",
          "name": "_ruling",
          "type": "uint256"
        }
      ],
      "name": "rule",
      "outputs": [],
      "stateMutability": "nonpayable",
      "type": "function"
    },
    {
      "inputs": [
        {
          "internalType": "address",
          "name": "",
          "type": "address"
        }
      ],
      "name": "sellers",
      "outputs": [
        {
          "internalType": "uint256",
          "name": "balance",
          "type": "uint256"
        },
        {
          "internalType": "uint256",
          "name": "lockedTokens",
          "type": "uint256"
        },
        {
          "internalType": "uint256",
          "name": "blackListExpire",
          "type": "uint256"
        }
      ],
      "stateMutability": "view",
      "type": "function"
    },
    {
      "inputs": [
        {
          "internalType": "address",
          "name": "_forwarder",
          "type": "address"
        }
      ],
      "name": "setTrustedForwarder",
      "outputs": [],
      "stateMutability": "nonpayable",
      "type": "function"
    },
    {
      "inputs": [
        {
          "internalType": "bytes32",
          "name": "_hash",
          "type": "bytes32"
        },
        {
          "internalType": "string",
          "name": "_evidence",
          "type": "string"
        }
      ],
      "name": "submitEvidence",
      "outputs": [],
      "stateMutability": "nonpayable",
      "type": "function"
    },
    {
      "inputs": [],
      "name": "tokenOwnerFeePercentage",
      "outputs": [
        {
          "internalType": "uint256",
          "name": "",
          "type": "uint256"
        }
      ],
      "stateMutability": "view",
      "type": "function"
    },
    {
      "inputs": [
        {
          "internalType": "bytes32",
          "name": "",
          "type": "bytes32"
        }
      ],
      "name": "transactions",
      "outputs": [
        {
          "internalType": "uint256",
          "name": "lastStatusUpdate",
          "type": "uint256"
        },
        {
          "internalType": "uint256",
          "name": "refund",
          "type": "uint256"
        },
        {
          "internalType": "uint256",
          "name": "gasFee",
          "type": "uint256"
        },
        {
          "internalType": "enum Dagora.Status",
          "name": "status",
          "type": "uint8"
        }
      ],
      "stateMutability": "view",
      "type": "function"
    },
    {
      "inputs": [
        {
          "internalType": "address",
          "name": "newOwner",
          "type": "address"
        }
      ],
      "name": "transferOwnership",
      "outputs": [],
      "stateMutability": "nonpayable",
      "type": "function"
    },
    {
      "inputs": [
        {
          "components": [
            {
              "components": [
                {
                  "internalType": "bytes32",
                  "name": "ipfsHash",
                  "type": "bytes32"
                },
                {
                  "internalType": "address payable",
                  "name": "seller",
                  "type": "address"
                },
                {
                  "internalType": "address payable",
                  "name": "stakeOwner",
                  "type": "address"
                },
                {
                  "internalType": "uint256",
                  "name": "stakedAmount",
                  "type": "uint256"
                },
                {
                  "internalType": "uint256",
                  "name": "commissionPercentage",
                  "type": "uint256"
                },
                {
                  "internalType": "uint256",
                  "name": "warranty",
                  "type": "uint256"
                },
                {
                  "internalType": "uint256",
                  "name": "cashbackPercentage",
                  "type": "uint256"
                },
                {
                  "internalType": "uint256",
                  "name": "expiration",
                  "type": "uint256"
                }
              ],
              "internalType": "struct Dagora.Listing",
              "name": "listing",
              "type": "tuple"
            },
            {
              "internalType": "address payable",
              "name": "fundsHolder",
              "type": "address"
            },
            {
              "internalType": "address payable",
              "name": "buyer",
              "type": "address"
            },
            {
              "internalType": "address payable",
              "name": "commissioner",
              "type": "address"
            },
            {
              "internalType": "contract ERC20",
              "name": "token",
              "type": "address"
            },
            {
              "internalType": "uint256",
              "name": "total",
              "type": "uint256"
            },
            {
              "internalType": "uint256",
              "name": "cashback",
              "type": "uint256"
            },
            {
              "internalType": "uint256",
              "name": "commission",
              "type": "uint256"
            },
            {
              "internalType": "uint256",
              "name": "protocolFee",
              "type": "uint256"
            },
            {
              "internalType": "uint256",
              "name": "stakeHolderFee",
              "type": "uint256"
            },
            {
              "internalType": "uint256",
              "name": "expiration",
              "type": "uint256"
            },
            {
              "internalType": "uint256",
              "name": "confirmationTimeout",
              "type": "uint256"
            },
            {
              "internalType": "uint256",
              "name": "timestamp",
              "type": "uint256"
            }
          ],
          "internalType": "struct Dagora.Order",
          "name": "_order",
          "type": "tuple"
        },
        {
          "internalType": "uint256",
          "name": "refund",
          "type": "uint256"
        }
      ],
      "name": "updateRefund",
      "outputs": [],
      "stateMutability": "nonpayable",
      "type": "function"
    },
    {
      "inputs": [],
      "name": "versionRecipient",
      "outputs": [
        {
          "internalType": "string",
          "name": "",
          "type": "string"
        }
      ],
      "stateMutability": "view",
      "type": "function"
    },
    {
      "inputs": [
        {
          "internalType": "uint256",
          "name": "value",
          "type": "uint256"
        }
      ],
      "name": "withdrawTokens",
      "outputs": [],
      "stateMutability": "nonpayable",
      "type": "function"
    },
    {
      "inputs": [
        {
          "components": [
            {
              "internalType": "bytes32",
              "name": "ipfsHash",
              "type": "bytes32"
            },
            {
              "internalType": "address payable",
              "name": "seller",
              "type": "address"
            },
            {
              "internalType": "address payable",
              "name": "stakeOwner",
              "type": "address"
            },
            {
              "internalType": "uint256",
              "name": "stakedAmount",
              "type": "uint256"
            },
            {
              "internalType": "uint256",
              "name": "commissionPercentage",
              "type": "uint256"
            },
            {
              "internalType": "uint256",
              "name": "warranty",
              "type": "uint256"
            },
            {
              "internalType": "uint256",
              "name": "cashbackPercentage",
              "type": "uint256"
            },
            {
              "internalType": "uint256",
              "name": "expiration",
              "type": "uint256"
            }
          ],
          "internalType": "struct Dagora.Listing",
          "name": "_listing",
          "type": "tuple"
        },
        {
          "components": [
            {
              "internalType": "uint8",
              "name": "v",
              "type": "uint8"
            },
            {
              "internalType": "bytes32",
              "name": "r",
              "type": "bytes32"
            },
            {
              "internalType": "bytes32",
              "name": "s",
              "type": "bytes32"
            }
          ],
          "internalType": "struct Dagora.Sig",
          "name": "sig",
          "type": "tuple"
        }
      ],
      "name": "_requireValidListing",
      "outputs": [
        {
          "internalType": "bool",
          "name": "",
          "type": "bool"
        }
      ],
      "stateMutability": "view",
      "type": "function"
    },
    {
      "inputs": [
        {
          "components": [
            {
              "internalType": "bytes32",
              "name": "ipfsHash",
              "type": "bytes32"
            },
            {
              "internalType": "address payable",
              "name": "seller",
              "type": "address"
            },
            {
              "internalType": "address payable",
              "name": "stakeOwner",
              "type": "address"
            },
            {
              "internalType": "uint256",
              "name": "stakedAmount",
              "type": "uint256"
            },
            {
              "internalType": "uint256",
              "name": "commissionPercentage",
              "type": "uint256"
            },
            {
              "internalType": "uint256",
              "name": "warranty",
              "type": "uint256"
            },
            {
              "internalType": "uint256",
              "name": "cashbackPercentage",
              "type": "uint256"
            },
            {
              "internalType": "uint256",
              "name": "expiration",
              "type": "uint256"
            }
          ],
          "internalType": "struct Dagora.Listing",
          "name": "listing",
          "type": "tuple"
        }
      ],
      "name": "_hashListing",
      "outputs": [
        {
          "internalType": "bytes32",
          "name": "hash",
          "type": "bytes32"
        }
      ],
      "stateMutability": "pure",
      "type": "function"
    },
    {
      "inputs": [
        {
          "components": [
            {
              "internalType": "bytes32",
              "name": "ipfsHash",
              "type": "bytes32"
            },
            {
              "internalType": "address payable",
              "name": "seller",
              "type": "address"
            },
            {
              "internalType": "address payable",
              "name": "stakeOwner",
              "type": "address"
            },
            {
              "internalType": "uint256",
              "name": "stakedAmount",
              "type": "uint256"
            },
            {
              "internalType": "uint256",
              "name": "commissionPercentage",
              "type": "uint256"
            },
            {
              "internalType": "uint256",
              "name": "warranty",
              "type": "uint256"
            },
            {
              "internalType": "uint256",
              "name": "cashbackPercentage",
              "type": "uint256"
            },
            {
              "internalType": "uint256",
              "name": "expiration",
              "type": "uint256"
            }
          ],
          "internalType": "struct Dagora.Listing",
          "name": "listing",
          "type": "tuple"
        }
      ],
      "name": "_hashListingToSign",
      "outputs": [
        {
          "internalType": "bytes32",
          "name": "hash",
          "type": "bytes32"
        }
      ],
      "stateMutability": "pure",
      "type": "function"
    },
    {
      "inputs": [
        {
          "internalType": "bytes32",
          "name": "msgHash",
          "type": "bytes32"
        },
        {
          "components": [
            {
              "internalType": "uint8",
              "name": "v",
              "type": "uint8"
            },
            {
              "internalType": "bytes32",
              "name": "r",
              "type": "bytes32"
            },
            {
              "internalType": "bytes32",
              "name": "s",
              "type": "bytes32"
            }
          ],
          "internalType": "struct Dagora.Sig",
          "name": "sig",
          "type": "tuple"
        }
      ],
      "name": "_ecrecover",
      "outputs": [
        {
          "internalType": "address",
          "name": "",
          "type": "address"
        }
      ],
      "stateMutability": "pure",
      "type": "function"
    }
  ],
  "bytecode": "0x60806040523480156200001157600080fd5b50604051620058903803806200589083398101604081905262000034916200047c565b808b8b8b8b8b8b8b8b8b8b898989898989898989898888888888888660006200005c620001af565b600080546001600160a01b0319166001600160a01b0383169081178255604051929350917f8be0079c531659141344cd1fd0a4f28419497f9722a3daafe3b4186f6b6457e0908290a350600a80546001600160a01b03808a166001600160a01b031992831617909255600f805492891692909116919091179055620151808086026008558402600755600d839055600e82905580516200010490600c90602084019062000321565b505050505050505089601060006101000a8154816001600160a01b0302191690836001600160a01b0316021790555082601190805190602001906200014b92919062000321565b5081516200016190601290602085019062000321565b50505050505050505050508a601360006101000a8154816001600160a01b0302191690836001600160a01b0316021790555050505050505050505050505050505050505050505050620005b2565b6000620001c6620001cc60201b6200257f1760201c565b90505b90565b600060183610801590620001e65750620001e6336200024c565b1562000247576200023f6000368080601f01602080910402602001604051908101604052809392919081815260200183838082843760009201919091525050366013190191505062000260602090811b620025ed17901c565b9050620001c9565b503390565b6013546001600160a01b0390811691161490565b60008160140183511015620002a157620002a1620002906004855185601401620002bd60201b620026251760201c565b6200031960201b620026801760201c565b6014820191506001600160a01b03828401511690505b92915050565b6060632800659560e01b848484604051602401620002de939291906200058f565b60408051601f198184030181529190526020810180516001600160e01b03166001600160e01b03199093169290921790915290509392505050565b805160208201fd5b828054600181600116156101000203166002900490600052602060002090601f016020900481019282601f106200036457805160ff191683800117855562000394565b8280016001018555821562000394579182015b828111156200039457825182559160200191906001019062000377565b50620003a2929150620003a6565b5090565b5b80821115620003a25760008155600101620003a7565b80516001600160a01b0381168114620002b757600080fd5b600082601f830112620003e6578081fd5b81516001600160401b0380821115620003fd578283fd5b6040516020601f8401601f19168201810183811183821017156200041f578586fd5b806040525081945083825286818588010111156200043c57600080fd5b600092505b8383101562000460578583018101518284018201529182019162000441565b83831115620004725760008185840101525b5050505092915050565b60008060008060008060008060008060006101608c8e0312156200049e578687fd5b620004aa8d8d620003bd565b9a50620004bb8d60208e01620003bd565b9950620004cc8d60408e01620003bd565b985060608c0151975060808c0151965060a08c0151955060c08c0151945060e08c015160018060401b0381111562000502578485fd5b620005108e828f01620003d5565b6101008e015190955090506001600160401b038111156200052f578384fd5b6200053d8e828f01620003d5565b6101208e015190945090506001600160401b038111156200055c578283fd5b6200056a8e828f01620003d5565b9250506200057d8d6101408e01620003bd565b90509295989b509295989b9093969950565b60608101600885106200059e57fe5b938152602081019290925260409091015290565b6152ce80620005c26000396000f3fe60806040526004361061031a5760003560e01c80638076f005116101ab578063b329036b116100f7578063d48fd75411610095578063ece1de441161006f578063ece1de44146108f5578063ee7269d714610908578063f2fde38b1461091d578063f48a0b311461093d5761031a565b8063d48fd75414610895578063da742228146108b5578063dd49756e146108d55761031a565b8063be6a18ef116100d1578063be6a18ef14610838578063cae6047f1461084b578063ce1b815f14610860578063d1fcfdb8146108755761031a565b8063b329036b146107ee578063b639866714610803578063ba4bc763146108185761031a565b80638e50e50911610164578063a2031de41161013e578063a2031de414610784578063a66f1a7214610799578063ad48d611146107b9578063afd9e0d0146107ce5761031a565b80638e50e5091461073a57806396e712501461074f578063a0c59ef31461076f5761031a565b80638076f0051461069257806381fd4fd7146106b257806382ad5f75146106d257806382e1e972146106e557806387bd84cc146107055780638da5cb5b146107255761031a565b80635af798071161026a5780636b83a06111610223578063703472f3116101fd578063703472f31461061d578063715018a61461063d57806372fc42131461065257806378e740ff146106725761031a565b80636b83a061146105b95780636cc6cde1146105d95780636d47ab72146105ee5761031a565b80635af79807146104e55780635d2569ad146104fa578063640b5aac14610527578063642f2eaf1461054757806364df049e1461057757806369dc9ff3146105995761031a565b806339d2a694116102d75780634f92352f116102b15780634f92352f1461045857806353376d1f14610478578063546f995c14610498578063572b6c05146104b85761031a565b806339d2a6941461040e5780634140a5eb14610421578063486ff0cd146104365761031a565b806311be19971461031f578063203ab1741461035f57806320a1e5b51461038c5780632c3d01b8146103ac578063311a6c56146103ce578063315a095d146103ee575b600080fd5b34801561032b57600080fd5b5061033f61033a366004614219565b61095d565b6040516103569b9a99989796959493929190614705565b60405180910390f35b34801561036b57600080fd5b5061037f61037a366004614311565b6109ca565b604051610356919061480c565b34801561039857600080fd5b5061037f6103a73660046143a6565b6109dd565b3480156103b857600080fd5b506103cc6103c736600461438a565b610b83565b005b3480156103da57600080fd5b506103cc6103e9366004614432565b610cc1565b3480156103fa57600080fd5b506103cc610409366004614219565b610de8565b61037f61041c36600461438a565b610f50565b34801561042d57600080fd5b5061037f610fd0565b34801561044257600080fd5b5061044b610fd6565b6040516103569190614833565b34801561046457600080fd5b5061037f610473366004614311565b610ff4565b34801561048457600080fd5b506103cc61049336600461411e565b610fff565b3480156104a457600080fd5b506103cc6104b336600461413a565b61107d565b3480156104c457600080fd5b506104d86104d336600461411e565b6110b1565b6040516103569190614801565b3480156104f157600080fd5b5061037f6110c5565b34801561050657600080fd5b5061051a610515366004614175565b6110cb565b60405161035691906147bd565b34801561053357600080fd5b506103cc6105423660046143ee565b6111a4565b34801561055357600080fd5b50610567610562366004614219565b6112e4565b60405161035694939291906151e3565b34801561058357600080fd5b5061058c61130e565b60405161035691906146b0565b3480156105a557600080fd5b506104d86105b436600461411e565b61131d565b3480156105c557600080fd5b506104d86105d4366004614311565b611332565b3480156105e557600080fd5b5061058c61143f565b3480156105fa57600080fd5b5061060e61060936600461411e565b61144e565b604051610356939291906151cd565b34801561062957600080fd5b5061037f6106383660046142f2565b61146e565b34801561064957600080fd5b506103cc6115b8565b34801561065e57600080fd5b506103cc61066d366004614219565b611637565b34801561067e57600080fd5b506104d861068d36600461438a565b6117f4565b34801561069e57600080fd5b506104d86106ad366004614219565b6118b8565b3480156106be57600080fd5b506104d86106cd36600461432d565b6118cd565b61037f6106e036600461432d565b6118e4565b3480156106f157600080fd5b506103cc61070036600461438a565b611965565b34801561071157600080fd5b506104d8610720366004614219565b611a5a565b34801561073157600080fd5b5061058c611a6f565b34801561074657600080fd5b5061037f611a7e565b34801561075b57600080fd5b506103cc61076a36600461438a565b611a84565b34801561077b57600080fd5b5061037f611b8a565b34801561079057600080fd5b5061044b611b90565b3480156107a557600080fd5b5061058c6107b43660046142c6565b611c1e565b3480156107c557600080fd5b5061058c611c83565b3480156107da57600080fd5b5061037f6107e936600461438a565b611c92565b3480156107fa57600080fd5b5061037f611ce5565b34801561080f57600080fd5b5061044b611ceb565b34801561082457600080fd5b5061037f610833366004614219565b611d46565b6103cc610846366004614219565b611d58565b34801561085757600080fd5b5061037f611f7b565b34801561086c57600080fd5b5061058c611f81565b34801561088157600080fd5b506103cc61089036600461411e565b611f90565b3480156108a157600080fd5b506103cc6108b036600461435a565b612037565b3480156108c157600080fd5b506103cc6108d036600461411e565b612162565b3480156108e157600080fd5b506103cc6108f0366004614219565b612184565b6103cc610903366004614219565b612290565b34801561091457600080fd5b5061044b61233f565b34801561092957600080fd5b506103cc61093836600461411e565b61239a565b34801561094957600080fd5b506103cc610958366004614231565b612450565b600560208190526000918252604090912080546001820154600283015460038401546004850154958501546006860154600787015460088801546009890154600a909901546001600160a01b039889169a9789169996989095169695939460ff938416949293919291168b565b60006109d582612688565b90505b919050565b60006109ea84848461269b565b6000818152600460205260408120919250600382015460ff166005811115610a0e57fe5b14610a345760405162461bcd60e51b8152600401610a2b90614fec565b60405180910390fd5b84608001516001600160a01b03166323b872dd8660200151308860a001516040518463ffffffff1660e01b8152600401610a7093929190614780565b602060405180830381600087803b158015610a8a57600080fd5b505af1158015610a9e573d6000803e3d6000fd5b505050506040513d601f19601f82011682018060405250810190610ac291906141f9565b610ade5760405162461bcd60e51b8152600401610a2b90615063565b4281556003810180546001919060ff1916828002179055508460000151602001516001600160a01b031685604001516001600160a01b0316837fe419a7cfec7b19a58f8ef66dbf85dd08b396bafa0e2f94b3181fd3d047cb748188600001516040015189606001518a608001518b60a001518c60e001518d60c001518e6101600151604051610b7397969594939291906146c4565b60405180910390a4509392505050565b6000610b8e82612703565b60008181526004602052604090209091506001600382015460ff166005811115610bb457fe5b1480610bd257506002600382015460ff166005811115610bd057fe5b145b80610bee575060038082015460ff166005811115610bec57fe5b145b610c0a5760405162461bcd60e51b8152600401610a2b90614aa4565b60006001600383015460ff166005811115610c2157fe5b1480610c3e575060038083015460ff166005811115610c3c57fe5b145b15610c7b578361016001516201518002826000015401421015610c735760405162461bcd60e51b8152600401610a2b90614a0f565b506000610cb2565b835160a0015182546201518090910201421015610caa5760405162461bcd60e51b8152600401610a2b90614a0f565b50825160c001515b610cbb84612711565b50505050565b60008281526006602090815260408083205480845260059092529091206010546001600160a01b0316610cf2612ad7565b6001600160a01b031614610d185760405162461bcd60e51b8152600401610a2b90615021565b6003600a82015460ff166004811115610d2d57fe5b14610d4a5760405162461bcd60e51b8152600401610a2b90614907565b83610d53612ad7565b6001600160a01b03167f394027a5fa6e098a1191094d1719d6929b9abc535fcc0c8f448d6a4e7562227685604051610d8b919061480c565b60405180910390a36001600682015460ff166002811115610da857fe5b1415610dbd57610db88184612ae6565b610cbb565b610dc78184612e44565b506000908152600460205260409020600301805460ff191660051790555050565b600060016000610df6612ad7565b6001600160a01b03166001600160a01b0316815260200190815260200160002090508181600101548260000154031015610e425760405162461bcd60e51b8152600401610a2b9061488f565b600a546001600160a01b03166323b872dd610e5b612ad7565b30856040518463ffffffff1660e01b8152600401610e7b93929190614780565b602060405180830381600087803b158015610e9557600080fd5b505af1158015610ea9573d6000803e3d6000fd5b505050506040513d601f19601f82011682018060405250810190610ecd91906141f9565b610ed657600080fd5b8160016000610ee3612ad7565b6001600160a01b0316815260208101919091526040016000208054919091039055610f0c612ad7565b6001600160a01b03167f05e8d4927d2e9cff8a7d6f1c0c3b0fdd4d7299da00fe4911745bda49a5834e6783604051610f44919061480c565b60405180910390a25050565b6000610f5b82613281565b600081815260056020908152604091829020600801548551519251939450927f61606860eb6c87306811e2695215385101daab53bd6ab4e9f9049aead9363c7d92610fa992600c920161460a565b60408051601f1981840301815290829052610fc391614833565b60405180910390a2919050565b600e5481565b6040805180820190915260038152620312e360ec1b60208201525b90565b60006109d582613438565b611007612ad7565b6000546001600160a01b039081169116146110345760405162461bcd60e51b8152600401610a2b90614cc4565b6001600160a01b038116600081815260096020526040808220805460ff19169055517f45f62f30e7b8439e0da7d8e560fe39d01238091ce9e789e3d12b514edf98acea9190a250565b60005b81518110156110ad576110a582828151811061109857fe5b6020026020010151610b83565b600101611080565b5050565b6013546001600160a01b0390811691161490565b600b5481565b6060825184511480156110df575081518351145b6110e857600080fd5b835167ffffffffffffffff8111801561110057600080fd5b5060405190808252806020026020018201604052801561112a578160200160208202803683370190505b50905060005b845181101561119c5761117d85828151811061114857fe5b602002602001015185838151811061115c57fe5b602002602001015185848151811061117057fe5b60200260200101516109dd565b82828151811061118957fe5b6020908102919091010152600101611130565b509392505050565b8151602001516001600160a01b03166111bb612ad7565b6001600160a01b0316146111e15760405162461bcd60e51b8152600401610a2b90614b1c565b60006111ec83612703565b60008181526004602052604090209091506001600382015460ff16600581111561121257fe5b1461122f5760405162461bcd60e51b8152600401610a2b90614aa4565b836101600151620151800281600001540142111561125f5760405162461bcd60e51b8152600401610a2b90614d67565b8360a001518460e001518561012001518661010001518760c001510101018401111561129d5760405162461bcd60e51b8152600401610a2b90614dd3565b828160010181905550817fe18fe462037a62d3500e07f2b32d9e16a69cee44850c9b7dcef7d856087e4aff846040516112d6919061480c565b60405180910390a250505050565b60046020526000908152604090208054600182015460028301546003909301549192909160ff1684565b600f546001600160a01b031681565b60096020526000908152604090205460ff1681565b600081604001516001600160a01b031661134a612ad7565b6001600160a01b0316146113705760405162461bcd60e51b8152600401610a2b90614d9c565b816060015160016000611381612ad7565b6001600160a01b0316815260208101919091526040016000205410156113b95760405162461bcd60e51b8152600401610a2b90614b53565b60006113c483612688565b60008181526003602052604090205490915060ff16156113f65760405162461bcd60e51b8152600401610a2b9061494d565b600081815260036020526040808220805460ff191660011790555182917f4e58c75167b3bff3ab3949a55f72203f341f94cca1c2c0c84370731b2b4c201791a250600192915050565b6010546001600160a01b031681565b600160208190526000918252604090912080549181015460029091015483565b60008082600281111561147d57fe5b1161148757600080fd5b600182600281111561149557fe5b14156115235760105460405163f7434ea960e01b81526001600160a01b039091169063f7434ea9906114cc90601190600401614846565b60206040518083038186803b1580156114e457600080fd5b505afa1580156114f8573d6000803e3d6000fd5b505050506040513d601f19601f8201168201806040525081019061151c919061441a565b90506109d8565b600282600281111561153157fe5b14156109d85760105460405163f7434ea960e01b81526001600160a01b039091169063f7434ea99061156890601290600401614846565b60206040518083038186803b15801561158057600080fd5b505afa158015611594573d6000803e3d6000fd5b505050506040513d601f19601f820116820180604052508101906109d5919061441a565b6115c0612ad7565b6000546001600160a01b039081169116146115ed5760405162461bcd60e51b8152600401610a2b90614cc4565b600080546040516001600160a01b03909116907f8be0079c531659141344cd1fd0a4f28419497f9722a3daafe3b4186f6b6457e0908390a3600080546001600160a01b0319169055565b6000818152600560205260409020600a81015460ff16600481111561165857fe5b600010801561167957506003600a82015460ff16600481111561167757fe5b105b6116955760405162461bcd60e51b8152600401610a2b90614b8a565b6008548160070154420310156116bd5760405162461bcd60e51b8152600401610a2b90614a0f565b6000816004015460001461173b57600482018054600090915582546040516001600160a01b039091169082906116f290610ff1565b60006040518083038185875af1925050503d806000811461172f576040519150601f19603f3d011682016040523d82523d6000602084013e611734565b606091505b5090925050505b6005820154156117b857600582018054600090915560018301546040516001600160a01b0390911690829061176f90610ff1565b60006040518083038185875af1925050503d80600081146117ac576040519150601f19603f3d011682016040523d82523d6000602084013e6117b1565b606091505b5090925050505b6002600a83015460ff1660048111156117cd57fe5b14156117e4576117df8260015b612ae6565b6117ef565b6117ef8260026117da565b505050565b600081602001516001600160a01b031661180c612ad7565b6001600160a01b0316146118325760405162461bcd60e51b8152600401610a2b90614cf9565b600061183d83612703565b60008181526003602052604090205490915060ff161561186f5760405162461bcd60e51b8152600401610a2b9061494d565b600081815260036020526040808220805460ff191660011790555182917f0bed755d9d22259660bf623a395b620bbff2af67319e990b538dc8603bdc3e5f91a250600192915050565b60026020526000908152604090205460ff1681565b60006118d9838361348f565b151590505b92915050565b60006118f083836134c3565b6000818152600560209081526040918290206008015486519251939450927f61606860eb6c87306811e2695215385101daab53bd6ab4e9f9049aead9363c7d9261193d92600c920161460a565b60408051601f198184030181529082905261195791614833565b60405180910390a292915050565b600061197082612703565b60008181526004602052604090209091506001600382015460ff16600581111561199657fe5b1480156119bf575082604001516001600160a01b03166119b4612ad7565b6001600160a01b0316145b80611a03575060038082015460ff1660058111156119d957fe5b148015611a0357508251602001516001600160a01b03166119f8612ad7565b6001600160a01b0316145b611a1f5760405162461bcd60e51b8152600401610a2b90614efe565b6001810154158015611a355750825160a0015115155b15611a515760038101805460ff191660021790554281556117ef565b6117ef83612711565b60036020526000908152604090205460ff1681565b6000546001600160a01b031690565b600d5481565b6000611a8f82612703565b60008181526004602052604090209091506002600382015460ff166005811115611ab557fe5b14611ad25760405162461bcd60e51b8152600401610a2b90614aa4565b82604001516001600160a01b0316611ae8612ad7565b6001600160a01b031614611b0e5760405162461bcd60e51b8152600401610a2b90614fc1565b825160a0015181546201518090910201421115611b3d5760405162461bcd60e51b8152600401610a2b90614a6d565b6003818101805460ff1916909117905560a0830151600182015542815560405182907f99e77d4092287badf5165a76eb7add37ec282650747091906c6a02e0cd4f5b3d90600090a2505050565b60075481565b600c805460408051602060026001851615610100026000190190941693909304601f81018490048402820184019092528181529291830182828015611c165780601f10611beb57610100808354040283529160200191611c16565b820191906000526020600020905b815481529060010190602001808311611bf957829003601f168201915b505050505081565b600060018383600001518460200151856040015160405160008152602001604052604051611c4f9493929190614815565b6020604051602081039080840390855afa158015611c71573d6000803e3d6000fd5b5050604051601f190151949350505050565b600a546001600160a01b031681565b60008060046000611ca285612703565b815260200190815260200160002090508260e001518361012001518461010001518560c001518460020154856001015401010101018360a0015103915050919050565b60085481565b6012805460408051602060026001851615610100026000190190941693909304601f81018490048402820184019092528181529291830182828015611c165780601f10611beb57610100808354040283529160200191611c16565b60066020526000908152604090205481565b60008181526005602052604081206006810154909190611d7a9060ff1661146e565b600a83015490915060ff166004811115611d9057fe5b6000108015611db157506003600a83015460ff166004811115611daf57fe5b105b611dcd5760405162461bcd60e51b8152600401610a2b906148c6565b81546001600160a01b0316611de0612ad7565b6001600160a01b03161480611e11575060018201546001600160a01b0316611e06612ad7565b6001600160a01b0316145b611e2d5760405162461bcd60e51b8152600401610a2b90614d30565b81546001600160a01b0316611e40612ad7565b6001600160a01b03161415611ee557600482018054340190819055811115611e7a5760405162461bcd60e51b8152600401610a2b90614acb565b4260078301556005820154811115611edb57600a8201805460ff1916600217905560405183907ff972c77402d0ee7d94e4b2ea7cee21a3d392136bf7c9b72d2dc85e2a4d24a9cf90611ece9060019061487b565b60405180910390a26117df565b6117df838261370c565b600582018054340190819055811115611f105760405162461bcd60e51b8152600401610a2b90614acb565b4260078301556004820154811115611f7157600a8201805460ff1916600117905560405183907ff972c77402d0ee7d94e4b2ea7cee21a3d392136bf7c9b72d2dc85e2a4d24a9cf90611f649060009061487b565b60405180910390a26117ef565b6117ef838261370c565b61271081565b6013546001600160a01b031690565b611f98612ad7565b6000546001600160a01b03908116911614611fc55760405162461bcd60e51b8152600401610a2b90614cc4565b6001600160a01b03811660009081526009602052604090205460ff1615611feb57600080fd5b6001600160a01b038116600081815260096020526040808220805460ff19166001179055517f52133ca86a0b20d025852c627bd9d5c8e6037a237d7ef7d22f399ae642e6b9b49190a250565b600060048161205361204e3687900387018761438a565b612703565b8152602081019190915260400160009081209150600382015460ff16600581111561207a57fe5b11801561209957506005600382015460ff16600581111561209757fe5b105b6120a257600080fd5b816120b56107e93686900386018661438a565b10156120c057600080fd5b600281018054830190556120dc6101808401610160850161411e565b6001600160a01b031663a9059cbb6120f2612ad7565b846040518363ffffffff1660e01b81526004016121109291906147a4565b602060405180830381600087803b15801561212a57600080fd5b505af115801561213e573d6000803e3d6000fd5b505050506040513d601f19601f82011682018060405250810190610cbb91906141f9565b601380546001600160a01b0319166001600160a01b0392909216919091179055565b600a546001600160a01b03166323b872dd61219d612ad7565b30846040518463ffffffff1660e01b81526004016121bd93929190614780565b602060405180830381600087803b1580156121d757600080fd5b505af11580156121eb573d6000803e3d6000fd5b505050506040513d601f19601f8201168201806040525081019061220f91906141f9565b61221857600080fd5b8060016000612225612ad7565b6001600160a01b0316815260208101919091526040016000208054909101905561224d612ad7565b6001600160a01b03167fbc7c8a4d8049a3f99a02f2a20640c206a2e4d3f2fa54fd20da9f01fda3620cda82604051612285919061480c565b60405180910390a250565b60008181526005602052604090206002600682015460ff1660028111156122b357fe5b146122d05760405162461bcd60e51b8152600401610a2b90614f74565b601054600982015460405163093225f160e31b81526001600160a01b03909216916349912f8891349161230991906012906004016151a6565b6000604051808303818588803b15801561232257600080fd5b505af1158015612336573d6000803e3d6000fd5b50505050505050565b6011805460408051602060026001851615610100026000190190941693909304601f81018490048402820184019092528181529291830182828015611c165780601f10611beb57610100808354040283529160200191611c16565b6123a2612ad7565b6000546001600160a01b039081169116146123cf5760405162461bcd60e51b8152600401610a2b90614cc4565b6001600160a01b0381166123f55760405162461bcd60e51b8152600401610a2b906149c9565b600080546040516001600160a01b03808516939216917f8be0079c531659141344cd1fd0a4f28419497f9722a3daafe3b4186f6b6457e091a3600080546001600160a01b0319166001600160a01b0392909216919091179055565b600082815260056020526040902080546001600160a01b0316612471612ad7565b6001600160a01b031614806124a2575060018101546001600160a01b0316612497612ad7565b6001600160a01b0316145b6124be5760405162461bcd60e51b8152600401610a2b90615104565b6002600682015460ff1660028111156124d357fe5b146124f05760405162461bcd60e51b8152600401610a2b90614e1e565b6004600a82015460ff16600481111561250557fe5b106125225760405162461bcd60e51b8152600401610a2b90614977565b61252a612ad7565b60088201546010546040516001600160a01b0393841693909116907fdccf2f8b2cc26eafcd61905cba744cff4b81d14740725f6376390dc6298a6a3c90612572908790614833565b60405180910390a4505050565b6000601836108015906125965750612596336110b1565b156125e8576125e16000368080601f01602080910402602001604051908101604052809392919081815260200183838082843760009201919091525050601319360191506125ed9050565b9050610ff1565b503390565b600081601401835110156126135761261361260e6004855185601401612625565b612680565b5001601401516001600160a01b031690565b6060632800659560e01b84848460405160240161264493929190614859565b60408051601f198184030181529190526020810180516001600160e01b03166001600160e01b03199093169290921790915290505b9392505050565b805160208201fd5b60006109d561269683613438565b613949565b60006126b56126ad8560000151612688565b85518461395c565b6126d15760405162461bcd60e51b8152600401610a2b906150db565b6126e76126dd85612703565b9150818585613a8f565b6126795760405162461bcd60e51b8152600401610a2b90614f4d565b60006109d561269683613c96565b600061271c82612703565b6000818152600460205260408120600181015460a086015193945090929091906127469083613d02565b60038401805460ff191660051790556000808555600185015561010086015190915015612808576101008501516080860151600f5460405163a9059cbb60e01b815293839003936001600160a01b039283169363a9059cbb936127ad9316916004016147a4565b602060405180830381600087803b1580156127c757600080fd5b505af11580156127db573d6000803e3d6000fd5b505050506040513d601f19601f820116820180604052508101906127ff91906141f9565b61280857600080fd5b610120850151156128be5761282281866101200151613d02565b905084608001516001600160a01b031663a9059cbb8660000151604001518761012001516040518363ffffffff1660e01b81526004016128639291906147a4565b602060405180830381600087803b15801561287d57600080fd5b505af1158015612891573d6000803e3d6000fd5b505050506040513d601f19601f820116820180604052508101906128b591906141f9565b6128be57600080fd5b60e0850151156129645760e08501516080860151606087015160405163a9059cbb60e01b815293839003936001600160a01b039092169263a9059cbb926129099291906004016147a4565b602060405180830381600087803b15801561292357600080fd5b505af1158015612937573d6000803e3d6000fd5b505050506040513d601f19601f8201168201806040525081019061295b91906141f9565b61296457600080fd5b60c085015115612a0c5760c08501516080860151604080880151905163a9059cbb60e01b815293839003936001600160a01b039092169263a9059cbb926129b192918701906004016147a4565b602060405180830381600087803b1580156129cb57600080fd5b505af11580156129df573d6000803e3d6000fd5b505050506040513d601f19601f82011682018060405250810190612a0391906141f9565b612a0c57600080fd5b8015612aa557608085015185516020015160405163a9059cbb60e01b81526001600160a01b039092169163a9059cbb91612a4a9185906004016147a4565b602060405180830381600087803b158015612a6457600080fd5b505af1158015612a78573d6000803e3d6000fd5b505050506040513d601f19601f82011682018060405250810190612a9c91906141f9565b612aa557600080fd5b60405184907f24196ec40f90671b7144e716978686b4f3c7d6b00b23da3971ef2b52af27d87f90600090a25050505050565b6000612ae161257f565b905090565b6002811115612b075760405162461bcd60e51b8152600401610a2b90614a44565b6002820180546004808501805460058701805460009687905592869055859055600a8701805460ff191690931790925560016020819052808701546001600160a01b0316855292939192909190851415612c605785546040516001600160a01b03909116908490612b7790610ff1565b60006040518083038185875af1925050503d8060008114612bb4576040519150601f19603f3d011682016040523d82523d6000602084013e612bb9565b606091505b50506001878101546001600160a01b03908116600090815260209290925260408083208054899003905589548216835290912080546002808904909101909155600a549293509116906342966c6890865b0486036040518263ffffffff1660e01b8152600401612c29919061480c565b600060405180830381600087803b158015612c4357600080fd5b505af1158015612c57573d6000803e3d6000fd5b50505050612e3c565b6002851415612d305760018601546040516001600160a01b03909116908390612c8890610ff1565b60006040518083038185875af1925050503d8060008114612cc5576040519150601f19603f3d011682016040523d82523d6000602084013e612cca565b606091505b505060075487546001600160a01b039081166000908152600160208190526040808320429095016002958601558b548416835280832080548b90039055908b01548316825290208054838904019055600a5492935091909116906342966c689086612c0a565b600186015460405160028504916001600160a01b03169082850390612d5490610ff1565b60006040518083038185875af1925050503d8060008114612d91576040519150601f19603f3d011682016040523d82523d6000602084013e612d96565b606091505b505087546040519193506001600160a01b0316908290612db590610ff1565b60006040518083038185875af1925050503d8060008114612df2576040519150601f19603f3d011682016040523d82523d6000602084013e612df7565b606091505b505087546001600160a01b039081166000908152600160208190526040808320805460028c0490819003909155918c0154909316825291902080549190910390559150505b505050505050565b6002811115612e655760405162461bcd60e51b8152600401610a2b90614a44565b6002820180546004808501805460058701805460009687905592869055859055600a8701805460ff191690931790925591929091906001851415612faf5785546040516001600160a01b03909116908490612ebf90610ff1565b60006040518083038185875af1925050503d8060008114612efc576040519150601f19603f3d011682016040523d82523d6000602084013e612f01565b606091505b50506003870154875460405163a9059cbb60e01b81529293506001600160a01b039182169263a9059cbb92612f3c92169088906004016147a4565b602060405180830381600087803b158015612f5657600080fd5b505af1158015612f6a573d6000803e3d6000fd5b505050506040513d601f19601f82011682018060405250810190612f8e91906141f9565b612faa5760405162461bcd60e51b8152600401610a2b90614bcf565b612e3c565b60028514156130575760018601546040516001600160a01b03909116908390612fd790610ff1565b60006040518083038185875af1925050503d8060008114613014576040519150601f19603f3d011682016040523d82523d6000602084013e613019565b606091505b50506003870154600188015460405163a9059cbb60e01b81529293506001600160a01b039182169263a9059cbb92612f3c92169088906004016147a4565b600186015460405160028504916001600160a01b0316908285039061307b90610ff1565b60006040518083038185875af1925050503d80600081146130b8576040519150601f19603f3d011682016040523d82523d6000602084013e6130bd565b606091505b505087546040519193506001600160a01b03169082906130dc90610ff1565b60006040518083038185875af1925050503d8060008114613119576040519150601f19603f3d011682016040523d82523d6000602084013e61311e565b606091505b50506003880154600189015460405163a9059cbb60e01b815292945060028804926001600160a01b039283169263a9059cbb9261316492911690858b03906004016147a4565b602060405180830381600087803b15801561317e57600080fd5b505af1158015613192573d6000803e3d6000fd5b505050506040513d601f19601f820116820180604052508101906131b691906141f9565b6131d25760405162461bcd60e51b8152600401610a2b90614bcf565b6003880154885460405163a9059cbb60e01b81526001600160a01b039283169263a9059cbb926132099291169085906004016147a4565b602060405180830381600087803b15801561322357600080fd5b505af1158015613237573d6000803e3d6000fd5b505050506040513d601f19601f8201168201806040525081019061325b91906141f9565b6132775760405162461bcd60e51b8152600401610a2b90614bcf565b5050505050505050565b600061328c82612703565b60008181526004602052604090209091506001600382015460ff1660058111156132b257fe5b14806132cf575060038082015460ff1660058111156132cd57fe5b145b6132eb5760405162461bcd60e51b8152600401610a2b90614aa4565b826101600151620151800281600001540142111561331b5760405162461bcd60e51b8152600401610a2b90614d67565b6000613327600261146e565b9050803410156133495760405162461bcd60e51b8152600401610a2b90614eb4565b6000806001600385015460ff16600581111561336157fe5b14156133b55785604001516001600160a01b031661337d612ad7565b6001600160a01b0316146133a35760405162461bcd60e51b8152600401610a2b90614c15565b50506040840151845160200151613400565b8551602001516001600160a01b03166133cc612ad7565b6001600160a01b0316146133f25760405162461bcd60e51b8152600401610a2b90614c4c565b505060408401518451602001515b60038401805460ff1916600417905542845560a0860151608087015161342e91879185918591346002613d44565b5050505050919050565b80516020808301516040808501516060860151608087015160a088015160c089015160e08a015195516000996134729990989791016145bf565b604051602081830303815290604052805190602001209050919050565b60006134a761349d84612688565b915081848461395c565b6118de5760405162461bcd60e51b8152600401610a2b906150db565b60006134cf838361348f565b9050600080828152600560205260409020600a015460ff1660048111156134f257fe5b1461350f5760405162461bcd60e51b8152600401610a2b90614c83565b82604001516001600160a01b0316613525612ad7565b6001600160a01b0316141561354c5760405162461bcd60e51b8152600401610a2b90615158565b6000613558600161146e565b90508034101561357a5760405162461bcd60e51b8152600401610a2b90614eb4565b600060016000613588612ad7565b6001600160a01b03166001600160a01b031681526020019081526020016000209050806002015442116135cd5760405162461bcd60e51b8152600401610a2b90614e6d565b600181015481546060870151919003908110156136a057600a546001600160a01b03166323b872dd6135fd612ad7565b30848a60600151036040518463ffffffff1660e01b815260040161362393929190614780565b602060405180830381600087803b15801561363d57600080fd5b505af1158015613651573d6000803e3d6000fd5b505050506040513d601f19601f8201168201806040525081019061367591906141f9565b6136915760405162461bcd60e51b8152600401610a2b906150a4565b60608601518254908290030182555b6040808701516001600160a01b031660009081526001602081905291902060608801518483018054820190559181018054909201909155613701856136e3612ad7565b60408a015160608b0151600a546001600160a01b0316346001613d44565b505050505092915050565b6000828152600560205260409020600a810180546003919060ff191660018302179055506010546000906001600160a01b031663c13517e184600280600687015460ff16600281111561375b57fe5b1461376757601161376a565b60125b6040518463ffffffff1660e01b8152600401613787929190615211565b6020604051808303818588803b1580156137a057600080fd5b505af11580156137b4573d6000803e3d6000fd5b50505050506040513d601f19601f820116820180604052508101906137d9919061441a565b600081815260066020526040908190208690556010546008850154915192935083926001600160a01b03909116917f74baab670a4015ab2f1b467c5252a96141a2573f2908e58a92081e80d3cfde3d91613835919081906151bf565b60405180910390a3600083836004015411156138bf5760048301805490859055835460405191869003916001600160a01b0390911690829061387690610ff1565b60006040518083038185875af1925050503d80600081146138b3576040519150601f19603f3d011682016040523d82523d6000602084013e6138b8565b606091505b5090925050505b83836005015411156139425760058301805490859055600184015460405191869003916001600160a01b039091169082906138f990610ff1565b60006040518083038185875af1925050503d8060008114613936576040519150601f19603f3d011682016040523d82523d6000602084013e61393b565b606091505b5090925050505b5050505050565b600081604051602001613472919061467f565b60008260e0015160001415801561397657508260e0015142115b1561398357506000612679565b6040808401516001600160a01b031660009081526001602081905291902060608501519181015481549192910310156139c0576000915050612679565b60008581526002602052604090205460ff16156139e1576000915050612679565b60008581526003602052604090205460ff1615613a02576001915050612679565b83604001516001600160a01b031660018685600001518660200151876040015160405160008152602001604052604051613a3f9493929190614815565b6020604051602081039080840390855afa158015613a61573d6000803e3d6000fd5b505050602060405103516001600160a01b03161415613a84576001915050612679565b506000949350505050565b6000826101400151600014158015613aab575082610140015142115b15613ab857506000612679565b60808301516001600160a01b031660009081526009602052604090205460ff16613ae457506000612679565b60008481526002602052604090205460ff1615613b0357506000612679565b613b198360a00151846000015160800151613e53565b8360e001511015613b2c57506000612679565b613b428360a00151846000015160c00151613e53565b8360c001511015613b5557506000612679565b613b658360a00151600d54613e53565b8361010001511015613b7957506000612679565b825160208101516040909101516001600160a01b03908116911614801590613bb45750613bac8360a00151600e54613e53565b836101200151105b15613bc157506000612679565b8260e001518361012001518461010001518560c001510101018360a001511015613bed57506000612679565b60008481526003602052604090205460ff1615613c0c57506001612679565b82604001516001600160a01b031660018584600001518560200151866040015160405160008152602001604052604051613c499493929190614815565b6020604051602081039080840390855afa158015613c6b573d6000803e3d6000fd5b505050602060405103516001600160a01b03161415613c8c57506001612679565b5060009392505050565b6000613ca58260000151612688565b82604001518360200151846060015185608001518660a001518760c001518860e001518961010001518a61012001518b61014001518c61016001518d61018001516040516020016134729d9c9b9a99989796959493929190614537565b600061267983836040518060400160405280601e81526020017f536166654d6174683a207375627472616374696f6e206f766572666c6f770000815250613e5c565b600087815260056020526040902080546001600160a01b038089166001600160a01b031992831617835560018084018054928a1692909316919091179091556002808301879055600483018054860190556006830180548593919260ff1990911691908490811115613db257fe5b02179055506001826002811115613dc557fe5b1415613de9576003810180546001600160a01b0319166001600160a01b0386161790555b600a8101805460ff19166002179055426007820155600b80546001818101909255600883015560405189917ff972c77402d0ee7d94e4b2ea7cee21a3d392136bf7c9b72d2dc85e2a4d24a9cf91613e40919061487b565b60405180910390a2979650505050505050565b61271091020490565b60008184841115613e805760405162461bcd60e51b8152600401610a2b9190614833565b505050900390565b80356118de81615280565b600082601f830112613ea3578081fd5b8135613eb6613eb182615254565b61522d565b818152915060208083019084810161028080850287018301881015613eda57600080fd5b60005b85811015613f0157613eef8984613ff8565b85529383019391810191600101613edd565b50505050505092915050565b600082601f830112613f1d578081fd5b8135613f2b613eb182615254565b8181529150602080830190848101606080850287018301881015613f4e57600080fd5b60005b85811015613f0157613f6389846140d2565b85529383019391810191600101613f51565b6000610100808385031215613f88578182fd5b613f918161522d565b915050813581526020820135613fa681615280565b60208201526040820135613fb981615280565b80604083015250606082013560608201526080820135608082015260a082013560a082015260c082013560c082015260e082013560e082015292915050565b6000610280828403121561400a578081fd5b6101a06140168161522d565b91506140228484613f75565b825261010061403385828601613e88565b602084015261012061404786828701613e88565b604085015261014061405b87828801613e88565b606086015261016061406f88828901613e88565b60808701526101808088013560a08801528588013560c08801526101c088013560e08801526101e0880135858801526102008801358488015261022088013583880152610240880135828801526102608801358188015250505050505092915050565b6000606082840312156140e3578081fd5b6140ed606061522d565b9050813560ff8116811461410057600080fd5b80825250602082013560208201526040820135604082015292915050565b60006020828403121561412f578081fd5b813561267981615280565b60006020828403121561414b578081fd5b813567ffffffffffffffff811115614161578182fd5b61416d84828501613e93565b949350505050565b600080600060608486031215614189578182fd5b833567ffffffffffffffff808211156141a0578384fd5b6141ac87838801613e93565b945060208601359150808211156141c1578384fd5b6141cd87838801613f0d565b935060408601359150808211156141e2578283fd5b506141ef86828701613f0d565b9150509250925092565b60006020828403121561420a578081fd5b81518015158114612679578182fd5b60006020828403121561422a578081fd5b5035919050565b60008060408385031215614243578182fd5b8235915060208084013567ffffffffffffffff80821115614262578384fd5b818601915086601f830112614275578384fd5b813581811115614283578485fd5b614295601f8201601f1916850161522d565b915080825287848285010111156142aa578485fd5b8084840185840137810190920192909252919491935090915050565b600080608083850312156142d8578182fd5b823591506142e984602085016140d2565b90509250929050565b600060208284031215614303578081fd5b813560038110612679578182fd5b60006101008284031215614323578081fd5b6126798383613f75565b6000806101608385031215614340578182fd5b61434a8484613f75565b91506142e98461010085016140d2565b6000808284036102a081121561436e578283fd5b6102808082121561437d578384fd5b9395938601359450505050565b6000610280828403121561439c578081fd5b6126798383613ff8565b600080600061034084860312156143bb578081fd5b6143c58585613ff8565b92506143d58561028086016140d2565b91506143e5856102e086016140d2565b90509250925092565b6000806102a08385031215614401578182fd5b61440b8484613ff8565b94610280939093013593505050565b60006020828403121561442b578081fd5b5051919050565b60008060408385031215614444578182fd5b50508035926020909101359150565b60601b6bffffffffffffffffffffffff19169052565b60008151808452815b8181101561448e57602081850181015186830182015201614472565b8181111561449f5782602083870101525b50601f01601f19169290920160200192915050565b600081546001808216600081146144d257600181146144f05761452e565b60028304607f16865260ff198316602087015260408601935061452e565b6002830480875261450086615274565b60005b828110156145245781546020828b0101528482019150602081019050614503565b8801602001955050505b50505092915050565b60008e82526bffffffffffffffffffffffff19808f60601b166020840152808e60601b16603484015261456d604884018e614453565b60609b909b1b909a16605c8201526070810198909852609088019690965260b087019490945260d086019290925260f08501526101108401526101308301526101508201526101700195945050505050565b9788526bffffffffffffffffffffffff19606097881b811660208a01529590961b909416603487015260488601929092526068850152608884015260a883015260c882015260e80190565b600080845460018082166000811461462957600181146146405761466f565b60ff198316865260028304607f168601935061466f565b600283048886526020808720875b838110156146675781548a82015290850190820161464e565b505050860193505b5050509283525050602001919050565b7f19457468657265756d205369676e6564204d6573736167653a0a3332000000008152601c810191909152603c0190565b6001600160a01b0391909116815260200190565b6001600160a01b03978816815295871660208701529390951660408501526060840191909152608083015260a082019290925260c081019190915260e00190565b6001600160a01b038c811682528b81166020830152604082018b9052891660608201526080810188905260a0810187905261016081016003871061474557fe5b8660c08301528560e083015284610100830152836101208301526005831061476957fe5b826101408301529c9b505050505050505050505050565b6001600160a01b039384168152919092166020820152604081019190915260600190565b6001600160a01b03929092168252602082015260400190565b6020808252825182820181905260009190848201906040850190845b818110156147f5578351835292840192918401916001016147d9565b50909695505050505050565b901515815260200190565b90815260200190565b93845260ff9290921660208401526040830152606082015260800190565b6000602082526126796020830184614469565b60006020825261267960208301846144b4565b606081016008851061486757fe5b938152602081019290925260409091015290565b602081016002831061488957fe5b91905290565b6020808252601c908201527f596f7520646f6e2774206861766520656e6f67687420746f6b656e7300000000604082015260600190565b60208082526021908201527f446973707574652068617320616c7265616479206265656e20637265617465646040820152601760f91b606082015260800190565b60208082526026908201527f54686520646973707574652068617320616c7265616479206265656e2072657360408201526537b63b32b21760d11b606082015260800190565b60208082526010908201526f105b1c9958591e48185c1c1c9bdd995960821b604082015260600190565b60208082526032908201527f4d757374206e6f742073656e642065766964656e63652069662074686520646960408201527139b83aba329034b9903932b9b7b63b32b21760711b606082015260800190565b60208082526026908201527f4f776e61626c653a206e6577206f776e657220697320746865207a65726f206160408201526564647265737360d01b606082015260800190565b6020808252818101527f54696d656f75742074696d6520686173206e6f7420706173736564207965742e604082015260600190565b6020808252600f908201526e24b73b30b634b210393ab634b7339760891b604082015260600190565b6020808252601c908201527f57617272616e74792074696d65206861732074696d6564206f75742e00000000604082015260600190565b6020808252600d908201526c496e76616c696420706861736560981b604082015260600190565b60208082526031908201527f5468652070726f7365637574696f6e20666565206d75737420636f7665722061604082015270393134ba3930ba34b7b71031b7b9ba399760791b606082015260800190565b6020808252601e908201527f596f75206d75737420626520746865206c697374696e672073656c6c65720000604082015260600190565b6020808252601b908201527f596f7520646f6e2774206861766520656e6f6768742066756e64730000000000604082015260600190565b60208082526025908201527f44697370757465206973206e6f742077616974696e6720666f7220616e79207060408201526430b93a3c9760d91b606082015260800190565b60208082526026908201527f54686520607472616e73666572602066756e6374696f6e206d757374206e6f74604082015265103330b4b61760d11b606082015260800190565b60208082526017908201527f4f6e6c792062757965722063616e20646973707574652e000000000000000000604082015260600190565b60208082526018908201527f4f6e6c792073656c6c65722063616e20646973707574652e0000000000000000604082015260600190565b60208082526021908201527f4c697374696e672068617320616c7265616479206265656e207265706f7274656040820152601960fa1b606082015260800190565b6020808252818101527f4f776e61626c653a2063616c6c6572206973206e6f7420746865206f776e6572604082015260600190565b6020808252601a908201527f53656e646572206973206e6f74206f72646572207369676e6572000000000000604082015260600190565b6020808252601e908201527f5468652063616c6c6572206d757374206265207468652073656e6465722e0000604082015260600190565b6020808252818101527f436f6e6669726d6174696f6e2074696d65206861732074696d6564206f75742e604082015260600190565b6020808252601c908201527f53656e646572206973206e6f74206c697374696e67207369676e657200000000604082015260600190565b6020808252602b908201527f526566756e642063616e27742062652067726561746572207468616e20746f7460408201526a30b61030b63637bbb2b21760a91b606082015260800190565b6020808252602f908201527f45766964656e63657320617265206f6e6c7920616c6c6f77656420666f72206f60408201526e393232b939903234b9b83aba32b99760891b606082015260800190565b60208082526027908201527f596f7520617265206e6f7420616c6c6f77656420746f207265706f7274206c6960408201526639ba34b733b99760c91b606082015260800190565b6020808252602a908201527f56616c7565206d7573742062652067726561746572207468616e2061726269746040820152691c985d1a5bdb90dbdcdd60b21b606082015260800190565b6020808252602f908201527f596f75206d7573742062652073656c6c6572206f7220627579657220696e207460408201526e3432903934b3b43a10383430b9b29760891b606082015260800190565b6020808252600d908201526c24b73b30b634b21037b93232b960991b604082015260600190565b6020808252602d908201527f41707065616c7320617265206f6e6c7920616c6c6f77656420666f72206f726460408201526c32b939903234b9b83aba32b99760991b606082015260800190565b6020808252601190820152702cb7ba9036bab9ba10313290313abcb2b960791b604082015260600190565b6020808252818101527f4f7264657220616c726561647920686173206265656e2070726f636573736564604082015260600190565b60208082526022908201527f5468652063616c6c6572206d757374206265207468652061726269747261746f604082015261391760f11b606082015260800190565b60208082526021908201527f4661696c656420746f207472616e7366657220627579657227732066756e64736040820152601760f91b606082015260800190565b60208082526019908201527f556e61626c6520746f207472616e7366657220746f6b656e7300000000000000604082015260600190565b6020808252600f908201526e496e76616c6964206c697374696e6760881b604082015260600190565b60208082526034908201527f5468652063616c6c6572206d757374206265207468652070726f73656375746960408201527337b71037b9103a3432903232b332b73230b73a1760611b606082015260800190565b6020808252602e908201527f596f752063616e2774207265706f727420796f757273656c662e20557365206360408201526d616e63656c4c697374696e67282960901b606082015260800190565b60008382526040602083015261416d60408301846144b4565b918252602082015260400190565b9283526020830191909152604082015260600190565b8481526020810184905260408101839052608081016006831061520257fe5b82606083015295945050505050565b600060ff841682526040602083015261416d60408301846144b4565b60405181810167ffffffffffffffff8111828210171561524c57600080fd5b604052919050565b600067ffffffffffffffff82111561526a578081fd5b5060209081020190565b60009081526020902090565b6001600160a01b038116811461529557600080fd5b5056fea26469706673582212209fc7d5c4b603c0401108791ece98c7fdd3fdbb8bf360f634d00b4e830866974164736f6c634300060c0033",
  "immutableReferences": {},
  "source": "// SPDX-License-Identifier: MIT\npragma solidity ^0.6.0;\npragma experimental ABIEncoderV2;\n\nimport \"./GSNDagora.sol\";\n\ncontract TestDagora is GSNDagora {\n    constructor(\n        address _arbitrator,\n        address _token,\n        address _protocolFeeRecipient,\n        uint256 _feeTimeoutDays,\n        uint256 _blacklistTimeoutDays,\n        uint256 _protocolFeePercentage,\n        uint256 _tokenOwnerFeePercentage,\n        bytes memory _reportExtraData,\n        bytes memory _orderExtraData,\n        string memory _ipfsDomain,\n        address _forwarder\n    )\n        public\n        GSNDagora(\n            _forwarder,\n            _arbitrator,\n            _token,\n            _protocolFeeRecipient,\n            _feeTimeoutDays,\n            _blacklistTimeoutDays,\n            _protocolFeePercentage,\n            _tokenOwnerFeePercentage,\n            _reportExtraData,\n            _orderExtraData,\n            _ipfsDomain\n        )\n    {}\n\n    function _requireValidListing(Listing memory _listing, Sig memory sig)\n        public\n        view\n        returns (bool)\n    {\n        return requireValidListing(_listing, sig) != 0x0;\n    }\n\n    function _hashListing(Listing memory listing)\n        public\n        pure\n        returns (bytes32 hash)\n    {\n        return hashListing(listing);\n    }\n\n    function _hashListingToSign(Listing memory listing)\n        public\n        pure\n        returns (bytes32 hash)\n    {\n        return hashListingToSign(listing);\n    }\n\n    function _ecrecover(bytes32 msgHash, Sig memory sig)\n        public\n        pure\n        returns (address)\n    {\n        return ecrecover(msgHash, sig.v, sig.r, sig.s);\n    }\n}\n",
  "sourcePath": "/home/gustavo/projects/dagora/contracts/marketplace/TestDagora.sol",
  "compiler": {
    "name": "solc",
    "version": "0.6.12+commit.27d51765.Emscripten.clang"
  },
  "schemaVersion": "3.2.3",
  "updatedAt": "2020-08-08T05:09:20.488Z",
  "devdoc": {
    "kind": "dev",
    "methods": {
      "appeal(bytes32)": {
        "details": "Appeal an appealable ruling. UNTRUSTED.  Transfer the funds to the arbitrator.  Note that no checks are required as the checks are done by the arbitrator.",
        "params": {
          "_hash": "The hash of the order."
        }
      },
      "owner()": {
        "details": "Returns the address of the current owner."
      },
      "renounceOwnership()": {
        "details": "Leaves the contract without owner. It will not be possible to call `onlyOwner` functions anymore. Can only be called by the current owner. NOTE: Renouncing ownership will leave the contract without an owner, thereby removing any functionality that is only available to the owner."
      },
      "rule(uint256,uint256)": {
        "details": "Give a ruling for a dispute. Must be called by the arbitrator.  The purpose of this function is to ensure that the address calling it has the right to rule on the contract.",
        "params": {
          "_disputeID": "ID of the dispute in the Arbitrator contract.",
          "_ruling": "Ruling given by the arbitrator. Note that 0 is reserved for \"Not able/wanting to make a decision\"."
        }
      },
      "submitEvidence(bytes32,string)": {
        "details": "Submit a reference to evidence. EVENT.",
        "params": {
          "_evidence": "A link to an evidence using its URI.",
          "_hash": "The hash of the order."
        }
      },
      "transferOwnership(address)": {
        "details": "Transfers ownership of the contract to a new account (`newOwner`). Can only be called by the current owner."
      }
    },
    "version": 1
  },
  "userdoc": {
    "kind": "user",
    "methods": {
      "getTrustedForwarder()": {
        "notice": "return the forwarder we trust to forward relayed transactions to us. the forwarder is required to verify the sender's signature, and verify the call is not a replay."
      },
      "isTrustedForwarder(address)": {
        "notice": "return if the forwarder is trusted to forward relayed transactions to us. the forwarder is required to verify the sender's signature, and verify the call is not a replay."
      }
    },
    "version": 1
  }
}