{
  "contractName": "TestDagora",
  "abi": [
    {
      "inputs": [
        {
          "internalType": "address",
          "name": "_arbitrator",
          "type": "address"
        },
        {
          "internalType": "address",
          "name": "_token",
          "type": "address"
        },
        {
          "internalType": "address",
          "name": "_protocolFeeRecipient",
          "type": "address"
        },
        {
          "internalType": "uint256",
          "name": "_feeTimeoutDays",
          "type": "uint256"
        },
        {
          "internalType": "uint256",
          "name": "_blacklistTimeoutDays",
          "type": "uint256"
        },
        {
          "internalType": "uint256",
          "name": "_protocolFeePercentage",
          "type": "uint256"
        },
        {
          "internalType": "uint256",
          "name": "_tokenOwnerFeePercentage",
          "type": "uint256"
        },
        {
          "internalType": "bytes",
          "name": "_reportExtraData",
          "type": "bytes"
        },
        {
          "internalType": "bytes",
          "name": "_orderExtraData",
          "type": "bytes"
        },
        {
          "internalType": "string",
          "name": "_ipfsDomain",
          "type": "string"
        }
      ],
      "stateMutability": "nonpayable",
      "type": "constructor"
    },
    {
      "anonymous": false,
      "inputs": [
        {
          "indexed": true,
          "internalType": "contract Arbitrator",
          "name": "_arbitrator",
          "type": "address"
        },
        {
          "indexed": true,
          "internalType": "uint256",
          "name": "_disputeID",
          "type": "uint256"
        },
        {
          "indexed": false,
          "internalType": "uint256",
          "name": "_metaEvidenceID",
          "type": "uint256"
        },
        {
          "indexed": false,
          "internalType": "uint256",
          "name": "_evidenceGroupID",
          "type": "uint256"
        }
      ],
      "name": "Dispute",
      "type": "event"
    },
    {
      "anonymous": false,
      "inputs": [
        {
          "indexed": true,
          "internalType": "contract Arbitrator",
          "name": "_arbitrator",
          "type": "address"
        },
        {
          "indexed": true,
          "internalType": "uint256",
          "name": "_evidenceGroupID",
          "type": "uint256"
        },
        {
          "indexed": true,
          "internalType": "address",
          "name": "_party",
          "type": "address"
        },
        {
          "indexed": false,
          "internalType": "string",
          "name": "_evidence",
          "type": "string"
        }
      ],
      "name": "Evidence",
      "type": "event"
    },
    {
      "anonymous": false,
      "inputs": [
        {
          "indexed": true,
          "internalType": "bytes32",
          "name": "_hash",
          "type": "bytes32"
        },
        {
          "indexed": false,
          "internalType": "enum Dagora.Party",
          "name": "_party",
          "type": "uint8"
        }
      ],
      "name": "HasToPayFee",
      "type": "event"
    },
    {
      "anonymous": false,
      "inputs": [
        {
          "indexed": true,
          "internalType": "bytes32",
          "name": "hash",
          "type": "bytes32"
        }
      ],
      "name": "ListingApproved",
      "type": "event"
    },
    {
      "anonymous": false,
      "inputs": [
        {
          "indexed": true,
          "internalType": "bytes32",
          "name": "hash",
          "type": "bytes32"
        }
      ],
      "name": "ListingCancelled",
      "type": "event"
    },
    {
      "anonymous": false,
      "inputs": [
        {
          "indexed": true,
          "internalType": "uint256",
          "name": "_metaEvidenceID",
          "type": "uint256"
        },
        {
          "indexed": false,
          "internalType": "string",
          "name": "_evidence",
          "type": "string"
        }
      ],
      "name": "MetaEvidence",
      "type": "event"
    },
    {
      "anonymous": false,
      "inputs": [
        {
          "indexed": true,
          "internalType": "bytes32",
          "name": "hash",
          "type": "bytes32"
        }
      ],
      "name": "OrderApproved",
      "type": "event"
    },
    {
      "anonymous": false,
      "inputs": [
        {
          "indexed": true,
          "internalType": "bytes32",
          "name": "hash",
          "type": "bytes32"
        }
      ],
      "name": "OrderCancelled",
      "type": "event"
    },
    {
      "anonymous": false,
      "inputs": [
        {
          "indexed": true,
          "internalType": "address",
          "name": "previousOwner",
          "type": "address"
        },
        {
          "indexed": true,
          "internalType": "address",
          "name": "newOwner",
          "type": "address"
        }
      ],
      "name": "OwnershipTransferred",
      "type": "event"
    },
    {
      "anonymous": false,
      "inputs": [
        {
          "indexed": true,
          "internalType": "contract Arbitrator",
          "name": "_arbitrator",
          "type": "address"
        },
        {
          "indexed": true,
          "internalType": "uint256",
          "name": "_disputeID",
          "type": "uint256"
        },
        {
          "indexed": false,
          "internalType": "uint256",
          "name": "_ruling",
          "type": "uint256"
        }
      ],
      "name": "Ruling",
      "type": "event"
    },
    {
      "anonymous": false,
      "inputs": [
        {
          "indexed": true,
          "internalType": "address",
          "name": "sender",
          "type": "address"
        },
        {
          "indexed": false,
          "internalType": "uint256",
          "name": "value",
          "type": "uint256"
        }
      ],
      "name": "TokenDeposited",
      "type": "event"
    },
    {
      "anonymous": false,
      "inputs": [
        {
          "indexed": true,
          "internalType": "address",
          "name": "addr",
          "type": "address"
        }
      ],
      "name": "TokenGranted",
      "type": "event"
    },
    {
      "anonymous": false,
      "inputs": [
        {
          "indexed": true,
          "internalType": "address",
          "name": "addr",
          "type": "address"
        }
      ],
      "name": "TokenRevoked",
      "type": "event"
    },
    {
      "anonymous": false,
      "inputs": [
        {
          "indexed": true,
          "internalType": "address",
          "name": "sender",
          "type": "address"
        },
        {
          "indexed": false,
          "internalType": "uint256",
          "name": "value",
          "type": "uint256"
        }
      ],
      "name": "TokenWithdrawed",
      "type": "event"
    },
    {
      "anonymous": false,
      "inputs": [
        {
          "indexed": true,
          "internalType": "bytes32",
          "name": "hash",
          "type": "bytes32"
        },
        {
          "indexed": true,
          "internalType": "address",
          "name": "buyer",
          "type": "address"
        },
        {
          "indexed": true,
          "internalType": "address",
          "name": "seller",
          "type": "address"
        },
        {
          "indexed": false,
          "internalType": "address",
          "name": "stakeOwner",
          "type": "address"
        },
        {
          "indexed": false,
          "internalType": "address",
          "name": "commissioner",
          "type": "address"
        },
        {
          "indexed": false,
          "internalType": "contract ERC20",
          "name": "token",
          "type": "address"
        },
        {
          "indexed": false,
          "internalType": "uint256",
          "name": "total",
          "type": "uint256"
        },
        {
          "indexed": false,
          "internalType": "uint256",
          "name": "commissionPercentage",
          "type": "uint256"
        },
        {
          "indexed": false,
          "internalType": "uint256",
          "name": "cashbackPercentage",
          "type": "uint256"
        },
        {
          "indexed": false,
          "internalType": "uint256",
          "name": "confirmationTimeout",
          "type": "uint256"
        }
      ],
      "name": "TransactionCreated",
      "type": "event"
    },
    {
      "anonymous": false,
      "inputs": [
        {
          "indexed": true,
          "internalType": "bytes32",
          "name": "hash",
          "type": "bytes32"
        }
      ],
      "name": "TransactionFinalized",
      "type": "event"
    },
    {
      "anonymous": false,
      "inputs": [
        {
          "indexed": true,
          "internalType": "bytes32",
          "name": "hash",
          "type": "bytes32"
        },
        {
          "indexed": false,
          "internalType": "uint256",
          "name": "value",
          "type": "uint256"
        }
      ],
      "name": "TransactionRefunded",
      "type": "event"
    },
    {
      "anonymous": false,
      "inputs": [
        {
          "indexed": true,
          "internalType": "bytes32",
          "name": "hash",
          "type": "bytes32"
        }
      ],
      "name": "WarrantyClaimed",
      "type": "event"
    },
    {
      "inputs": [],
      "name": "INVERSE_BASIS_POINT",
      "outputs": [
        {
          "internalType": "uint256",
          "name": "",
          "type": "uint256"
        }
      ],
      "stateMutability": "view",
      "type": "function"
    },
    {
      "inputs": [
        {
          "internalType": "bytes32",
          "name": "_hash",
          "type": "bytes32"
        }
      ],
      "name": "appeal",
      "outputs": [],
      "stateMutability": "payable",
      "type": "function"
    },
    {
      "inputs": [
        {
          "components": [
            {
              "internalType": "bytes32",
              "name": "ipfsHash",
              "type": "bytes32"
            },
            {
              "internalType": "address payable",
              "name": "seller",
              "type": "address"
            },
            {
              "internalType": "address payable",
              "name": "stakeOwner",
              "type": "address"
            },
            {
              "internalType": "uint256",
              "name": "stakedAmount",
              "type": "uint256"
            },
            {
              "internalType": "uint256",
              "name": "commissionPercentage",
              "type": "uint256"
            },
            {
              "internalType": "uint256",
              "name": "warranty",
              "type": "uint256"
            },
            {
              "internalType": "uint256",
              "name": "cashbackPercentage",
              "type": "uint256"
            },
            {
              "internalType": "uint256",
              "name": "expiration",
              "type": "uint256"
            }
          ],
          "internalType": "struct Dagora.Listing",
          "name": "_listing",
          "type": "tuple"
        }
      ],
      "name": "approveListing",
      "outputs": [
        {
          "internalType": "bool",
          "name": "",
          "type": "bool"
        }
      ],
      "stateMutability": "nonpayable",
      "type": "function"
    },
    {
      "inputs": [
        {
          "components": [
            {
              "components": [
                {
                  "internalType": "bytes32",
                  "name": "ipfsHash",
                  "type": "bytes32"
                },
                {
                  "internalType": "address payable",
                  "name": "seller",
                  "type": "address"
                },
                {
                  "internalType": "address payable",
                  "name": "stakeOwner",
                  "type": "address"
                },
                {
                  "internalType": "uint256",
                  "name": "stakedAmount",
                  "type": "uint256"
                },
                {
                  "internalType": "uint256",
                  "name": "commissionPercentage",
                  "type": "uint256"
                },
                {
                  "internalType": "uint256",
                  "name": "warranty",
                  "type": "uint256"
                },
                {
                  "internalType": "uint256",
                  "name": "cashbackPercentage",
                  "type": "uint256"
                },
                {
                  "internalType": "uint256",
                  "name": "expiration",
                  "type": "uint256"
                }
              ],
              "internalType": "struct Dagora.Listing",
              "name": "listing",
              "type": "tuple"
            },
            {
              "internalType": "address payable",
              "name": "fundsHolder",
              "type": "address"
            },
            {
              "internalType": "address payable",
              "name": "buyer",
              "type": "address"
            },
            {
              "internalType": "address payable",
              "name": "commissioner",
              "type": "address"
            },
            {
              "internalType": "contract ERC20",
              "name": "token",
              "type": "address"
            },
            {
              "internalType": "uint256",
              "name": "total",
              "type": "uint256"
            },
            {
              "internalType": "uint256",
              "name": "cashback",
              "type": "uint256"
            },
            {
              "internalType": "uint256",
              "name": "commission",
              "type": "uint256"
            },
            {
              "internalType": "uint256",
              "name": "protocolFee",
              "type": "uint256"
            },
            {
              "internalType": "uint256",
              "name": "stakeHolderFee",
              "type": "uint256"
            },
            {
              "internalType": "uint256",
              "name": "expiration",
              "type": "uint256"
            },
            {
              "internalType": "uint256",
              "name": "confirmationTimeout",
              "type": "uint256"
            },
            {
              "internalType": "uint256",
              "name": "timestamp",
              "type": "uint256"
            }
          ],
          "internalType": "struct Dagora.Order",
          "name": "order",
          "type": "tuple"
        }
      ],
      "name": "approveOrder",
      "outputs": [
        {
          "internalType": "bool",
          "name": "",
          "type": "bool"
        }
      ],
      "stateMutability": "nonpayable",
      "type": "function"
    },
    {
      "inputs": [
        {
          "internalType": "bytes32",
          "name": "",
          "type": "bytes32"
        }
      ],
      "name": "approvedHashes",
      "outputs": [
        {
          "internalType": "bool",
          "name": "",
          "type": "bool"
        }
      ],
      "stateMutability": "view",
      "type": "function"
    },
    {
      "inputs": [],
      "name": "arbitrator",
      "outputs": [
        {
          "internalType": "contract Arbitrator",
          "name": "",
          "type": "address"
        }
      ],
      "stateMutability": "view",
      "type": "function"
    },
    {
      "inputs": [
        {
          "components": [
            {
              "components": [
                {
                  "internalType": "bytes32",
                  "name": "ipfsHash",
                  "type": "bytes32"
                },
                {
                  "internalType": "address payable",
                  "name": "seller",
                  "type": "address"
                },
                {
                  "internalType": "address payable",
                  "name": "stakeOwner",
                  "type": "address"
                },
                {
                  "internalType": "uint256",
                  "name": "stakedAmount",
                  "type": "uint256"
                },
                {
                  "internalType": "uint256",
                  "name": "commissionPercentage",
                  "type": "uint256"
                },
                {
                  "internalType": "uint256",
                  "name": "warranty",
                  "type": "uint256"
                },
                {
                  "internalType": "uint256",
                  "name": "cashbackPercentage",
                  "type": "uint256"
                },
                {
                  "internalType": "uint256",
                  "name": "expiration",
                  "type": "uint256"
                }
              ],
              "internalType": "struct Dagora.Listing",
              "name": "listing",
              "type": "tuple"
            },
            {
              "internalType": "address payable",
              "name": "fundsHolder",
              "type": "address"
            },
            {
              "internalType": "address payable",
              "name": "buyer",
              "type": "address"
            },
            {
              "internalType": "address payable",
              "name": "commissioner",
              "type": "address"
            },
            {
              "internalType": "contract ERC20",
              "name": "token",
              "type": "address"
            },
            {
              "internalType": "uint256",
              "name": "total",
              "type": "uint256"
            },
            {
              "internalType": "uint256",
              "name": "cashback",
              "type": "uint256"
            },
            {
              "internalType": "uint256",
              "name": "commission",
              "type": "uint256"
            },
            {
              "internalType": "uint256",
              "name": "protocolFee",
              "type": "uint256"
            },
            {
              "internalType": "uint256",
              "name": "stakeHolderFee",
              "type": "uint256"
            },
            {
              "internalType": "uint256",
              "name": "expiration",
              "type": "uint256"
            },
            {
              "internalType": "uint256",
              "name": "confirmationTimeout",
              "type": "uint256"
            },
            {
              "internalType": "uint256",
              "name": "timestamp",
              "type": "uint256"
            }
          ],
          "internalType": "struct Dagora.Order[]",
          "name": "orders",
          "type": "tuple[]"
        },
        {
          "components": [
            {
              "internalType": "uint8",
              "name": "v",
              "type": "uint8"
            },
            {
              "internalType": "bytes32",
              "name": "r",
              "type": "bytes32"
            },
            {
              "internalType": "bytes32",
              "name": "s",
              "type": "bytes32"
            }
          ],
          "internalType": "struct Dagora.Sig[]",
          "name": "orderSignatures",
          "type": "tuple[]"
        },
        {
          "components": [
            {
              "internalType": "uint8",
              "name": "v",
              "type": "uint8"
            },
            {
              "internalType": "bytes32",
              "name": "r",
              "type": "bytes32"
            },
            {
              "internalType": "bytes32",
              "name": "s",
              "type": "bytes32"
            }
          ],
          "internalType": "struct Dagora.Sig[]",
          "name": "listingSignatures",
          "type": "tuple[]"
        }
      ],
      "name": "batchCreateTransaction",
      "outputs": [
        {
          "internalType": "bytes32[]",
          "name": "hashes",
          "type": "bytes32[]"
        }
      ],
      "stateMutability": "nonpayable",
      "type": "function"
    },
    {
      "inputs": [
        {
          "components": [
            {
              "components": [
                {
                  "internalType": "bytes32",
                  "name": "ipfsHash",
                  "type": "bytes32"
                },
                {
                  "internalType": "address payable",
                  "name": "seller",
                  "type": "address"
                },
                {
                  "internalType": "address payable",
                  "name": "stakeOwner",
                  "type": "address"
                },
                {
                  "internalType": "uint256",
                  "name": "stakedAmount",
                  "type": "uint256"
                },
                {
                  "internalType": "uint256",
                  "name": "commissionPercentage",
                  "type": "uint256"
                },
                {
                  "internalType": "uint256",
                  "name": "warranty",
                  "type": "uint256"
                },
                {
                  "internalType": "uint256",
                  "name": "cashbackPercentage",
                  "type": "uint256"
                },
                {
                  "internalType": "uint256",
                  "name": "expiration",
                  "type": "uint256"
                }
              ],
              "internalType": "struct Dagora.Listing",
              "name": "listing",
              "type": "tuple"
            },
            {
              "internalType": "address payable",
              "name": "fundsHolder",
              "type": "address"
            },
            {
              "internalType": "address payable",
              "name": "buyer",
              "type": "address"
            },
            {
              "internalType": "address payable",
              "name": "commissioner",
              "type": "address"
            },
            {
              "internalType": "contract ERC20",
              "name": "token",
              "type": "address"
            },
            {
              "internalType": "uint256",
              "name": "total",
              "type": "uint256"
            },
            {
              "internalType": "uint256",
              "name": "cashback",
              "type": "uint256"
            },
            {
              "internalType": "uint256",
              "name": "commission",
              "type": "uint256"
            },
            {
              "internalType": "uint256",
              "name": "protocolFee",
              "type": "uint256"
            },
            {
              "internalType": "uint256",
              "name": "stakeHolderFee",
              "type": "uint256"
            },
            {
              "internalType": "uint256",
              "name": "expiration",
              "type": "uint256"
            },
            {
              "internalType": "uint256",
              "name": "confirmationTimeout",
              "type": "uint256"
            },
            {
              "internalType": "uint256",
              "name": "timestamp",
              "type": "uint256"
            }
          ],
          "internalType": "struct Dagora.Order[]",
          "name": "orders",
          "type": "tuple[]"
        }
      ],
      "name": "batchExecuteTransaction",
      "outputs": [],
      "stateMutability": "nonpayable",
      "type": "function"
    },
    {
      "inputs": [],
      "name": "blackListTimeout",
      "outputs": [
        {
          "internalType": "uint256",
          "name": "",
          "type": "uint256"
        }
      ],
      "stateMutability": "view",
      "type": "function"
    },
    {
      "inputs": [
        {
          "internalType": "bytes32",
          "name": "",
          "type": "bytes32"
        }
      ],
      "name": "cancelledOrFinalized",
      "outputs": [
        {
          "internalType": "bool",
          "name": "",
          "type": "bool"
        }
      ],
      "stateMutability": "view",
      "type": "function"
    },
    {
      "inputs": [
        {
          "components": [
            {
              "components": [
                {
                  "internalType": "bytes32",
                  "name": "ipfsHash",
                  "type": "bytes32"
                },
                {
                  "internalType": "address payable",
                  "name": "seller",
                  "type": "address"
                },
                {
                  "internalType": "address payable",
                  "name": "stakeOwner",
                  "type": "address"
                },
                {
                  "internalType": "uint256",
                  "name": "stakedAmount",
                  "type": "uint256"
                },
                {
                  "internalType": "uint256",
                  "name": "commissionPercentage",
                  "type": "uint256"
                },
                {
                  "internalType": "uint256",
                  "name": "warranty",
                  "type": "uint256"
                },
                {
                  "internalType": "uint256",
                  "name": "cashbackPercentage",
                  "type": "uint256"
                },
                {
                  "internalType": "uint256",
                  "name": "expiration",
                  "type": "uint256"
                }
              ],
              "internalType": "struct Dagora.Listing",
              "name": "listing",
              "type": "tuple"
            },
            {
              "internalType": "address payable",
              "name": "fundsHolder",
              "type": "address"
            },
            {
              "internalType": "address payable",
              "name": "buyer",
              "type": "address"
            },
            {
              "internalType": "address payable",
              "name": "commissioner",
              "type": "address"
            },
            {
              "internalType": "contract ERC20",
              "name": "token",
              "type": "address"
            },
            {
              "internalType": "uint256",
              "name": "total",
              "type": "uint256"
            },
            {
              "internalType": "uint256",
              "name": "cashback",
              "type": "uint256"
            },
            {
              "internalType": "uint256",
              "name": "commission",
              "type": "uint256"
            },
            {
              "internalType": "uint256",
              "name": "protocolFee",
              "type": "uint256"
            },
            {
              "internalType": "uint256",
              "name": "stakeHolderFee",
              "type": "uint256"
            },
            {
              "internalType": "uint256",
              "name": "expiration",
              "type": "uint256"
            },
            {
              "internalType": "uint256",
              "name": "confirmationTimeout",
              "type": "uint256"
            },
            {
              "internalType": "uint256",
              "name": "timestamp",
              "type": "uint256"
            }
          ],
          "internalType": "struct Dagora.Order",
          "name": "_order",
          "type": "tuple"
        }
      ],
      "name": "claimWarranty",
      "outputs": [],
      "stateMutability": "nonpayable",
      "type": "function"
    },
    {
      "inputs": [
        {
          "components": [
            {
              "components": [
                {
                  "internalType": "bytes32",
                  "name": "ipfsHash",
                  "type": "bytes32"
                },
                {
                  "internalType": "address payable",
                  "name": "seller",
                  "type": "address"
                },
                {
                  "internalType": "address payable",
                  "name": "stakeOwner",
                  "type": "address"
                },
                {
                  "internalType": "uint256",
                  "name": "stakedAmount",
                  "type": "uint256"
                },
                {
                  "internalType": "uint256",
                  "name": "commissionPercentage",
                  "type": "uint256"
                },
                {
                  "internalType": "uint256",
                  "name": "warranty",
                  "type": "uint256"
                },
                {
                  "internalType": "uint256",
                  "name": "cashbackPercentage",
                  "type": "uint256"
                },
                {
                  "internalType": "uint256",
                  "name": "expiration",
                  "type": "uint256"
                }
              ],
              "internalType": "struct Dagora.Listing",
              "name": "listing",
              "type": "tuple"
            },
            {
              "internalType": "address payable",
              "name": "fundsHolder",
              "type": "address"
            },
            {
              "internalType": "address payable",
              "name": "buyer",
              "type": "address"
            },
            {
              "internalType": "address payable",
              "name": "commissioner",
              "type": "address"
            },
            {
              "internalType": "contract ERC20",
              "name": "token",
              "type": "address"
            },
            {
              "internalType": "uint256",
              "name": "total",
              "type": "uint256"
            },
            {
              "internalType": "uint256",
              "name": "cashback",
              "type": "uint256"
            },
            {
              "internalType": "uint256",
              "name": "commission",
              "type": "uint256"
            },
            {
              "internalType": "uint256",
              "name": "protocolFee",
              "type": "uint256"
            },
            {
              "internalType": "uint256",
              "name": "stakeHolderFee",
              "type": "uint256"
            },
            {
              "internalType": "uint256",
              "name": "expiration",
              "type": "uint256"
            },
            {
              "internalType": "uint256",
              "name": "confirmationTimeout",
              "type": "uint256"
            },
            {
              "internalType": "uint256",
              "name": "timestamp",
              "type": "uint256"
            }
          ],
          "internalType": "struct Dagora.Order",
          "name": "_order",
          "type": "tuple"
        }
      ],
      "name": "confirmReceipt",
      "outputs": [],
      "stateMutability": "nonpayable",
      "type": "function"
    },
    {
      "inputs": [
        {
          "internalType": "address",
          "name": "",
          "type": "address"
        }
      ],
      "name": "contracts",
      "outputs": [
        {
          "internalType": "bool",
          "name": "",
          "type": "bool"
        }
      ],
      "stateMutability": "view",
      "type": "function"
    },
    {
      "inputs": [
        {
          "components": [
            {
              "components": [
                {
                  "internalType": "bytes32",
                  "name": "ipfsHash",
                  "type": "bytes32"
                },
                {
                  "internalType": "address payable",
                  "name": "seller",
                  "type": "address"
                },
                {
                  "internalType": "address payable",
                  "name": "stakeOwner",
                  "type": "address"
                },
                {
                  "internalType": "uint256",
                  "name": "stakedAmount",
                  "type": "uint256"
                },
                {
                  "internalType": "uint256",
                  "name": "commissionPercentage",
                  "type": "uint256"
                },
                {
                  "internalType": "uint256",
                  "name": "warranty",
                  "type": "uint256"
                },
                {
                  "internalType": "uint256",
                  "name": "cashbackPercentage",
                  "type": "uint256"
                },
                {
                  "internalType": "uint256",
                  "name": "expiration",
                  "type": "uint256"
                }
              ],
              "internalType": "struct Dagora.Listing",
              "name": "listing",
              "type": "tuple"
            },
            {
              "internalType": "address payable",
              "name": "fundsHolder",
              "type": "address"
            },
            {
              "internalType": "address payable",
              "name": "buyer",
              "type": "address"
            },
            {
              "internalType": "address payable",
              "name": "commissioner",
              "type": "address"
            },
            {
              "internalType": "contract ERC20",
              "name": "token",
              "type": "address"
            },
            {
              "internalType": "uint256",
              "name": "total",
              "type": "uint256"
            },
            {
              "internalType": "uint256",
              "name": "cashback",
              "type": "uint256"
            },
            {
              "internalType": "uint256",
              "name": "commission",
              "type": "uint256"
            },
            {
              "internalType": "uint256",
              "name": "protocolFee",
              "type": "uint256"
            },
            {
              "internalType": "uint256",
              "name": "stakeHolderFee",
              "type": "uint256"
            },
            {
              "internalType": "uint256",
              "name": "expiration",
              "type": "uint256"
            },
            {
              "internalType": "uint256",
              "name": "confirmationTimeout",
              "type": "uint256"
            },
            {
              "internalType": "uint256",
              "name": "timestamp",
              "type": "uint256"
            }
          ],
          "internalType": "struct Dagora.Order",
          "name": "_order",
          "type": "tuple"
        },
        {
          "components": [
            {
              "internalType": "uint8",
              "name": "v",
              "type": "uint8"
            },
            {
              "internalType": "bytes32",
              "name": "r",
              "type": "bytes32"
            },
            {
              "internalType": "bytes32",
              "name": "s",
              "type": "bytes32"
            }
          ],
          "internalType": "struct Dagora.Sig",
          "name": "orderSig",
          "type": "tuple"
        },
        {
          "components": [
            {
              "internalType": "uint8",
              "name": "v",
              "type": "uint8"
            },
            {
              "internalType": "bytes32",
              "name": "r",
              "type": "bytes32"
            },
            {
              "internalType": "bytes32",
              "name": "s",
              "type": "bytes32"
            }
          ],
          "internalType": "struct Dagora.Sig",
          "name": "listingSig",
          "type": "tuple"
        }
      ],
      "name": "createTransaction",
      "outputs": [
        {
          "internalType": "bytes32",
          "name": "hash",
          "type": "bytes32"
        }
      ],
      "stateMutability": "nonpayable",
      "type": "function"
    },
    {
      "inputs": [
        {
          "internalType": "uint256",
          "name": "value",
          "type": "uint256"
        }
      ],
      "name": "depositTokens",
      "outputs": [],
      "stateMutability": "nonpayable",
      "type": "function"
    },
    {
      "inputs": [
        {
          "internalType": "uint256",
          "name": "",
          "type": "uint256"
        }
      ],
      "name": "disputeIDtoHash",
      "outputs": [
        {
          "internalType": "bytes32",
          "name": "",
          "type": "bytes32"
        }
      ],
      "stateMutability": "view",
      "type": "function"
    },
    {
      "inputs": [
        {
          "internalType": "bytes32",
          "name": "hash",
          "type": "bytes32"
        }
      ],
      "name": "disputeTimeout",
      "outputs": [],
      "stateMutability": "nonpayable",
      "type": "function"
    },
    {
      "inputs": [
        {
          "components": [
            {
              "components": [
                {
                  "internalType": "bytes32",
                  "name": "ipfsHash",
                  "type": "bytes32"
                },
                {
                  "internalType": "address payable",
                  "name": "seller",
                  "type": "address"
                },
                {
                  "internalType": "address payable",
                  "name": "stakeOwner",
                  "type": "address"
                },
                {
                  "internalType": "uint256",
                  "name": "stakedAmount",
                  "type": "uint256"
                },
                {
                  "internalType": "uint256",
                  "name": "commissionPercentage",
                  "type": "uint256"
                },
                {
                  "internalType": "uint256",
                  "name": "warranty",
                  "type": "uint256"
                },
                {
                  "internalType": "uint256",
                  "name": "cashbackPercentage",
                  "type": "uint256"
                },
                {
                  "internalType": "uint256",
                  "name": "expiration",
                  "type": "uint256"
                }
              ],
              "internalType": "struct Dagora.Listing",
              "name": "listing",
              "type": "tuple"
            },
            {
              "internalType": "address payable",
              "name": "fundsHolder",
              "type": "address"
            },
            {
              "internalType": "address payable",
              "name": "buyer",
              "type": "address"
            },
            {
              "internalType": "address payable",
              "name": "commissioner",
              "type": "address"
            },
            {
              "internalType": "contract ERC20",
              "name": "token",
              "type": "address"
            },
            {
              "internalType": "uint256",
              "name": "total",
              "type": "uint256"
            },
            {
              "internalType": "uint256",
              "name": "cashback",
              "type": "uint256"
            },
            {
              "internalType": "uint256",
              "name": "commission",
              "type": "uint256"
            },
            {
              "internalType": "uint256",
              "name": "protocolFee",
              "type": "uint256"
            },
            {
              "internalType": "uint256",
              "name": "stakeHolderFee",
              "type": "uint256"
            },
            {
              "internalType": "uint256",
              "name": "expiration",
              "type": "uint256"
            },
            {
              "internalType": "uint256",
              "name": "confirmationTimeout",
              "type": "uint256"
            },
            {
              "internalType": "uint256",
              "name": "timestamp",
              "type": "uint256"
            }
          ],
          "internalType": "struct Dagora.Order",
          "name": "_order",
          "type": "tuple"
        }
      ],
      "name": "disputeTransaction",
      "outputs": [
        {
          "internalType": "bytes32",
          "name": "hash",
          "type": "bytes32"
        }
      ],
      "stateMutability": "payable",
      "type": "function"
    },
    {
      "inputs": [
        {
          "internalType": "bytes32",
          "name": "",
          "type": "bytes32"
        }
      ],
      "name": "disputes",
      "outputs": [
        {
          "internalType": "address payable",
          "name": "prosecution",
          "type": "address"
        },
        {
          "internalType": "address payable",
          "name": "defendant",
          "type": "address"
        },
        {
          "internalType": "uint256",
          "name": "amount",
          "type": "uint256"
        },
        {
          "internalType": "contract ERC20",
          "name": "token",
          "type": "address"
        },
        {
          "internalType": "uint256",
          "name": "prosecutionFee",
          "type": "uint256"
        },
        {
          "internalType": "uint256",
          "name": "defendantFee",
          "type": "uint256"
        },
        {
          "internalType": "enum Dagora.DisputeType",
          "name": "disputeType",
          "type": "uint8"
        },
        {
          "internalType": "uint256",
          "name": "lastInteraction",
          "type": "uint256"
        },
        {
          "internalType": "uint256",
          "name": "metaEvidenceId",
          "type": "uint256"
        },
        {
          "internalType": "uint256",
          "name": "disputeId",
          "type": "uint256"
        },
        {
          "internalType": "enum Dagora.DisputeStatus",
          "name": "status",
          "type": "uint8"
        }
      ],
      "stateMutability": "view",
      "type": "function"
    },
    {
      "inputs": [
        {
          "components": [
            {
              "components": [
                {
                  "internalType": "bytes32",
                  "name": "ipfsHash",
                  "type": "bytes32"
                },
                {
                  "internalType": "address payable",
                  "name": "seller",
                  "type": "address"
                },
                {
                  "internalType": "address payable",
                  "name": "stakeOwner",
                  "type": "address"
                },
                {
                  "internalType": "uint256",
                  "name": "stakedAmount",
                  "type": "uint256"
                },
                {
                  "internalType": "uint256",
                  "name": "commissionPercentage",
                  "type": "uint256"
                },
                {
                  "internalType": "uint256",
                  "name": "warranty",
                  "type": "uint256"
                },
                {
                  "internalType": "uint256",
                  "name": "cashbackPercentage",
                  "type": "uint256"
                },
                {
                  "internalType": "uint256",
                  "name": "expiration",
                  "type": "uint256"
                }
              ],
              "internalType": "struct Dagora.Listing",
              "name": "listing",
              "type": "tuple"
            },
            {
              "internalType": "address payable",
              "name": "fundsHolder",
              "type": "address"
            },
            {
              "internalType": "address payable",
              "name": "buyer",
              "type": "address"
            },
            {
              "internalType": "address payable",
              "name": "commissioner",
              "type": "address"
            },
            {
              "internalType": "contract ERC20",
              "name": "token",
              "type": "address"
            },
            {
              "internalType": "uint256",
              "name": "total",
              "type": "uint256"
            },
            {
              "internalType": "uint256",
              "name": "cashback",
              "type": "uint256"
            },
            {
              "internalType": "uint256",
              "name": "commission",
              "type": "uint256"
            },
            {
              "internalType": "uint256",
              "name": "protocolFee",
              "type": "uint256"
            },
            {
              "internalType": "uint256",
              "name": "stakeHolderFee",
              "type": "uint256"
            },
            {
              "internalType": "uint256",
              "name": "expiration",
              "type": "uint256"
            },
            {
              "internalType": "uint256",
              "name": "confirmationTimeout",
              "type": "uint256"
            },
            {
              "internalType": "uint256",
              "name": "timestamp",
              "type": "uint256"
            }
          ],
          "internalType": "struct Dagora.Order",
          "name": "_order",
          "type": "tuple"
        }
      ],
      "name": "executeTransaction",
      "outputs": [],
      "stateMutability": "nonpayable",
      "type": "function"
    },
    {
      "inputs": [],
      "name": "feeTimeout",
      "outputs": [
        {
          "internalType": "uint256",
          "name": "",
          "type": "uint256"
        }
      ],
      "stateMutability": "view",
      "type": "function"
    },
    {
      "inputs": [
        {
          "internalType": "address",
          "name": "addr",
          "type": "address"
        }
      ],
      "name": "grantAuthentication",
      "outputs": [],
      "stateMutability": "nonpayable",
      "type": "function"
    },
    {
      "inputs": [],
      "name": "ipfsDomain",
      "outputs": [
        {
          "internalType": "string",
          "name": "",
          "type": "string"
        }
      ],
      "stateMutability": "view",
      "type": "function"
    },
    {
      "inputs": [],
      "name": "marketToken",
      "outputs": [
        {
          "internalType": "contract ERC20Burnable",
          "name": "",
          "type": "address"
        }
      ],
      "stateMutability": "view",
      "type": "function"
    },
    {
      "inputs": [],
      "name": "metaEvidenceCount",
      "outputs": [
        {
          "internalType": "uint256",
          "name": "",
          "type": "uint256"
        }
      ],
      "stateMutability": "view",
      "type": "function"
    },
    {
      "inputs": [],
      "name": "orderExtraData",
      "outputs": [
        {
          "internalType": "bytes",
          "name": "",
          "type": "bytes"
        }
      ],
      "stateMutability": "view",
      "type": "function"
    },
    {
      "inputs": [],
      "name": "owner",
      "outputs": [
        {
          "internalType": "address",
          "name": "",
          "type": "address"
        }
      ],
      "stateMutability": "view",
      "type": "function"
    },
    {
      "inputs": [
        {
          "internalType": "bytes32",
          "name": "hash",
          "type": "bytes32"
        }
      ],
      "name": "payArbitrationFee",
      "outputs": [],
      "stateMutability": "payable",
      "type": "function"
    },
    {
      "inputs": [],
      "name": "protocolFeePercentage",
      "outputs": [
        {
          "internalType": "uint256",
          "name": "",
          "type": "uint256"
        }
      ],
      "stateMutability": "view",
      "type": "function"
    },
    {
      "inputs": [],
      "name": "protocolFeeRecipient",
      "outputs": [
        {
          "internalType": "address",
          "name": "",
          "type": "address"
        }
      ],
      "stateMutability": "view",
      "type": "function"
    },
    {
      "inputs": [],
      "name": "renounceOwnership",
      "outputs": [],
      "stateMutability": "nonpayable",
      "type": "function"
    },
    {
      "inputs": [
        {
          "components": [
            {
              "internalType": "bytes32",
              "name": "ipfsHash",
              "type": "bytes32"
            },
            {
              "internalType": "address payable",
              "name": "seller",
              "type": "address"
            },
            {
              "internalType": "address payable",
              "name": "stakeOwner",
              "type": "address"
            },
            {
              "internalType": "uint256",
              "name": "stakedAmount",
              "type": "uint256"
            },
            {
              "internalType": "uint256",
              "name": "commissionPercentage",
              "type": "uint256"
            },
            {
              "internalType": "uint256",
              "name": "warranty",
              "type": "uint256"
            },
            {
              "internalType": "uint256",
              "name": "cashbackPercentage",
              "type": "uint256"
            },
            {
              "internalType": "uint256",
              "name": "expiration",
              "type": "uint256"
            }
          ],
          "internalType": "struct Dagora.Listing",
          "name": "_listing",
          "type": "tuple"
        },
        {
          "components": [
            {
              "internalType": "uint8",
              "name": "v",
              "type": "uint8"
            },
            {
              "internalType": "bytes32",
              "name": "r",
              "type": "bytes32"
            },
            {
              "internalType": "bytes32",
              "name": "s",
              "type": "bytes32"
            }
          ],
          "internalType": "struct Dagora.Sig",
          "name": "sig",
          "type": "tuple"
        }
      ],
      "name": "report",
      "outputs": [
        {
          "internalType": "bytes32",
          "name": "hash",
          "type": "bytes32"
        }
      ],
      "stateMutability": "payable",
      "type": "function"
    },
    {
      "inputs": [],
      "name": "reportExtraData",
      "outputs": [
        {
          "internalType": "bytes",
          "name": "",
          "type": "bytes"
        }
      ],
      "stateMutability": "view",
      "type": "function"
    },
    {
      "inputs": [
        {
          "internalType": "address",
          "name": "addr",
          "type": "address"
        }
      ],
      "name": "revokeAuthentication",
      "outputs": [],
      "stateMutability": "nonpayable",
      "type": "function"
    },
    {
      "inputs": [
        {
          "internalType": "uint256",
          "name": "_disputeID",
          "type": "uint256"
        },
        {
          "internalType": "uint256",
          "name": "_ruling",
          "type": "uint256"
        }
      ],
      "name": "rule",
      "outputs": [],
      "stateMutability": "nonpayable",
      "type": "function"
    },
    {
      "inputs": [
        {
          "internalType": "address",
          "name": "",
          "type": "address"
        }
      ],
      "name": "sellers",
      "outputs": [
        {
          "internalType": "uint256",
          "name": "balance",
          "type": "uint256"
        },
        {
          "internalType": "uint256",
          "name": "lockedTokens",
          "type": "uint256"
        },
        {
          "internalType": "uint256",
          "name": "blackListExpire",
          "type": "uint256"
        }
      ],
      "stateMutability": "view",
      "type": "function"
    },
    {
      "inputs": [
        {
          "internalType": "bytes32",
          "name": "_hash",
          "type": "bytes32"
        },
        {
          "internalType": "string",
          "name": "_evidence",
          "type": "string"
        }
      ],
      "name": "submitEvidence",
      "outputs": [],
      "stateMutability": "nonpayable",
      "type": "function"
    },
    {
      "inputs": [],
      "name": "tokenOwnerFeePercentage",
      "outputs": [
        {
          "internalType": "uint256",
          "name": "",
          "type": "uint256"
        }
      ],
      "stateMutability": "view",
      "type": "function"
    },
    {
      "inputs": [
        {
          "internalType": "bytes32",
          "name": "",
          "type": "bytes32"
        }
      ],
      "name": "transactions",
      "outputs": [
        {
          "internalType": "uint256",
          "name": "lastStatusUpdate",
          "type": "uint256"
        },
        {
          "internalType": "uint256",
          "name": "refund",
          "type": "uint256"
        },
        {
          "internalType": "enum Dagora.Status",
          "name": "status",
          "type": "uint8"
        }
      ],
      "stateMutability": "view",
      "type": "function"
    },
    {
      "inputs": [
        {
          "internalType": "address",
          "name": "newOwner",
          "type": "address"
        }
      ],
      "name": "transferOwnership",
      "outputs": [],
      "stateMutability": "nonpayable",
      "type": "function"
    },
    {
      "inputs": [
        {
          "components": [
            {
              "components": [
                {
                  "internalType": "bytes32",
                  "name": "ipfsHash",
                  "type": "bytes32"
                },
                {
                  "internalType": "address payable",
                  "name": "seller",
                  "type": "address"
                },
                {
                  "internalType": "address payable",
                  "name": "stakeOwner",
                  "type": "address"
                },
                {
                  "internalType": "uint256",
                  "name": "stakedAmount",
                  "type": "uint256"
                },
                {
                  "internalType": "uint256",
                  "name": "commissionPercentage",
                  "type": "uint256"
                },
                {
                  "internalType": "uint256",
                  "name": "warranty",
                  "type": "uint256"
                },
                {
                  "internalType": "uint256",
                  "name": "cashbackPercentage",
                  "type": "uint256"
                },
                {
                  "internalType": "uint256",
                  "name": "expiration",
                  "type": "uint256"
                }
              ],
              "internalType": "struct Dagora.Listing",
              "name": "listing",
              "type": "tuple"
            },
            {
              "internalType": "address payable",
              "name": "fundsHolder",
              "type": "address"
            },
            {
              "internalType": "address payable",
              "name": "buyer",
              "type": "address"
            },
            {
              "internalType": "address payable",
              "name": "commissioner",
              "type": "address"
            },
            {
              "internalType": "contract ERC20",
              "name": "token",
              "type": "address"
            },
            {
              "internalType": "uint256",
              "name": "total",
              "type": "uint256"
            },
            {
              "internalType": "uint256",
              "name": "cashback",
              "type": "uint256"
            },
            {
              "internalType": "uint256",
              "name": "commission",
              "type": "uint256"
            },
            {
              "internalType": "uint256",
              "name": "protocolFee",
              "type": "uint256"
            },
            {
              "internalType": "uint256",
              "name": "stakeHolderFee",
              "type": "uint256"
            },
            {
              "internalType": "uint256",
              "name": "expiration",
              "type": "uint256"
            },
            {
              "internalType": "uint256",
              "name": "confirmationTimeout",
              "type": "uint256"
            },
            {
              "internalType": "uint256",
              "name": "timestamp",
              "type": "uint256"
            }
          ],
          "internalType": "struct Dagora.Order",
          "name": "_order",
          "type": "tuple"
        },
        {
          "internalType": "uint256",
          "name": "refund",
          "type": "uint256"
        }
      ],
      "name": "updateRefund",
      "outputs": [],
      "stateMutability": "nonpayable",
      "type": "function"
    },
    {
      "inputs": [
        {
          "internalType": "uint256",
          "name": "value",
          "type": "uint256"
        }
      ],
      "name": "withdrawTokens",
      "outputs": [],
      "stateMutability": "nonpayable",
      "type": "function"
    },
    {
      "inputs": [
        {
          "components": [
            {
              "internalType": "bytes32",
              "name": "ipfsHash",
              "type": "bytes32"
            },
            {
              "internalType": "address payable",
              "name": "seller",
              "type": "address"
            },
            {
              "internalType": "address payable",
              "name": "stakeOwner",
              "type": "address"
            },
            {
              "internalType": "uint256",
              "name": "stakedAmount",
              "type": "uint256"
            },
            {
              "internalType": "uint256",
              "name": "commissionPercentage",
              "type": "uint256"
            },
            {
              "internalType": "uint256",
              "name": "warranty",
              "type": "uint256"
            },
            {
              "internalType": "uint256",
              "name": "cashbackPercentage",
              "type": "uint256"
            },
            {
              "internalType": "uint256",
              "name": "expiration",
              "type": "uint256"
            }
          ],
          "internalType": "struct Dagora.Listing",
          "name": "_listing",
          "type": "tuple"
        },
        {
          "components": [
            {
              "internalType": "uint8",
              "name": "v",
              "type": "uint8"
            },
            {
              "internalType": "bytes32",
              "name": "r",
              "type": "bytes32"
            },
            {
              "internalType": "bytes32",
              "name": "s",
              "type": "bytes32"
            }
          ],
          "internalType": "struct Dagora.Sig",
          "name": "sig",
          "type": "tuple"
        }
      ],
      "name": "_requireValidListing",
      "outputs": [
        {
          "internalType": "bool",
          "name": "",
          "type": "bool"
        }
      ],
      "stateMutability": "view",
      "type": "function"
    },
    {
      "inputs": [
        {
          "components": [
            {
              "internalType": "bytes32",
              "name": "ipfsHash",
              "type": "bytes32"
            },
            {
              "internalType": "address payable",
              "name": "seller",
              "type": "address"
            },
            {
              "internalType": "address payable",
              "name": "stakeOwner",
              "type": "address"
            },
            {
              "internalType": "uint256",
              "name": "stakedAmount",
              "type": "uint256"
            },
            {
              "internalType": "uint256",
              "name": "commissionPercentage",
              "type": "uint256"
            },
            {
              "internalType": "uint256",
              "name": "warranty",
              "type": "uint256"
            },
            {
              "internalType": "uint256",
              "name": "cashbackPercentage",
              "type": "uint256"
            },
            {
              "internalType": "uint256",
              "name": "expiration",
              "type": "uint256"
            }
          ],
          "internalType": "struct Dagora.Listing",
          "name": "listing",
          "type": "tuple"
        }
      ],
      "name": "_hashListing",
      "outputs": [
        {
          "internalType": "bytes32",
          "name": "hash",
          "type": "bytes32"
        }
      ],
      "stateMutability": "pure",
      "type": "function"
    },
    {
      "inputs": [
        {
          "components": [
            {
              "internalType": "bytes32",
              "name": "ipfsHash",
              "type": "bytes32"
            },
            {
              "internalType": "address payable",
              "name": "seller",
              "type": "address"
            },
            {
              "internalType": "address payable",
              "name": "stakeOwner",
              "type": "address"
            },
            {
              "internalType": "uint256",
              "name": "stakedAmount",
              "type": "uint256"
            },
            {
              "internalType": "uint256",
              "name": "commissionPercentage",
              "type": "uint256"
            },
            {
              "internalType": "uint256",
              "name": "warranty",
              "type": "uint256"
            },
            {
              "internalType": "uint256",
              "name": "cashbackPercentage",
              "type": "uint256"
            },
            {
              "internalType": "uint256",
              "name": "expiration",
              "type": "uint256"
            }
          ],
          "internalType": "struct Dagora.Listing",
          "name": "listing",
          "type": "tuple"
        }
      ],
      "name": "_hashListingToSign",
      "outputs": [
        {
          "internalType": "bytes32",
          "name": "hash",
          "type": "bytes32"
        }
      ],
      "stateMutability": "pure",
      "type": "function"
    },
    {
      "inputs": [
        {
          "internalType": "bytes32",
          "name": "msgHash",
          "type": "bytes32"
        },
        {
          "components": [
            {
              "internalType": "uint8",
              "name": "v",
              "type": "uint8"
            },
            {
              "internalType": "bytes32",
              "name": "r",
              "type": "bytes32"
            },
            {
              "internalType": "bytes32",
              "name": "s",
              "type": "bytes32"
            }
          ],
          "internalType": "struct Dagora.Sig",
          "name": "sig",
          "type": "tuple"
        }
      ],
      "name": "_ecrecover",
      "outputs": [
        {
          "internalType": "address",
          "name": "",
          "type": "address"
        }
      ],
      "stateMutability": "pure",
      "type": "function"
    }
  ],
  "bytecode": "0x60806040523480156200001157600080fd5b5060405162005020380380620050208339810160408190526200003491620002bb565b898989898989898989896000620000536001600160e01b036200014f16565b600080546001600160a01b0319166001600160a01b0383169081178255604051929350917f8be0079c531659141344cd1fd0a4f28419497f9722a3daafe3b4186f6b6457e0908290a350600780546001600160a01b03808d166001600160a01b031992831617909255600d80548c841690831617905560128054928b169290911691909117905562015180808802600b558602600a556010859055601184905582516200010890600890602086019062000154565b5081516200011e90600990602085019062000154565b5080516200013490600f90602084019062000154565b505050505050505050505050505050505050505050620003ab565b335b90565b828054600181600116156101000203166002900490600052602060002090601f016020900481019282601f106200019757805160ff1916838001178555620001c7565b82800160010185558215620001c7579182015b82811115620001c7578251825591602001919060010190620001aa565b50620001d5929150620001d9565b5090565b6200015191905b80821115620001d55760008155600101620001e0565b80516001600160a01b03811681146200020e57600080fd5b92915050565b600082601f83011262000225578081fd5b81516001600160401b03808211156200023c578283fd5b6040516020601f8401601f19168201810183811183821017156200025e578586fd5b806040525081945083825286818588010111156200027b57600080fd5b600092505b838310156200029f578583018101518284018201529182019162000280565b83831115620002b15760008185840101525b5050505092915050565b6000806000806000806000806000806101408b8d031215620002db578586fd5b620002e78c8c620001f6565b9950620002f88c60208d01620001f6565b9850620003098c60408d01620001f6565b975060608b0151965060808b0151955060a08b0151945060c08b0151935060e08b015160018060401b038082111562000340578485fd5b6200034e8e838f0162000214565b94506101008d015191508082111562000365578384fd5b620003738e838f0162000214565b93506101208d01519150808211156200038a578283fd5b50620003998d828e0162000214565b9150509295989b9194979a5092959850565b614c6580620003bb6000396000f3fe60806040526004361061027d5760003560e01c80638076f0051161014f578063ad48d611116100c1578063d1fcfdb81161007a578063d1fcfdb81461074d578063dd49756e1461076d578063ece1de441461078d578063ee7269d7146107a0578063f2fde38b146107b5578063f48a0b31146107d55761027d565b8063ad48d611146106c6578063b329036b146106db578063b6398667146106f0578063ba4bc76314610705578063be6a18ef14610725578063cae6047f146107385761027d565b80638da5cb5b116101135780638da5cb5b146106255780638e50e5091461063a57806396e712501461064f578063a0c59ef31461066f578063a2031de414610684578063a66f1a72146106a65761027d565b80638076f0051461059257806381fd4fd7146105b257806382ad5f75146105d257806382e1e972146105e557806387bd84cc146106055761027d565b80635af79807116101f35780636b83a061116101ac5780636b83a061146104d95780636cc6cde1146104f95780636d47ab721461050e578063715018a61461053d57806372fc42131461055257806378e740ff146105725761027d565b80635af79807146103f95780635d2569ad1461040e578063640b5aac1461043b578063642f2eaf1461045b57806364df049e1461048a57806369dc9ff3146104ac5761027d565b8063315a095d11610245578063315a095d1461035157806339d2a694146103715780634140a5eb146103845780634f92352f1461039957806353376d1f146103b9578063546f995c146103d95761027d565b806311be199714610282578063203ab174146102c257806320a1e5b5146102ef5780632c3d01b81461030f578063311a6c5614610331575b600080fd5b34801561028e57600080fd5b506102a261029d366004613c26565b6107f5565b6040516102b99b9a999897969594939291906140c6565b60405180910390f35b3480156102ce57600080fd5b506102e26102dd366004613cff565b610862565b6040516102b991906141cd565b3480156102fb57600080fd5b506102e261030a366004613d64565b610873565b34801561031b57600080fd5b5061032f61032a366004613d48565b610a19565b005b34801561033d57600080fd5b5061032f61034c366004613df0565b610b58565b34801561035d57600080fd5b5061032f61036c366004613c26565b610c68565b6102e261037f366004613d48565b610d81565b34801561039057600080fd5b506102e2611003565b3480156103a557600080fd5b506102e26103b4366004613cff565b611009565b3480156103c557600080fd5b5061032f6103d4366004613b2b565b611014565b3480156103e557600080fd5b5061032f6103f4366004613b47565b611092565b34801561040557600080fd5b506102e26110c6565b34801561041a57600080fd5b5061042e610429366004613b82565b6110cc565b6040516102b9919061417e565b34801561044757600080fd5b5061032f610456366004613dac565b6111a5565b34801561046757600080fd5b5061047b610476366004613c26565b6112d5565b6040516102b993929190614b6c565b34801561049657600080fd5b5061049f6112f9565b6040516102b99190614071565b3480156104b857600080fd5b506104cc6104c7366004613b2b565b611308565b6040516102b991906141c2565b3480156104e557600080fd5b506104cc6104f4366004613cff565b61131d565b34801561050557600080fd5b5061049f61140d565b34801561051a57600080fd5b5061052e610529366004613b2b565b61141c565b6040516102b993929190614b92565b34801561054957600080fd5b5061032f61143c565b34801561055e57600080fd5b5061032f61056d366004613c26565b6114bb565b34801561057e57600080fd5b506104cc61058d366004613d48565b611678565b34801561059e57600080fd5b506104cc6105ad366004613c26565b611735565b3480156105be57600080fd5b506104cc6105cd366004613d1b565b61174a565b6102e26105e0366004613d1b565b61175f565b3480156105f157600080fd5b5061032f610600366004613d48565b611a48565b34801561061157600080fd5b506104cc610620366004613c26565b611b28565b34801561063157600080fd5b5061049f611b3d565b34801561064657600080fd5b506102e2611b4c565b34801561065b57600080fd5b5061032f61066a366004613d48565b611b52565b34801561067b57600080fd5b506102e2611c4f565b34801561069057600080fd5b50610699611c55565b6040516102b991906141f4565b3480156106b257600080fd5b5061049f6106c1366004613cd3565b611ce3565b3480156106d257600080fd5b5061049f611d48565b3480156106e757600080fd5b506102e2611d57565b3480156106fc57600080fd5b50610699611d5d565b34801561071157600080fd5b506102e2610720366004613c26565b611db8565b61032f610733366004613c26565b611dca565b34801561074457600080fd5b506102e261202b565b34801561075957600080fd5b5061032f610768366004613b2b565b612031565b34801561077957600080fd5b5061032f610788366004613c26565b6120d8565b61032f61079b366004613c26565b6121b7565b3480156107ac57600080fd5b50610699612266565b3480156107c157600080fd5b5061032f6107d0366004613b2b565b6122c1565b3480156107e157600080fd5b5061032f6107f0366004613c3e565b612377565b600560208190526000918252604090912080546001820154600283015460038401546004850154958501546006860154600787015460088801546009890154600a909901546001600160a01b039889169a9789169996989095169695939460ff938416949293919291168b565b600061086d8261247b565b92915050565b600061088084848461248e565b6000818152600460205260408120919250600282015460ff1660058111156108a457fe5b146108ca5760405162461bcd60e51b81526004016108c19061498b565b60405180910390fd5b84608001516001600160a01b03166323b872dd8660200151308860a001516040518463ffffffff1660e01b815260040161090693929190614141565b602060405180830381600087803b15801561092057600080fd5b505af1158015610934573d6000803e3d6000fd5b505050506040513d601f19601f820116820180604052508101906109589190613c06565b6109745760405162461bcd60e51b81526004016108c190614a02565b4281556002810180546001919060ff1916828002179055508460000151602001516001600160a01b031685604001516001600160a01b0316837fe419a7cfec7b19a58f8ef66dbf85dd08b396bafa0e2f94b3181fd3d047cb748188600001516040015189606001518a608001518b60a001518c60e001518d60c001518e6101600151604051610a099796959493929190614085565b60405180910390a4509392505050565b6000610a24826124fd565b60008181526004602052604090209091506001600282015460ff166005811115610a4a57fe5b1480610a67575060028082015460ff166005811115610a6557fe5b145b80610a8457506003600282015460ff166005811115610a8257fe5b145b610aa05760405162461bcd60e51b81526004016108c190614443565b60006001600283015460ff166005811115610ab757fe5b1480610ad557506003600283015460ff166005811115610ad357fe5b145b15610b12578361016001516201518002826000015401421015610b0a5760405162461bcd60e51b81526004016108c1906143ae565b506000610b49565b835160a0015182546201518090910201421015610b415760405162461bcd60e51b81526004016108c1906143ae565b50825160c001515b610b528461250b565b50505050565b60008281526006602090815260408083205480845260059092529091206007546001600160a01b03163314610b9f5760405162461bcd60e51b81526004016108c1906149c0565b6003600a82015460ff166004811115610bb457fe5b14610bd15760405162461bcd60e51b81526004016108c1906142a6565b83336001600160a01b03167f394027a5fa6e098a1191094d1719d6929b9abc535fcc0c8f448d6a4e7562227685604051610c0b91906141cd565b60405180910390a36001600682015460ff166002811115610c2857fe5b1415610c3d57610c3881846128d1565b610b52565b610c478184612c2f565b506000908152600460205260409020600201805460ff191660051790555050565b33600090815260016020819052604090912090810154815403821115610ca05760405162461bcd60e51b81526004016108c19061422e565b600d546040516323b872dd60e01b81526001600160a01b03909116906323b872dd90610cd490339030908790600401614141565b602060405180830381600087803b158015610cee57600080fd5b505af1158015610d02573d6000803e3d6000fd5b505050506040513d601f19601f82011682018060405250810190610d269190613c06565b610d2f57600080fd5b336000818152600160205260409081902080548590039055517f05e8d4927d2e9cff8a7d6f1c0c3b0fdd4d7299da00fe4911745bda49a5834e6790610d759085906141cd565b60405180910390a25050565b6000610d8c826124fd565b60008181526004602052604090209091506001600282015460ff166005811115610db257fe5b1480610dd057506003600282015460ff166005811115610dce57fe5b145b610dec5760405162461bcd60e51b81526004016108c190614443565b8261016001516201518002816000015401421115610e1c5760405162461bcd60e51b81526004016108c190614706565b60075460405163f7434ea960e01b81526000916001600160a01b03169063f7434ea990610e4e90600890600401614207565b60206040518083038186803b158015610e6657600080fd5b505afa158015610e7a573d6000803e3d6000fd5b505050506040513d601f19601f82011682018060405250810190610e9e9190613dd8565b905080341015610ec05760405162461bcd60e51b81526004016108c190614853565b6000806001600285015460ff166005811115610ed857fe5b1415610f255785604001516001600160a01b0316336001600160a01b031614610f135760405162461bcd60e51b81526004016108c1906145b4565b50506040840151845160200151610f60565b8551602001516001600160a01b03163314610f525760405162461bcd60e51b81526004016108c1906145eb565b505060408401518451602001515b6002848101805460ff1916600417905542855560a08701516080880151600092610f93928992879287929190349061306c565b905080600801547f61606860eb6c87306811e2695215385101daab53bd6ab4e9f9049aead9363c7d600f896000015160000151604051602001610fd7929190613fc8565b60408051601f1981840301815290829052610ff1916141f4565b60405180910390a25050505050919050565b60115481565b600061086d8261317b565b61101c6131d3565b6000546001600160a01b039081169116146110495760405162461bcd60e51b81526004016108c190614663565b6001600160a01b0381166000818152600c6020526040808220805460ff19169055517f45f62f30e7b8439e0da7d8e560fe39d01238091ce9e789e3d12b514edf98acea9190a250565b60005b81518110156110c2576110ba8282815181106110ad57fe5b6020026020010151610a19565b600101611095565b5050565b600e5481565b6060825184511480156110e0575081518351145b6110e957600080fd5b835167ffffffffffffffff8111801561110157600080fd5b5060405190808252806020026020018201604052801561112b578160200160208202803683370190505b50905060005b845181101561119d5761117e85828151811061114957fe5b602002602001015185838151811061115d57fe5b602002602001015185848151811061117157fe5b6020026020010151610873565b82828151811061118a57fe5b6020908102919091010152600101611131565b509392505050565b8151602001516001600160a01b031633146111d25760405162461bcd60e51b81526004016108c1906144bb565b60006111dd836124fd565b60008181526004602052604090209091506001600282015460ff16600581111561120357fe5b146112205760405162461bcd60e51b81526004016108c190614443565b83610160015162015180028160000154014211156112505760405162461bcd60e51b81526004016108c190614706565b8360a001518460e001518561012001518661010001518760c001510101018401111561128e5760405162461bcd60e51b81526004016108c190614772565b828160010181905550817fe18fe462037a62d3500e07f2b32d9e16a69cee44850c9b7dcef7d856087e4aff846040516112c791906141cd565b60405180910390a250505050565b60046020526000908152604090208054600182015460029092015490919060ff1683565b6012546001600160a01b031681565b600c6020526000908152604090205460ff1681565b600081604001516001600160a01b0316336001600160a01b0316146113545760405162461bcd60e51b81526004016108c19061473b565b60608201513360009081526001602052604090205410156113875760405162461bcd60e51b81526004016108c1906144f2565b60006113928361247b565b60008181526003602052604090205490915060ff16156113c45760405162461bcd60e51b81526004016108c1906142ec565b600081815260036020526040808220805460ff191660011790555182917f4e58c75167b3bff3ab3949a55f72203f341f94cca1c2c0c84370731b2b4c201791a250600192915050565b6007546001600160a01b031681565b600160208190526000918252604090912080549181015460029091015483565b6114446131d3565b6000546001600160a01b039081169116146114715760405162461bcd60e51b81526004016108c190614663565b600080546040516001600160a01b03909116907f8be0079c531659141344cd1fd0a4f28419497f9722a3daafe3b4186f6b6457e0908390a3600080546001600160a01b0319169055565b6000818152600560205260409020600a81015460ff1660048111156114dc57fe5b60001080156114fd57506003600a82015460ff1660048111156114fb57fe5b105b6115195760405162461bcd60e51b81526004016108c190614529565b600b548160070154420310156115415760405162461bcd60e51b81526004016108c1906143ae565b600081600401546000146115bf57600482018054600090915582546040516001600160a01b039091169082906115769061406e565b60006040518083038185875af1925050503d80600081146115b3576040519150601f19603f3d011682016040523d82523d6000602084013e6115b8565b606091505b5090925050505b60058201541561163c57600582018054600090915560018301546040516001600160a01b039091169082906115f39061406e565b60006040518083038185875af1925050503d8060008114611630576040519150601f19603f3d011682016040523d82523d6000602084013e611635565b606091505b5090925050505b6002600a83015460ff16600481111561165157fe5b1415611668576116638260015b6128d1565b611673565b61167382600261165e565b505050565b600081602001516001600160a01b0316336001600160a01b0316146116af5760405162461bcd60e51b81526004016108c190614698565b60006116ba836124fd565b60008181526003602052604090205490915060ff16156116ec5760405162461bcd60e51b81526004016108c1906142ec565b600081815260036020526040808220805460ff191660011790555182917f0bed755d9d22259660bf623a395b620bbff2af67319e990b538dc8603bdc3e5f91a250600192915050565b60026020526000908152604090205460ff1681565b600061175683836131d7565b15159392505050565b600061176b83836131d7565b9050600080828152600560205260409020600a015460ff16600481111561178e57fe5b146117ab5760405162461bcd60e51b81526004016108c190614622565b82604001516001600160a01b0316336001600160a01b031614156117e15760405162461bcd60e51b81526004016108c190614af7565b60075460405163f7434ea960e01b81526000916001600160a01b03169063f7434ea99061181390600890600401614207565b60206040518083038186803b15801561182b57600080fd5b505afa15801561183f573d6000803e3d6000fd5b505050506040513d601f19601f820116820180604052508101906118639190613dd8565b9050803410156118855760405162461bcd60e51b81526004016108c190614853565b336000908152600160205260409020600281015442116118b75760405162461bcd60e51b81526004016108c19061480c565b6001810154815460608701519190039081101561198757600d5460608701516040516323b872dd60e01b81526001600160a01b03909216916323b872dd9161190a91339130919087900390600401614141565b602060405180830381600087803b15801561192457600080fd5b505af1158015611938573d6000803e3d6000fd5b505050506040513d601f19601f8201168201806040525081019061195c9190613c06565b6119785760405162461bcd60e51b81526004016108c190614a43565b60608601518254908290030182555b604080870180516001600160a01b0390811660009081526001602081905293812060608b01518786018054820190558186018054820190559351600d54919592946119db948b94339490911690349061306c565b905080600801547f61606860eb6c87306811e2695215385101daab53bd6ab4e9f9049aead9363c7d600f8a60000151604051602001611a1b929190613fc8565b60408051601f1981840301815290829052611a35916141f4565b60405180910390a2505050505092915050565b6000611a53826124fd565b60008181526004602052604090209091506001600282015460ff166005811115611a7957fe5b148015611a9b575082604001516001600160a01b0316336001600160a01b0316145b80611ad057506003600282015460ff166005811115611ab657fe5b148015611ad057508251602001516001600160a01b031633145b611aec5760405162461bcd60e51b81526004016108c19061489d565b6001810154158015611b025750825160a0015115155b15611b1f576002818101805460ff19169091179055428155611673565b6116738361250b565b60036020526000908152604090205460ff1681565b6000546001600160a01b031690565b60105481565b6000611b5d826124fd565b600081815260046020526040902090915060028082015460ff166005811115611b8257fe5b14611b9f5760405162461bcd60e51b81526004016108c190614443565b82604001516001600160a01b0316336001600160a01b031614611bd45760405162461bcd60e51b81526004016108c190614960565b825160a0015181546201518090910201421115611c035760405162461bcd60e51b81526004016108c19061440c565b60028101805460ff1916600317905560a0830151600182015542815560405182907f99e77d4092287badf5165a76eb7add37ec282650747091906c6a02e0cd4f5b3d90600090a2505050565b600a5481565b600f805460408051602060026001851615610100026000190190941693909304601f81018490048402820184019092528181529291830182828015611cdb5780601f10611cb057610100808354040283529160200191611cdb565b820191906000526020600020905b815481529060010190602001808311611cbe57829003601f168201915b505050505081565b600060018383600001518460200151856040015160405160008152602001604052604051611d1494939291906141d6565b6020604051602081039080840390855afa158015611d36573d6000803e3d6000fd5b5050604051601f190151949350505050565b600d546001600160a01b031681565b600b5481565b6009805460408051602060026001851615610100026000190190941693909304601f81018490048402820184019092528181529291830182828015611cdb5780601f10611cb057610100808354040283529160200191611cdb565b60066020526000908152604090205481565b600081815260056020526040808220600754915163f7434ea960e01b81529092916001600160a01b03169063f7434ea990611e0a90600890600401614207565b60206040518083038186803b158015611e2257600080fd5b505afa158015611e36573d6000803e3d6000fd5b505050506040513d601f19601f82011682018060405250810190611e5a9190613dd8565b600a83015490915060ff166004811115611e7057fe5b6000108015611e9157506003600a83015460ff166004811115611e8f57fe5b105b611ead5760405162461bcd60e51b81526004016108c190614265565b81546001600160a01b0316331480611ed1575060018201546001600160a01b031633145b611eed5760405162461bcd60e51b81526004016108c1906146cf565b81546001600160a01b0316331415611f9557600482018054340190819055811115611f2a5760405162461bcd60e51b81526004016108c19061446a565b4260078301556005820154811115611f8b57600a8201805460ff1916600217905560405183907ff972c77402d0ee7d94e4b2ea7cee21a3d392136bf7c9b72d2dc85e2a4d24a9cf90611f7e9060019061421a565b60405180910390a2611663565b611663838261320b565b600582018054340190819055811115611fc05760405162461bcd60e51b81526004016108c19061446a565b426007830155600482015481111561202157600a8201805460ff1916600117905560405183907ff972c77402d0ee7d94e4b2ea7cee21a3d392136bf7c9b72d2dc85e2a4d24a9cf906120149060009061421a565b60405180910390a2611673565b611673838261320b565b61271081565b6120396131d3565b6000546001600160a01b039081169116146120665760405162461bcd60e51b81526004016108c190614663565b6001600160a01b0381166000908152600c602052604090205460ff161561208c57600080fd5b6001600160a01b0381166000818152600c6020526040808220805460ff19166001179055517f52133ca86a0b20d025852c627bd9d5c8e6037a237d7ef7d22f399ae642e6b9b49190a250565b600d546040516323b872dd60e01b81526001600160a01b03909116906323b872dd9061210c90339030908690600401614141565b602060405180830381600087803b15801561212657600080fd5b505af115801561213a573d6000803e3d6000fd5b505050506040513d601f19601f8201168201806040525081019061215e9190613c06565b61216757600080fd5b3360008181526001602052604090819020805484019055517fbc7c8a4d8049a3f99a02f2a20640c206a2e4d3f2fa54fd20da9f01fda3620cda906121ac9084906141cd565b60405180910390a250565b60008181526005602052604090206002600682015460ff1660028111156121da57fe5b146121f75760405162461bcd60e51b81526004016108c190614913565b60075460098083015460405163093225f160e31b81526001600160a01b03909316926349912f8892349261223092909190600401614b45565b6000604051808303818588803b15801561224957600080fd5b505af115801561225d573d6000803e3d6000fd5b50505050505050565b6008805460408051602060026001851615610100026000190190941693909304601f81018490048402820184019092528181529291830182828015611cdb5780601f10611cb057610100808354040283529160200191611cdb565b6122c96131d3565b6000546001600160a01b039081169116146122f65760405162461bcd60e51b81526004016108c190614663565b6001600160a01b03811661231c5760405162461bcd60e51b81526004016108c190614368565b600080546040516001600160a01b03808516939216917f8be0079c531659141344cd1fd0a4f28419497f9722a3daafe3b4186f6b6457e091a3600080546001600160a01b0319166001600160a01b0392909216919091179055565b600082815260056020526040902080546001600160a01b03163314806123a9575060018101546001600160a01b031633145b6123c55760405162461bcd60e51b81526004016108c190614aa3565b6002600682015460ff1660028111156123da57fe5b146123f75760405162461bcd60e51b81526004016108c1906147bd565b6004600a82015460ff16600481111561240c57fe5b106124295760405162461bcd60e51b81526004016108c190614316565b60088101546007546040513392916001600160a01b0316907fdccf2f8b2cc26eafcd61905cba744cff4b81d14740725f6376390dc6298a6a3c9061246e9087906141f4565b60405180910390a4505050565b600061086d6124898361317b565b613448565b60006124a86124a0856000015161247b565b855184613478565b6124c45760405162461bcd60e51b81526004016108c190614a7a565b6124da6124d0856124fd565b91508185856135ab565b6124f65760405162461bcd60e51b81526004016108c1906148ec565b9392505050565b600061086d612489836137b2565b6000612516826124fd565b6000818152600460205260408120600181015460a08601519394509092909190612540908361381e565b60028401805460ff19166005179055600080855560018501556101008601519091501561260257610100850151608086015160125460405163a9059cbb60e01b815293839003936001600160a01b039283169363a9059cbb936125a7931691600401614165565b602060405180830381600087803b1580156125c157600080fd5b505af11580156125d5573d6000803e3d6000fd5b505050506040513d601f19601f820116820180604052508101906125f99190613c06565b61260257600080fd5b610120850151156126b85761261c8186610120015161381e565b905084608001516001600160a01b031663a9059cbb8660000151604001518761012001516040518363ffffffff1660e01b815260040161265d929190614165565b602060405180830381600087803b15801561267757600080fd5b505af115801561268b573d6000803e3d6000fd5b505050506040513d601f19601f820116820180604052508101906126af9190613c06565b6126b857600080fd5b60e08501511561275e5760e08501516080860151606087015160405163a9059cbb60e01b815293839003936001600160a01b039092169263a9059cbb92612703929190600401614165565b602060405180830381600087803b15801561271d57600080fd5b505af1158015612731573d6000803e3d6000fd5b505050506040513d601f19601f820116820180604052508101906127559190613c06565b61275e57600080fd5b60c0850151156128065760c08501516080860151604080880151905163a9059cbb60e01b815293839003936001600160a01b039092169263a9059cbb926127ab9291870190600401614165565b602060405180830381600087803b1580156127c557600080fd5b505af11580156127d9573d6000803e3d6000fd5b505050506040513d601f19601f820116820180604052508101906127fd9190613c06565b61280657600080fd5b801561289f57608085015185516020015160405163a9059cbb60e01b81526001600160a01b039092169163a9059cbb91612844918590600401614165565b602060405180830381600087803b15801561285e57600080fd5b505af1158015612872573d6000803e3d6000fd5b505050506040513d601f19601f820116820180604052508101906128969190613c06565b61289f57600080fd5b60405184907f24196ec40f90671b7144e716978686b4f3c7d6b00b23da3971ef2b52af27d87f90600090a25050505050565b60028111156128f25760405162461bcd60e51b81526004016108c1906143e3565b6002820180546004808501805460058701805460009687905592869055859055600a8701805460ff191690931790925560016020819052808701546001600160a01b0316855292939192909190851415612a4b5785546040516001600160a01b039091169084906129629061406e565b60006040518083038185875af1925050503d806000811461299f576040519150601f19603f3d011682016040523d82523d6000602084013e6129a4565b606091505b50506001878101546001600160a01b03908116600090815260209290925260408083208054899003905589548216835290912080546002808904909101909155600d549293509116906342966c6890865b0486036040518263ffffffff1660e01b8152600401612a1491906141cd565b600060405180830381600087803b158015612a2e57600080fd5b505af1158015612a42573d6000803e3d6000fd5b50505050612c27565b6002851415612b1b5760018601546040516001600160a01b03909116908390612a739061406e565b60006040518083038185875af1925050503d8060008114612ab0576040519150601f19603f3d011682016040523d82523d6000602084013e612ab5565b606091505b5050600a5487546001600160a01b039081166000908152600160208190526040808320429095016002958601558b548416835280832080548b90039055908b01548316825290208054838904019055600d5492935091909116906342966c6890866129f5565b600186015460405160028504916001600160a01b03169082850390612b3f9061406e565b60006040518083038185875af1925050503d8060008114612b7c576040519150601f19603f3d011682016040523d82523d6000602084013e612b81565b606091505b505087546040519193506001600160a01b0316908290612ba09061406e565b60006040518083038185875af1925050503d8060008114612bdd576040519150601f19603f3d011682016040523d82523d6000602084013e612be2565b606091505b505087546001600160a01b039081166000908152600160208190526040808320805460028c0490819003909155918c0154909316825291902080549190910390559150505b505050505050565b6002811115612c505760405162461bcd60e51b81526004016108c1906143e3565b6002820180546004808501805460058701805460009687905592869055859055600a8701805460ff191690931790925591929091906001851415612d9a5785546040516001600160a01b03909116908490612caa9061406e565b60006040518083038185875af1925050503d8060008114612ce7576040519150601f19603f3d011682016040523d82523d6000602084013e612cec565b606091505b50506003870154875460405163a9059cbb60e01b81529293506001600160a01b039182169263a9059cbb92612d279216908890600401614165565b602060405180830381600087803b158015612d4157600080fd5b505af1158015612d55573d6000803e3d6000fd5b505050506040513d601f19601f82011682018060405250810190612d799190613c06565b612d955760405162461bcd60e51b81526004016108c19061456e565b612c27565b6002851415612e425760018601546040516001600160a01b03909116908390612dc29061406e565b60006040518083038185875af1925050503d8060008114612dff576040519150601f19603f3d011682016040523d82523d6000602084013e612e04565b606091505b50506003870154600188015460405163a9059cbb60e01b81529293506001600160a01b039182169263a9059cbb92612d279216908890600401614165565b600186015460405160028504916001600160a01b03169082850390612e669061406e565b60006040518083038185875af1925050503d8060008114612ea3576040519150601f19603f3d011682016040523d82523d6000602084013e612ea8565b606091505b505087546040519193506001600160a01b0316908290612ec79061406e565b60006040518083038185875af1925050503d8060008114612f04576040519150601f19603f3d011682016040523d82523d6000602084013e612f09565b606091505b50506003880154600189015460405163a9059cbb60e01b815292945060028804926001600160a01b039283169263a9059cbb92612f4f92911690858b0390600401614165565b602060405180830381600087803b158015612f6957600080fd5b505af1158015612f7d573d6000803e3d6000fd5b505050506040513d601f19601f82011682018060405250810190612fa19190613c06565b612fbd5760405162461bcd60e51b81526004016108c19061456e565b6003880154885460405163a9059cbb60e01b81526001600160a01b039283169263a9059cbb92612ff4929116908590600401614165565b602060405180830381600087803b15801561300e57600080fd5b505af1158015613022573d6000803e3d6000fd5b505050506040513d601f19601f820116820180604052508101906130469190613c06565b6130625760405162461bcd60e51b81526004016108c19061456e565b5050505050505050565b600087815260056020526040902080546001600160a01b038089166001600160a01b031992831617835560018084018054928a1692909316919091179091556002808301879055600483018054860190556006830180548593919260ff19909116919084908111156130da57fe5b021790555060018260028111156130ed57fe5b1415613111576003810180546001600160a01b0319166001600160a01b0386161790555b600a8101805460ff19166002179055426007820155600e80546001818101909255600883015560405189917ff972c77402d0ee7d94e4b2ea7cee21a3d392136bf7c9b72d2dc85e2a4d24a9cf91613168919061421a565b60405180910390a2979650505050505050565b80516020808301516040808501516060860151608087015160a088015160c089015160e08a015195516000996131b5999098979101613f7d565b60408051808303601f19018152919052805160209091012092915050565b3390565b60006131ef6131e58461247b565b9150818484613478565b61086d5760405162461bcd60e51b81526004016108c190614a7a565b6000828152600560205260409020600a810180546003919060ff191660018302179055506007546000906001600160a01b031663c13517e184600280600687015460ff16600281111561325a57fe5b14613266576008613269565b60095b6040518463ffffffff1660e01b8152600401613286929190614ba8565b6020604051808303818588803b15801561329f57600080fd5b505af11580156132b3573d6000803e3d6000fd5b50505050506040513d601f19601f820116820180604052508101906132d89190613dd8565b600081815260066020526040908190208690556007546008850154915192935083926001600160a01b03909116917f74baab670a4015ab2f1b467c5252a96141a2573f2908e58a92081e80d3cfde3d9161333491908190614b5e565b60405180910390a3600083836004015411156133be5760048301805490859055835460405191869003916001600160a01b039091169082906133759061406e565b60006040518083038185875af1925050503d80600081146133b2576040519150601f19603f3d011682016040523d82523d6000602084013e6133b7565b606091505b5090925050505b83836005015411156134415760058301805490859055600184015460405191869003916001600160a01b039091169082906133f89061406e565b60006040518083038185875af1925050503d8060008114613435576040519150601f19603f3d011682016040523d82523d6000602084013e61343a565b606091505b5090925050505b5050505050565b60008160405160200161345b919061403d565b604051602081830303815290604052805190602001209050919050565b60008260e0015160001415801561349257508260e0015142115b1561349f575060006124f6565b6040808401516001600160a01b031660009081526001602081905291902060608501519181015481549192910310156134dc5760009150506124f6565b60008581526002602052604090205460ff16156134fd5760009150506124f6565b60008581526003602052604090205460ff161561351e5760019150506124f6565b83604001516001600160a01b03166001868560000151866020015187604001516040516000815260200160405260405161355b94939291906141d6565b6020604051602081039080840390855afa15801561357d573d6000803e3d6000fd5b505050602060405103516001600160a01b031614156135a05760019150506124f6565b506000949350505050565b60008261014001516000141580156135c7575082610140015142115b156135d4575060006124f6565b60808301516001600160a01b03166000908152600c602052604090205460ff16613600575060006124f6565b60008481526002602052604090205460ff161561361f575060006124f6565b6136358360a00151846000015160800151613860565b8360e001511015613648575060006124f6565b61365e8360a00151846000015160c00151613860565b8360c001511015613671575060006124f6565b6136818360a00151601054613860565b8361010001511015613695575060006124f6565b825160208101516040909101516001600160a01b039081169116148015906136d057506136c88360a00151601154613860565b836101200151105b156136dd575060006124f6565b8260e001518361012001518461010001518560c001510101018360a001511015613709575060006124f6565b60008481526003602052604090205460ff1615613728575060016124f6565b82604001516001600160a01b03166001858460000151856020015186604001516040516000815260200160405260405161376594939291906141d6565b6020604051602081039080840390855afa158015613787573d6000803e3d6000fd5b505050602060405103516001600160a01b031614156137a8575060016124f6565b5060009392505050565b60006137c1826000015161247b565b82604001518360200151846060015185608001518660a001518760c001518860e001518961010001518a61012001518b61014001518c61016001518d61018001516040516020016131b59d9c9b9a99989796959493929190613ef5565b60006124f683836040518060400160405280601e81526020017f536166654d6174683a207375627472616374696f6e206f766572666c6f770000815250613869565b61271091020490565b6000818484111561388d5760405162461bcd60e51b81526004016108c191906141f4565b505050900390565b803561086d81614c17565b600082601f8301126138b0578081fd5b81356138c36138be82614beb565b614bc4565b8181529150602080830190848101610280808502870183018810156138e757600080fd5b60005b8581101561390e576138fc8984613a05565b855293830193918101916001016138ea565b50505050505092915050565b600082601f83011261392a578081fd5b81356139386138be82614beb565b818152915060208083019084810160608085028701830188101561395b57600080fd5b60005b8581101561390e576139708984613adf565b8552938301939181019160010161395e565b6000610100808385031215613995578182fd5b61399e81614bc4565b9150508135815260208201356139b381614c17565b602082015260408201356139c681614c17565b80604083015250606082013560608201526080820135608082015260a082013560a082015260c082013560c082015260e082013560e082015292915050565b60006102808284031215613a17578081fd5b6101a0613a2381614bc4565b9150613a2f8484613982565b8252610100613a4085828601613895565b6020840152610120613a5486828701613895565b6040850152610140613a6887828801613895565b6060860152610160613a7c88828901613895565b60808701526101808088013560a08801528588013560c08801526101c088013560e08801526101e0880135858801526102008801358488015261022088013583880152610240880135828801526102608801358188015250505050505092915050565b600060608284031215613af0578081fd5b613afa6060614bc4565b9050813560ff81168114613b0d57600080fd5b80825250602082013560208201526040820135604082015292915050565b600060208284031215613b3c578081fd5b81356124f681614c17565b600060208284031215613b58578081fd5b813567ffffffffffffffff811115613b6e578182fd5b613b7a848285016138a0565b949350505050565b600080600060608486031215613b96578182fd5b833567ffffffffffffffff80821115613bad578384fd5b613bb9878388016138a0565b94506020860135915080821115613bce578384fd5b613bda8783880161391a565b93506040860135915080821115613bef578283fd5b50613bfc8682870161391a565b9150509250925092565b600060208284031215613c17578081fd5b815180151581146124f6578182fd5b600060208284031215613c37578081fd5b5035919050565b60008060408385031215613c50578182fd5b8235915060208084013567ffffffffffffffff80821115613c6f578384fd5b81860187601f820112613c80578485fd5b8035925081831115613c90578485fd5b613ca2601f8401601f19168501614bc4565b91508282528784848301011115613cb7578485fd5b8284820185840137509081019091019190915290939092509050565b60008060808385031215613ce5578182fd5b82359150613cf68460208501613adf565b90509250929050565b60006101008284031215613d11578081fd5b6124f68383613982565b6000806101608385031215613d2e578182fd5b613d388484613982565b9150613cf6846101008501613adf565b60006102808284031215613d5a578081fd5b6124f68383613a05565b60008060006103408486031215613d79578081fd5b613d838585613a05565b9250613d93856102808601613adf565b9150613da3856102e08601613adf565b90509250925092565b6000806102a08385031215613dbf578182fd5b613dc98484613a05565b94610280939093013593505050565b600060208284031215613de9578081fd5b5051919050565b60008060408385031215613e02578182fd5b50508035926020909101359150565b60601b6bffffffffffffffffffffffff19169052565b60008151808452815b81811015613e4c57602081850181015186830182015201613e30565b81811115613e5d5782602083870101525b50601f01601f19169290920160200192915050565b60008154600180821660008114613e905760018114613eae57613eec565b60028304607f16865260ff1983166020870152604086019350613eec565b60028304808752613ebe86614c0b565b60005b82811015613ee25781546020828b0101528482019150602081019050613ec1565b8801602001955050505b50505092915050565b60008e82526bffffffffffffffffffffffff19808f60601b166020840152808e60601b166034840152613f2b604884018e613e11565b60609b909b1b909a16605c8201526070810198909852609088019690965260b087019490945260d086019290925260f08501526101108401526101308301526101508201526101700195945050505050565b9788526bffffffffffffffffffffffff19606097881b811660208a01529590961b909416603487015260488601929092526068850152608884015260a883015260c882015260e80190565b6000808454600180821660008114613fe75760018114613ffe5761402d565b60ff198316865260028304607f168601935061402d565b600283048886526020808720875b838110156140255781548a82015290850190820161400c565b505050860193505b5050509283525050602001919050565b7f19457468657265756d205369676e6564204d6573736167653a0a3332000000008152601c810191909152603c0190565b90565b6001600160a01b0391909116815260200190565b6001600160a01b03978816815295871660208701529390951660408501526060840191909152608083015260a082019290925260c081019190915260e00190565b6001600160a01b038c811682528b81166020830152604082018b9052891660608201526080810188905260a0810187905261016081016003871061410657fe5b8660c08301528560e083015284610100830152836101208301526005831061412a57fe5b826101408301529c9b505050505050505050505050565b6001600160a01b039384168152919092166020820152604081019190915260600190565b6001600160a01b03929092168252602082015260400190565b6020808252825182820181905260009190848201906040850190845b818110156141b65783518352928401929184019160010161419a565b50909695505050505050565b901515815260200190565b90815260200190565b93845260ff9290921660208401526040830152606082015260800190565b6000602082526124f66020830184613e27565b6000602082526124f66020830184613e72565b602081016002831061422857fe5b91905290565b6020808252601c908201527f596f7520646f6e2774206861766520656e6f67687420746f6b656e7300000000604082015260600190565b60208082526021908201527f446973707574652068617320616c7265616479206265656e20637265617465646040820152601760f91b606082015260800190565b60208082526026908201527f54686520646973707574652068617320616c7265616479206265656e2072657360408201526537b63b32b21760d11b606082015260800190565b60208082526010908201526f105b1c9958591e48185c1c1c9bdd995960821b604082015260600190565b60208082526032908201527f4d757374206e6f742073656e642065766964656e63652069662074686520646960408201527139b83aba329034b9903932b9b7b63b32b21760711b606082015260800190565b60208082526026908201527f4f776e61626c653a206e6577206f776e657220697320746865207a65726f206160408201526564647265737360d01b606082015260800190565b6020808252818101527f54696d656f75742074696d6520686173206e6f7420706173736564207965742e604082015260600190565b6020808252600f908201526e24b73b30b634b210393ab634b7339760891b604082015260600190565b6020808252601c908201527f57617272616e74792074696d65206861732074696d6564206f75742e00000000604082015260600190565b6020808252600d908201526c496e76616c696420706861736560981b604082015260600190565b60208082526031908201527f5468652070726f7365637574696f6e20666565206d75737420636f7665722061604082015270393134ba3930ba34b7b71031b7b9ba399760791b606082015260800190565b6020808252601e908201527f596f75206d75737420626520746865206c697374696e672073656c6c65720000604082015260600190565b6020808252601b908201527f596f7520646f6e2774206861766520656e6f6768742066756e64730000000000604082015260600190565b60208082526025908201527f44697370757465206973206e6f742077616974696e6720666f7220616e79207060408201526430b93a3c9760d91b606082015260800190565b60208082526026908201527f54686520607472616e73666572602066756e6374696f6e206d757374206e6f74604082015265103330b4b61760d11b606082015260800190565b60208082526017908201527f4f6e6c792062757965722063616e20646973707574652e000000000000000000604082015260600190565b60208082526018908201527f4f6e6c792073656c6c65722063616e20646973707574652e0000000000000000604082015260600190565b60208082526021908201527f4c697374696e672068617320616c7265616479206265656e207265706f7274656040820152601960fa1b606082015260800190565b6020808252818101527f4f776e61626c653a2063616c6c6572206973206e6f7420746865206f776e6572604082015260600190565b6020808252601a908201527f53656e646572206973206e6f74206f72646572207369676e6572000000000000604082015260600190565b6020808252601e908201527f5468652063616c6c6572206d757374206265207468652073656e6465722e0000604082015260600190565b6020808252818101527f436f6e6669726d6174696f6e2074696d65206861732074696d6564206f75742e604082015260600190565b6020808252601c908201527f53656e646572206973206e6f74206c697374696e67207369676e657200000000604082015260600190565b6020808252602b908201527f526566756e642063616e27742062652067726561746572207468616e20746f7460408201526a30b61030b63637bbb2b21760a91b606082015260800190565b6020808252602f908201527f45766964656e63657320617265206f6e6c7920616c6c6f77656420666f72206f60408201526e393232b939903234b9b83aba32b99760891b606082015260800190565b60208082526027908201527f596f7520617265206e6f7420616c6c6f77656420746f207265706f7274206c6960408201526639ba34b733b99760c91b606082015260800190565b6020808252602a908201527f56616c7565206d7573742062652067726561746572207468616e2061726269746040820152691c985d1a5bdb90dbdcdd60b21b606082015260800190565b6020808252602f908201527f596f75206d7573742062652073656c6c6572206f7220627579657220696e207460408201526e3432903934b3b43a10383430b9b29760891b606082015260800190565b6020808252600d908201526c24b73b30b634b21037b93232b960991b604082015260600190565b6020808252602d908201527f41707065616c7320617265206f6e6c7920616c6c6f77656420666f72206f726460408201526c32b939903234b9b83aba32b99760991b606082015260800190565b6020808252601190820152702cb7ba9036bab9ba10313290313abcb2b960791b604082015260600190565b6020808252818101527f4f7264657220616c726561647920686173206265656e2070726f636573736564604082015260600190565b60208082526022908201527f5468652063616c6c6572206d757374206265207468652061726269747261746f604082015261391760f11b606082015260800190565b60208082526021908201527f4661696c656420746f207472616e7366657220627579657227732066756e64736040820152601760f91b606082015260800190565b60208082526019908201527f556e61626c6520746f207472616e7366657220746f6b656e7300000000000000604082015260600190565b6020808252600f908201526e496e76616c6964206c697374696e6760881b604082015260600190565b60208082526034908201527f5468652063616c6c6572206d757374206265207468652070726f73656375746960408201527337b71037b9103a3432903232b332b73230b73a1760611b606082015260800190565b6020808252602e908201527f596f752063616e2774207265706f727420796f757273656c662e20557365206360408201526d616e63656c4c697374696e67282960901b606082015260800190565b600083825260406020830152613b7a6040830184613e72565b918252602082015260400190565b838152602081018390526060810160068310614b8457fe5b826040830152949350505050565b9283526020830191909152604082015260600190565b600060ff8416825260406020830152613b7a6040830184613e72565b60405181810167ffffffffffffffff81118282101715614be357600080fd5b604052919050565b600067ffffffffffffffff821115614c01578081fd5b5060209081020190565b60009081526020902090565b6001600160a01b0381168114614c2c57600080fd5b5056fea2646970667358221220611f4c858f0f7714965361e37d37a4366c5500283e2684e03c498b8748eb319064736f6c63430006080033",
  "immutableReferences": {},
  "source": "// SPDX-License-Identifier: MIT\npragma solidity ^0.6.0;\npragma experimental ABIEncoderV2;\n\nimport \"./Dagora.sol\";\n\ncontract TestDagora is Dagora {\n\n    constructor(address _arbitrator,\n                address _token,\n                address _protocolFeeRecipient,\n                uint _feeTimeoutDays,\n                uint _blacklistTimeoutDays,\n                uint _protocolFeePercentage,\n                uint _tokenOwnerFeePercentage,\n                bytes memory _reportExtraData,\n                bytes memory _orderExtraData,\n                string memory _ipfsDomain)\n                Dagora(_arbitrator,\n                        _token,\n                        _protocolFeeRecipient,\n                        _feeTimeoutDays,\n                        _blacklistTimeoutDays,\n                        _protocolFeePercentage,\n                        _tokenOwnerFeePercentage,\n                        _reportExtraData,\n                        _orderExtraData,\n                        _ipfsDomain) public {\n    }\n\n    function _requireValidListing(Listing memory _listing, Sig memory sig)\n        public\n        view\n        returns (bool)\n    {\n        return requireValidListing(_listing, sig) != 0x0;\n    }\n\n    function _hashListing(Listing memory listing)\n        public\n        pure\n        returns (bytes32 hash)\n    {\n        return hashListing(listing);\n    }\n\n    function _hashListingToSign(Listing memory listing)\n        public\n        pure\n        returns (bytes32 hash)\n    {\n        return hashListingToSign(listing);\n    }\n\n    function _ecrecover(bytes32 msgHash, Sig memory sig) public pure returns (address) {\n        return ecrecover(msgHash, sig.v, sig.r, sig.s);\n    }\n}",
  "sourcePath": "/home/gustavo/dagora/contracts/marketplace/TestDagora.sol",
  "compiler": {
    "name": "solc",
    "version": "0.6.8+commit.0bbfe453.Emscripten.clang"
  },
  "schemaVersion": "3.2.0",
  "updatedAt": "2020-06-04T04:37:56.751Z",
  "devdoc": {
    "methods": {
      "appeal(bytes32)": {
        "details": "Appeal an appealable ruling. UNTRUSTED. Transfer the funds to the arbitrator. Note that no checks are required as the checks are done by the arbitrator.",
        "params": {
          "_hash": "The hash of the order."
        }
      },
      "owner()": {
        "details": "Returns the address of the current owner."
      },
      "renounceOwnership()": {
        "details": "Leaves the contract without owner. It will not be possible to call `onlyOwner` functions anymore. Can only be called by the current owner.     * NOTE: Renouncing ownership will leave the contract without an owner, thereby removing any functionality that is only available to the owner."
      },
      "submitEvidence(bytes32,string)": {
        "details": "Submit a reference to evidence. EVENT.",
        "params": {
          "_evidence": "A link to an evidence using its URI.",
          "_hash": "The hash of the order."
        }
      },
      "transferOwnership(address)": {
        "details": "Transfers ownership of the contract to a new account (`newOwner`). Can only be called by the current owner."
      }
    }
  },
  "userdoc": {
    "methods": {}
  }
}